:100000000C9491010C9426200C944D200C94742097
:100010000C949B200C94B9010C94B9010C94C2204F
:100020000C94B9010C94B9010C94A72A0C943929A9
:100030000C94B9010C94B9010C94B9010C94B90158
:100040000C94B9010C94B9010C94B9010C94B90148
:100050000C94B9010C94B9010C94B9010C94E920E9
:100060000C94B9010C94B9010C94B9010C94B90128
:100070000C94B9010C94B9010C94B9010C94B90118
:100080000C94B9010C94B9010C94B9010C94B90108
:100090000C94B9010C94B9010C94B9010C94B901F8
:1000A0000C94B9010C94B9010C94B901462249226F
:1000B00038223C2242226A226A226A224D2251229E
:1000C00055225B225F226A22652244657669636558
:1000D000206973206E6F7420612044533138783268
:1000E000302066616D696C79206465766963652E80
:1000F00000005EBCE2613FDD83C29C7E20A3FD1F49
:10010000419DC3217FFCA2401E5F01E3BD3E608292
:10011000DC237D9FC1421CFEA0E1BF5D0380DE3C6D
:1001200062BEE0025CDF81633D7C22C09E1D43A174
:10013000FF4618FAA427799BC584DA3866E5BB59CF
:1001400007DB856739BAE406581947A5FB7826C44A
:100150009A653BD987045AB8E6A7F91B45C6987A31
:1001600024F8A6441A99C7257B3A6486D85B05E72C
:10017000B98CD2306EEDB3510F4E10F2AC2F71939B
:10018000CD114FADF3702ECC92D38D6F31B2EC0EFA
:1001900050AFF1134DCE90722C6D33D18F0C52B005
:1001A000EE326C8ED0530DEFB1F0AE4C1291CF2DDC
:1001B00073CA947628ABF517490856B4EA6937D55F
:1001C0008B5709EBB536688AD495CB2977F4AA48C2
:1001D00016E9B7550B88D6346A2B7597C94A14F6B9
:1001E000A8742AC896154BA9F7B6E80A54D7896BA4
:1001F00035070605040100080A0B0C0D0900000074
:100200000200090F0000030401000C0000000000C0
:1002100000000000000000000000000004080201CF
:10022000104080401020408040800802040180403F
:100230002010020110801020404020040404040417
:100240000304050202020204030202020206060679
:100250000606060404020202040400000000230053
:10026000260029002C002F00000000002500280097
:100270002B002E00310000000000240027002A007F
:100280002D003000080B00020202010009040000EA
:1002900001020200000524001001052401010104EF
:1002A0002402060524060001070581031000400909
:1002B000040100020A0000000705020240000007D6
:1002C00005830240000012010002EF0201404123B9
:1002D000368000010102030112010002000000400B
:1002E0004123368000010102030141726475696E89
:1002F0006F204C4C430041726475696E6F204C65F1
:100300006F6E6172646F0004030904000806700ACE
:1003100047100B14FC150716E417EF17CA1F3924F2
:10032000C12411241FBECFEFDAE0DEBFCDBF11E044
:10033000A0E0B1E0E4E1F1E602C005900D92A43A3C
:10034000B107D9F724E0A4EAB1E001C01D92AC32B4
:10035000B207E1F713E0C2E2D3E004C02297FE0146
:100360000E94992ECC30D107C9F70E94D1240C9459
:1003700088300C9400008091A102811117C080E0A8
:1003800090E0A0E4B1E48093A8019093A901A09328
:10039000AA01B093AB011092AC016AE070E080E07A
:1003A00090E00E94622181E08093A1028091A401EB
:1003B0009091A501A091A601B091A7010196A11D60
:1003C000B11D8093A4019093A501A093A601B093C1
:1003D000A7018091A102811117C080E090E0A0E404
:1003E000B1E48093A8019093A901A093AA01B093CE
:1003F000AB011092AC016AE070E080E090E00E94F6
:10040000622181E08093A1028091A4019091A501D5
:10041000A091A601B091A701682F61708DE00C94A6
:10042000A4221F93CF93DF93FC01648D758D868D7D
:10043000978D24E630E040E050E00E94562E672B76
:10044000682B692B49F484E690E00E946A3061E0F1
:10045000680F84E690E00BC0C4E6D0E010E0CE0167
:100460000E946A30811740F461E0680FCE01DF918D
:10047000CF911F910C9472302196C83CD10511F098
:10048000182FEDCFDF91CF911F910895CF92DF927A
:10049000EF92FF920F931F93CF93DF93EC01198A92
:1004A000188A80E190E09B8B8A8B83E690E09D8B9D
:1004B0008C8B0E946A308F3FB9F404E610E060E054
:1004C000C8010E9472300F5F1F4F083C1105B9F739
:1004D0000C891D89C8010E946A308823E9F060E018
:1004E000C8010E94723018C0C12CD12C760104E6DC
:1004F00010E0C8010E946A30C80ED11CE11CF11C3A
:100500000F5F1F4F083C1105A1F7CC8EDD8EEE8EDC
:10051000FF8ECE010E941102C888D9887E0100E1B9
:1005200010E0CC1ADD0AC6018E0D9F1D0E946A30B4
:10053000F70181937F0101501109A9F705E010E04F
:100540008A899B89800F911F0E946A30FE01E00F0B
:10055000F11F868B0150110999F7DF91CF911F91FF
:100560000F91FF90EF90DF90CF9008958F929F9220
:10057000AF92BF92DF92EF92FF920F931F93CF93B0
:10058000DF93CDB7DEB7C554D1090FB6F894DEBFFF
:100590000FBECDBF7C018B01DC0114961D921D9214
:1005A0001D921C92179788E018968C930E943F2109
:1005B000F80183889488A588B688681979098A091A
:1005C0009B0980809180A280B38086169706A8063A
:1005D000B90608F012C15801F7E0AF0EB11CD801FE
:1005E0001596ED91FC9116978EE0DE019B96019099
:1005F0000D928A95E1F741E0BE016F5F7F4FCE011A
:100600008B960E94601D882379F0FE013196D501FA
:10061000CE01099621912D93E817F907D9F767E0E4
:10062000CE0101960E94FD1DF80184810580F681AE
:10063000E02D9EE0DE015D9601900D929A95E1F726
:100640008C3031F08B3031F08A3031F02FE105C041
:100650002FE703C02FE501C02FE3CE014D9626966C
:100660002FAF26970E94081CB501CE014D960E941F
:10067000031D40E06EE4CE014D960E94A51C40E0B3
:1006800060E0CE014D960E94A51C40E060E0CE01E6
:100690004D960E94A51C40E026962FAD2697622F0E
:1006A000CE014D960E94A51C40E068E4CE014D9617
:1006B0000E94A51CD8011596ED91FC9116978EE02D
:1006C000DE011F9601900D928A95E1F7CE010F96FB
:1006D0000E94081CB501CE010F960E94031D41E047
:1006E00064E4CE010F960E94A51CD8011596ED91E9
:1006F000FC9116978EE0DE01119601900D928A957D
:10070000E1F7F8018781823271F0883261F080313F
:1007100019F4DD24D39408C06AEC70E08AEB93E00E
:100720000E942A2501C0D12CCE0101960E94081CEE
:10073000B501CE0101960E94031D40E06EEBCE0193
:1007400001960E94A51C5E01F9E3AF0EB11C4501A4
:1007500089E0880E911CCE0101960E94E71CD5010C
:100760008D935D01A815B905B1F76AAD70E0762FDC
:10077000662789AD682BDD2041F133E0660F771FD6
:100780003A95E1F721968FAD2197803151F4CB0155
:10079000807F2FAD6CE070E0621B7109680F791FDC
:1007A00014C08DAD807631F423E0660F771F2A9553
:1007B000E1F70BC0803229F4660F771F660F771FB1
:1007C00004C0803411F4660F771F80E090E00E942F
:1007D000252D20E030E040E85DE30E94DB2DF801AC
:1007E0006787708B818B928B0E943F21D801539633
:1007F0006D937D938D939C935697F801878590898F
:10080000A189B289F70180839183A283B383C70151
:10081000CB5BDF4F0FB6F894DEBF0FBECDBFDF91CD
:10082000CF911F910F91FF90EF90DF90BF90AF900D
:100830009F908F9008958F929F92AF92BF92CF9288
:10084000DF92EF92FF926A017B0120E030E040E30B
:1008500051E4C701B6010E94882C18163CF02DEC1B
:100860003CEC4CE45DE3C701B601C3C120E030E0DD
:1008700040E351E4C701B6010E94D72D1816BCF41D
:1008800020E030E048EB51E4C701B6010E94882C1B
:1008900018166CF02EEA37E441EE5EE3C701B601AC
:1008A0000E94232C26EA3BE944E45DE3A2C120E058
:1008B00030E048EB51E4C701B6010E94D72D18166D
:1008C000BCF420E030E04CE352E4C701B6010E94E2
:1008D000882C18166CF028EA36EC4BED5FE3C70164
:1008E000B6010E94232C2EE73CE849E35DE381C179
:1008F00020E030E04CE352E4C701B6010E94D72D5E
:100900001816BCF420E030E04CEB52E4C701B6010D
:100910000E94882C18166CF025E63AEA4AEF50E45B
:10092000C701B6010E94232C2EE230E940E25DE3CC
:1009300060C120E030E04CEB52E4C701B6010E94F8
:10094000D72D1816BCF420E030E042E253E4C70192
:10095000B6010E94882C18166CF027ED33EA48E0A7
:1009600052E4C701B6010E94232C29E832ED4EED76
:100970005CE33FC120E030E042E253E4C701B6014E
:100980000E94D72D1816BCF420E030E04AE353E46F
:10099000C701B6010E94882C18166CF022E03BEAD1
:1009A00042E152E4C701B6010E94232C25EF39EB46
:1009B0004AED5CE31EC120E030E04AE353E4C701A6
:1009C000B6010E94D72D1816BCF420E030E841E8AB
:1009D00053E4C701B6010E94882C18166CF02AE86F
:1009E0003EE24AEB52E4C701B6010E94232C26E204
:1009F00034EE43E85CE3FDC020E030E841E853E436
:100A0000C701B6010E94D72D1816BCF420E030E0D3
:100A10004BE953E4C701B6010E94882C18166CF00C
:100A200020E030E04DE153E4C701B6010E94232CE1
:100A300027EE3DE147E25CE3DCC020E030E04BE93B
:100A400053E4C701B6010E94D72D1816BCF420E06C
:100A500030E043EB53E4C701B6010E94882C18161E
:100A60006CF025E934E24FE453E4C701B6010E947B
:100A7000232C25E639E142EE5BE3BBC020E030E009
:100A800043EB53E4C701B6010E94D72D1816BCF4FE
:100A900020E030E848EC53E4C701B6010E94882CFE
:100AA00018166CF020E030E048E853E4C701B601C6
:100AB0000E94232C24E237E94FE75BE39AC020E051
:100AC00030E848EC53E4C701B6010E94D72D181650
:100AD000BCF420E030E048ED53E4C701B6010E94C9
:100AE000882C18166CF02CED36EF43EA53E4C7015E
:100AF000B6010E94232C20EE3DE240E15BE379C089
:100B000020E030E048ED53E4C701B6010E94D72D44
:100B10001816BCF420E030E045EE53E4C701B601FE
:100B20000E94882C18166CF02EE937EE4AEB53E43D
:100B3000C701B6010E94232C22E539E44DE95AE3AE
:100B400058C020E030E045EE53E4C701B6010E94F2
:100B5000D72D1816BCF420E030E84FEE53E4C7015F
:100B6000B6010E94882C18166CF020E030EB4EEC99
:100B700053E4C701B6010E94232C24E330E847E385
:100B80005AE337C020E030E84FEE53E4C701B60126
:100B90000E94D72D1816BCF420E030E443E054E462
:100BA000C701B6010E94882C18166CF027EC31EFB3
:100BB0004CEE53E4C701B6010E94232C27E137EB2A
:100BC00041ED58E316C020E030E443E054E4C701AF
:100BD000B6010E94D72D181684F427EC31E743E0C4
:100BE00054E4C701B6010E94232C2CEA35EC47E2FD
:100BF00057E30E948C2C4B015C01C501B401FF90AE
:100C0000EF90DF90CF90BF90AF909F908F9008951E
:100C10000F931F93CF93DF9300E020E040E060E06C
:100C20008FE593E00E949A248FE393E00E944602AE
:100C300089E395E09093AA028093A90280EC8093C7
:100C4000AB0288EA8093AC0281E08093AD0285E339
:100C50008093AE02109213031092140385E193E087
:100C60000E94711780E393E00E94141580EE9BEAC6
:100C700090933E0380933D0380E894E8AEE1B0E0BA
:100C800080938A0290938B02A0938C02B0938D0282
:100C90008AE080938E021092990210929A0210922A
:100CA0009B0210929C0210929D0210929E02109242
:100CB0009F021092A0028EE090E00E94E424EC01DA
:100CC00067E00E943D1DD0939002C0938F0249E0DF
:100CD00050E068E070E08CE792E00E94091E1092FC
:100CE0007902C0E5D2E014E1188382E180934F02DB
:100CF00060E00E946B2261E088810E946B2261E0CB
:100D000088810E94A42210924E0285E180932402E1
:100D10001093250283E18093230260E00E946B22FE
:100D20001092220287E18093F90160E0DF91CF9178
:100D30001F910F910C946B220F931F93CF93DF930E
:100D4000EC018B0161E08BE00E946B2260E08BE0A4
:100D50000E94A4226AE070E080E090E00E9462219C
:100D600061E08BE00E94A42268EC70E080E090E0FB
:100D70000E946221B80182E793E00E941113892B3F
:100D8000F1F043E064E089E190E00E94F31948EE5D
:100D900064E08AE190E00E94F31943E064E08BE1B3
:100DA00090E00E94F319FE01EC56FF4F60817181C3
:100DB000CE0184599F4F0E943E1781E001C080E020
:100DC000DF91CF911F910F91089540E052EC61E0C7
:100DD00070E08AEB93E00E94332462E080E00E949E
:100DE0006B228091A102811117C080E090E0A0E405
:100DF000B1E48093A8019093A901A093AA01B093B4
:100E0000AB011092AC016AE070E080E090E00E94DB
:100E1000622181E08093A10261E08DE00E946B225B
:100E20008091AC01811118C062E083E00E946B22C6
:100E300081E08093AC010E943F216093AD017093EB
:100E4000AE018093AF019093B00142E050E06BEBB4
:100E500071E080E00E94D61F84EA91E090937B02CB
:100E600080937A0265E573E089EA92E00C949C062F
:100E70004F925F926F927F928F929F92AF92BF92AA
:100E8000CF92DF92EF92FF920F931F93CF93DF9356
:100E9000CDB7DEB765970FB6F894DEBF0FBECDBFF6
:100EA00082E793E00E949E1385E193E00E94ED1695
:100EB0000697F1F5E0902603F090270300912803B0
:100EC0001091290346E050E0BE01695F7F4F85E144
:100ED00093E00E94B7168F81833751F58A85823758
:100EE00039F580E393E00E9497154091A902509153
:100EF000AA0281E991E09A838983EB82FC820D83C7
:100F00001E83BE016F5F7F4F80E393E00E94341524
:100F1000019771F46AE271E080E393E00E943C255E
:100F2000E092AB02F092AC020093AD021093AE02DD
:100F30000E943F21C0908202D0908302E090840200
:100F4000F09085026C197D098E099F096135734CFB
:100F50008105910508F471C00E943F2160938202CF
:100F600070938302809384029093850200917902AA
:100F700010E080914F020E94FD21F801EE0FFF1F4B
:100F8000EF5AFD4F918380838091790290E0019622
:100F900004E110E0B8010E94422E8093790260E0E3
:100FA000809125020E94A42261E070E080E090E040
:100FB0000E94622161E0809124020E94A42261E0EB
:100FC00070E080E090E00E946221E0904E02F12CFF
:100FD000809123020E94FD21F701EE0FFF1FED5DBE
:100FE000FD4F9483838380914E0290E00196B80177
:100FF0000E94422E80934E0260E0809124020E9463
:10100000A42261E0809125020E94A422E0902202A5
:10101000F12C8091F9010E94FD21F701EE0FFF1FD5
:10102000E750FE4F928381838091220290E00196E7
:10103000B8010E94422E809322020E943F21C0905C
:101040008602D0908702E0908802F09089026C19A5
:101050007D098E099F09613472448F40910508F41F
:10106000A9C10E943F2160938602709387028093FA
:101070008802909389020E943F218CE792E00E94AF
:10108000481F6093B1017093B2018093B3019093B4
:10109000B4011092B5011092B6011092B7011092EE
:1010A000B80185E08093B9018CE792E00E94311F7E
:1010B0006093BA017093BB018093BC019093BD0112
:1010C0001092BE011092BF011092C0011092C10196
:1010D00086E08093C201A0907A02B0907B020E94C9
:1010E0003F21F8940E943F216B017C01F501608152
:1010F000718182819381108211821282138278948D
:10110000F5014184528463847484A70196012419F3
:1011100035094609570929013A010E94252DF50193
:1011200024813581468157810E948C2CF501C1862E
:10113000D286E386F4866093C3017093C4018093E2
:10114000C5019093C6014092C7015092C8016092B8
:10115000C9017092CA0180E18093CB011092D00145
:101160001092D1011092D2011092D30183E18093A9
:10117000D40180E00E94DA22BC01882777FD8095A7
:10118000982F0E94272D6093CC017093CD018093FE
:10119000CE019093CF016AE872E0CE010D960E94D5
:1011A000B60289E0FE013D96A5EDB1E001900D92F9
:1011B0008A95E1F7E1E5F2E060E070E0CB01219192
:1011C0003191620F731F811D911D22E0E937F207F3
:1011D000B1F724E130E040E050E00E94562ECA0111
:1011E000B9010E94252D20E030E44CE950E40E9432
:1011F000DB2D9B01AC0160E070EB83E195E40E9484
:10120000232C20E030E042E852E40E948C2C20E0C5
:1012100030E040EE50E40E94242C6093DE01709395
:10122000DF018093E0019093E10180E492E4AFE07C
:10123000B0E08093E2019093E301A093E401B093C6
:10124000E50184E08093E6018090D5019090D6017D
:10125000A090D701B090D801E6E2F2E060E070E043
:10126000CB0121913191620F731F811D911D32E0DD
:10127000EE34F307B1F724E130E040E050E00E94A3
:10128000562ECA01B9010E94252DAB01BC0183E293
:1012900092E00E941B040E94F92C0E94252D2DE84B
:1012A00036EE4BE551E40E94232C9B01AC0160E239
:1012B0007EE987E899E40E948C2C6B017C0120E098
:1012C00030E048EC51E4C501B4010E94232C20E534
:1012D0003DE847E95CE30E94DB2D20E030E040E898
:1012E0005FE30E94242C9B01AC01C701B6010E9460
:1012F0008C2C6093E7017093E8018093E90190934F
:10130000EA0180E492E4AFE0B0E08093EB019093D7
:10131000EC01A093ED01B093EE018DE08093EF011D
:10132000EAEFF1E060E070E0CB0121913191620FD2
:10133000731F811D911D42E0E232F407B1F724E1F1
:1013400030E040E050E00E94562ECA01B9010E94F0
:10135000252D20E030E44CE950E40E94DB2D609321
:10136000F0017093F1018093F2019093F30180E416
:1013700092E4AFE0B0E08093F4019093F501A09384
:10138000F601B093F7018BE08093F80180E393E0DE
:101390000E94D815882371F04091BA015091BB0189
:1013A0006091BC017091BD0122E030E080E393E0E8
:1013B0000E94E62665960FB6F894DEBF0FBECDBF3D
:1013C000DF91CF911F910F91FF90EF90DF90CF9021
:1013D000BF90AF909F908F907F906F905F904F9055
:1013E0000895CF93CFB7F89480916503811127C0FA
:1013F000ECE4F2E08491EDE2F2E09491E82FF0E089
:10140000EE0FFF1FEA58FD4FA591B4918C918923EF
:1014100021F461E081E10E94A42261E081E10E9467
:101420006B228CB580618CBD8CB580648CBD61E015
:101430008FE00E946B2261E080E10E946B2280912C
:1014400065038F5F80936503CFBFCF9108950E969C
:1014500024E1FC0111922A95E9F70895CF93DF93D7
:10146000EC01625F7F4F0E94A624CE01DF91CF91F5
:101470000895CF93DF93EC016E5E7F4F0E94A62408
:10148000CE01DF91CF910895CF93DF93EC016A5E97
:101490007F4F0E94A624CE01DF91CF910895CF9374
:1014A000DF93EC01625E7F4F0E94A624CE01DF91A4
:1014B000CF91089580E3FB0180833296842F82953B
:1014C0008F7090E1899F401911244A3014F4405DD7
:1014D00001C0495C4293882311F0482FEFCF089553
:1014E0000F9300E020E040E060E086E693E00E9499
:1014F0009A240F9108956F927F928F929F92AF924C
:10150000BF92CF92DF92EF92FF920F931F93CF93F0
:10151000DF93CDB7DEB7AC970FB6F894DEBF0FBE42
:10152000CDBF7C01862EB42EA52E20E2922ECE01B8
:1015300001966C01FC01292D11922A95E9F70FEF14
:101540002FEF4FEF6FEF86960E949A2481E991E08A
:101550009AA389A389A59AA5ABA5BCA58BA39CA397
:10156000ADA3BEA38701095B1F4F43E450E0BE015A
:101570006F5D7F4FC8010E946E16019609F4BFC0CF
:1015800081E089838A8386E0782E7B821C82F70142
:1015900064817581868197810E949D2E6D837E83F3
:1015A0008F839887A986BA8680E890E09C878B878E
:1015B0004CE150E0B601C8010E947A16F601292DCF
:1015C00011922A95E9F7570188E0A80EB11CF501A0
:1015D000D60101900D927A94E1F740E150E0B60116
:1015E000C8010E947A16F60111929A94E9F796E0E2
:1015F000692E712C40E250E0B601C8010E947A16B3
:10160000F1E06F1A7108B1F783E6898392E89A8353
:1016100093E59B838C8385E38D8381E08E838F822A
:101620009DE3988797E099878A8786E0F501DE0138
:101630001B9601900D928A95E1F78CE0898B8A8B3D
:1016400062E371E0CE0143960E946330F701438567
:10165000BE01675E7F4FC7010E945A0AF7014485A9
:10166000BE01655E7F4FC7010E945A0AF70145859A
:10167000BE01635E7F4FC7010E945A0A4EE150E0EF
:10168000B601C8010E947A16F3E08F121EC082E3F1
:10169000898384E08A83F70196859B8397859C8361
:1016A00090899D8391899E8396E39F838887828D0D
:1016B0008987838D8A87848D8B87858D8C874CE085
:1016C00050E0B601C8010E947A1687E3898386E05C
:1016D0008A8391E09B8393E09C838D838FE08E834C
:1016E0008AE38F838BE388878FEF898749E050E017
:1016F000B601C8010E947A16C8010E947616AC96FF
:101700000FB6F894DEBF0FBECDBFDF91CF911F9112
:101710000F91FF90EF90DF90CF90BF90AF909F9090
:101720008F907F906F9008952F923F924F925F928B
:101730006F927F928F929F92AF92BF92CF92DF92E1
:10174000EF92FF920F931F93CF93DF93CDB7DEB746
:10175000E3970FB6F894DEBF0FBECDBF7C012A0120
:101760003B0169010E9433214B015C018701095B48
:101770001F4FC8010E94ED161816190694F00E941A
:101780003321681979098A099B09461657066806A4
:101790007906F0F062E370E080E090E00E94622160
:1017A000E8CF42E250E0BE016F5F7F4FC8010E9468
:1017B000B7168981823031F4F8018589968983349E
:1017C000910541F019A6C8010E94471689A566C176
:1017D0008FEF64C16D817E818F8198850E949D2EDF
:1017E0004B015C01F601608371838283938346E041
:1017F00050E0B701685F7F4FCE014D960E94563092
:10180000892B99F4F70180819181A281B381881697
:101810009906AA06BB0648F084819581A681B78106
:1018200088159905AA05BB0528F4C8010E9447162A
:1018300080E034C189899A89AB89BC89F7018687A0
:101840009787A08BB18B3EECC32ED12CC8010E9490
:101850008E16F1E0CF1AD108C9F719A6C7018296F2
:101860009BA78AA7F701B696FDA7ECA708969FA7A6
:101870008EA73C976F018E9699AB88AB3897FBABE0
:10188000EAAB5701F6E1AF0EB11C47018EE1880EBD
:10189000911CC8010E942D16181619060CF093CF42
:1018A000C8010E948E168333910509F4CDC0F4F46B
:1018B00081309105B9F11CF4892B59F3DFC08330D5
:1018C0009105C1F1069709F0D9C0C8010E948E1692
:1018D0003C0144E050E0B401C8010E94B716212C3D
:1018E000312C7724F4E06F1A71083FC08A339105D8
:1018F00009F47EC03CF48533910561F0C69709F484
:101900003FC0BCC08B33910509F488C08F3F91055F
:1019100001F2B4C0C8010E948E16C8010E948E1642
:1019200089A7B7CFC8010E948E1644E050E06AA98B
:101930007BA93AC0C8010E948E163C0144E050E0E9
:10194000B501C8010E94B716212C312C772494E0F0
:10195000691A7108261437040CF09BCFC8010E9445
:101960008E16EFEF2E1A3E0AF5CF261437040CF030
:1019700090CFC8010E948E168FEF281A380AF5CF33
:10198000C8010E948E16782EF701828D811110C039
:10199000838D81110DC0848D81110AC0858D8111C7
:1019A00007C044E050E0B601C8010E94B71671CFED
:1019B000E8A9F9A92080318042805380B601CE0188
:1019C00083960E94A6248DA19EA1AFA1B8A58215E1
:1019D0009305A405B50529F3212C312C721409F4C3
:1019E00058CFC8010E948E16FFEF2F1A3F0AF6CF7C
:1019F000C8010E948E1644E050E06CA57DA5C80188
:101A00000E94B716F70166A177A180A591A50E9453
:101A10009D2E66A377A380A791A73BCFC8010E9404
:101A20008E1644E050E06EA57FA5C8010E94B7164F
:101A3000F70162A573A584A595A50E949D2E62A7B6
:101A400073A784A795A725CFC8010E948E1644E0EE
:101A500050E06AA57BA5C8010E94B716F70162A1F4
:101A600073A184A195A10E949D2E62A373A384A358
:101A700095A366A777A780AB91AB0BCFC8010E9457
:101A80008E16382E612C712C361409F402CFC80141
:101A90000E948E16FFEF6F1A7F0AF6CFE3960FB6FD
:101AA000F894DEBF0FBECDBFDF91CF911F910F9194
:101AB000FF90EF90DF90CF90BF90AF909F908F906E
:101AC0007F906F905F904F903F902F9008952F924E
:101AD0003F924F925F926F927F928F929F92AF92BE
:101AE000BF92CF92DF92EF92FF920F931F93CF930B
:101AF000DF93CDB7DEB727970FB6F894DEBF0FBEE2
:101B0000CDBF8C0120ED37E040E050E061E070E0B7
:101B100080E090E00E946B2BD80114966D937D932A
:101B20008D939C931797F8016083718382839383CD
:101B30004801F7E48F0E911CC4010E94591664E419
:101B400070E0C4010E943E17882309F428C10E9456
:101B500033216B017C01A12CB12C1D82180186E47C
:101B6000280E311CD801DE96BF83AE8338EE432E9B
:101B700033E0532E612C712CF1018081833009F404
:101B8000FDC081111FC0F80184819581A681B781B4
:101B90000196A11DB11D84839583A683B7830E94FE
:101BA00033216C197D098E099F09A30192010E94BE
:101BB000562EA90161E0C8010E947B0A81E0D10193
:101BC0008C93BEC08430F9F4F80184819581A6819C
:101BD000B7810196A11DB11D84839583A683B78328
:101BE0000E9433216C197D098E099F09A30192017E
:101BF0000E94562EA90163E0C8010E947B0AE2E020
:101C0000D101EC939DC0813061F5AE81BF814D91D2
:101C10005D916D917C919E012F5F3F4FC8010E94A5
:101C2000940B8D83823009F08BC089819A81AB81BE
:101C3000BC81F80184839583A683B7830E943321F6
:101C40006C197D098E099F09A30192010E94562EED
:101C5000A90163E0C8010E947B0AED81D101EC93E8
:101C600075C0823009F06CC0AE81BF814D915D912D
:101C70006D917C919E012F5F3F4FC8010E94940B94
:101C80008D83853009F056C083E0F1018083F8012F
:101C900082A193A1A4A1B5A1892B8A2B8B2B41F4FE
:101CA00084E893E0A0E0B0E082A393A3A4A3B5A34B
:101CB000F80186A197A1A0A5B1A5892B8A2B8B2B12
:101CC00061F482A193A1A4A1B5A1B695A79597951A
:101CD000879586A397A3A0A7B1A7D8019A964D91FF
:101CE0005D916D917C919D9796968D919D910D90B2
:101CF000BC91A02D452B462B472B59F4AC01BD01BF
:101D0000440F551F661F771FF80142A753A764A70A
:101D100075A7F80186A797A7A0ABB1AB82A593A53D
:101D2000A4A5B5A582AB93ABA4ABB5ABAA24A394F1
:101D3000B12C0CC0FD81F63019F4D1011C9206C003
:101D4000BD81BF3F19F4F10110821D82F1E0AF1691
:101D5000B10409F411CF0E9433216C197D098E0959
:101D60009F09D801DA962D913D914D915C91DD97B7
:101D7000261737074807590708F0FECEC4010E940E
:101D80005916F80184819581A681B7810196A11D1C
:101D9000B11D84839583A683B783C50102C080E00B
:101DA00090E027960FB6F894DEBF0FBECDBFDF914F
:101DB000CF911F910F91FF90EF90DF90CF90BF9048
:101DC000AF909F908F907F906F905F904F903F90DB
:101DD0002F900895CF92DF92EF92FF920F931F936F
:101DE000CF93DF93EC016B011AA21BA21CA21DA2D0
:101DF0001EA21FA218A619A61AA61BA61CA61DA6DF
:101E00001EAA1FAA18AE19AE2AAF3BAF4CAF5DAFEA
:101E1000FC01FE96E082F182028313838C01085F4D
:101E20001F4F86E0F80111928A95E9F7CE010E94D2
:101E3000270A86E0F601D80101900D928A95E1F714
:101E4000FE01EA5BFF4F1082CE01DF91CF911F911F
:101E50000F91FF90EF90DF90CF900C94670D8F92D1
:101E60009F92AF92BF92CF92DF92EF92FF920F9329
:101E70001F93CF93DF93EC010E9433216B017C0110
:101E80008EA99FA9A8ADB9AD8E010E5B1F4F892BFE
:101E90008A2B8B2B09F48FC0F80180819181A2815C
:101EA000B381A7019601281B390B4A0B5B0BCA01B2
:101EB000B90157FD4EC04601570138EE830E33E09D
:101EC000931EA11CB11C28EE33E040E050E00E94BC
:101ED000782E861A970AA80AB90AF8018082918298
:101EE000A282B382DA01C9010196A11DB11D4EA5DE
:101EF0005FA568A979A98C019D01000F111F221F00
:101F0000331F40175107620773072CF41EA61FA644
:101F100018AA19AA08C0481B590B6A0B7B0B4EA7BD
:101F20005FA768AB79AB4AA95BA96CA97DA94017EB
:101F30005107620773072CF41AAA1BAA1CAA1DAA30
:101F400008C0481B590B6A0B7B0B4AAB5BAB6CABF5
:101F50007DAB8E010A5B1F4FF8018081833081F4D5
:101F60008EA59FA5A8A9B9A9181619061A061B06B9
:101F70003CF084E08083CE010E94670D019602C090
:101F800080E090E0F8012081233011F0211120C081
:101F90004AA95BA96CA97DA9141615061606170691
:101FA000BCF0F8011082CE010E94270ACE010E94E7
:101FB000670D03960DC0D701C60188519C4FAF4FE6
:101FC000BF4FF80180839183A283B38380E090E0C8
:101FD000CEAADFAAE8AEF9AEDF91CF911F910F91A3
:101FE000FF90EF90DF90CF90BF90AF909F908F9039
:101FF0000895FB014281538164817581FC01428314
:10200000538364837583178216820895CF93FB01EF
:1020100081918111FDCFFB0180E090E020E030E074
:10202000CAE06191662309F12430310564F56E320E
:1020300071F48F3F910509F034F5DA01A20FB31F57
:1020400012968C932F5F3F4F80E090E0EACFDC0147
:10205000CA9FC001CB9F900D1124772767FD709513
:1020600060537109860F971FDCCF8F3F910509F0F0
:1020700054F4243031053CF4FA01E20FF31F82835B
:1020800081E090E002C080E090E0CF9108950F934E
:1020900000E020E040E060E08CE693E00E949A24BB
:1020A0000F910895AF92BF92CF92DF92EF92FF927D
:1020B0000F931F93CF93DF9300D01F92CDB7DEB75E
:1020C0006C017B010E943321F601778366838601D0
:1020D000085F1F4FB6016A5F7F4F42E050E0C801C2
:1020E0000E947A1681E090E09A83898342E050E072
:1020F000BE016F5F7F4FC8010E947A1680E091E0B9
:102100009A83898342E050E0BE016F5F7F4FC80130
:102110000E947A161A82198242E050E0BE016F5F77
:102120007F4FC8010E947A1642E050E0BE016F5F07
:102130007F4FC8010E947A1642E050E0BE016F5FF7
:102140007F4FC8010E947A166701F60180818823BB
:1021500011F1F7016F018191811115C05601AE187F
:10216000BF081A141B0494F4AB8241E050E0BE0196
:102170006D5F7F4FC8010E947A16A501B701C801A3
:102180000E947A1603C08E3229F7E8CF7601FFEF5E
:10219000EF1AFF0ADACF1B8241E050E0BE016D5F0B
:1021A0007F4FC8010E947A16E12CFF24F394FA8233
:1021B000E98242E050E0BE016F5F7F4FC8010E949C
:1021C0007A16FA82E98242E050E0BE016F5F7F4FEB
:1021D000C8010E947A1681E090E00F900F900F9056
:1021E000DF91CF911F910F91FF90EF90DF90CF90F3
:1021F000BF90AF9008954F925F926F927F928F92AF
:102200009F92AF92BF92CF92DF92EF92FF920F9385
:102210001F93CF93DF93CDB7DEB763970FB6F894D4
:10222000DEBF0FBECDBF7C015B016A010E9433217E
:102230002B013C018701085F1F4F4501A12CB12CE8
:10224000C8010E94ED161816190694F00E94332159
:10225000641975098609970986169706A806B906AE
:10226000D0F062E370E080E090E00E946221E8CF6D
:10227000F7014281538164817581818D928DA38D97
:10228000B48D481759076A077B0741F4858D968DF1
:10229000C59721F406C08FEF9FEFF9C08EEF9FEF37
:1022A000F6C0C8010E942D160C970CF4EEC04CE04D
:1022B00050E0BE016F5F7F4FC8010E94B7168B814F
:1022C0009C819827892798279A8B898BF7014681CB
:1022D000578129813A814217530711F497FD06C0AF
:1022E000C8010E9447168CEF9FEFD1C08F7092708B
:1022F000892B31F0C8010E9447168BEF9FEFC7C0B2
:10230000AF80B884BA24AB24BA24A114B10419F064
:10231000E12CF12C23C0C8010E9447168AEF9FEFE1
:10232000B6C041E050E0BE01635F7F4FC8010E942C
:10233000B7168D8581111BC08D858111F2CFC80123
:102340000E948E16C8010E948E16C8010E948E1629
:10235000C8010E948E16FFEFEF1AFF0A8D819E8141
:10236000982789279827E816F906D8F20AC08D859C
:102370009FEF980F9D878823F9F2C8010E948E165F
:10238000F6CFE12CF12C41E050E0BE016D5E7F4FB5
:10239000C8010E94B7168B89982F907C61F488231E
:1023A00071F08B899FEF980F9B8B882341F0C801B8
:1023B0000E948E16F6CFC8010E948E161B8A8B894A
:1023C0008111E1CF42E050E0BE01615F7F4FC80163
:1023D0000E94B71642E050E0BE01635F7F4FC80124
:1023E0000E94B716C8010E948E16C8010E948E1660
:1023F000C8010E948E16C8010E948E1642E050E06D
:10240000BE016F5E7F4FC8010E94B7168F85988905
:102410008115914029F48D859E858115914019F093
:10242000812C912C16C089899A898115944031F0AC
:10243000C8010E94471687EF9FEF29C0B6016E5F63
:102440007F4F44E050E0C8010E94B71681E090E061
:102450001EC089899A8998278927982788169906FE
:1024600038F4C8010E948E162FEF821A920AF1CF1B
:102470008FEFE81AF80AEA14FB0409F084CFC801C8
:102480000E94471686EF9FEF02C08DEF9FEF639685
:102490000FB6F894DEBF0FBECDBFDF91CF911F9175
:1024A0000F91FF90EF90DF90CF90BF90AF909F90F3
:1024B0008F907F906F905F904F9008958F929F9232
:1024C000AF92BF92CF92DF92EF92FF920F931F9342
:1024D000CF93DF9300D000D000D0CDB7DEB78C0112
:1024E0005B016A010E9406104C01009709F05DC073
:1024F000F801428153816481758180916E039091CE
:102500006F03A0917003B0917103481759076A07D0
:102510007B0709F44EC00E9433217801F8E0EF0EEA
:10252000F11C6F7077277C5FC7010E943E178130D6
:1025300009F043C081E991E09A838983F80182819F
:102540009381A481B5818B839C83AD83BE8345E356
:1025500050E0BE016F5F7F4FC7010E946E16892B4E
:1025600019F4812C912C1DC0B501C8010E94521094
:10257000892BB9F3C7010E947616892B91F333E0BA
:10258000A32EB12CA60168E873E1C8010E94FB10DC
:102590004C01F1E0AF1AB10821F08F3F2FEF920705
:1025A00089F3C7010E94591608C088248394912C8E
:1025B00004C09EEF892E99249A94C40126960FB6E2
:1025C000F894DEBF0FBECDBFDF91CF911F910F9169
:1025D000FF90EF90DF90CF90BF90AF909F908F9043
:1025E000089524E030E0AC0164E081E090E00C94D8
:1025F0003C1A24E030E0AC0164E085E090E00C940B
:102600003C1A26E030E0AC0164E089E090E00C94F4
:102610003C1A24E030E0AC0164E08FE090E00C94E0
:102620003C1AAF92BF92CF92DF92EF92FF920F933C
:102630001F93CF93DF9300D000D000D0CDB7DEB78B
:102640006C015B0182E690E00E94E4248C0182E64A
:10265000F80111928A95E9F7C801895B9F4F0E94A2
:102660007117F601178306838AEA93E00E94191A0C
:10267000C5010E94011300E020E040E060E0CE01CF
:1026800001960E949A24CE0103960E94091318E82D
:10269000E12E13E1F12E00E010E020E63AEE40E0FA
:1026A00050E0B501F601868197810E94EA0E8C0107
:1026B0008130910589F5F60166817781CE01019619
:1026C0000E942E0ACE0103960E940913F60166812C
:1026D0007781CE0101960E94440ACE0103960E94A2
:1026E000F112F60166817781CE0101960E94390AC6
:1026F000CE0103960E94F912F60166817781CE0120
:1027000001960E944F0A4B815C816D817E81F601AA
:102710004283538364837583C80126960FB6F89469
:10272000DEBF0FBECDBFDF91CF911F910F91FF9004
:10273000EF90DF90CF90BF90AF900895EF92FF920F
:102740000F931F93CF93DF9300D000D000D0CDB76D
:10275000DEB78C01FC01868197810097E1F10E9430
:102760002F0F7C018230910521F084E0E816F104FE
:10277000A1F5F80166817781CE0101960E942E0AAB
:10278000CE0103960E940913F80166817781CE017C
:1027900001960E94440ACE0103960E94F112F801AC
:1027A00066817781CE0101960E94390ACE01039697
:1027B0000E94F912F80166817781CE0101960E948C
:1027C0004F0A4B815C816D817E81F8014283538386
:1027D0006483758302C0E12CF12CC70126960FB6E5
:1027E000F894DEBF0FBECDBFDF91CF911F910F9147
:1027F000FF90EF90089521E931E0FC0131832083BF
:10280000FB014281538164817581FC0142835383C2
:102810006483758308950F9300E020E040E060E05A
:102820008AE893E00E949A2482E793E00F910C9447
:102830009024DC01ED91FC91008CF18DE02D099547
:1028400091E089270895CF93DF931F92CDB7DEB72C
:102850006983DC01ED91FC910280F381E02D41E080
:1028600050E0BE016F5F7F4F09950F90DF91CF91D0
:10287000089521E0FC018485883009F420E0822F4E
:102880000895FC019485FB018485981303C081E0C1
:10289000983009F480E008950F931F93CF93DF934E
:1028A000EC018A018C85883021F00E94CE18892B9A
:1028B00039F481E090E09B838A8380E090E001C05E
:1028C000C801DF91CF911F910F910895FC0164859C
:1028D000683021F08AEA93E00C94EA1A80E090E0F4
:1028E0000895CF93DF931F92CDB7DEB741E050E05C
:1028F000BE016F5F7F4FFC0184850E94201918166E
:1029000019061CF4898190E002C08FEF9FEF0F90B1
:10291000DF91CF910895FC0184850C9420190F93C9
:102920001F93CF93DF931F92CDB7DEB78C01DC01ED
:10293000ED91FC910480F581E02D0995892B51F0F2
:10294000BE016F5F7F4FF80184850E946419898101
:1029500090E002C08FEF9FEF0F90DF91CF911F911A
:102960000F910895FC0184850C947219CF92DF9227
:10297000EF92FF920F931F93CF93DF93CDB7DEB704
:10298000AF970FB6F894DEBF0FBECDBF7C018B01B1
:102990006A01CE0101960E949024CE0109960E9400
:1029A0007117CE018A960E94902462E773E0CE01EF
:1029B00084960E94FB13BE016C5D7F4FCE01019691
:1029C0000E94F90FAE01465D5F4FB801CE0101963E
:1029D0000E945E1281309105C1F4D701ED91FC9106
:1029E0000484F585E02D81E991E09DA38CA30CA5DD
:1029F0001DA52EA53FA50EA31FA328A739A7A60195
:102A0000BE016C5D7F4FC7010995AF960FB6F89474
:102A1000DEBF0FBECDBFDF91CF911F910F91FF9011
:102A2000EF90DF90CF900895FC011382128248EE60
:102A300053E060E070E044835583668377838DE3E1
:102A400091E09183808388E084870895FC01648508
:102A5000683041F06295660F607E685F83E090E0C9
:102A60000C947A1A80E00895DF92EF92FF920F9310
:102A70001F93CF93DF93EC017B018A018C85883013
:102A800009F04BC0D12C6D2D6295660F607E685F9A
:102A900083E090E00E947A1A811102C0DC8607C0B0
:102AA0008B7F8831D9F3D39488E0D812ECCF8C8512
:102AB000883099F120910A0130910B012F5F3F4F2F
:102AC00011F420E034E030930B0120930A0140918F
:102AD0000A0150910B0120E061E00E945118B701FA
:102AE0006E5F7F4FA8018C850E949118811103C0F1
:102AF00088E08C8712C0CE010E942615873151F0E4
:102B000061E070E080E090E00E946221CE010E94CE
:102B10002615ECCF81E090E002C080E090E0DF91EC
:102B2000CF911F910F91FF90EF90DF900895CF927A
:102B3000DF92EF92FF92CF93DF93EC018C85883088
:102B400081F10E94C7180E9433216B017C01CE01E4
:102B50000E942615882359F00E9433216C197D09A3
:102B60008E099F09683E73408105910598F0CE015A
:102B70000E942615882319F08C850E944318EC8545
:102B8000F0E0EE0FFF1FE658FC4F1182108288E044
:102B90008C8707C061E070E080E090E00E946221D5
:102BA000D6CFDF91CF91FF90EF90DF90CF90089537
:102BB000CF93DF93EC018C858830D1F0CE010E9459
:102BC00026158431A9F0882399F0883189F08C3159
:102BD00069F4E881F9810480F581E02DCE01099541
:102BE00021E0892B09F420E0822F03C081E001C09D
:102BF00080E0DF91CF9108950F9300E020E040E066
:102C000060E080E993E00E949A240F9108950F9369
:102C100000E020E040E060E086E993E00E949A2432
:102C20000F910895DC01ED91FC91008CF18DE02D68
:102C3000099421E931E0FC0131832083FB014189C2
:102C4000528963897489FC01428353836483758349
:102C50000895FC01858996890895FC01818D928DE6
:102C60000895CF93DF931F92CDB7DEB76983DC0160
:102C7000ED91FC910280F381E02D41E050E0BE0136
:102C80006F5F7F4F09950F90DF91CF910895CF939C
:102C9000DF93EC01898D9A8D892B41F0E881F981D0
:102CA0000680F781E02DCE010995F4CFDF91CF9119
:102CB0000895CF93DF93EC018C85883061F00E94FA
:102CC0004318EC85F0E0EE0FFF1FE658FC4F118231
:102CD000108288E08C87DF91CF910895FC01108EDF
:102CE000178A6E5F7F4F84850C94A119FC0184853F
:102CF0000C94C619CF93DF93EC019A018F89988DBC
:102D0000AB01BC018C850E9473192F89388D280F67
:102D1000391F388F2F8BDF91CF9108950F931F9319
:102D2000CF93DF931F92CDB7DEB78C01FC01818D6D
:102D3000928D892B59F041E050E0BE016F5F7F4FCB
:102D400084850E942019181619061CF08FEF9FEF3A
:102D500008C0F801818D928D0197928F818F8981B2
:102D600090E00F90DF91CF911F910F910895CF9335
:102D7000DF93EC01898D9A8D009719F48FEF9FEF07
:102D800010C04817590708F0AC018C850E94201923
:102D9000181619069CF7298D3A8D281B390B3A8F86
:102DA000298FDF91CF910895CF93DF931F92CDB7F5
:102DB000DEB7FC01218D328D232B49F0BE016F5F00
:102DC0007F4F84850E946419898190E002C08FEF53
:102DD0009FEF0F90DF91CF9108950F931F93CF93A3
:102DE000DF93CDB7DEB728970FB6F894DEBF0FBEDE
:102DF000CDBF8C01DC01ED91FC910284F385E02DC7
:102E00000995F80164858AEA93E00E94EA1A892B01
:102E100041F148E050E0BE016F5F7F4FD8011C9642
:102E20008C910E94201918161906ECF4BE016F5FF0
:102E30007F4FC8010F960E94B6248D8190E0982F95
:102E400088272E81820F911DF801968B858B8F81AB
:102E500090E0982F88272885820F911D928F818F6F
:102E600002C080E090E028960FB6F894DEBF0FBE57
:102E7000CDBFDF91CF911F910F910895FF920F93D6
:102E80001F93CF93DF93EC018B018C85883011F574
:102E9000F12C6F2D6295660F607E685F83E090E095
:102EA0000E947A1A811102C0FC8606C08831E1F3C3
:102EB000F39488E0F812EDCF8C85883059F01E87A6
:102EC0000D871A8E198E20E0A80162E00E94511829
:102ED00081E001C080E0DF91CF911F910F91FF90C1
:102EE0000895FC011382128248EE53E060E070E026
:102EF00044835583668377838DE591E09183808356
:102F000088E08487CF010F960C949024CF92DF92B3
:102F1000EF92FF920F931F93CF93DF93CDB7DEB75E
:102F2000AF970FB6F894DEBF0FBECDBF7C018B010B
:102F30006A01CE0101960E949024CE0109960E945A
:102F40007117CE018A960E94902462E773E0CE0149
:102F500084960E94FB13BE016C5D7F4FCE010196EB
:102F60000E94F90FAE01465D5F4FB801CE01019698
:102F70000E945E1281309105C1F4D701ED91FC9160
:102F80000088F189E02D81E991E09DA38CA30CA537
:102F90001DA52EA53FA50EA31FA328A739A7A601EF
:102FA000BE016C5D7F4FC7010995AF960FB6F894CF
:102FB000DEBF0FBECDBFDF91CF911F910F91FF906C
:102FC000EF90DF90CF9008950F9300E020E040E075
:102FD00060E08CE993E00E949A240F9108950F938A
:102FE00000E020E040E060E082EA93E00E949A2462
:102FF0000F910895AB01682F6295660F607E645F44
:1030000024E030E08CE090E00C943C1A9B01682FA7
:103010006295660F607E685FC9010C947A1A62E05F
:1030200070E00C9406189B01682F6295660F607E15
:10303000645FC9010C94F319CF93DF93C82FD62F87
:10304000472F64E070E00E9413184D2F65E070E098
:103050008C2FDF91CF910C941318462F62E070E013
:103060000C941318CF93DF93C82FD62F472F60E10E
:1030700070E00E9413184D2F61E170E08C2FDF91FA
:10308000CF910C941318CF93C82F40E150E0682FD4
:103090008AEA93E00E94F81B6FEF8C2FCF910C947B
:1030A0002D18EF92FF921F93CF93DF9300D0CDB7EF
:1030B000DEB7182F7A018FEF860F853048F5812F04
:1030C0002A8369830E9443182A816981462F422BF3
:1030D00060E070E0812F0E941318E114F10411F0F8
:1030E000B7010AC06091A8037091A9036F5F7F4F79
:1030F0007093A9036093A803812F0E941C1841E0DC
:1031000050E0612F8AEA93E00E94F81B81E001C041
:1031100080E00F900F90DF91CF911F91FF90EF9083
:1031200008951F93CF93DF93182FFB01EA0180814D
:103130008F3F51F481818F3F91F482818F3F79F4E9
:1031400083818F3F61F41EC0811109C0818181118B
:1031500006C08281811103C08381882399F0209762
:1031600089F0BF01812F0E94FA17BE01812F0E94B2
:10317000321844E050E0612F8AEA93E00E94F81B85
:1031800081E001C080E0DF91CF911F91089548E078
:1031900050E0682F8AEA93E00C94F81BDF92EF92DC
:1031A000FF920F931F93CF93DF93D82E8B01EA01E9
:1031B000413088E0580710F0C0E0D8E06D2D8AEA71
:1031C00093E00E94B51A7C0163E070E08D2D0E94AF
:1031D0000618873111F08C3121F4EC16FD0670F3DE
:1031E00002C0C0E0D0E09E01A8016D2D8AEA93E004
:1031F0000E94441B40E250E06D2D8AEA93E00E9459
:10320000F81B8D2D0E940F1884FD0DC063E070E047
:103210008D2D0E9406188111F4CF8D2D0E94431828
:1032200080E090E005C060E18D2D0E942D18CE0158
:10323000DF91CF911F910F91FF90EF90DF90089554
:10324000DF92EF92FF920F931F93CF93DF93D82ECD
:103250007B018A01682F8AEA93E00E94EA1AEC0156
:10326000009799F463E070E08D2D0E940618843178
:1032700011F1882301F1C1E0D0E08C3111F4C0E0FC
:10328000D0E0D195C195D10916C0081719070CF4E3
:10329000E8011C161D067CF400E09E01A7016D2DBF
:1032A0008AEA93E00E94A71B40E450E06D2D8AEA71
:1032B00093E00E94F81BCE01DF91CF911F910F91F7
:1032C000FF90EF90DF9008950F93AB0101E021E0B4
:1032D00030E0682F8AEA93E00E94A71B81E090E02B
:1032E0000F9108950895BF92CF92DF92EF92FF92CF
:1032F0000F931F93CF93DF93B82E7B016A01E901EF
:10330000682F8AEA93E00E94B51A8C179D0730F463
:103310006B2D8AEA93E00E94B51AEC018E019601AA
:10332000A7016B2D8AEA93E00E94061BCE01DF9174
:10333000CF911F910F91FF90EF90DF90CF90BF90B2
:1033400008951F93CF93DF93182FFB01EA0180812B
:10335000811109C08181811106C08281811103C060
:103360008381882369F0209759F0BF01812F0E9443
:10337000FA17BE01812F0E94321881E090E002C04E
:1033800080E090E0DF91CF911F910895CF93C82FF7
:1033900040E250E0682F8AEA93E00E94F81B8C2FED
:1033A0000E940F1884FD0CC08C2F0E940F1883FF01
:1033B000F6CF68E18C2F0E942D1880E090E006C0C7
:1033C00060E18C2F0E942D1881E090E0CF9108954C
:1033D0008EBD00000DB407FEFDCF8EB508952E986A
:1033E00008952E9A08951F93CF93DF9300D01F92D4
:1033F000CDB7DEB7182F4B836A8399830E94EF19EC
:103400009981892F0E94E819812F0E94E8196A8109
:10341000862F0E94E8194B81842F0E94E8190E9490
:10342000F11981E00F900F900F90DF91CF911F91D4
:103430000895CF93DF9368EE73E080E090E00E9400
:103440006221269A0E94F109C0E0DC2FD295DD0F9F
:10345000D07ED45F42E06D2F8EE190E00E94F319A0
:1034600042E06D2F8FE190E00E94F319CF5FC830EA
:1034700061F7DF91CF910895CF92DF92EF92FF92A3
:103480000F931F93CF93DF9300D000D0CDB7DEB75B
:10349000F82E89014B835C836A8399830E94EF191C
:1034A00089810E94E8198F2D0E94E8196A81862F70
:1034B0000E94E8194B81C42E5C81D52E7601E00E66
:1034C000F11ECE14DF0431F0F60181916F010E94EC
:1034D000E819F7CF0E94F119C8010F900F900F90D3
:1034E0000F90DF91CF911F910F91FF90EF90DF90A0
:1034F000CF9008951F93CF93DF9300D0CDB7DEB761
:10350000182F6A8399830E94EF1989810E94E81914
:10351000812F0E94E8196A81862F0E94E81980E0B5
:103520000E94E81989830E94F11989810F900F90F8
:10353000DF91CF911F9108951F93CF93DF93182FA1
:1035400060E270E00E940618C82FD0E0DC2FCC2784
:1035500061E270E0812F0E9406189E01280F311D44
:10356000C901DF91CF911F910895FF920F931F938F
:10357000CF93DF93F62EC0E0D0E08F2D0E949C1AEF
:103580008C01009721F08F2D0E949C1AEC01C0172E
:10359000D10799F7CE01DF91CF911F910F91FF9045
:1035A00008951F93CF93DF93182F66E270E00E9477
:1035B0000618C82FD0E0DC2FCC2767E270E0812FFF
:1035C0000E9406189E01280F311DC901DF91CF917D
:1035D0001F910895FF920F931F93CF93DF93F62EC1
:1035E000C0E0D0E08F2D0E94D11A8C01009721F00D
:1035F0008F2D0E94D11AEC01C017D10799F7CE0187
:10360000DF91CF911F910F91FF900895CF92DF929C
:10361000EF92FF920F931F93CF93DF93D62EEA0181
:10362000790164E270E08D2D0E940618C82E65E2D3
:1036300070E08D2D0E940618C80FD11D2C2D30E092
:10364000322F2227C20FD31F6D2D6295660F607E29
:103650006C5E9801A701CE010E943C1AC00FD11FD9
:103660004D2F64E270E08D2D0E9413184C2F65E2FF
:1036700070E08D2DDF91CF911F910F91FF90EF9012
:10368000DF90CF900C9413180F931F9389019A0128
:1036900040E050E00E94061B1F910F910895CF92C9
:1036A000DF92EF92FF920F931F93CF93DF9300D09F
:1036B00000D0CDB7DEB7F82E89014B835C836A83D7
:1036C00099830E94EF1989810E94E8198F2D0E9429
:1036D000E8196A81862F0E94E8194B81C42E5C810B
:1036E000D52E7601E00EF11ECE14DF0439F080E015
:1036F0000E94E819F60181936F01F6CF0E94F1193B
:10370000C8010F900F900F900F90DF91CF911F91F4
:103710000F91FF90EF90DF90CF9008950F931F933C
:10372000CF93DF9300D0CDB7DEB75A834983A90189
:10373000980189819A816295660F607E685E0F901C
:103740000F90DF91CF911F910F910C944F1B8F928F
:103750009F92AF92BF92CF92DF92EF92FF920F9320
:103760001F93CF93DF936C01962E5A017901802E1F
:1037700068E270E0892D0E940618C82F69E270E0A7
:10378000892D0E940618D0E0DC2FCC27C80FD11D50
:1037900087019501AE01692DC6010E948E1B811023
:1037A0001AC0CE0DDF1D4D2F68E270E0892D0E94FA
:1037B00013184C2F69E270E0892DDF91CF911F9192
:1037C0000F91FF90EF90DF90CF90BF90AF909F90C0
:1037D0008F900C941318DF91CF911F910F91FF9050
:1037E000EF90DF90CF90BF90AF909F908F90089513
:1037F000CF93C62F61E070E08C2F0E94131861E018
:1038000070E08C2F0E9406188111F9CFCF91089596
:10381000FF920F931F93CF93DF93FC010081C1812F
:10382000D281F8948981F02EF0948F218983789445
:103830001DE7115029F182E090E00E949C218881CF
:103840008023B9F3F8948A818F218A838981802B20
:103850008983789480EE91E00E949C21F89489817C
:103860008F21898386E490E00E949C2188818023B7
:1038700011E009F010E078948AE991E00E949C211F
:10388000812FDF91CF911F910F91FF9008951F938A
:10389000CF93DF93FC011081C181D281912F90954C
:1038A00060FF12C0F8948A8189238A838981812BE1
:1038B00089838AE090E00E949C218A81812B8A83FF
:1038C000789487E390E011C0F8948A8189238A83F1
:1038D0008981812B898381E490E00E949C218A81E7
:1038E000812B8A83789485E090E0DF91CF911F91BE
:1038F0000C949C210F931F93CF93DF93FC011081B5
:10390000C181D281F8948981812B89838A81012F99
:10391000009580238A8383E090E00E949C21898126
:10392000802389838AE090E00E949C21C88178945A
:1039300085E390E00E949C211C2381E009F480E053
:10394000DF91CF911F910F910895CF92DF92EF9267
:10395000FF920F931F93CF93DF931F92CDB7DEB7E4
:103960006C01E62E08E010E0FF24F39461E09F2D47
:103970009E2109F460E0C60149830E94471CFF0CA8
:103980000150110949810115110581F7411115C037
:10399000F894D6011196ED91FC91129791818C913A
:1039A0008095892381831196ED91FC9112979281E4
:1039B0008C9180958923828378940F90DF91CF91A9
:1039C0001F910F91FF90EF90DF90CF900895EF92AD
:1039D000FF920F931F93CF93DF938C01C8E0D0E049
:1039E000F12CEE24E394C8010E947A1C8111FE2878
:1039F000EE0C2197C1F78F2DDF91CF911F910F9181
:103A0000FF90EF900895CF92DF92FF920F931F9354
:103A1000CF93DF931F92CDB7DEB78C01F62E40E037
:103A200065E579830E94A51CCF2C7981D72E88E08B
:103A3000F82EF60161916F0140E0C8010E94A51CBB
:103A4000FA94B9F70F90DF91CF911F910F91FF90EA
:103A5000DF90CF900895FC0113861586148627E029
:103A600030E0DF01A20FB31F13961C922115310520
:103A700019F021503109F5CF08951F93CF93DF93AB
:103A8000EC01162F60E0812F0E946B22612F70E005
:103A9000FB01E45EFD4FE491E883FB01E55CFD4F33
:103AA000E491F0E0EE0FFF1FE65AFD4F85919491EF
:103AB0009A838983CE01DF91CF911F910C942B1DA6
:103AC000AF92BF92CF92DF92EF92FF920F931F932C
:103AD000CF93DF931F92CDB7DEB75C01D62EE72ED2
:103AE000FC018585811164C0C50149830E94081CC1
:103AF0004981811105C0F50113861586148671C0B0
:103B0000442319F040E060EF02C040E06CEEC501D4
:103B10000E94A51C01E0F12CC12C11E0C5010E94FE
:103B20007A1C682FC50169830E947A1C6981613003
:103B300019F48130B9F433C02F2D30E068131BC065
:103B4000F5018385181730F4E20FF31F838180237A
:103B500049F402C0181731F060E0193058F4F5014B
:103B6000148708C0F501EF0DF11D8381802B83833D
:103B700061E009C0C12EF501E20FF31F8381902F90
:103B8000909589238383C5010E94471C1F5F000F06
:103B900011F4F39401E0F7E0FF1508F0BFCF113402
:103BA00038F0F501C386C11009C081E0858706C0E1
:103BB000F50113861586148680E013C0F501838114
:103BC0008823B1F3ED2DFE2D80E090E0D501A80F04
:103BD000B91F13962C912193019688309105B1F766
:103BE00081E00F90DF91CF911F910F91FF90EF90A7
:103BF000DF90CF90BF90AF900895DC0180E06150DE
:103C000038F0ED91E827F0E0EF50FF4F8491F7CFC7
:103C10000895FC0171836083538342830895CF929A
:103C2000DF92EF92FF920F931F93CF93DF93C62EF5
:103C3000D42E790100E010E0C0E0D0E00E151F05A1
:103C400094F461E08D2D0E94A422CC0FDD1F8C2DF9
:103C50000E94DA22C80FD91F60E08D2D0E94A42295
:103C60000F5F1F4FEBCFCE01DF91CF911F910F91CF
:103C7000FF90EF90DF90CF9008951F93CF93DF9345
:103C8000162FC42FD22F61E0842F0E946B2261E097
:103C90008D2F0E946B2261E08C2F0E94A42261E094
:103CA0008D2F0E94A42260E08C2F0E94A42260E04D
:103CB0008D2F0E94A42261E08D2F0E94A42261E03A
:103CC0008C2F0E94A42260E08D2F0E94A422212F1D
:103CD00041E06D2F8C2F0E94032361E08D2F0E9405
:103CE000A42262E08C2F0E946B228C2F0E94DA2289
:103CF00060E08D2F0E94A4228C2FDF91CF911F9125
:103D00000C94DA221F93CF93DF93162F62E0812F5A
:103D10000E946B22C8EED3E061E070E080E090E0AA
:103D20000E946221812F0E94DA22892B11F02197B3
:103D300099F7DF91CF911F910895CF92DF92EF9283
:103D4000FF920F931F93CF93DF938C01F62ED72E04
:103D5000E42EC52E62E08F2D0E946B2261E08E2D35
:103D60000E946B2228E030E04E2D5C2D6F2D7D2DC2
:103D7000C8010E940F1ED82F80E0C82F61E08F2D50
:103D80000E946B2261E08F2D0E94A42260E08F2DA3
:103D90000E94A42261E08E2D0E94A42260E08E2D5C
:103DA0000E94A42262E08F2D0E946B2228E030E066
:103DB0004E2D5C2D6F2D7D2DC8010E940F1E8C2B6A
:103DC0009D2BDF91CF911F910F91FF90EF90DF908E
:103DD000CF900895CF93DF93D62FC42F61E08D2F1E
:103DE0000E946B2261E08C2F0E946B2261E08D2F7C
:103DF0000E94A42261E08C2F0E94A42260E08C2FFC
:103E0000DF91CF910C94A4220F931F93CF93DF9354
:103E1000EC012A813B814881598163E070E00E9476
:103E20003D1E68817981CE010E94821E4A815B819C
:103E300068817981CE010E949D1E8C014A815B813F
:103E400068817981CE010E94EA1EB801882777FD3A
:103E50008095982F0E94272DDF91CF911F910F9170
:103E600008950E94041F0E94F42C882777FD8095F6
:103E7000982F0E94272D2AE037ED43E25CE30E9451
:103E8000DB2D20E030E040E252E40E94232C089534
:103E90004F925F926F927F928F929F92AF92BF925A
:103EA000CF92DF92EF92FF92CF93DF93EC012A81C2
:103EB0003B814881598165E070E00E943D1E688128
:103EC0007981CE010E94821E4A815B81688179815D
:103ED000CE010E949D1E7C014A815B8168817981AF
:103EE000CE010E94EA1EB701882777FD8095982FA2
:103EF0000E94272D6B017C0124E533EE45E25DE352
:103F00000E94DB2D20E030E040E850E40E94232CAA
:103F10004B015C0122EA37EE4BE356EBC701B601D9
:103F20000E94DB2DA70196010E94DB2D9B01AC01B5
:103F3000C501B4010E94242C4B015C01CE010E94FA
:103F4000311F2B013C012CEA35EC47EA58E3C7014D
:103F5000B6010E94DB2D2AE037ED43E25CE30E94CC
:103F6000242C9B01AC01C301B2010E94DB2DA501F1
:103F700094010E94242CDF91CF91FF90EF90DF906D
:103F8000CF90BF90AF909F908F907F906F905F90F9
:103F90004F9008950F9300E020E040E060E08BEA4E
:103FA00093E00E949A240F9108950895853008F0B7
:103FB0004CC0E82FF0E0EE0FFF1FE45FFE4F71836F
:103FC00060838230E1F018F4813069F004C08330FE
:103FD00019F1843071F1809169008C7F842B80937A
:103FE0006900E89A089580916900440F551F440FB5
:103FF000551F837F842B80936900E99A08958091EF
:10400000690034E0440F551F3A95E1F78F7C842B0B
:1040100080936900EA9A08958091690026E0440F30
:10402000551F2A95E1F78F73842B80936900EB9AD3
:10403000089580916A0094E0440F551F9A95E1F726
:104040008F7C842B80936A00EE9A08951F920F92C2
:104050000FB60F9211242F933F934F935F936F935B
:104060007F938F939F93AF93BF93EF93FF93E091D1
:104070000C01F0910D010995FF91EF91BF91AF9166
:104080009F918F917F916F915F914F913F912F9170
:104090000F900FBE0F901F9018951F920F920FB6A2
:1040A0000F9211242F933F934F935F936F937F93BE
:1040B0008F939F93AF93BF93EF93FF93E0910E0184
:1040C000F0910F010995FF91EF91BF91AF919F91F1
:1040D0008F917F916F915F914F913F912F910F90B1
:1040E0000FBE0F901F9018951F920F920FB60F9250
:1040F00011242F933F934F935F936F937F938F93ED
:104100009F93AF93BF93EF93FF93E0911001F091D2
:1041100011010995FF91EF91BF91AF919F918F91FF
:104120007F916F915F914F913F912F910F900FBEB3
:104130000F901F9018951F920F920FB60F92112497
:104140002F933F934F935F936F937F938F939F939F
:10415000AF93BF93EF93FF93E0911201F09113019E
:104160000995FF91EF91BF91AF919F918F917F91B1
:104170006F915F914F913F912F910F900FBE0F90D4
:104180001F9018951F920F920FB60F9211242F9324
:104190003F934F935F936F937F938F939F93AF93CF
:1041A000BF93EF93FF93E0911401F09115010995EE
:1041B000FF91EF91BF91AF919F918F917F916F91FF
:1041C0005F914F913F912F910F900FBE0F901F90D5
:1041D00018951F920F920FB60F9211242F933F93B1
:1041E0008F939F93AF93BF938091B2039091B3034A
:1041F000A091B403B091B5033091B10323E0230F34
:104200002D3720F40196A11DB11D05C026E8230F0E
:104210000296A11DB11D2093B1038093B203909328
:10422000B303A093B403B093B5038091B603909108
:10423000B703A091B803B091B9030196A11DB11DB8
:104240008093B6039093B703A093B803B093B903D8
:10425000BF91AF919F918F913F912F910F900FBE82
:104260000F901F9018952FB7F8946091B20370913A
:10427000B3038091B4039091B5032FBF08953FB766
:10428000F8948091B6039091B703A091B803B091D0
:10429000B90326B5A89B05C02F3F19F00196A11DB3
:1042A000B11D3FBF6627782F892F9A2F620F711D8E
:1042B000811D911D42E0660F771F881F991F4A9547
:1042C000D1F708958F929F92AF92BF92CF92DF92D3
:1042D000EF92FF926B017C010E943F214B015C0138
:1042E000C114D104E104F104F1F00E94872B0E9473
:1042F0003F21681979098A099B09683E7340810545
:10430000910570F321E0C21AD108E108F10888EEA6
:10431000880E83E0981EA11CB11CC114D104E104D5
:10432000F10429F7DDCFFF90EF90DF90CF90BF90A1
:10433000AF909F908F9008958230910538F0880F4C
:10434000991F880F991F05970197F1F708957894A1
:1043500084B5826084BD84B5816084BD85B582608A
:1043600085BD85B5816085BDEEE6F0E08081816028
:104370008083E1E8F0E01082808182608083808128
:1043800081608083E0E8F0E0808181608083E1E902
:10439000F0E0808182608083808181608083E0E9B9
:1043A000F0E0808181608083E1ECF0E080818460D6
:1043B0008083808182608083808181608083E3EC60
:1043C000F0E0808181608083E0ECF0E080818260B9
:1043D0008083E2ECF0E0808181608083EAE7F0E0B6
:1043E000808184608083808182608083808181601D
:1043F00080838081806880830895823108F08251B3
:10440000E82FF0E0EF50FE4FE49180917B00E3FB5A
:10441000222720F930E095E0220F331F9A95E1F72B
:104420008F7D822B80937B00E7708091160120E4C2
:10443000829FC0011124E82BE0937C0080917A00D8
:10444000806480937A0080917A0086FDFCCF809111
:1044500078002091790090E0922B089590E0FC0183
:104460003197EF30F105B0F5EA5AFF4F0C94972ED3
:10447000809180008F7703C0809180008F7D809332
:104480008000089580918000877FF9CF84B58F7771
:1044900002C084B58F7D84BD0895809190008F7790
:1044A00007C0809190008F7D03C080919000877F2E
:1044B0008093900008958091C0008F7703C0809111
:1044C000C0008F7D8093C00008958091C200877FD7
:1044D0008093C2000895CF93DF9390E0FC01E45EE7
:1044E000FD4F2491FC01E55CFD4F8491882349F147
:1044F00090E0880F991FFC01EA58FD4FA591B491F7
:1045000088599D4FFC01C591D4919FB7611108C096
:10451000F8948C91209582238C93888182230AC001
:10452000623051F4F8948C91322F309583238C9320
:104530008881822B888304C0F8948C91822B8C9381
:104540009FBFDF91CF9108950F931F93CF93DF9378
:104550001F92CDB7DEB7282F30E0F901E350FE4FB0
:104560008491F901E45EFD4F1491F901E55CFD4F82
:1045700004910023C9F0882321F069830E942E2230
:104580006981E02FF0E0EE0FFF1FE859FD4FA59184
:10459000B4919FB7F8948C91611103C01095812359
:1045A00001C0812B8C939FBF0F90DF91CF911F9102
:1045B0000F910895CF93DF93282F30E0F901E35056
:1045C000FE4F8491F901E45EFD4FD491F901E55C61
:1045D000FD4FC491CC2391F081110E942E22EC2F2B
:1045E000F0E0EE0FFF1FE65AFD4FA591B4912C911C
:1045F0002D2381E090E021F480E002C080E090E093
:10460000DF91CF910895BF92CF92DF92EF92FF9208
:104610000F931F93CF93DF93C82ED62EB42EC7E0EF
:10462000D0E0022F10E087E0E82EF12CB1100AC094
:10463000F701EC1BFD0BB80102C075956795EA9573
:10464000E2F707C0B8010C2E02C0759567950A9471
:10465000E2F7617077278C2D0E94A42261E08D2DF6
:104660000E94A42260E08D2D0E94A4222197F0F6E2
:10467000DF91CF911F910F91FF90EF90DF90CF903E
:10468000BF900895CF93DF931F92CDB7DEB76983B4
:10469000DC01ED91FC910280F381E02D41E050E0DE
:1046A000BE016F5F7F4F09950F90DF91CF91089505
:1046B000CF93DF93EC018C859D8597FF05C082E049
:1046C0000E9409289D878C878C859D85DF91CF91DD
:1046D000089583E00C949D2AFC018485958597FDBF
:1046E00006C082E00E94B12790E00196089582E022
:1046F0000E94B12790E00895FC018485958597FD7F
:1047000005C02FEF3FEF35872487089582E00C9492
:104710000928CF93DF93EC0180912201882331F0A7
:1047200083E00E943A281816190634F081E090E0E0
:104730009B838A8380E090E0DF91CF910895FC0114
:1047400020812E5F208342E450E064E872E080E83C
:104750000C94D528FC0121818081813A59F42132C1
:1047600009F04BC047E050E06BE171E080E00E944F
:10477000D5285EC0813209F040C0233289F483819C
:1047800090E0982F88273281832BA0E0B0E08093BF
:10479000170190931801A0931901B0931A010FC04B
:1047A000203239F467E070E08BE191E00E94062945
:1047B00009C0223221F482818093220103C02D7F1F
:1047C0002032B1F580910A04811103C0E0E0F8E0E5
:1047D00002C0EEEFFAE080911B0190911C01A091C4
:1047E0001D01B0911E01803B9440A105B10511F55A
:1047F0008091220180FF03C01DC080E00895EE3F3C
:104800002AE0F20731F0808191819093FF0A809332
:10481000FE0A87E797E7918380832BE088E190E0A9
:104820000FB6F894A895809360000FBE20936000A7
:1048300081E0089588E10FB6F894809360001092AB
:1048400060000FBEA895EE3F8AE0F80739F080912E
:10485000FE0A9091FF0A91838083EACF1092FF0AAB
:104860001092FE0AE5CF2FEF3FEFFC01358724873A
:1048700008951092BD031092BC0388EE93E0A0E06F
:10488000B0E08093BE039093BF03A093C003B093A6
:10489000C10381E891E09093BB038093BA038FEF4B
:1048A0009FEF9093C7038093C6030895AF92BF9282
:1048B000CF92DF92EF92FF920F931F93CF93DF93EC
:1048C0006C017B01C0E0D0E000E010E0F601EC0FED
:1048D000FD1F4AE050E06281C7010E94F4255C019F
:1048E0006EE2C7010E941F258A0D9B1D080F191F2C
:1048F0002196C330D10551F74AE050E0F6016581B9
:10490000C7010E94F425800F911FDF91CF911F9165
:104910000F91FF90EF90DF90CF90BF90AF900895F0
:1049200021E931E0FC013183208312821382148259
:10493000158208950F93FC0181E991E091838083B2
:1049400062834383248305830F91089521E931E035
:10495000FC0131832083FB0140815181628173819D
:10496000FC0142835383648375830895FB01408176
:10497000518162817381FC01428353836483758317
:10498000089581E991E090930C0480930B041092B8
:104990000D0410920E0410920F041092100408954A
:1049A00008950E94A7210E94D02481E194E00E94F2
:1049B0002A2B0E94E506C0E0D0E00E94380720972D
:1049C000E1F30E940000F9CF0C94D22E611571051D
:1049D00081F0DB010D900020E9F7AD014150510954
:1049E000461B570BDC01ED91FC910280F381E02D19
:1049F000099480E090E00895EF92FF920F931F9347
:104A0000CF93DF938C017B01C0E0D0E0F701EC0F86
:104A1000FD1F6491662359F0F801A081B181ED91E9
:104A2000FC91C8010995892B11F02196EFCFCE0199
:104A3000DF91CF911F910F91FF90EF900895DC01CE
:104A4000ED91FC910190F081E02D099463E971E012
:104A50000C94E6240F931F93CF93DF93EC010E94F5
:104A6000FC248C01CE010E942625800F911FDF912E
:104A7000CF911F910F9108950F931F93CF93DF93C1
:104A8000EC010E94E6248C01CE010E942625800FB5
:104A9000911FDF91CF911F910F9108958F929F9257
:104AA000AF92BF92DF92EF92FF920F931F93CF933B
:104AB000DF93CDB7DEB7A1970FB6F894DEBF0FBE78
:104AC000CDBF7C01F42FD52ECB0119A2223008F4E2
:104AD0002AE08E010F5D1F4F822E912CA12CB12C4C
:104AE0006F2F7D2DA50194010E94562EF22FD32EFB
:104AF000CA01015011096A3014F4E0E301C0E7E390
:104B0000E60FD801EC93232B242B252B49F7B80172
:104B1000C7010E94E624A1960FB6F894DEBF0FBE2F
:104B2000CDBFDF91CF911F910F91FF90EF90DF905C
:104B3000BF90AF909F908F900895CF92DF92EF92A9
:104B4000FF920F931F93CF93DF93EC016A017B01D8
:104B50002115310579F4E881F9810190F081E02D8A
:104B6000642FDF91CF911F910F91FF90EF90DF9015
:104B7000CF9009942A303105E9F477FF1AC06DE22D
:104B80000E941F258C0144275527BA014C195D0945
:104B90006E097F092AE0CE010E944E25800F911FE9
:104BA000DF91CF911F910F91FF90EF90DF90CF9009
:104BB00008952AE0B701A601CE01DF91CF911F91A0
:104BC0000F91FF90EF90DF90CF900C944E25211520
:104BD000310541F4DC01ED91FC910190F081E02D73
:104BE000642F09940C944E259A01462F50E060E002
:104BF00070E00C94E7254F925F926F927F928F92B4
:104C00009F92AF92BF92CF92DF92EF92FF920F935B
:104C10001F93CF93DF93EC016A017B01B22E9A01BF
:104C2000AB01C701B6010E943E2E882319F066E948
:104C300071E027C026013701E89477F82FEF3FEFA6
:104C40004FE75FE7C301B2010E943E2E81110DC004
:104C50002FEF3FEF4FE75FE7C301B2010E94882CBF
:104C600018161CF46AE971E00CC02FEF3FEF4FE714
:104C70005FE4C701B6010E94D72D1816ACF46EE9A7
:104C800071E0CE01DF91CF911F910F91FF90EF90D6
:104C9000DF90CF90BF90AF909F908F907F906F905C
:104CA0005F904F900C94E6242FEF3FEF4FE75FECBF
:104CB000C701B6010E94882C87FDE1CF20E030E0DB
:104CC000A901C701B6010E94882C87FF0AC06DE2C6
:104CD000CE010E941F258C01F7FAF094F7F8F094AA
:104CE00002C000E010E0A12C60E070E080E09FE3F3
:104CF000AB1441F020E030E040E251E40E948C2C03
:104D0000A394F6CF9B01AC01C701B6010E94242CED
:104D10006B017C010E94F92C2B013C010E94252D86
:104D20009B01AC01C701B6010E94232C6B017C01E1
:104D30002AE0B301A201CE010E944E25080F191FDF
:104D4000BB2039F062EA71E0CE010E94E624080F30
:104D5000191F7B2C772041F120E030E040E251E444
:104D6000C701B6010E94DB2D6B017C010E94F42C6F
:104D70004B01AA2497FCA094BA2C2AE030E0B5019C
:104D8000A401CE010E949D25080F191FC501B40181
:104D90000E94272D9B01AC01C701B6010E94232C64
:104DA0006B017C017A94D6CFC801DF91CF911F911E
:104DB0000F91FF90EF90DF90CF90BF90AF909F90BA
:104DC0008F907F906F905F904F9008950F931F93F7
:104DD000CF93DF93EC010E94FB258C01CE010E9452
:104DE0002625800F911FDF91CF911F910F9108957C
:104DF000615030F02091F100FC0120830196F8CF42
:104E0000289884E680931A040895409115045091DF
:104E10001604209113043091140442175307B4F47C
:104E20009091E8009570E1F39091E80092FD19C02F
:104E30008093F100809115049091160401968F7370
:104E40009927892B19F48EEF8093E800809115043F
:104E5000909116040196909316048093150481E0B6
:104E6000089580E00895CF92DF92EF92FF920F9322
:104E70001F93CF93DF931F92CDB7DEB7082F162F66
:104E8000F42E862F880F8E5F99830E94052783E07A
:104E90000E940527E02EC02E9981D92E8C2D8E19C7
:104EA000811798F4F601F7FE02C0849101C0808159
:104EB0000E940527082F80E00E9405278023FFEF2E
:104EC000CF1ADF0A8111EACF01C081E00F90DF9194
:104ED000CF911F910F91FF90EF90DF90CF900895A9
:104EE0008091D70081608093D70080EA8093D800BA
:104EF00089B5806189BD89B5826089BD09B400FE2C
:104F0000FDCF61E070E080E090E00E94622180913E
:104F1000D8008F7C80618093D8008091E000807FF2
:104F20008093E0000895CF93DF931F92CDB7DEB753
:104F30001982CE0101960E949F230E940F2CBE0170
:104F40006F5F7F4F0E94882B89810F90DF91CF91F7
:104F500008952FB7FC012083F89467706093E900EF
:104F60000895CF93DF931F92CDB7DEB7682FCE01A0
:104F700001960E94A9278091F20099819FBF0F900E
:104F8000DF91CF910895FF920F931F93CF93DF93FB
:104F900000D0CDB7DEB7F62E8A019091190499237F
:104FA00011F057FF03C08FEF9FEF2BC0682FCE018A
:104FB00001967A830E94A9278091F20090E0A801CF
:104FC0007A81801791070CF4AC01EF2DF72FF40EC6
:104FD00084E6FE1639F0289880931A049091F10027
:104FE0009193F7CF4115510521F08091F20088236C
:104FF00021F089818FBFCA0104C08BE68093E8004D
:10500000F8CF0F900F90DF91CF911F910F91FF90EC
:105010000895CF93DF931F92CDB7DEB741E050E004
:10502000BE016F5F7F4F0E94C327019719F48981EA
:1050300090E002C08FEF9FEF0F90DF91CF91089526
:10504000CF93DF931F92CDB7DEB7682FCE010196C5
:105050000E94A9279091E800892F807295FF04C0D3
:105060009091F20080E4891B99819FBF0F90DF919E
:10507000CF9108956F927F928F929F92AF92BF923D
:10508000CF92DF92EF92FF920F931F93CF93DF9314
:105090001F92CDB7DEB7782E7B01C42EB52E80913E
:1050A0001904882369F0042F152F8AEFD82E872D35
:1050B0008072982E9AE3A92E872D8074882E11C0B5
:1050C0008FEF9FEF57C0872D0E942028682E8111F7
:1050D0000CC0DA94A9F361E070E080E090E00E94F7
:1050E00062210115110579F73BC0282F30E0021726
:1050F00013070CF4602E672DCE0101960E94A9279C
:105100008091E80085FF29C0262D30E0021B130B9B
:10511000992039F06A948FEF6816B1F01092F1007F
:10512000F9CFF701862D77FE07C0815058F0949192
:105130009093F1003196F9CF815020F091919093A6
:10514000F100FACFE20EF31E8091E80085FF0FC058
:105150000115110511F481100AC089818FBFC1CFDB
:105160005D9884E680931B048C2D9B2D03C0A09238
:10517000E800F3CF0F90DF91CF911F910F91FF9037
:10518000EF90DF90CF90BF90AF909F908F907F90E7
:105190006F9008951092E900109216041092150471
:1051A00090931404809313040895CF92DF92FF929A
:1051B0000F931F93CF93DF9300D0CDB7DEB7F82EB8
:1051C0008A016B0101151105B1F0F601F7FE02C06D
:1051D000849101C0808149835A830E940527015030
:1051E0001109FFEFCF1ADF0A49815A818111EACFF5
:1051F0008FEF9FEF01C0CA010F900F90DF91CF9109
:105200001F910F91FF90DF90CF900895BF92CF92A2
:10521000DF92EF92FF920F931F93CF93DF936C0176
:105220008B01EB013BEFB32E2097C1F07E01C1341F
:10523000D1051CF020E4E22EF12C8091E80082FFE1
:10524000FCCFC8018C1B9D0B6E2D8C0D9D1D0E94EB
:10525000F826B092E800CE19DF09E6CFC801DF9149
:10526000CF911F910F91FF90EF90DF90CF90BF9063
:1052700008951F920F920FB60F921124DF92EF92B2
:10528000FF920F931F932F933F934F935F936F93CF
:105290007F938F939F93AF93BF93EF93FF93CF939E
:1052A000DF93CDB7DEB76C97DEBFCDBF1092E900BC
:1052B0008091E80083FF23C168E0CE0145960E94FB
:1052C000F82682EF8093E8003D8937FF05C0809182
:1052D000E80080FFFCCF03C08EEF8093E800832FAF
:1052E000807609F0F0C02E894F89D88C21110CC02E
:1052F000303829F4809118048093F10002C0109294
:10530000F1001092F100F4C0842F90E09D2921302B
:1053100049F43111EDC0019709F0EAC080911804F9
:105320008D7F0AC0233059F43111E2C0019709F092
:10533000DFC080911804826080931804D9C02530A2
:1053400041F48091E80080FFFCCF40684093E30087
:10535000CFC0263009F08DC0EB8CFC8C22E0D2123D
:105360002CC080E090E00E94CA280E94932799E018
:105370008E010F5F1F4FF801292F11922A95E9F72F
:105380009983DA8291E09E8390EA98879AEF9987D1
:105390002091150430911604275F3F4F3C832B83E7
:1053A0008D83C7010E94CA2849E050E0B80180E01F
:1053B0000E94D5280E9493279BC0C7010E94CA283B
:1053C0000E940F2CBE016B5E7F4F0E94B12B009795
:1053D00019F00CF08DC090C081E0D8120EC08B8DFA
:1053E0009C8D089719F481E0809312048091120437
:1053F00081112FC068ED72E031C0E3E0DE127CC0A5
:105400008F89882349F1823029F440E860E186EFF2
:1054100092E01CC0813029F440E86BE08AEE92E013
:1054200015C0833009F068C00E940F2C8E010F5FF9
:105430001F4FB8010E94D02BF80101900020E9F71E
:105440003197E01BF10B40E06E2FC8010E9433271B
:105450004DC066EC72E002C067E073E06115710553
:1054600009F44AC0FB01449150E080E80E94D5282D
:105470003FC0273009F440C0283021F481E08093F8
:10548000F10036C02930A1F53370B1F5E4E2F1E066
:1054900081E021E036E39081992361F08093E90077
:1054A0002093EB0091919093EC003093ED008F5F8F
:1054B000873089F78EE78093EA001092EA008F899F
:1054C0008093190415C08B8D9C8D0E94CA28898DEC
:1054D000811105C0CE0145960E94AA2307C00E94F3
:1054E0000F2CBE016B5E7F4F0E94EF2B882321F0B3
:1054F0008EEF8093E80003C081E28093EB006C960E
:105500000FB6F894DEBF0FBECDBFDF91CF91FF91F4
:10551000EF91BF91AF919F918F917F916F915F912B
:105520004F913F912F911F910F91FF90EF90DF903E
:105530000F900FBE0F901F9018958093E9008091F7
:10554000F200882319F08AE38093E80008951F92FF
:105550000F920FB60F9211242F933F934F935F93A7
:105560006F937F938F939F93AF93BF93CF93EF935B
:10557000FF93C091E1008091E100837F8093E1007F
:105580008093E100C3FF0FC01092E90081E0809397
:10559000EB001092EC0082E38093ED00109219046E
:1055A00088E08093F000C2FF19C083E00E949D2A2A
:1055B00080911B04882339F080911B0481508093D3
:1055C0001B04882389F180911A04882339F0809183
:1055D0001A04815080931A04882341F1C4FF10C03B
:1055E0008091E2008E7E81608093E2008091E100F4
:1055F0008F7E8093E100809117048E7E806111C0C0
:10560000C0FF16C08091E2008E7E80618093E20030
:105610008091E1008E7E8093E100809117048E7E60
:1056200081608093170404C05D9ACDCF289AD6CFAD
:10563000FF91EF91CF91BF91AF919F918F917F910A
:105640006F915F914F913F912F910F900FBE0F90EF
:105650001F901895109219041092180410921704B4
:105660000E9470278091E1008E7E8093E1008DE0A2
:105670008093E200559A209AEEEFFFE7859194918E
:105680008B3F9C4D19F481E080930A040895CF93D9
:10569000DF9300D000D0CDB7DEB79B01AC01611520
:1056A00071058105910569F069833A834B835C83B9
:1056B0000E94483029813A814B815C810E94782E7A
:1056C00003C060E070E0CB010F900F900F900F903F
:1056D000DF91CF910895CF92DF92EF92FF926B010D
:1056E0007C01621773078407950764F4CA01B90146
:1056F0006C197D098E099F090E94472B6C0D7D1D39
:105700008E1D9F1DFF90EF90DF90CF90089508951C
:10571000EF92FF920F931F93CF93DF937B01FC01D6
:10572000C281D38100E010E0209781F0E881F98107
:105730000280F381E02DB701CE01099597FD08C0E5
:10574000080F191F0884D985C02DEECFC80102C0EB
:105750008FEF9FEFDF91CF911F910F91FF90EF900F
:1057600008950F931F93CF93DF938B01FC01C281A8
:10577000D381209771F0E881F9810480F581E02DD3
:10578000B801CE010995009731F40884D985C02D60
:10579000F0CF80E090E0DF91CF911F910F910895BD
:1057A0000F931F93CF93DF938B01FC01C281D381B1
:1057B000209771F0E881F9810680F781E02DB8012A
:1057C000CE010995080F111D0884D985C02DF0CF91
:1057D000F8011082DF91CF911F910F9108950F93DF
:1057E0001F93CF93DF938B01FC01C281D38120975C
:1057F00071F0E881F9810190F081E02DB801CE01CE
:105800000995811106C00884D985C02DF0CF80E0AC
:1058100001C081E0DF91CF911F910F910895809198
:10582000200481110DC082E080931C0484E08093E9
:105830001D0410921F0410921E0481E08093200426
:105840008CE194E008955058BB27AA270ED075C16B
:1058500066D130F06BD120F031F49F3F11F41EF48B
:105860005BC10EF4E095E7FB51C1E92F77D180F3DE
:10587000BA17620773078407950718F071F49EF54D
:105880008FC10EF4E0950B2EBA2FA02D0B01B9019C
:1058900090010C01CA01A0011124FF27591B99F0A6
:1058A000593F50F4503E68F11A16F040A22F232FB2
:1058B000342F4427585FF3CF469537952795A79502
:1058C000F0405395C9F77EF41F16BA0B620B730BA9
:1058D000840BBAF09150A1F0FF0FBB1F661F771F1A
:1058E000881FC2F70EC0BA0F621F731F841F48F4CF
:1058F000879577956795B795F7959E3F08F0B3CF55
:105900009395880F08F09927EE0F9795879508953E
:10591000D9D008F481E008950CD00FC107D140F030
:10592000FED030F021F45F3F19F0F0C0511139C1C1
:10593000F3C014D198F39923C9F35523B1F3951B00
:10594000550BBB27AA2762177307840738F09F5FA0
:105950005F4F220F331F441FAA1FA9F333D00E2E0F
:105960003AF0E0E830D091505040E695001CCAF77C
:1059700029D0FE2F27D0660F771F881FBB1F261741
:1059800037074807AB07B0E809F0BB0B802DBF0114
:10599000FF2793585F4F2AF09E3F510568F0B6C02D
:1059A00000C15F3FECF3983EDCF3869577956795F1
:1059B000B795F7959F5FC9F7880F911D96958795C5
:1059C00097F90895E1E0660F771F881FBB1F6217E4
:1059D00073078407BA0720F0621B730B840BBA0BA2
:1059E000EE1F88F7E095089504D06894B111D9C0EE
:1059F0000895BCD088F09F5790F0B92F9927B751E0
:105A0000A0F0D1F0660F771F881F991F1AF0BA9582
:105A1000C9F712C0B13081F0C3D0B1E00895C0C061
:105A2000672F782F8827B85F39F0B93FCCF3869578
:105A300077956795B395D9F73EF4909580957095D5
:105A400061957F4F8F4F9F4F0895E89409C097FB52
:105A50003EF490958095709561957F4F8F4F9F4F45
:105A60009923A9F0F92F96E9BB279395F695879589
:105A700077956795B795F111F8CFFAF4BB0F11F44C
:105A800060FF1BC06F5F7F4F8F4F9F4F16C08823F3
:105A900011F096E911C0772321F09EE8872F762F29
:105AA00005C0662371F096E8862F70E060E02AF06A
:105AB0009A95660F771F881FDAF7880F9695879556
:105AC00097F90895990F0008550FAA0BE0E8FEEF2B
:105AD00016161706E807F907C0F012161306E407B2
