:100000000C94F8000C94171C0C943E1C0C94651C6A
:100010000C948C1C0C9420010C9420010C94B31CA7
:100020000C9420010C9420010C9427260C94B924E4
:100030000C9420010C9420010C9420010C942001BC
:100040000C9420010C9420010C9420010C942001AC
:100050000C9420010C9420010C9420010C94DA1CC7
:100060000C9420010C9420010C9420010C9420018C
:100070000C9420010C9420010C9420010C9420017C
:100080000C9420010C9420010C9420010C9420016C
:100090000C94B6060C9420010C9420010C942001C1
:1000A0000C9420010C9420010C942001FB1DFE1DDA
:1000B000ED1DF11DF71D1F1E1F1E1F1E021E061E19
:1000C0000A1E101E141E1F1E1A1E00000002000928
:1000D0000F0000030401000C0000000000000000FD
:1000E0000000000000000000000408020110408031
:1000F000401020408040800802040180402010020F
:10010000011080102040402004040404040304056E
:1001100002020202040302020202060606060606A4
:100120000404020202040400000000230026002947
:10013000002C002F0000000000250028002B002EBE
:1001400000310000000000240027002A002D0030AC
:1001500000080B0002020201000904000001020273
:1001600000000524001001052401010104240206F9
:100170000524060001070581031000400904010061
:10018000020A000000070502024000000705830282
:1001900040000012010002EF0201404123368000BE
:1001A0000101020301120100020000004041233658
:1001B0008000010102030141726475696E6F204C79
:1001C0004C430041726475696E6F204C656F6E61BF
:1001D00072646F00040309041D02CC056208390E25
:1001E000FD11EE13F913D615E115BB1BEE1F76209A
:1001F00011241FBECFEFDAE0DEBFCDBF11E0A0E0DB
:10020000B1E0E4ECF7E502C005900D92A43BB10724
:10021000D9F724E0A4EBB1E001C01D92AF35B207DD
:10022000E1F711E0C0EFD1E004C02297FE010E9487
:10023000052AC83DD107C9F70E9486200C94E02BFF
:100240000C94000080911402811117C080E090E0AE
:10025000A0E4B1E48093B8019093B901A093BA01EE
:10026000B093BB011092BC016AE070E080E090E0C6
:100270000E94531D81E0809314028091B4019091FB
:10028000B501A091B601B091B7010196A11DB11DB4
:100290008093B4019093B501A093B601B093B701D8
:1002A00080911402811117C080E090E0A0E4B1E4D5
:1002B0008093B8019093B901A093BA01B093BB01A8
:1002C0001092BC016AE070E080E090E00E94531D53
:1002D00081E0809314028091B4019091B501A091C6
:1002E000B601B091B701682F61708DE00C94591E72
:1002F0001F93CF93DF93FC01648D758D868D978D51
:1003000024E630E040E050E00E94C229672B682BD1
:10031000692B49F484E690E00E94C22B61E0680FEB
:1003200084E690E00BC0C4E6D0E010E0CE010E946D
:10033000C22B811740F461E0680FCE01DF91CF91AD
:100340001F910C94CA2B2196C83CD10511F0182F8F
:10035000EDCFDF91CF911F910895CF92DF92EF9271
:10036000FF920F931F93CF93DF93EC01198A188AA2
:1003700080E190E09B8B8A8B83E690E09D8B8C8B59
:100380000E94C22B8F3FB9F404E610E060E0C80180
:100390000E94CA2B0F5F1F4F083C1105B9F70C894B
:1003A0001D89C8010E94C22B8823E9F060E0C801C2
:1003B0000E94CA2B18C0C12CD12C760104E610E093
:1003C000C8010E94C22BC80ED11CE11CF11C0F5F9A
:1003D0001F4F083C1105A1F7CC8EDD8EEE8EFF8EEF
:1003E000CE010E947801C888D9887E0100E110E022
:1003F000CC1ADD0AC6018E0D9F1D0E94C22BF7018B
:1004000081937F0101501109A9F705E010E08A8965
:100410009B89800F911F0E94C22BFE01E00FF11FEC
:10042000868B0150110999F7DF91CF911F910F91A0
:10043000FF90EF90DF90CF9008950F9300E020E0C1
:1004400040E060E082ED92E00E944F2082EB92E07B
:100450000E94AD0189E395E090931D0280931C02F8
:1004600080EC80931E0288EA80931F0281E08093D3
:10047000200285E380932102109286021092870267
:1004800088E892E00E94631583EA92E00E940613D6
:1004900080EE9BEA9093B1028093B00283E290E0F9
:1004A000909311028093100249E050E068E070E000
:1004B00082E092E00F910C94FA190F931F93CF935F
:1004C000DF93EC018B0161E08BE00E94201E60E075
:1004D0008BE00E94591E6AE070E080E090E00E948C
:1004E000531D61E08BE00E94591E68EC70E080E0D3
:1004F00090E00E94531DB80185EA93E00E94031129
:10050000892BF1F043E064E089E190E00E94E51777
:1005100048EE64E08AE190E00E94E51743E064E081
:100520008BE190E00E94E517FE01EC56FF4F6081E1
:100530007181CE0184599F4F0E94301581E001C026
:1005400080E0DF91CF911F910F91089540E052EC30
:1005500061E070E08DEE93E00E94E81F88ED92E08C
:100560000E943C0580911402811117C080E090E048
:10057000A0E4B1E48093B8019093B901A093BA01CB
:10058000B093BB011092BC016AE070E080E090E0A3
:100590000E94531D81E08093140261E08DE00E946F
:1005A000201E8091BC01811118C062E083E00E948E
:1005B000201E81E08093BC010E94301D6093BD012C
:1005C0007093BE018093BF019093C00142E050E060
:1005D00062E271E080E00E94C71B84EB91E090939F
:1005E00001028093000268EC72E08CE192E00C94CE
:1005F0005D028F929F92AF92BF92CF92DF92EF9265
:10060000FF920F931F93CF93DF93CDB7DEB72C9755
:100610000FB6F894DEBF0FBECDBF85EA93E00E940F
:10062000901188E892E00E94DF14069709F044C018
:10063000E0909902F0909A0200919B0210919C0226
:1006400046E050E0BE01695F7F4F88E892E00E947B
:10065000A9148F81833781F58A85823769F583EA0A
:1006600092E00E94CA13882321F083EA92E00E945C
:10067000891340911C0250911D0280EA91E09A83F7
:100680008983EB82FC820D831E83BE016F5F7F4FE7
:1006900083EA92E00E942613019771F469E271E007
:1006A00083EA92E00E94BC20E0921E02F0921F02B8
:1006B00000932002109321020E94301D0091080235
:1006C0001091090220910A0230910B02601B710BFC
:1006D000820B930B6135734C8105910550F00E949C
:1006E000301D609308027093090280930A02909370
:1006F0000B020E94301D00910C0210910D022091FE
:100700000E0230910F02601B710B820B930B613450
:1007100072448F40910508F405C10E94301D60931A
:100720000C0270930D0280930E0290930F0282E0F0
:1007300092E00E94391B6093C1017093C2018093C3
:10074000C3019093C4011092C5011092C60110928A
:10075000C7011092C80185E08093C90182E092E050
:100760000E94221B6093CA017093CB018093CC013D
:100770009093CD011092CE011092CF011092D00132
:100780001092D10186E08093D201609110027091A5
:10079000110288ED92E00E945005E091D802F0919C
:1007A000D9020190F081E02D60E188ED92E0099599
:1007B00088ED92E00E94C90500911002109111028B
:1007C000B80188ED92E00E94500542E050E0B80187
:1007D00088ED92E00E94C60592E1E92E92E0F92EA2
:1007E00000E010E088ED92E00E94A504892B51F012
:1007F00088ED92E00E94AD04F70181937F010F5FC5
:100800001F4FF0CF88ED92E00E94C905023011051C
:10081000D9F46091120270E0762F6627809113025E
:10082000682B882777FD8095982F0E94A7282AE9B2
:1008300039E949E95FE30E940C280E94792880E0A9
:1008400090E00E94A52804C060E074E284EF99EC77
:100850006093D3017093D4018093D5019093D60116
:100860001092D7011092D8011092D9011092DA019A
:100870008BE08093DB0100910002109101020E9445
:10088000301DF8940E94301D6B017C01F8016081DD
:1008900071818281938110821182128213827894F5
:1008A000F80181849284A384B484A7019601281955
:1008B00039094A095B0949015A010E94A528F80132
:1008C00024813581468157810E940C28F801C18618
:1008D000D286E386F4866093DC017093DD01809319
:1008E000DE019093DF018092E0019092E101A092FD
:1008F000E201B092E30180E18093E40183EA92E0B7
:100900000E94CA13882371F04091CA015091CB0113
:100910006091CC017091CD0122E030E083EA92E059
:100920000E9466222C960FB6F894DEBF0FBECDBF94
:10093000DF91CF911F910F91FF90EF90DF90CF90BB
:10094000BF90AF909F908F9008958091080390E0A2
:1009500020910903821B9109089520910903809138
:100960000803281750F4E22FF0E0E65FFC4F808187
:1009700090E02F5F2093090308958FEF9FEF089574
:10098000E091090380910803E81730F4F0E0E65F96
:10099000FC4F808190E008958FEF9FEF08950895B8
:1009A000CF92DF92EF92FF920F931F93CF93DF933B
:1009B0007C01CB018A012091E402222389F0EB0122
:1009C0006B01C40ED51ECC15DD0569F06991D70108
:1009D000ED91FC910190F081E02DC7010995F3CFD5
:1009E000642F0E948D06C801DF91CF911F910F9156
:1009F000FF90EF90DF90CF900895CF93DF931F92F9
:100A0000CDB7DEB769832091E4022223D1F0209193
:100A1000E502203240F021E030E0FC013383228304
:100A200080E090E015C08091E602E82FF0E0E95107
:100A3000FD4F998190838F5F8093E6028093E5025A
:100A400005C061E0CE0101960E948D0681E090E034
:100A50000F90DF91CF910895FC011382128248EE2E
:100A600053E060E070E0448355836683778385E3D9
:100A700091E09183808308951092090310920803F6
:100A80001092E6021092E5020C94D00581E080936A
:100A9000E402609307031092E6021092E5020895C3
:100AA0000C9446050F93062F21E04091E50267EE76
:100AB00072E0809107030E9436061092E6021092BF
:100AC000E5021092E4020F9108958F929F92AF92E7
:100AD000BF92CF92DF92EF92FF920F931F93CF932B
:100AE000DF93EC01F62ED42E48015901EE2019F1C6
:100AF0000E9446051E2D143008F013E01150B8F086
:100B0000E881F98128E0129FB0011124A501940128
:100B100004C056954795379527956A95D2F7CA012F
:100B2000B9010190F081E02DCE010995E7CF60E099
:100B3000CE010E9452054D2D413208F040E22C2D8D
:100B40006AE073E08F2D0E94EE05109209038093F6
:100B50000803DF91CF911F910F91FF90EF90DF90ED
:100B6000CF90BF90AF909F908F900895CF92EF92CB
:100B70000F931F93C22EE12C00E010E098010E9419
:100B800065051F910F91EF90CF90089521E00C948F
:100B9000B60561E00C94520588ED92E00C942C05AA
:100BA0001092970381E0809395031092940361E083
:100BB00082E00E94591E61E083E00E94591EE9EB29
:100BC000F0E080818E7F808380818D7F808388E4C8
:100BD0008093B80085E48093BC000895413208F00A
:100BE00043C0909197039111FCCF91E090939703AC
:100BF000209395032FEF20932A0310926F03240F65
:100C000020936E039093960390919603880F892BFF
:100C10008093960380919403813061F41092940341
:100C2000809196038093BB008091BC0083FDF8CF38
:100C300085EC01C085EE8093BC00809197038130E4
:100C4000E1F380916F03841710F440916F0320E764
:100C500033E0FB01D9018A2F821B841718F48D9190
:100C60008193F9CF842F089580E008950F93413246
:100C700008F04AC0909197039111FCCF92E09093B5
:100C80009703009395039FEF90932A0310926F03AD
:100C900040936E03FB0160E773E0DB019A2F961B24
:100CA000941718F491919D93F9CF10929603909117
:100CB0009603880F892B809396038091940381304B
:100CC00061F410929403809196038093BB0080910D
:100CD000BC0083FDF8CF85EC01C085EE8093BC009D
:100CE000222321F0809197038230E1F380912A033F
:100CF0008F3F61F080912A03803251F080912A0366
:100D0000803341F483E007C081E005C080E003C088
:100D100082E001C084E00F910895613298F420913F
:100D20009703243089F460934C03FC018EE493E034
:100D3000DC012A2F281B261718F421912D93F9CFB7
:100D400080E0089581E0089582E0089585ED809324
:100D5000BC008091BC0084FDFCCF109297030895E5
:100D600085EC8093BC001092970308951F920F9218
:100D70000FB60F9211242F933F934F935F936F936E
:100D80007F938F939F93AF93BF93EF93FF93809144
:100D9000B900887F803609F49EC078F5883209F45E
:100DA0005DC090F4803109F456C038F4882309F40A
:100DB000F5C0883009F44FC0F5C0883109F44EC041
:100DC000803209F45FC0EEC0803409F46AC058F480
:100DD000803309F457C0883309F0E4C080932A03B4
:100DE0000E94B006DFC0803509F44FC0883509F491
:100DF0005DC0883409F0D6C0D3C0883909F4C4C0B6
:100E0000A8F4883709F467C038F4883609F463C059
:100E1000803709F460C0C6C0883809F4B5C080398D
:100E200009F45FC0803809F0BDC05BC0803B09F4A5
:100E300083C038F4803A09F466C0883A09F47CC06B
:100E4000B1C0803C09F4A4C0883C09F4A1C0883B2F
:100E500009F487C0A7C08091960310C090916F03DA
:100E600080916E03981770F5E0916F0381E08E0F0B
:100E700080936F03F0E0E059FC4F80818093BB00CA
:100E800085EC83C080932A038BC0E0916F0381E0DF
:100E90008E0F80936F038091BB00F0E0E059FC4F10
:100EA000808390916F0380916E036BC0E0916F031C
:100EB00081E08E0F80936F038091BB00F0E0E059DA
:100EC000FC4F80838091950381116AC081E08093FB
:100ED000940384EA5EC083E08093970310922B030F
:100EE000CFCF80912B03803208F04EC0E0912B03CE
:100EF00081E08E0F80932B038091BB00F0E0E45DD6
:100F0000FC4F8083BDCF0E94B00680912B038032BE
:100F100030F4E0912B03F0E0E45DFC4F108260912F
:100F20002B0370E0E0919003F09191038CE293E049
:100F3000099510922B0336C084E08093970310929A
:100F40004D0310924C03E0919203F09193030995A5
:100F500080914C03811105C081E080934C03109275
:100F60004E03E0914D0381E08E0F80934D03F0E03E
:100F7000E25BFC4F80818093BB0090914D03809198
:100F80004C03981708F47CCF85E88093BC000AC016
:100F900085EC8093BC001092970304C010922A0342
:100FA0000E94A606FF91EF91BF91AF919F918F9103
:100FB0007F916F915F914F913F912F910F900FBE55
:100FC0000F901F901895CF93CFB7F8948091980306
:100FD000811127C0E9E1F1E08491EAEFF0E094911A
:100FE000E82FF0E0EE0FFF1FED5BFE4FA591B491EF
:100FF0008C91892321F461E081E10E94591E61E016
:1010000081E10E94201E8CB580618CBD8CB580640E
:101010008CBD61E08FE00E94201E61E080E10E94B3
:10102000201E809198038F5F80939803CFBFCF914C
:1010300008950E9624E1FC0111922A95E9F708958E
:10104000CF93DF93EC01625F7F4F0E945B20CE0164
:10105000DF91CF910895CF93DF93EC016E5E7F4FC8
:101060000E945B20CE01DF91CF910895CF93DF9353
:10107000EC016A5E7F4F0E945B20CE01DF91CF9131
:101080000895CF93DF93EC01625E7F4F0E945B2057
:10109000CE01DF91CF91089580E3FB0180833296EA
:1010A000842F82958F7090E1899F401911244A30D6
:1010B00014F4405D01C0495C4293882311F0482F2D
:1010C000EFCF08950F9300E020E040E060E089E971
:1010D00093E00E944F200F9108956F927F928F921C
:1010E0009F92AF92BF92CF92DF92EF92FF920F93B7
:1010F0001F93CF93DF93CDB7DEB7AC970FB6F894BD
:10110000DEBF0FBECDBF7C01862EB42EA52E20E201
:10111000922ECE0101966C01FC01292D11922A9587
:10112000E9F70FEF2FEF4FEF6FEF86960E944F20FA
:1011300080EA91E09AA389A389A59AA5ABA5BCA54D
:101140008BA39CA3ADA3BEA38701095B1F4F43E400
:1011500050E0BE016F5D7F4FC8010E946014019690
:1011600009F4BFC081E089838A8386E0782E7B8280
:101170001C82F70164817581868197810E94092A0A
:101180006D837E838F839887A986BA8680E890E0F6
:101190009C878B874CE150E0B601C8010E946C141B
:1011A000F601292D11922A95E9F7570188E0A80E3A
:1011B000B11CF501D60101900D927A94E1F740E15E
:1011C00050E0B601C8010E946C14F60111929A9485
:1011D000E9F796E0692E712C40E250E0B601C801B3
:1011E0000E946C14F1E06F1A7108B1F783E68983ED
:1011F00092E89A8393E59B838C8385E38D8381E0DA
:101200008E838F829DE3988797E099878A8786E00F
:10121000F501DE011B9601900D928A95E1F78CE0B5
:10122000898B8A8B61E471E0CE0143960E94BB2BCF
:10123000F7014385BE01675E7F4FC7010E944C08DE
:10124000F7014485BE01655E7F4FC7010E944C08CF
:10125000F7014585BE01635E7F4FC7010E944C08C0
:101260004EE150E0B601C8010E946C14F3E08F1209
:101270001EC082E3898384E08A83F70196859B837D
:1012800097859C8390899D8391899E8396E39F8314
:101290008887828D8987838D8A87848D8B87858DCA
:1012A0008C874CE050E0B601C8010E946C1487E3C3
:1012B000898386E08A8391E09B8393E09C838D837E
:1012C0008FE08E838AE38F838BE388878FEF898714
:1012D00049E050E0B601C8010E946C14C8010E94A8
:1012E0006814AC960FB6F894DEBF0FBECDBFDF9189
:1012F000CF911F910F91FF90EF90DF90CF90BF9013
:10130000AF909F908F907F906F9008952F923F9213
:101310004F925F926F927F928F929F92AF92BF9205
:10132000CF92DF92EF92FF920F931F93CF93DF93B1
:10133000CDB7DEB7E3970FB6F894DEBF0FBECDBFD3
:101340007C012A013B0169010E94241D4B015C01C3
:101350008701095B1F4FC8010E94DF141816190688
:1013600094F00E94241D681979098A099B09461680
:10137000570668067906F0F062E370E080E090E0DE
:101380000E94531DE8CF42E250E0BE016F5F7F4FE5
:10139000C8010E94A9148981823031F4F80185893D
:1013A00096898334910541F019A6C8010E94391429
:1013B00089A566C18FEF64C16D817E818F8198851B
:1013C0000E94092A4B015C01F601608371838283CC
:1013D000938346E050E0B701685F7F4FCE014D96A2
:1013E0000E94AE2B892B99F4F70180819181A28113
:1013F000B38188169906AA06BB0648F084819581B8
:10140000A681B78188159905AA05BB0528F4C801EE
:101410000E94391480E034C189899A89AB89BC89DA
:10142000F70186879787A08BB18B3EECC32ED12C1A
:10143000C8010E948014F1E0CF1AD108C9F719A69B
:10144000C70182969BA78AA7F701B696FDA7ECA7CE
:1014500008969FA78EA73C976F018E9699AB88AB95
:101460003897FBABEAAB5701F6E1AF0EB11C470171
:101470008EE1880E911CC8010E941F1418161906CF
:101480000CF093CFC8010E9480148333910509F4B6
:10149000CDC0F4F481309105B9F11CF4892B59F3D6
:1014A000DFC083309105C1F1069709F0D9C0C801AA
:1014B0000E9480143C0144E050E0B401C8010E9445
:1014C000A914212C312C7724F4E06F1A71083FC045
:1014D0008A33910509F47EC03CF48533910561F0AF
:1014E000C69709F43FC0BCC08B33910509F488C08E
:1014F0008F3F910501F2B4C0C8010E948014C80159
:101500000E94801489A7B7CFC8010E94801444E0CC
:1015100050E06AA97BA93AC0C8010E9480143C012E
:1015200044E050E0B501C8010E94A914212C312CDF
:10153000772494E0691A7108261437040CF09BCFC5
:10154000C8010E948014EFEF2E1A3E0AF5CF261430
:1015500037040CF090CFC8010E9480148FEF281A36
:10156000380AF5CFC8010E948014782EF701828DC9
:10157000811110C0838D81110DC0848D81110AC02D
:10158000858D811107C044E050E0B601C8010E947A
:10159000A91471CFE8A9F9A9208031804280538035
:1015A000B601CE0183960E945B208DA19EA1AFA1C2
:1015B000B8A582159305A405B50529F3212C312C76
:1015C000721409F458CFC8010E948014FFEF2F1A3B
:1015D0003F0AF6CFC8010E94801444E050E06CA599
:1015E0007DA5C8010E94A914F70166A177A180A575
:1015F00091A50E94092A66A377A380A791A73BCF54
:10160000C8010E94801444E050E06EA57FA5C80187
:101610000E94A914F70162A573A584A595A50E944F
:10162000092A62A773A784A795A725CFC8010E949E
:10163000801444E050E06AA57BA5C8010E94A9146B
:10164000F70162A173A184A195A10E94092A62A356
:1016500073A384A395A366A777A780AB91AB0BCFA9
:10166000C8010E948014382E612C712C361409F4A4
:1016700002CFC8010E948014FFEF6F1A7F0AF6CFD5
:10168000E3960FB6F894DEBF0FBECDBFDF91CF91CA
:101690001F910F91FF90EF90DF90CF90BF90AF9090
:1016A0009F908F907F906F905F904F903F902F9082
:1016B00008952F923F924F925F926F927F928F92F6
:1016C0009F92AF92BF92CF92DF92EF92FF920F93D1
:1016D0001F93CF93DF93CDB7DEB727970FB6F8945C
:1016E000DEBF0FBECDBF8C0120ED37E040E050E003
:1016F00061E070E080E090E00E94EB26D801149653
:101700006D937D938D939C931797F80160837183FC
:10171000828393834801F7E48F0E911CC4010E94D9
:101720004B1464E470E0C4010E943015882309F46E
:1017300028C10E94241D6B017C01A12CB12C1D82AB
:10174000180186E4280E311CD801DE96BF83AE83D3
:1017500038EE432E33E0532E612C712CF101808141
:10176000833009F4FDC081111FC0F8018481958187
:10177000A681B7810196A11DB11D84839583A6839F
:10178000B7830E94241D6C197D098E099F09A3014E
:1017900092010E94C229A90161E0C8010E946D085E
:1017A00081E0D1018C93BEC08430F9F4F8018481CA
:1017B0009581A681B7810196A11DB11D8483958372
:1017C000A683B7830E94241D6C197D098E099F0989
:1017D000A30192010E94C229A90163E0C8010E94ED
:1017E0006D08E2E0D101EC939DC0813061F5AE81DE
:1017F000BF814D915D916D917C919E012F5F3F4F17
:10180000C8010E9486098D83823009F08BC08981CE
:101810009A81AB81BC81F80184839583A683B783C9
:101820000E94241D6C197D098E099F09A301920154
:101830000E94C229A90163E0C8010E946D08ED81E0
:10184000D101EC9375C0823009F06CC0AE81BF81CC
:101850004D915D916D917C919E012F5F3F4FC8012D
:101860000E9486098D83853009F056C083E0F1011E
:101870008083F80182A193A1A4A1B5A1892B8A2B11
:101880008B2B41F484E893E0A0E0B0E082A393A323
:10189000A4A3B5A3F80186A197A1A0A5B1A5892B02
:1018A0008A2B8B2B61F482A193A1A4A1B5A1B6953B
:1018B000A7959795879586A397A3A0A7B1A7D801C9
:1018C0009A964D915D916D917C919D9796968D9193
:1018D0009D910D90BC91A02D452B462B472B59F483
:1018E000AC01BD01440F551F661F771FF80142A7C9
:1018F00053A764A775A7F80186A797A7A0ABB1ABBC
:1019000082A593A5A4A5B5A582AB93ABA4ABB5ABBB
:10191000AA24A394B12C0CC0FD81F63019F4D10196
:101920001C9206C0BD81BF3F19F4F10110821D82D7
:10193000F1E0AF16B10409F411CF0E94241D6C1917
:101940007D098E099F09D801DA962D913D914D911F
:101950005C91DD97261737074807590708F0FECE38
:10196000C4010E944B14F80184819581A681B7813E
:101970000196A11DB11D84839583A683B783C501FC
:1019800002C080E090E027960FB6F894DEBF0FBE4D
:10199000CDBFDF91CF911F910F91FF90EF90DF901E
:1019A000CF90BF90AF909F908F907F906F905F90FF
:1019B0004F903F902F900895CF92DF92EF92FF9239
:1019C0000F931F93CF93DF93EC016B011AA21BA21D
:1019D0001CA21DA21EA21FA218A619A61AA61BA60B
:1019E0001CA61DA61EAA1FAA18AE19AE2AAF3BAF91
:1019F0004CAF5DAFFC01FE96E082F182028313835F
:101A00008C01085F1F4F86E0F80111928A95E9F773
:101A1000CE010E94190886E0F601D80101900D92CE
:101A20008A95E1F7FE01EA5BFF4F1082CE01DF915C
:101A3000CF911F910F91FF90EF90DF90CF900C947A
:101A4000590B8F929F92AF92BF92CF92DF92EF92FB
:101A5000FF920F931F93CF93DF93EC010E94241DFD
:101A60006B017C018EA99FA9A8ADB9AD8E010E5B5B
:101A70001F4F892B8A2B8B2B09F48FC0F801808193
:101A80009181A281B381A7019601281B390B4A0BD2
:101A90005B0BCA01B90157FD4EC04601570138EE34
:101AA000830E33E0931EA11CB11C28EE33E040E00E
:101AB00050E00E94E429861A970AA80AB90AF80198
:101AC00080829182A282B382DA01C9010196A11DAE
:101AD000B11D4EA55FA568A979A98C019D01000FD4
:101AE000111F221F331F40175107620773072CF481
:101AF0001EA61FA618AA19AA08C0481B590B6A0BD4
:101B00007B0B4EA75FA768AB79AB4AA95BA96CA911
:101B10007DA940175107620773072CF41AAA1BAA64
:101B20001CAA1DAA08C0481B590B6A0B7B0B4AABA9
:101B30005BAB6CAB7DAB8E010A5B1F4FF801808104
:101B4000833081F48EA59FA5A8A9B9A918161906F6
:101B50001A061B063CF084E08083CE010E94590BDC
:101B6000019602C080E090E0F8012081233011F05E
:101B7000211120C04AA95BA96CA97DA914161506DC
:101B800016061706BCF0F8011082CE010E94190853
:101B9000CE010E94590B03960DC0D701C601885192
:101BA0009C4FAF4FBF4FF80180839183A283B383D3
:101BB00080E090E0CEAADFAAE8AEF9AEDF91CF9147
:101BC0001F910F91FF90EF90DF90CF90BF90AF905B
:101BD0009F908F900895FB014281538164817581AC
:101BE000FC014283538364837583178216820895B0
:101BF000CF93FB0181918111FDCFFB0180E090E04B
:101C000020E030E0CAE06191662309F1243031051B
:101C100064F56E3271F48F3F910509F034F5DA0105
:101C2000A20FB31F12968C932F5F3F4F80E090E07E
:101C3000EACFDC01CA9FC001CB9F900D112477270A
:101C400067FD709560537109860F971FDCCF8F3F3A
:101C5000910509F054F4243031053CF4FA01E20F07
:101C6000F31F828381E090E002C080E090E0CF919A
:101C700008950F9300E020E040E060E08FE993E0FA
:101C80000E944F200F910895AF92BF92CF92DF92A2
:101C9000EF92FF920F931F93CF93DF9300D01F9289
:101CA000CDB7DEB76C017B010E94241DF60177835E
:101CB00066838601085F1F4FB6016A5F7F4F42E06F
:101CC00050E0C8010E946C1481E090E09A838983FF
:101CD00042E050E0BE016F5F7F4FC8010E946C146C
:101CE00080E091E09A83898342E050E0BE016F5F1B
:101CF0007F4FC8010E946C141A82198242E050E0A2
:101D0000BE016F5F7F4FC8010E946C1442E050E03B
:101D1000BE016F5F7F4FC8010E946C1442E050E02B
:101D2000BE016F5F7F4FC8010E946C146701F6010E
:101D30008081882311F1F7016F018191811115C014
:101D40005601AE18BF081A141B0494F4AB8241E08C
:101D500050E0BE016D5F7F4FC8010E946C14A50169
:101D6000B701C8010E946C1403C08E3229F7E8CF76
:101D70007601FFEFEF1AFF0ADACF1B8241E050E055
:101D8000BE016D5F7F4FC8010E946C14E12CFF24DF
:101D9000F394FA82E98242E050E0BE016F5F7F4F28
:101DA000C8010E946C14FA82E98242E050E0BE0150
:101DB0006F5F7F4FC8010E946C1481E090E00F902C
:101DC0000F900F90DF91CF911F910F91FF90EF90A7
:101DD000DF90CF90BF90AF9008954F925F926F9237
:101DE0007F928F929F92AF92BF92CF92DF92EF92AB
:101DF000FF920F931F93CF93DF93CDB7DEB7639717
:101E00000FB6F894DEBF0FBECDBF7C015B016A0147
:101E10000E94241D2B013C018701085F1F4F4501D3
:101E2000A12CB12CC8010E94DF141816190694F0D9
:101E30000E94241D6419750986099709861697065C
:101E4000A806B906D0F062E370E080E090E00E945E
:101E5000531DE8CFF7014281538164817581818DE3
:101E6000928DA38DB48D481759076A077B0741F4FB
:101E7000858D968DC59721F406C08FEF9FEFF9C031
:101E80008EEF9FEFF6C0C8010E941F140C970CF450
:101E9000EEC04CE050E0BE016F5F7F4FC8010E9472
:101EA000A9148B819C819827892798279A8B898BE5
:101EB000F7014681578129813A814217530711F46E
:101EC00097FD06C0C8010E9439148CEF9FEFD1C066
:101ED0008F709270892B31F0C8010E9439148BEFFA
:101EE0009FEFC7C0AF80B884BA24AB24BA24A11432
:101EF000B10419F0E12CF12C23C0C8010E9439145F
:101F00008AEF9FEFB6C041E050E0BE01635F7F4FB4
:101F1000C8010E94A9148D8581111BC08D85811176
:101F2000F2CFC8010E948014C8010E948014C80129
:101F30000E948014C8010E948014FFEFEF1AFF0A6C
:101F40008D819E81982789279827E816F906D8F26F
:101F50000AC08D859FEF980F9D878823F9F2C801ED
:101F60000E948014F6CFE12CF12C41E050E0BE013C
:101F70006D5E7F4FC8010E94A9148B89982F907CB9
:101F800061F4882371F08B899FEF980F9B8B8823D6
:101F900041F0C8010E948014F6CFC8010E9480144D
:101FA0001B8A8B898111E1CF42E050E0BE01615F65
:101FB0007F4FC8010E94A91442E050E0BE01635F58
:101FC0007F4FC8010E94A914C8010E948014C80153
:101FD0000E948014C8010E948014C8010E948014CD
:101FE00042E050E0BE016F5E7F4FC8010E94A9141D
:101FF0008F8598898115914029F48D859E8581155D
:10200000914019F0812C912C16C089899A898115EB
:10201000944031F0C8010E94391487EF9FEF29C026
:10202000B6016E5F7F4F44E050E0C8010E94A914E2
:1020300081E090E01EC089899A899827892798278E
:102040008816990638F4C8010E9480142FEF821A6E
:10205000920AF1CF8FEFE81AF80AEA14FB0409F0AC
:1020600084CFC8010E94391486EF9FEF02C08DEF24
:102070009FEF63960FB6F894DEBF0FBECDBFDF9122
:10208000CF911F910F91FF90EF90DF90CF90BF9075
:10209000AF909F908F907F906F905F904F9008953A
:1020A0008F929F92AF92BF92CF92DF92EF92FF9268
:1020B0000F931F93CF93DF9300D000D000D0CDB704
:1020C000DEB78C015B016A010E94F80D4C0100979C
:1020D00009F05DC0F801428153816481758180916E
:1020E000A1039091A203A091A303B091A403481768
:1020F00059076A077B0709F44EC00E94241D780126
:10210000F8E0EF0EF11C6F7077277C5FC7010E942B
:102110003015813009F043C080EA91E09A838983C9
:10212000F80182819381A481B5818B839C83AD83E7
:10213000BE8345E350E0BE016F5F7F4FC7010E9441
:102140006014892B19F4812C912C1DC0B501C80194
:102150000E94440E892BB9F3C7010E946814892B91
:1021600091F333E0A32EB12CA60168E873E1C80116
:102170000E94ED0E4C01F1E0AF1AB10821F08F3F43
:102180002FEF920789F3C7010E944B1408C08824DF
:102190008394912C04C09EEF892E99249A94C401B3
:1021A00026960FB6F894DEBF0FBECDBFDF91CF915C
:1021B0001F910F91FF90EF90DF90CF90BF90AF9065
:1021C0009F908F90089524E030E0AC0164E081E0BE
:1021D00090E00C942E1824E030E0AC0164E085E03F
:1021E00090E00C942E1826E030E0AC0164E089E029
:1021F00090E00C942E1824E030E0AC0164E08FE015
:1022000090E00C942E18AF92BF92CF92DF92EF9293
:10221000FF920F931F93CF93DF9300D000D000D095
:10222000CDB7DEB76C015B0182E690E00E94992099
:102230008C0182E6F80111928A95E9F7C801895B61
:102240009F4F0E946315F601178306838DED93E07F
:102250000E940B18C5010E94F31000E020E040E04E
:1022600060E0CE0101960E944F20CE0103960E94AD
:10227000FB1018E8E12E13E1F12E00E010E020E65B
:102280003AEE40E050E0B501F601868197810E9468
:10229000DC0C8C018130910589F5F601668177812E
:1022A000CE0101960E942008CE0103960E94FB10E9
:1022B000F60166817781CE0101960E943608CE0133
:1022C00003960E94E310F60166817781CE010196A4
:1022D0000E942B08CE0103960E94EB10F601668146
:1022E0007781CE0101960E9441084B815C816D810E
:1022F0007E81F6014283538364837583C8012696E9
:102300000FB6F894DEBF0FBECDBFDF91CF911F9106
:102310000F91FF90EF90DF90CF90BF90AF90089516
:10232000EF92FF920F931F93CF93DF9300D000D0D3
:1023300000D0CDB7DEB78C01FC0186819781009774
:10234000E1F10E94210D7C018230910521F084E0B1
:10235000E816F104A1F5F80166817781CE010196B6
:102360000E942008CE0103960E94FB10F8016681AE
:102370007781CE0101960E943608CE0103960E9415
:10238000E310F80166817781CE0101960E942B0847
:10239000CE0103960E94EB10F80166817781CE0191
:1023A00001960E9441084B815C816D817E81F8011C
:1023B000428353836483758302C0E12CF12CC701EF
:1023C00026960FB6F894DEBF0FBECDBFDF91CF913A
:1023D0001F910F91FF90EF90089520EA31E0FC01EA
:1023E00031832083FB014281538164817581FC012B
:1023F000428353836483758308950F9300E020E044
:1024000040E060E08DEB93E00E944F2085EA93E08E
:102410000F910C944520DC01ED91FC91008CF18D25
:10242000E02D099591E089270895CF93DF931F92BE
:10243000CDB7DEB76983DC01ED91FC910280F381B9
:10244000E02D41E050E0BE016F5F7F4F09950F9096
:10245000DF91CF91089521E0FC018485883009F453
:1024600020E0822F0895FC019485FB018485981358
:1024700003C081E0983009F480E008950F931F9322
:10248000CF93DF93EC018A018C85883021F00E9484
:10249000C016892B39F481E090E09B838A8380E029
:1024A00090E001C0C801DF91CF911F910F91089575
:1024B000FC016485683021F08DED93E00C94DC180C
:1024C00080E090E00895CF93DF931F92CDB7DEB701
:1024D00041E050E0BE016F5F7F4FFC0184850E94A8
:1024E0001217181619061CF4898190E002C08FEFAC
:1024F0009FEF0F90DF91CF910895FC0184850C949C
:1025000012170F931F93CF93DF931F92CDB7DEB7B0
:102510008C01DC01ED91FC910480F581E02D0995A1
:10252000892B51F0BE016F5F7F4FF80184850E94B7
:102530005617898190E002C08FEF9FEF0F90DF91D7
:10254000CF911F910F910895FC0184850C9464171D
:10255000CF92DF92EF92FF920F931F93CF93DF936F
:10256000CDB7DEB7AF970FB6F894DEBF0FBECDBFC5
:102570007C018B016A01CE0101960E944520CE01AB
:1025800009960E946315CE018A960E94452065EA4D
:1025900073E0CE0184960E94ED11BE016C5D7F4F09
:1025A000CE0101960E94EB0DAE01465D5F4FB80172
:1025B000CE0101960E94501081309105C1F4D701DF
:1025C000ED91FC910484F585E02D80EA91E09DA3D6
:1025D0008CA30CA51DA52EA53FA50EA31FA328A760
:1025E00039A7A601BE016C5D7F4FC7010995AF9663
:1025F0000FB6F894DEBF0FBECDBFDF91CF911F9114
:102600000F91FF90EF90DF90CF900895FC0113821F
:10261000128248EE53E060E070E0448355836683A5
:1026200077838CE491E09183808388E084870895A8
:10263000FC016485683041F06295660F607E685FDA
:1026400083E090E00C946C1880E00895DF92EF92A4
:10265000FF920F931F93CF93DF93EC017B018A01CD
:102660008C85883009F04BC0D12C6D2D6295660F9A
:10267000607E685F83E090E00E946C18811102C068
:10268000DC8607C08B7F8831D9F3D39488E0D812D9
:10269000ECCF8C85883099F120910A0130910B01A3
:1026A0002F5F3F4F11F420E034E030930B01209373
:1026B0000A0140910A0150910B0120E061E00E9463
:1026C0004316B7016E5F7F4FA8018C850E94831669
:1026D000811103C088E08C8712C0CE010E941813BC
:1026E000873151F061E070E080E090E00E94531D7E
:1026F000CE010E941813ECCF81E090E002C080E090
:1027000090E0DF91CF911F910F91FF90EF90DF90BC
:102710000895CF92DF92EF92FF92CF93DF93EC0177
:102720008C85883081F10E94B9160E94241D6B01AE
:102730007C01CE010E941813882359F00E94241DA9
:102740006C197D098E099F09683E734081059105CA
:1027500098F0CE010E941813882319F08C850E94EE
:102760003516EC85F0E0EE0FFF1FE355FC4F1182AC
:10277000108288E08C8707C061E070E080E090E024
:102780000E94531DD6CFDF91CF91FF90EF90DF9045
:10279000CF900895CF93DF93EC018C858830D1F0F2
:1027A000CE010E9418138431A9F0882399F0883152
:1027B00089F08C3169F4E881F9810480F581E02D9C
:1027C000CE01099521E0892B09F420E0822F03C076
:1027D00081E001C080E0DF91CF9108950F9300E088
:1027E00020E040E060E083EC93E00E944F200F91F6
:1027F00008950F9300E020E040E060E089EC93E072
:102800000E944F200F910895DC01ED91FC91008C06
:10281000F18DE02D099420EA31E0FC013183208321
:10282000FB014189528963897489FC014283538386
:10283000648375830895FC01858996890895FC0158
:10284000818D928D0895CF93DF931F92CDB7DEB720
:102850006983DC01ED91FC910280F381E02D41E080
:1028600050E0BE016F5F7F4F09950F90DF91CF91D0
:102870000895CF93DF93EC01898D9A8D892B41F0D8
:10288000E881F9810680F781E02DCE010995F4CF2A
:10289000DF91CF910895CF93DF93EC018C85883041
:1028A00061F00E943516EC85F0E0EE0FFF1FE35556
:1028B000FC4F1182108288E08C87DF91CF910895C0
:1028C000FC01108E178A6E5F7F4F84850C949317DE
:1028D000FC0184850C94B817CF93DF93EC019A0127
:1028E0008F89988DAB01BC018C850E9465172F895B
:1028F000388D280F391F388F2F8BDF91CF91089596
:102900000F931F93CF93DF931F92CDB7DEB78C0148
:10291000FC01818D928D892B59F041E050E0BE0180
:102920006F5F7F4F84850E941217181619061CF0DE
:102930008FEF9FEF08C0F801818D928D0197928FE4
:10294000818F898190E00F90DF91CF911F910F913E
:102950000895CF93DF93EC01898D9A8D009719F438
:102960008FEF9FEF10C04817590708F0AC018C8516
:102970000E941217181619069CF7298D3A8D281BEC
:10298000390B3A8F298FDF91CF910895CF93DF9341
:102990001F92CDB7DEB7FC01218D328D232B49F07C
:1029A000BE016F5F7F4F84850E945617898190E03A
:1029B00002C08FEF9FEF0F90DF91CF9108950F939B
:1029C0001F93CF93DF93CDB7DEB728970FB6F89458
:1029D000DEBF0FBECDBF8C01DC01ED91FC91028406
:1029E000F385E02D0995F80164858DED93E00E9453
:1029F000DC18892B41F148E050E0BE016F5F7F4F4A
:102A0000D8011C968C910E94121718161906ECF426
:102A1000BE016F5F7F4FC8010F960E946B208D81B2
:102A200090E0982F88272E81820F911DF801968BB8
:102A3000858B8F8190E0982F88272885820F911DA4
:102A4000928F818F02C080E090E028960FB6F894B4
:102A5000DEBF0FBECDBFDF91CF911F910F910895C3
:102A6000FF920F931F93CF93DF93EC018B018C8523
:102A7000883011F5F12C6F2D6295660F607E685FCE
:102A800083E090E00E946C18811102C0FC8606C0B1
:102A90008831E1F3F39488E0F812EDCF8C8588302B
:102AA00059F01E870D871A8E198E20E0A80162E06A
:102AB0000E94431681E001C080E0DF91CF911F9119
:102AC0000F91FF900895FC011382128248EE53E0AB
:102AD00060E070E044835583668377838CE691E001
:102AE0009183808388E08487CF010F960C944520E2
:102AF000CF92DF92EF92FF920F931F93CF93DF93CA
:102B0000CDB7DEB7AF970FB6F894DEBF0FBECDBF1F
:102B10007C018B016A01CE0101960E944520CE0105
:102B200009960E946315CE018A960E94452065EAA7
:102B300073E0CE0184960E94ED11BE016C5D7F4F63
:102B4000CE0101960E94EB0DAE01465D5F4FB801CC
:102B5000CE0101960E94501081309105C1F4D70139
:102B6000ED91FC910088F189E02D80EA91E09DA330
:102B70008CA30CA51DA52EA53FA50EA31FA328A7BA
:102B800039A7A601BE016C5D7F4FC7010995AF96BD
:102B90000FB6F894DEBF0FBECDBFDF91CF911F916E
:102BA0000F91FF90EF90DF90CF9008950F9300E08A
:102BB00020E040E060E08FEC93E00E944F200F9116
:102BC00008950F9300E020E040E060E085ED93E0A1
:102BD0000E944F200F910895AB01682F6295660FF8
:102BE000607E645F24E030E08CE090E00C942E186E
:102BF0009B01682F6295660F607E685FC9010C9427
:102C00006C1862E070E00C94F8159B01682F6295D7
:102C1000660F607E645FC9010C94E517CF93DF9364
:102C2000C82FD62F472F64E070E00E9405164D2F65
:102C300065E070E08C2FDF91CF910C940516462F44
:102C400062E070E00C940516CF93DF93C82FD62F67
:102C5000472F60E170E00E9405164D2F61E170E0A2
:102C60008C2FDF91CF910C940516CF93C82F40E1A4
:102C700050E0682F8DED93E00E94EA196FEF8C2FE2
:102C8000CF910C941F16EF92FF921F93CF93DF9377
:102C900000D0CDB7DEB7182F7A018FEF860F8530C1
:102CA00048F5812F2A8369830E9435162A8169811C
:102CB000462F422B60E070E0812F0E940516E11440
:102CC000F10411F0B7010AC06091DB037091DC03DD
:102CD0006F5F7F4F7093DC036093DB03812F0E9453
:102CE0000E1641E050E0612F8DED93E00E94EA194D
:102CF00081E001C080E00F900F90DF91CF911F9194
:102D0000FF90EF9008951F93CF93DF93182FFB014F
:102D1000EA0180818F3F51F481818F3F91F482815C
:102D20008F3F79F483818F3F61F41EC0811109C008
:102D30008181811106C08281811103C08381882332
:102D400099F0209789F0BF01812F0E94EC15BE01F8
:102D5000812F0E94241644E050E0612F8DED93E016
:102D60000E94EA1981E001C080E0DF91CF911F91BC
:102D7000089548E050E0682F8DED93E00C94EA1937
:102D8000DF92EF92FF920F931F93CF93DF93D82E92
:102D90008B01EA01413088E0580710F0C0E0D8E02C
:102DA0006D2D8DED93E00E94A7187C0163E070E02B
:102DB0008D2D0E94F815873111F08C3121F4EC161D
:102DC000FD0670F302C0C0E0D0E09E01A8016D2DA9
:102DD0008DED93E00E94361940E250E06D2D8DEDAF
:102DE00093E00E94EA198D2D0E94011684FD0DC00A
:102DF00063E070E08D2D0E94F8158111F4CF8D2DC8
:102E00000E94351680E090E005C060E18D2D0E94A3
:102E10001F16CE01DF91CF911F910F91FF90EF9080
:102E2000DF900895DF92EF92FF920F931F93CF935D
:102E3000DF93D82E7B018A01682F8DED93E00E94ED
:102E4000DC18EC01009799F463E070E08D2D0E948E
:102E5000F815843111F1882301F1C1E0D0E08C3103
:102E600011F4C0E0D0E0D195C195D10916C0081782
:102E700019070CF4E8011C161D067CF400E09E0105
:102E8000A7016D2D8DED93E00E94991940E450E06B
:102E90006D2D8DED93E00E94EA19CE01DF91CF9167
:102EA0001F910F91FF90EF90DF9008950F93AB016A
:102EB00001E021E030E0682F8DED93E00E94991948
:102EC00081E090E00F9108950895BF92CF92DF9234
:102ED000EF92FF920F931F93CF93DF93B82E7B0156
:102EE0006A01E901682F8DED93E00E94A7188C1705
:102EF0009D0730F46B2D8DED93E00E94A718EC0137
:102F00008E019601A7016B2D8DED93E00E94F818BC
:102F1000CE01DF91CF911F910F91FF90EF90DF9045
:102F2000CF90BF9008951F93CF93DF93182FFB018D
:102F3000EA018081811109C08181811106C08281ED
:102F4000811103C08381882369F0209759F0BF0164
:102F5000812F0E94EC15BE01812F0E94241681E072
:102F600090E002C080E090E0DF91CF911F91089542
:102F7000CF93C82F40E250E0682F8DED93E00E9480
:102F8000EA198C2F0E94011684FD0CC08C2F0E9420
:102F9000011683FFF6CF68E18C2F0E941F1680E098
:102FA00090E006C060E18C2F0E941F1681E090E047
:102FB000CF9108958EBD00000DB407FEFDCF8EB5F4
:102FC00008952E9808952E9A08951F93CF93DF9316
:102FD00000D01F92CDB7DEB7182F4B836A83998339
:102FE0000E94E1179981892F0E94DA17812F0E9490
:102FF000DA176A81862F0E94DA174B81842F0E948C
:10300000DA170E94E31781E00F900F900F90DF9185
:10301000CF911F910895CF93DF9368EE73E080E026
:1030200090E00E94531D269A0E94E307C0E0DC2F27
:10303000D295DD0FD07ED45F42E06D2F8EE190E01F
:103040000E94E51742E06D2F8FE190E00E94E517A6
:10305000CF5FC83061F7DF91CF910895CF92DF92B3
:10306000EF92FF920F931F93CF93DF9300D000D086
:10307000CDB7DEB7F82E89014B835C836A839983D1
:103080000E94E11789810E94DA178F2D0E94DA17BA
:103090006A81862F0E94DA174B81C42E5C81D52E5F
:1030A0007601E00EF11ECE14DF0431F0F6018191BD
:1030B0006F010E94DA17F7CF0E94E317C8010F9043
:1030C0000F900F900F90DF91CF911F910F91FF9074
:1030D000EF90DF90CF9008951F93CF93DF9300D0B0
:1030E000CDB7DEB7182F6A8399830E94E1178981D3
:1030F0000E94DA17812F0E94DA176A81862F0E94B8
:10310000DA1780E00E94DA1789830E94E317898129
:103110000F900F90DF91CF911F9108951F93CF9340
:10312000DF93182F60E270E00E94F815C82FD0E0FE
:10313000DC2FCC2761E270E0812F0E94F8159E0100
:10314000280F311DC901DF91CF911F910895FF9282
:103150000F931F93CF93DF93F62EC0E0D0E08F2D17
:103160000E948E188C01009721F08F2D0E948E18DE
:10317000EC01C017D10799F7CE01DF91CF911F91D4
:103180000F91FF9008951F93CF93DF93182F66E25E
:1031900070E00E94F815C82FD0E0DC2FCC2767E242
:1031A00070E0812F0E94F8159E01280F311DC90182
:1031B000DF91CF911F910895FF920F931F93CF93AB
:1031C000DF93F62EC0E0D0E08F2D0E94C3188C0153
:1031D000009721F08F2D0E94C318EC01C017D10772
:1031E00099F7CE01DF91CF911F910F91FF90089534
:1031F000CF92DF92EF92FF920F931F93CF93DF93C3
:10320000D62EEA01790164E270E08D2D0E94F81556
:10321000C82E65E270E08D2D0E94F815C80FD11DF3
:103220002C2D30E0322F2227C20FD31F6D2D629537
:10323000660F607E6C5E9801A701CE010E942E1879
:10324000C00FD11F4D2F64E270E08D2D0E94051636
:103250004C2F65E270E08D2DDF91CF911F910F9182
:10326000FF90EF90DF90CF900C9405160F931F9373
:1032700089019A0140E050E00E94F8181F910F91D7
:103280000895CF92DF92EF92FF920F931F93CF9307
:10329000DF9300D000D0CDB7DEB7F82E89014B8385
:1032A0005C836A8399830E94E11789810E94DA17FF
:1032B0008F2D0E94DA176A81862F0E94DA174B81C0
:1032C000C42E5C81D52E7601E00EF11ECE14DF04F3
:1032D00039F080E00E94DA17F60181936F01F6CF92
:1032E0000E94E317C8010F900F900F900F90DF918D
:1032F000CF911F910F91FF90EF90DF90CF900895A5
:103300000F931F93CF93DF9300D0CDB7DEB75A83CF
:103310004983A901980189819A816295660F607E2F
:10332000685E0F900F90DF91CF911F910F910C94D9
:1033300041198F929F92AF92BF92CF92DF92EF92FC
:10334000FF920F931F93CF93DF936C01962E5A0138
:103350007901802E68E270E0892D0E94F815C82F4F
:1033600069E270E0892D0E94F815D0E0DC2FCC27AF
:10337000C80FD11D87019501AE01692DC6010E94BC
:10338000801981101AC0CE0DDF1D4D2F68E270E04C
:10339000892D0E9405164C2F69E270E0892DDF917E
:1033A000CF911F910F91FF90EF90DF90CF90BF9042
:1033B000AF909F908F900C940516DF91CF911F9145
:1033C0000F91FF90EF90DF90CF90BF90AF909F90C4
:1033D0008F900895CF93C62F61E070E08C2F0E94EC
:1033E000051661E070E08C2F0E94F8158111F9CF6D
:1033F000CF910895FC0171836083538342830895C4
:10340000CF92DF92EF92FF920F931F93CF93DF93B0
:10341000C62ED42E790100E010E0C0E0D0E00E15F9
:103420001F0594F461E08D2D0E94591ECC0FDD1F05
:103430008C2D0E948F1EC80FD91F60E08D2D0E9419
:10344000591E0F5F1F4FEBCFCE01DF91CF911F9120
:103450000F91FF90EF90DF90CF9008951F93CF933F
:10346000DF93162FC42FD22F61E0842F0E94201EDD
:1034700061E08D2F0E94201E61E08C2F0E94591E5A
:1034800061E08D2F0E94591E60E08C2F0E94591E12
:1034900060E08D2F0E94591E61E08D2F0E94591E01
:1034A00061E08C2F0E94591E60E08D2F0E94591EF2
:1034B000212F41E06D2F8C2F0E94B81E61E08D2FCF
:1034C0000E94591E62E08C2F0E94201E8C2F0E94A9
:1034D0008F1E60E08D2F0E94591E8C2FDF91CF919F
:1034E0001F910C948F1E1F93CF93DF93162F62E0D2
:1034F000812F0E94201EC8EED3E061E070E080E0E2
:1035000090E00E94531D812F0E948F1E892B11F085
:10351000219799F7DF91CF911F910895CF92DF9274
:10352000EF92FF920F931F93CF93DF938C01F62EB0
:10353000D72EE42EC52E62E08F2D0E94201E61E062
:103540008E2D0E94201E28E030E04E2D5C2D6F2D28
:103550007D2DC8010E94001AD82F80E0C82F61E09D
:103560008F2D0E94201E61E08F2D0E94591E60E069
:103570008F2D0E94591E61E08E2D0E94591E60E021
:103580008E2D0E94591E62E08F2D0E94201E28E081
:1035900030E04E2D5C2D6F2D7D2DC8010E94001A4C
:1035A0008C2B9D2BDF91CF911F910F91FF90EF906E
:1035B000DF90CF900895CF93DF93D62FC42F61E093
:1035C0008D2F0E94201E61E08C2F0E94201E61E042
:1035D0008D2F0E94591E61E08C2F0E94591E60E0C1
:1035E0008C2FDF91CF910C94591E0F931F93CF9383
:1035F000DF93EC012A813B814881598163E070E0CF
:103600000E942E1A68817981CE010E94731A4A8124
:103610005B8168817981CE010E948E1A8C014A817A
:103620005B8168817981CE010E94DB1AB80188270D
:1036300077FD8095982F0E94A728DF91CF911F9149
:103640000F9108950E94F51A0E947428882777FD2B
:103650008095982F0E94A7282AE037ED43E25CE38B
:103660000E945B2920E030E040E252E40E94A32760
:1036700008954F925F926F927F928F929F92AF9236
:10368000BF92CF92DF92EF92FF92CF93DF93EC0144
:103690002A813B814881598165E070E00E942E1AA1
:1036A00068817981CE010E94731A4A815B816881A9
:1036B0007981CE010E948E1A7C014A815B816881EA
:1036C0007981CE010E94DB1AB701882777FD8095AA
:1036D000982F0E94A7286B017C0124E533EE45E278
:1036E0005DE30E945B2920E030E040E850E40E9466
:1036F000A3274B015C0122EA37EE4BE356EBC701EF
:10370000B6010E945B29A70196010E945B299B01DB
:10371000AC01C501B4010E94A4274B015C01CE019C
:103720000E94221B2B013C012CEA35EC47EA58E3AE
:10373000C701B6010E945B292AE037ED43E25CE352
:103740000E94A4279B01AC01C301B2010E945B2926
:10375000A50194010E94A427DF91CF91FF90EF90E3
:10376000DF90CF90BF90AF909F908F907F906F90A1
:103770005F904F9008950F9300E020E040E060E0FC
:103780008EED93E00E944F200F91089508958530AB
:1037900008F04CC0E82FF0E0EE0FFF1FE45FFE4F93
:1037A000718360838230E1F018F4813069F004C0E5
:1037B000833019F1843071F1809169008C7F842B02
:1037C00080936900E89A089580916900440F551F1D
:1037D000440F551F837F842B80936900E99A0895D5
:1037E0008091690034E0440F551F3A95E1F78F7CD2
:1037F000842B80936900EA9A08958091690026E0FD
:10380000440F551F2A95E1F78F73842B809369002D
:10381000EB9A089580916A0094E0440F551F9A95A1
:10382000E1F78F7C842B80936A00EE9A08951F92B3
:103830000F920FB60F9211242F933F934F935F93E4
:103840006F937F938F939F93AF93BF93EF93FF9368
:10385000E0910C01F0910D010995FF91EF91BF915D
:10386000AF919F918F917F916F915F914F913F9118
:103870002F910F900FBE0F901F9018951F920F92CF
:103880000FB60F9211242F933F934F935F936F9333
:103890007F938F939F93AF93BF93EF93FF93E091A9
:1038A0000E01F0910F010995FF91EF91BF91AF913A
:1038B0009F918F917F916F915F914F913F912F9148
:1038C0000F900FBE0F901F9018951F920F920FB67A
:1038D0000F9211242F933F934F935F936F937F9396
:1038E0008F939F93AF93BF93EF93FF93E09110015A
:1038F000F09111010995FF91EF91BF91AF919F91C7
:103900008F917F916F915F914F913F912F910F9088
:103910000FBE0F901F9018951F920F920FB60F9227
:1039200011242F933F934F935F936F937F938F93C4
:103930009F93AF93BF93EF93FF93E0911201F091A8
:1039400013010995FF91EF91BF91AF919F918F91D5
:103950007F916F915F914F913F912F910F900FBE8B
:103960000F901F9018951F920F920FB60F9211246F
:103970002F933F934F935F936F937F938F939F9377
:10398000AF93BF93EF93FF93E0911401F091150172
:103990000995FF91EF91BF91AF919F918F917F9189
:1039A0006F915F914F913F912F910F900FBE0F90AC
:1039B0001F9018951F920F920FB60F9211242F93FC
:1039C0003F938F939F93AF93BF938091E503909123
:1039D000E603A091E703B091E8033091E40323E00C
:1039E000230F2D3720F40196A11DB11D05C026E837
:1039F000230F0296A11DB11D2093E4038093E503DC
:103A00009093E603A093E703B093E8038091E90362
:103A10009091EA03A091EB03B091EC030196A11DF4
:103A2000B11D8093E9039093EA03A093EB03B09355
:103A3000EC03BF91AF919F918F913F912F910F9088
:103A40000FBE0F901F9018952FB7F8946091E50363
:103A50007091E6038091E7039091E8032FBF0895EA
:103A60003FB7F8948091E9039091EA03A091EB03AA
:103A7000B091EC0326B5A89B05C02F3F19F0019625
:103A8000A11DB11D3FBF6627782F892F9A2F620F86
:103A9000711D811D911D42E0660F771F881F991FC0
:103AA0004A95D1F708958F929F92AF92BF92CF928D
:103AB000DF92EF92FF926B017C010E94301D4B015F
:103AC0005C01C114D104E104F104F1F00E94072764
:103AD0000E94301D681979098A099B09683E734064
:103AE0008105910570F321E0C21AD108E108F108BF
:103AF00088EE880E83E0981EA11CB11CC114D1046D
:103B0000E104F10429F7DDCFFF90EF90DF90CF9033
:103B1000BF90AF909F908F900895789484B5826005
:103B200084BD84B5816084BD85B5826085BD85B561
:103B3000816085BDEEE6F0E0808181608083E1E810
:103B4000F0E0108280818260808380818160808348
:103B5000E0E8F0E0808181608083E1E9F0E080814D
:103B600082608083808181608083E0E9F0E08081F1
:103B700081608083E1ECF0E08081846080838081DB
:103B800082608083808181608083E3ECF0E08081CB
:103B900081608083E0ECF0E0808182608083E2ECF1
:103BA000F0E0808181608083EAE7F0E080818460DA
:103BB0008083808182608083808181608083808136
:103BC00080688083089590E0FC013197EF30F10523
:103BD000B0F5EA5AFF4F0C94032A809180008F774A
:103BE00003C0809180008F7D809380000895809134
:103BF0008000877FF9CF84B58F7702C084B58F7D31
:103C000084BD0895809190008F7707C080919000C7
:103C10008F7D03C080919000877F809390000895EE
:103C20008091C0008F7703C08091C0008F7D80930A
:103C3000C00008958091C200877F8093C2000895DC
:103C4000CF93DF9390E0FC01E751FF4F2491FC01FB
:103C5000E85FFE4F8491882349F190E0880F991F17
:103C6000FC01ED5BFE4FA591B4918B5C9E4FFC0176
:103C7000C591D4919FB7611108C0F8948C9120959B
:103C800082238C93888182230AC0623051F4F89495
:103C90008C91322F309583238C938881822B88835B
:103CA00004C0F8948C91822B8C939FBFDF91CF91AD
:103CB00008950F931F93CF93DF931F92CDB7DEB775
:103CC000282F30E0F901E653FF4F8491F901E751C5
:103CD000FF4F1491F901E85FFE4F04910023C9F0F2
:103CE000882321F069830E94E31D6981E02FF0E0C1
:103CF000EE0FFF1FEB5CFE4FA591B4919FB7F894B8
:103D00008C91611103C01095812301C0812B8C938C
:103D10009FBF0F90DF91CF911F910F910895CF9387
:103D2000DF93282F30E0F901E653FF4F8491F9012A
:103D3000E751FF4FD491F901E85FFE4FC491CC23C6
:103D400091F081110E94E31DEC2FF0E0EE0FFF1FB8
:103D5000E95DFE4FA591B4912C912D2381E090E077
:103D600021F480E002C080E090E0DF91CF910895DF
:103D7000BF92CF92DF92EF92FF920F931F93CF9358
:103D8000DF93C82ED62EB42EC7E0D0E0022F10E06D
:103D900087E0E82EF12CB1100AC0F701EC1BFD0BF7
:103DA000B80102C075956795EA95E2F707C0B801BA
:103DB0000C2E02C0759567950A94E2F7617077271B
:103DC0008C2D0E94591E61E08D2D0E94591E60E0CD
:103DD0008D2D0E94591E2197F0F6DF91CF911F91F2
:103DE0000F91FF90EF90DF90CF90BF900895CF9309
:103DF000DF931F92CDB7DEB76983DC01ED91FC91B3
:103E00000280F381E02D41E050E0BE016F5F7F4F03
:103E100009950F90DF91CF910895CF93DF93EC0137
:103E20008C859D8597FF05C082E00E9489239D8730
:103E30008C878C859D85DF91CF91089583E00C94CC
:103E40001D26FC018485958597FD06C082E00E94B1
:103E5000312390E00196089582E00E94312390E0A2
:103E60000895FC018485958597FD05C02FEF3FEFF0
:103E700035872487089582E00C948923CF93DF93BC
:103E8000EC0180912101882331F083E00E94BA2364
:103E90001816190634F081E090E09B838A8380E055
:103EA00090E0DF91CF910895FC0120812E5F208367
:103EB00042E450E061E571E080E80C945524FC0197
:103EC00021818081813A59F4213209F04BC047E0C9
:103ED00050E06AE171E080E00E9455245EC08132CA
:103EE00009F040C0233289F4838190E0982F88271D
:103EF0003281832BA0E0B0E08093160190931701EC
:103F0000A0931801B09319010FC0203239F467E073
:103F100070E08AE191E00E94862409C0223221F4F7
:103F200082818093210103C02D7F2032B1F58091E1
:103F30003D04811103C0E0E0F8E002C0EEEFFAE0DA
:103F400080911A0190911B01A0911C01B0911D015B
:103F5000803B9440A105B10511F58091210180FFBE
:103F600003C01DC080E00895EE3F2AE0F20731F063
:103F7000808191819093FF0A8093FE0A87E797E7FB
:103F8000918380832BE088E190E00FB6F894A895A8
:103F9000809360000FBE2093600081E0089588E167
:103FA0000FB6F89480936000109260000FBEA89541
:103FB000EE3F8AE0F80739F08091FE0A9091FF0AFF
:103FC00091838083EACF1092FF0A1092FE0AE5CF18
:103FD0002FEF3FEFFC013587248708951092F003FF
:103FE0001092EF0388EE93E0A0E0B0E08093F1033D
:103FF0009093F203A093F303B093F40380E991E06C
:104000009093EE038093ED038FEF9FEF9093FA036D
:104010008093F9030895AF92BF92CF92DF92EF920F
:10402000FF920F931F93CF93DF936C017B01C0E04E
:10403000D0E000E010E0F601EC0FFD1F4AE050E098
:104040006281C7010E9474215C016EE2C7010E9477
:10405000B1208A0D9B1D080F191F2196C330D10571
:1040600051F74AE050E0F6016581C7010E947421D2
:10407000800F911FDF91CF911F910F91FF90EF90D3
:10408000DF90CF90BF90AF90089520EA31E0FC011F
:1040900031832083128213821482158208950F9334
:1040A000FC0180EA91E091838083628343832483CF
:1040B00005830F91089520EA31E0FC0131832083CC
:1040C000FB014081518162817381FC0142835383F2
:1040D000648375830895FB014081518162817381FE
:1040E000FC014283538364837583089580EA91E0E1
:1040F00090933F0480933E04109240041092410438
:104100001092420410924304089508950E948D1D58
:104110000E94852084E494E00E94AA260E94A602C0
:10412000C0E0D0E00E94F9022097E1F30E94000075
:10413000F9CF0C942A2A6115710581F0DB010D90ED
:104140000020E9F7AD0141505109461B570BDC0136
:10415000ED91FC910280F381E02D099480E090E0E4
:104160000895DC01ED91FC910190F081E02D09941E
:1041700062EA71E00C949B200F931F93CF93DF931F
:10418000EC010E949B208C01CE010E94B820800F80
:10419000911FDF91CF911F910F9108958F929F9260
:1041A000AF92BF92DF92EF92FF920F931F93CF9344
:1041B000DF93CDB7DEB7A1970FB6F894DEBF0FBE81
:1041C000CDBF7C01F42FD52ECB0119A2223008F4EB
:1041D0002AE08E010F5D1F4F822E912CA12CB12C55
:1041E0006F2F7D2DA50194010E94C229F22FD32E9D
:1041F000CA01015011096A3014F4E0E301C0E7E399
:10420000E60FD801EC93232B242B252B49F7B8017B
:10421000C7010E949B20A1960FB6F894DEBF0FBE87
:10422000CDBFDF91CF911F910F91FF90EF90DF9065
:10423000BF90AF909F908F900895CF92DF92EF92B2
:10424000FF920F931F93CF93DF93EC016A017B01E1
:104250002115310579F4E881F9810190F081E02D93
:10426000642FDF91CF911F910F91FF90EF90DF901E
:10427000CF9009942A303105E9F477FF1AC06DE236
:104280000E94B1208C0144275527BA014C195D09C1
:104290006E097F092AE0CE010E94CE20800F911F77
:1042A000DF91CF911F910F91FF90EF90DF90CF9012
:1042B00008952AE0B701A601CE01DF91CF911F91A9
:1042C0000F91FF90EF90DF90CF900C94CE202115AE
:1042D000310541F4DC01ED91FC910190F081E02D7C
:1042E000642F09940C94CE209A01462F50E060E090
:1042F00070E00C9467214F925F926F927F928F9241
:104300009F92AF92BF92CF92DF92EF92FF920F9364
:104310001F93CF93DF93EC016A017B01B22E9A01C8
:10432000AB01C701B6010E94BE29882319F065EAD6
:1043300071E027C026013701E89477F82FEF3FEFAF
:104340004FE75FE7C301B2010E94BE2981110DC092
:104350002FEF3FEF4FE75FE7C301B2010E9408284C
:1043600018161CF469EA71E00CC02FEF3FEF4FE71D
:104370005FE4C701B6010E9457291816ACF46DEA34
:1043800071E0CE01DF91CF911F910F91FF90EF90DF
:10439000DF90CF90BF90AF909F908F907F906F9065
:1043A0005F904F900C949B202FEF3FEF4FE75FEC17
:1043B000C701B6010E94082887FDE1CF20E030E068
:1043C000A901C701B6010E94082887FF0AC06DE253
:1043D000CE010E94B1208C01F7FAF094F7F8F09426
:1043E00002C000E010E0A12C60E070E080E09FE3FC
:1043F000AB1441F020E030E040E251E40E940C2890
:10440000A394F6CF9B01AC01C701B6010E94A4277B
:104410006B017C010E9479282B013C010E94A52898
:104420009B01AC01C701B6010E94A3276B017C016F
:104430002AE0B301A201CE010E94CE20080F191F6D
:10444000BB2039F061EB71E0CE010E949B20080F88
:10445000191F7B2C772041F120E030E040E251E44D
:10446000C701B6010E945B296B017C010E94742880
:104470004B01AA2497FCA094BA2C2AE030E0B501A5
:10448000A401CE010E941D21080F191FC501B4010E
:104490000E94A7289B01AC01C701B6010E94A32777
:1044A0006B017C017A94D6CFC801DF91CF911F9127
:1044B0000F91FF90EF90DF90CF90BF90AF909F90C3
:1044C0008F907F906F905F904F9008950F931F9300
:1044D000CF93DF93EC010E947B218C01CE010E94DF
:1044E000B820800F911FDF91CF911F910F910895F8
:1044F000615030F02091F100FC0120830196F8CF4B
:10450000289884E680934D04089540914804509182
:104510004904209146043091470442175307B4F4EC
:104520009091E8009570E1F39091E80092FD19C038
:104530008093F100809148049091490401968F7313
:104540009927892B19F48EEF8093E8008091480415
:10455000909149040196909349048093480481E026
:10456000089580E00895CF92DF92EF92FF920F932B
:104570001F93CF93DF931F92CDB7DEB7082F162F6F
:10458000F42E862F880F8E5F99830E94852283E008
:104590000E948522E02EC02E9981D92E8C2D8E1955
:1045A000811798F4F601F7FE02C0849101C0808162
:1045B0000E948522082F80E00E9485228023FFEF41
:1045C000CF1ADF0A8111EACF01C081E00F90DF919D
:1045D000CF911F910F91FF90EF90DF90CF900895B2
:1045E0008091D70081608093D70080EA8093D800C3
:1045F00089B5806189BD89B5826089BD09B400FE35
:10460000FDCF61E070E080E090E00E94531D80915A
:10461000D8008F7C80618093D8008091E000807FFB
:104620008093E0000895CF93DF931F92CDB7DEB75C
:104630001982CE0101960E94541F0E948F27BE014D
:104640006F5F7F4F0E94082789810F90DF91CF9184
:1046500008952FB7FC012083F89467706093E900F8
:104660000895CF93DF931F92CDB7DEB7682FCE01A9
:1046700001960E9429238091F20099819FBF0F909B
:10468000DF91CF910895FF920F931F93CF93DF9304
:1046900000D0CDB7DEB7F62E8A0190914C04992355
:1046A00011F057FF03C08FEF9FEF2BC0682FCE0193
:1046B00001967A830E9429238091F20090E0A8015C
:1046C0007A81801791070CF4AC01EF2DF72FF40ECF
:1046D00084E6FE1639F0289880934D049091F100FD
:1046E0009193F7CF4115510521F08091F200882375
:1046F00021F089818FBFCA0104C08BE68093E80056
:10470000F8CF0F900F90DF91CF911F910F91FF90F5
:104710000895CF93DF931F92CDB7DEB741E050E00D
:10472000BE016F5F7F4F0E944323019719F4898177
:1047300090E002C08FEF9FEF0F90DF91CF9108952F
:10474000CF93DF931F92CDB7DEB7682FCE010196CE
:104750000E9429239091E800892F807295FF04C060
:104760009091F20080E4891B99819FBF0F90DF91A7
:10477000CF9108956F927F928F929F92AF92BF9246
:10478000CF92DF92EF92FF920F931F93CF93DF931D
:104790001F92CDB7DEB7782E7B01C42EB52E809147
:1047A0004C04882369F0042F152F8AEFD82E872D0B
:1047B0008072982E9AE3A92E872D8074882E11C0BE
:1047C0008FEF9FEF57C0872D0E94A023682E811185
:1047D0000CC0DA94A9F361E070E080E090E00E9400
:1047E000531D0115110579F73BC0282F30E0021742
:1047F00013070CF4602E672DCE0101960E94292329
:104800008091E80085FF29C0262D30E0021B130BA4
:10481000992039F06A948FEF6816B1F01092F10088
:10482000F9CFF701862D77FE07C0815058F094919B
:104830009093F1003196F9CF815020F091919093AF
:10484000F100FACFE20EF31E8091E80085FF0FC061
:104850000115110511F481100AC089818FBFC1CFE4
:104860005D9884E680934E048C2D9B2D03C0A0920E
:10487000E800F3CF0F90DF91CF911F910F91FF9040
:10488000EF90DF90CF90BF90AF909F908F907F90F0
:104890006F9008951092E900109249041092480414
:1048A00090934704809346040895CF92DF92FF923D
:1048B0000F931F93CF93DF9300D0CDB7DEB7F82EC1
:1048C0008A016B0101151105B1F0F601F7FE02C076
:1048D000849101C0808149835A830E9485220150BE
:1048E0001109FFEFCF1ADF0A49815A818111EACFFE
:1048F0008FEF9FEF01C0CA010F900F90DF91CF9112
:104900001F910F91FF90DF90CF900895BF92CF92AB
:10491000DF92EF92FF920F931F93CF93DF936C017F
:104920008B01EB013BEFB32E2097C1F07E01C13428
:10493000D1051CF020E4E22EF12C8091E80082FFEA
:10494000FCCFC8018C1B9D0B6E2D8C0D9D1D0E94F4
:104950007822B092E800CE19DF09E6CFC801DF91D6
:10496000CF911F910F91FF90EF90DF90CF90BF906C
:1049700008951F920F920FB60F921124DF92EF92BB
:10498000FF920F931F932F933F934F935F936F93D8
:104990007F938F939F93AF93BF93EF93FF93CF93A7
:1049A000DF93CDB7DEB76C97DEBFCDBF1092E900C5
:1049B0008091E80083FF23C168E0CE0145960E9404
:1049C000782282EF8093E8003D8937FF05C080910F
:1049D000E80080FFFCCF03C08EEF8093E800832FB8
:1049E000807609F0F0C02E894F89D88C21110CC037
:1049F000303829F480914B048093F10002C010926A
:104A0000F1001092F100F4C0842F90E09D29213034
:104A100049F43111EDC0019709F0EAC080914B04CF
:104A20008D7F0AC0233059F43111E2C0019709F09B
:104A3000DFC080914B04826080934B04D9C0253045
:104A400041F48091E80080FFFCCF40684093E30090
:104A5000CFC0263009F08DC0EB8CFC8C22E0D21246
:104A60002CC080E090E00E944A240E94132399E029
:104A70008E010F5F1F4FF801292F11922A95E9F738
:104A80009983DA8291E09E8390EA98879AEF9987DA
:104A90002091480430914904275F3F4F3C832B838A
:104AA0008D83C7010E944A2449E050E0B80180E0AC
:104AB0000E9455240E9413239BC0C7010E944A24D0
:104AC0000E948F27BE016B5E7F4F0E9431270097A7
:104AD00019F00CF08DC090C081E0D8120EC08B8D03
:104AE0009C8D089719F481E08093450480914504DA
:104AF00081112FC065EA71E031C0E3E0DE127CC0B5
:104B00008F89882349F1823029F440E860E183EC01
:104B100091E01CC0813029F440E86BE087EB91E024
:104B200015C0833009F068C00E948F278E010F5F87
:104B30001F4FB8010E945027F80101900020E9F7AB
:104B40003197E01BF10B40E06E2FC8010E94B322A9
:104B50004DC063E971E002C064ED71E0611571055B
:104B600009F44AC0FB01449150E080E80E945524BA
:104B70003FC0273009F440C0283021F481E0809301
:104B8000F10036C02930A1F53370B1F5E3E2F1E070
:104B900081E021E036E39081992361F08093E90080
:104BA0002093EB0091919093EC003093ED008F5F98
:104BB000873089F78EE78093EA001092EA008F89A8
:104BC00080934C0415C08B8D9C8D0E944A24898D46
:104BD000811105C0CE0145960E945F1F07C00E944B
:104BE0008F27BE016B5E7F4F0E946F27882321F0C5
:104BF0008EEF8093E80003C081E28093EB006C9617
:104C00000FB6F894DEBF0FBECDBFDF91CF91FF91FD
:104C1000EF91BF91AF919F918F917F916F915F9134
:104C20004F913F912F911F910F91FF90EF90DF9047
:104C30000F900FBE0F901F9018958093E900809100
:104C4000F200882319F08AE38093E80008951F9208
:104C50000F920FB60F9211242F933F934F935F93B0
:104C60006F937F938F939F93AF93BF93CF93EF9364
:104C7000FF93C091E1008091E100837F8093E10088
:104C80008093E100C3FF0FC01092E90081E08093A0
:104C9000EB001092EC0082E38093ED0010924C0444
:104CA00088E08093F000C2FF19C083E00E941D26B7
:104CB00080914E04882339F080914E048150809376
:104CC0004E04882389F180914D04882339F0809126
:104CD0004D04815080934D04882341F1C4FF10C0DE
:104CE0008091E2008E7E81608093E2008091E100FD
:104CF0008F7E8093E10080914A048E7E806111C096
:104D0000C0FF16C08091E2008E7E80618093E20039
:104D10008091E1008E7E8093E10080914A048E7E36
:104D2000816080934A0404C05D9ACDCF289AD6CF83
:104D3000FF91EF91CF91BF91AF919F918F917F9113
:104D40006F915F914F913F912F910F900FBE0F90F8
:104D50001F90189510924C0410924B0410924A0424
:104D60000E94F0228091E1008E7E8093E1008DE030
:104D70008093E200559A209AEEEFFFE78591949197
:104D80008B3F9C4D19F481E080933D040895CF93AF
:104D9000DF9300D000D0CDB7DEB79B01AC01611529
:104DA00071058105910569F069833A834B835C83C2
:104DB0000E94A02B29813A814B815C810E94E429C9
:104DC00003C060E070E0CB010F900F900F900F9048
:104DD000DF91CF910895CF92DF92EF92FF926B0116
:104DE0007C01621773078407950764F4CA01B9014F
:104DF0006C197D098E099F090E94C7266C0D7D1DC7
:104E00008E1D9F1DFF90EF90DF90CF900895089525
:104E1000EF92FF920F931F93CF93DF937B01FC01DF
:104E2000C281D38100E010E0209781F0E881F98110
:104E30000280F381E02DB701CE01099597FD08C0EE
:104E4000080F191F0884D985C02DEECFC80102C0F4
:104E50008FEF9FEFDF91CF911F910F91FF90EF9018
:104E600008950F931F93CF93DF938B01FC01C281B1
:104E7000D381209771F0E881F9810480F581E02DDC
:104E8000B801CE010995009731F40884D985C02D69
:104E9000F0CF80E090E0DF91CF911F910F910895C6
:104EA0000F931F93CF93DF938B01FC01C281D381BA
:104EB000209771F0E881F9810680F781E02DB80133
:104EC000CE010995080F111D0884D985C02DF0CF9A
:104ED000F8011082DF91CF911F910F9108950F93E8
:104EE0001F93CF93DF938B01FC01C281D381209765
:104EF00071F0E881F9810190F081E02DB801CE01D7
:104F00000995811106C00884D985C02DF0CF80E0B5
:104F100001C081E0DF91CF911F910F9108958091A1
:104F2000530481110DC082E080934F0484E080938C
:104F30005004109252041092510481E08093530463
:104F40008FE494E008955058BB27AA270ED075C16E
:104F500066D130F06BD120F031F49F3F11F41EF494
:104F60005BC10EF4E095E7FB51C1E92F77D180F3E7
:104F7000BA17620773078407950718F071F49EF556
:104F80008FC10EF4E0950B2EBA2FA02D0B01B901A5
:104F900090010C01CA01A0011124FF27591B99F0AF
:104FA000593F50F4503E68F11A16F040A22F232FBB
:104FB000342F4427585FF3CF469537952795A7950B
:104FC000F0405395C9F77EF41F16BA0B620B730BB2
:104FD000840BBAF09150A1F0FF0FBB1F661F771F23
:104FE000881FC2F70EC0BA0F621F731F841F48F4D8
:104FF000879577956795B795F7959E3F08F0B3CF5E
:105000009395880F08F09927EE0F97958795089547
:10501000D9D008F481E008950CD00FC107D140F039
:10502000FED030F021F45F3F19F0F0C0511139C1CA
:10503000F3C014D198F39923C9F35523B1F3951B09
:10504000550BBB27AA2762177307840738F09F5FA9
:105050005F4F220F331F441FAA1FA9F333D00E2E18
:105060003AF0E0E830D091505040E695001CCAF785
:1050700029D0FE2F27D0660F771F881FBB1F26174A
:1050800037074807AB07B0E809F0BB0B802DBF011D
:10509000FF2793585F4F2AF09E3F510568F0B6C036
:1050A00000C15F3FECF3983EDCF3869577956795FA
:1050B000B795F7959F5FC9F7880F911D96958795CE
:1050C00097F90895E1E0660F771F881FBB1F6217ED
:1050D00073078407BA0720F0621B730B840BBA0BAB
:1050E000EE1F88F7E095089504D06894B111D9C0F7
:1050F0000895BCD088F09F5790F0B92F9927B751E9
:10510000A0F0D1F0660F771F881F991F1AF0BA958B
:10511000C9F712C0B13081F0C3D0B1E00895C0C06A
:10512000672F782F8827B85F39F0B93FCCF3869581
:1051300077956795B395D9F73EF4909580957095DE
:1051400061957F4F8F4F9F4F0895E89409C097FB5B
:105150003EF490958095709561957F4F8F4F9F4F4E
:105160009923A9F0F92F96E9BB279395F695879592
:1051700077956795B795F111F8CFFAF4BB0F11F455
:1051800060FF1BC06F5F7F4F8F4F9F4F16C08823FC
:1051900011F096E911C0772321F09EE8872F762F32
:1051A00005C0662371F096E8862F70E060E02AF073
:1051B0009A95660F771F881FDAF7880F969587955F
:1051C00097F90895990F0008550FAA0BE0E8FEEF34
:1051D00016161706E807F907C0F012161306E407BB
:1051E000F50798F0621B730B840B950B39F40A26B4
:1051F00061F0232B242B252B21F408950A2609F492
:10520000A140A6958FEF811D811D089597F99F6795
:1052100080E870E060E008959FEF80EC089500243E
:105220000A941616170618060906089500240A940B
:1052300012161306140605060895092E0394000C91
:1052400011F4882352F0BB0F40F4BF2B11F460FF20
:1052500004C06F5F7F4F8F4F9F4F089557FD905849
:10526000440F551F59F05F3F71F04795880F97FB2A
:10527000991F61F09F3F79F08795089512161306E4
:105280001406551FF2CF4695F1DF08C01616170613
:105290001806991FF1CF8695710561050894089548
:1052A000E894BB2766277727CB0197F908958ADF13
:1052B00008F48FEF08950BD0C0CFB1DF28F0B6DF30
:1052C00018F0952309F0A2CFA7CF1124EACFC6DFAB
:1052D000A0F3959FD1F3950F50E0551F629FF00109
:1052E000729FBB27F00DB11D639FAA27F00DB11D62
:1052F000AA1F649F6627B00DA11D661F829F2227EB
:10530000B00DA11D621F739FB00DA11D621F839F71
:10531000A00D611D221F749F3327A00D611D231F47
:10532000849F600D211D822F762F6A2F11249F5795
:1053300050408AF0E1F088234AF0EE0FFF1FBB1FB8
:10534000661F771F881F91505040A9F79E3F510557
:1053500070F05CCFA6CF5F3FECF3983EDCF3869510
:1053600077956795B795F795E7959F5FC1F7FE2B02
:10537000880F911D9695879597F9089523DF880BDF
:10538000990B0895A1E21A2EAA1BBB1BFD010DC0AB
:10539000AA1FBB1FEE1FFF1FA217B307E407F507E5
:1053A00020F0A21BB30BE40BF50B661F771F881FC1
:1053B000991F1A9469F760957095809590959B0157
:1053C000AC01BD01CF010895052E97FB1EF400949A
:1053D0000E94FB2957FD07D00E94C22907FC03D079
:1053E0004EF40C94FB2950954095309521953F4FF4
:1053F0004F4F5F4F089590958095709561957F4FC1
:105400008F4F9F4F0895EE0FFF1F0590F491E02DF1
:105410000994692796276927782787277827089589
:105420000E941B2AA59F900DB49F900DA49F800DF4
:10543000911D11240895A29FB001B39FC001A39FA5
:10544000700D811D1124911DB29F700D811D1124BD
:10545000911D0895CF93DF938230910510F482E07F
:1054600090E0E0915D04F0915E0420E030E0A0E087
:10547000B0E0309739F14081518148175907B8F0B1
:105480004817590771F482819381109729F0139678
:105490009C938E9312972CC090935E0480935D042E
:1054A00027C02115310531F04217530718F0A90123
:1054B000DB0101C0EF019A01BD01DF010280F38130
:1054C000E02DD7CF21153105F9F0281B390B2430F9
:1054D000310580F48A819B816115710521F0FB0102
:1054E0009383828304C090935E0480935D04FE01E5
:1054F000329644C0FE01E20FF31F81939193225034
:105500003109398328833AC020915B0430915C04CF
:10551000232B41F4209102013091030130935C046C
:1055200020935B0420910001309101012115310588
:1055300041F42DB73EB74091040150910501241B61
:10554000350BE0915B04F0915C04E217F307A0F4E3
:105550002E1B3F0B2817390778F0AC014E5F5F4FC9
:105560002417350748F04E0F5F1F50935C0440939B
:105570005B048193919302C0E0E0F0E0CF01DF9102
:10558000CF910895CF93DF93009709F487C0FC0172
:10559000329713821282C0915D04D0915E042097ED
:1055A00081F420813181280F391F80915B04909113
:1055B0005C048217930779F5F0935C04E0935B0435
:1055C0006DC0DE0120E030E0AE17BF0750F4129648
:1055D0004D915C9113979D014115510509F1DA0137
:1055E000F3CFB383A28340815181840F951F8A1723
:1055F0009B0771F48D919C911197840F951F0296D2
:105600009183808312968D919C91139793838283CB
:105610002115310529F4F0935E04E0935D043EC04A
:10562000D9011396FC93EE9312974D915D91A40FBF
:10563000B51FEA17FB0779F480819181840F951FCC
:105640000296D90111969C938E9382819381139631
:105650009C938E931297E0E0F0E08A819B81009703
:1056600019F0FE01EC01F9CFCE01029628813981B3
:10567000820F931F20915B0430915C042817390737
:1056800069F4309729F410925E0410925D0402C010
:1056900013821282D0935C04C0935B04DF91CF919C
:1056A00008958F929F92AF92BF92CF92DF92EF9226
:1056B000FF92CF93DF93EC01688179818A819B818E
:1056C000611571058105910521F464E279ED8BE5A1
:1056D00097E02DE133EF41E050E00E94E4294901D9
:1056E0005A019B01AC01A7EAB1E40E94102A6B01A8
:1056F0007C01ACEEB4EFA50194010E94DB2BC60E39
:10570000D71EE81EF91EF7FE06C081E0C81AD108B0
:10571000E10880E8F80AC882D982EA82FB82C701E0
:10572000B6019F77DF91CF91FF90EF90DF90CF9000
:10573000BF90AF909F908F9008950E94512B089535
:1057400086E091E00E94512B0895609306017093CA
:10575000070180930801909309010895FB01DC0182
:1057600004C08D910190801921F441505040C8F738
:10577000881B990B0895FB01DC0101900D9200201C
:10578000E1F70895F999FECF92BD81BDF89A992766
:1057900080B50895262FF999FECF1FBA92BD81BD1D
:1057A00020BD0FB6F894FA9AF99A0FBE01960895A3
:1057B000B7FF0C94102A0E94102A821B930B0895A5
:0457C000F894FFCF8B
:1057C40000005F048000010000000004C61BC61B2B
:1057D400C61BC61BC61BFFFFFFFF00E10000000045
:1057E400000000C1808100000048656C6C6F2120BE
:1057F4000000000000FD04D004A504AD04C004CFE3
:105804000457495A6E6574000000000015123E12D8
:10581400581263128112A4122613A8127D1289133E
:10582400CA132B1233120B120000000023146C1441
:105834001F148014C614391430154B1460147815D1
:105844006814DF14A91404140B141B1400000000C2
:10585400F71E3E1F211F311F0D1F1E1F00000000D9
:105864000B200D0A006E616E00696E66006F76662D
:04587400002E000002
:00000001FF
