:100000000C94EF000C9417010C9417010C94170139
:100010000C9417010C9417010C9417010C94170100
:100020000C9417010C9417010C94A91D0C943B1C03
:100030000C9417010C9417010C9417010C941701E0
:100040000C9417010C9417010C9417010C941701D0
:100050000C9417010C9417010C9417010C9486153D
:100060000C9417010C9417010C9417010C941701B0
:100070000C9417010C9417010C9417010C941701A0
:100080000C9417010C9417010C9417010C94170190
:100090000C9417010C9417010C9417010C94170180
:1000A0000C9417010C9417010C941701A716AA16AB
:1000B00099169D16A316CB16CB16CB16AE16B216F6
:1000C000B616BC16C016CB16C616000000020009F4
:1000D0000F0000030401000C0000000000000000FD
:1000E0000000000000000000000408020110408031
:1000F000401020408040800802040180402010020F
:10010000011080102040402004040404040304056E
:1001100002020202040302020202060606060606A4
:100120000404020202040400000000250028002B41
:10013000002E00310000000000240027002A002DBE
:10014000003000080B000202020100090400000157
:10015000020200000524001001052401010104240D
:10016000020605240600010705810310004009046A
:100170000100020A00000007050202400000070516
:10018000830240000012010002EF020140412336C9
:100190008000010102030112010002000000404141
:1001A00023368000010102030141726475696E6F9C
:1001B000204C4C430041726475696E6F204C656F32
:1001C0006E6172646F0004030904BE01DB03B209AF
:1001D000890D7A0F850F62116D114118C91811240C
:1001E0001FBECFEFDAE0DEBFCDBF11E0A0E0B1E08F
:1001F000EAE8F2E402C005900D92AC3FB107D9F7EE
:1002000023E0ACEFB1E001C01D92A339B207E1F7E2
:1002100011E0CEEDD1E004C02297FE010E94681FDC
:10022000CA3CD107C9F70E94D9180C9443210C94F9
:1002300000001F93CF93DF93FC01648D758D868D35
:10024000978D24E630E040E050E00E94251F672BA8
:10025000682B692B49F484E690E00E94252161E037
:10026000680F84E690E00BC0C4E6D0E010E0CE0159
:100270000E942521811740F461E0680FCE01DF91D3
:10028000CF911F910C942D212196C83CD10511F0DE
:10029000182FEDCFDF91CF911F910895CF92DF926C
:1002A000EF92FF920F931F93CF93DF93EC01198A84
:1002B000188A80E190E09B8B8A8B83E690E09D8B8F
:1002C0008C8B0E9425218F3FB9F404E610E060E09A
:1002D000C8010E942D210F5F1F4F083C1105B9F77F
:1002E0000C891D89C8010E9425218823E9F060E05E
:1002F000C8010E942D2118C0C12CD12C760104E622
:1003000010E0C8010E942521C80ED11CE11CF11C7F
:100310000F5F1F4F083C1105A1F7CC8EDD8EEE8ECE
:10032000FF8ECE010E941901C888D9887E0100E1A4
:1003300010E0CC1ADD0AC6018E0D9F1D0E942521FA
:10034000F70181937F0101501109A9F705E010E041
:100350008A899B89800F911F0E942521FE01E00F51
:10036000F11F868B0150110999F7DF91CF911F91F1
:100370000F91FF90EF90DF90CF9008950F9300E0E2
:1003800020E040E060E08CEC92E00E94A2188CEA51
:1003900092E00E944E0189E092E00E94920E89E371
:1003A00095E0909317028093160280EC80931802D8
:1003B00088EA8093190281E080931A0285E3809392
:1003C0001B02109280021092810282E892E00E9449
:1003D000EF108DE992E00E94920E80EE9BEA9093DE
:1003E000AB028093AA028CEF91E00F910C94920ED5
:1003F000CF92DF92EF92FF920F931F93CF93DF93F1
:1004000000D000D000D0CDB7DEB77C018B0161E019
:100410008AE00E94CC1661E088E00E94CC1660E081
:1004200088E00E9405176AE070E080E090E00E949A
:10043000FF1561E088E00E94051768EC70E080E03D
:1004400090E00E94FF15B8018FED92E00E947C0CB5
:10045000892B41F46FE171E081E293E00E94111970
:1004600080E046C067E471E081E293E00E940419F5
:100470008E010D5F1F4F6E0187E0C80ED11C6FED1E
:1004800072E0CE0101960E94660DF80161918F0124
:100490004AE050E081E293E00E94E11967E571E0F3
:1004A00081E293E00E9404190C151D0541F781E2D9
:1004B00093E00E940D1943E064E089E190E00E941E
:1004C000711348EE64E08AE190E00E94711343E00A
:1004D00064E08BE190E00E947113F701EF55FF4F4C
:1004E00060817181C70187589F4F0E94BC1081E0D5
:1004F00026960FB6F894DEBF0FBECDBFDF91CF9129
:100500001F910F91FF90EF90DF90CF90089540E8FA
:1005100055E260E070E081E293E00E942C1861E017
:100520008BE00E94CC1660E08BE00E9405176AE029
:1005300070E080E090E00E94FF1561E08BE00E9497
:10054000051781E293E00E9432188823D1F369E510
:1005500071E081E293E00E9404194091C802509139
:10056000C9026091CA027091CB022AE030E081E2B8
:1005700093E00E94E81962EC72E089E092E00C944A
:10058000F801EF92FF920F931F93CF93DF93CDB7B4
:10059000DEB762970FB6F894DEBF0FBECDBF8C01F9
:1005A0008FED92E00E94090D780189E7E80EF11CB9
:1005B000C7010E946B10069709F06DC0F801E8575B
:1005C000FF4F42815381648175814F87588B698BBE
:1005D0007A8B67E671E081E293E00E941119D701FE
:1005E000ED91FC91008CF18DE02D46E050E0BE01D4
:1005F000695F7F4FC70109958F818337F1F58A8540
:100600008237D9F57801B4E9EB0EF11CC7010E94DD
:10061000560F882319F0C7010E94150FF801458570
:1006200056858BEE91E09A8389830F8518892989F5
:100630003A890B831C832D833E83BE016F5F7F4FFE
:10064000C7010E94B20ED701ED91FC910280F381A7
:10065000E02D45E050E062E771E0C701099568E7E9
:1006600071E081E293E00E941119BE01695F7F4F42
:1006700081E293E00E9411190EC062E871E081E20C
:1006800093E00E9411194AE050E066E070E081E2D8
:1006900093E00E94BC1962960FB6F894DEBF0FBEBD
:1006A000CDBFDF91CF911F910F91FF90EF900895F3
:1006B00089E092E00C94C102CF93CFB7F894809177
:1006C000D202811127C0E9E1F1E08491EAEFF0E084
:1006D0009491E82FF0E0EE0FFF1FEB5CFE4FA59129
:1006E000B4918C91892321F461E081E10E94051786
:1006F00061E081E10E94CC168CB580618CBD8CB527
:1007000080648CBD61E08FE00E94CC1661E080E1E6
:100710000E94CC168091D2028F5F8093D202CFBF0D
:10072000CF9108950E9624E1FC0111922A95E9F7E4
:100730000895CF93DF93EC01625F7F4F0E94AE1864
:10074000CE01DF91CF910895CF93DF93EC016E5EE0
:100750007F4F0E94AE18CE01DF91CF910895CF93C5
:10076000DF93EC016A5E7F4F0E94AE18CE01DF91ED
:10077000CF910895CF93DF93EC01625E7F4F0E948B
:10078000AE18CE01DF91CF91089580E3FB01808305
:100790003296842F82958F7090E1899F40191124A1
:1007A0004A3014F4405D01C0495C4293882311F043
:1007B000482FEFCF08950F9300E020E040E060E085
:1007C00083ED92E00E94A2180F9108956F927F929C
:1007D0008F929F92AF92BF92CF92DF92EF92FF9251
:1007E0000F931F93CF93DF93CDB7DEB7AC970FB6C0
:1007F000F894DEBF0FBECDBF7C01862EB42EA52E91
:1008000020E2922ECE0101966C01FC01292D11925D
:100810002A95E9F70FEF2FEF4FEF6FEF86960E94C3
:10082000A2188BEE91E09AA389A389A59AA5ABA5FE
:10083000BCA58BA39CA3ADA3BEA38701095B1F4FDF
:1008400043E450E0BE016F5D7F4FC8010E94EC0F92
:10085000019609F4BFC081E089838A8386E0782EFF
:100860007B821C82F70164817581868197810E9459
:100870006C1F6D837E838F839887A986BA8680E8F4
:1008800090E09C878B874CE150E0B601C8010E9444
:10089000F80FF601292D11922A95E9F7570188E002
:1008A000A80EB11CF501D60101900D927A94E1F7E2
:1008B00040E150E0B601C8010E94F80FF601119224
:1008C0009A94E9F796E0692E712C40E250E0B60167
:1008D000C8010E94F80FF1E06F1A7108B1F783E6C2
:1008E000898392E89A8393E59B838C8385E38D8348
:1008F00081E08E838F829DE3988797E099878A872E
:1009000086E0F501DE011B9601900D928A95E1F7D4
:100910008CE0898B8A8B6CE871E0CE0143960E9453
:100920001E21F7014385BE01675E7F4FC7010E940C
:10093000C503F7014485BE01655E7F4FC7010E9474
:10094000C503F7014585BE01635E7F4FC7010E9465
:10095000C5034EE150E0B601C8010E94F80FF3E074
:100960008F121EC082E3898384E08A83F701968513
:100970009B8397859C8390899D8391899E8396E331
:100980009F838887828D8987838D8A87848D8B87D3
:10099000858D8C874CE050E0B601C8010E94F80FAD
:1009A00087E3898386E08A8391E09B8393E09C833D
:1009B0008D838FE08E838AE38F838BE388878FEF2D
:1009C000898749E050E0B601C8010E94F80FC801CC
:1009D0000E94F40FAC960FB6F894DEBF0FBECDBFE9
:1009E000DF91CF911F910F91FF90EF90DF90CF900B
:1009F000BF90AF909F908F907F906F9008952F92AF
:100A00003F924F925F926F927F928F929F92AF929E
:100A1000BF92CF92DF92EF92FF920F931F93CF93EB
:100A2000DF93CDB7DEB7E3970FB6F894DEBF0FBE06
:100A3000CDBF7C012A013B0169010E94D0154B0109
:100A40005C018701095B1F4FC8010E946B101816DB
:100A5000190694F00E94D015681979098A099B0932
:100A60004616570668067906F0F062E370E080E00B
:100A700090E00E94FF15E8CF42E250E0BE016F5FB8
:100A80007F4FC8010E9435108981823031F4F8010E
:100A9000858996898334910541F019A6C8010E9481
:100AA000C50F89A566C18FEF64C16D817E818F817D
:100AB00098850E946C1F4B015C01F6016083718375
:100AC0008283938346E050E0B701685F7F4FCE0199
:100AD0004D960E941121892B99F4F7018081918113
:100AE000A281B38188169906AA06BB0648F08481C4
:100AF0009581A681B78188159905AA05BB0528F4BB
:100B0000C8010E94C50F80E034C189899A89AB89E8
:100B1000BC89F70186879787A08BB18B3EECC32EEB
:100B2000D12CC8010E940C10F1E0CF1AD108C9F7EE
:100B300019A6C70182969BA78AA7F701B696FDA7BB
:100B4000ECA708969FA78EA73C976F018E9699AB4E
:100B500088AB3897FBABEAAB5701F6E1AF0EB11C9F
:100B600047018EE1880E911CC8010E94AB0F181638
:100B700019060CF093CFC8010E940C108333910525
:100B800009F4CDC0F4F481309105B9F11CF4892B3E
:100B900059F3DFC083309105C1F1069709F0D9C040
:100BA000C8010E940C103C0144E050E0B401C801AF
:100BB0000E943510212C312C7724F4E06F1A710833
:100BC0003FC08A33910509F47EC03CF4853391051A
:100BD00061F0C69709F43FC0BCC08B33910509F49E
:100BE00088C08F3F910501F2B4C0C8010E940C106B
:100BF000C8010E940C1089A7B7CFC8010E940C1031
:100C000044E050E06AA97BA93AC0C8010E940C10D8
:100C10003C0144E050E0B501C8010E943510212C90
:100C2000312C772494E0691A7108261437040CF0EB
:100C30009BCFC8010E940C10EFEF2E1A3E0AF5CF91
:100C4000261437040CF090CFC8010E940C108FEFCF
:100C5000281A380AF5CFC8010E940C10782EF70127
:100C6000828D811110C0838D81110DC0848D811101
:100C70000AC0858D811107C044E050E0B601C8016B
:100C80000E94351071CFE8A9F9A9208031804280F7
:100C90005380B601CE0183960E94AE188DA19EA10D
:100CA000AFA1B8A582159305A405B50529F3212C9C
:100CB000312C721409F458CFC8010E940C10FFEFB8
:100CC0002F1A3F0AF6CFC8010E940C1044E050E0F2
:100CD0006CA57DA5C8010E943510F70166A177A11A
:100CE00080A591A50E946C1F66A377A380A791A7FA
:100CF0003BCFC8010E940C1044E050E06EA57FA5D8
:100D0000C8010E943510F70162A573A584A595A5B9
:100D10000E946C1F62A773A784A795A725CFC8015F
:100D20000E940C1044E050E06AA57BA5C8010E9417
:100D30003510F70162A173A184A195A10E946C1FD7
:100D400062A373A384A395A366A777A780AB91AB97
:100D50000BCFC8010E940C10382E612C712C361458
:100D600009F402CFC8010E940C10FFEF6F1A7F0A2E
:100D7000F6CFE3960FB6F894DEBF0FBECDBFDF917E
:100D8000CF911F910F91FF90EF90DF90CF90BF9088
:100D9000AF909F908F907F906F905F904F903F901B
:100DA0002F9008952F923F924F925F926F927F9271
:100DB0008F929F92AF92BF92CF92DF92EF92FF926B
:100DC0000F931F93CF93DF93CDB7DEB727970FB65F
:100DD000F894DEBF0FBECDBF8C0120ED37E040E0C0
:100DE00050E061E070E080E090E00E946D1ED8016C
:100DF00014966D937D938D939C931797F801608360
:100E00007183828393834801F7E48F0E911CC401A0
:100E10000E94D70F64E470E0C4010E94BC108823D4
:100E200009F428C10E94D0156B017C01A12CB12CC2
:100E30001D82180186E4280E311CD801DE96BF837E
:100E4000AE8338EE432E33E0532E612C712CF1012A
:100E50008081833009F4FDC081111FC0F8018481B5
:100E60009581A681B7810196A11DB11D84839583CB
:100E7000A683B7830E94D0156C197D098E099F093E
:100E8000A30192010E94251FA90161E0C8010E94EF
:100E9000E60381E0D1018C93BEC08430F9F4F801FF
:100EA00084819581A681B7810196A11DB11D84839E
:100EB0009583A683B7830E94D0156C197D098E098E
:100EC0009F09A30192010E94251FA90163E0C801A7
:100ED0000E94E603E2E0D101EC939DC0813061F510
:100EE000AE81BF814D915D916D917C919E012F5F8F
:100EF0003F4FC8010E94FF048D83823009F08BC0F0
:100F000089819A81AB81BC81F80184839583A68312
:100F1000B7830E94D0156C197D098E099F09A30122
:100F200092010E94251FA90163E0C8010E94E60307
:100F3000ED81D101EC9375C0823009F06CC0AE81B7
:100F4000BF814D915D916D917C919E012F5F3F4FCF
:100F5000C8010E94FF048D83853009F056C083E0EC
:100F6000F1018083F80182A193A1A4A1B5A1892BED
:100F70008A2B8B2B41F484E893E0A0E0B0E082A3BD
:100F800093A3A4A3B5A3F80186A197A1A0A5B1A599
:100F9000892B8A2B8B2B61F482A193A1A4A1B5A1EB
:100FA000B695A7959795879586A397A3A0A7B1A770
:100FB000D8019A964D915D916D917C919D979696F1
:100FC0008D919D910D90BC91A02D452B462B472BCB
:100FD00059F4AC01BD01440F551F661F771FF8017E
:100FE00042A753A764A775A7F80186A797A7A0AB48
:100FF000B1AB82A593A5A4A5B5A582AB93ABA4ABD9
:10100000B5ABAA24A394B12C0CC0FD81F63019F421
:10101000D1011C9206C0BD81BF3F19F4F1011082BD
:101020001D82F1E0AF16B10409F411CF0E94D01572
:101030006C197D098E099F09D801DA962D913D9191
:101040004D915C91DD97261737074807590708F03F
:10105000FECEC4010E94D70FF80184819581A6813C
:10106000B7810196A11DB11D84839583A683B783A3
:10107000C50102C080E090E027960FB6F894DEBF6D
:101080000FBECDBFDF91CF911F910F91FF90EF90D9
:10109000DF90CF90BF90AF909F908F907F906F9098
:1010A0005F904F903F902F900895CF92DF92EF92F4
:1010B000FF920F931F93CF93DF93EC016B011AA262
:1010C0001BA21CA21DA21EA21FA218A619A61AA628
:1010D0001BA61CA61DA61EAA1FAA18AE19AE2AAFD3
:1010E0003BAF4CAF5DAFFC01FE96E082F182028324
:1010F00013838C01085F1F4F86E0F80111928A95D7
:10110000E9F7CE010E94920386E0F601D801019032
:101110000D928A95E1F7FE01EA5BFF4F1082CE0146
:10112000DF91CF911F910F91FF90EF90DF90CF90C3
:101130000C94D2068F929F92AF92BF92CF92DF9281
:10114000EF92FF920F931F93CF93DF93EC010E94D6
:10115000D0156B017C018EA99FA9A8ADB9AD8E01F8
:101160000E5B1F4F892B8A2B8B2B09F48FC0F80144
:1011700080819181A281B381A7019601281B390B3F
:101180004A0B5B0BCA01B90157FD4EC0460157011E
:1011900038EE830E33E0931EA11CB11C28EE33E021
:1011A00040E050E00E94471F861A970AA80AB90A31
:1011B000F80180829182A282B382DA01C90101968C
:1011C000A11DB11D4EA55FA568A979A98C019D013E
:1011D000000F111F221F331F4017510762077307AB
:1011E0002CF41EA61FA618AA19AA08C0481B590B42
:1011F0006A0B7B0B4EA75FA768AB79AB4AA95BA9CB
:101200006CA97DA940175107620773072CF41AAA2D
:101210001BAA1CAA1DAA08C0481B590B6A0B7B0BF2
:101220004AAB5BAB6CAB7DAB8E010A5B1F4FF80129
:101230008081833081F48EA59FA5A8A9B9A918162D
:1012400019061A061B063CF084E08083CE010E943A
:10125000D206019602C080E090E0F80120812330A0
:1012600011F0211120C04AA95BA96CA97DA914160F
:10127000150616061706BCF0F8011082CE010E9472
:101280009203CE010E94D20603960DC0D701C6017B
:1012900088519C4FAF4FBF4FF80180839183A28349
:1012A000B38380E090E0CEAADFAAE8AEF9AEDF918A
:1012B000CF911F910F91FF90EF90DF90CF90BF9053
:1012C000AF909F908F900895FB014281538164817C
:1012D0007581FC0142835383648375831782168270
:1012E0000895CF93FB0181918111FDCFFB0180E037
:1012F00090E020E030E0CAE06191662309F12430FB
:10130000310564F56E3271F48F3F910509F034F5C3
:10131000DA01A20FB31F12968C932F5F3F4F80E02C
:1013200090E0EACFDC01CA9FC001CB9F900D112451
:10133000772767FD709560537109860F971FDCCF83
:101340008F3F910509F054F4243031053CF4FA0143
:10135000E20FF31F828381E090E002C080E090E022
:10136000CF9108950F9300E020E040E060E089ED28
:1013700092E00E94A2180F910895AF92BF92CF926F
:10138000DF92EF92FF920F931F93CF93DF9300D0E2
:101390001F92CDB7DEB76C017B010E94D015F6011C
:1013A000778366838601085F1F4FB6016A5F7F4FB0
:1013B00042E050E0C8010E94F80F81E090E09A837B
:1013C000898342E050E0BE016F5F7F4FC8010E94F9
:1013D000F80F80E091E09A83898342E050E0BE01FB
:1013E0006F5F7F4FC8010E94F80F1A82198242E096
:1013F00050E0BE016F5F7F4FC8010E94F80F42E0CE
:1014000050E0BE016F5F7F4FC8010E94F80F42E0BD
:1014100050E0BE016F5F7F4FC8010E94F80F670167
:10142000F6018081882311F1F7016F01819181110B
:1014300015C05601AE18BF081A141B0494F4AB82F1
:1014400041E050E0BE016D5F7F4FC8010E94F80F80
:10145000A501B701C8010E94F80F03C08E3229F719
:10146000E8CF7601FFEFEF1AFF0ADACF1B8241E0E7
:1014700050E0BE016D5F7F4FC8010E94F80FE12C64
:10148000FF24F394FA82E98242E050E0BE016F5FEC
:101490007F4FC8010E94F80FFA82E98242E050E0D3
:1014A000BE016F5F7F4FC8010E94F80F81E090E09E
:1014B0000F900F900F90DF91CF911F910F91FF90A0
:1014C000EF90DF90CF90BF90AF9008954F925F92D2
:1014D0006F927F928F929F92AF92BF92CF92DF9244
:1014E000EF92FF920F931F93CF93DF93CDB7DEB7A9
:1014F00063970FB6F894DEBF0FBECDBF7C015B01D2
:101500006A010E94D0152B013C018701085F1F4F23
:101510004501A12CB12CC8010E946B1018161906A8
:1015200094F00E94D01564197509860997098616EA
:101530009706A806B906D0F062E370E080E090E07C
:101540000E94FF15E8CFF7014281538164817581C4
:10155000818D928DA38DB48D481759076A077B073B
:1015600041F4858D968DC59721F406C08FEF9FEFCE
:10157000F9C08EEF9FEFF6C0C8010E94AB0F0C9729
:101580000CF4EEC04CE050E0BE016F5F7F4FC8012D
:101590000E9435108B819C819827892798279A8BE8
:1015A000898BF7014681578129813A814217530778
:1015B00011F497FD06C0C8010E94C50F8CEF9FEF84
:1015C000D1C08F709270892B31F0C8010E94C50F75
:1015D0008BEF9FEFC7C0AF80B884BA24AB24BA2486
:1015E000A114B10419F0E12CF12C23C0C8010E9410
:1015F000C50F8AEF9FEFB6C041E050E0BE01635FC8
:101600007F4FC8010E9435108D8581111BC08D85CB
:101610008111F2CFC8010E940C10C8010E940C1069
:10162000C8010E940C10C8010E940C10FFEFEF1AB5
:10163000FF0A8D819E81982789279827E816F90649
:10164000D8F20AC08D859FEF980F9D878823F9F205
:10165000C8010E940C10F6CFE12CF12C41E050E0C3
:10166000BE016D5E7F4FC8010E9435108B89982F97
:10167000907C61F4882371F08B899FEF980F9B8B8E
:10168000882341F0C8010E940C10F6CFC8010E94C7
:101690000C101B8A8B898111E1CF42E050E0BE0122
:1016A000615F7F4FC8010E94351042E050E0BE01EB
:1016B000635F7F4FC8010E943510C8010E940C1063
:1016C000C8010E940C10C8010E940C10C8010E94A1
:1016D0000C1042E050E0BE016F5E7F4FC8010E94D7
:1016E00035108F8598898115914029F48D859E85C7
:1016F0008115914019F0812C912C16C089899A8905
:101700008115944031F0C8010E94C50F87EF9FEF0B
:1017100029C0B6016E5F7F4F44E050E0C8010E94CF
:10172000351081E090E01EC089899A899827892721
:1017300098278816990638F4C8010E940C102FEFDC
:10174000821A920AF1CF8FEFE81AF80AEA14FB0422
:1017500009F084CFC8010E94C50F86EF9FEF02C039
:101760008DEF9FEF63960FB6F894DEBF0FBECDBF2F
:10177000DF91CF911F910F91FF90EF90DF90CF906D
:10178000BF90AF909F908F907F906F905F904F90A1
:1017900008958F929F92AF92BF92CF92DF92EF9275
:1017A000FF920F931F93CF93DF9300D000D000D010
:1017B000CDB7DEB78C015B016A010E9471094C0153
:1017C000009709F05DC0F801428153816481758101
:1017D0008091DB029091DC02A091DD02B091DE02EB
:1017E000481759076A077B0709F44EC00E94D015B5
:1017F0007801F8E0EF0EF11C6F7077277C5FC7016E
:101800000E94BC10813009F043C08BEE91E09A83B6
:101810008983F80182819381A481B5818B839C8324
:10182000AD83BE8345E350E0BE016F5F7F4FC701CC
:101830000E94EC0F892B19F4812C912C1DC0B5014D
:10184000C8010E94BD09892BB9F3C7010E94F40F9A
:10185000892B91F333E0A32EB12CA60168E873E144
:10186000C8010E94660A4C01F1E0AF1AB10821F0EC
:101870008F3F2FEF920789F3C7010E94D70F08C04F
:1018800088248394912C04C09EEF892E99249A94E5
:10189000C40126960FB6F894DEBF0FBECDBFDF9110
:1018A000CF911F910F91FF90EF90DF90CF90BF905D
:1018B000AF909F908F90089524E030E0AC0164E0F9
:1018C00081E090E00C94BA1324E030E0AC0164E0D5
:1018D00085E090E00C94BA1326E030E0AC0164E0BF
:1018E00089E090E00C94BA1324E030E0AC0164E0AD
:1018F0008FE090E00C94BA13AF92BF92CF92DF9238
:10190000EF92FF920F931F93CF93DF9300D000D0FD
:1019100000D0CDB7DEB76C015B0182E690E00E949B
:10192000EC188C0182E6F80111928A95E9F7C8015A
:10193000895B9F4F0E94EF10F6011783068387E1B2
:1019400093E00E949713C5010E946C0C00E020E018
:1019500040E060E0CE0101960E94A218CE010396FD
:101960000E94740C18E8E12E13E1F12E00E010E063
:1019700020E63AEE40E050E0B501F601868197811D
:101980000E9455088C018130910589F5F601668128
:101990007781CE0101960E949903CE0103960E94A1
:1019A000740CF60166817781CE0101960E94AF0327
:1019B000CE0103960E945C0CF60166817781CE0110
:1019C00001960E94A403CE0103960E94640CF601C6
:1019D00066817781CE0101960E94BA034B815C81BA
:1019E0006D817E81F6014283538364837583C801D0
:1019F00026960FB6F894DEBF0FBECDBFDF91CF9114
:101A00001F910F91FF90EF90DF90CF90BF90AF901C
:101A10000895EF92FF920F931F93CF93DF9300D01F
:101A200000D000D0CDB7DEB78C01FC018681978154
:101A30000097E1F10E949A087C018230910521F023
:101A400084E0E816F104A1F5F80166817781CE0102
:101A500001960E949903CE0103960E94740CF8012E
:101A600066817781CE0101960E94AF03CE01039675
:101A70000E945C0CF80166817781CE0101960E947C
:101A8000A403CE0103960E94640CF801668177815D
:101A9000CE0101960E94BA034B815C816D817E81EB
:101AA000F801428353836483758302C0E12CF12CD7
:101AB000C70126960FB6F894DEBF0FBECDBFDF91EB
:101AC000CF911F910F91FF90EF900895CF93DF93E7
:101AD000EC010E949818AE014E5F5F4F24E030E0A9
:101AE00060E08FE090E00E94CD14CE01DF91CF91B5
:101AF00008952BEE31E0FC0131832083FB0142810C
:101B0000538164817581FC014283538364837583AF
:101B100008950F9300E020E040E060E087EF92E05E
:101B20000E94A2188FED92E00F910C949818DC019E
:101B3000ED91FC91008CF18DE02D099591E08927C4
:101B40000895CF93DF931F92CDB7DEB76983DC0191
:101B5000ED91FC910280F381E02D41E050E0BE0167
:101B60006F5F7F4F09950F90DF91CF91089521E02E
:101B7000FC018485883009F420E0822F0895FC015F
:101B80009485FB018485981303C081E0983009F4A3
:101B900080E008950F931F93CF93DF93EC018A01A8
:101BA0008C85883021F00E944C12892B39F481E019
:101BB00090E09B838A8380E090E001C0C801DF91C0
:101BC000CF911F910F910895FC016485683021F039
:101BD00087E193E00C94681480E090E00895CF933F
:101BE000DF931F92CDB7DEB741E050E0BE016F5FDB
:101BF0007F4FFC0184850E949E12181619061CF462
:101C0000898190E002C08FEF9FEF0F90DF91CF911D
:101C10000895FC0184850C949E120F931F93CF931B
:101C2000DF931F92CDB7DEB78C01DC01ED91FC9103
:101C30000480F581E02D0995892B51F0BE016F5F7D
:101C40007F4FF80184850E94E212898190E002C0F2
:101C50008FEF9FEF0F90DF91CF911F910F9108951C
:101C6000FC0184850C94F012CF92DF92EF92FF92E8
:101C70000F931F93CF93DF93CDB7DEB7AF970FB618
:101C8000F894DEBF0FBECDBF7C018B016A01CE018F
:101C900001960E949818CE0109960E94EF10CE017D
:101CA0008A960E9498186FED72E0CE0184960E9489
:101CB000790DBE016C5D7F4FCE0101960E946409D3
:101CC000AE01465D5F4FB801CE0101960E94C90B7F
:101CD00081309105C1F4D701ED91FC910484F58523
:101CE000E02D8BEE91E09DA38CA30CA51DA52EA548
:101CF0003FA50EA31FA328A739A7A601BE016C5DAF
:101D00007F4FC7010995AF960FB6F894DEBF0FBE9F
:101D1000CDBFDF91CF911F910F91FF90EF90DF909A
:101D2000CF900895FC011382128248EE53E060E0E8
:101D300070E0448355836683778387E991E09183DC
:101D4000808388E084870895FC016485683041F0D1
:101D50006295660F607E685F83E090E00C94F813F4
:101D600080E00895DF92EF92FF920F931F93CF933D
:101D7000DF93EC017B018A018C85883009F04BC030
:101D8000D12C6D2D6295660F607E685F83E090E0D8
:101D90000E94F813811102C0DC8607C08B7F883156
:101DA000D9F3D39488E0D812ECCF8C85883099F1A0
:101DB00020910A0130910B012F5F3F4F11F420E079
:101DC00034E030930B0120930A0140910A015091B5
:101DD0000B0120E061E00E94CF11B7016E5F7F4FE1
:101DE000A8018C850E940F12811103C088E08C87A6
:101DF00012C0CE010E94A40E873151F061E070E064
:101E000080E090E00E94FF15CE010E94A40EECCF6E
:101E100081E090E002C080E090E0DF91CF911F91DF
:101E20000F91FF90EF90DF900895CF92DF92EF92A5
:101E3000FF92CF93DF93EC018C85883081F10E9473
:101E400045120E94D0156B017C01CE010E94A40EA8
:101E5000882359F00E94D0156C197D098E099F09BD
:101E6000683E73408105910598F0CE010E94A40E52
:101E7000882319F08C850E94C111EC85F0E0EE0FEB
:101E8000FF1FE951FD4F1182108288E08C8707C047
:101E900061E070E080E090E00E94FF15D6CFDF9116
:101EA000CF91FF90EF90DF90CF900895CF93DF9385
:101EB000EC018C858830D1F0CE010E94A40E8431D3
:101EC000A9F0882399F0883189F08C3169F4E88190
:101ED000F9810480F581E02DCE01099521E0892B5F
:101EE00009F420E0822F03C081E001C080E0DF918F
:101EF000CF9108950F9300E020E040E060E08DEF87
:101F000092E00E94A2180F9108950F9300E020E044
:101F100040E060E083E093E00E94A2180F910895F2
:101F2000DC01ED91FC91008CF18DE02D09942BEEFC
:101F300031E0FC0131832083FB01418952896389AF
:101F40007489FC0142835383648375830895FC0183
:101F5000858996890895FC01818D928D0895CF938E
:101F6000DF931F92CDB7DEB76983DC01ED91FC9161
:101F70000280F381E02D41E050E0BE016F5F7F4FB2
:101F800009950F90DF91CF910895CF93DF93EC01E6
:101F9000898D9A8D892B41F0E881F9810680F7813E
:101FA000E02DCE010995F4CFDF91CF910895CF9325
:101FB000DF93EC018C85883061F00E94C111EC85C3
:101FC000F0E0EE0FFF1FE951FD4F1182108288E013
:101FD0008C87DF91CF910895FC01108E178A6E5F78
:101FE0007F4F84850C941F13FC0184850C9444134B
:101FF000CF93DF93EC019A018F89988DAB01BC01DF
:102000008C850E94F1122F89388D280F391F388F47
:102010002F8BDF91CF9108950F931F93CF93DF9371
:102020001F92CDB7DEB78C01FC01818D928D892B7B
:1020300059F041E050E0BE016F5F7F4F84850E9400
:102040009E12181619061CF08FEF9FEF08C0F801BA
:10205000818D928D0197928F818F898190E00F9071
:10206000DF91CF911F910F910895CF93DF93EC01F2
:10207000898D9A8D009719F48FEF9FEF10C0481744
:10208000590708F0AC018C850E949E12181619069B
:102090009CF7298D3A8D281B390B3A8F298FDF91B8
:1020A000CF910895CF93DF931F92CDB7DEB7FC0198
:1020B000218D328D232B49F0BE016F5F7F4F8485C8
:1020C0000E94E212898190E002C08FEF9FEF0F9093
:1020D000DF91CF9108950F931F93CF93DF93CDB7E7
:1020E000DEB728970FB6F894DEBF0FBECDBF8C01C8
:1020F000DC01ED91FC910284F385E02D0995F80156
:10210000648587E193E00E946814892B41F148E0DF
:1021100050E0BE016F5F7F4FD8011C968C910E94EA
:102120009E1218161906ECF4BE016F5F7F4FC801AE
:102130000F960E94BE188D8190E0982F88272E81DF
:10214000820F911DF801968B858B8F8190E0982FDF
:1021500088272885820F911D928F818F02C080E091
:1021600090E028960FB6F894DEBF0FBECDBFDF918A
:10217000CF911F910F910895FF920F931F93CF93CB
:10218000DF93EC018B018C85883011F5F12C6F2DDC
:102190006295660F607E685F83E090E00E94F813AE
:1021A000811102C0FC8606C08831E1F3F39488E017
:1021B000F812EDCF8C85883059F01E870D871A8E66
:1021C000198E20E0A80162E00E94CF1181E001C0D9
:1021D00080E0DF91CF911F910F91FF900895FC0156
:1021E0001382128248EE53E060E070E0448355832E
:1021F0006683778387EB91E09183808388E084878F
:10220000CF010F960C949818CF92DF92EF92FF9225
:102210000F931F93CF93DF93CDB7DEB7AF970FB672
:10222000F894DEBF0FBECDBF7C018B016A01CE01E9
:1022300001960E949818CE0109960E94EF10CE01D7
:102240008A960E9498186FED72E0CE0184960E94E3
:10225000790DBE016C5D7F4FCE0101960E9464092D
:10226000AE01465D5F4FB801CE0101960E94C90BD9
:1022700081309105C1F4D701ED91FC910088F1897D
:10228000E02D8BEE91E09DA38CA30CA51DA52EA5A2
:102290003FA50EA31FA328A739A7A601BE016C5D09
:1022A0007F4FC7010995AF960FB6F894DEBF0FBEFA
:1022B000CDBFDF91CF911F910F91FF90EF90DF90F5
:1022C000CF9008950F9300E020E040E060E089E0C7
:1022D00093E00E94A2180F9108950F9300E020E070
:1022E00040E060E08FE093E00E94A2180F91089513
:1022F000AB01682F6295660F607E645F24E030E07A
:102300008CE090E00C94BA139B01682F6295660FE5
:10231000607E685FC9010C94F81362E070E00C9471
:1023200084119B01682F6295660F607E645FC9010E
:102330000C947113CF93DF93C82FD62F472F64E0EF
:1023400070E00E9491114D2F65E070E08C2FDF91BD
:10235000CF910C949111462F62E070E00C94911192
:10236000CF93DF93C82FD62F472F60E170E00E94F4
:1023700091114D2F61E170E08C2FDF91CF910C9482
:102380009111CF93C82F40E150E0682F87E193E08F
:102390000E9476156FEF8C2FCF910C94AB11EF92BA
:1023A000FF921F93CF93DF9300D0CDB7DEB7182FE6
:1023B0007A018FEF860F853048F5812F2A83698354
:1023C0000E94C1112A816981462F422B60E070E092
:1023D000812F0E949111E114F10411F0B7010AC09C
:1023E00060911503709116036F5F7F4F7093160312
:1023F00060931503812F0E949A1141E050E0612FF4
:1024000087E193E00E94761581E001C080E00F90A3
:102410000F90DF91CF911F91FF90EF9008951F9340
:10242000CF93DF93182FFB01EA0180818F3F51F496
:1024300081818F3F91F482818F3F79F483818F3F37
:1024400061F41EC0811109C08181811106C08281A1
:10245000811103C08381882399F0209789F0BF01FF
:10246000812F0E947811BE01812F0E94B01144E09B
:1024700050E0612F87E193E00E94761581E001C072
:1024800080E0DF91CF911F91089548E050E0682FE0
:1024900087E193E00C947615DF92EF92FF920F9311
:1024A0001F93CF93DF93D82E8B01EA01413088E050
:1024B000580710F0C0E0D8E06D2D87E193E00E944E
:1024C00033147C0163E070E08D2D0E94841187310C
:1024D00011F08C3121F4EC16FD0670F302C0C0E05F
:1024E000D0E09E01A8016D2D87E193E00E94C21407
:1024F00040E250E06D2D87E193E00E9476158D2D2E
:102500000E948D1184FD0DC063E070E08D2D0E944E
:1025100084118111F4CF8D2D0E94C11180E090E0D3
:1025200005C060E18D2D0E94AB11CE01DF91CF91EE
:102530001F910F91FF90EF90DF900895DF92EF923F
:10254000FF920F931F93CF93DF93D82E7B018A01C5
:10255000682F87E193E00E946814EC01009799F4DA
:1025600063E070E08D2D0E948411843111F1882385
:1025700001F1C1E0D0E08C3111F4C0E0D0E0D195A0
:10258000C195D10916C0081719070CF4E8011C16EB
:102590001D067CF400E09E01A7016D2D87E193E00C
:1025A0000E94251540E450E06D2D87E193E00E94E4
:1025B0007615CE01DF91CF911F910F91FF90EF9093
:1025C000DF9008950F93AB0101E021E030E0682F28
:1025D00087E193E00E94251581E090E00F91089536
:1025E0000895BF92CF92DF92EF92FF920F931F93C5
:1025F000CF93DF93B82E7B016A01E901682F87E151
:1026000093E00E9433148C179D0730F46B2D87E103
:1026100093E00E943314EC018E019601A7016B2D0B
:1026200087E193E00E948414CE01DF91CF911F9146
:102630000F91FF90EF90DF90CF90BF9008951F9380
:10264000CF93DF93182FFB01EA018081811109C02C
:102650008181811106C08281811103C08381882319
:1026600069F0209759F0BF01812F0E947811BE01B7
:10267000812F0E94B01181E090E002C080E090E0E4
:10268000DF91CF911F910895CF93C82F40E250E082
:10269000682F87E193E00E9476158C2F0E948D11A0
:1026A00084FD0CC08C2F0E948D1183FFF6CF68E152
:1026B0008C2F0E94AB1180E090E006C060E18C2F6F
:1026C0000E94AB1181E090E0CF9108958EBD000093
:1026D0000DB407FEFDCF8EB508952E9808952E9A5D
:1026E00008951F93CF93DF9300D01F92CDB7DEB72D
:1026F000182F4B836A8399830E946D139981892FC8
:102700000E946613812F0E9466136A81862F0E94A1
:1027100066134B81842F0E9466130E946F1381E021
:102720000F900F900F90DF91CF911F910895CF934D
:10273000DF9368EE73E080E090E00E94FF15269A38
:102740000E945C03C0E0DC2FD295DD0FD07ED45F09
:1027500042E06D2F8EE190E00E94711342E06D2FF8
:102760008FE190E00E947113CF5FC83061F7DF9175
:10277000CF910895CF92DF92EF92FF920F931F9324
:10278000CF93DF9300D000D0CDB7DEB7F82E89010C
:102790004B835C836A8399830E946D1389810E94B5
:1027A00066138F2D0E9466136A81862F0E9466131E
:1027B0004B81C42E5C81D52E7601E00EF11ECE1425
:1027C000DF0431F0F60181916F010E946613F7CFAB
:1027D0000E946F13C8010F900F900F900F90DF9120
:1027E000CF911F910F91FF90EF90DF90CF900895C0
:1027F0001F93CF93DF9300D0CDB7DEB7182F6A8336
:1028000099830E946D1389810E946613812F0E9413
:1028100066136A81862F0E94661380E00E94661309
:1028200089830E946F1389810F900F90DF91CF9160
:102830001F9108951F93CF93DF93182F60E270E0EC
:102840000E948411C82FD0E0DC2FCC2761E270E019
:10285000812F0E9484119E01280F311DC901DF9133
:10286000CF911F910895FF920F931F93CF93DF9302
:10287000F62EC0E0D0E08F2D0E941A148C01009734
:1028800021F08F2D0E941A14EC01C017D10799F77F
:10289000CE01DF91CF911F910F91FF9008951F936B
:1028A000CF93DF93182F66E270E00E948411C82F47
:1028B000D0E0DC2FCC2767E270E0812F0E948411EA
:1028C0009E01280F311DC901DF91CF911F910895FD
:1028D000FF920F931F93CF93DF93F62EC0E0D0E0CB
:1028E0008F2D0E944F148C01009721F08F2D0E9494
:1028F0004F14EC01C017D10799F7CE01DF91CF91AA
:102900001F910F91FF900895CF92DF92EF92FF9267
:102910000F931F93CF93DF93D62EEA01790164E2E0
:1029200070E08D2D0E948411C82E65E270E08D2D1F
:102930000E948411C80FD11D2C2D30E0322F222788
:10294000C20FD31F6D2D6295660F607E6C5E98017D
:10295000A701CE010E94BA13C00FD11F4D2F64E210
:1029600070E08D2D0E9491114C2F65E270E08D2D4D
:10297000DF91CF911F910F91FF90EF90DF90CF905B
:102980000C9491110F931F9389019A0140E050E03C
:102990000E9484141F910F910895CF92DF92EF92BD
:1029A000FF920F931F93CF93DF9300D000D0CDB74A
:1029B000DEB7F82E89014B835C836A8399830E947A
:1029C0006D1389810E9466138F2D0E9466136A81A0
:1029D000862F0E9466134B81C42E5C81D52E760112
:1029E000E00EF11ECE14DF0439F080E00E94661381
:1029F000F60181936F01F6CF0E946F13C8010F900B
:102A00000F900F900F90DF91CF911F910F91FF903A
:102A1000EF90DF90CF9008950F931F93CF93DF93A4
:102A200000D0CDB7DEB75A834983A90198018981C7
:102A30009A816295660F607E685E0F900F90DF91BD
:102A4000CF911F910F910C94CD148F929F92AF92C2
:102A5000BF92CF92DF92EF92FF920F931F93CF938B
:102A6000DF936C01962E5A017901802E68E270E0A6
:102A7000892D0E948411C82F69E270E0892D0E947F
:102A80008411D0E0DC2FCC27C80FD11D8701950120
:102A9000AE01692DC6010E940C1581101AC0CE0D21
:102AA000DF1D4D2F68E270E0892D0E9491114C2F9F
:102AB00069E270E0892DDF91CF911F910F91FF9016
:102AC000EF90DF90CF90BF90AF909F908F900C943D
:102AD0009111DF91CF911F910F91FF90EF90DF90B7
:102AE000CF90BF90AF909F908F900895CF93C62FB7
:102AF00061E070E08C2F0E94911161E070E08C2FFA
:102B00000E9484118111F9CFCF9108951F920F92E5
:102B10000FB60F9211242F933F938F939F93AF93F0
:102B2000BF938091190390911A03A0911B03B09158
:102B30001C033091180323E0230F2D3720F4019656
:102B4000A11DB11D05C026E8230F0296A11DB11DD0
:102B5000209318038093190390931A03A0931B03E7
:102B6000B0931C0380911D0390911E03A0911F033D
:102B7000B09120030196A11DB11D80931D03909378
:102B80001E03A0931F03B0932003BF91AF919F91A9
:102B90008F913F912F910F900FBE0F901F9018951E
:102BA0002FB7F8946091190370911A0380911B0359
:102BB00090911C032FBF08953FB7F89480911D0397
:102BC00090911E03A0911F03B091200326B5A89BEE
:102BD00005C02F3F19F00196A11DB11D3FBF66270B
:102BE000782F892F9A2F620F711D811D911D42E050
:102BF000660F771F881F991F4A95D1F708958F9206
:102C00009F92AF92BF92CF92DF92EF92FF926B01B1
:102C10007C010E94DC154B015C01C114D104E1046C
:102C2000F104F1F00E94891E0E94DC1568197909EF
:102C30008A099B09683E73408105910570F321E084
:102C4000C21AD108E108F10888EE880E83E0981EC8
:102C5000A11CB11CC114D104E104F10429F7DDCF9A
:102C6000FF90EF90DF90CF90BF90AF909F908F90AC
:102C70000895789484B5826084BD84B5816084BDF4
:102C800085B5826085BD85B5816085BDEEE6F0E0E5
:102C9000808181608083E1E8F0E010828081826041
:102CA0008083808181608083E0E8F0E080818160C2
:102CB0008083E1E9F0E080818260808380818160AF
:102CC0008083E0E9F0E0808181608083E1ECF0E0E6
:102CD0008081846080838081826080838081816044
:102CE0008083E3ECF0E0808181608083E0ECF0E0C1
:102CF000808182608083E2ECF0E08081816080836B
:102D0000EAE7F0E080818460808380818260808354
:102D1000808181608083808180688083089590E0D5
:102D2000FC013197EF30F105B0F5EA5AFF4F0C94F2
:102D3000661F809180008F7703C0809180008F7D17
:102D400080938000089580918000877FF9CF84B5BB
:102D50008F7702C084B58F7D84BD089580919000E7
:102D60008F7707C0809190008F7D03C08091900085
:102D7000877F8093900008958091C0008F7703C073
:102D80008091C0008F7D8093C00008958091C20023
:102D9000877F8093C2000895CF93DF9390E0FC017A
:102DA000E751FF4F2491FC01E85FFE4F8491882397
:102DB00049F190E0880F991FFC01EB5CFE4FA59153
:102DC000B491895D9E4FFC01C591D4919FB761116B
:102DD00008C0F8948C91209582238C93888182235B
:102DE0000AC0623051F4F8948C91322F30958323CD
:102DF0008C938881822B888304C0F8948C91822BD9
:102E00008C939FBFDF91CF9108950F931F93CF9322
:102E1000DF931F92CDB7DEB7282F30E0F901E653DC
:102E2000FF4F8491F901E751FF4F1491F901E85FD9
:102E3000FE4F04910023C9F0882321F069830E948A
:102E40008F166981E02FF0E0EE0FFF1FE95DFE4F66
:102E5000A591B4919FB7F8948C91611103C010951E
:102E6000812301C0812B8C939FBF0F90DF91CF9165
:102E70001F910F910895CF93DF931F92CDB7DEB7C7
:102E80006983DC01ED91FC910280F381E02D41E04A
:102E900050E0BE016F5F7F4F09950F90DF91CF919A
:102EA0000895CF93DF93EC018C859D8597FF05C036
:102EB00082E00E940B1B9D878C878C859D85DF910E
:102EC000CF91089583E00C949F1DFC018485958526
:102ED00097FD06C082E00E94B31A90E00196089523
:102EE00082E00E94B31A90E00895FC0184859585E4
:102EF00097FD05C02FEF3FEF35872487089582E0C7
:102F00000C940B1BCF93DF93EC0180911701882366
:102F100031F083E00E943C1B1816190634F081E062
:102F200090E09B838A8380E090E0DF91CF910895C9
:102F3000FC0120812E5F208342E450E063E471E0D5
:102F400080E80C94D71BFC0121818081813A59F4DF
:102F5000213209F04BC047E050E060E171E080E0D1
:102F60000E94D71B5EC0813209F040C0233289F431
:102F7000838190E0982F88273281832BA0E0B0E0F6
:102F800080930C0190930D01A0930E01B0930F015B
:102F90000FC0203239F467E070E080E191E00E94D8
:102FA000081C09C0223221F482818093170103C0DA
:102FB0002D7F2032B1F580917103811103C0E0E0D3
:102FC000F8E002C0EEEFFAE080911001909111015B
:102FD000A0911201B0911301803B9440A105B1056D
:102FE00011F58091170180FF03C01DC080E0089596
:102FF000EE3F2AE0F20731F0808191819093FF0A41
:103000008093FE0A87E797E7918380832BE088E12E
:1030100090E00FB6F894A895809360000FBE2093BF
:10302000600081E0089588E10FB6F8948093600015
:10303000109260000FBEA895EE3F8AE0F80739F0C5
:103040008091FE0A9091FF0A91838083EACF1092CB
:10305000FF0A1092FE0AE5CF2FEF3FEFFC01358704
:1030600024870895CF93C09117016AE070E080E053
:1030700090E00E94FF1581E0C11101C080E0CF9176
:103080000895109224031092230388EE93E0A0E0A9
:10309000B0E08093250390932603A0932703B09379
:1030A00028038BED91E090932203809321038FEF0F
:1030B0009FEF90932E0380932D030895AF92BF92BC
:1030C000CF92DF92EF92FF920F931F93CF93DF93F4
:1030D0006C017B01C0E0D0E000E010E0F601EC0FF5
:1030E000FD1F4AE050E06281C7010E94E1195C01C6
:1030F0006EE2C7010E9406198A0D9B1D080F191F59
:103100002196C330D10551F74AE050E0F6016581C0
:10311000C7010E94E119800F911FDF91CF911F918C
:103120000F91FF90EF90DF90CF90BF90AF900895F8
:103130002BEE31E0FC013183208312821382148252
:10314000158208950F93FC018BEE91E091838083AB
:1031500062834383248305830F9108952BEE31E02E
:10316000FC0131832083FB014081518162817381A5
:10317000FC0142835383648375830895FB0140817E
:10318000518162817381FC0142835383648375831F
:1031900008958BEE91E090937303809372031092E5
:1031A00074031092750310927603109277030895BA
:1031B00008950E9439160E94D81888E793E00E946B
:1031C0002C1E0E948702C0E0D0E00E945803209786
:1031D000E1F30E940000F9CF0C948D1F6115710579
:1031E00081F0DB010D900020E9F7AD01415051095C
:1031F000461B570BDC01ED91FC910280F381E02D21
:10320000099480E090E008950C94EE18DC01ED91B3
:10321000FC910190F081E02D09946DEE71E00C9429
:10322000EE180F931F93CF93DF93EC010E94EE18DB
:103230008C01CE010E940D19800F911FDF91CF915B
:103240001F910F9108958F929F92AF92BF92DF923C
:10325000EF92FF920F931F93CF93DF93CDB7DEB71B
:10326000A1970FB6F894DEBF0FBECDBF7C01F42F3F
:10327000D52ECB0119A2223008F42AE08E010F5D71
:103280001F4F822E912CA12CB12C6F2F7D2DA501CB
:1032900094010E94251FF22FD32ECA01015011095B
:1032A0006A3014F4E0E301C0E7E3E60FD801EC93E1
:1032B000232B242B252B49F7B801C7010E94EE18B8
:1032C000A1960FB6F894DEBF0FBECDBFDF91CF91B0
:1032D0001F910F91FF90EF90DF90BF90AF909F9064
:1032E0008F900895CF92DF92EF92FF920F931F93EA
:1032F000CF93DF93EC016A017B012115310579F44D
:10330000E881F9810190F081E02D642FDF91CF9168
:103310001F910F91FF90EF90DF90CF9009942A308A
:103320003105E9F477FF1AC06DE20E9406198C019D
:1033300044275527BA014C195D096E097F092AE017
:10334000CE010E942319800F911FDF91CF911F9111
:103350000F91FF90EF90DF90CF9008952AE0B70192
:10336000A601CE01DF91CF911F910F91FF90EF90B9
:10337000DF90CF900C9423190F931F93CF93DF937B
:10338000EC019A01AB01662757FD6095762F0E94EC
:1033900072198C01CE010E940D19800F911FDF91CF
:1033A000CF911F910F9108952115310541F4DC0152
:1033B000ED91FC910190F081E02D642F09940C9423
:1033C00023199A01462F50E060E070E00C94D41964
:1033D0000F931F93CF93DF93EC010E94D4198C01BC
:1033E000CE010E940D19800F911FDF91CF911F9187
:1033F0000F910895615030F02091F100FC0120837D
:103400000196F8CF289884E680938103089540912F
:103410007C0350917D0320917A0330917B03421706
:103420005307B4F49091E8009570E1F39091E800AF
:1034300092FD19C08093F10080917C0390917D03EF
:1034400001968F739927892B19F48EEF8093E800EA
:1034500080917C0390917D03019690937D038093EE
:103460007C0381E0089580E00895CF92DF92EF928F
:10347000FF920F931F93CF93DF931F92CDB7DEB7C9
:10348000082F162FF42E862F880F8E5F99830E94A7
:10349000071A83E00E94071AE02EC02E9981D92EC8
:1034A0008C2D8E19811798F4F601F7FE02C08491D5
:1034B00001C080810E94071A082F80E00E94071A2D
:1034C0008023FFEFCF1ADF0A8111EACF01C081E02C
:1034D0000F90DF91CF911F910F91FF90EF90DF90B0
:1034E000CF9008958091D70081608093D70080EAC3
:1034F0008093D80089B5806189BD89B5826089BD16
:1035000009B400FEFDCF61E070E080E090E00E9431
:10351000FF158091D8008F7C80618093D8008091C6
:10352000E000807F8093E0000895CF93DF931F92A7
:10353000CDB7DEB71982CE0101960E9498170E947E
:10354000111FBE016F5F7F4F0E948A1E89810F90FD
:10355000DF91CF9108952FB7FC012083F894677015
:103560006093E9000895CF93DF931F92CDB7DEB744
:10357000682FCE0101960E94AB1A8091F2009981CA
:103580009FBF0F90DF91CF910895FF920F931F93EC
:10359000CF93DF9300D0CDB7DEB7F62E8A0190919E
:1035A0008003992311F057FF03C08FEF9FEF2BC0CB
:1035B000682FCE0101967A830E94AB1A8091F200A7
:1035C00090E0A8017A81801791070CF4AC01EF2DEF
:1035D000F72FF40E84E6FE1639F0289880938103C5
:1035E0009091F1009193F7CF4115510521F0809111
:1035F000F200882321F089818FBFCA0104C08BE6C5
:103600008093E800F8CF0F900F90DF91CF911F913A
:103610000F91FF900895CF93DF931F92CDB7DEB740
:1036200041E050E0BE016F5F7F4F0E94C51A0197D5
:1036300019F4898190E002C08FEF9FEF0F90DF9126
:10364000CF910895CF93DF931F92CDB7DEB7682F48
:10365000CE0101960E94AB1A9091E800892F8072EA
:1036600095FF04C09091F20080E4891B99819FBF6F
:103670000F90DF91CF9108956F927F928F929F92DA
:10368000AF92BF92CF92DF92EF92FF920F931F9370
:10369000CF93DF931F92CDB7DEB7782E7B01C42E78
:1036A000B52E80918003882369F0042F152F8AEFAF
:1036B000D82E872D8072982E9AE3A92E872D80749C
:1036C000882E11C08FEF9FEF57C0872D0E94221BBD
:1036D000682E81110CC0DA94A9F361E070E080E0FB
:1036E00090E00E94FF150115110579F73BC0282FC6
:1036F00030E0021713070CF4602E672DCE010196FF
:103700000E94AB1A8091E80085FF29C0262D30E089
:10371000021B130B992039F06A948FEF6816B1F0F1
:103720001092F100F9CFF701862D77FE07C0815086
:1037300058F094919093F1003196F9CF815020F098
:1037400091919093F100FACFE20EF31E8091E80080
:1037500085FF0FC00115110511F481100AC0898180
:103760008FBFC1CF5D9884E6809382038C2D9B2D03
:1037700003C0A092E800F3CF0F90DF91CF911F918B
:103780000F91FF90EF90DF90CF90BF90AF909F9000
:103790008F907F906F9008951092E90010927D03B2
:1037A00010927C0390937B0380937A030895CF92C9
:1037B000DF92FF920F931F93CF93DF9300D0CDB78B
:1037C000DEB7F82E8A016B0101151105B1F0F60183
:1037D000F7FE02C0849101C0808149835A830E9410
:1037E000071A01501109FFEFCF1ADF0A49815A81E8
:1037F0008111EACF8FEF9FEF01C0CA010F900F90A8
:10380000DF91CF911F910F91FF90DF90CF9008959E
:10381000BF92CF92DF92EF92FF920F931F93CF93BD
:10382000DF936C018B01EB013BEFB32E2097C1F0CE
:103830007E01C134D1051CF020E4E22EF12C8091F0
:10384000E80082FFFCCFC8018C1B9D0B6E2D8C0DF8
:103850009D1D0E94FA19B092E800CE19DF09E6CF4B
:10386000C801DF91CF911F910F91FF90EF90DF90F2
:10387000CF90BF9008951F920F920FB60F92112410
:10388000DF92EF92FF920F931F932F933F934F93EB
:103890005F936F937F938F939F93AF93BF93EF93B8
:1038A000FF93CF93DF93CDB7DEB76C97DEBFCDBF6D
:1038B0001092E9008091E80083FF23C168E0CE0107
:1038C00045960E94FA1982EF8093E8003D8937FF00
:1038D00005C08091E80080FFFCCF03C08EEF80938D
:1038E000E800832F807609F0F0C02E894F89D88CAC
:1038F00021110CC0303829F480917F038093F100AE
:1039000002C01092F1001092F100F4C0842F90E0F8
:103910009D29213049F43111EDC0019709F0EAC029
:1039200080917F038D7F0AC0233059F43111E2C0AA
:10393000019709F0DFC080917F03826080937F034D
:10394000D9C0253041F48091E80080FFFCCF406869
:103950004093E300CFC0263009F08DC0EB8CFC8C87
:1039600022E0D2122CC080E090E00E94CC1B0E948A
:10397000951A99E08E010F5F1F4FF801292F1192C0
:103980002A95E9F79983DA8291E09E8390EA9887F5
:103990009AEF998720917C0330917D03275F3F4FF9
:1039A0003C832B838D83C7010E94CC1B49E050E0F0
:1039B000B80180E00E94D71B0E94951A9BC0C701E6
:1039C0000E94CC1B0E94111FBE016B5E7F4F0E94A4
:1039D000B31E009719F00CF08DC090C081E0D81292
:1039E0000EC08B8D9C8D089719F481E0809379032C
:1039F0008091790381112FC067E971E031C0E3E064
:103A0000DE127CC08F89882349F1823029F440E896
:103A100060E185EB91E01CC0813029F440E86BE067
:103A200089EA91E015C0833009F068C00E94111F37
:103A30008E010F5F1F4FB8010E94D21EF801019046
:103A40000020E9F73197E01BF10B40E06E2FC80131
:103A50000E94351A4DC065E871E002C066EC71E065
:103A60006115710509F44AC0FB01449150E080E8FA
:103A70000E94D71B3FC0273009F440C0283021F4F2
:103A800081E08093F10036C02930A1F53370B1F5A3
:103A9000E9E1F1E081E021E036E39081992361F0F2
:103AA0008093E9002093EB0091919093EC00309388
:103AB000ED008F5F873089F78EE78093EA001092E0
:103AC000EA008F898093800315C08B8D9C8D0E94A6
:103AD000CC1B898D811105C0CE0145960E94A3178C
:103AE00007C00E94111FBE016B5E7F4F0E94F11E36
:103AF000882321F08EEF8093E80003C081E2809359
:103B0000EB006C960FB6F894DEBF0FBECDBFDF9111
:103B1000CF91FF91EF91BF91AF919F918F917F9145
:103B20006F915F914F913F912F911F910F91FF9056
:103B3000EF90DF900F900FBE0F901F90189580931D
:103B4000E9008091F200882319F08AE38093E8006D
:103B500008951F920F920FB60F9211242F933F9347
:103B60004F935F936F937F938F939F93AF93BF9385
:103B7000CF93EF93FF93C091E1008091E100837FA9
:103B80008093E1008093E100C3FF0FC01092E90031
:103B900081E08093EB001092EC0082E38093ED00D3
:103BA0001092800388E08093F000C2FF19C083E088
:103BB0000E949F1D80918203882339F080918203A7
:103BC000815080938203882389F180918103882327
:103BD00039F080918103815080938103882341F1E2
:103BE000C4FF10C08091E2008E7E81608093E2006D
:103BF0008091E1008F7E8093E10080917E038E7E34
:103C0000806111C0C0FF16C08091E2008E7E80618D
:103C10008093E2008091E1008E7E8093E1008091AC
:103C20007E038E7E816080937E0304C05D9ACDCF3B
:103C3000289AD6CFFF91EF91CF91BF91AF919F91ED
:103C40008F917F916F915F914F913F912F910F9045
:103C50000FBE0F901F9018951092800310927F0353
:103C600010927E030E94721A8091E1008E7E8093F2
:103C7000E1008DE08093E200559A209AEEEFFFE795
:103C8000859194918B3F9C4D19F481E08093710351
:103C90000895CF93DF9300D000D0CDB7DEB79B015E
:103CA000AC01611571058105910569F069833A835D
:103CB0004B835C830E94032129813A814B815C8183
:103CC0000E94471F03C060E070E0CB010F900F908F
:103CD0000F900F90DF91CF910895CF92DF92EF92E6
:103CE000FF926B017C01621773078407950764F4E8
:103CF000CA01B9016C197D098E099F090E94491EEC
:103D00006C0D7D1D8E1D9F1DFF90EF90DF90CF905D
:103D100008950895EF92FF920F931F93CF93DF932F
:103D20007B01FC01C281D38100E010E0209781F08B
:103D3000E881F9810280F381E02DB701CE01099578
:103D400097FD08C0080F191F0884D985C02DEECF34
:103D5000C80102C08FEF9FEFDF91CF911F910F91AC
:103D6000FF90EF9008950F931F93CF93DF938B01F4
:103D7000FC01C281D381209771F0E881F981048030
:103D8000F581E02DB801CE010995009731F4088442
:103D9000D985C02DF0CF80E090E0DF91CF911F91C9
:103DA0000F9108950F931F93CF93DF938B01FC0125
:103DB000C281D381209771F0E881F9810680F78173
:103DC000E02DB801CE010995080F111D0884D98591
:103DD000C02DF0CFF8011082DF91CF911F910F918C
:103DE00008950F931F93CF93DF938B01FC01C28142
:103DF000D381209771F0E881F9810190F081E02D65
:103E0000B801CE010995811106C00884D985C02D5D
:103E1000F0CF80E001C081E0DF91CF911F910F9141
:103E200008958091870381110DC082E08093830300
:103E300084E080938403109286031092850381E0CE
:103E40008093870383E893E00895A1E21A2EAA1BCA
:103E5000BB1BFD010DC0AA1FBB1FEE1FFF1FA2173A
:103E6000B307E407F50720F0A21BB30BE40BF50B37
:103E7000661F771F881F991F1A9469F760957095C0
:103E8000809590959B01AC01BD01CF010895052E51
:103E900097FB1EF400940E945E1F57FD07D00E94FE
:103EA000251F07FC03D04EF40C945E1F50954095DF
:103EB000309521953F4F4F4F5F4F089590958095D6
:103EC000709561957F4F8F4F9F4F0895EE0FFF1FA5
:103ED0000590F491E02D09946927962769277827A2
:103EE0008727782708950E947E1FA59F900DB49F75
:103EF000900DA49F800D911D11240895A29FB001E3
:103F0000B39FC001A39F700D811D1124911DB29F0D
:103F1000700D811D1124911D0895CF93DF93823080
:103F2000910510F482E090E0E0919103F09192030A
:103F300020E030E0A0E0B0E0309739F140815181DD
:103F400048175907B8F04817590771F482819381CF
:103F5000109729F013969C938E9312972CC09093F0
:103F600092038093910327C02115310531F0421748
:103F7000530718F0A901DB0101C0EF019A01BD014F
:103F8000DF010280F381E02DD7CF21153105F9F053
:103F9000281B390B2430310580F48A819B816115FF
:103FA000710521F0FB019383828304C090939203F7
:103FB00080939103FE01329644C0FE01E20FF31F8D
:103FC0008193919322503109398328833AC02091FB
:103FD0008F0330919003232B41F420910201309103
:103FE00003013093900320938F03209100013091BF
:103FF00001012115310541F42DB73EB7409104016F
:1040000050910501241B350BE0918F03F091900333
:10401000E217F307A0F42E1B3F0B2817390778F09F
:10402000AC014E5F5F4F2417350748F04E0F5F1FFE
:104030005093900340938F038193919302C0E0E0EB
:10404000F0E0CF01DF91CF910895CF93DF930097F8
:1040500009F487C0FC01329713821282C091910348
:10406000D0919203209781F420813181280F391F4C
:1040700080918F03909190038217930779F5F093C5
:104080009003E0938F036DC0DE0120E030E0AE17B7
:10409000BF0750F412964D915C9113979D01411505
:1040A000510509F1DA01F3CFB383A2834081518135
:1040B000840F951F8A179B0771F48D919C9111971E
:1040C000840F951F02969183808312968D919C9107
:1040D0001397938382832115310529F4F09392037A
:1040E000E09391033EC0D9011396FC93EE9312978F
:1040F0004D915D91A40FB51FEA17FB0779F48081FC
:104100009181840F951F0296D90111969C938E93ED
:104110008281938113969C938E931297E0E0F0E056
:104120008A819B81009719F0FE01EC01F9CFCE0145
:10413000029628813981820F931F20918F0330913D
:1041400090032817390769F4309729F410929203E5
:104150001092910302C013821282D0939003C093F5
:104160008F03DF91CF9108958F929F92AF92BF926C
:10417000CF92DF92EF92FF92CF93DF93EC016881B1
:1041800079818A819B81611571058105910521F4F1
:1041900064E279ED8BE597E02DE133EF41E050E00B
:1041A0000E94471F49015A019B01AC01A7EAB1E4F3
:1041B0000E94731F6B017C01ACEEB4EFA50194016A
:1041C0000E943E21C60ED71EE81EF91EF7FE06C04D
:1041D00081E0C81AD108E10880E8F80AC882D982CB
:1041E000EA82FB82C701B6019F77DF91CF91FF90F2
:1041F000EF90DF90CF90BF90AF909F908F900895F9
:104200000E94B420089586E091E00E94B4200895B1
:104210006093060170930701809308019093090150
:104220000895FB01DC0104C08D910190801921F4F7
:1042300041505040C8F7881B990B0895FB01DC01E1
:1042400001900D920020E1F70895F999FECF92BDFB
:1042500081BDF89A992780B50895262FF999FECF48
:104260001FBA92BD81BD20BD0FB6F894FA9AF99A93
:104270000FBE01960895B7FF0C94731F0E94731F21
:0A428000821B930B0895F894FFCF02
:10428A00000093038000010000000004FFFFFFFF0D
:10429A0000E100000000000000C18081000000462B
:1042AA0061696C656420746F20636F6E66696775F7
:1042BA0072652045746865726E6574207573696EDF
:1042CA00672044484350004D792049502061646476
:1042DA00726573733A20002E00426F6F74206E75F8
:1042EA006D6265723A20005061636B657443616D5B
:1042FA006500686572652100436F6E74656E74733C
:10430A003A0073697A65206973203A0057495A6EF0
:10431A0065740000000000A10DCA0DE40DEF0D0D3B
:10432A000E300EB20E340E090E150F560FB70DBF12
:10433A000D970D00000000AF0FF80FAB0F0C1052D5
:10434A0010C50FBC10D70FEC0F0411F40F6B10350A
:10435A0010900F970FA70F000000003B17821765F8
:10436A0017751751176217000000005E180D0A0032
:0C437A006E616E00696E66006F76660072
:00000001FF
