:100000000C9492010C94FF210C9426220C944D2206
:100010000C9474220C94BA010C94BA010C949B2297
:100020000C94BA010C94BA010C94862C0C94182BE5
:100030000C94BA010C94BA010C94BA010C94BA0154
:100040000C94BA010C94BA010C94BA010C94BA0144
:100050000C94BA010C94BA010C94BA010C94C2220B
:100060000C94BA010C94BA010C94BA010C94BA0124
:100070000C94BA010C94BA010C94BA010C94BA0114
:100080000C94BA010C94BA010C94BA010C94BA0104
:100090000C949D0A0C94BA010C94BA010C94BA0108
:1000A0000C94BA010C94BA010C94BA011F242224B6
:1000B000112415241B2443244324432426242A24C6
:1000C0002E243424382443243E2444657669636511
:1000D000206973206E6F7420612044533138783268
:1000E000302066616D696C79206465766963652E80
:1000F00000005EBCE2613FDD83C29C7E20A3FD1F49
:10010000419DC3217FFCA2401E5F01E3BD3E608292
:10011000DC237D9FC1421CFEA0E1BF5D0380DE3C6D
:1001200062BEE0025CDF81633D7C22C09E1D43A174
:10013000FF4618FAA427799BC584DA3866E5BB59CF
:1001400007DB856739BAE406581947A5FB7826C44A
:100150009A653BD987045AB8E6A7F91B45C6987A31
:1001600024F8A6441A99C7257B3A6486D85B05E72C
:10017000B98CD2306EEDB3510F4E10F2AC2F71939B
:10018000CD114FADF3702ECC92D38D6F31B2EC0EFA
:1001900050AFF1134DCE90722C6D33D18F0C52B005
:1001A000EE326C8ED0530DEFB1F0AE4C1291CF2DDC
:1001B00073CA947628ABF517490856B4EA6937D55F
:1001C0008B5709EBB536688AD495CB2977F4AA48C2
:1001D00016E9B7550B88D6346A2B7597C94A14F6B9
:1001E000A8742AC896154BA9F7B6E80A54D7896BA4
:1001F00035070605040100080A0B0C0D0900000074
:100200000200090F0000030401000C0000000000C0
:1002100000000000000000000000000004080201CF
:10022000104080401020408040800802040180403F
:100230002010020110801020404020040404040417
:100240000304050202020204030202020206060679
:100250000606060404020202040400000000230053
:10026000260029002C002F00000000002500280097
:100270002B002E00310000000000240027002A007F
:100280002D003000080B00020202010009040000EA
:1002900001020200000524001001052401010104EF
:1002A0002402060524060001070581031000400909
:1002B000040100020A0000000705020240000007D6
:1002C00005830240000012010002EF0201404123B9
:1002D000368000010102030112010002000000400B
:1002E0004123368000010102030141726475696E89
:1002F0006F204C4C430041726475696E6F204C65F1
:100300006F6E6172646F0004030904000906520AEB
:10031000490C2012E415D517E017BD19C819A321FF
:1003200012269A2611241FBECFEFDAE0DEBFCDBF22
:1003300011E0A0E0B1E0E2EDF4E602C005900D921C
:10034000A43BB107D9F724E0A4EBB1E001C01D92B2
:10035000A939B207E1F713E0C4E2D3E004C0229761
:10036000FE010E947830CC30D107C9F70E94AA263E
:100370000C9467320C94000080914F02811117C0D9
:1003800080E090E0A0E4B1E48093B8019093B901DB
:10039000A093BA01B093BB011092BC016AE070E077
:1003A00080E090E00E943B2381E080934F028091A7
:1003B000B4019091B501A091B601B091B701019639
:1003C000A11DB11D8093B4019093B501A093B60116
:1003D000B093B70180914F02811117C080E090E087
:1003E000A0E4B1E48093B8019093B901A093BA015D
:1003F000B093BB011092BC016AE070E080E090E035
:100400000E943B2381E080934F028091B401909140
:10041000B501A091B601B091B701682F61708DE070
:100420000C947D241F93CF93DF93FC01648D758D15
:10043000868D978D24E630E040E050E00E94353014
:10044000672B682B692B49F484E690E00E944932BF
:1004500061E0680F84E690E00BC0C4E6D0E010E0F5
:10046000CE010E944932811740F461E0680FCE014D
:10047000DF91CF911F910C9451322196C83CD10548
:1004800011F0182FEDCFDF91CF911F910895CF92EA
:10049000DF92EF92FF920F931F93CF93DF93EC01C4
:1004A000198A188A80E190E09B8B8A8B83E690E022
:1004B0009D8B8C8B0E9449328F3FB9F404E610E08B
:1004C00060E0C8010E9451320F5F1F4F083C1105C8
:1004D000B9F70C891D89C8010E9449328823E9F0C7
:1004E00060E0C8010E94513218C0C12CD12C7601A5
:1004F00004E610E0C8010E944932C80ED11CE11C7C
:10050000F11C0F5F1F4F083C1105A1F7CC8EDD8E4B
:10051000EE8EFF8ECE010E941202C888D9887E011D
:1005200000E110E0CC1ADD0AC6018E0D9F1D0E946D
:100530004932F70181937F0101501109A9F705E0C4
:1005400010E08A899B89800F911F0E944932FE0129
:10055000E00FF11F868B0150110999F7DF91CF91C0
:100560001F910F91FF90EF90DF90CF9008958F92A1
:100570009F92AF92BF92DF92EF92FF920F931F93E1
:10058000CF93DF93CDB7DEB7C554D1090FB6F8943A
:10059000DEBF0FBECDBF7C018B01DC0114961D9226
:1005A0001D921D921C92179788E018968C930E94BA
:1005B0001823F80183889488A588B6886819790972
:1005C0008A099B0980809180A280B3808616970655
:1005D000A806B90608F012C15801F7E0AF0EB11C29
:1005E000D8011596ED91FC9116978EE0DE019B9651
:1005F00001900D928A95E1F741E0BE016F5F7F4F58
:10060000CE018B960E94391F882379F0FE01319626
:10061000D501CE01099621912D93E817F907D9F755
:1006200067E0CE0101960E94D61FF8018481058003
:10063000F681E02D9EE0DE015D9601900D929A9587
:10064000E1F78C3031F08B3031F08A3031F02FE12E
:1006500005C02FE703C02FE501C02FE3CE014D9663
:1006600026962FAF26970E94E11DB501CE014D962B
:100670000E94DC1E40E06EE4CE014D960E947E1E7C
:1006800040E060E0CE014D960E947E1E40E060E0BA
:10069000CE014D960E947E1E40E026962FAD2697F5
:1006A000622FCE014D960E947E1E40E068E4CE018E
:1006B0004D960E947E1ED8011596ED91FC911697DD
:1006C0008EE0DE011F9601900D928A95E1F7CE0132
:1006D0000F960E94E11DB501CE010F960E94DC1E0F
:1006E00041E064E4CE010F960E947E1ED80115966B
:1006F000ED91FC9116978EE0DE01119601900D921E
:100700008A95E1F7F8018781823271F0883261F0D1
:10071000803119F4DD24D39408C06AEC70E087E2DC
:1007200094E00E94032701C0D12CCE0101960E94C3
:10073000E11DB501CE0101960E94DC1E40E06EEB8A
:10074000CE0101960E947E1E5E01F9E3AF0EB11C40
:10075000450189E0880E911CCE0101960E94C01EC1
:10076000D5018D935D01A815B905B1F76AAD70E0AB
:10077000762F662789AD682BDD2041F133E0660FC7
:10078000771F3A95E1F721968FAD2197803151F48B
:10079000CB01807F2FAD6CE070E0621B7109680FA8
:1007A000791F14C08DAD807631F423E0660F771F7A
:1007B0002A95E1F70BC0803229F4660F771F660F88
:1007C000771F04C0803411F4660F771F80E090E03B
:1007D0000E94042F20E030E040E85DE30E94BA2F41
:1007E000F8016787708B818B928B0E941823D80148
:1007F00053966D937D938D939C935697F8018785BF
:100800009089A189B289F70180839183A283B38300
:10081000C701CB5BDF4F0FB6F894DEBF0FBECDBF75
:10082000DF91CF911F910F91FF90EF90DF90BF90DC
:10083000AF909F908F9008958F929F92AF92BF92AA
:10084000CF92DF92EF92FF926A017B0120E030E0CD
:1008500040E351E4C701B6010E94672E18163CF030
:100860002DEC3CEC4CE45DE3C701B601C3C120E0D4
:1008700030E040E351E4C701B6010E94B62F1816DC
:10088000BCF420E030E048EB51E4C701B6010E941F
:10089000672E18166CF02EEA37E441EE5EE3C701CE
:1008A000B6010E94022E26EA3BE944E45DE3A2C1C0
:1008B00020E030E048EB51E4C701B6010E94B62FBA
:1008C0001816BCF420E030E04CE352E4C701B60156
:1008D0000E94672E18166CF028EA36EC4BED5FE3A9
:1008E000C701B6010E94022E2EE73CE849E35DE312
:1008F00081C120E030E04CE352E4C701B6010E9420
:10090000B62F1816BCF420E030E04CEB52E4C701DF
:10091000B6010E94672E18166CF025E63AEA4AEFF7
:1009200050E4C701B6010E94022E2EE230E940E2F7
:100930005DE360C120E030E04CEB52E4C701B6015A
:100940000E94B62F1816BCF420E030E042E253E4D7
:10095000C701B6010E94672E18166CF027ED33EA26
:1009600048E052E4C701B6010E94022E29E832EDA8
:100970004EED5CE33FC120E030E042E253E4C701CA
:10098000B6010E94B62F1816BCF420E030E04AE30E
:1009900053E4C701B6010E94672E18166CF022E0DE
:1009A0003BEA42E152E4C701B6010E94022E25EF64
:1009B00039EB4AED5CE31EC120E030E04AE353E44A
:1009C000C701B6010E94B62F1816BCF420E030E82B
:1009D00041E853E4C701B6010E94672E18166CF077
:1009E0002AE83EE24AEB52E4C701B6010E94022E19
:1009F00026E234EE43E85CE3FDC020E030E841E865
:100A000053E4C701B6010E94B62F1816BCF420E0CB
:100A100030E04BE953E4C701B6010E94672E181677
:100A20006CF020E030E04DE153E4C701B6010E94D4
:100A3000022E27EE3DE147E25CE3DCC020E030E03F
:100A40004BE953E4C701B6010E94B62F1816BCF457
:100A500020E030E043EB53E4C701B6010E94672E6B
:100A600018166CF025E934E24FE453E4C701B601EF
:100A70000E94022E25E639E142EE5BE3BBC020E096
:100A800030E043EB53E4C701B6010E94B62F1816BD
:100A9000BCF420E030E848EC53E4C701B6010E9402
:100AA000672E18166CF020E030E048E853E4C701E8
:100AB000B6010E94022E24E237E94FE75BE39AC0B9
:100AC00020E030E848EC53E4C701B6010E94B62F9D
:100AD0001816BCF420E030E048ED53E4C701B6013D
:100AE0000E94672E18166CF02CED36EF43EA53E4A3
:100AF000C701B6010E94022E20EE3DE240E15BE319
:100B000079C020E030E048ED53E4C701B6010E940F
:100B1000B62F1816BCF420E030E045EE53E4C701D0
:100B2000B6010E94672E18166CF02EE937EE4AEBDC
:100B300053E4C701B6010E94022E22E539E44DE9D3
:100B40005AE358C020E030E045EE53E4C701B60157
:100B50000E94B62F1816BCF420E030E84FEE53E4A4
:100B6000C701B6010E94672E18166CF020E030EB2A
:100B70004EEC53E4C701B6010E94022E24E330E894
:100B800047E35AE337C020E030E84FEE53E4C701B3
:100B9000B6010E94B62F1816BCF420E030E443E002
:100BA00054E4C701B6010E94672E18166CF027ECBA
:100BB00031EF4CEE53E4C701B6010E94022E27E14B
:100BC00037EB41ED58E316C020E030E443E054E455
:100BD000C701B6010E94B62F181684F427EC31E73E
:100BE00043E054E4C701B6010E94022E2CEA35EC22
:100BF00047E257E30E946B2E4B015C01C501B40133
:100C0000FF90EF90DF90CF90BF90AF909F908F902C
:100C100008950F931F93CF93DF9300E020E040E00F
:100C200060E08DE093E00E9473268DEE92E00E94DA
:100C3000470289E395E0909358028093570280EC35
:100C40008093590288EA80935A0281E080935B0284
:100C500085E380935C021092C1021092C20283EC81
:100C600092E00E944A198EED92E00E94ED1680EE0D
:100C70009BEA9093EC028093EB0283E290E09093E6
:100C80004B0280934A0210924E0280E894E8AEE153
:100C9000B0E08093330290933402A0933502B09376
:100CA00036028AE080933702109242021092430289
:100CB000109244021092450210924602109247028E
:100CC00010924802109249028EE090E00E94BD26E8
:100CD000EC0167E00E94161FD0933902C0933802DE
:100CE00049E050E068E070E085E292E00E94E21F97
:100CF00010922202C3E1D2E014E1188382E18093D2
:100D0000120260E00E94442461E088810E94442431
:100D100061E088810E947D241092110285E1809318
:100D200001021093020283E18093000260E0DF91F0
:100D3000CF911F910F910C9444240F931F93CF9345
:100D4000DF93EC018B0161E08BE00E94442460E0C2
:100D50008BE00E947D246AE070E080E090E00E94D9
:100D60003B2361E08BE00E947D2468EC70E080E032
:100D700090E00E943B23B8018FED93E00E94EA14BB
:100D8000892BF1F043E064E089E190E00E94CC1B04
:100D900048EE64E08AE190E00E94CC1B43E064E00E
:100DA0008BE190E00E94CC1BFE01EC56FF4F60816E
:100DB0007181CE0184599F4F0E94171981E001C0B3
:100DC00080E0DF91CF911F910F91089540E052ECA8
:100DD00061E070E087E294E00E940C2683E193E0FA
:100DE0000E94480A44EF51E060E070E083E193E044
:100DF0000E94D12862E080E00E94442480914F024A
:100E0000811117C080E090E0A0E4B1E48093B801C4
:100E10009093B901A093BA01B093BB011092BC01A9
:100E20006AE070E080E090E00E943B2381E08093E4
:100E30004F0261E08DE00E9444248091BC01811149
:100E400018C062E083E00E94442481E08093BC01EA
:100E50000E9418236093BD017093BE018093BF016F
:100E60009093C00142E050E06CEB71E080E00E94A2
:100E7000AF2184EB91E0909324028093230263E0FE
:100E800073E087E592E00C949D064F925F926F921B
:100E90007F928F929F92AF92BF92CF92DF92EF920A
:100EA000FF920F931F93CF93DF93CDB7DEB7659774
:100EB0000FB6F894DEBF0FBECDBF8FED93E00E945A
:100EC000771583EC92E00E94C6180697F1F5E09042
:100ED000D402F090D5020091D6021091D70246E0DC
:100EE00050E0BE01695F7F4F83EC92E00E94901852
:100EF0008F81833751F58A85823739F58EED92E0FF
:100F00000E947017409157025091580281EA91E077
:100F10009A838983EB82FC820D831E83BE016F5FFF
:100F20007F4F8EED92E00E940D17019771F46AE2F7
:100F300071E08EED92E00E941527E0925902F09246
:100F40005A0200935B0210935C020E941823C09027
:100F50002B02D0902C02E0902D02F0902E026C1902
:100F60007D098E099F096A307E428240910508F40E
:100F70005AC00E94182360932B0270932C02809316
:100F80002D0290932E020091220210E08091120215
:100F90000E94D623F801EE0FFF1FEC5EFD4F9183F8
:100FA00080838091220290E0019607E010E0B80172
:100FB0000E9421308093220260E0809102020E9410
:100FC0007D2461E070E080E090E00E943B2361E0DE
:100FD000809101020E947D2461E070E080E090E059
:100FE0000E943B23E0901102F12C809100020E94AC
:100FF000D623F701EE0FFF1FE050FE4F948383834B
:101000008091110290E00196B8010E9421308093F6
:10101000110260E0809101020E947D2461E08091D4
:1010200002020E947D240E941823C0902F02D090BB
:101030003002E0903102F09032026C197D098E0985
:101040009F09613472448F40910508F473C10E9476
:10105000182360932F027093300280933102909393
:1010600032020E94182385E292E00E9421216093BF
:10107000C1017093C2018093C3019093C401109287
:10108000C5011092C6011092C7011092C80185E0F7
:101090008093C90185E292E00E940A216093CA010F
:1010A0007093CB018093CC019093CD011092CE012F
:1010B0001092CF011092D0011092D10186E080935E
:1010C000D201A0902302B09024020E941823F89429
:1010D0000E9418236B017C01F5016081718182817E
:1010E000938110821182128213827894F5014184D7
:1010F000528463847484A701960124193509460932
:10110000570929013A010E94042FF50124813581F4
:10111000468157810E946B2EF501C186D286E386F7
:10112000F4866093D3017093D4018093D50190939A
:10113000D6014092D7015092D8016092D9017092A5
:10114000DA0180E18093DB011092E0011092E1016D
:101150001092E2011092E30183E18093E40180E0C8
:101160000E94B324BC01882777FD8095982F0E94A8
:10117000062F6093DC017093DD018093DE01909374
:10118000DF0163E372E0CE010D960E94B70289E0B1
:10119000FE013D96A5EEB1E001900D928A95E1F732
:1011A000E4E1F2E060E070E0CB0121913191620F67
:1011B000731F811D911D22E0E232F207B1F727E093
:1011C00030E040E050E00E943530CA01B9010E9491
:1011D000042F20E030E44CE950E40E94BA2F9B0138
:1011E000AC0160E070EB83E195E40E94022E20E008
:1011F00030E042E852E40E946B2E20E030E040EE06
:1012000050E40E94032E6093EE017093EF018093EF
:10121000F0019093F10180E492E4AFE0B0E08093BC
:10122000F2019093F301A093F401B093F50184E0EF
:101230008093F6018090E5019090E601A090E7018F
:10124000B090E801E3E0F2E060E070E0CB012191D2
:101250003191620F731F811D911D32E0E131F3075F
:10126000B1F727E030E040E050E00E943530CA019D
:10127000B9010E94042FAB01BC0180E092E00E9402
:101280001C040E94D82E0E94042F2DE836EE4BE558
:1012900051E40E94022E9B01AC0160E27EE987E8E6
:1012A00099E40E946B2E6B017C0120E030E048EC59
:1012B00051E4C501B4010E94022E20E53DE847E952
:1012C0005CE30E94BA2F20E030E040E85FE30E9438
:1012D000032E9B01AC01C701B6010E946B2E6093E7
:1012E000F7017093F8018093F9019093FA0180E47B
:1012F00092E4AFE0B0E08093FB019093FC01A093F7
:10130000FD01B093FE018DE08093FF018EED92E030
:101310000E94B117882371F04091CA015091CB010E
:101320006091CC017091CD0122E030E08EED92E031
:101330000E94BF2865960FB6F894DEBF0FBECDBFE2
:10134000DF91CF911F910F91FF90EF90DF90CF90A1
:10135000BF90AF909F908F907F906F905F904F90D5
:1013600008958091420390E020914303821B9109EC
:1013700008952091430380914203281750F4E22FEF
:10138000F0E0EC5BFC4F808190E02F5F2093430303
:1013900008958FEF9FEF0895E091430380914203FA
:1013A000E81730F4F0E0EC5BFC4F808190E00895AA
:1013B0008FEF9FEF08950895CF92DF92EF92FF9203
:1013C0000F931F93CF93DF937C01CB018A01209170
:1013D0001F03222389F0EB016B01C40ED51ECC152F
:1013E000DD0569F06991D701ED91FC910190F081E3
:1013F000E02DC7010995F3CF642F0E94740AC8013C
:10140000DF91CF911F910F91FF90EF90DF90CF90E0
:101410000895CF93DF931F92CDB7DEB769832091F4
:101420001F032223D1F020912003203240F021E03D
:1014300030E0FC013383228380E090E015C080918E
:101440002103E82FF0E0EE5DFC4F998190838F5FE0
:10145000809321038093200305C061E0CE010196B3
:101460000E94740A81E090E00F90DF91CF9108957F
:10147000FC011382128248EE53E060E070E0448386
:1014800055836683778386E391E091838083089513
:1014900010924303109242031092210310922003F2
:1014A0000C94560A83E193E00C94380A1092D1030D
:1014B00081E08093CF031092CE0361E082E00E942E
:1014C0007D2461E083E00E947D24E9EBF0E08081EF
:1014D0008E7F808380818D7F808388E48093B800B5
:1014E00085E48093BC000895613298F42091D10383
:1014F000243089F460938603FC0188E893E0DC01E2
:101500002A2F281B261718F421912D93F9CF80E05C
:10151000089581E0089582E0089585ED8093BC00F0
:101520008091BC0084FDFCCF1092D103089585EC1E
:101530008093BC001092D10308951F920F920FB6B2
:101540000F9211242F933F934F935F936F937F9349
:101550008F939F93AF93BF93EF93FF938091B900C5
:10156000887F803609F49EC078F5883209F45DC022
:1015700090F4803109F456C038F4882309F4F5C09A
:10158000883009F44FC0F5C0883109F44EC080326C
:1015900009F45FC0EEC0803409F46AC058F48033A7
:1015A00009F457C0883309F0E4C0809364030E94B3
:1015B000970ADFC0803509F44FC0883509F45DC053
:1015C000883409F0D6C0D3C0883909F4C4C0A8F45F
:1015D000883709F467C038F4883609F463C0803767
:1015E00009F460C0C6C0883809F4B5C0803909F470
:1015F0005FC0803809F0BDC05BC0803B09F483C088
:1016000038F4803A09F466C0883A09F47CC0B1C065
:10161000803C09F4A4C0883C09F4A1C0883B09F4CB
:1016200087C0A7C08091D00310C09091A90380917A
:10163000A803981770F5E091A90381E08E0F8093BD
:10164000A903F0E0E655FC4F80818093BB0085EC58
:1016500083C0809364038BC0E091A90381E08E0F67
:101660008093A9038091BB00F0E0E655FC4F808396
:101670009091A9038091A8036BC0E091A90381E038
:101680008E0F8093A9038091BB00F0E0E655FC4FDC
:1016900080838091CF0381116AC081E08093CE0363
:1016A00084EA5EC083E08093D10310926503CFCFBC
:1016B00080916503803208F04EC0E091650381E0BF
:1016C0008E0F809365038091BB00F0E0EA59FC4FD8
:1016D0008083BDCF0E94970A80916503803230F4E9
:1016E000E0916503F0E0EA59FC4F108260916503D8
:1016F00070E0E091CA03F091CB0386E693E0099590
:101700001092650336C084E08093D1031092870362
:1017100010928603E091CC03F091CD03099580915E
:101720008603811105C081E08093860310928803AF
:10173000E091870381E08E0F80938703F0E0E85704
:10174000FC4F80818093BB0090918703809186033A
:10175000981708F47CCF85E88093BC000AC085EC1C
:101760008093BC001092D10304C0109264030E94C5
:101770008D0AFF91EF91BF91AF919F918F917F91D2
:101780006F915F914F913F912F910F900FBE0F90EE
:101790001F901895CF93CFB7F8948091D203811101
:1017A00027C0ECE4F2E08491EDE2F2E09491E82FBE
:1017B000F0E0EE0FFF1FEA58FD4FA591B4918C9118
:1017C000892321F461E081E10E947D2461E081E1CF
:1017D0000E9444248CB580618CBD8CB580648CBD26
:1017E00061E08FE00E94442461E080E10E94442493
:1017F0008091D2038F5F8093D203CFBFCF910895A2
:101800000E9624E1FC0111922A95E9F70895CF93F1
:10181000DF93EC01625F7F4F0E947F26CE01DF9154
:10182000CF910895CF93DF93EC016E5E7F4F0E94BE
:101830007F26CE01DF91CF910895CF93DF93EC0106
:101840006A5E7F4F0E947F26CE01DF91CF9108957F
:10185000CF93DF93EC01625E7F4F0E947F26CE0123
:10186000DF91CF91089580E3FB0180833296842F2E
:1018700082958F7090E1899F401911244A3014F4A9
:10188000405D01C0495C4293882311F0482FEFCF9F
:1018900008950F9300E020E040E060E083ED93E0E6
:1018A0000E9473260F9108956F927F928F929F925C
:1018B000AF92BF92CF92DF92EF92FF920F931F935E
:1018C000CF93DF93CDB7DEB7AC970FB6F894DEBFFA
:1018D0000FBECDBF7C01862EB42EA52E20E2922E07
:1018E000CE0101966C01FC01292D11922A95E9F790
:1018F0000FEF2FEF4FEF6FEF86960E94732681EA6E
:1019000091E09AA389A389A59AA5ABA5BCA58BA3B1
:101910009CA3ADA3BEA38701095B1F4F43E450E026
:10192000BE016F5D7F4FC8010E944718019609F400
:10193000BFC081E089838A8386E0782E7B821C8207
:10194000F70164817581868197810E947C306D8367
:101950007E838F839887A986BA8680E890E09C87EB
:101960008B874CE150E0B601C8010E945318F60184
:10197000292D11922A95E9F7570188E0A80EB11C8C
:10198000F501D60101900D927A94E1F740E150E023
:10199000B601C8010E945318F60111929A94E9F712
:1019A00096E0692E712C40E250E0B601C8010E9419
:1019B0005318F1E06F1A7108B1F783E6898392E852
:1019C0009A8393E59B838C8385E38D8381E08E836B
:1019D0008F829DE3988797E099878A8786E0F50153
:1019E000DE011B9601900D928A95E1F78CE0898BC0
:1019F0008A8B62E471E0CE0143960E944232F70185
:101A00004385BE01675E7F4FC7010E94330CF7011B
:101A10004485BE01655E7F4FC7010E94330CF7010C
:101A20004585BE01635E7F4FC7010E94330C4EE1C6
:101A300050E0B601C8010E945318F3E08F121EC097
:101A400082E3898384E08A83F70196859B83978567
:101A50009C8390899D8391899E8396E39F83888749
:101A6000828D8987838D8A87848D8B87858D8C87EE
:101A70004CE050E0B601C8010E94531887E3898307
:101A800086E08A8391E09B8393E09C838D838FE043
:101A90008E838AE38F838BE388878FEF898749E082
:101AA00050E0B601C8010E945318C8010E944F18A7
:101AB000AC960FB6F894DEBF0FBECDBFDF91CF91CD
:101AC0001F910F91FF90EF90DF90CF90BF90AF905C
:101AD0009F908F907F906F9008952F923F924F929A
:101AE0005F926F927F928F929F92AF92BF92CF92AE
:101AF000DF92EF92FF920F931F93CF93DF93CDB7B7
:101B0000DEB7E3970FB6F894DEBF0FBECDBF7C0102
:101B10002A013B0169010E940C234B015C018701F2
:101B2000095B1F4FC8010E94C6181816190694F0C9
:101B30000E940C23681979098A099B0946165706E1
:101B400068067906F0F062E370E080E090E00E94C1
:101B50003B23E8CF42E250E0BE016F5F7F4FC801F8
:101B60000E9490188981823031F4F8018589968924
:101B70008334910541F019A6C8010E94201889A557
:101B800066C18FEF64C16D817E818F8198850E94CF
:101B90007C304B015C01F601608371838283938307
:101BA00046E050E0B701685F7F4FCE014D960E943E
:101BB0003532892B99F4F70180819181A281B3811B
:101BC00088169906AA06BB0648F084819581A681ED
:101BD000B78188159905AA05BB0528F4C8010E949C
:101BE000201880E034C189899A89AB89BC89F701C2
:101BF00086879787A08BB18B3EECC32ED12CC80172
:101C00000E946718F1E0CF1AD108C9F719A6C701D9
:101C100082969BA78AA7F701B696FDA7ECA7089620
:101C20009FA78EA73C976F018E9699AB88AB38978C
:101C3000FBABEAAB5701F6E1AF0EB11C47018EE1F9
:101C4000880E911CC8010E940618181619060CF07F
:101C500093CFC8010E9467188333910509F4CDC062
:101C6000F4F481309105B9F11CF4892B59F3DFC0EC
:101C700083309105C1F1069709F0D9C0C8010E94CF
:101C800067183C0144E050E0B401C8010E9490187C
:101C9000212C312C7724F4E06F1A71083FC08A336D
:101CA000910509F47EC03CF48533910561F0C69737
:101CB00009F43FC0BCC08B33910509F488C08F3F45
:101CC000910501F2B4C0C8010E946718C8010E94C2
:101CD000671889A7B7CFC8010E94671844E050E091
:101CE0006AA97BA93AC0C8010E9467183C0144E078
:101CF00050E0B501C8010E949018212C312C7724A6
:101D000094E0691A7108261437040CF09BCFC801BF
:101D10000E946718EFEF2E1A3E0AF5CF26143704FB
:101D20000CF090CFC8010E9467188FEF281A380A6C
:101D3000F5CFC8010E946718782EF701828D8111B6
:101D400010C0838D81110DC0848D81110AC0858DD5
:101D5000811107C044E050E0B601C8010E9490180C
:101D600071CFE8A9F9A92080318042805380B60163
:101D7000CE0183960E947F268DA19EA1AFA1B8A51A
:101D800082159305A405B50529F3212C312C721475
:101D900009F458CFC8010E946718FFEF2F1A3F0AB5
:101DA000F6CFC8010E94671844E050E06CA57DA5FD
:101DB000C8010E949018F70166A177A180A591A59E
:101DC0000E947C3066A377A380A791A73BCFC80170
:101DD0000E94671844E050E06EA57FA5C8010E94EC
:101DE0009018F70162A573A584A595A50E947C3083
:101DF00062A773A784A795A725CFC8010E9467187B
:101E000044E050E06AA57BA5C8010E949018F70144
:101E100062A173A184A195A10E947C3062A373A3E7
:101E200084A395A366A777A780AB91AB0BCFC8011E
:101E30000E946718382E612C712C361409F402CFD9
:101E4000C8010E946718FFEF6F1A7F0AF6CFE3966A
:101E50000FB6F894DEBF0FBECDBFDF91CF911F91BB
:101E60000F91FF90EF90DF90CF90BF90AF909F9039
:101E70008F907F906F905F904F903F902F9008953C
:101E80002F923F924F925F926F927F928F929F928A
:101E9000AF92BF92CF92DF92EF92FF920F931F9378
:101EA000CF93DF93CDB7DEB727970FB6F894DEBF99
:101EB0000FBECDBF8C0120ED37E040E050E061E087
:101EC00070E080E090E00E944A2DD80114966D9356
:101ED0007D938D939C931797F80160837183828320
:101EE00093834801F7E48F0E911CC4010E943218BD
:101EF00064E470E0C4010E941719882309F428C122
:101F00000E940C236B017C01A12CB12C1D821801B5
:101F100086E4280E311CD801DE96BF83AE8338EEEE
:101F2000432E33E0532E612C712CF10180818330DC
:101F300009F4FDC081111FC0F80184819581A6813B
:101F4000B7810196A11DB11D84839583A683B783B4
:101F50000E940C236C197D098E099F09A30192012F
:101F60000E943530A90161E0C8010E94540C81E053
:101F7000D1018C93BEC08430F9F4F801848195813D
:101F8000A681B7810196A11DB11D84839583A68387
:101F9000B7830E940C236C197D098E099F09A30148
:101FA00092010E943530A90163E0C8010E94540CDF
:101FB000E2E0D101EC939DC0813061F5AE81BF813B
:101FC0004D915D916D917C919E012F5F3F4FC801B6
:101FD0000E946D0D8D83823009F08BC089819A81BA
:101FE000AB81BC81F80184839583A683B7830E946B
:101FF0000C236C197D098E099F09A30192010E948F
:102000003530A90163E0C8010E94540CED81D10173
:10201000EC9375C0823009F06CC0AE81BF814D91E8
:102020005D916D917C919E012F5F3F4FC8010E9491
:102030006D0D8D83853009F056C083E0F1018083FA
:10204000F80182A193A1A4A1B5A1892B8A2B8B2B86
:1020500041F484E893E0A0E0B0E082A393A3A4A3BA
:10206000B5A3F80186A197A1A0A5B1A5892B8A2BBC
:102070008B2B61F482A193A1A4A1B5A1B695A795DC
:102080009795879586A397A3A0A7B1A7D8019A96FD
:102090004D915D916D917C919D9796968D919D91BD
:1020A0000D90BC91A02D452B462B472B59F4AC012C
:1020B000BD01440F551F661F771FF80142A753A7A4
:1020C00064A775A7F80186A797A7A0ABB1AB82A5B7
:1020D00093A5A4A5B5A582AB93ABA4ABB5ABAA243D
:1020E000A394B12C0CC0FD81F63019F4D1011C92DF
:1020F00006C0BD81BF3F19F4F10110821D82F1E0DD
:10210000AF16B10409F411CF0E940C236C197D099C
:102110008E099F09D801DA962D913D914D915C91E0
:10212000DD97261737074807590708F0FECEC40188
:102130000E943218F80184819581A681B7810196A9
:10214000A11DB11D84839583A683B783C50102C0F9
:1021500080E090E027960FB6F894DEBF0FBECDBFAB
:10216000DF91CF911F910F91FF90EF90DF90CF9073
:10217000BF90AF909F908F907F906F905F904F90A7
:102180003F902F900895CF92DF92EF92FF920F939E
:102190001F93CF93DF93EC016B011AA21BA21CA229
:1021A0001DA21EA21FA218A619A61AA61BA61CA62F
:1021B0001DA61EAA1FAA18AE19AE2AAF3BAF4CAF80
:1021C0005DAFFC01FE96E082F182028313838C01F5
:1021D000085F1F4F86E0F80111928A95E9F7CE015A
:1021E0000E94000C86E0F601D80101900D928A95BC
:1021F000E1F7FE01EA5BFF4F1082CE01DF91CF9144
:102200001F910F91FF90EF90DF90CF900C94400FB3
:102210008F929F92AF92BF92CF92DF92EF92FF92F6
:102220000F931F93CF93DF93EC010E940C236B015C
:102230007C018EA99FA9A8ADB9AD8E010E5B1F4F81
:10224000892B8A2B8B2B09F48FC0F8018081918117
:10225000A281B381A7019601281B390B4A0B5B0BA6
:10226000CA01B90157FD4EC04601570138EE830E31
:1022700033E0931EA11CB11C28EE33E040E050E097
:102280000E945730861A970AA80AB90AF801808274
:102290009182A282B382DA01C9010196A11DB11D0A
:1022A0004EA55FA568A979A98C019D01000F111F9A
:1022B000221F331F40175107620773072CF41EA615
:1022C0001FA618AA19AA08C0481B590B6A0B7B0B3A
:1022D0004EA75FA768AB79AB4AA95BA96CA97DA99A
:1022E00040175107620773072CF41AAA1BAA1CAAED
:1022F0001DAA08C0481B590B6A0B7B0B4AAB5BAB92
:102300006CAB7DAB8E010A5B1F4FF801808183307F
:1023100081F48EA59FA5A8A9B9A9181619061A06B1
:102320001B063CF084E08083CE010E94400F0196A2
:1023300002C080E090E0F8012081233011F02111EB
:1023400020C04AA95BA96CA97DA91416150616061A
:102350001706BCF0F8011082CE010E94000CCE01DD
:102360000E94400F03960DC0D701C60188519C4FB3
:10237000AF4FBF4FF80180839183A283B38380E086
:1023800090E0CEAADFAAE8AEF9AEDF91CF911F911F
:102390000F91FF90EF90DF90CF90BF90AF909F9004
:1023A0008F900895FB014281538164817581FC0106
:1023B0004283538364837583178216820895CF9373
:1023C000FB0181918111FDCFFB0180E090E020E0D5
:1023D00030E0CAE06191662309F12430310564F5EB
:1023E0006E3271F48F3F910509F034F5DA01A20FD6
:1023F000B31F12968C932F5F3F4F80E090E0EACF9F
:10240000DC01CA9FC001CB9F900D1124772767FD87
:10241000709560537109860F971FDCCF8F3F910530
:1024200009F054F4243031053CF4FA01E20FF31FB3
:10243000828381E090E002C080E090E0CF91089537
:102440000F9300E020E040E060E089ED93E00E941F
:1024500073260F910895AF92BF92CF92DF92EF92C1
:10246000FF920F931F93CF93DF9300D01F92CDB7AE
:10247000DEB76C017B010E940C23F6017783668333
:102480008601085F1F4FB6016A5F7F4F42E050E050
:10249000C8010E94531881E090E09A83898342E04A
:1024A00050E0BE016F5F7F4FC8010E94531880E06B
:1024B00091E09A83898342E050E0BE016F5F7F4FD5
:1024C000C8010E9453181A82198242E050E0BE01EE
:1024D0006F5F7F4FC8010E94531842E050E0BE0179
:1024E0006F5F7F4FC8010E94531842E050E0BE0169
:1024F0006F5F7F4FC8010E9453186701F60180810A
:10250000882311F1F7016F018191811115C05601E6
:10251000AE18BF081A141B0494F4AB8241E050E0DB
:10252000BE016D5F7F4FC8010E945318A501B7011E
:10253000C8010E94531803C08E3229F7E8CF7601F4
:10254000FFEFEF1AFF0ADACF1B8241E050E0BE0135
:102550006D5F7F4FC8010E945318E12CFF24F39454
:10256000FA82E98242E050E0BE016F5F7F4FC8010E
:102570000E945318FA82E98242E050E0BE016F5F88
:102580007F4FC8010E94531881E090E00F900F9098
:102590000F90DF91CF911F910F91FF90EF90DF90FF
:1025A000CF90BF90AF9008954F925F926F927F92BD
:1025B0008F929F92AF92BF92CF92DF92EF92FF9253
:1025C0000F931F93CF93DF93CDB7DEB763970FB60B
:1025D000F894DEBF0FBECDBF7C015B016A010E9493
:1025E0000C232B013C018701085F1F4F4501A12CE3
:1025F000B12CC8010E94C6181816190694F00E9442
:102600000C23641975098609970986169706A8068A
:10261000B906D0F062E370E080E090E00E943B23D6
:10262000E8CFF7014281538164817581818D928D5C
:10263000A38DB48D481759076A077B0741F4858D30
:10264000968DC59721F406C08FEF9FEFF9C08EEFEE
:102650009FEFF6C0C8010E9406180C970CF4EEC05C
:102660004CE050E0BE016F5F7F4FC8010E949018A0
:102670008B819C819827892798279A8B898BF701D2
:102680004681578129813A814217530711F497FDFA
:1026900006C0C8010E9420188CEF9FEFD1C08F7038
:1026A0009270892B31F0C8010E9420188BEF9FEFA8
:1026B000C7C0AF80B884BA24AB24BA24A114B10433
:1026C00019F0E12CF12C23C0C8010E9420188AEFD8
:1026D0009FEFB6C041E050E0BE01635F7F4FC8018D
:1026E0000E9490188D8581111BC08D858111F2CFBC
:1026F000C8010E946718C8010E946718C8010E949B
:102700006718C8010E946718FFEFEF1AFF0A8D8152
:102710009E81982789279827E816F906D8F20AC0DB
:102720008D859FEF980F9D878823F9F2C8010E943D
:102730006718F6CFE12CF12C41E050E0BE016D5E50
:102740007F4FC8010E9490188B89982F907C61F46C
:10275000882371F08B899FEF980F9B8B882341F022
:10276000C8010E946718F6CFC8010E9467181B8A2B
:102770008B898111E1CF42E050E0BE01615F7F4F64
:10278000C8010E94901842E050E0BE01635F7F4F95
:10279000C8010E949018C8010E946718C8010E94D1
:1027A0006718C8010E946718C8010E94671842E0B4
:1027B00050E0BE016F5E7F4FC8010E9490188F8568
:1027C00098898115914029F48D859E8581159140C8
:1027D00019F0812C912C16C089899A898115944011
:1027E00031F0C8010E94201887EF9FEF29C0B60181
:1027F0006E5F7F4F44E050E0C8010E94901881E076
:1028000090E01EC089899A89982789279827881679
:10281000990638F4C8010E9467182FEF821A920AAD
:10282000F1CF8FEFE81AF80AEA14FB0409F084CF1D
:10283000C8010E94201886EF9FEF02C08DEF9FEF26
:1028400063960FB6F894DEBF0FBECDBFDF91CF9178
:102850001F910F91FF90EF90DF90CF90BF90AF90BE
:102860009F908F907F906F905F904F9008958F9280
:102870009F92AF92BF92CF92DF92EF92FF920F930F
:102880001F93CF93DF9300D000D000D0CDB7DEB739
:102890008C015B016A010E94DF114C01009709F075
:1028A0005DC0F80142815381648175818091DB03B1
:1028B0009091DC03A091DD03B091DE034817590726
:1028C0006A077B0709F44EC00E940C237801F8E0E8
:1028D000EF0EF11C6F7077277C5FC7010E941719FC
:1028E000813009F043C081EA91E09A838983F8013D
:1028F00082819381A481B5818B839C83AD83BE83C8
:1029000045E350E0BE016F5F7F4FC7010E9447184B
:10291000892B19F4812C912C1DC0B501C8010E948E
:102920002B12892BB9F3C7010E944F18892B91F301
:1029300033E0A32EB12CA60168E873E1C8010E9420
:10294000D4124C01F1E0AF1AB10821F08F3F2FEF04
:10295000920789F3C7010E94321808C08824839423
:10296000912C04C09EEF892E99249A94C401269636
:102970000FB6F894DEBF0FBECDBFDF91CF911F9190
:102980000F91FF90EF90DF90CF90BF90AF909F900E
:102990008F90089524E030E0AC0164E081E090E0A5
:1029A0000C94151C24E030E0AC0164E085E090E07C
:1029B0000C94151C26E030E0AC0164E089E090E066
:1029C0000C94151C24E030E0AC0164E08FE090E052
:1029D0000C94151CAF92BF92CF92DF92EF92FF92B0
:1029E0000F931F93CF93DF9300D000D000D0CDB7CB
:1029F000DEB76C015B0182E690E00E94BD268C018F
:102A000082E6F80111928A95E9F7C801895B9F4F28
:102A10000E944A19F6011783068387E194E00E9419
:102A2000F21BC5010E94DA1400E020E040E060E003
:102A3000CE0101960E947326CE0103960E94E214F5
:102A400018E8E12E13E1F12E00E010E020E63AEE66
:102A500040E050E0B501F601868197810E94C310E5
:102A60008C018130910589F5F60166817781CE016F
:102A700001960E94070CCE0103960E94E214F60113
:102A800066817781CE0101960E941D0CCE010396CE
:102A90000E94CA14F60166817781CE0101960E94D8
:102AA000120CCE0103960E94D214F6016681778142
:102AB000CE0101960E94280C4B815C816D817E8144
:102AC000F6014283538364837583C80126960FB64B
:102AD000F894DEBF0FBECDBFDF91CF911F910F9154
:102AE000FF90EF90DF90CF90BF90AF900895EF925E
:102AF000FF920F931F93CF93DF9300D000D000D0AD
:102B0000CDB7DEB78C01FC01868197810097E1F19A
:102B10000E9408117C018230910521F084E0E816C2
:102B2000F104A1F5F80166817781CE0101960E943A
:102B3000070CCE0103960E94E214F80166817781AA
:102B4000CE0101960E941D0CCE0103960E94CA146C
:102B5000F80166817781CE0101960E94120CCE01A8
:102B600003960E94D214F80166817781CE01019606
:102B70000E94280C4B815C816D817E81F80142832B
:102B800053836483758302C0E12CF12CC701269620
:102B90000FB6F894DEBF0FBECDBFDF91CF911F916E
:102BA0000F91FF90EF90089521EA31E0FC0131830D
:102BB0002083FB014281538164817581FC01428342
:102BC00053836483758308950F9300E020E040E011
:102BD00060E087EF93E00E9473268FED93E00F9102
:102BE0000C946926DC01ED91FC91008CF18DE02DB7
:102BF000099591E089270895CF93DF931F92CDB770
:102C0000DEB76983DC01ED91FC910280F381E02D58
:102C100041E050E0BE016F5F7F4F09950F90DF915B
:102C2000CF91089521E0FC018485883009F420E0EB
:102C3000822F0895FC019485FB018485981303C0BD
:102C400081E0983009F480E008950F931F93CF93AB
:102C5000DF93EC018A018C85883021F00E94A71A4D
:102C6000892B39F481E090E09B838A8380E090E0B7
:102C700001C0C801DF91CF911F910F910895FC0110
:102C80006485683021F087E194E00C94C31C80E0F7
:102C900090E00895CF93DF931F92CDB7DEB741E068
:102CA00050E0BE016F5F7F4FFC0184850E94F91ADE
:102CB000181619061CF4898190E002C08FEF9FEF6F
:102CC0000F90DF91CF910895FC0184850C94F91A3F
:102CD0000F931F93CF93DF931F92CDB7DEB78C0175
:102CE000DC01ED91FC910480F581E02D0995892BA3
:102CF00051F0BE016F5F7F4FF80184850E943D1B3C
:102D0000898190E002C08FEF9FEF0F90DF91CF910C
:102D10001F910F910895FC0184850C944B1BCF9259
:102D2000DF92EF92FF920F931F93CF93DF93CDB774
:102D3000DEB7AF970FB6F894DEBF0FBECDBF7C01F4
:102D40008B016A01CE0101960E946926CE01099687
:102D50000E944A19CE018A960E9469266FED73E09F
:102D6000CE0184960E94D415BE016C5D7F4FCE01CA
:102D700001960E94D211AE01465D5F4FB801CE01AF
:102D800001960E94371481309105C1F4D701ED916D
:102D9000FC910484F585E02D81EA91E09DA38CA34C
:102DA0000CA51DA52EA53FA50EA31FA328A739A7D7
:102DB000A601BE016C5D7F4FC7010995AF960FB6A6
:102DC000F894DEBF0FBECDBFDF91CF911F910F9161
:102DD000FF90EF90DF90CF900895FC011382128254
:102DE00048EE53E060E070E0448355836683778368
:102DF0008DE491E09183808388E084870895FC01CD
:102E00006485683041F06295660F607E685F83E09C
:102E100090E00C94531C80E00895DF92EF92FF92B3
:102E20000F931F93CF93DF93EC017B018A018C8575
:102E3000883009F04BC0D12C6D2D6295660F607EF5
:102E4000685F83E090E00E94531C811102C0DC8621
:102E500007C08B7F8831D9F3D39488E0D812ECCFA8
:102E60008C85883099F120910A0130910B012F5FF8
:102E70003F4F11F420E034E030930B0120930A011E
:102E800040910A0150910B0120E061E00E942A1A52
:102E9000B7016E5F7F4FA8018C850E946A1A81116D
:102EA00003C088E08C8712C0CE010E94FF168731D4
:102EB00051F061E070E080E090E00E943B23CE01A1
:102EC0000E94FF16ECCF81E090E002C080E090E02D
:102ED000DF91CF911F910F91FF90EF90DF900895B8
:102EE000CF92DF92EF92FF92CF93DF93EC018C852C
:102EF000883081F10E94A01A0E940C236B017C0192
:102F0000CE010E94FF16882359F00E940C236C19F1
:102F10007D098E099F09683E73408105910598F0EF
:102F2000CE010E94FF16882319F08C850E941C1A7E
:102F3000EC85F0E0EE0FFF1FE951FC4F118210828B
:102F400088E08C8707C061E070E080E090E00E943C
:102F50003B23D6CFDF91CF91FF90EF90DF90CF90C2
:102F60000895CF93DF93EC018C858830D1F0CE01AA
:102F70000E94FF168431A9F0882399F0883189F0E6
:102F80008C3169F4E881F9810480F581E02DCE016E
:102F9000099521E0892B09F420E0822F03C081E00C
:102FA00001C080E0DF91CF9108950F9300E020E011
:102FB00040E060E08DEF93E00E9473260F9108954A
:102FC0000F9300E020E040E060E083E094E00E94A6
:102FD00073260F910895DC01ED91FC91008CF18D29
:102FE000E02D099421EA31E0FC0131832083FB01CB
:102FF0004189528963897489FC01428353836483C4
:1030000075830895FC01858996890895FC01818D59
:10301000928D0895CF93DF931F92CDB7DEB769836A
:10302000DC01ED91FC910280F381E02D41E050E064
:10303000BE016F5F7F4F09950F90DF91CF9108958B
:10304000CF93DF93EC01898D9A8D892B41F0E88134
:10305000F9810680F781E02DCE010995F4CFDF914B
:10306000CF910895CF93DF93EC018C85883061F088
:103070000E941C1AEC85F0E0EE0FFF1FE951FC4F97
:103080001182108288E08C87DF91CF910895FC0136
:10309000108E178A6E5F7F4F84850C947A1BFC011B
:1030A00084850C949F1BCF93DF93EC019A018F8949
:1030B000988DAB01BC018C850E944C1B2F89388DEB
:1030C000280F391F388F2F8BDF91CF9108950F93E1
:1030D0001F93CF93DF931F92CDB7DEB78C01FC0116
:1030E000818D928D892B59F041E050E0BE016F5FD8
:1030F0007F4F84850E94F91A181619061CF08FEF6D
:103100009FEF08C0F801818D928D0197928F818F7A
:10311000898190E00F90DF91CF911F910F910895D9
:10312000CF93DF93EC01898D9A8D009719F48FEF7F
:103130009FEF10C04817590708F0AC018C850E941A
:10314000F91A181619069CF7298D3A8D281B390B88
:103150003A8F298FDF91CF910895CF93DF931F92FC
:10316000CDB7DEB7FC01218D328D232B49F0BE0196
:103170006F5F7F4F84850E943D1B898190E002C074
:103180008FEF9FEF0F90DF91CF9108950F931F93D3
:10319000CF93DF93CDB7DEB728970FB6F894DEBF95
:1031A0000FBECDBF8C01DC01ED91FC910284F38553
:1031B000E02D0995F801648587E194E00E94C31C25
:1031C000892B41F148E050E0BE016F5F7F4FD8018D
:1031D0001C968C910E94F91A18161906ECF4BE017F
:1031E0006F5F7F4FC8010F960E948F268D8190E000
:1031F000982F88272E81820F911DF801968B858B41
:103200008F8190E0982F88272885820F911D928FBB
:10321000818F02C080E090E028960FB6F894DEBF60
:103220000FBECDBFDF91CF911F910F910895FF92F7
:103230000F931F93CF93DF93EC018B018C85883024
:1032400011F5F12C6F2D6295660F607E685F83E04B
:1032500090E00E94531C811102C0FC8606C0883198
:10326000E1F3F39488E0F812EDCF8C85883059F0C3
:103270001E870D871A8E198E20E0A80162E00E9439
:103280002A1A81E001C080E0DF91CF911F910F9158
:10329000FF900895FC011382128248EE53E060E033
:1032A00070E044835583668377838DE691E0918354
:1032B000808388E08487CF010F960C946926CF9293
:1032C000DF92EF92FF920F931F93CF93DF93CDB7CF
:1032D000DEB7AF970FB6F894DEBF0FBECDBF7C014F
:1032E0008B016A01CE0101960E946926CE010996E2
:1032F0000E944A19CE018A960E9469266FED73E0FA
:10330000CE0184960E94D415BE016C5D7F4FCE0124
:1033100001960E94D211AE01465D5F4FB801CE0109
:1033200001960E94371481309105C1F4D701ED91C7
:10333000FC910088F189E02D81EA91E09DA38CA3A6
:103340000CA51DA52EA53FA50EA31FA328A739A731
:10335000A601BE016C5D7F4FC7010995AF960FB600
:10336000F894DEBF0FBECDBFDF91CF911F910F91BB
:10337000FF90EF90DF90CF9008950F9300E020E052
:1033800040E060E089E094E00E9473260F91089588
:103390000F9300E020E040E060E08FE094E00E94C6
:1033A00073260F910895AB01682F6295660F607EBA
:1033B000645F24E030E08CE090E00C94151C9B01ED
:1033C000682F6295660F607E685FC9010C94531C7C
:1033D00062E070E00C94DF199B01682F6295660F24
:1033E000607E645FC9010C94CC1BCF93DF93C82F20
:1033F000D62F472F64E070E00E94EC194D2F65E056
:1034000070E08C2FDF91CF910C94EC19462F62E085
:1034100070E00C94EC19CF93DF93C82FD62F472F71
:1034200060E170E00E94EC194D2F61E170E08C2F9B
:10343000DF91CF910C94EC19CF93C82F40E150E06D
:10344000682F87E194E00E94D11D6FEF8C2FCF9100
:103450000C94061AEF92FF921F93CF93DF9300D044
:10346000CDB7DEB7182F7A018FEF860F853048F57C
:10347000812F2A8369830E941C1A2A816981462F21
:10348000422B60E070E0812F0E94EC19E114F104FE
:1034900011F0B7010AC060911504709116046F5FB6
:1034A0007F4F7093160460931504812F0E94F519C5
:1034B00041E050E0612F87E194E00E94D11D81E05E
:1034C00001C080E00F900F90DF91CF911F91FF908E
:1034D000EF9008951F93CF93DF93182FFB01EA011C
:1034E00080818F3F51F481818F3F91F482818F3FA2
:1034F00079F483818F3F61F41EC0811109C08181FD
:10350000811106C08281811103C08381882399F0D3
:10351000209789F0BF01812F0E94D319BE01812F0E
:103520000E940B1A44E050E0612F87E194E00E9472
:10353000D11D81E001C080E0DF91CF911F910895FE
:1035400048E050E0682F87E194E00C94D11DDF92B1
:10355000EF92FF920F931F93CF93DF93D82E8B019F
:10356000EA01413088E0580710F0C0E0D8E06D2D46
:1035700087E194E00E948E1C7C0163E070E08D2D59
:103580000E94DF19873111F08C3121F4EC16FD0611
:1035900070F302C0C0E0D0E09E01A8016D2D87E16C
:1035A00094E00E941D1D40E250E06D2D87E194E003
:1035B0000E94D11D8D2D0E94E81984FD0DC063E08D
:1035C00070E08D2D0E94DF198111F4CF8D2D0E94A6
:1035D0001C1A80E090E005C060E18D2D0E94061A63
:1035E000CE01DF91CF911F910F91FF90EF90DF906F
:1035F0000895DF92EF92FF920F931F93CF93DF9383
:10360000D82E7B018A01682F87E194E00E94C31CB9
:10361000EC01009799F463E070E08D2D0E94DF19B2
:10362000843111F1882301F1C1E0D0E08C3111F433
:10363000C0E0D0E0D195C195D10916C0081719078F
:103640000CF4E8011C161D067CF400E09E01A701A5
:103650006D2D87E194E00E94801D40E450E06D2DC7
:1036600087E194E00E94D11DCE01DF91CF911F919F
:103670000F91FF90EF90DF9008950F93AB0101E061
:1036800021E030E0682F87E194E00E94801D81E016
:1036900090E00F9108950895BF92CF92DF92EF923C
:1036A000FF920F931F93CF93DF93B82E7B016A0194
:1036B000E901682F87E194E00E948E1C8C179D071A
:1036C00030F46B2D87E194E00E948E1CEC018E019A
:1036D0009601A7016B2D87E194E00E94DF1CCE01CB
:1036E000DF91CF911F910F91FF90EF90DF90CF90DE
:1036F000BF9008951F93CF93DF93182FFB01EA012A
:103700008081811109C08181811106C0828181116E
:1037100003C08381882369F0209759F0BF01812F6E
:103720000E94D319BE01812F0E940B1A81E090E004
:1037300002C080E090E0DF91CF911F910895CF9378
:10374000C82F40E250E0682F87E194E00E94D11D2D
:103750008C2F0E94E81984FD0CC08C2F0E94E81960
:1037600083FFF6CF68E18C2F0E94061A80E090E07C
:1037700006C060E18C2F0E94061A81E090E0CF9194
:1037800008958EBD00000DB407FEFDCF8EB50895DF
:103790002E9808952E9A08951F93CF93DF9300D00B
:1037A0001F92CDB7DEB7182F4B836A8399830E948F
:1037B000C81B9981892F0E94C11B812F0E94C11BA8
:1037C0006A81862F0E94C11B4B81842F0E94C11BDE
:1037D0000E94CA1B81E00F900F900F90DF91CF9154
:1037E0001F910895CF93DF9368EE73E080E090E03F
:1037F0000E943B23269A0E94CA0BC0E0DC2FD29580
:10380000DD0FD07ED45F42E06D2F8EE190E00E940C
:10381000CC1B42E06D2F8FE190E00E94CC1BCF5F6C
:10382000C83061F7DF91CF910895CF92DF92EF9288
:10383000FF920F931F93CF93DF9300D000D0CDB7AB
:10384000DEB7F82E89014B835C836A8399830E94DB
:10385000C81B89810E94C11B8F2D0E94C11B6A81D8
:10386000862F0E94C11B4B81C42E5C81D52E760110
:10387000E00EF11ECE14DF0431F0F60181916F01EC
:103880000E94C11BF7CF0E94CA1BC8010F900F9066
:103890000F900F90DF91CF911F910F91FF90EF90BC
:1038A000DF90CF9008951F93CF93DF9300D0CDB7D3
:1038B000DEB7182F6A8399830E94C81B89810E94F2
:1038C000C11B812F0E94C11B6A81862F0E94C11BD0
:1038D00080E00E94C11B89830E94CA1B89810F90CE
:1038E0000F90DF91CF911F9108951F93CF93DF9396
:1038F000182F60E270E00E94DF19C82FD0E0DC2FA3
:10390000CC2761E270E0812F0E94DF199E01280F11
:10391000311DC901DF91CF911F910895FF920F933F
:103920001F93CF93DF93F62EC0E0D0E08F2D0E943F
:10393000751C8C01009721F08F2D0E94751CEC01E5
:10394000C017D10799F7CE01DF91CF911F910F9149
:10395000FF9008951F93CF93DF93182F66E270E0D6
:103960000E94DF19C82FD0E0DC2FCC2767E270E07F
:10397000812F0E94DF199E01280F311DC901DF919F
:10398000CF911F910895FF920F931F93CF93DF93D1
:10399000F62EC0E0D0E08F2D0E94AA1C8C0100976B
:1039A00021F08F2D0E94AA1CEC01C017D10799F7B6
:1039B000CE01DF91CF911F910F91FF900895CF928B
:1039C000DF92EF92FF920F931F93CF93DF93D62E48
:1039D000EA01790164E270E08D2D0E94DF19C82EA2
:1039E00065E270E08D2D0E94DF19C80FD11D2C2DCE
:1039F00030E0322F2227C20FD31F6D2D6295660F44
:103A0000607E6C5E9801A701CE010E94151CC00F5C
:103A1000D11F4D2F64E270E08D2D0E94EC194C2FC8
:103A200065E270E08D2DDF91CF911F910F91FF9096
:103A3000EF90DF90CF900C94EC190F931F938901B6
:103A40009A0140E050E00E94DF1C1F910F91089501
:103A5000CF92DF92EF92FF920F931F93CF93DF935A
:103A600000D000D0CDB7DEB7F82E89014B835C8340
:103A70006A8399830E94C81B89810E94C11B8F2D74
:103A80000E94C11B6A81862F0E94C11B4B81C42EDC
:103A90005C81D52E7601E00EF11ECE14DF0439F0E4
:103AA00080E00E94C11BF60181936F01F6CF0E9456
:103AB000CA1BC8010F900F900F900F90DF91CF910C
:103AC0001F910F91FF90EF90DF90CF9008950F938B
:103AD0001F93CF93DF9300D0CDB7DEB75A834983CE
:103AE000A901980189819A816295660F607E685E5E
:103AF0000F900F90DF91CF911F910F910C94281D83
:103B00008F929F92AF92BF92CF92DF92EF92FF92ED
:103B10000F931F93CF93DF936C01962E5A01790177
:103B2000802E68E270E0892D0E94DF19C82F69E2BB
:103B300070E0892D0E94DF19D0E0DC2FCC27C80F60
:103B4000D11D87019501AE01692DC6010E94671D37
:103B500081101AC0CE0DDF1D4D2F68E270E0892D57
:103B60000E94EC194C2F69E270E0892DDF91CF9112
:103B70001F910F91FF90EF90DF90CF90BF90AF908B
:103B80009F908F900C94EC19DF91CF911F910F9122
:103B9000FF90EF90DF90CF90BF90AF909F908F906D
:103BA0000895CF93C62F61E070E08C2F0E94EC192E
:103BB00061E070E08C2F0E94DF198111F9CFCF9165
:103BC0000895FF920F931F93CF93DF93FC01008121
:103BD000C181D281F8948981F02EF0948F2189835C
:103BE00078941DE7115029F182E090E00E9475233E
:103BF00088818023B9F3F8948A818F218A8389810F
:103C0000802B8983789480EE91E00E947523F8944C
:103C100089818F21898386E490E00E9475238881C1
:103C2000802311E009F010E078948AE991E00E9485
:103C30007523812FDF91CF911F910F91FF900895F0
:103C40001F93CF93DF93FC011081C181D281912F0B
:103C5000909560FF12C0F8948A8189238A838981B4
:103C6000812B89838AE090E00E9475238A81812BD1
:103C70008A83789487E390E011C0F8948A8189233D
:103C80008A838981812B898381E490E00E94752356
:103C90008A81812B8A83789485E090E0DF91CF91AF
:103CA0001F910C9475230F931F93CF93DF93FC0107
:103CB0001081C181D281F8948981812B89838A8185
:103CC000012F009580238A8383E090E00E94752372
:103CD0008981802389838AE090E00E947523C881CE
:103CE000789485E390E00E9475231C2381E009F419
:103CF00080E0DF91CF911F910F910895CF92DF92D5
:103D0000EF92FF920F931F93CF93DF931F92CDB744
:103D1000DEB76C01E62E08E010E0FF24F39461E0CA
:103D20009F2D9E2109F460E0C60149830E94201E58
:103D3000FF0C0150110949810115110581F741114D
:103D400015C0F894D6011196ED91FC9112979181CE
:103D50008C918095892381831196ED91FC91129726
:103D600092818C9180958923828378940F90DF9142
:103D7000CF911F910F91FF90EF90DF90CF9008951A
:103D8000EF92FF920F931F93CF93DF938C01C8E0C4
:103D9000D0E0F12CEE24E394C8010E94531E81115F
:103DA000FE28EE0C2197C1F78F2DDF91CF911F9147
:103DB0000F91FF90EF900895CF92DF92FF920F93B3
:103DC0001F93CF93DF931F92CDB7DEB78C01F62EF2
:103DD00040E065E579830E947E1ECF2C7981D72E45
:103DE00088E0F82EF60161916F0140E0C8010E9461
:103DF0007E1EFA94B9F70F90DF91CF911F910F912A
:103E0000FF90DF90CF900895FC01138615861486ED
:103E100027E030E0DF01A20FB31F13961C9221159B
:103E2000310519F021503109F5CF08951F93CF9333
:103E3000DF93EC01162F60E0812F0E944424612F54
:103E400070E0FB01E45EFD4FE491E883FB01E55C7B
:103E5000FD4FE491F0E0EE0FFF1FE65AFD4F859114
:103E600094919A838983CE01DF91CF911F910C9415
:103E7000041FAF92BF92CF92DF92EF92FF920F9307
:103E80001F93CF93DF931F92CDB7DEB75C01D62E81
:103E9000E72EFC018585811164C0C50149830E941C
:103EA000E11D4981811105C0F5011386158614862F
:103EB00071C0442319F040E060EF02C040E06CEEB6
:103EC000C5010E947E1E01E0F12CC12C11E0C5014C
:103ED0000E94531E682FC50169830E94531E698189
:103EE000613019F48130B9F433C02F2D30E06813FC
:103EF0001BC0F5018385181730F4E20FF31F83818F
:103F0000802349F402C0181731F060E0193058F4EA
:103F1000F501148708C0F501EF0DF11D8381802B99
:103F2000838361E009C0C12EF501E20FF31F838195
:103F3000902F909589238383C5010E94201E1F5FC7
:103F4000000F11F4F39401E0F7E0FF1508F0BFCF84
:103F5000113438F0F501C386C11009C081E08587AE
:103F600006C0F50113861586148680E013C0F5019E
:103F700083818823B1F3ED2DFE2D80E090E0D50103
:103F8000A80FB91F13962C912193019688309105A3
:103F9000B1F781E00F90DF91CF911F910F91FF90CA
:103FA000EF90DF90CF90BF90AF900895DC0180E05C
:103FB000615038F0ED91E827F0E0EF50FF4F849129
:103FC000F7CF0895FC017183608353834283089582
:103FD000CF92DF92EF92FF920F931F93CF93DF93D5
:103FE000C62ED42E790100E010E0C0E0D0E00E151E
:103FF0001F0594F461E08D2D0E947D24CC0FDD1F00
:104000008C2D0E94B324C80FD91F60E08D2D0E9413
:104010007D240F5F1F4FEBCFCE01DF91CF911F911A
:104020000F91FF90EF90DF90CF9008951F93CF9363
:10403000DF93162FC42FD22F61E0842F0E944424D7
:1040400061E08D2F0E94442461E08C2F0E947D242A
:1040500061E08D2F0E947D2460E08C2F0E947D24E2
:1040600060E08D2F0E947D2461E08D2F0E947D24D1
:1040700061E08C2F0E947D2460E08D2F0E947D24C2
:10408000212F41E06D2F8C2F0E94DC2461E08D2FC9
:104090000E947D2462E08C2F0E9444248C2F0E9479
:1040A000B32460E08D2F0E947D248C2FDF91CF916F
:1040B0001F910C94B3241F93CF93DF93162F62E0CC
:1040C000812F0E944424C8EED3E061E070E080E0DC
:1040D00090E00E943B23812F0E94B324892B11F092
:1040E000219799F7DF91CF911F910895CF92DF9299
:1040F000EF92FF920F931F93CF93DF938C01F62ED5
:10410000D72EE42EC52E62E08F2D0E94442461E05C
:104110008E2D0E94442428E030E04E2D5C2D6F2D22
:104120007D2DC8010E94E81FD82F80E0C82F61E0D4
:104130008F2D0E94442461E08F2D0E947D2460E039
:104140008F2D0E947D2461E08E2D0E947D2460E0F1
:104150008E2D0E947D2462E08F2D0E94442428E051
:1041600030E04E2D5C2D6F2D7D2DC8010E94E81F83
:104170008C2B9D2BDF91CF911F910F91FF90EF9092
:10418000DF90CF900895CF93DF93D62FC42F61E0B7
:104190008D2F0E94442461E08C2F0E94442461E012
:1041A0008D2F0E947D2461E08C2F0E947D2460E091
:1041B0008C2FDF91CF910C947D240F931F93CF937D
:1041C000DF93EC012A813B814881598163E070E0F3
:1041D0000E94162068817981CE010E945B204A816D
:1041E0005B8168817981CE010E9476208C014A81B1
:1041F0005B8168817981CE010E94C320B801882744
:1042000077FD8095982F0E94062FDF91CF911F9107
:104210000F9108950E94DD200E94D32E882777FDFC
:104220008095982F0E94062F2AE037ED43E25CE349
:104230000E94BA2F20E030E040E252E40E94022EB9
:1042400008954F925F926F927F928F929F92AF925A
:10425000BF92CF92DF92EF92FF92CF93DF93EC0168
:104260002A813B814881598165E070E00E941620D7
:1042700068817981CE010E945B204A815B816881DF
:104280007981CE010E9476207C014A815B81688120
:104290007981CE010E94C320B701882777FD8095E0
:1042A000982F0E94062F6B017C0124E533EE45E236
:1042B0005DE30E94BA2F20E030E040E850E40E9425
:1042C000022E4B015C0122EA37EE4BE356EBC701AD
:1042D000B6010E94BA2FA70196010E94BA2F9B0136
:1042E000AC01C501B4010E94032E4B015C01CE015B
:1042F0000E940A212B013C012CEA35EC47EA58E3E5
:10430000C701B6010E94BA2F2AE037ED43E25CE311
:104310000E94032E9B01AC01C301B2010E94BA2F7F
:10432000A50194010E94032EDF91CF91FF90EF90A1
:10433000DF90CF90BF90AF909F908F907F906F90C5
:104340005F904F9008950F9300E020E040E060E020
:1043500088E194E00E9473260F91089508958530B6
:1043600008F04CC0E82FF0E0EE0FFF1FE45FFE4FB7
:10437000718360838230E1F018F4813069F004C009
:10438000833019F1843071F1809169008C7F842B26
:1043900080936900E89A089580916900440F551F41
:1043A000440F551F837F842B80936900E99A0895F9
:1043B0008091690034E0440F551F3A95E1F78F7CF6
:1043C000842B80936900EA9A08958091690026E021
:1043D000440F551F2A95E1F78F73842B8093690052
:1043E000EB9A089580916A0094E0440F551F9A95C6
:1043F000E1F78F7C842B80936A00EE9A08951F92D8
:104400000F920FB60F9211242F933F934F935F9308
:104410006F937F938F939F93AF93BF93EF93FF938C
:10442000E0910C01F0910D010995FF91EF91BF9181
:10443000AF919F918F917F916F915F914F913F913C
:104440002F910F900FBE0F901F9018951F920F92F3
:104450000FB60F9211242F933F934F935F936F9357
:104460007F938F939F93AF93BF93EF93FF93E091CD
:104470000E01F0910F010995FF91EF91BF91AF915E
:104480009F918F917F916F915F914F913F912F916C
:104490000F900FBE0F901F9018951F920F920FB69E
:1044A0000F9211242F933F934F935F936F937F93BA
:1044B0008F939F93AF93BF93EF93FF93E09110017E
:1044C000F09111010995FF91EF91BF91AF919F91EB
:1044D0008F917F916F915F914F913F912F910F90AD
:1044E0000FBE0F901F9018951F920F920FB60F924C
:1044F00011242F933F934F935F936F937F938F93E9
:104500009F93AF93BF93EF93FF93E0911201F091CC
:1045100013010995FF91EF91BF91AF919F918F91F9
:104520007F916F915F914F913F912F910F900FBEAF
:104530000F901F9018951F920F920FB60F92112493
:104540002F933F934F935F936F937F938F939F939B
:10455000AF93BF93EF93FF93E0911401F091150196
:104560000995FF91EF91BF91AF919F918F917F91AD
:104570006F915F914F913F912F910F900FBE0F90D0
:104580001F9018951F920F920FB60F9211242F9320
:104590003F938F939F93AF93BF9380911F0490910C
:1045A0002004A0912104B091220430911E0423E044
:1045B000230F2D3720F40196A11DB11D05C026E85B
:1045C000230F0296A11DB11D20931E0480931F048A
:1045D00090932004A0932104B0932204809123049B
:1045E00090912404A0912504B09126040196A11D68
:1045F000B11D8093230490932404A0932504B093C9
:104600002604BF91AF919F918F913F912F910F9071
:104610000FBE0F901F9018952FB7F89460911F044C
:104620007091200480912104909122042FBF08955D
:104630003FB7F8948091230490912404A09125041D
:10464000B091260426B5A89B05C02F3F19F001960E
:10465000A11DB11D3FBF6627782F892F9A2F620FAA
:10466000711D811D911D42E0660F771F881F991FE4
:104670004A95D1F708958F929F92AF92BF92CF92B1
:10468000DF92EF92FF926B017C010E9418234B0195
:104690005C01C114D104E104F104F1F00E94662D23
:1046A0000E941823681979098A099B09683E73409A
:1046B0008105910570F321E0C21AD108E108F108E3
:1046C00088EE880E83E0981EA11CB11CC114D10491
:1046D000E104F10429F7DDCFFF90EF90DF90CF9058
:1046E000BF90AF909F908F9008958230910538F0E1
:1046F000880F991F880F991F05970197F1F7089563
:10470000789484B5826084BD84B5816084BD85B5AC
:10471000826085BD85B5816085BDEEE6F0E0808173
:1047200081608083E1E8F0E0108280818260808394
:10473000808181608083E0E8F0E080818160808317
:10474000E1E9F0E080818260808380818160808304
:10475000E0E9F0E0808181608083E1ECF0E080813D
:104760008460808380818260808380818160808397
:10477000E3ECF0E0808181608083E0ECF0E0808118
:1047800082608083E2ECF0E0808181608083EAE7F0
:10479000F0E080818460808380818260808380817A
:1047A000816080838081806880830895823108F0F1
:1047B0008251E82FF0E0EF50FE4FE49180917B00B2
:1047C000E3FB222720F930E095E0220F331F9A9572
:1047D000E1F78F7D822B80937B00E770809116013B
:1047E00020E4829FC0011124E82BE0937C0080919B
:1047F0007A00806480937A0080917A0086FDFCCFF5
:10480000809178002091790090E0922B089590E0BB
:10481000FC013197EF30F105B0F5EA5AFF4F0C94E7
:104820007630809180008F7703C0809180008F7DEB
:1048300080938000089580918000877FF9CF84B5B0
:104840008F7702C084B58F7D84BD089580919000DC
:104850008F7707C0809190008F7D03C0809190007A
:10486000877F8093900008958091C0008F7703C068
:104870008091C0008F7D8093C00008958091C20018
:10488000877F8093C2000895CF93DF9390E0FC016F
:10489000E45EFD4F2491FC01E55CFD4F849188238B
:1048A00049F190E0880F991FFC01EA58FD4FA5914E
:1048B000B49188599D4FFC01C591D4919FB7611166
:1048C00008C0F8948C91209582238C938881822350
:1048D0000AC0623051F4F8948C91322F30958323C2
:1048E0008C938881822B888304C0F8948C91822BCE
:1048F0008C939FBFDF91CF9108950F931F93CF9318
:10490000DF931F92CDB7DEB7282F30E0F901E350D7
:10491000FE4F8491F901E45EFD4F1491F901E55CCD
:10492000FD4F04910023C9F0882321F069830E9480
:1049300007246981E02FF0E0EE0FFF1FE859FD4FDB
:10494000A591B4919FB7F8948C91611103C0109513
:10495000812301C0812B8C939FBF0F90DF91CF915A
:104960001F910F910895CF93DF93282F30E0F90125
:10497000E350FE4F8491F901E45EFD4FD491F901BB
:10498000E55CFD4FC491CC2391F081110E94072476
:10499000EC2FF0E0EE0FFF1FE65AFD4FA591B4910A
:1049A0002C912D2381E090E021F480E002C080E092
:1049B00090E0DF91CF910895BF92CF92DF92EF9276
:1049C000FF920F931F93CF93DF93C82ED62EB42E52
:1049D000C7E0D0E0022F10E087E0E82EF12CB11004
:1049E0000AC0F701EC1BFD0BB80102C07595679575
:1049F000EA95E2F707C0B8010C2E02C075956795DD
:104A00000A94E2F7617077278C2D0E947D2461E083
:104A10008D2D0E947D2460E08D2D0E947D242197A4
:104A2000F0F6DF91CF911F910F91FF90EF90DF9003
:104A3000CF90BF900895CF93DF931F92CDB7DEB78D
:104A40006983DC01ED91FC910280F381E02D41E06E
:104A500050E0BE016F5F7F4F09950F90DF91CF91BE
:104A60000895CF93DF93EC018C859D8597FF05C05A
:104A700082E00E94E8299D878C878C859D85DF9147
:104A8000CF91089583E00C947C2CFC01848595855E
:104A900097FD06C082E00E94902990E0019608955B
:104AA00082E00E94902990E00895FC01848595851C
:104AB00097FD05C02FEF3FEF35872487089582E0EB
:104AC0000C94E829CF93DF93EC0180912201882395
:104AD00031F083E00E94192A1816190634F081E09B
:104AE00090E09B838A8380E090E0DF91CF910895EE
:104AF000FC0120812E5F208342E450E064E872E0F4
:104B000080E80C94B42AFC0121818081813A59F417
:104B1000213209F04BC047E050E06BE171E080E0EA
:104B20000E94B42A5EC0813209F040C0233289F469
:104B3000838190E0982F88273281832BA0E0B0E01A
:104B40008093170190931801A0931901B0931A0153
:104B50000FC0203239F467E070E08BE191E00E94F1
:104B6000E52A09C0223221F482818093220103C008
:104B70002D7F2032B1F580917704811103C0E0E0F0
:104B8000F8E002C0EEEFFAE080911B0190911C0169
:104B9000A0911D01B0911E01803B9440A105B1057B
:104BA00011F58091220180FF03C01DC080E00895AF
:104BB000EE3F2AE0F20731F0808191819093FF0A65
:104BC0008093FE0A87E797E7918380832BE088E153
:104BD00090E00FB6F894A895809360000FBE2093E4
:104BE000600081E0089588E10FB6F894809360003A
:104BF000109260000FBEA895EE3F8AE0F80739F0EA
:104C00008091FE0A9091FF0A91838083EACF1092EF
:104C1000FF0A1092FE0AE5CF2FEF3FEFFC01358728
:104C20002487089510922A041092290488EE93E0B4
:104C3000A0E0B0E080932B0490932C04A0932D046B
:104C4000B0932E0481E991E0909328048093270487
:104C50008FEF9FEF90933404809333040895AF92C5
:104C6000BF92CF92DF92EF92FF920F931F93CF9359
:104C7000DF936C017B01C0E0D0E000E010E0F601C2
:104C8000EC0FFD1F4AE050E06281C7010E94CD2772
:104C90005C016EE2C7010E94F8268A0D9B1D080F79
:104CA000191F2196C330D10551F74AE050E0F601B3
:104CB0006581C7010E94CD27800F911FDF91CF91A1
:104CC0001F910F91FF90EF90DF90CF90BF90AF902A
:104CD000089521EA31E0FC0131832083128213829E
:104CE0001482158208950F93FC0181EA91E091836B
:104CF000808362834383248305830F91089521EA8F
:104D000031E0FC0131832083FB01408151816281CC
:104D10007381FC0142835383648375830895FB018F
:104D20004081518162817381FC014283538364839A
:104D30007583089581EA91E09093790480937804D3
:104D400010927A0410927B0410927C0410927D04DD
:104D5000089508950E9480230E94A9268EE794E07A
:104D60000E94092D0E94E606C0E0D0E00E9445079F
:104D70002097E1F30E940000F9CF0C94B130611547
:104D8000710581F0DB010D900020E9F7AD01415084
:104D90005109461B570BDC01ED91FC910280F38118
:104DA000E02D099480E090E00895EF92FF920F9338
:104DB0001F93CF93DF938C017B01C0E0D0E0F7011C
:104DC000EC0FFD1F6491662359F0F801A081B181B9
:104DD000ED91FC91C8010995892B11F02196EFCF37
:104DE000CE01DF91CF911F910F91FF90EF90089529
:104DF000DC01ED91FC910190F081E02D099463EAD2
:104E000071E00C94BF260F931F93CF93DF93EC01B7
:104E10000E94D5268C01CE010E94FF26800F911F93
:104E2000DF91CF911F910F9108950F931F93CF930F
:104E3000DF93EC010E94BF268C01CE010E94FF2669
:104E4000800F911FDF91CF911F910F9108958F9245
:104E50009F92AF92BF92DF92EF92FF920F931F93B8
:104E6000CF93DF93CDB7DEB7A1970FB6F894DEBF2F
:104E70000FBECDBF7C01F42FD52ECB0119A222305D
:104E800008F42AE08E010F5D1F4F822E912CA12C79
:104E9000B12C6F2F7D2DA50194010E943530F22F8A
:104EA000D32ECA01015011096A3014F4E0E301C0A5
:104EB000E7E3E60FD801EC93232B242B252B49F7AE
:104EC000B801C7010E94BF26A1960FB6F894DEBFB5
:104ED0000FBECDBFDF91CF911F910F91FF90EF904B
:104EE000DF90BF90AF909F908F900895CF92DF9208
:104EF000EF92FF920F931F93CF93DF93EC016A0120
:104F00007B012115310579F4E881F9810190F08167
:104F1000E02D642FDF91CF911F910F91FF90EF90C3
:104F2000DF90CF9009942A303105E9F477FF1AC059
:104F30006DE20E94F8268C0144275527BA014C19CE
:104F40005D096E097F092AE0CE010E942727800FA4
:104F5000911FDF91CF911F910F91FF90EF90DF9004
:104F6000CF9008952AE0B701A601CE01DF91CF913D
:104F70001F910F91FF90EF90DF90CF900C94272717
:104F80002115310541F4DC01ED91FC910190F08196
:104F9000E02D642F09940C9427279A01462F50E0A6
:104FA00060E070E00C94C0274F925F926F927F9206
:104FB0008F929F92AF92BF92CF92DF92EF92FF9229
:104FC0000F931F93CF93DF93EC016A017B01B22E05
:104FD0009A01AB01C701B6010E941D30882319F068
:104FE00066EA71E027C026013701E89477F82FEFD1
:104FF0003FEF4FE75FE7C301B2010E941D3081110F
:105000000DC02FEF3FEF4FE75FE7C301B2010E94F2
:10501000672E18161CF46AEA71E00CC02FEF3FEF00
:105020004FE75FE4C701B6010E94B62F1816ACF433
:105030006EEA71E0CE01DF91CF911F910F91FF9049
:10504000EF90DF90CF90BF90AF909F908F907F9028
:105050006F905F904F900C94BF262FEF3FEF4FE77C
:105060005FECC701B6010E94672E87FDE1CF20E00B
:1050700030E0A901C701B6010E94672E87FF0AC070
:105080006DE2CE010E94F8268C01F7FAF094F7F851
:10509000F09402C000E010E0A12C60E070E080E03D
:1050A0009FE3AB1441F020E030E040E251E40E9485
:1050B0006B2EA394F6CF9B01AC01C701B6010E94F1
:1050C000032E6B017C010E94D82E2B013C010E9413
:1050D000042F9B01AC01C701B6010E94022E6B0197
:1050E0007C012AE0B301A201CE010E942727080F0C
:1050F000191FBB2039F062EB71E0CE010E94BF2680
:10510000080F191F7B2C772041F120E030E040E2AE
:1051100051E4C701B6010E94BA2F6B017C010E94C5
:10512000D32E4B01AA2497FCA094BA2C2AE030E09D
:10513000B501A401CE010E947627080F191FC501F1
:10514000B4010E94062F9B01AC01C701B6010E9469
:10515000022E6B017C017A94D6CFC801DF91CF91EA
:105160001F910F91FF90EF90DF90CF90BF90AF9085
:105170009F908F907F906F905F904F9008950F93C6
:105180001F93CF93DF93EC010E94D4278C01CE01B3
:105190000E94FF26800F911FDF91CF911F910F91E9
:1051A0000895FC0144835583668377830895615095
:1051B00030F02091F100FC0120830196F8CF28986F
:1051C00084E680938704089540918204509183047B
:1051D000209180043091810442175307B4F49091D8
:1051E000E8009570E1F39091E80092FD19C080937A
:1051F000F100809182049091830401968F73992726
:10520000892B19F48EEF8093E800809182049091AD
:1052100083040196909383048093820481E008952F
:1052200080E00895CF92DF92EF92FF920F931F9349
:10523000CF93DF931F92CDB7DEB7082F162FF42E32
:10524000862F880F8E5F99830E94E42883E00E9456
:10525000E428E02EC02E9981D92E8C2D8E1981172D
:1052600098F4F601F7FE02C0849101C080810E948B
:10527000E428082F80E00E94E4288023FFEFCF1A63
:10528000DF0A8111EACF01C081E00F90DF91CF9159
:105290001F910F91FF90EF90DF90CF900895809134
:1052A000D70081608093D70080EA8093D80089B5C9
:1052B000806189BD89B5826089BD09B400FEFDCFDA
:1052C00061E070E080E090E00E943B238091D80094
:1052D0008F7C80618093D8008091E000807F8093F4
:1052E000E0000895CF93DF931F92CDB7DEB7198208
:1052F000CE0101960E9478250E94EE2DBE016F5FBF
:105300007F4F0E94672D89810F90DF91CF91089583
:105310002FB7FC012083F89467706093E90008952B
:10532000CF93DF931F92CDB7DEB7682FCE010196E2
:105330000E9488298091F20099819FBF0F90DF9190
:10534000CF910895FF920F931F93CF93DF9300D0D7
:10535000CDB7DEB7F62E8A0190918604992311F01D
:1053600057FF03C08FEF9FEF2BC0682FCE01019630
:105370007A830E9488298091F20090E0A8017A81C6
:10538000801791070CF4AC01EF2DF72FF40E84E693
:10539000FE1639F02898809387049091F10091933C
:1053A000F7CF4115510521F08091F200882321F0BB
:1053B00089818FBFCA0104C08BE68093E800F8CFD3
:1053C0000F900F90DF91CF911F910F91FF90089553
:1053D000CF93DF931F92CDB7DEB741E050E0BE011F
:1053E0006F5F7F4F0E94A229019719F4898190E095
:1053F00002C08FEF9FEF0F90DF91CF910895CF9371
:10540000DF931F92CDB7DEB7682FCE0101960E94C1
:1054100088299091E800892F807295FF04C09091AF
:10542000F20080E4891B99819FBF0F90DF91CF919B
:1054300008956F927F928F929F92AF92BF92CF9278
:10544000DF92EF92FF920F931F93CF93DF931F9200
:10545000CDB7DEB7782E7B01C42EB52E80918604A1
:10546000882369F0042F152F8AEFD82E872D80729C
:10547000982E9AE3A92E872D8074882E11C08FEF65
:105480009FEF57C0872D0E94FF29682E81110CC005
:10549000DA94A9F361E070E080E090E00E943B23A1
:1054A0000115110579F73BC0282F30E002171307CB
:1054B0000CF4602E672DCE0101960E948829809100
:1054C000E80085FF29C0262D30E0021B130B992030
:1054D00039F06A948FEF6816B1F01092F100F9CFAD
:1054E000F701862D77FE07C0815058F09491909374
:1054F000F1003196F9CF815020F091919093F10015
:10550000FACFE20EF31E8091E80085FF0FC001156F
:10551000110511F481100AC089818FBFC1CF5D9838
:1055200084E6809388048C2D9B2D03C0A092E80014
:10553000F3CF0F90DF91CF911F910F91FF90EF90DC
:10554000DF90CF90BF90AF909F908F907F906F90A3
:1055500008951092E90010928304109282049093AF
:105560008104809380040895CF92DF92FF920F937D
:105570001F93CF93DF9300D0CDB7DEB7F82E8A010B
:105580006B0101151105B1F0F601F7FE02C084911F
:1055900001C0808149835A830E94E4280150110987
:1055A000FFEFCF1ADF0A49815A818111EACF8FEFCD
:1055B0009FEF01C0CA010F900F90DF91CF911F9113
:1055C0000F91FF90DF90CF900895BF92CF92DF921E
:1055D000EF92FF920F931F93CF93DF936C018B0198
:1055E000EB013BEFB32E2097C1F07E01C134D10512
:1055F0001CF020E4E22EF12C8091E80082FFFCCF29
:10560000C8018C1B9D0B6E2D8C0D9D1D0E94D728F3
:10561000B092E800CE19DF09E6CFC801DF91CF9143
:105620001F910F91FF90EF90DF90CF90BF90089562
:105630001F920F920FB60F921124DF92EF92FF92FA
:105640000F931F932F933F934F935F936F937F938A
:105650008F939F93AF93BF93EF93FF93CF93DF937A
:10566000CDB7DEB76C97DEBFCDBF1092E900809159
:10567000E80083FF23C168E0CE0145960E94D72849
:1056800082EF8093E8003D8937FF05C08091E800F4
:1056900080FFFCCF03C08EEF8093E800832F8076DD
:1056A00009F0F0C02E894F89D88C21110CC03038F8
:1056B00029F4809185048093F10002C01092F100DA
:1056C0001092F100F4C0842F90E09D29213049F41C
:1056D0003111EDC0019709F0EAC0809185048D7FFA
:1056E0000AC0233059F43111E2C0019709F0DFC03C
:1056F00080918504826080938504D9C0253041F46F
:105700008091E80080FFFCCF40684093E300CFC069
:10571000263009F08DC0EB8CFC8C22E0D2122CC01C
:1057200080E090E00E94A92A0E94722999E08E01EF
:105730000F5F1F4FF801292F11922A95E9F79983DE
:10574000DA8291E09E8390EA98879AEF9987209178
:10575000820430918304275F3F4F3C832B838D83EA
:10576000C7010E94A92A49E050E0B80180E00E94E8
:10577000B42A0E9472299BC0C7010E94A92A0E94D4
:10578000EE2DBE016B5E7F4F0E94902D009719F0A9
:105790000CF08DC090C081E0D8120EC08B8D9C8D16
:1057A000089719F481E080937F0480917F04811130
:1057B0002FC068ED72E031C0E3E0DE127CC08F895B
:1057C000882349F1823029F440E860E186EF92E0D5
:1057D0001CC0813029F440E86BE08AEE92E015C0ED
:1057E000833009F068C00E94EE2D8E010F5F1F4FBD
:1057F000B8010E94AF2DF80101900020E9F7319720
:10580000E01BF10B40E06E2FC8010E9412294DC031
:1058100066EC72E002C067E073E06115710509F49F
:105820004AC0FB01449150E080E80E94B42A3FC086
:10583000273009F440C0283021F481E08093F10042
:1058400036C02930A1F53370B1F5E4E2F1E081E032
:1058500021E036E39081992361F08093E900209361
:10586000EB0091919093EC003093ED008F5F8730C7
:1058700089F78EE78093EA001092EA008F8980937F
:10588000860415C08B8D9C8D0E94A92A898D81115B
:1058900005C0CE0145960E94832507C00E94EE2DCB
:1058A000BE016B5E7F4F0E94CE2D882321F08EEFCC
:1058B0008093E80003C081E28093EB006C960FB602
:1058C000F894DEBF0FBECDBFDF91CF91FF91EF9176
:1058D000BF91AF919F918F917F916F915F914F9108
:1058E0003F912F911F910F91FF90EF90DF900F90BC
:1058F0000FBE0F901F9018958093E9008091F200E1
:10590000882319F08AE38093E80008951F920F928C
:105910000FB60F9211242F933F934F935F936F9382
:105920007F938F939F93AF93BF93CF93EF93FF9307
:10593000C091E1008091E100837F8093E10080933A
:10594000E100C3FF0FC01092E90081E08093EB00FB
:105950001092EC0082E38093ED001092860488E0C0
:105960008093F000C2FF19C083E00E947C2C8091DC
:105970008804882339F080918804815080938804BA
:10598000882389F180918704882339F080918704E6
:10599000815080938704882341F1C4FF10C0809117
:1059A000E2008E7E81608093E2008091E1008F7E34
:1059B0008093E100809184048E7E806111C0C0FFDD
:1059C00016C08091E2008E7E80618093E20080911B
:1059D000E1008E7E8093E100809184048E7E816060
:1059E0008093840404C05D9ACDCF289AD6CFFF91CE
:1059F000EF91CF91BF91AF919F918F917F916F91D7
:105A00005F914F913F912F910F900FBE0F901F907C
:105A100018951092860410928504109284040E94B6
:105A20004F298091E1008E7E8093E1008DE080938C
:105A3000E200559A209AEEEFFFE7859194918B3F13
:105A40009C4D19F481E0809377040895CF93DF9300
:105A500000D000D0CDB7DEB79B01AC016115710558
:105A60008105910569F069833A834B835C830E94C9
:105A7000273229813A814B815C810E94573003C0D3
:105A800060E070E0CB010F900F900F900F90DF91CE
:105A9000CF910895CF92DF92EF92FF926B017C013C
:105AA000621773078407950764F4CA01B9016C197A
:105AB0007D098E099F090E94262D6C0D7D1D8E1D6E
:105AC0009F1DFF90EF90DF90CF9008950895EF9283
:105AD000FF920F931F93CF93DF937B01FC01C28151
