:100000000C94EF000C9417010C9417010C94170139
:100010000C9417010C9417010C9417010C94170100
:100020000C9417010C9417010C944A1A0C94DC18C8
:100030000C9417010C9417010C9417010C941701E0
:100040000C9417010C9417010C9417010C941701D0
:100050000C9417010C9417010C9417010C949B122B
:100060000C9417010C9417010C9417010C941701B0
:100070000C9417010C9417010C9417010C941701A0
:100080000C9417010C9417010C9417010C94170190
:100090000C9417010C9417010C9417010C94170180
:1000A0000C9417010C9417010C941701BC13BF1387
:1000B000AE13B213B813E013E013E013C313C71366
:1000C000CB13D113D513E013DB130000000200099A
:1000D0000F0000030401000C0000000000000000FD
:1000E0000000000000000000000408020110408031
:1000F000401020408040800802040180402010020F
:10010000011080102040402004040404040304056E
:1001100002020202040302020202060606060606A4
:100120000404020202040400000000250028002B41
:10013000002E00310000000000240027002A002DBE
:10014000003000080B000202020100090400000157
:10015000020200000524001001052401010104240D
:10016000020605240600010705810310004009046A
:100170000100020A00000007050202400000070516
:10018000830240000012010002EF020140412336C9
:100190008000010102030112010002000000404141
:1001A00023368000010102030141726475696E6F9C
:1001B000204C4C430041726475696E6F204C656F32
:1001C0006E6172646F00040309048A011702240738
:1001D0009E0A8F0C9A0C770E820E5615DE1511248E
:1001E0001FBECFEFDAE0DEBFCDBF11E0A0E0B1E08F
:1001F000E0EAFBE302C005900D92A03DB107D9F7FC
:1002000022E0A0EDB1E001C01D92A43AB207E1F7EF
:1002100011E0CEEDD1E004C02297FE010E94091C3E
:10022000CA3CD107C9F70E94EE150C94CE1D0C9460
:100230000000EF92FF920F931F93CF93DF9300D0B4
:1002400000D000D0CDB7DEB740E855E260E070E006
:1002500082E392E00E94411561E08BE00E94E1138D
:1002600060E08BE00E941A146AE070E080E090E0A9
:100270000E94141361E08BE00E941A1482E392E062
:100280000E9447158823D1F36AE071E080EF91E086
:100290000E94EE09892B39F465E271E082E392E075
:1002A0000E942616FFCF6DE471E082E392E00E9487
:1002B00019168E010D5F1F4F7E0187E0E80EF11CBD
:1002C00060EF71E0CE0101960E947B0AF801619116
:1002D0008F014AE050E082E392E00E9494166DE5BF
:1002E00071E082E392E00E9419160E151F0541F796
:1002F00082E392E00E94221626960FB6F894DEBFA3
:100300000FBECDBFDF91CF911F910F91FF90EF9066
:10031000089508950F9300E020E040E060E08DED47
:1003200091E00E94B71580ED91E00F910C94A70B1E
:10033000CF93CFB7F8948091E301811127C0E9E111
:10034000F1E08491EAEFF0E09491E82FF0E0EE0F15
:10035000FF1FEB5CFE4FA591B4918C91892321F492
:1003600061E081E10E941A1461E081E10E94E113E1
:100370008CB580618CBD8CB580648CBD61E08FE0F4
:100380000E94E11361E080E10E94E1138091E301AA
:100390008F5F8093E301CFBFCF9108950E9624E144
:1003A000FC0111922A95E9F70895CF93DF93EC01B0
:1003B000625F7F4F0E94C315CE01DF91CF910895F8
:1003C000CF93DF93EC016E5E7F4F0E94C315CE0189
:1003D000DF91CF910895CF93DF93EC016A5E7F4F59
:1003E0000E94C315CE01DF91CF910895CF93DF9383
:1003F000EC01625E7F4F0E94C315CE01DF91CF9169
:10040000089580E3FB0180833296842F82958F705C
:1004100090E1899F401911244A3014F4405D01C0D5
:10042000495C4293882311F0482FEFCF08950F9332
:1004300000E020E040E060E084EE91E00E94B7152B
:100440000F9108956F927F928F929F92AF92BF9279
:10045000CF92DF92EF92FF920F931F93CF93DF9390
:10046000CDB7DEB7AC970FB6F894DEBF0FBECDBFE9
:100470007C01862EB42EA52E20E2922ECE0101966E
:100480006C01FC01292D11922A95E9F70FEF2FEF4E
:100490004FEF6FEF86960E94B7158EEB91E09AA30F
:1004A00089A389A59AA5ABA5BCA58BA39CA3ADA345
:1004B000BEA38701095B1F4F43E450E0BE016F5D9F
:1004C0007F4FC8010E94010D019609F4BFC081E071
:1004D00089838A8386E0782E7B821C82F70164817F
:1004E0007581868197810E940D1C6D837E838F8329
:1004F0009887A986BA8680E890E09C878B874CE134
:1005000050E0B601C8010E940D0DF601292D11928F
:100510002A95E9F7570188E0A80EB11CF501D6012C
:1005200001900D927A94E1F740E150E0B601C801E4
:100530000E940D0DF60111929A94E9F796E0692E4A
:10054000712C40E250E0B601C8010E940D0DF1E0AF
:100550006F1A7108B1F783E6898392E89A8393E56D
:100560009B838C8385E38D8381E08E838F829DE3E3
:10057000988797E099878A8786E0F501DE011B96C8
:1005800001900D928A95E1F78CE0898B8A8B6FE55B
:1005900071E0CE0143960E94BF1DF7014385BE0165
:1005A000675E7F4FC7010E940102F7014485BE01CB
:1005B000655E7F4FC7010E940102F7014585BE01BC
:1005C000635E7F4FC7010E9401024EE150E0B60119
:1005D000C8010E940D0DF3E08F121EC082E38983D3
:1005E00084E08A83F70196859B8397859C83908915
:1005F0009D8391899E8396E39F838887828D8987D7
:10060000838D8A87848D8B87858D8C874CE050E025
:10061000B601C8010E940D0D87E3898386E08A83B5
:1006200091E09B8393E09C838D838FE08E838AE3AC
:100630008F838BE388878FEF898749E050E0B6018D
:10064000C8010E940D0DC8010E94090DAC960FB69D
:10065000F894DEBF0FBECDBFDF91CF911F910F91F8
:10066000FF90EF90DF90CF90BF90AF909F908F90D2
:100670007F906F9008952F923F924F925F926F926A
:100680007F928F929F92AF92BF92CF92DF92EF9222
:10069000FF920F931F93CF93DF93CDB7DEB7E3970E
:1006A0000FB6F894DEBF0FBECDBF7C012A013B011F
:1006B00069010E94E5124B015C018701095B1F4F34
:1006C000C8010E94800D1816190694F00E94E512C8
:1006D000681979098A099B0946165706680679063A
:1006E000F0F062E370E080E090E00E941413E8CF45
:1006F00042E250E0BE016F5F7F4FC8010E944A0D89
:100700008981823031F4F801858996898334910595
:1007100041F019A6C8010E94DA0C89A566C18FEFC5
:1007200064C16D817E818F8198850E940D1C4B0173
:100730005C01F601608371838283938346E050E01D
:10074000B701685F7F4FCE014D960E94B21D892B85
:1007500099F4F70180819181A281B381881699066D
:10076000AA06BB0648F084819581A681B7818815C9
:100770009905AA05BB0528F4C8010E94DA0C80E09F
:1007800034C189899A89AB89BC89F70186879787A3
:10079000A08BB18B3EECC32ED12CC8010E94210D41
:1007A000F1E0CF1AD108C9F719A6C70182969BA715
:1007B0008AA7F701B696FDA7ECA708969FA78EA774
:1007C0003C976F018E9699AB88AB3897FBABEAAB41
:1007D0005701F6E1AF0EB11C47018EE1880E911C66
:1007E000C8010E94C00C181619060CF093CFC8015E
:1007F0000E94210D8333910509F4CDC0F4F48130BA
:100800009105B9F11CF4892B59F3DFC083309105B0
:10081000C1F1069709F0D9C0C8010E94210D3C0121
:1008200044E050E0B401C8010E944A0D212C312C53
:100830007724F4E06F1A71083FC08A33910509F4F8
:100840007EC03CF48533910561F0C69709F43FC042
:10085000BCC08B33910509F488C08F3F910501F22C
:10086000B4C0C8010E94210DC8010E94210D89A7B2
:10087000B7CFC8010E94210D44E050E06AA97BA9CE
:100880003AC0C8010E94210D3C0144E050E0B5018E
:10089000C8010E944A0D212C312C772494E0691A5A
:1008A0007108261437040CF09BCFC8010E94210D5B
:1008B000EFEF2E1A3E0AF5CF261437040CF090CF36
:1008C000C8010E94210D8FEF281A380AF5CFC80100
:1008D0000E94210D782EF701828D811110C0838D29
:1008E00081110DC0848D81110AC0858D811107C0D1
:1008F00044E050E0B601C8010E944A0D71CFE8A95A
:10090000F9A92080318042805380B601CE018396C0
:100910000E94C3158DA19EA1AFA1B8A58215930514
:10092000A405B50529F3212C312C721409F458CFF4
:10093000C8010E94210DFFEF2F1A3F0AF6CFC80110
:100940000E94210D44E050E06CA57DA5C8010E94E5
:100950004A0DF70166A177A180A591A50E940D1C03
:1009600066A377A380A791A73BCFC8010E94210D62
:1009700044E050E06EA57FA5C8010E944A0DF70132
:1009800062A573A584A595A50E940D1C62A773A7F7
:1009900084A795A725CFC8010E94210D44E050E00F
:1009A0006AA57BA5C8010E944A0DF70162A173A147
:1009B00084A195A10E940D1C62A373A384A395A397
:1009C00066A777A780AB91AB0BCFC8010E94210D22
:1009D000382E612C712C361409F402CFC8010E9404
:1009E000210DFFEF6F1A7F0AF6CFE3960FB6F8944A
:1009F000DEBF0FBECDBFDF91CF911F910F91FF9052
:100A0000EF90DF90CF90BF90AF909F908F907F90AE
:100A10006F905F904F903F902F9008952F923F924C
:100A20004F925F926F927F928F929F92AF92BF92FE
:100A3000CF92DF92EF92FF920F931F93CF93DF93AA
:100A4000CDB7DEB727970FB6F894DEBF0FBECDBF88
:100A50008C0120ED37E040E050E061E070E080E0A4
:100A600090E00E940E1BD80114966D937D938D9398
:100A70009C931797F8016083718382839383480165
:100A8000F7E48F0E911CC4010E94EC0C64E470E04A
:100A9000C4010E94D10D882309F428C10E94E512E7
:100AA0006B017C01A12CB12C1D82180186E4280E5B
:100AB000311CD801DE96BF83AE8338EE432E33E07F
:100AC000532E612C712CF1018081833009F4FDC01B
:100AD00081111FC0F80184819581A681B78101969B
:100AE000A11DB11D84839583A683B7830E94E5125F
:100AF0006C197D098E099F09A30192010E94C61BF2
:100B0000A90161E0C8010E94220281E0D1018C9319
:100B1000BEC08430F9F4F80184819581A681B78143
:100B20000196A11DB11D84839583A683B7830E947E
:100B3000E5126C197D098E099F09A30192010E949B
:100B4000C61BA90163E0C8010E942202E2E0D101B4
:100B5000EC939DC0813061F5AE81BF814D915D9177
:100B60006D917C919E012F5F3F4FC8010E943B0316
:100B70008D83823009F08BC089819A81AB81BC81E1
:100B8000F80184839583A683B7830E94E5126C19CC
:100B90007D098E099F09A30192010E94C61BA9012C
:100BA00063E0C8010E942202ED81D101EC9375C07F
:100BB000823009F06CC0AE81BF814D915D916D9125
:100BC0007C919E012F5F3F4FC8010E943B038D83A4
:100BD000853009F056C083E0F1018083F80182A1DD
:100BE00093A1A4A1B5A1892B8A2B8B2B41F484E876
:100BF00093E0A0E0B0E082A393A3A4A3B5A3F8017F
:100C000086A197A1A0A5B1A5892B8A2B8B2B61F476
:100C100082A193A1A4A1B5A1B695A7959795879513
:100C200086A397A3A0A7B1A7D8019A964D915D91ED
:100C30006D917C919D9796968D919D910D90BC9113
:100C4000A02D452B462B472B59F4AC01BD01440F79
:100C5000551F661F771FF80142A753A764A775A702
:100C6000F80186A797A7A0ABB1AB82A593A5A4A5D1
:100C7000B5A582AB93ABA4ABB5ABAA24A394B12C1E
:100C80000CC0FD81F63019F4D1011C9206C0BD8163
:100C9000BF3F19F4F10110821D82F1E0AF16B104DB
:100CA00009F411CF0E94E5126C197D098E099F0984
:100CB000D801DA962D913D914D915C91DD972617E3
:100CC00037074807590708F0FECEC4010E94EC0C14
:100CD000F80184819581A681B7810196A11DB11D7E
:100CE00084839583A683B783C50102C080E090E02A
:100CF00027960FB6F894DEBF0FBECDBFDF91CF9120
:100D00001F910F91FF90EF90DF90CF90BF90AF9029
:100D10009F908F907F906F905F904F903F902F901B
:100D20000895CF92DF92EF92FF920F931F93CF938C
:100D3000DF93EC016B011AA21BA21CA21DA21EA232
:100D40001FA218A619A61AA61BA61CA61DA61EAA97
:100D50001FAA18AE19AE2AAF3BAF4CAF5DAFFC0176
:100D6000FE96E082F182028313838C01085F1F4F9D
:100D700086E0F80111928A95E9F7CE010E94CE0132
:100D800086E0F601D80101900D928A95E1F7FE0107
:100D9000EA5BFF4F1082CE01DF91CF911F910F913F
:100DA000FF90EF90DF90CF900C940E05FB014281F5
:100DB000538164817581FC0142835383648375830D
:100DC000178216820895CF93FB0181918111FDCF87
:100DD000FB0180E090E020E030E0CAE06191662312
:100DE00009F12430310564F56E3271F48F3F9105BD
:100DF00009F034F5DA01A20FB31F12968C932F5F1E
:100E00003F4F80E090E0EACFDC01CA9FC001CB9F5A
:100E1000900D1124772767FD709560537109860F37
:100E2000971FDCCF8F3F910509F054F42430310532
:100E30003CF4FA01E20FF31F828381E090E002C0EC
:100E400080E090E0CF9108950F9300E020E040E033
:100E500060E08AEE91E00E94B7150F910895AF927D
:100E6000BF92CF92DF92EF92FF920F931F93CF9397
:100E7000DF9300D01F92CDB7DEB76C017B010E94DB
:100E8000E512F601778366838601085F1F4FB6017E
:100E90006A5F7F4F42E050E0C8010E940D0D81E083
:100EA00090E09A83898342E050E0BE016F5F7F4FFC
:100EB000C8010E940D0D80E091E09A83898342E091
:100EC00050E0BE016F5F7F4FC8010E940D0D1A8276
:100ED000198242E050E0BE016F5F7F4FC8010E945F
:100EE0000D0D42E050E0BE016F5F7F4FC8010E94D0
:100EF0000D0D42E050E0BE016F5F7F4FC8010E94C0
:100F00000D0D6701F6018081882311F1F7016F0152
:100F10008191811115C05601AE18BF081A141B0427
:100F200094F4AB8241E050E0BE016D5F7F4FC80199
:100F30000E940D0DA501B701C8010E940D0D03C04F
:100F40008E3229F7E8CF7601FFEFEF1AFF0ADACFEA
:100F50001B8241E050E0BE016D5F7F4FC8010E94DF
:100F60000D0DE12CFF24F394FA82E98242E050E077
:100F7000BE016F5F7F4FC8010E940D0DFA82E982AA
:100F800042E050E0BE016F5F7F4FC8010E940D0D2F
:100F900081E090E00F900F900F90DF91CF911F9123
:100FA0000F91FF90EF90DF90CF90BF90AF9008959A
:100FB0004F925F926F927F928F929F92AF92BF9269
:100FC000CF92DF92EF92FF920F931F93CF93DF9315
:100FD000CDB7DEB763970FB6F894DEBF0FBECDBFB7
:100FE0007C015B016A010E94E5122B013C01870133
:100FF000085F1F4F4501A12CB12CC8010E94800D34
:101000001816190694F00E94E512641975098609EC
:10101000970986169706A806B906D0F062E370E035
:1010200080E090E00E941413E8CFF70142815381E1
:1010300064817581818D928DA38DB48D4817590778
:101040006A077B0741F4858D968DC59721F406C00C
:101050008FEF9FEFF9C08EEF9FEFF6C0C8010E949F
:10106000C00C0C970CF4EEC04CE050E0BE016F5F7A
:101070007F4FC8010E944A0D8B819C819827892748
:1010800098279A8B898BF7014681578129813A816C
:101090004217530711F497FD06C0C8010E94DA0CED
:1010A0008CEF9FEFD1C08F709270892B31F0C80107
:1010B0000E94DA0C8BEF9FEFC7C0AF80B884BA24D0
:1010C000AB24BA24A114B10419F0E12CF12C23C0F3
:1010D000C8010E94DA0C8AEF9FEFB6C041E050E0F1
:1010E000BE01635F7F4FC8010E944A0D8D8581114B
:1010F0001BC08D858111F2CFC8010E94210DC8014E
:101100000E94210DC8010E94210DC8010E94210DDD
:10111000FFEFEF1AFF0A8D819E8198278927982774
:10112000E816F906D8F20AC08D859FEF980F9D87C3
:101130008823F9F2C8010E94210DF6CFE12CF12C91
:1011400041E050E0BE016D5E7F4FC8010E944A0D34
:101150008B89982F907C61F4882371F08B899FEFA5
:10116000980F9B8B882341F0C8010E94210DF6CF78
:10117000C8010E94210D1B8A8B898111E1CF42E0B9
:1011800050E0BE01615F7F4FC8010E944A0D42E0FE
:1011900050E0BE01635F7F4FC8010E944A0DC80145
:1011A0000E94210DC8010E94210DC8010E94210D3D
:1011B000C8010E94210D42E050E0BE016F5E7F4FEA
:1011C000C8010E944A0D8F8598898115914029F4A4
:1011D0008D859E858115914019F0812C912C16C02A
:1011E00089899A898115944031F0C8010E94DA0CEE
:1011F00087EF9FEF29C0B6016E5F7F4F44E050E05C
:10120000C8010E944A0D81E090E01EC089899A8938
:101210009827892798278816990638F4C8010E94CC
:10122000210D2FEF821A920AF1CF8FEFE81AF80AF8
:10123000EA14FB0409F084CFC8010E94DA0C86EF9F
:101240009FEF02C08DEF9FEF63960FB6F894DEBF5D
:101250000FBECDBFDF91CF911F910F91FF90EF9007
:10126000DF90CF90BF90AF909F908F907F906F90C6
:101270005F904F9008958F929F92AF92BF92CF92BE
:10128000DF92EF92FF920F931F93CF93DF9300D0E3
:1012900000D000D0CDB7DEB78C015B016A010E949F
:1012A000E3064C01009709F05DC0F80142815381CB
:1012B000648175818091EC019091ED01A091EE0126
:1012C000B091EF01481759076A077B0709F44EC030
:1012D0000E94E5127801F8E0EF0EF11C6F7077279D
:1012E0007C5FC7010E94D10D813009F043C08EEBB5
:1012F00091E09A838983F80182819381A481B581E9
:101300008B839C83AD83BE8345E350E0BE016F5F5A
:101310007F4FC7010E94010D892B19F4812C912C5C
:101320001DC0B501C8010E942F07892BB9F3C70161
:101330000E94090D892B91F333E0A32EB12CA60155
:1013400068E873E1C8010E94D8074C01F1E0AF1AC8
:10135000B10821F08F3F2FEF920789F3C7010E9458
:10136000EC0C08C088248394912C04C09EEF892E35
:1013700099249A94C40126960FB6F894DEBF0FBE46
:10138000CDBFDF91CF911F910F91FF90EF90DF9034
:10139000CF90BF90AF909F908F90089524E030E061
:1013A000AC0164E081E090E00C94CF1024E030E0E8
:1013B000AC0164E085E090E00C94CF1026E030E0D2
:1013C000AC0164E089E090E00C94CF1024E030E0C0
:1013D000AC0164E08FE090E00C94CF10AF92BF922C
:1013E000CF92DF92EF92FF920F931F93CF93DF93F1
:1013F00000D000D000D0CDB7DEB76C015B0182E633
:1014000090E00E9401168C0182E6F80111928A9503
:10141000E9F7C801895B9F4F0E94040EF60117830C
:10142000068388E292E00E94AC10C5010E94DE09AA
:1014300000E020E040E060E0CE0101960E94B71598
:10144000CE0103960E94E60918E8E12E13E1F12E81
:1014500000E010E020E63AEE40E050E0B501F60191
:10146000868197810E9491068C018130910589F5D2
:10147000F60166817781CE0101960E94D501CE01E9
:1014800003960E94E609F60166817781CE010196F6
:101490000E94EB01CE0103960E94CE09F6016681FF
:1014A0007781CE0101960E94E001CE0103960E9451
:1014B000D609F60166817781CE0101960E94F60178
:1014C0004B815C816D817E81F6014283538364830D
:1014D0007583C80126960FB6F894DEBF0FBECDBF48
:1014E000DF91CF911F910F91FF90EF90DF90CF9000
:1014F000BF90AF900895CF93DF93EC010E94AD159C
:10150000AE014E5F5F4F24E030E060E08FE090E09E
:101510000E94E211CE01DF91CF9108952EEB31E0D0
:10152000FC0131832083FB014281538164817581F9
:10153000FC01428353836483758308950F9300E015
:1015400020E040E060E088E092E00E94B71580EF84
:1015500091E00F910C94AD15DC01ED91FC91008CA4
:10156000F18DE02D099591E089270895CF93DF93C0
:101570001F92CDB7DEB76983DC01ED91FC9102804B
:10158000F381E02D41E050E0BE016F5F7F4F099590
:101590000F90DF91CF91089521E0FC018485883080
:1015A00009F420E0822F0895FC019485FB018485D5
:1015B000981303C081E0983009F480E008950F93F8
:1015C0001F93CF93DF93EC018A018C85883021F043
:1015D0000E94610F892B39F481E090E09B838A831C
:1015E00080E090E001C0C801DF91CF911F910F9181
:1015F0000895FC016485683021F088E292E00C9443
:101600007D1180E090E00895CF93DF931F92CDB7D6
:10161000DEB741E050E0BE016F5F7F4FFC01848583
:101620000E94B30F181619061CF4898190E002C0BD
:101630008FEF9FEF0F90DF91CF910895FC0184858C
:101640000C94B30F0F931F93CF93DF931F92CDB7DB
:10165000DEB78C01DC01ED91FC910480F581E02D79
:101660000995892B51F0BE016F5F7F4FF80184858A
:101670000E94F70F898190E002C08FEF9FEF0F90DB
:10168000DF91CF911F910F910895FC0184850C94F7
:101690000510CF92DF92EF92FF920F931F93CF939B
:1016A000DF93CDB7DEB7AF970FB6F894DEBF0FBEAE
:1016B000CDBF7C018B016A01CE0101960E94AD1560
:1016C000CE0109960E94040ECE018A960E94AD15A5
:1016D00060EF71E0CE0184960E948E0ABE016C5DBF
:1016E0007F4FCE0101960E94D606AE01465D5F4F48
:1016F000B801CE0101960E943B0981309105C1F4E9
:10170000D701ED91FC910484F585E02D8EEB91E0FD
:101710009DA38CA30CA51DA52EA53FA50EA31FA3BD
:1017200028A739A7A601BE016C5D7F4FC7010995A7
:10173000AF960FB6F894DEBF0FBECDBFDF91CF914D
:101740001F910F91FF90EF90DF90CF900895FC01D3
:101750001382128248EE53E060E070E044835583C8
:10176000668377838AE691E09183808388E084872B
:101770000895FC016485683041F06295660F607ED3
:10178000685F83E090E00C940D1180E00895DF9293
:10179000EF92FF920F931F93CF93DF93EC017B01A6
:1017A0008A018C85883009F04BC0D12C6D2D629553
:1017B000660F607E685F83E090E00E940D118111EA
:1017C00002C0DC8607C08B7F8831D9F3D39488E0D0
:1017D000D812ECCF8C85883099F12091100130918E
:1017E00011012F5F3F4F11F420E034E030931101DD
:1017F00020931001409110015091110120E061E00F
:101800000E94E40EB7016E5F7F4FA8018C850E9495
:10181000240F811103C088E08C8712C0CE010E9482
:10182000B90B873151F061E070E080E090E00E94F8
:101830001413CE010E94B90BECCF81E090E002C0FE
:1018400080E090E0DF91CF911F910F91FF90EF909A
:10185000DF900895CF92DF92EF92FF92CF93DF93C4
:10186000EC018C85883081F10E945A0F0E94E512AC
:101870006B017C01CE010E94B90B882359F00E94B4
:10188000E5126C197D098E099F09683E7340810538
:10189000910598F0CE010E94B90B882319F08C8530
:1018A0000E94D60EEC85F0E0EE0FFF1FE850FE4FD1
:1018B0001182108288E08C8707C061E070E080E0D0
:1018C00090E00E941413D6CFDF91CF91FF90EF905C
:1018D000DF90CF900895CF93DF93EC018C85883013
:1018E000D1F0CE010E94B90B8431A9F0882399F080
:1018F000883189F08C3169F4E881F9810480F581BF
:10190000E02DCE01099521E0892B09F420E0822FFA
:1019100003C081E001C080E0DF91CF9108950F9373
:1019200000E020E040E060E08EE092E00E94B71529
:101930000F9108950F9300E020E040E060E084E123
:1019400092E00E94B7150F910895DC01ED91FC9192
:10195000008CF18DE02D09942EEB31E0FC013183F8
:101960002083FB014189528963897489FC01428388
:101970005383648375830895FC018589968908954E
:10198000FC01818D928D0895CF93DF931F92CDB787
:10199000DEB76983DC01ED91FC910280F381E02DDB
:1019A00041E050E0BE016F5F7F4F09950F90DF91DE
:1019B000CF910895CF93DF93EC01898D9A8D892B78
:1019C00041F0E881F9810680F781E02DCE0109958B
:1019D000F4CFDF91CF910895CF93DF93EC018C8505
:1019E000883061F00E94D60EEC85F0E0EE0FFF1F0C
:1019F000E850FE4F1182108288E08C87DF91CF91F2
:101A00000895FC01108E178A6E5F7F4F84850C94B9
:101A10003410FC0184850C945910CF93DF93EC01B2
:101A20009A018F89988DAB01BC018C850E940610AC
:101A30002F89388D280F391F388F2F8BDF91CF9149
:101A400008950F931F93CF93DF931F92CDB7DEB707
:101A50008C01FC01818D928D892B59F041E050E081
:101A6000BE016F5F7F4F84850E94B30F1816190661
:101A70001CF08FEF9FEF08C0F801818D928D0197C8
:101A8000928F818F898190E00F90DF91CF911F918C
:101A90000F910895CF93DF93EC01898D9A8D009774
:101AA00019F48FEF9FEF10C04817590708F0AC01E9
:101AB0008C850E94B30F181619069CF7298D3A8D54
:101AC000281B390B3A8F298FDF91CF910895CF933F
:101AD000DF931F92CDB7DEB7FC01218D328D232B12
:101AE00049F0BE016F5F7F4F84850E94F70F8981A7
:101AF00090E002C08FEF9FEF0F90DF91CF9108959C
:101B00000F931F93CF93DF93CDB7DEB728970FB610
:101B1000F894DEBF0FBECDBF8C01DC01ED91FC91CE
:101B20000284F385E02D0995F801648588E292E04E
:101B30000E947D11892B41F148E050E0BE016F5FAA
:101B40007F4FD8011C968C910E94B30F181619066E
:101B5000ECF4BE016F5F7F4FC8010F960E94D31552
:101B60008D8190E0982F88272E81820F911DF8019A
:101B7000968B858B8F8190E0982F88272885820F00
:101B8000911D928F818F02C080E090E028960FB661
:101B9000F894DEBF0FBECDBFDF91CF911F910F91A3
:101BA0000895FF920F931F93CF93DF93EC018B0166
:101BB0008C85883011F5F12C6F2D6295660F607E53
:101BC000685F83E090E00E940D11811102C0FC86E5
:101BD00006C08831E1F3F39488E0F812EDCF8C85EC
:101BE000883059F01E870D871A8E198E20E0A801C3
:101BF00062E00E94E40E81E001C080E0DF91CF91BD
:101C00001F910F91FF900895FC011382128248EEFC
:101C100053E060E070E044835583668377838AE80D
:101C200091E09183808388E08487CF010F960C94A4
:101C3000AD15CF92DF92EF92FF920F931F93CF9348
:101C4000DF93CDB7DEB7AF970FB6F894DEBF0FBE08
:101C5000CDBF7C018B016A01CE0101960E94AD15BA
:101C6000CE0109960E94040ECE018A960E94AD15FF
:101C700060EF71E0CE0184960E948E0ABE016C5D19
:101C80007F4FCE0101960E94D606AE01465D5F4FA2
:101C9000B801CE0101960E943B0981309105C1F443
:101CA000D701ED91FC910088F189E02D8EEB91E058
:101CB0009DA38CA30CA51DA52EA53FA50EA31FA318
:101CC00028A739A7A601BE016C5D7F4FC701099502
:101CD000AF960FB6F894DEBF0FBECDBFDF91CF91A8
:101CE0001F910F91FF90EF90DF90CF9008950F9389
:101CF00000E020E040E060E08AE192E00E94B71559
:101D00000F9108950F9300E020E040E060E080E252
:101D100092E00E94B7150F910895AB01682F62956C
:101D2000660F607E645F24E030E08CE090E00C940D
:101D3000CF109B01682F6295660F607E685FC901B6
:101D40000C940D1162E070E00C94990E9B01682FC9
:101D50006295660F607E645FC9010C948610CF9314
:101D6000DF93C82FD62F472F64E070E00E94A60EA5
:101D70004D2F65E070E08C2FDF91CF910C94A60E73
:101D8000462F62E070E00C94A60ECF93DF93C82F2D
:101D9000D62F472F60E170E00E94A60E4D2F61E123
:101DA00070E08C2FDF91CF910C94A60ECF93C82FAB
:101DB00040E150E0682F88E292E00E948B126FEFC2
:101DC0008C2FCF910C94C00EEF92FF921F93CF9364
:101DD000DF9300D0CDB7DEB7182F7A018FEF860FD3
:101DE000853048F5812F2A8369830E94D60E2A8187
:101DF0006981462F422B60E070E0812F0E94A60E81
:101E0000E114F10411F0B7010AC06091260270914B
:101E100027026F5F7F4F7093270260932602812F06
:101E20000E94AF0E41E050E0612F88E292E00E94F4
:101E30008B1281E001C080E00F900F90DF91CF9175
:101E40001F91FF90EF9008951F93CF93DF93182F6A
:101E5000FB01EA0180818F3F51F481818F3F91F432
:101E600082818F3F79F483818F3F61F41EC081119D
:101E700009C08181811106C08281811103C08381E3
:101E8000882399F0209789F0BF01812F0E948D0E41
:101E9000BE01812F0E94C50E44E050E0612F88E210
:101EA00092E00E948B1281E001C080E0DF91CF912F
:101EB0001F91089548E050E0682F88E292E00C946A
:101EC0008B12DF92EF92FF920F931F93CF93DF93CA
:101ED000D82E8B01EA01413088E0580710F0C0E0AD
:101EE000D8E06D2D88E292E00E9448117C0163E009
:101EF00070E08D2D0E94990E873111F08C3121F404
:101F0000EC16FD0670F302C0C0E0D0E09E01A8010F
:101F10006D2D88E292E00E94D71140E250E06D2DD5
:101F200088E292E00E948B128D2D0E94A20E84FD09
:101F30000DC063E070E08D2D0E94990E8111F4CFE9
:101F40008D2D0E94D60E80E090E005C060E18D2DC1
:101F50000E94C00ECE01DF91CF911F910F91FF9093
:101F6000EF90DF900895DF92EF92FF920F931F930F
:101F7000CF93DF93D82E7B018A01682F88E292E00D
:101F80000E947D11EC01009799F463E070E08D2DC3
:101F90000E94990E843111F1882301F1C1E0D0E053
:101FA0008C3111F4C0E0D0E0D195C195D10916C0B3
:101FB000081719070CF4E8011C161D067CF400E054
:101FC0009E01A7016D2D88E292E00E943A1240E442
:101FD00050E06D2D88E292E00E948B12CE01DF91DD
:101FE000CF911F910F91FF90EF90DF9008950F9385
:101FF000AB0101E021E030E0682F88E292E00E942E
:102000003A1281E090E00F9108950895BF92CF9227
:10201000DF92EF92FF920F931F93CF93DF93B82E2F
:102020007B016A01E901682F88E292E00E94481171
:102030008C179D0730F46B2D88E292E00E944811C6
:10204000EC018E019601A7016B2D88E292E00E94BF
:102050009911CE01DF91CF911F910F91FF90EF90D9
:10206000DF90CF90BF9008951F93CF93DF93182FE9
:10207000FB01EA018081811109C08181811106C0C3
:102080008281811103C08381882369F0209759F0F0
:10209000BF01812F0E948D0EBE01812F0E94C50EAF
:1020A00081E090E002C080E090E0DF91CF911F914D
:1020B0000895CF93C82F40E250E0682F88E292E065
:1020C0000E948B128C2F0E94A20E84FD0CC08C2FBC
:1020D0000E94A20E83FFF6CF68E18C2F0E94C00EF3
:1020E00080E090E006C060E18C2F0E94C00E81E08D
:1020F00090E0CF9108958EBD00000DB407FEFDCF96
:102100008EB508952E9808952E9A08951F93CF9313
:10211000DF9300D01F92CDB7DEB7182F4B836A83B1
:1021200099830E9482109981892F0E947B10812FB0
:102130000E947B106A81862F0E947B104B81842F26
:102140000E947B100E94841081E00F900F900F90EE
:10215000DF91CF911F910895CF93DF9368EE73E0E5
:1021600080E090E00E941413269A0E949801C0E03B
:10217000DC2FD295DD0FD07ED45F42E06D2F8EE153
:1021800090E00E94861042E06D2F8FE190E00E9467
:102190008610CF5FC83061F7DF91CF910895CF925D
:1021A000DF92EF92FF920F931F93CF93DF9300D0B4
:1021B00000D0CDB7DEB7F82E89014B835C836A83EC
:1021C00099830E94821089810E947B108F2D0E942A
:1021D0007B106A81862F0E947B104B81C42E5C810C
:1021E000D52E7601E00EF11ECE14DF0431F0F6019B
:1021F00081916F010E947B10F7CF0E948410C8016B
:102200000F900F900F900F90DF91CF911F910F9132
:10221000FF90EF90DF90CF9008951F93CF93DF93BF
:1022200000D0CDB7DEB7182F6A8399830E94821041
:1022300089810E947B10812F0E947B106A81862FEA
:102240000E947B1080E00E947B1089830E94841092
:1022500089810F900F90DF91CF911F9108951F9367
:10226000CF93DF93182F60E270E00E94990EC82F81
:10227000D0E0DC2FCC2761E270E0812F0E94990E24
:102280009E01280F311DC901DF91CF911F91089543
:10229000FF920F931F93CF93DF93F62EC0E0D0E011
:1022A0008F2D0E942F118C01009721F08F2D0E94FD
:1022B0002F11EC01C017D10799F7CE01DF91CF9113
:1022C0001F910F91FF9008951F93CF93DF93182FC5
:1022D00066E270E00E94990EC82FD0E0DC2FCC2778
:1022E00067E270E0812F0E94990E9E01280F311D38
:1022F000C901DF91CF911F910895FF920F931F9312
:10230000CF93DF93F62EC0E0D0E08F2D0E946411B2
:102310008C01009721F08F2D0E946411EC01C017F1
:10232000D10799F7CE01DF91CF911F910F91FF90C7
:102330000895CF92DF92EF92FF920F931F93CF9366
:10234000DF93D62EEA01790164E270E08D2D0E94C0
:10235000990EC82E65E270E08D2D0E94990EC80F6F
:10236000D11D2C2D30E0322F2227C20FD31F6D2D0F
:102370006295660F607E6C5E9801A701CE010E9497
:10238000CF10C00FD11F4D2F64E270E08D2D0E9441
:10239000A60E4C2F65E270E08D2DDF91CF911F913D
:1023A0000F91FF90EF90DF90CF900C94A60E0F93BB
:1023B0001F9389019A0140E050E00E9499111F91FA
:1023C0000F910895CF92DF92EF92FF920F931F9398
:1023D000CF93DF9300D000D0CDB7DEB7F82E8901C0
:1023E0004B835C836A8399830E94821089810E9457
:1023F0007B108F2D0E947B106A81862F0E947B109C
:102400004B81C42E5C81D52E7601E00EF11ECE14D8
:10241000DF0439F080E00E947B10F60181936F01A8
:10242000F6CF0E948410C8010F900F900F900F906C
:10243000DF91CF911F910F91FF90EF90DF90CF90A0
:1024400008950F931F93CF93DF9300D0CDB7DEB7DE
:102450005A834983A901980189819A816295660FFF
:10246000607E685E0F900F90DF91CF911F910F916A
:102470000C94E2118F929F92AF92BF92CF92DF9213
:10248000EF92FF920F931F93CF93DF936C01962EE1
:102490005A017901802E68E270E0892D0E94990E20
:1024A000C82F69E270E0892D0E94990ED0E0DC2FE0
:1024B000CC27C80FD11D87019501AE01692DC6013A
:1024C0000E94211281101AC0CE0DDF1D4D2F68E22F
:1024D00070E0892D0E94A60E4C2F69E270E0892DD4
:1024E000DF91CF911F910F91FF90EF90DF90CF90F0
:1024F000BF90AF909F908F900C94A60EDF91CF91DC
:102500001F910F91FF90EF90DF90CF90BF90AF9011
:102510009F908F900895CF93C62F61E070E08C2F2D
:102520000E94A60E61E070E08C2F0E94990E81112E
:10253000F9CFCF9108951F920F920FB60F921124E9
:102540002F933F938F939F93AF93BF9380912A02D2
:1025500090912B02A0912C02B0912D023091290272
:1025600023E0230F2D3720F40196A11DB11D05C0D6
:1025700026E8230F0296A11DB11D20932902809306
:102580002A0290932B02A0932C02B0932D028091EB
:102590002E0290912F02A0913002B091310201964B
:1025A000A11DB11D80932E0290932F02A0933002A3
:1025B000B0933102BF91AF919F918F913F912F9135
:1025C0000F900FBE0F901F9018952FB7F894609141
:1025D0002A0270912B0280912C0290912D022FBF24
:1025E00008953FB7F89480912E0290912F02A09108
:1025F0003002B091310226B5A89B05C02F3F19F0DB
:102600000196A11DB11D3FBF6627782F892F9A2FF4
:10261000620F711D811D911D42E0660F771F881F9B
:10262000991F4A95D1F708958F929F92AF92BF92CA
:10263000CF92DF92EF92FF926B017C010E94F11228
:102640004B015C01C114D104E104F104F1F00E94DA
:10265000C51B0E94F112681979098A099B09683E15
:1026600073408105910570F321E0C21AD108E10899
:10267000F10888EE880E83E0981EA11CB11CC114DD
:10268000D104E104F10429F7DDCFFF90EF90DF9052
:10269000CF90BF90AF909F908F900895789484B51D
:1026A000826084BD84B5816084BD85B5826085BD4E
:1026B00085B5816085BDEEE6F0E080818160808334
:1026C000E1E8F0E010828081826080838081816017
:1026D0008083E0E8F0E0808181608083E1E9F0E0E0
:1026E000808182608083808181608083E0E9F0E086
:1026F000808181608083E1ECF0E080818460808370
:10270000808182608083808181608083E3ECF0E05F
:10271000808181608083E0ECF0E080818260808352
:10272000E2ECF0E0808181608083EAE7F0E0808184
:1027300084608083808182608083808181608083E7
:10274000808180688083089590E0FC013197EF30AC
:10275000F105B0F5EA5AFF4F0C94071C80918000F8
:102760008F7703C0809180008F7D809380000895D3
:1027700080918000877FF9CF84B58F7702C084B5C0
:102780008F7D84BD0895809190008F7707C08091E0
:1027900090008F7D03C080919000877F8093900090
:1027A00008958091C0008F7703C08091C0008F7D15
:1027B0008093C00008958091C200877F8093C200FB
:1027C0000895CF93DF9390E0FC01E751FF4F2491F0
:1027D000FC01E85FFE4F8491882349F190E0880F67
:1027E000991FFC01EB5CFE4FA591B491895D9E4F52
:1027F000FC01C591D4919FB7611108C0F8948C91E8
:10280000209582238C93888182230AC0623051F400
:10281000F8948C91322F309583238C938881822B6E
:10282000888304C0F8948C91822B8C939FBFDF9196
:10283000CF9108950F931F93CF93DF931F92CDB73E
:10284000DEB7282F30E0F901E653FF4F8491F901FC
:10285000E751FF4F1491F901E85FFE4F0491002307
:10286000C9F0882321F069830E94A4136981E02FB5
:10287000F0E0EE0FFF1FE95DFE4FA591B4919FB709
:10288000F8948C91611103C01095812301C0812BB4
:102890008C939FBF0F90DF91CF911F910F9108955F
:1028A000CF93DF931F92CDB7DEB76983DC01ED9143
:1028B000FC910280F381E02D41E050E0BE016F5FAA
:1028C0007F4F09950F90DF91CF910895CF93DF93BC
:1028D000EC018C859D8597FF05C082E00E94AC17B6
:1028E0009D878C878C859D85DF91CF91089583E0AE
:1028F0000C94401AFC018485958597FD06C082E002
:102900000E94541790E00196089582E00E945417A7
:1029100090E00895FC018485958597FD05C02FEF13
:102920003FEF35872487089582E00C94AC17CF934E
:10293000DF93EC0180911D01882331F083E00E9438
:10294000DD171816190634F081E090E09B838A8326
:1029500080E090E0DF91CF910895FC0120812E5F0F
:10296000208342E450E063E471E080E80C9478183E
:10297000FC0121818081813A59F4213209F04BC058
:1029800047E050E066E171E080E00E9478185EC0A8
:10299000813209F040C0233289F4838190E0982F7E
:1029A00088273281832BA0E0B0E0809312019093BE
:1029B0001301A0931401B09315010FC0203239F414
:1029C00067E070E086E191E00E94A91809C0223218
:1029D00021F4828180931D0103C02D7F2032B1F547
:1029E00080918202811103C0E0E0F8E002C0EEEFC6
:1029F000FAE08091160190911701A0911801B09111
:102A00001901803B9440A105B10511F580911D018C
:102A100080FF03C01DC080E00895EE3F2AE0F2076A
:102A200031F0808191819093FF0A8093FE0A87E7BD
:102A300097E7918380832BE088E190E00FB6F894CC
:102A4000A895809360000FBE2093600081E00895F8
:102A500088E10FB6F89480936000109260000FBE7A
:102A6000A895EE3F8AE0F80739F08091FE0A909130
:102A7000FF0A91838083EACF1092FF0A1092FE0A28
:102A8000E5CF2FEF3FEFFC01358724870895CF93E3
:102A9000C0911D016AE070E080E090E00E94141394
:102AA00081E0C11101C080E0CF91089510923502FC
:102AB0001092340288EE93E0A0E0B0E080933602FA
:102AC00090933702A0933802B09339028EEA91E0D6
:102AD00090933302809332028FEF9FEF90933F02E7
:102AE00080933E020895AF92BF92CF92DF92EF9211
:102AF000FF920F931F93CF93DF936C017B01C0E094
:102B0000D0E000E010E0F601EC0FFD1F4AE050E0DD
:102B10006281C7010E9494165C016EE2C7010E94A7
:102B20001B168A0D9B1D080F191F2196C330D10556
:102B300051F74AE050E0F6016581C7010E94941602
:102B4000800F911FDF91CF911F910F91FF90EF9018
:102B5000DF90CF90BF90AF9008952EEB31E0FC0155
:102B600031832083128213821482158208950F9379
:102B7000FC018EEB91E09183808362834383248305
:102B800005830F9108952EEB31E0FC013183208302
:102B9000FB014081518162817381FC014283538337
:102BA000648375830895FB01408151816281738143
:102BB000FC01428353836483758308958EEB91E017
:102BC0009093840280938302109285021092860271
:102BD0001092870210928802089508950E944E1361
:102BE0000E94ED1589E892E00E94CD1A0E94190119
:102BF000C0E0D0E00E9489012097E1F30E9400002C
:102C0000F9CF0C942E1C6115710581F0DB010D903C
:102C10000020E9F7AD0141505109461B570BDC017B
:102C2000ED91FC910280F381E02D099480E090E029
:102C300008950C940316DC01ED91FC910190F08154
:102C4000E02D099460EC71E00C9403160F931F9330
:102C5000CF93DF93EC010E9403168C01CE010E94FA
:102C60002216800F911FDF91CF911F910F91089530
:102C70008F929F92AF92BF92DF92EF92FF920F934B
:102C80001F93CF93DF93CDB7DEB7A1970FB6F8941C
:102C9000DEBF0FBECDBF7C01F42FD52ECB0119A214
:102CA000223008F42AE08E010F5D1F4F822E912CF6
:102CB000A12CB12C6F2F7D2DA50194010E94C61B64
:102CC000F22FD32ECA01015011096A3014F4E0E347
:102CD00001C0E7E3E60FD801EC93232B242B252B2F
:102CE00049F7B801C7010E940316A1960FB6F894E0
:102CF000DEBF0FBECDBFDF91CF911F910F91FF902F
:102D0000EF90DF90BF90AF909F908F900895211526
:102D1000310541F4DC01ED91FC910190F081E02D51
:102D2000642F09940C9438169A01462F50E060E005
:102D300070E00C948716615030F02091F100FC0196
:102D400020830196F8CF289884E680939202089514
:102D500040918D0250918E0220918B0230918C0215
:102D600042175307B4F49091E8009570E1F3909105
:102D7000E80092FD19C08093F10080918D0290913E
:102D80008E0201968F739927892B19F48EEF809309
:102D9000E80080918D0290918E02019690938E02B0
:102DA00080938D0281E0089580E00895CF92DF92B4
:102DB000EF92FF920F931F93CF93DF931F92CDB7A4
:102DC000DEB7082F162FF42E862F880F8E5F99837B
:102DD0000E94A81683E00E94A816E02EC02E9981BA
:102DE000D92E8C2D8E19811798F4F601F7FE02C0AA
:102DF000849101C080810E94A816082F80E00E9463
:102E0000A8168023FFEFCF1ADF0A8111EACF01C095
:102E100081E00F90DF91CF911F910F91FF90EF9084
:102E2000DF90CF9008958091D70081608093D70084
:102E300080EA8093D80089B5806189BD89B58260B8
:102E400089BD09B400FEFDCF61E070E080E090E054
:102E50000E9414138091D8008F7C80618093D800E9
:102E60008091E000807F8093E0000895CF93DF930E
:102E70001F92CDB7DEB71982CE0101960E94AD1424
:102E80000E94B11BBE016F5F7F4F0E942A1B898188
:102E90000F90DF91CF9108952FB7FC012083F89414
:102EA00067706093E9000895CF93DF931F92CDB7C9
:102EB000DEB7682FCE0101960E944C178091F20078
:102EC00099819FBF0F90DF91CF910895FF920F934B
:102ED0001F93CF93DF9300D0CDB7DEB7F62E8A01D4
:102EE00090919102992311F057FF03C08FEF9FEF4C
:102EF0002BC0682FCE0101967A830E944C178091D7
:102F0000F20090E0A8017A81801791070CF4AC01DF
:102F1000EF2DF72FF40E84E6FE1639F028988093F3
:102F200092029091F1009193F7CF4115510521F054
:102F30008091F200882321F089818FBFCA0104C0EB
:102F40008BE68093E800F8CF0F900F90DF91CF9140
:102F50001F910F91FF900895CF93DF931F92CDB7EC
:102F6000DEB741E050E0BE016F5F7F4F0E94661701
:102F7000019719F4898190E002C08FEF9FEF0F90C5
:102F8000DF91CF910895CF93DF931F92CDB7DEB736
:102F9000682FCE0101960E944C179091E800892F6E
:102FA000807295FF04C09091F20080E4891B9981A2
:102FB0009FBF0F90DF91CF9108956F927F928F9274
:102FC0009F92AF92BF92CF92DF92EF92FF920F93B8
:102FD0001F93CF93DF931F92CDB7DEB7782E7B017F
:102FE000C42EB52E80919102882369F0042F152FED
:102FF0008AEFD82E872D8072982E9AE3A92E872DDE
:103000008074882E11C08FEF9FEF57C0872D0E94CC
:10301000C317682E81110CC0DA94A9F361E070E047
:1030200080E090E00E9414130115110579F73BC070
:10303000282F30E0021713070CF4602E672DCE0105
:1030400001960E944C178091E80085FF29C0262D2B
:1030500030E0021B130B992039F06A948FEF681649
:10306000B1F01092F100F9CFF701862D77FE07C07D
:10307000815058F094919093F1003196F9CF81509E
:1030800020F091919093F100FACFE20EF31E80911F
:10309000E80085FF0FC00115110511F481100AC069
:1030A00089818FBFC1CF5D9884E6809393028C2D78
:1030B0009B2D03C0A092E800F3CF0F90DF91CF913A
:1030C0001F910F91FF90EF90DF90CF90BF90AF9046
:1030D0009F908F907F906F9008951092E9001092CA
:1030E0008E0210928D0290938C0280938B02089531
:1030F000CF92DF92FF920F931F93CF93DF9300D075
:10310000CDB7DEB7F82E8A016B0101151105B1F0BC
:10311000F601F7FE02C0849101C0808149835A8381
:103120000E94A81601501109FFEFCF1ADF0A49814A
:103130005A818111EACF8FEF9FEF01C0CA010F9032
:103140000F90DF91CF911F910F91FF90DF90CF9063
:103150000895BF92CF92DF92EF92FF920F931F9349
:10316000CF93DF936C018B01EB013BEFB32E2097E4
:10317000C1F07E01C134D1051CF020E4E22EF12C17
:103180008091E80082FFFCCFC8018C1B9D0B6E2D47
:103190008C0D9D1D0E949B16B092E800CE19DF0990
:1031A000E6CFC801DF91CF911F910F91FF90EF9073
:1031B000DF90CF90BF9008951F920F920FB60F929D
:1031C0001124DF92EF92FF920F931F932F933F935F
:1031D0004F935F936F937F938F939F93AF93BF931F
:1031E000EF93FF93CF93DF93CDB7DEB76C97DEBF3E
:1031F000CDBF1092E9008091E80083FF23C168E011
:10320000CE0145960E949B1682EF8093E8003D898F
:1032100037FF05C08091E80080FFFCCF03C08EEF30
:103220008093E800832F807609F0F0C02E894F89C3
:10323000D88C21110CC0303829F4809190028093F1
:10324000F10002C01092F1001092F100F4C0842F3E
:1032500090E09D29213049F43111EDC0019709F02A
:10326000EAC0809190028D7F0AC0233059F4311159
:10327000E2C0019709F0DFC08091900282608093E4
:103280009002D9C0253041F48091E80080FFFCCF46
:1032900040684093E300CFC0263009F08DC0EB8C2E
:1032A000FC8C22E0D2122CC080E090E00E946D18CD
:1032B0000E94361799E08E010F5F1F4FF801292FEA
:1032C00011922A95E9F79983DA8291E09E8390EA38
:1032D00098879AEF998720918D0230918E02275F0F
:1032E0003F4F3C832B838D83C7010E946D1849E0BB
:1032F00050E0B80180E00E9478180E9436179BC009
:10330000C7010E946D180E94B11BBE016B5E7F4F0A
:103310000E94531B009719F00CF08DC090C081E003
:10332000D8120EC08B8D9C8D089719F481E0809384
:103330008A0280918A0281112FC067E971E031C051
:10334000E3E0DE127CC08F89882349F1823029F4C2
:1033500040E860E185EB91E01CC0813029F440E851
:103360006BE089EA91E015C0833009F068C00E94E3
:10337000B11B8E010F5F1F4FB8010E94721BF80135
:1033800001900020E9F73197E01BF10B40E06E2F30
:10339000C8010E94D6164DC065E871E002C066EC17
:1033A00071E06115710509F44AC0FB01449150E0D8
:1033B00080E80E9478183FC0273009F440C02830C8
:1033C00021F481E08093F10036C02930A1F53370FB
:1033D000B1F5EFE1F1E081E021E036E3908199235E
:1033E00061F08093E9002093EB0091919093EC00C1
:1033F0003093ED008F5F873089F78EE78093EA0086
:103400001092EA008F898093910215C08B8D9C8D5C
:103410000E946D18898D811105C0CE0145960E94CC
:10342000B81407C00E94B11BBE016B5E7F4F0E94A3
:10343000911B882321F08EEF8093E80003C081E286
:103440008093EB006C960FB6F894DEBF0FBECDBF35
:10345000DF91CF91FF91EF91BF91AF919F918F91AC
:103460007F916F915F914F913F912F911F910F919C
:10347000FF90EF90DF900F900FBE0F901F90189568
:103480008093E9008091F200882319F08AE3809309
:10349000E80008951F920F920FB60F9211242F93F8
:1034A0003F934F935F936F937F938F939F93AF93CC
:1034B000BF93CF93EF93FF93C091E1008091E10020
:1034C000837F8093E1008093E100C3FF0FC01092DF
:1034D000E90081E08093EB001092EC0082E380939E
:1034E000ED001092910288E08093F000C2FF19C0B5
:1034F00083E00E94401A80919302882339F08091E2
:103500009302815080939302882389F180919202E3
:10351000882339F08091920281508093920288230F
:1035200041F1C4FF10C08091E2008E7E81608093E3
:10353000E2008091E1008F7E8093E10080918F0214
:103540008E7E806111C0C0FF16C08091E2008E7E29
:1035500080618093E2008091E1008E7E8093E100A3
:1035600080918F028E7E816080938F0204C05D9A6D
:10357000CDCF289AD6CFFF91EF91CF91BF91AF9148
:103580009F918F917F916F915F914F913F912F917B
:103590000F900FBE0F901F901895109291021092ED
:1035A000900210928F020E9413178091E1008E7E8C
:1035B0008093E1008DE08093E200559A209AEEEF2F
:1035C000FFE7859194918B3F9C4D19F481E08093A6
:1035D00082020895CF93DF9300D000D0CDB7DEB73D
:1035E0009B01AC01611571058105910569F0698345
:1035F0003A834B835C830E94A41D29813A814B81CD
:103600005C810E94E81B03C060E070E0CB010F907A
:103610000F900F900F90DF91CF910895CF92DF928E
:10362000EF92FF926B017C01621773078407950785
:1036300064F4CA01B9016C197D098E099F090E94C1
:10364000EA1A6C0D7D1D8E1D9F1DFF90EF90DF907F
:10365000CF900895EF92FF920F931F93CF93DF9334
:103660007B01FC01C281D38100E010E0209781F052
:10367000E881F9810280F381E02DB701CE0109953F
:1036800097FD08C0080F191F0884D985C02DEECFFB
:10369000C80102C08FEF9FEFDF91CF911F910F9173
:1036A000FF90EF9008950F931F93CF93DF938B01BB
:1036B000FC01C281D381209771F0E881F9810480F7
:1036C000F581E02DB801CE010995009731F4088409
:1036D000D985C02DF0CF80E090E0DF91CF911F9190
:1036E0000F9108950F931F93CF93DF938B01FC01EC
:1036F000C281D381209771F0E881F9810680F7813A
:10370000E02DB801CE010995080F111D0884D98557
:10371000C02DF0CFF8011082DF91CF911F910F9152
:1037200008950F931F93CF93DF938B01FC01C28108
:10373000D381209771F0E881F9810190F081E02D2B
:10374000B801CE010995811106C00884D985C02D24
:10375000F0CF80E001C081E0DF91CF911F910F9108
:1037600008958091980281110DC082E080939402A7
:1037700084E080939502109297021092960281E065
:103780008093980284E992E008950895A1E21A2EA8
:10379000AA1BBB1BFD010DC0AA1FBB1FEE1FFF1FF5
:1037A000A217B307E407F50720F0A21BB30BE40B45
:1037B000F50B661F771F881F991F1A9469F760958C
:1037C0007095809590959B01AC01BD01CF01089546
:1037D000052E97FB1EF400940E94FF1B57FD07D097
:1037E0000E94C61B07FC03D04EF40C94FF1B50959F
:1037F0004095309521953F4F4F4F5F4F08959095DD
:103800008095709561957F4F8F4F9F4F0895EE0F74
:10381000FF1F0590F491E02D0994692796276927E9
:1038200078278727782708950E941F1CA59F900D51
:10383000B49F900DA49F800D911D11240895A29F07
:10384000B001B39FC001A39F700D811D1124911D74
:10385000B29F700D811D1124911D0895CF93DF93A8
:103860008230910510F482E090E0E091A202F091A4
:10387000A30220E030E0A0E0B0E0309739F14081D1
:10388000518148175907B8F04817590771F48281D8
:103890009381109729F013969C938E9312972CC0C6
:1038A0009093A3028093A20227C02115310531F025
:1038B0004217530718F0A901DB0101C0EF019A017B
:1038C000BD01DF010280F381E02DD7CF2115310545
:1038D000F9F0281B390B2430310580F48A819B8153
:1038E0006115710521F0FB019383828304C09093DD
:1038F000A3028093A202FE01329644C0FE01E20FB1
:10390000F31F8193919322503109398328833AC060
:103910002091A0023091A102232B41F420910201B9
:10392000309103013093A1022093A0022091000165
:10393000309101012115310541F42DB73EB7409179
:10394000040150910501241B350BE091A002F09178
:10395000A102E217F307A0F42E1B3F0B281739072B
:1039600078F0AC014E5F5F4F2417350748F04E0FDB
:103970005F1F5093A1024093A0028193919302C0D4
:10398000E0E0F0E0CF01DF91CF910895CF93DF9396
:10399000009709F487C0FC01329713821282C0910C
:1039A000A202D091A302209781F420813181280FB7
:1039B000391F8091A0029091A1028217930779F597
:1039C000F093A102E093A0026DC0DE0120E030E0A0
:1039D000AE17BF0750F412964D915C9113979D015D
:1039E0004115510509F1DA01F3CFB383A283408178
:1039F0005181840F951F8A179B0771F48D919C91BB
:103A00001197840F951F02969183808312968D9152
:103A10009C911397938382832115310529F4F093A8
:103A2000A302E093A2023EC0D9011396FC93EE9349
:103A300012974D915D91A40FB51FEA17FB0779F41A
:103A400080819181840F951F0296D90111969C93D4
:103A50008E938281938113969C938E931297E0E0CC
:103A6000F0E08A819B81009719F0FE01EC01F9CF0B
:103A7000CE01029628813981820F931F2091A002E6
:103A80003091A1022817390769F4309729F4109270
:103A9000A3021092A20202C013821282D093A1024A
:103AA000C093A002DF91CF9108958F929F92AF9221
:103AB000BF92CF92DF92EF92FF92CF93DF93EC0110
:103AC000688179818A819B816115710581059105E4
:103AD00021F464E279ED8BE597E02DE133EF41E0ED
:103AE00050E00E94E81B49015A019B01AC01A7EA82
:103AF000B1E40E94141C6B017C01ACEEB4EFA50193
:103B000094010E94C91DC60ED71EE81EF91EF7FEBD
:103B100006C081E0C81AD108E10880E8F80AC88226
:103B2000D982EA82FB82C701B6019F77DF91CF91EC
:103B3000FF90EF90DF90CF90BF90AF909F908F90CD
:103B400008950E94551D089586E091E00E94551D3C
:103B50000895609306017093070180930801909384
:103B600009010895FB01DC0104C08D9101908019C9
:103B700021F441505040C8F7881B990B0895FB0170
:103B8000DC0101900D920020E1F70895B7FF0C943D
:103B9000141C0E94141C821B930B0895F894FFCFF1
:103BA0000000A40280000100000000AABBCCDE02DD
:103BB0000004FFFFFFFF00E100000000000000C163
:103BC00080810000004661696C656420746F206329
:103BD0006F6E6669677572652045746865726E659B
:103BE00074207573696E672044484350004D7920F6
:103BF000495020616464726573733A20002E005747
:103C0000495A6E65740000000000B60ADF0AF90A1E
:103C1000040B220B450BC70B490B1E0B2A0C6B0C1C
:103C2000CC0AD40AAC0A00000000C40C0D0DC00C74
:103C3000210D670DDA0CD10DEC0C010D190E090DDB
:103C4000800D4A0DA50CAC0CBC0C000000005014FB
:103C500097147A148A146614771400000000731500
:103C60000D0A006E616E00696E66006F7666000078
:00000001FF
