:100000000C9491010C9456270C947D270C94A427F2
:100010000C94CB270C94B9010C94B9010C94F227E1
:100020000C94B9010C94B9010C9490300C94222FCB
:100030000C94B9010C94B9010C94B9010C94B90158
:100040000C94B9010C94B9010C94B9010C94B90148
:100050000C94B9010C94B9010C94B9010C941928B1
:100060000C94B9010C94B9010C94B9010C94B90128
:100070000C94B9010C94B9010C94B9010C94B90118
:100080000C94B9010C94B9010C94B9010C94B90108
:100090000C94B9010C94B9010C94B9010C94B901F8
:1000A0000C94B9010C94B9010C94B9017629792901
:1000B00068296C2972299A299A299A297D298129E6
:1000C00085298B298F299A29952944657669636545
:1000D000206973206E6F7420612044533138783268
:1000E000302066616D696C79206465766963652E80
:1000F00000005EBCE2613FDD83C29C7E20A3FD1F49
:10010000419DC3217FFCA2401E5F01E3BD3E608292
:10011000DC237D9FC1421CFEA0E1BF5D0380DE3C6D
:1001200062BEE0025CDF81633D7C22C09E1D43A174
:10013000FF4618FAA427799BC584DA3866E5BB59CF
:1001400007DB856739BAE406581947A5FB7826C44A
:100150009A653BD987045AB8E6A7F91B45C6987A31
:1001600024F8A6441A99C7257B3A6486D85B05E72C
:10017000B98CD2306EEDB3510F4E10F2AC2F71939B
:10018000CD114FADF3702ECC92D38D6F31B2EC0EFA
:1001900050AFF1134DCE90722C6D33D18F0C52B005
:1001A000EE326C8ED0530DEFB1F0AE4C1291CF2DDC
:1001B00073CA947628ABF517490856B4EA6937D55F
:1001C0008B5709EBB536688AD495CB2977F4AA48C2
:1001D00016E9B7550B88D6346A2B7597C94A14F6B9
:1001E000A8742AC896154BA9F7B6E80A54D7896BA4
:1001F00035070605040100080A0B0C0D0900000074
:100200000200090F0000030401000C0000000000C0
:1002100000000000000000000000000004080201CF
:10022000104080401020408040800802040180403F
:100230002010020110801020404020040404040417
:100240000304050202020204030202020206060679
:100250000606060404020202040400000000230053
:10026000260029002C002F00000000002500280097
:100270002B002E00310000000000240027002A007F
:100280002D003000080B00020202010009040000EA
:1002900001020200000524001001052401010104EF
:1002A0002402060524060001070581031000400909
:1002B000040100020A0000000705020240000007D6
:1002C00005830240000012010002EF0201404123B9
:1002D000368000010102030112010002000000400B
:1002E0004123368000010102030141726475696E89
:1002F0006F204C4C430041726475696E6F204C65F1
:100300006F6E6172646F0004030904004206C50B3E
:100310009C11601551175C1739194419FA26692B7D
:10032000F12B11241FBECFEFDAE0DEBFCDBF11E00D
:10033000A0E0B1E0EEEDFCE602C005900D92AC3B12
:10034000B107D9F724E0ACEBB1E001C01D92A63EA5
:10035000B207E1F713E0C2E2D3E004C02297FE0146
:100360000E947E34CC30D107C9F70E94012C0C9436
:100370006D360C9400008091B902811117C080E0A5
:1003800090E0A0E4B1E48093C0019093C101A093F8
:10039000C201B093C3011092C4016AE070E080E032
:1003A00090E00E94922881E08093B9028091BC0184
:1003B0009091BD01A091BE01B091BF010196A11D18
:1003C000B11D8093BC019093BD01A093BE01B09379
:1003D000BF018091B902811117C080E090E0A0E4D4
:1003E000B1E48093C0019093C101A093C201B09386
:1003F000C3011092C4016AE070E080E090E00E94C6
:10040000922881E08093B9028091BC019091BD0156
:10041000A091BE01B091BF01682F61708DE00C9476
:10042000D429EF92FF920F931F93CF93DF931F92E4
:10043000CDB7DEB77C01FC0100811181C801698361
:100440000E944F366981681719F0C8010E9457361B
:10045000C7010F90DF91CF911F910F91FF90EF9007
:1004600008951F93CF93DF93FC01668D778D80A154
:1004700091A124E630E040E050E00E943B34672B3D
:10048000682B692B49F484E690E00E944F3661E0C6
:10049000680F84E690E00BC0C4E6D0E010E0CE0127
:1004A0000E944F36811740F461E0680FCE01DF9162
:1004B000CF911F910C9457362196C83CD10511F06D
:1004C000182FEDCFDF91CF911F910895AF92BF927A
:1004D000CF92DF92EF92FF920F931F93CF93DF9310
:1004E00000D0CDB7DEB78C01FC01118A108A80E103
:1004F00090E0938B828B8EE190E0958B848B83E6EA
:1005000090E0978B868B0E944F368F3FC9F434E67C
:10051000E32EF12C60E0C7010E945736FFEFEF1A7F
:10052000FF0A88ECE816F104A9F7F8018689978993
:100530009A83898360E0CE0101960E9411021CC05B
:10054000C12CD12C760124E6A22EB12CC5010E942B
:100550004F36C80ED11CE11CF11CFFEFAF1ABF0AC9
:1005600088ECA816B10491F7F801C68ED78EE0A2E8
:10057000F1A2C8010E943102F801A088B188680187
:1005800090E1E92EF12CA01AB10AC5018C0D9D1D38
:100590000E944F36F60181936F01F1E0EF1AF108E6
:1005A000A1F785E0E82EF12CF801828993898E0D60
:1005B0009F1D0E944F36F801EE0DFF1D808FF1E068
:1005C000EF1AF10889F70F900F90DF91CF911F91EB
:1005D0000F91FF90EF90DF90CF90BF90AF90089574
:1005E0008F929F92AF92BF92DF92EF92FF920F9302
:1005F0001F93CF93DF93CDB7DEB7C554D1090FB6A4
:10060000F894DEBF0FBECDBF7C018B01DC011496D8
:100610001D921D921D921C92179788E018968C933C
:100620000E946F28F80183889488A588B688681985
:1006300079098A099B0980809180A280B3808616FF
:100640009706A806B90608F012C15801F7E0AF0EE8
:10065000B11CD8011596ED91FC9116978EE0DE0144
:100660009B9601900D928A95E1F741E0BE016F5F84
:100670007F4FCE018B960E94B51E882379F0FE0134
:100680003196D501CE01099621912D93E817F907EE
:10069000D9F767E0CE0101960E94521FF8018481CC
:1006A0000580F681E02D9EE0DE015D9601900D92C1
:1006B0009A95E1F78C3031F08B3031F08A3031F09F
:1006C0002FE105C02FE703C02FE501C02FE3CE01C6
:1006D0004D9626962FAF26970E945D1DB501CE013F
:1006E0004D960E94581E40E06EE4CE014D960E9449
:1006F000FA1D40E060E0CE014D960E94FA1D40E0F8
:1007000060E0CE014D960E94FA1D40E026962FAD86
:100710002697622FCE014D960E94FA1D40E068E4B4
:10072000CE014D960E94FA1DD8011596ED91FC91CF
:1007300016978EE0DE011F9601900D928A95E1F7E3
:10074000CE010F960E945D1DB501CE010F960E944D
:10075000581E41E064E4CE010F960E94FA1DD801B4
:100760001596ED91FC9116978EE0DE0111960190A1
:100770000D928A95E1F7F8018781823271F0883213
:1007800061F0803119F4DD24D39408C06AEC70E084
:1007900084E794E00E945A2C01C0D12CCE0101962E
:1007A0000E945D1DB501CE0101960E94581E40E0D9
:1007B0006EEBCE0101960E94FA1D5E01F9E3AF0EC9
:1007C000B11C450189E0880E911CCE0101960E9462
:1007D0003C1ED5018D935D01A815B905B1F76AAD31
:1007E00070E0762F662789AD682BDD2041F1F3E0BC
:1007F000660F771FFA95E1F721968FAD219780312B
:1008000051F4CB01807F2FAD6CE070E0621B710969
:10081000680F791F14C08DAD807631F4E3E0660F68
:10082000771FEA95E1F70BC0803229F4660F771F36
:10083000660F771F04C0803411F4660F771F80E0C5
:1008400090E00E940E3320E030E040E85DE30E943B
:10085000C433F8016787708B818B928B0E946F285D
:10086000D80153966D937D938D939C935697F80181
:1008700087859089A189B289F70180839183A283BA
:10088000B383C701CB5BDF4F0FB6F894DEBF0FBE5B
:10089000CDBFDF91CF911F910F91FF90EF90DF902F
:1008A000BF90AF909F908F9008958F929F92AF923C
:1008B000BF92CF92DF92EF92FF926A017B0120E01C
:1008C00030E040E351E4C701B6010E9471321816CE
:1008D0003CF02DEC3CEC4CE45DE3C701B601C3C138
:1008E00020E030E040E351E4C701B6010E94C0338C
:1008F0001816BCF420E030E048EB51E4C701B60123
:100900000E94713218166CF02EEA37E441EE5EE375
:10091000C701B6010E940C3226EA3BE944E45DE3DC
:10092000A2C120E030E048EB51E4C701B6010E94CB
:10093000C0331816BCF420E030E04CE352E4C701A9
:10094000B6010E94713218166CF028EA36EC4BEDB5
:100950005FE3C701B6010E940C322EE73CE849E391
:100960005DE381C120E030E04CE352E4C701B60111
:100970000E94C0331816BCF420E030E04CEB52E487
:10098000C701B6010E94713218166CF025E63AEAEA
:100990004AEF50E4C701B6010E940C322EE230E962
:1009A00040E25DE360C120E030E04CEB52E4C7017F
:1009B000B6010E94C0331816BCF420E030E042E2D9
:1009C00053E4C701B6010E94713218166CF027ED8E
:1009D00033EA48E052E4C701B6010E940C3229E82C
:1009E00032ED4EED5CE33FC120E030E042E253E403
:1009F000C701B6010E94C0331816BCF420E030E0F5
:100A00004AE353E4C701B6010E94713218166CF034
:100A100022E03BEA42E152E4C701B6010E940C32F7
:100A200025EF39EB4AED5CE31EC120E030E04AE3FC
:100A300053E4C701B6010E94C0331816BCF420E08D
:100A400030E841E853E4C701B6010E94713218163C
:100A50006CF02AE83EE24AEB52E4C701B6010E947C
:100A60000C3226E234EE43E85CE3FDC020E030E8DF
:100A700041E853E4C701B6010E94C0331816BCF424
:100A800020E030E04BE953E4C701B6010E94713227
:100A900018166CF020E030E04DE153E4C701B601D8
:100AA0000E940C3227EE3DE147E25CE3DCC020E02F
:100AB00030E04BE953E4C701B6010E94C033181679
:100AC000BCF420E030E043EB53E4C701B6010E94E0
:100AD000713218166CF025E934E24FE453E4C70193
:100AE000B6010E940C3225E639E142EE5BE3BBC061
:100AF00020E030E043EB53E4C701B6010E94C0336D
:100B00001816BCF420E030E848EC53E4C701B60105
:100B10000E94713218166CF020E030E048E853E48F
:100B2000C701B6010E940C3224E237E94FE75BE3CC
:100B30009AC020E030E848EC53E4C701B6010E94B7
:100B4000C0331816BCF420E030E048ED53E4C70190
:100B5000B6010E94713218166CF02CED36EF43EAA4
:100B600053E4C701B6010E940C3220EE3DE240E1A1
:100B70005BE379C020E030E048ED53E4C701B60103
:100B80000E94C0331816BCF420E030E045EE53E478
:100B9000C701B6010E94713218166CF02EE937EECB
:100BA0004AEB53E4C701B6010E940C3222E539E456
:100BB0004DE95AE358C020E030E045EE53E4C70168
:100BC000B6010E94C0331816BCF420E030E84FEEA6
:100BD00053E4C701B6010E94713218166CF020E090
:100BE00030EB4EEC53E4C701B6010E940C3224E313
:100BF00030E847E35AE337C020E030E84FEE53E4F3
:100C0000C701B6010E94C0331816BCF420E030E4DE
:100C100043E054E4C701B6010E94713218166CF02B
:100C200027EC31EF4CEE53E4C701B6010E940C32C1
:100C300027E137EB41ED58E316C020E030E443E014
:100C400054E4C701B6010E94C033181684F427EC9F
:100C500031E743E054E4C701B6010E940C322CEAAC
:100C600035EC47E257E30E9475324B015C01C50148
:100C7000B401FF90EF90DF90CF90BF90AF909F9026
:100C80008F9008950F931F93CF93DF9300E020E0A0
:100C900040E060E089E194E00E94CA2B87EF93E096
:100CA0000E9466028BE597E09093C2028093C10296
:100CB00083EC92E00E94C02B10922D0310922E0321
:100CC0008FE293E00E94C6188AE493E00E946916BE
:100CD00080EE9BEA909358038093570389E593E055
:100CE0000E941F211092F60380E894E8AEE1B0E084
:100CF0008093A2029093A302A093A402B093A502B2
:100D00008AE08093A6021092B1021092B202109271
:100D1000B3021092B4021092B5021092B602109271
:100D2000B7021092B8028EE090E00E94142CEC0101
:100D300067E00E94921ED093A802C093A70249E0E8
:100D400050E068E070E084E992E00E945E1F10923B
:100D50009102C8E6D2E014E1188382E18093670231
:100D600060E00E949B2961E088810E949B2961E0EC
:100D700088810E94D4291092660285E180933C020A
:100D800010933D0283E180933B0260E00E949B2927
:100D900010923A0287E18093110260E0DF91CF91D7
:100DA0001F910F910C949B296F927F928F929F922B
:100DB000AF92BF92CF92DF92EF92FF920F931F9369
:100DC000CF93DF9300D000D000D0CDB7DEB77C0149
:100DD0008B0161E08BE00E949B2960E08BE00E9428
:100DE000D4296AE070E080E090E00E94922861E0FF
:100DF0008BE00E94D42968EC70E080E090E00E94D3
:100E00009228CE0101966C010E94C02B80900B04A9
:100E100090900C043E0197E0690E711C56018C18ED
:100E20009D08C4018A0D9B1D0E944F36F5018193D8
:100E30005F01E615F705A9F78B819C81AD81BE8125
:100E4000F70184839583A683B783B8018CE294E08D
:100E50000E946614892BE9F1F701EB5CFE4F81E0FB
:100E6000808343E064E089E190E00E94481B48EE03
:100E700064E08AE190E00E94481B43E064E08BE17B
:100E800090E00E94481BF701EA56FF4F6081718194
:100E9000C70182599F4F0E949318F70140815181E9
:100EA00088EA91E09A8389830481158126813781BC
:100EB0000B831C832D833E83B601C70188569F4F49
:100EC0000E94DD26B70167577F4F0E94F62681E01A
:100ED00001C080E026960FB6F894DEBF0FBECDBFEE
:100EE000DF91CF911F910F91FF90EF90DF90CF9006
:100EF000BF90AF909F908F907F906F90089540E04B
:100F000052EC61E070E084E794E00E94632B62E0C1
:100F100080E00E949B298091B902811117C080E076
:100F200090E0A0E4B1E48093C0019093C101A0934C
:100F3000C201B093C3011092C4016AE070E080E086
:100F400090E00E94922881E08093B90261E08DE0F8
:100F50000E949B298091C401811118C062E083E046
:100F60000E949B2981E08093C4010E946F286093B6
:100F7000C5017093C6018093C7019093C80142E0F8
:100F800050E06BEB71E080E00E9406278CEB91E073
:100F900090939302809392026FE074E081EC92E070
:100FA0000C94D4066F927F928F929F92AF92BF92D1
:100FB000CF92DF92EF92FF920F931F93CF93DF9325
:100FC000CDB7DEB72E970FB6F894DEBF0FBECDBFFC
:100FD0008C018CE294E00E94F314780188E9E80E19
:100FE000F11CC7010E94E8245801AEE6AA0EB11C0C
:100FF000C5010E944218069709F0A3C0F801E15804
:10100000FF4F60803196708031968080319690805D
:10101000D501ED91FC916E01B7E0CB0ED11C008C97
:10102000F18DE02D46E050E0B601C50109958F81B4
:10103000833709F086C08A85823709F082C0F801BB
:10104000848186110AC08581871107C08681881135
:1010500004C08781891509F474C0C7010E94F82271
:10106000F80140815181B8EAAB2EB1E0BB2EBA82C3
:10107000A9826B827C828D829E82BE016F5F7F4FD0
:10108000C7010E94DD266CE371E0C7010E94CF24F6
:101090008823C9F161E371E0C80187579F4F0E941F
:1010A0006C2CD80114966C92149715967C92159717
:1010B00016968C92169717969C921797BA82A982C9
:1010C00014968D919D910D90BC91A02D8B839C8346
:1010D000AD83BE83E0900B04F0900C048E010F5F93
:1010E0001F4FE01AF10AC701800F911FF8016191AB
:1010F0008F019E878D87CE010D960E9411020C15DF
:101100001D0589F71EC0C7010E94F822D8014D9124
:101110005C911197BA82A98214960D911D912D911F
:101120003C9117970B831C832D833E83BE016F5F19
:101130007F4FC7010E94DD2668E371E0C7010E946E
:10114000CF242E960FB6F894DEBF0FBECDBFDF9131
:10115000CF911F910F91FF90EF90DF90CF90BF90B4
:10116000AF909F908F907F906F9008954F925F9275
:101170006F927F928F929F92AF92BF92CF92DF92A7
:10118000EF92FF920F931F93CF93DF93CDB7DEB70C
:10119000C155D1090FB6F894DEBF0FBECDBF81ECAB
:1011A00092E00E94D2070E946F28C0909A02D090CD
:1011B0009B02E0909C02F0909D026C197D098E09C3
:1011C0009F096135734C8105910508F471C00E9437
:1011D0006F2860939A0270939B0280939C02909375
:1011E0009D020091910210E0809167020E942D29DA
:1011F000F801EE0FFF1FE759FD4F91838083809127
:10120000910290E0019604E110E0B8010E942734B9
:101210008093910260E080913D020E94D42961E0B8
:1012200070E080E090E00E94922861E080913C02B2
:101230000E94D42961E070E080E090E00E94922852
:10124000E0906602F12C80913B020E942D29F7016B
:10125000EE0FFF1FE55CFD4F948383838091660250
:1012600090E00196B8010E9427348093660260E006
:1012700080913C020E94D42961E080913D020E944D
:10128000D429E0903A02F12C809111020E942D297C
:10129000F701EE0FFF1FEF5EFD4F92838183809178
:1012A0003A0290E00196B8010E94273480933A02F6
:1012B0000E946F28C0909E02D0909F02E090A002F2
:1012C000F090A1026C197D098E099F096134724466
:1012D0008F40910508F4C2C10E946F2860939E025E
:1012E00070939F028093A0029093A1020E946F28A6
:1012F00084E992E00E949D206093C9017093CA0125
:101300008093CB019093CC011092CD011092CE012D
:101310001092CF011092D00185E08093D10184E931
:1013200092E00E9486206093D2017093D301809353
:10133000D4019093D5011092D6011092D70110924A
:10134000D8011092D90186E08093DA01A090920230
:10135000B09093020E946F28F8940E946F286B014E
:101360007C01F501608171818281938110821182FB
:10137000128213827894F5014184528463847484C8
:10138000A7019601241935094609570929013A018F
:101390000E940E33F50124813581468157810E94D8
:1013A0007532F501C186D286E386F4866093DB014F
:1013B0007093DC018093DD019093DE014092DF01A8
:1013C0005092E0016092E1017092E20180E180932D
:1013D000E3011092E8011092E9011092EA011092E3
:1013E000EB0183E18093EC0180E00E940A2ABC01BA
:1013F000882777FD8095982F0E9410336093E40131
:101400007093E5018093E6019093E70162EA72E050
:10141000CE01875B9F4F0E94F00289E0FE01E75BEF
:10142000FF4FADEEB1E001900D928A95E1F7E9E64C
:10143000F2E060E070E0CB0121913191620F731F07
:10144000811D911D22E0E139F207B1F724E130E07E
:1014500040E050E00E943B34CA01B9010E940E33C3
:1014600020E030E44CE950E40E94C4339B01AC011D
:1014700060E070EB83E195E40E940C3220E030E004
:1014800042E852E40E94753220E030E040EE50E441
:101490000E940D326093F6017093F7018093F8017A
:1014A0009093F90180E492E4AFE0B0E08093FA0118
:1014B0009093FB01A093FC01B093FD0184E0809325
:1014C000FE018090ED019090EE01A090EF01B090B0
:1014D000F001EEE3F2E060E070E0CB0121913191A8
:1014E000620F731F811D911D32E0E636F307B1F7DD
:1014F00024E130E040E050E00E943B34CA01B901F1
:101500000E940E33AB01BC018BE392E00E945504B4
:101510000E94E2320E940E332DE836EE4BE551E494
:101520000E940C329B01AC0160E27EE987E899E4FD
:101530000E9475326B017C0120E030E048EC51E400
:10154000C501B4010E940C3220E53DE847E95CE3A7
:101550000E94C43320E030E040E85FE30E940D3297
:101560009B01AC01C701B6010E9475326093FF0177
:1015700070930002809301029093020280E492E44F
:10158000AFE0B0E08093030290930402A0930502C1
:10159000B09306028DE080930702E2E1F2E060E0A2
:1015A00070E0CB0121913191620F731F811D911D5C
:1015B00042E0EA33F407B1F724E130E040E050E0E4
:1015C0000E943B34CA01B9010E940E3320E030E48E
:1015D0004CE950E40E94C4336093080270930902FE
:1015E00080930A0290930B0280E492E4AFE0B0E0B3
:1015F00080930C0290930D02A0930E02B0930F0201
:101600008BE08093100289E593E00E9447238823B2
:1016100041F0A2E1B2E0FE01E65BFF4FCE0102968F
:101620000DC089E593E00E94F82268E371E089E546
:1016300093E00E94CF24882389F0EBCF2E91229350
:10164000E817F907D9F728E430E0AE014F5F5F4FA4
:1016500060E471E089E593E00E94D726CF5ADF4F1E
:101660000FB6F894DEBF0FBECDBFDF91CF911F91B3
:101670000F91FF90EF90DF90CF90BF90AF909F9031
:101680008F907F906F905F904F900895CF93CFB7DA
:10169000F89480911F04811127C0ECE4F2E084915A
:1016A000EDE2F2E09491E82FF0E0EE0FFF1FEA5830
:1016B000FD4FA591B4918C91892321F461E081E1E2
:1016C0000E94D42961E081E10E949B298CB5806150
:1016D0008CBD8CB580648CBD61E08FE00E949B293D
:1016E00061E080E10E949B2980911F048F5F8093BD
:1016F0001F04CFBFCF9108950E9624E1FC011192F3
:101700002A95E9F70895CF93DF93EC01625F7F4F4D
:101710000E94D62BCE01DF91CF910895CF93DF9316
:10172000EC016E5E7F4F0E94D62BCE01DF91CF91F0
:101730000895CF93DF93EC016A5E7F4F0E94D62B12
:10174000CE01DF91CF910895CF93DF93EC01625EDC
:101750007F4F0E94D62BCE01DF91CF91089580E379
:10176000FB0180833296842F82958F7090E1899F50
:10177000401911244A3014F4405D01C0495C429381
:10178000882311F0482FEFCF08950F9300E020E059
:1017900040E060E080E294E00E94CA2B0F9108953F
:1017A0006F927F928F929F92AF92BF92CF92DF9271
:1017B000EF92FF920F931F93CF93DF93CDB7DEB7D6
:1017C000AC970FB6F894DEBF0FBECDBF7C01862E5E
:1017D000B42EA52E20E2922ECE0101966C01FC01C2
:1017E000292D11922A95E9F70FEF2FEF4FEF6FEFA9
:1017F00086960E94CA2B88EA91E09AA389A389A5BC
:101800009AA5ABA5BCA58BA39CA3ADA3BEA3870142
:10181000095B1F4F43E450E0BE016F5D7F4FC8017D
:101820000E94C317019609F4BFC081E089838A83AF
:1018300086E0782E7B821C82F70164817581868127
:1018400097810E9482346D837E838F839887A986D7
:10185000BA8680E890E09C878B874CE150E0B60127
:10186000C8010E94CF17F601292D11922A95E9F798
:10187000570188E0A80EB11CF501D60101900D9228
:101880007A94E1F740E150E0B601C8010E94CF1719
:10189000F60111929A94E9F796E0692E712C40E2D4
:1018A00050E0B601C8010E94CF17F1E06F1A71082D
:1018B000B1F783E6898392E89A8393E59B838C83CF
:1018C00085E38D8381E08E838F829DE3988797E007
:1018D00099878A8786E0F501DE011B9601900D92BB
:1018E0008A95E1F78CE0898B8A8B69E471E0CE01FF
:1018F00043960E944836F7014385BE01675E7F4FDD
:10190000C7010E94AF0BF7014485BE01655E7F4FA2
:10191000C7010E94AF0BF7014585BE01635E7F4F93
:10192000C7010E94AF0B4EE150E0B601C8010E9412
:10193000CF17F3E08F121EC082E3898384E08A838D
:10194000F70196859B8397859C8390899D839189D8
:101950009E8396E39F838887828D8987838D8A877C
:10196000848D8B87858D8C874CE050E0B601C80153
:101970000E94CF1787E3898386E08A8391E09B8367
:1019800093E09C838D838FE08E838AE38F838BE348
:1019900088878FEF898749E050E0B601C8010E942F
:1019A000CF17C8010E94CB17AC960FB6F894DEBFD4
:1019B0000FBECDBFDF91CF911F910F91FF90EF90A0
:1019C000DF90CF90BF90AF909F908F907F906F905F
:1019D00008952F923F924F925F926F927F928F92D3
:1019E0009F92AF92BF92CF92DF92EF92FF920F93AE
:1019F0001F93CF93DF93CDB7DEB7E3970FB6F8947D
:101A0000DEBF0FBECDBF7C012A013B0169010E94F0
:101A100063284B015C018701095B1F4FC8010E94CD
:101A200042181816190694F00E946328681979095B
:101A30008A099B094616570668067906F0F062E3A4
:101A400070E080E090E00E949228E8CF42E250E00F
:101A5000BE016F5F7F4FC8010E940C1889818230E0
:101A600031F4F801858996898334910541F019A6EE
:101A7000C8010E949C1789A566C18FEF64C16D8162
:101A80007E818F8198850E9482344B015C01F60132
:101A9000608371838283938346E050E0B701685F7F
:101AA0007F4FCE014D960E943B36892B99F4F7016A
:101AB00080819181A281B38188169906AA06BB060E
:101AC00048F084819581A681B78188159905AA057A
:101AD000BB0528F4C8010E949C1780E034C18989A5
:101AE0009A89AB89BC89F70186879787A08BB18BD0
:101AF0003EECC32ED12CC8010E94E317F1E0CF1AAF
:101B0000D108C9F719A6C70182969BA78AA7F70132
:101B1000B696FDA7ECA708969FA78EA73C976F01E6
:101B20008E9699AB88AB3897FBABEAAB5701F6E1E1
:101B3000AF0EB11C47018EE1880E911CC8010E94B6
:101B40008217181619060CF093CFC8010E94E317EC
:101B50008333910509F4CDC0F4F481309105B9F1D6
:101B60001CF4892B59F3DFC083309105C1F106972E
:101B700009F0D9C0C8010E94E3173C0144E050E0DD
:101B8000B401C8010E940C18212C312C7724F4E0F8
:101B90006F1A71083FC08A33910509F47EC03CF486
:101BA0008533910561F0C69709F43FC0BCC08B3303
:101BB000910509F488C08F3F910501F2B4C0C801B6
:101BC0000E94E317C8010E94E31789A7B7CFC80195
:101BD0000E94E31744E050E06AA97BA93AC0C8011B
:101BE0000E94E3173C0144E050E0B501C8010E94A7
:101BF0000C18212C312C772494E0691A71082614D2
:101C000037040CF09BCFC8010E94E317EFEF2E1AA8
:101C10003E0AF5CF261437040CF090CFC8010E947D
:101C2000E3178FEF281A380AF5CFC8010E94E3178F
:101C3000782EF701828D811110C0838D81110DC026
:101C4000848D81110AC0858D811107C044E050E068
:101C5000B601C8010E940C1871CFE8A9F9A920802B
:101C6000318042805380B601CE0183960E94D62BEC
:101C70008DA19EA1AFA1B8A582159305A405B505B8
:101C800029F3212C312C721409F458CFC8010E9479
:101C9000E317FFEF2F1A3F0AF6CFC8010E94E317A0
:101CA00044E050E06CA57DA5C8010E940C18F70126
:101CB00066A177A180A591A50E94823466A377A32F
:101CC00080A791A73BCFC8010E94E31744E050E0F2
:101CD0006EA57FA5C8010E940C18F70162A573A527
:101CE00084A595A50E94823462A773A784A795A7AF
:101CF00025CFC8010E94E31744E050E06AA57BA508
:101D0000C8010E940C18F70162A173A184A195A1DA
:101D10000E94823462A373A384A395A366A777A7C6
:101D200080AB91AB0BCFC8010E94E317382E612C1A
:101D3000712C361409F402CFC8010E94E317FFEF9B
:101D40006F1A7F0AF6CFE3960FB6F894DEBF0FBE88
:101D5000CDBFDF91CF911F910F91FF90EF90DF905A
:101D6000CF90BF90AF909F908F907F906F905F903B
:101D70004F903F902F9008952F923F924F925F92F5
:101D80006F927F928F929F92AF92BF92CF92DF928B
:101D9000EF92FF920F931F93CF93DF93CDB7DEB7F0
:101DA00027970FB6F894DEBF0FBECDBF8C0120ED94
:101DB00037E040E050E061E070E080E090E00E94B9
:101DC0005431D80114966D937D938D939C931797FE
:101DD000F80160837183828393834801F7E48F0E57
:101DE000911CC4010E94AE1764E470E0C4010E941B
:101DF0009318882309F428C10E9463286B017C0191
:101E0000A12CB12C1D82180186E4280E311CD801AA
:101E1000DE96BF83AE8338EE432E33E0532E612C23
:101E2000712CF1018081833009F4FDC081111FC044
:101E3000F80184819581A681B7810196A11DB11D0C
:101E400084839583A683B7830E9463286C197D09D8
:101E50008E099F09A30192010E943B34A90161E010
:101E6000C8010E94D00B81E0D1018C93BEC08430A8
:101E7000F9F4F80184819581A681B7810196A11DAD
:101E8000B11D84839583A683B7830E9463286C1950
:101E90007D098E099F09A30192010E943B34A9018B
:101EA00063E0C8010E94D00BE2E0D101EC939DC039
:101EB000813061F5AE81BF814D915D916D917C91D5
:101EC0009E012F5F3F4FC8010E94E90C8D83823035
:101ED00009F08BC089819A81AB81BC81F801848330
:101EE0009583A683B7830E9463286C197D098E09A8
:101EF0009F09A30192010E943B34A90163E0C8013C
:101F00000E94D00BED81D101EC9375C0823009F0B5
:101F10006CC0AE81BF814D915D916D917C919E01B0
:101F20002F5F3F4FC8010E94E90C8D83853009F077
:101F300056C083E0F1018083F80182A193A1A4A19E
:101F4000B5A1892B8A2B8B2B41F484E893E0A0E088
:101F5000B0E082A393A3A4A3B5A3F80186A197A19F
:101F6000A0A5B1A5892B8A2B8B2B61F482A193A10B
:101F7000A4A1B5A1B695A7959795879586A397A394
:101F8000A0A7B1A7D8019A964D915D916D917C91D2
:101F90009D9796968D919D910D90BC91A02D452B6E
:101FA000462B472B59F4AC01BD01440F551F661F4A
:101FB000771FF80142A753A764A775A7F80186A762
:101FC00097A7A0ABB1AB82A593A5A4A5B5A582ABFD
:101FD00093ABA4ABB5ABAA24A394B12C0CC0FD81E8
:101FE000F63019F4D1011C9206C0BD81BF3F19F42F
:101FF000F10110821D82F1E0AF16B10409F411CF96
:102000000E9463286C197D098E099F09D801DA9610
:102010002D913D914D915C91DD972617370748072B
:10202000590708F0FECEC4010E94AE17F801848162
:102030009581A681B7810196A11DB11D84839583E9
:10204000A683B783C50102C080E090E027960FB653
:10205000F894DEBF0FBECDBFDF91CF911F910F91DE
:10206000FF90EF90DF90CF90BF90AF909F908F90B8
:102070007F906F905F904F903F902F900895CF92F8
:10208000DF92EF92FF920F931F93CF93DF93EC01B8
:102090006B011AA21BA21CA21DA21EA21FA218A69F
:1020A00019A61AA61BA61CA61DA61EAA1FAA18AE14
:1020B00019AE2AAF3BAF4CAF5DAFFC01FE96E0829C
:1020C000F182028313838C01085F1F4F86E0F801C1
:1020D00011928A95E9F7CE010E947C0B86E0F60109
:1020E000D80101900D928A95E1F7FE01EA5BFF4F5E
:1020F0001082CE01DF91CF911F910F91FF90EF9051
:10210000DF90CF900C94BC0E8F929F92AF92BF92B3
:10211000CF92DF92EF92FF920F931F93CF93DF93B3
:10212000EC010E9463286B017C018EA99FA9A8ADD8
:10213000B9AD8E010E5B1F4F892B8A2B8B2B09F4B7
:102140008FC0F80180819181A281B381A70196019E
:10215000281B390B4A0B5B0BCA01B90157FD4EC056
:102160004601570138EE830E33E0931EA11CB11CCB
:1021700028EE33E040E050E00E945D34861A970A72
:10218000A80AB90AF80180829182A282B382DA0198
:10219000C9010196A11DB11D4EA55FA568A979A928
:1021A0008C019D01000F111F221F331F4017510783
:1021B000620773072CF41EA61FA618AA19AA08C046
:1021C000481B590B6A0B7B0B4EA75FA768AB79AB1B
:1021D0004AA95BA96CA97DA940175107620773073B
:1021E0002CF41AAA1BAA1CAA1DAA08C0481B590B2A
:1021F0006A0B7B0B4AAB5BAB6CAB7DAB8E010A5BB6
:102200001F4FF8018081833081F48EA59FA5A8A976
:10221000B9A9181619061A061B063CF084E080833B
:10222000CE010E94BC0E019602C080E090E0F80151
:102230002081233011F0211120C04AA95BA96CA98B
:102240007DA91416150616061706BCF0F8011082B3
:10225000CE010E947C0BCE010E94BC0E03960DC0E5
:10226000D701C60188519C4FAF4FBF4FF801808303
:102270009183A283B38380E090E0CEAADFAAE8AE88
:10228000F9AEDF91CF911F910F91FF90EF90DF900A
:10229000CF90BF90AF909F908F900895FB014281A7
:1022A000538164817581FC01428353836483758308
:1022B000178216820895CF93FB0181918111FDCF82
:1022C000FB0180E090E020E030E0CAE0619166230D
:1022D00009F12430310564F56E3271F48F3F9105B8
:1022E00009F034F5DA01A20FB31F12968C932F5F19
:1022F0003F4F80E090E0EACFDC01CA9FC001CB9F56
:10230000900D1124772767FD709560537109860F32
:10231000971FDCCF8F3F910509F054F4243031052D
:102320003CF4FA01E20FF31F828381E090E002C0E7
:1023300080E090E0CF9108950F9300E020E040E02E
:1023400060E086E294E00E94CA2B0F910895AF925C
:10235000BF92CF92DF92EF92FF920F931F93CF9392
:10236000DF9300D01F92CDB7DEB76C017B010E94D6
:102370006328F601778366838601085F1F4FB601E5
:102380006A5F7F4F42E050E0C8010E94CF1781E0B2
:1023900090E09A83898342E050E0BE016F5F7F4FF7
:1023A000C8010E94CF1780E091E09A83898342E0C0
:1023B00050E0BE016F5F7F4FC8010E94CF171A82A5
:1023C000198242E050E0BE016F5F7F4FC8010E945A
:1023D000CF1742E050E0BE016F5F7F4FC8010E94FF
:1023E000CF1742E050E0BE016F5F7F4FC8010E94EF
:1023F000CF176701F6018081882311F1F7016F0182
:102400008191811115C05601AE18BF081A141B0422
:1024100094F4AB8241E050E0BE016D5F7F4FC80194
:102420000E94CF17A501B701C8010E94CF1703C0B2
:102430008E3229F7E8CF7601FFEFEF1AFF0ADACFE5
:102440001B8241E050E0BE016D5F7F4FC8010E94DA
:10245000CF17E12CFF24F394FA82E98242E050E0A6
:10246000BE016F5F7F4FC8010E94CF17FA82E982D9
:1024700042E050E0BE016F5F7F4FC8010E94CF175E
:1024800081E090E00F900F900F90DF91CF911F911E
:102490000F91FF90EF90DF90CF90BF90AF90089595
:1024A0004F925F926F927F928F929F92AF92BF9264
:1024B000CF92DF92EF92FF920F931F93CF93DF9310
:1024C000CDB7DEB763970FB6F894DEBF0FBECDBFB2
:1024D0007C015B016A010E9463282B013C0187019A
:1024E000085F1F4F4501A12CB12CC8010E94421862
:1024F0001816190694F00E94632864197509860954
:10250000970986169706A806B906D0F062E370E030
:1025100080E090E00E949228E8CFF7014281538149
:1025200064817581818D928DA38DB48D4817590773
:102530006A077B0741F4858D968DC59721F406C007
:102540008FEF9FEFF9C08EEF9FEFF6C0C8010E949A
:1025500082170C970CF4EEC04CE050E0BE016F5FA8
:102560007F4FC8010E940C188B819C819827892776
:1025700098279A8B898BF7014681578129813A8167
:102580004217530711F497FD06C0C8010E949C171B
:102590008CEF9FEFD1C08F709270892B31F0C80102
:1025A0000E949C178BEF9FEFC7C0AF80B884BA24FE
:1025B000AB24BA24A114B10419F0E12CF12C23C0EE
:1025C000C8010E949C178AEF9FEFB6C041E050E01F
:1025D000BE01635F7F4FC8010E940C188D85811179
:1025E0001BC08D858111F2CFC8010E94E317C8017D
:1025F0000E94E317C8010E94E317C8010E94E31775
:10260000FFEFEF1AFF0A8D819E819827892798276F
:10261000E816F906D8F20AC08D859FEF980F9D87BE
:102620008823F9F2C8010E94E317F6CFE12CF12CC0
:1026300041E050E0BE016D5E7F4FC8010E940C1862
:102640008B89982F907C61F4882371F08B899FEFA0
:10265000980F9B8B882341F0C8010E94E317F6CFA7
:10266000C8010E94E3171B8A8B898111E1CF42E0E8
:1026700050E0BE01615F7F4FC8010E940C1842E02C
:1026800050E0BE01635F7F4FC8010E940C18C80173
:102690000E94E317C8010E94E317C8010E94E317D4
:1026A000C8010E94E31742E050E0BE016F5E7F4F19
:1026B000C8010E940C188F8598898115914029F4D2
:1026C0008D859E858115914019F0812C912C16C025
:1026D00089899A898115944031F0C8010E949C171C
:1026E00087EF9FEF29C0B6016E5F7F4F44E050E057
:1026F000C8010E940C1881E090E01EC089899A8967
:102700009827892798278816990638F4C8010E94C7
:10271000E3172FEF821A920AF1CF8FEFE81AF80A27
:10272000EA14FB0409F084CFC8010E949C1786EFCD
:102730009FEF02C08DEF9FEF63960FB6F894DEBF58
:102740000FBECDBFDF91CF911F910F91FF90EF9002
:10275000DF90CF90BF90AF909F908F907F906F90C1
:102760005F904F9008958F929F92AF92BF92CF92B9
:10277000DF92EF92FF920F931F93CF93DF9300D0DE
:1027800000D000D0CDB7DEB78C015B016A010E949A
:102790005B114C01009709F05DC0F8014281538143
:1027A000648175818091280490912904A0912A0464
:1027B000B0912B04481759076A077B0709F44EC0EC
:1027C0000E9463287801F8E0EF0EF11C6F70772704
:1027D0007C5FC7010E949318813009F043C088EAEA
:1027E00091E09A838983F80182819381A481B581E4
:1027F0008B839C83AD83BE8345E350E0BE016F5F56
:102800007F4FC7010E94C317892B19F4812C912C8B
:102810001DC0B501C8010E94A711892BB9F3C701DA
:102820000E94CB17892B91F333E0A32EB12CA60184
:1028300068E873E1C8010E9450124C01F1E0AF1A40
:10284000B10821F08F3F2FEF920789F3C7010E9453
:10285000AE1708C088248394912C04C09EEF892E63
:1028600099249A94C40126960FB6F894DEBF0FBE41
:10287000CDBFDF91CF911F910F91FF90EF90DF902F
:10288000CF90BF90AF909F908F90089524E030E05C
:10289000AC0164E081E090E00C94911B24E030E016
:1028A000AC0164E085E090E00C94911B26E030E000
:1028B000AC0164E089E090E00C94911B24E030E0EE
:1028C000AC0164E08FE090E00C94911BAF92BF925A
:1028D000CF92DF92EF92FF920F931F93CF93DF93EC
:1028E00000D000D000D0CDB7DEB76C015B0182E62E
:1028F00090E00E94142C8C0182E6F80111928A95D6
:10290000E9F7C801895B9F4F0E94C618F60117833B
:10291000068384E694E00E946E1BC5010E94561453
:1029200000E020E040E060E0CE0101960E94CA2B6A
:10293000CE0103960E945E1418E8E12E13E1F12EF9
:1029400000E010E020E63AEE40E050E0B501F6018C
:10295000868197810E943F108C018130910589F515
:10296000F60166817781CE0101960E94830BCE012C
:1029700003960E945E14F60166817781CE0101966E
:102980000E94990BCE0103960E944614F6016681BF
:102990007781CE0101960E948E0BCE0103960E9494
:1029A0004E14F60166817781CE0101960E94A40B38
:1029B0004B815C816D817E81F60142835383648308
:1029C0007583C80126960FB6F894DEBF0FBECDBF43
:1029D000DF91CF911F910F91FF90EF90DF90CF90FB
:1029E000BF90AF900895EF92FF920F931F93CF93F4
:1029F000DF9300D000D000D0CDB7DEB78C01FC0152
:102A0000868197810097E1F10E9484107C018230D9
:102A1000910521F084E0E816F104A1F5F801668142
:102A20007781CE0101960E94830BCE0103960E940E
:102A30005E14F80166817781CE0101960E94990BA0
:102A4000CE0103960E944614F80166817781CE017B
:102A500001960E948E0BCE0103960E944E14F8013F
:102A600066817781CE0101960E94A40B4B815C8127
:102A70006D817E81F801428353836483758302C034
:102A8000E12CF12CC70126960FB6F894DEBF0FBEDD
:102A9000CDBFDF91CF911F910F91FF90EF900895DF
:102AA00028EA31E0FC0131832083FB01428153811C
:102AB00064817581FC014283538364837583089527
:102AC0000F9300E020E040E060E084E494E00E94A6
:102AD000CA2B8CE294E00F910C94C02BDC01ED9199
:102AE000FC91008CF18DE02D099591E089270895E6
:102AF000CF93DF931F92CDB7DEB76983DC01ED91F1
:102B0000FC910280F381E02D41E050E0BE016F5F57
:102B10007F4F09950F90DF91CF91089521E0FC013F
:102B20008485883009F420E0822F0895FC01948583
:102B3000FB018485981303C081E0983009F480E09C
:102B400008950F931F93CF93DF93EC018A018C8537
:102B5000883021F00E94231A892B39F481E090E01B
:102B60009B838A8380E090E001C0C801DF91CF9110
:102B70001F910F910895FC016485683021F084E66F
:102B800094E00C943F1C80E090E00895CF93DF9395
:102B90001F92CDB7DEB741E050E0BE016F5F7F4FBF
:102BA000FC0184850E94751A181619061CF4898187
:102BB00090E002C08FEF9FEF0F90DF91CF910895CB
:102BC000FC0184850C94751A0F931F93CF93DF93A8
:102BD0001F92CDB7DEB78C01DC01ED91FC91048032
:102BE000F581E02D0995892B51F0BE016F5F7F4F74
:102BF000F80184850E94B91A898190E002C08FEFA4
:102C00009FEF0F90DF91CF911F910F910895FC01DD
:102C100084850C94C71ACF92DF92EF92FF920F93A4
:102C20001F93CF93DF93CDB7DEB7AF970FB6F8946E
:102C3000DEBF0FBECDBF7C018B016A01CE010196C4
:102C40000E94C02BCE0109960E94C618CE018A961A
:102C50000E94C02B6CE274E0CE0184960E94501555
:102C6000BE016C5D7F4FCE0101960E944E11AE01F8
:102C7000465D5F4FB801CE0101960E94B3138130CB
:102C80009105C1F4D701ED91FC910484F585E02D07
:102C900088EA91E09DA38CA30CA51DA52EA53FA5B8
:102CA0000EA31FA328A739A7A601BE016C5D7F4F05
:102CB000C7010995AF960FB6F894DEBF0FBECDBF22
:102CC000DF91CF911F910F91FF90EF90DF90CF9008
:102CD0000895FC011382128248EE53E060E070E038
:102CE000448355836683778384E591E09183808371
:102CF00088E084870895FC016485683041F062951E
:102D0000660F607E685F83E090E00C94CF1B80E0EC
:102D10000895DF92EF92FF920F931F93CF93DF936B
:102D2000EC017B018A018C85883009F04BC0D12CE5
:102D30006D2D6295660F607E685F83E090E00E9473
:102D4000CF1B811102C0DC8607C08B7F8831D9F38D
:102D5000D39488E0D812ECCF8C85883099F12091FB
:102D60000A0130910B012F5F3F4F11F420E034E056
:102D700030930B0120930A0140910A0150910B01FD
:102D800020E061E00E94A619B7016E5F7F4FA801A5
:102D90008C850E94E619811103C088E08C8712C0DF
:102DA000CE010E947B16873151F061E070E080E037
:102DB00090E00E949228CE010E947B16ECCF81E029
:102DC00090E002C080E090E0DF91CF911F910F91E1
:102DD000FF90EF90DF900895CF92DF92EF92FF92F5
:102DE000CF93DF93EC018C85883081F10E941C1A0F
:102DF0000E9463286B017C01CE010E947B16882310
:102E000059F00E9463286C197D098E099F09683E5C
:102E100073408105910598F0CE010E947B168823AE
:102E200019F08C850E949819EC85F0E0EE0FFF1FD9
:102E3000EC5CFB4F1182108288E08C8707C061E058
:102E400070E080E090E00E949228D6CFDF91CF9191
:102E5000FF90EF90DF90CF900895CF93DF93EC0138
:102E60008C858830D1F0CE010E947B168431A9F088
:102E7000882399F0883189F08C3169F4E881F981EF
:102E80000480F581E02DCE01099521E0892B09F41C
:102E900020E0822F03C081E001C080E0DF91CF916C
:102EA00008950F9300E020E040E060E08AE494E0C1
:102EB0000E94CA2B0F9108950F9300E020E040E09C
:102EC00060E080E594E00E94CA2B0F910895DC0138
:102ED000ED91FC91008CF18DE02D099428EA31E010
:102EE000FC0131832083FB01418952896389748904
:102EF000FC0142835383648375830895FC018589B3
:102F000096890895FC01818D928D0895CF93DF936A
:102F10001F92CDB7DEB76983DC01ED91FC91028091
:102F2000F381E02D41E050E0BE016F5F7F4F0995D6
:102F30000F90DF91CF910895CF93DF93EC01898DAE
:102F40009A8D892B41F0E881F9810680F781E02D87
:102F5000CE010995F4CFDF91CF910895CF93DF9300
:102F6000EC018C85883061F00E949819EC85F0E0C6
:102F7000EE0FFF1FEC5CFB4F1182108288E08C8704
:102F8000DF91CF910895FC01108E178A6E5F7F4FFD
:102F900084850C94F61AFC0184850C941B1BCF933A
:102FA000DF93EC019A018F89988DAB01BC018C8570
:102FB0000E94C81A2F89388D280F391F388F2F8B00
:102FC000DF91CF9108950F931F93CF93DF931F92BB
:102FD000CDB7DEB78C01FC01818D928D892B59F024
:102FE00041E050E0BE016F5F7F4F84850E94751AFB
:102FF000181619061CF08FEF9FEF08C0F801818D9D
:10300000928D0197928F818F898190E00F90DF914F
:10301000CF911F910F910895CF93DF93EC01898D8C
:103020009A8D009719F48FEF9FEF10C0481759073A
:1030300008F0AC018C850E94751A181619069CF7C9
:10304000298D3A8D281B390B3A8F298FDF91CF912B
:103050000895CF93DF931F92CDB7DEB7FC01218D8A
:10306000328D232B49F0BE016F5F7F4F84850E9414
:10307000B91A898190E002C08FEF9FEF0F90DF9126
:10308000CF9108950F931F93CF93DF93CDB7DEB702
:1030900028970FB6F894DEBF0FBECDBF8C01DC01C0
:1030A000ED91FC910284F385E02D0995F80164858A
:1030B00084E694E00E943F1C892B41F148E050E0F7
:1030C000BE016F5F7F4FD8011C968C910E94751ACC
:1030D00018161906ECF4BE016F5F7F4FC8010F96FA
:1030E0000E94E62B8D8190E0982F88272E81820FF9
:1030F000911DF801968B858B8F8190E0982F882702
:103100002885820F911D928F818F02C080E090E010
:1031100028960FB6F894DEBF0FBECDBFDF91CF91DA
:103120001F910F910895FF920F931F93CF93DF93F9
:10313000EC018B018C85883011F5F12C6F2D629597
:10314000660F607E685F83E090E00E94CF1B811174
:1031500002C0FC8606C08831E1F3F39488E0F812DF
:10316000EDCF8C85883059F01E870D871A8E198E09
:1031700020E0A80162E00E94A61981E001C080E081
:10318000DF91CF911F910F91FF900895FC01138261
:10319000128248EE53E060E070E04483558366831A
:1031A000778384E791E09183808388E08487CF01EF
:1031B0000F960C94C02BCF92DF92EF92FF920F9359
:1031C0001F93CF93DF93CDB7DEB7AF970FB6F894C9
:1031D000DEBF0FBECDBF7C018B016A01CE0101961F
:1031E0000E94C02BCE0109960E94C618CE018A9675
:1031F0000E94C02B6CE274E0CE0184960E945015B0
:10320000BE016C5D7F4FCE0101960E944E11AE0152
:10321000465D5F4FB801CE0101960E94B313813025
:103220009105C1F4D701ED91FC910088F189E02D61
:1032300088EA91E09DA38CA30CA51DA52EA53FA512
:103240000EA31FA328A739A7A601BE016C5D7F4F5F
:10325000C7010995AF960FB6F894DEBF0FBECDBF7C
:10326000DF91CF911F910F91FF90EF90DF90CF9062
:1032700008950F9300E020E040E060E086E594E0F0
:103280000E94CA2B0F9108950F9300E020E040E0C8
:1032900060E08CE594E00E94CA2B0F910895AB0189
:1032A000682F6295660F607E645F24E030E08CE0FA
:1032B00090E00C94911B9B01682F6295660F607ED5
:1032C000685FC9010C94CF1B62E070E00C945B193D
:1032D0009B01682F6295660F607E645FC9010C9444
:1032E000481BCF93DF93C82FD62F472F64E070E0A1
:1032F0000E9468194D2F65E070E08C2FDF91CF910F
:103300000C946819462F62E070E00C946819CF9312
:10331000DF93C82FD62F472F60E170E00E94681915
:103320004D2F61E170E08C2FDF91CF910C946819E3
:10333000CF93C82F40E150E0682F84E694E00E94CC
:103340004D1D6FEF8C2FCF910C948219EF92FF924D
:103350001F93CF93DF9300D0CDB7DEB7182F7A013C
:103360008FEF860F853048F5812F2A8369830E946D
:1033700098192A816981462F422B60E070E0812FE5
:103380000E946819E114F10411F0B7010AC06091BC
:103390006204709163046F5F7F4F70936304609366
:1033A0006204812F0E94711941E050E0612F84E690
:1033B00094E00E944D1D81E001C080E00F900F90CD
:1033C000DF91CF911F91FF90EF9008951F93CF93BE
:1033D000DF93182FFB01EA0180818F3F51F4818137
:1033E0008F3F91F482818F3F79F483818F3F61F425
:1033F0001EC0811109C08181811106C082818111A5
:1034000003C08381882399F0209789F0BF01812F21
:103410000E944F19BE01812F0E94871944E050E09D
:10342000612F84E694E00E944D1D81E001C080E0A0
:10343000DF91CF911F91089548E050E0682F84E616
:1034400094E00C944D1DDF92EF92FF920F931F9327
:10345000CF93DF93D82E8B01EA01413088E05807E3
:1034600010F0C0E0D8E06D2D84E694E00E940A1CC4
:103470007C0163E070E08D2D0E945B19873111F0B3
:103480008C3121F4EC16FD0670F302C0C0E0D0E0F0
:103490009E01A8016D2D84E694E00E94991C40E2F3
:1034A00050E06D2D84E694E00E944D1D8D2D0E940C
:1034B000641984FD0DC063E070E08D2D0E945B19DE
:1034C0008111F4CF8D2D0E94981980E090E005C005
:1034D00060E18D2D0E948219CE01DF91CF911F9165
:1034E0000F91FF90EF90DF900895DF92EF92FF929F
:1034F0000F931F93CF93DF93D82E7B018A01682F00
:1035000084E694E00E943F1CEC01009799F463E08C
:1035100070E08D2D0E945B19843111F1882301F137
:10352000C1E0D0E08C3111F4C0E0D0E0D195C1957C
:10353000D10916C0081719070CF4E8011C161D065E
:103540007CF400E09E01A7016D2D84E694E00E94CA
:10355000FC1C40E450E06D2D84E694E00E944D1D7B
:10356000CE01DF91CF911F910F91FF90EF90DF90EF
:1035700008950F93AB0101E021E030E0682F84E66D
:1035800094E00E94FC1C81E090E00F910895089562
:10359000BF92CF92DF92EF92FF920F931F93CF9340
:1035A000DF93B82E7B016A01E901682F84E694E07D
:1035B0000E940A1C8C179D0730F46B2D84E694E062
:1035C0000E940A1CEC018E019601A7016B2D84E676
:1035D00094E00E945B1CCE01DF91CF911F910F916F
:1035E000FF90EF90DF90CF90BF9008951F93CF93FF
:1035F000DF93182FFB01EA018081811109C08181CD
:10360000811106C08281811103C08381882369F002
:10361000209759F0BF01812F0E944F19BE01812FC1
:103620000E94871981E090E002C080E090E0DF9185
:10363000CF911F910895CF93C82F40E250E0682F9B
:1036400084E694E00E944D1D8C2F0E94641984FD35
:103650000CC08C2F0E94641983FFF6CF68E18C2F79
:103660000E94821980E090E006C060E18C2F0E94E9
:10367000821981E090E0CF9108958EBD00000DB4D5
:1036800007FEFDCF8EB508952E9808952E9A0895C1
:103690001F93CF93DF9300D01F92CDB7DEB7182FC3
:1036A0004B836A8399830E94441B9981892F0E94CE
:1036B0003D1B812F0E943D1B6A81862F0E943D1B6E
:1036C0004B81842F0E943D1B0E94461B81E00F907E
:1036D0000F900F90DF91CF911F910895CF93DF93BB
:1036E00068EE73E080E090E00E949228269A0E94A3
:1036F000460BC0E0DC2FD295DD0FD07ED45F42E0D8
:103700006D2F8EE190E00E94481B42E06D2F8FE10B
:1037100090E00E94481BCF5FC83061F7DF91CF91E6
:103720000895CF92DF92EF92FF920F931F93CF9362
:10373000DF9300D000D0CDB7DEB7F82E89014B83E0
:103740005C836A8399830E94441B89810E943D1B8C
:103750008F2D0E943D1B6A81862F0E943D1B4B814D
:10376000C42E5C81D52E7601E00EF11ECE14DF044E
:1037700031F0F60181916F010E943D1BF7CF0E944D
:10378000461BC8010F900F900F900F90DF91CF91C3
:103790001F910F91FF90EF90DF90CF9008951F93AE
:1037A000CF93DF9300D0CDB7DEB7182F6A8399830C
:1037B0000E94441B89810E943D1B812F0E943D1B5A
:1037C0006A81862F0E943D1B80E00E943D1B8983F9
:1037D0000E94461B89810F900F90DF91CF911F911E
:1037E00008951F93CF93DF93182F60E270E00E943B
:1037F0005B19C82FD0E0DC2FCC2761E270E0812F6D
:103800000E945B199E01280F311DC901DF91CF91E4
:103810001F910895FF920F931F93CF93DF93F62E7E
:10382000C0E0D0E08F2D0E94F11B8C01009721F0A9
:103830008F2D0E94F11BEC01C017D10799F7CE0123
:10384000DF91CF911F910F91FF9008951F93CF9318
:10385000DF93182F66E270E00E945B19C82FD0E05A
:10386000DC2FCC2767E270E0812F0E945B199E015C
:10387000280F311DC901DF91CF911F910895FF924B
:103880000F931F93CF93DF93F62EC0E0D0E08F2DE0
:103890000E94261C8C01009721F08F2D0E94261C6F
:1038A000EC01C017D10799F7CE01DF91CF911F919D
:1038B0000F91FF900895CF92DF92EF92FF920F93B6
:1038C0001F93CF93DF93D62EEA01790164E270E073
:1038D0008D2D0E945B19C82E65E270E08D2D0E942F
:1038E0005B19C80FD11D2C2D30E0322F2227C20FBB
:1038F000D31F6D2D6295660F607E6C5E9801A701E7
:10390000CE010E94911BC00FD11F4D2F64E270E0C9
:103910008D2D0E9468194C2F65E270E08D2DDF918E
:10392000CF911F910F91FF90EF90DF90CF900C946B
:1039300068190F931F9389019A0140E050E00E949B
:103940005B1C1F910F910895CF92DF92EF92FF922F
:103950000F931F93CF93DF9300D000D0CDB7DEB786
:10396000F82E89014B835C836A8399830E94441BF0
:1039700089810E943D1B8F2D0E943D1B6A81862FED
:103980000E943D1B4B81C42E5C81D52E7601E00E3A
:10399000F11ECE14DF0439F080E00E943D1BF601D9
:1039A00081936F01F6CF0E94461BC8010F900F90C4
:1039B0000F900F90DF91CF911F910F91FF90EF909B
:1039C000DF90CF9008950F931F93CF93DF9300D094
:1039D000CDB7DEB75A834983A901980189819A81BD
:1039E0006295660F607E685E0F900F90DF91CF91B9
:1039F0001F910F910C94A41C8F929F92AF92BF9233
:103A0000CF92DF92EF92FF920F931F93CF93DF93AA
:103A10006C01962E5A017901802E68E270E0892DA2
:103A20000E945B19C82F69E270E0892D0E945B1922
:103A3000D0E0DC2FCC27C80FD11D87019501AE0146
:103A4000692DC6010E94E31C81101AC0CE0DDF1D36
:103A50004D2F68E270E0892D0E9468194C2F69E2B1
:103A600070E0892DDF91CF911F910F91FF90EF9022
:103A7000DF90CF90BF90AF909F908F900C9468197B
:103A8000DF91CF911F910F91FF90EF90DF90CF903A
:103A9000BF90AF909F908F900895CF93C62F61E015
:103AA00070E08C2F0E94681961E070E08C2F0E94FA
:103AB0005B198111F9CFCF910895FF920F931F9356
:103AC000CF93DF93FC010081C181D281F894898179
:103AD000F02EF0948F21898378941DE7115029F1FD
:103AE00082E090E00E94CC2888818023B9F3F8948A
:103AF0008A818F218A838981802B8983789480EEC3
:103B000091E00E94CC28F89489818F21898386E4F2
:103B100090E00E94CC288881802311E009F010E019
:103B200078948AE991E00E94CC28812FDF91CF918F
:103B30001F910F91FF9008951F93CF93DF93FC0186
:103B40001081C181D281912F909560FF12C0F894AD
:103B50008A8189238A838981812B89838AE090E005
:103B60000E94CC288A81812B8A83789487E390E015
:103B700011C0F8948A8189238A838981812B898362
:103B800081E490E00E94CC288A81812B8A837894FA
:103B900085E090E0DF91CF911F910C94CC280F939A
:103BA0001F93CF93DF93FC011081C181D281F894E0
:103BB0008981812B89838A81012F009580238A83C3
:103BC00083E090E00E94CC288981802389838AE069
:103BD00090E00E94CC28C881789485E390E00E9410
:103BE000CC281C2381E009F480E0DF91CF911F9164
:103BF0000F910895CF92DF92EF92FF920F931F9350
:103C0000CF93DF931F92CDB7DEB76C01E62E08E0AD
:103C100010E0FF24F39461E09F2D9E2109F460E001
:103C2000C60149830E949C1DFF0C01501109498166
:103C30000115110581F7411115C0F894D6011196AF
:103C4000ED91FC91129791818C91809589238183CC
:103C50001196ED91FC91129792818C918095892318
:103C6000828378940F90DF91CF911F910F91FF90F5
:103C7000EF90DF90CF900895EF92FF920F931F93F4
:103C8000CF93DF938C01C8E0D0E0F12CEE24E394D5
:103C9000C8010E94CF1D8111FE28EE0C2197C1F7AB
:103CA0008F2DDF91CF911F910F91FF90EF9008958D
:103CB000CF92DF92FF920F931F93CF93DF931F92C8
:103CC000CDB7DEB78C01F62E40E065E579830E9422
:103CD000FA1DCF2C7981D72E88E0F82EF60161915C
:103CE0006F0140E0C8010E94FA1DFA94B9F70F90E5
:103CF000DF91CF911F910F91FF90DF90CF900895AA
:103D0000FC0113861586148627E030E0DF01A20F40
:103D1000B31F13961C922115310519F0215031095A
:103D2000F5CF08951F93CF93DF93EC01162F60E03A
:103D3000812F0E949B29612F70E0FB01E45EFD4F03
:103D4000E491E883FB01E55CFD4FE491F0E0EE0FC8
:103D5000FF1FE65AFD4F859194919A838983CE0186
:103D6000DF91CF911F910C94801EAF92BF92CF92A2
:103D7000DF92EF92FF920F931F93CF93DF931F92E7
:103D8000CDB7DEB75C01D62EE72EFC01858581110B
:103D900064C0C50149830E945D1D4981811105C030
:103DA000F50113861586148671C0442319F040E08E
:103DB00060EF02C040E06CEEC5010E94FA1D01E018
:103DC000F12CC12C11E0C5010E94CF1D682FC50147
:103DD00069830E94CF1D6981613019F48130B9F483
:103DE00033C02F2D30E068131BC0F50183851817F1
:103DF00030F4E20FF31F8381802349F402C01817C7
:103E000031F060E0193058F4F501148708C0F5016D
:103E1000EF0DF11D8381802B838361E009C0C12EEA
:103E2000F501E20FF31F8381902F909589238383FF
:103E3000C5010E949C1D1F5F000F11F4F39401E067
:103E4000F7E0FF1508F0BFCF113438F0F501C38655
:103E5000C11009C081E0858706C0F501138615866B
:103E6000148680E013C0F50183818823B1F3ED2D22
:103E7000FE2D80E090E0D501A80FB91F13962C917C
:103E80002193019688309105B1F781E00F90DF9181
:103E9000CF911F910F91FF90EF90DF90CF90BF9047
:103EA000AF900895DC0180E0615038F0ED91E82793
:103EB000F0E0EF50FF4F8491F7CF0895FC0171833C
:103EC0006083538342830895CF92DF92EF92FF92F3
:103ED0000F931F93CF93DF93C62ED42E790100E06A
:103EE00010E0C0E0D0E00E151F0594F461E08D2DC8
:103EF0000E94D429CC0FDD1F8C2D0E940A2AC80FE6
:103F0000D91F60E08D2D0E94D4290F5F1F4FEBCF8A
:103F1000CE01DF91CF911F910F91FF90EF90DF9035
:103F2000CF9008951F93CF93DF93162FC42FD22FD6
:103F300061E0842F0E949B2961E08D2F0E949B29C4
:103F400061E08C2F0E94D42961E08D2F0E94D4293A
:103F500060E08C2F0E94D42960E08D2F0E94D4292C
:103F600061E08D2F0E94D42961E08C2F0E94D4291A
:103F700060E08D2F0E94D429212F41E06D2F8C2FDE
:103F80000E94332A61E08D2F0E94D42962E08C2F99
:103F90000E949B298C2F0E940A2A60E08D2F0E948C
:103FA000D4298C2FDF91CF911F910C940A2A1F9353
:103FB000CF93DF93162F62E0812F0E949B29C8EEDA
:103FC000D3E061E070E080E090E00E949228812FD1
:103FD0000E940A2A892B11F0219799F7DF91CF913E
:103FE0001F910895CF92DF92EF92FF920F931F934C
:103FF000CF93DF938C01F62ED72EE42EC52E62E0F0
:104000008F2D0E949B2961E08E2D0E949B2928E024
:1040100030E04E2D5C2D6F2D7D2DC8010E94641F58
:10402000D82F80E0C82F61E08F2D0E949B2961E08E
:104030008F2D0E94D42960E08F2D0E94D42961E049
:104040008E2D0E94D42960E08E2D0E94D42962E03A
:104050008F2D0E949B2928E030E04E2D5C2D6F2D86
:104060007D2DC8010E94641F8C2B9D2BDF91CF9169
:104070001F910F91FF90EF90DF90CF900895CF9315
:10408000DF93D62FC42F61E08D2F0E949B2961E022
:104090008C2F0E949B2961E08D2F0E94D42961E022
:1040A0008C2F0E94D42960E08C2FDF91CF910C944B
:1040B000D4290F931F93CF93DF93EC012A813B8187
:1040C0004881598163E070E00E94921F6881798184
:1040D000CE010E94D71F4A815B8168817981CE0120
:1040E0000E94F21F8C014A815B8168817981CE0137
:1040F0000E943F20B801882777FD8095982F0E9465
:104100001033DF91CF911F910F9108950E94592094
:104110000E94DD32882777FD8095982F0E9410330A
:104120002AE037ED43E25CE30E94C43320E030E054
:1041300040E252E40E940C3208954F925F926F92D7
:104140007F928F929F92AF92BF92CF92DF92EF9227
:10415000FF92CF93DF93EC012A813B814881598103
:1041600065E070E00E94921F68817981CE010E9413
:10417000D71F4A815B8168817981CE010E94F21F3D
:104180007C014A815B8168817981CE010E943F2058
:10419000B701882777FD8095982F0E9410336B0117
:1041A0007C0124E533EE45E25DE30E94C43320E068
:1041B00030E040E850E40E940C324B015C0122EAFE
:1041C00037EE4BE356EBC701B6010E94C433A7019B
:1041D00096010E94C4339B01AC01C501B4010E9449
:1041E0000D324B015C01CE010E9486202B013C0167
:1041F0002CEA35EC47EA58E3C701B6010E94C43304
:104200002AE037ED43E25CE30E940D329B01AC01F2
:10421000C301B2010E94C433A50194010E940D3272
:10422000DF91CF91FF90EF90DF90CF90BF90AF9054
:104230009F908F907F906F905F904F900895CF9355
:10424000DF93EC0181579F4F0E94C02BFE01E55682
:10425000FF4F8FEF9FEF91838083198218823297EF
:1042600011821082C357DF4F19821882DF91CF91DC
:104270000895CF92DF92EF92FF920F931F93CF9307
:10428000DF93EC018B010E9463286B017C01888124
:104290009981DC01ED91FC910480F581E02D099577
:1042A000892B69F40E9463286C197D098E099F0986
:1042B00068397A438105910550F380E00CC088810C
:1042C0009981DC01ED91FC910680F781E02D099543
:1042D000F801808381E0DF91CF911F910F91FF90D2
:1042E000EF90DF90CF9008950F931F93CF93DF93BC
:1042F000EA0108811981600F711F0E94392188230A
:1043000031F00F5F1F4F1983088381E001C080E007
:10431000DF91CF911F910F9108953F924F925F923D
:104320006F927F928F929F92AF92BF92CF92DF92C5
:10433000EF92FF920F931F93CF93DF9300D01F92C2
:10434000CDB7DEB78C016B011A8219825C0182E065
:10435000A80EB11CAE014F5F5F4FB501C8010E94AE
:104360007421811103C080E090E0BDC0D801129695
:104370009C901B82E12CF12C412C512C3201439456
:10438000BE016D5F7F4FC8010E943921882359F318
:1043900029813A81C90101969A8389836B81F80149
:1043A000E20FF31F6283462F4F7750E0449D900148
:1043B000459D300D549D300D1124E20EF31E97E003
:1043C000440C551C661C771C9A95D1F767FDD8CF15
:1043D000292D207F33243394203309F0312C815050
:1043E000F6018083332041F1AE014F5F5F4FB5018D
:1043F000C8010E947421882309F4B5CFAE014F5F34
:104400005F4FB501C8010E947421882309F4ABCF26
:10441000D6018C91F801E80FF11D4380512C542CEA
:1044200044248481480E511CF801828181FF08C018
:10443000F2E04F0E511C04C080E0412C512C01C011
:1044400082E0A82EB12C612C712C480189E9880EDC
:10445000911CC3018A0D9B1D8E159F05A0F5BE0101
:104460006D5F7F4FC8010E943921882309F47BCFFB
:10447000D4018D919C910097A9F0332099F0298166
:104480003A8122503109F6014081241B310942163C
:10449000530640F4DC01ED91FC910190F081E02D98
:1044A0006B81099589819A818038910528F42B8147
:1044B000F801E80FF91F228301969A838983BFEFE1
:1044C0006B1A7B0AC6CFF801E756FF4F80819181B6
:1044D000892B39F489819A818138910510F01A82EB
:1044E000198289819A810F900F900F90DF91CF915F
:1044F0001F910F91FF90EF90DF90CF90BF90AF9002
:104500009F908F907F906F905F904F903F90089515
:10451000AF92BF92CF92DF92EF92FF920F931F93D1
:10452000CF93DF9300D000D0CDB7DEB77C01F90187
:1045300080E09E2F9F77EE0FEF2FEE1FFF0BF19580
:10454000309709F09068A1E0B0E0AC0FBD1FA80F54
:10455000B11D9C938F5F309761F7A82EB12CDA01C3
:10456000AA19BB0914966C93BE016F5F7F4F80E060
:1045700090E04A195B098A159B0554F4FB01D19020
:10458000BF018A01080F191FF801D5820196F3CFE8
:10459000F7018081918189010F5F1F4F0A0D1B1D5B
:1045A000FC0120813181F90122813381A801BD0103
:1045B000F90109956C010E946328F701EC57FF4F40
:1045C000608371838283938381E0C016D10609F0F2
:1045D00080E00F900F900F900F90DF91CF911F917F
:1045E0000F91FF90EF90DF90CF90BF90AF90089524
:1045F000CF93DF93EC0180EE8A831B82DE018D91E5
:104600009D91BD01DC01ED91FC910280F381E02DD3
:1046100042E050E00995FE01E556FF4F8FEF9FEF16
:104620009183808388819981DC01ED91FC910288DE
:10463000F389E02D09950E946328FE01EC57FF4F96
:104640006083718382839383C857DF4F6883798344
:104650008A839B83DF91CF910895C9010296DB0184
:10466000FD01E61BF70B2D91222331F0FA01E80F33
:10467000F91F20830196F4CF9C012E1B3F0B240FC2
:10468000351FD9011297FC931196EC930895CF939F
:10469000DF93EC0188819981009731F1DC01ED9184
:1046A000FC910488F589E02D099581111FC0FE0158
:1046B000E556FF4F80819181892BB1F48DEF9FEFFB
:1046C0009183808388819981DC01ED91FC91028442
:1046D000F385E02D099588819981DC01ED91FC91AC
:1046E0000288F389E02D099580E001C081E0DF9127
:1046F000CF9108952F923F924F925F926F927F9247
:104700008F929F92AF92BF92CF92EF92FF920F93B0
:104710001F93CF93DF93CDB7DEB72C970FB6F894E6
:10472000DEBF0FBECDBF4C011B012A0139010E9423
:10473000472381111BC1F401EB56FF4F608171814A
:10474000D4018D919C911197A956BF4FFC012081F6
:1047500031816115710541F04D915C91D9011E9631
:10476000ED91FC911F971FC0F9010484F585E02DA0
:10477000FC87EB87ED91FC9128EA31E03A832983AD
:10478000D401A157BF4F12964D915D916D917C91CF
:1047900015974B835C836D837E83AF01BE016F5F92
:1047A0007F4FEB85FC850995F4018130910509F077
:1047B000D5C0EE57FF4F9183808387E0EAE2F1E0B6
:1047C000DE01119601900D928A95E1F7FE01319676
:1047D00080E090E02191D401A80FB91F17962C9387
:1047E000019687309105B1F70115110559F0F0E2F6
:1047F000CF9EC0011124866028E0E29E7001112442
:104800008E2901C082E04114510431F06114710419
:1048100011F4806801C0806CD4011E968C931E97A1
:104820001F961C921F978FE050968C937401B2E0F4
:10483000EB0EF11C2FE030E0A701B101C4010E9492
:104840002D230115110561F09C01A701B801C401D8
:104850000E942D239C01A701B501C4010E942D23B4
:104860004114510479F09C01A701B201C4010E94D6
:104870002D236114710431F09C01A701B301C4011F
:104880000E942D239C0125503109A70160E1C4013C
:104890000E9488220E946328F401EC57FF4F608336
:1048A000718382839383840108571F4FF8016083CB
:1048B000718382839383F40180819181DC01ED9186
:1048C000FC910480F581E02D0995892BC1F40E94AB
:1048D0006328D8014D905D906D907C9064197509A6
:1048E0008609970968397A438105910520F3F40117
:1048F000E556FF4F8CEF9FEF9183808324C0BE016C
:10490000685F7F4FC4010E948D210497E1F4F40198
:104910008581940125563F4F7901811110C00E9475
:104920006328D8016D937D938D939C931397F40125
:10493000E457FF4F1082F7011182108217C090E0F8
:10494000D9018D939C93F40180819181DC01ED91DB
:10495000FC910288F389E02D099506C0E556FF4FCA
:104960008EEF9FEF9183808380E001C081E02C96E1
:104970000FB6F894DEBF0FBECDBFDF91CF911F9170
:104980000F91FF90EF90CF90BF90AF909F908F903E
:104990007F906F905F904F903F902F900895AF92CF
:1049A000BF92CF92EF920F931F93A12CB12CC12CE9
:1049B000E12C00E010E020E030E040E050E00E9418
:1049C0007A231F910F91EF90CF90BF90AF900895F1
:1049D0002F923F924F925F926F927F928F929F920F
:1049E000AF92BF92CF92DF92EF92FF920F931F93FD
:1049F000CF93DF9300D000D0CDB7DEB78C014DB69A
:104A00005EB60E944723882309F442C10E946328AE
:104A10006B017C01580128E8A20EB11CF5018081D0
:104A20009181A281B381A7019601281B390B4A0B02
:104A30005B0BDA01C90189399A43A105B10590F4EC
:104A4000349780819181A281B381A7019601281BAF
:104A5000390B4A0B5B0BDA01C90189399A43A1056D
:104A6000B105C0F148014CE8840E911CD4012C9191
:104A7000F80180819181222371F0E556FF4F2CEFE0
:104A80003FEF31832083DC01ED91FC910288F389B3
:104A9000E02D0995FDC020ECF80122831382DC0192
:104AA000ED91FC910280F381E02D42E050E0B801ED
:104AB0006E5F7F4F0995F801EC57FF4FC082D1829E
:104AC000E282F382F501C082D182E282F38281E048
:104AD000D4018C93F80180819181DC01ED91FC91EE
:104AE0000480F581E02D0995892B09F4D3C0BE011E
:104AF0006F5F7F4FC8010E948D21FC01009709F470
:104B0000C9C0D501CD92DD92ED92FC921397D801E8
:104B100012968C91807F803309F09FC04801BDE8D8
:104B20008B0E911CD4018D919C91892B09F4B2C0FC
:104B30002DB63EB6698170E0D801A60FB71F139657
:104B40004C91139750E0542F442714968C9114974E
:104B5000480F511DCA0101962DB73EB7281B390BCE
:104B60000FB6F8943EBF0FBE2DBF8DB79EB701960E
:104B70005C0120E030E0BC83AB832417350769F08B
:104B80006B807C80620E731ED30115966C90D501EC
:104B90006D925D012F5F3F4FF0CFDC01A20FB31F7D
:104BA0001C92D8011296BC91B670BA83B230E9F566
:104BB0003901660E771ED801A60DB71D1596AC906B
:104BC0001597B12CBA2CAA2416964C91A40EB11CA0
:104BD0004BEF5FEF461B570B421B530B4E0F5F1FF4
:104BE000B301695F7F4F600F711FD401ED91FC919C
:104BF000099580E4F80182837A807382B482A58269
:104C0000D8018D919D91BD01DC01ED91FC91028057
:104C1000F381E02D44E050E00995F801EC57FF4F97
:104C2000C082D182E282F38212C04DEF5FEF461B59
:104C3000570B421B530B4E0F5F1F620F731F6B5FAF
:104C40007F4F600F711FD401ED91FC9109950FB654
:104C5000F8943EBE0FBE2DBE1DC0803C91F480ED89
:104C6000F80182831382D8018D919D91BD01DC01F1
:104C7000ED91FC910280F381E02D42E050E0099536
:104C800009C0803D39F4F801E457FF4F108202C09B
:104C900080E001C081E00FB6F8945EBE0FBE4DBE4D
:104CA0000F900F900F900F90DF91CF911F910F9168
:104CB000FF90EF90DF90CF90BF90AF909F908F903C
:104CC0007F906F905F904F903F902F9008958F92BC
:104CD0009F92BF92CF92DF92EF92FF920F931F931A
:104CE000CF93DF9300D0CDB7DEB74C01B42E152F94
:104CF000790169837A830E94472369817A818823B5
:104D000009F446C0FB0101900020E9F73197E61B4A
:104D1000F70BC70107968E0F9F1F81389105C0F5CD
:104D2000640182E0C80ED11C25E030E0A601C40178
:104D30000E942D23EB2DF12F60E070E09401280FED
:104D4000391F6E157F0549F04191D901A60FB71F94
:104D500012964C936F5F7F4FF4CF011102C060E356
:104D600001C061E3970125503109280F391FA601C1
:104D7000C4010F900F90DF91CF911F910F91FF9081
:104D8000EF90DF90CF90BF909F908F900C948822EF
:104D900080E00F900F90DF91CF911F910F91FF90C6
:104DA000EF90DF90CF90BF909F908F9008950F93DA
:104DB00000E00E9467260F9108950F931F93FC0156
:104DC000E157FF4FDB0112960D911D912D913C9102
:104DD0001597028313832483358338965183408348
:104DE0003297118210821F910F910895FC017183F7
:104DF000608308950F9300E020E040E060E085E6E6
:104E000094E00E94CA2B0F9108950895853008F010
:104E10004CC0E82FF0E0EE0FFF1FE45FFE4F718300
:104E200060838230E1F018F4813069F004C083308F
:104E300019F1843071F1809169008C7F842B80930B
:104E40006900E89A089580916900440F551F440F46
:104E5000551F837F842B80936900E99A0895809180
:104E6000690034E0440F551F3A95E1F78F7C842B9D
:104E700080936900EA9A08958091690026E0440FC2
:104E8000551F2A95E1F78F73842B80936900EB9A65
:104E9000089580916A0094E0440F551F9A95E1F7B8
:104EA0008F7C842B80936A00EE9A08951F920F9254
:104EB0000FB60F9211242F933F934F935F936F93ED
:104EC0007F938F939F93AF93BF93EF93FF93E09163
:104ED0000C01F0910D010995FF91EF91BF91AF91F8
:104EE0009F918F917F916F915F914F913F912F9102
:104EF0000F900FBE0F901F9018951F920F920FB634
:104F00000F9211242F933F934F935F936F937F934F
:104F10008F939F93AF93BF93EF93FF93E0910E0115
:104F2000F0910F010995FF91EF91BF91AF919F9182
:104F30008F917F916F915F914F913F912F910F9042
:104F40000FBE0F901F9018951F920F920FB60F92E1
:104F500011242F933F934F935F936F937F938F937E
:104F60009F93AF93BF93EF93FF93E0911001F09164
:104F700011010995FF91EF91BF91AF919F918F9191
:104F80007F916F915F914F913F912F910F900FBE45
:104F90000F901F9018951F920F920FB60F92112429
:104FA0002F933F934F935F936F937F938F939F9331
:104FB000AF93BF93EF93FF93E0911201F091130130
:104FC0000995FF91EF91BF91AF919F918F917F9143
:104FD0006F915F914F913F912F910F900FBE0F9066
:104FE0001F9018951F920F920FB60F9211242F93B6
:104FF0003F934F935F936F937F938F939F93AF9361
:10500000BF93EF93FF93E0911401F091150109957F
:10501000FF91EF91BF91AF919F918F917F916F9190
:105020005F914F913F912F910F900FBE0F901F9066
:1050300018951F920F920FB60F9211242F933F9342
:105040008F939F93AF93BF9380916C0490916D0465
:10505000A0916E04B0916F0430916B0423E0230F94
:105060002D3720F40196A11DB11D05C026E8230FA0
:105070000296A11DB11D20936B0480936C04909344
:105080006D04A0936E04B0936F04809170049091AE
:105090007104A0917204B09173040196A11DB11D19
:1050A0008093700490937104A0937204B09373047E
:1050B000BF91AF919F918F913F912F910F900FBE14
:1050C0000F901F9018952FB7F89460916C04709111
:1050D0006D0480916E0490916F042FBF08953FB7C7
:1050E000F8948091700490917104A0917204B09131
:1050F000730426B5A89B05C02F3F19F00196A11D8A
:10510000B11D3FBF6627782F892F9A2F620F711D1F
:10511000811D911D42E0660F771F881F991F4A95D8
:10512000D1F708958F929F92AF92BF92CF92DF9264
:10513000EF92FF926B017C010E946F284B015C0192
:10514000C114D104E104F104F1F00E9470310E9415
:105150006F28681979098A099B09683E734081059F
:10516000910570F321E0C21AD108E108F10888EE38
:10517000880E83E0981EA11CB11CC114D104E10467
:10518000F10429F7DDCFFF90EF90DF90CF90BF9033
:10519000AF909F908F9008958230910538F0880FDE
:1051A000991F880F991F05970197F1F70895789433
:1051B00084B5826084BD84B5816084BD85B582601C
:1051C00085BD85B5816085BDEEE6F0E080818160BA
:1051D0008083E1E8F0E010828081826080838081BA
:1051E00081608083E0E8F0E0808181608083E1E994
:1051F000F0E0808182608083808181608083E0E94B
:10520000F0E0808181608083E1ECF0E08081846067
:105210008083808182608083808181608083E3ECF1
:10522000F0E0808181608083E0ECF0E0808182604A
:105230008083E2ECF0E0808181608083EAE7F0E047
:1052400080818460808380818260808380818160AE
:1052500080838081806880830895823108F0825144
:10526000E82FF0E0EF50FE4FE49180917B00E3FBEC
:10527000222720F930E095E0220F331F9A95E1F7BD
:105280008F7D822B80937B00E7708091160120E454
:10529000829FC0011124E82BE0937C0080917A006A
:1052A000806480937A0080917A0086FDFCCF8091A3
:1052B00078002091790090E0922B089590E0FC0115
:1052C0003197EF30F105B0F5EA5AFF4F0C947C347A
:1052D000809180008F7703C0809180008F7D8093C4
:1052E0008000089580918000877FF9CF84B58F7703
:1052F00002C084B58F7D84BD0895809190008F7722
:1053000007C0809190008F7D03C080919000877FBF
:105310008093900008958091C0008F7703C08091A2
:10532000C0008F7D8093C00008958091C200877F68
:105330008093C2000895CF93DF9390E0FC01E45E78
:10534000FD4F2491FC01E55CFD4F8491882349F1D8
:1053500090E0880F991FFC01EA58FD4FA591B49188
:1053600088599D4FFC01C591D4919FB7611108C028
:10537000F8948C91209582238C93888182230AC093
:10538000623051F4F8948C91322F309583238C93B2
:105390008881822B888304C0F8948C91822B8C9313
:1053A0009FBFDF91CF9108950F931F93CF93DF930A
:1053B0001F92CDB7DEB7282F30E0F901E350FE4F42
:1053C0008491F901E45EFD4F1491F901E55CFD4F14
:1053D00004910023C9F0882321F069830E945E298B
:1053E0006981E02FF0E0EE0FFF1FE859FD4FA59116
:1053F000B4919FB7F8948C91611103C010958123EB
:1054000001C0812B8C939FBF0F90DF91CF911F9193
:105410000F910895CF93DF93282F30E0F901E350E7
:10542000FE4F8491F901E45EFD4FD491F901E55CF2
:10543000FD4FC491CC2391F081110E945E29EC2F85
:10544000F0E0EE0FFF1FE65AFD4FA591B4912C91AD
:105450002D2381E090E021F480E002C080E090E024
:10546000DF91CF910895BF92CF92DF92EF92FF929A
:105470000F931F93CF93DF93C82ED62EB42EC7E081
:10548000D0E0022F10E087E0E82EF12CB1100AC026
:10549000F701EC1BFD0BB80102C075956795EA9505
:1054A000E2F707C0B8010C2E02C0759567950A9403
:1054B000E2F7617077278C2D0E94D42961E08D2D51
:1054C0000E94D42960E08D2D0E94D4292197F0F606
:1054D000DF91CF911F910F91FF90EF90DF90CF90D0
:1054E000BF900895CF93DF931F92CDB7DEB7698346
:1054F000DC01ED91FC910280F381E02D41E050E070
:10550000BE016F5F7F4F09950F90DF91CF91089596
:10551000CF93DF93EC018C859D8597FF05C082E0DA
:105520000E94F22D9D878C878C859D85DF91CF9180
:10553000089583E00C948630FC018485958597FD61
:1055400006C082E00E949A2D90E00196089582E0C4
:105550000E949A2D90E00895FC018485958597FD21
:1055600005C02FEF3FEF35872487089582E00C9424
:10557000F22DCF93DF93EC0180912201882331F04B
:1055800083E00E94232E1816190634F081E090E083
:105590009B838A8380E090E0DF91CF910895FC01A6
:1055A00020812E5F208342E450E064E872E080E8CE
:1055B0000C94BE2EFC0121818081813A59F4213264
:1055C00009F04BC047E050E06BE171E080E00E94E1
:1055D000BE2E5EC0813209F040C0233289F483813F
:1055E00090E0982F88273281832BA0E0B0E0809351
:1055F000170190931801A0931901B0931A010FC0DD
:10560000203239F467E070E08BE191E00E94EF2EE8
:1056100009C0223221F482818093220103C02D7FB0
:105620002032B1F58091C404811103C0E0E0F8E0BC
:1056300002C0EEEFFAE080911B0190911C01A09155
:105640001D01B0911E01803B9440A105B10511F5EB
:105650008091220180FF03C01DC080E00895EE3FCD
:105660002AE0F20731F0808191819093FF0A8093C4
:10567000FE0A87E797E7918380832BE088E190E03B
:105680000FB6F894A895809360000FBE2093600039
:1056900081E0089588E10FB6F8948093600010923D
:1056A00060000FBEA895EE3F8AE0F80739F08091C0
:1056B000FE0A9091FF0A91838083EACF1092FF0A3D
:1056C0001092FE0AE5CF2FEF3FEFFC0135872487CC
:1056D0000895109277041092760488EE93E0A0E08B
:1056E000B0E08093780490937904A0937A04B09307
:1056F0007B0488E991E090937504809374048FEFA4
:105700009FEF90938104809380040895AF92BF929D
:10571000CF92DF92EF92FF920F931F93CF93DF937D
:105720006C017B01C0E0D0E000E010E0F601EC0F7E
:10573000FD1F4AE050E06281C7010E94DA2C5C0143
:105740006EE2C7010E944F2C8A0D9B1D080F191F86
:105750002196C330D10551F74AE050E0F60165814A
:10576000C7010E94DA2C800F911FDF91CF911F910A
:105770000F91FF90EF90DF90CF90BF90AF90089582
:1057800028EA31E0FC0131832083128213821482E3
:10579000158208950F93FC0188EA91E0918380833C
:1057A00062834383248305830F91089528EA31E0BF
:1057B000FC0131832083FB0140815181628173812F
:1057C000FC0142835383648375830895FB01408108
:1057D000518162817381FC014283538364837583A9
:1057E000089588EA91E09093C6048093C5041092CE
:1057F000C7041092C8041092C9041092CA040895F4
:1058000008950E94D7280E94002C8BEC94E00E94FF
:1058100013310E947F07C0E0D0E00E94B6082097B5
:10582000E1F30E940000F9CF0C94B73461157105C3
:1058300081F0DB010D900020E9F7AD0141505109E5
:10584000461B570BDC01ED91FC910280F381E02DAA
:10585000099480E090E00895EF92FF920F931F93D8
:10586000CF93DF938C017B01C0E0D0E0F701EC0F18
:10587000FD1F6491662359F0F801A081B181ED917B
:10588000FC91C8010995892B11F02196EFCFCE012B
:10589000DF91CF911F910F91FF90EF900895DC0160
:1058A000ED91FC910190F081E02D09946AEA71E09C
:1058B0000C94162C0F931F93CF93DF93EC010E944F
:1058C0002C2C8C01CE010E94562C800F911FDF9151
:1058D000CF911F910F9108950F931F93CF93DF9353
:1058E000EC010E94162C8C01CE010E94562C800FD8
:1058F000911FDF91CF911F910F9108958F929F92E9
:10590000AF92BF92DF92EF92FF920F931F93CF93CC
:10591000DF93CDB7DEB7A1970FB6F894DEBF0FBE09
:10592000CDBF7C01F42FD52ECB0119A2223008F473
:105930002AE08E010F5D1F4F822E912CA12CB12CDD
:105940006F2F7D2DA50194010E943B34F22FD32EA1
:10595000CA01015011096A3014F4E0E301C0E7E321
:10596000E60FD801EC93232B242B252B49F7B80104
:10597000C7010E94162CA1960FB6F894DEBF0FBE89
:10598000CDBFDF91CF911F910F91FF90EF90DF90EE
:10599000BF90AF909F908F9008952115310541F4ED
:1059A000DC01ED91FC910190F081E02D642F0994D0
:1059B0000C947E2C9A01462F50E060E070E00C942D
:1059C000CD2C615030F02091F100FC012083019634
:1059D000F8CF289884E68093D40408954091CF04AA
:1059E0005091D0042091CD043091CE04421753073A
:1059F000B4F49091E8009570E1F39091E80092FD85
:105A000019C08093F1008091CF049091D004019649
:105A10008F739927892B19F48EEF8093E80080917A
:105A2000CF049091D00401969093D0048093CF043A
:105A300081E0089580E00895CF92DF92EF92FF9287
:105A40000F931F93CF93DF931F92CDB7DEB7082F2D
:105A5000162FF42E862F880F8E5F99830E94EE2CCE
:105A600083E00E94EE2CE02EC02E9981D92E8C2D41
:105A70008E19811798F4F601F7FE02C0849101C0D7
:105A800080810E94EE2C082F80E00E94EE2C802363
:105A9000FFEFCF1ADF0A8111EACF01C081E00F903A
:105AA000DF91CF911F910F91FF90EF90DF90CF90FA
:105AB00008958091D70081608093D70080EA809319
:105AC000D80089B5806189BD89B5826089BD09B476
:105AD00000FEFDCF61E070E080E090E00E9492283F
