:100000000C948C010C94B4010C94B4010C94B401C4
:100010000C94B4010C94B4010C94B4010C94B4018C
:100020000C94B4010C94B4010C9408290C949A27F4
:100030000C94B4010C94B4010C94B4010C94B4016C
:100040000C94B4010C94B4010C94B4010C94B4015C
:100050000C94B4010C94B4010C94B4010C942A1FB8
:100060000C94B4010C94B4010C94B4010C94B4013C
:100070000C94B4010C94B4010C94B4010C94B4012C
:100080000C94B4010C94B4010C94B4010C94B4011C
:100090000C9406080C94B4010C94B4010C94B401B3
:1000A0000C94B4010C94B4010C94B4015620592062
:1000B00048204C2052207A207A207A205D2061202E
:1000C00065206B206F207A20752044657669636512
:1000D000206973206E6F7420612044533138783268
:1000E000302066616D696C79206465766963652E80
:1000F00000005EBCE2613FDD83C29C7E20A3FD1F49
:10010000419DC3217FFCA2401E5F01E3BD3E608292
:10011000DC237D9FC1421CFEA0E1BF5D0380DE3C6D
:1001200062BEE0025CDF81633D7C22C09E1D43A174
:10013000FF4618FAA427799BC584DA3866E5BB59CF
:1001400007DB856739BAE406581947A5FB7826C44A
:100150009A653BD987045AB8E6A7F91B45C6987A31
:1001600024F8A6441A99C7257B3A6486D85B05E72C
:10017000B98CD2306EEDB3510F4E10F2AC2F71939B
:10018000CD114FADF3702ECC92D38D6F31B2EC0EFA
:1001900050AFF1134DCE90722C6D33D18F0C52B005
:1001A000EE326C8ED0530DEFB1F0AE4C1291CF2DDC
:1001B00073CA947628ABF517490856B4EA6937D55F
:1001C0008B5709EBB536688AD495CB2977F4AA48C2
:1001D00016E9B7550B88D6346A2B7597C94A14F6B9
:1001E000A8742AC896154BA9F7B6E80A54D7896BA4
:1001F000350000000200090F0000030401000C009C
:1002000000000000000000000000000000000000EE
:100210000408020110408040102040804080080205
:100220000401804020100201108010204040200472
:10023000040404040304050202020204030202028D
:100240000206060606060604040202020404000072
:1002500000002300260029002C002F0000000000D1
:10026000250028002B002E00310000000000240093
:1002700027002A002D003000080B000202020100B6
:1002800009040000010202000005240010010524F9
:10029000010101042402060524060001070581036B
:1002A00010004009040100020A00000007050202D4
:1002B0004000000705830240000012010002EF0227
:1002C00001404123368000010102030112010002B6
:1002D0000000004041233680000101020301417209
:1002E0006475696E6F204C4C430041726475696E91
:1002F0006F204C656F6E6172646F00040309040027
:10030000AD031C07B209890F601351155C1539172D
:1003100044171F1F5822E02211241FBECFEFDAE03E
:10032000DEBFCDBF12E0A0E0B1E0E6E8FDE502C02F
:1003300005900D92A630B107D9F724E0A6E0B2E00F
:1003400001C01D92A438B207E1F713E0C8E1D3E081
:1003500004C02297FE010E94E62CC030D107C9F7E5
:100360000E94F0220C94C12E0C9400001F93CF9396
:10037000DF93FC01648D758D868D978D24E630E0CA
:1003800040E050E00E94A32C672B682B692B49F4B6
:1003900084E690E00E94A32E61E0680F84E690E07E
:1003A0000BC0C4E6D0E010E0CE010E94A32E81175E
:1003B00040F461E0680FCE01DF91CF911F910C9462
:1003C000AB2E2196C83CD10511F0182FEDCFDF914F
:1003D000CF911F910895CF92DF92EF92FF920F93EA
:1003E0001F93CF93DF93EC01198A188A80E190E084
:1003F0009B8B8A8B83E690E09D8B8C8B0E94A32E37
:100400008F3FB9F404E610E060E0C8010E94AB2E13
:100410000F5F1F4F083C1105B9F70C891D89C801F2
:100420000E94A32E8823E9F060E0C8010E94AB2E51
:1004300018C0C12CD12C760104E610E0C8010E943E
:10044000A32EC80ED11CE11CF11C0F5F1F4F083CEE
:100450001105A1F7CC8EDD8EEE8EFF8ECE010E94AF
:10046000B601C888D9887E0100E110E0CC1ADD0A07
:10047000C6018E0D9F1D0E94A32EF70181937F015F
:1004800001501109A9F705E010E08A899B89800FC6
:10049000911F0E94A32EFE01E00FF11F868B0150D9
:1004A000110999F7DF91CF911F910F91FF90EF9074
:1004B000DF90CF900895BF92CF92DF92EF92FF929C
:1004C0000F931F93CF93DF93CDB7DEB7C554D109F8
:1004D0000FB6F894DEBF0FBECDBF8C010E94801F07
:1004E000D8015396CD90DD90ED90FC9056976C1905
:1004F0007D098E099F09CD90DD90ED90FC90C61688
:10050000D706E806F90608F012C17801B7E0EB0E4D
:10051000F11CD8011596ED91FC9116978EE0DE0145
:100520009B9601900D928A95E1F741E0BE016F5FC5
:100530007F4FCE018B960E94B51C882379F0FE0177
:100540003196D701CE01099621912D93E817F9072D
:10055000D9F767E0CE0101960E94521DF80184810F
:100560000580F681E02D9EE0DE015D9601900D9202
:100570009A95E1F78C3031F08B3031F08A3031F0E0
:100580002FE105C02FE703C02FE501C02FE3CE0107
:100590004D9626962FAF26970E945D1BB701CE0180
:1005A0004D960E94581C40E06EE4CE014D960E948C
:1005B000FA1B40E060E0CE014D960E94FA1B40E03D
:1005C00060E0CE014D960E94FA1B40E026962FADCA
:1005D0002697622FCE014D960E94FA1B40E068E4F8
:1005E000CE014D960E94FA1BD8011596ED91FC9113
:1005F00016978EE0DE011F9601900D928A95E1F725
:10060000CE010F960E945D1BB701CE010F960E948E
:10061000581C41E064E4CE010F960E94FA1BD801F9
:100620001596ED91FC9116978EE0DE0111960190E2
:100630000D928A95E1F7F8018781823271F0883254
:1006400061F0803119F4BB24B39408C06AEC70E007
:1006500082E194E00E944B2301C0B12CCE010196AF
:100660000E945D1BB701CE0101960E94581C40E01C
:100670006EEBCE0101960E94FA1B7E01F9E3EF0EAC
:10068000F11C670189E0C80ED11CCE0101960E94C1
:100690003C1CD7018D937D01AC15BD05B1F76AAD4A
:1006A00070E0762F662789AD682BBB2041F133E0DF
:1006B000660F771F3A95E1F721968FAD219780312C
:1006C00051F4CB01807F2FAD6CE070E0621B7109AB
:1006D000680F791F14C08DAD807631F423E0660F6A
:1006E000771F2A95E1F70BC0803229F4660F771F38
:1006F000660F771F04C0803411F4660F771F80E007
:1007000090E00E94862B20E030E040E85DE30E940C
:100710003C2CF8016787708B818B928B0E94801F25
:10072000D80153966D937D938D939C935697F801C2
:100730006785708981899289CB5BDF4F0FB6F8940A
:10074000DEBF0FBECDBFDF91CF911F910F91FF9004
:10075000EF90DF90CF90BF9008950F93CF93DF93EA
:1007600000E020E040E060E087EF92E00E94B922E4
:1007700087ED92E00E94EB0183E290E09093D40237
:100780008093D30280E894E8AEE1B0E08093BC02AD
:100790009093BD02A093BE02B093BF028AE0809303
:1007A000C0021092CB021092CC021092CD02109295
:1007B000CE021092CF021092D0021092D10210926B
:1007C000D2028EE090E00E940323EC0167E00E94D9
:1007D000921CD093C202C093C1024DE050E06CE085
:1007E00070E086EB92E00E945E1D83E192E00E9441
:1007F000691489E395E0909321028093200280ECB4
:100800008093220288EA8093230281E0809324026D
:1008100085E38093250210928A0210928B028CE865
:1008200092E00E94C61687EA92E00E94691480EE68
:100830009BEA9093B5028093B40286E092E0DF9148
:10084000CF910F910C946914CF92DF92EF92FF92A7
:100850000F931F93CF93DF9300D000D000D0CDB77C
:10086000DEB77C018B0161E08BE00E947B2060E0C1
:100870008BE00E94B4206AE070E080E090E00E948B
:10088000A31F61E08BE00E94B42068EC70E080E080
:1008900090E00E94A31FB8018AEC93E00E945312DB
:1008A000892B41F46FE171E082E194E00E945D23C5
:1008B00080E046C067E471E082E194E00E943E235C
:1008C0008E010D5F1F4F6E0187E0C80ED11C6AECD0
:1008D00073E0CE0101960E943D13F80161918F01F2
:1008E0004AE050E082E194E00E942D2467E571E047
:1008F00082E194E00E943E230C151D0541F782E140
:1009000094E00E94472343E064E089E190E00E9484
:10091000481948EE64E08AE190E00E94481943E0FB
:1009200064E08BE190E00E944819F701EF55FF4F1A
:1009300060817181C70187589F4F0E94931681E0A3
:1009400026960FB6F894DEBF0FBECDBFDF91CF91D4
:100950001F910F91FF90EF90DF90CF90089540E8A6
:1009600055E260E070E082E194E00E9443228DEF66
:1009700092E00E948C0682E194E00E944922882342
:10098000D1F369E571E082E194E00E943E23409159
:10099000F3025091F4026091F5027091F6022AE0A0
:1009A00030E082E194E00E944A246DEE72E083E13F
:1009B00092E00C942404AF92BF92CF92DF92EF9218
:1009C000FF920F931F93CF93DF93CDB7DEB762975C
:1009D0000FB6F894DEBF0FBECDBF6C018AEC93E07A
:1009E0000E94E012860107581F4FC8010E9442165C
:1009F000069709F0E5C0F601E857FF4F42815381A1
:100A0000648175814F87588B698B7A8B67E671E0BB
:100A100082E194E00E945D23D801ED91FC91008C6D
:100A2000F18DE02D46E050E0BE01695F7F4FC801C7
:100A300009958F81833709F0B5C08A85823709F01F
:100A4000B1C0055E1F4FC8010E942D15882319F003
:100A5000C8010E94EC14F6014585568585EF91E0AA
:100A60009A8389838F859889A989BA898B839C8386
:100A7000AD83BE83BE016F5F7F4FC8010E948914A2
:100A80006091D3027091D4028DEF92E00E94A00693
:100A9000E091FD02F091FE020190F081E02D60E115
:100AA0008DEF92E009958DEF92E00E941907C090BA
:100AB000D302D090D402B6018DEF92E00E94A0063E
:100AC00042E050E0B6018DEF92E00E94160765ED1E
:100AD000A62E62E0B62EC12CD12C8DEF92E00E94A2
:100AE000F505892B59F08DEF92E00E94FD05D501A7
:100AF0008D935D01BFEFCB1ADB0AEFCF8DEF92E054
:100B00000E941907E2E0CE16D104B9F46091D50233
:100B100070E0762F66278091D602682B882777FDB4
:100B20008095982F0E94882B2AE939E949E95FE3EB
:100B30000E94ED2A0E945A2B7B014AE050E0B70147
:100B4000C8010E9434248CEB92E00E945B02AB014E
:100B5000BC0122E030E0C8010E94472586EB92E00C
:100B60000E94861EAB01BC0122E030E0C8010E9459
:100B7000472586EB92E00E949D1EAB01BC0122E05E
:100B800030E0C8010E94472562E771E082E194E00D
:100B90000E945D23BE01695F7F4F82E194E00E9465
:100BA0005D230EC06CE771E082E194E00E945D235A
:100BB0004AE050E066E070E082E194E00E940824A0
:100BC00062960FB6F894DEBF0FBECDBFDF91CF9116
:100BD0001F910F91FF90EF90DF90CF90BF90AF905B
:100BE000089583E192E00C94DB0480912D0390E062
:100BF00020912E03821B9109089520912E0380914C
:100C00002D03281750F4E22FF0E0E15DFC4F8081C6
:100C100090E02F5F20932E0308958FEF9FEF0895AC
:100C2000E0912E0380912D03E81730F4F0E0E15DB0
:100C3000FC4F808190E008958FEF9FEF0895089515
:100C4000CF92DF92EF92FF920F931F93CF93DF9398
:100C50007C01CB018A0120910903222389F0EB0159
:100C60006B01C40ED51ECC15DD0569F06991D70165
:100C7000ED91FC910190F081E02DC7010995F3CF32
:100C8000642F0E94DD07C801DF91CF911F910F9162
:100C9000FF90EF90DF90CF900895CF93DF931F9256
:100CA000CDB7DEB76983209109032223D1F02091CB
:100CB0000A03203240F021E030E0FC01338322833C
:100CC00080E090E015C080910B03E82FF0E0E45F36
:100CD000FC4F998190838F5F80930B0380930A036D
:100CE00005C061E0CE0101960E94DD0781E090E041
:100CF0000F90DF91CF910895FC011382128248EE8C
:100D000053E060E070E044835583668377838AE82C
:100D100091E091838083089510922E0310922D0309
:100D200010920B0310920A030C94200781E0809329
:100D3000090360932C0310920B0310920A03089589
:100D40000C9496060F93062F21E040910A036CE065
:100D500073E080912C030E94860710920B0310927F
:100D60000A03109209030F9108958F929F92AF92F8
:100D7000BF92CF92DF92EF92FF920F931F93CF9388
:100D8000DF93EC01F62ED42E48015901EE2019F123
:100D90000E9496061E2D143008F013E01150B8F092
:100DA000E881F98128E0129FB0011124A501940186
:100DB00004C056954795379527956A95D2F7CA018D
:100DC000B9010190F081E02DCE010995E7CF60E0F7
:100DD000CE010E94A2064D2D413208F040E22C2D9A
:100DE0006FE273E08F2D0E943E0710922E038093D6
:100DF0002D03DF91CF911F910F91FF90EF90DF9026
:100E0000CF90BF90AF909F908F900895CF92EF9228
:100E10000F931F93C22EE12C00E010E098010E9476
:100E2000B5061F910F91EF90CF90089521E00C949B
:100E3000060761E00C94A2068DEF92E00C947C060C
:100E40001092BC0381E08093BA031092B90361E071
:100E500082E00E94B42061E083E00E94B420E9EBCC
:100E6000F0E080818E7F808380818D7F808388E425
:100E70008093B80085E48093BC000895413208F067
:100E800043C09091BC039111FCCF91E09093BC03BF
:100E90002093BA032FEF20934F0310929403240F53
:100EA000209393039093BB039091BB03880F892BEE
:100EB0008093BB038091B903813061F41092B90330
:100EC0008091BB038093BB008091BC0083FDF8CF71
:100ED00085EC01C085EE8093BC008091BC0381301D
:100EE000E1F380919403841710F44091940325E971
:100EF00033E0FB01D9018A2F821B841718F48D91EE
:100F00008193F9CF842F089580E008950F934132A3
:100F100008F04AC09091BC039111FCCF92E09093ED
:100F2000BC030093BA039FEF90934F031092940376
:100F300040939303FB0165E973E0DB019A2F961B55
:100F4000941718F491919D93F9CF1092BB0390914F
:100F5000BB03880F892B8093BB038091B903813039
:100F600061F41092B9038091BB038093BB00809120
:100F7000BC0083FDF8CF85EC01C085EE8093BC00FA
:100F8000222321F08091BC038230E1F380914F0352
:100F90008F3F61F080914F03803251F080914F0379
:100FA000803341F483E007C081E005C080E003C0E6
:100FB00082E001C084E00F910895613298F420919D
:100FC000BC03243089F460937103FC0183E793E050
:100FD000DC012A2F281B261718F421912D93F9CF15
:100FE00080E0089581E0089582E0089585ED809382
:100FF000BC008091BC0084FDFCCF1092BC0308951E
:1010000085EC8093BC001092BC0308951F920F9250
:101010000FB60F9211242F933F934F935F936F93CB
:101020007F938F939F93AF93BF93EF93FF938091A1
:10103000B900887F803609F49EC078F5883209F4BB
:101040005DC090F4803109F456C038F4882309F467
:10105000F5C0883009F44FC0F5C0883109F44EC09E
:10106000803209F45FC0EEC0803409F46AC058F4DD
:10107000803309F457C0883309F0E4C080934F03EC
:101080000E940008DFC0803509F44FC0883509F49C
:101090005DC0883409F0D6C0D3C0883909F4C4C013
:1010A000A8F4883709F467C038F4883609F463C0B7
:1010B000803709F460C0C6C0883809F4B5C08039EB
:1010C00009F45FC0803809F0BDC05BC0803B09F403
:1010D00083C038F4803A09F466C0883A09F47CC0C9
:1010E000B1C0803C09F4A4C0883C09F4A1C0883B8D
:1010F00009F487C0A7C08091BB0310C090919403EE
:1011000080919303981770F5E091940381E08E0F1E
:1011100080939403F0E0EB56FC4F80818093BB00FA
:1011200085EC83C080934F038BC0E091940381E0F2
:101130008E0F809394038091BB00F0E0EB56FC4F40
:10114000808390919403809193036BC0E09194030A
:1011500081E08E0F809394038091BB00F0E0EB560A
:10116000FC4F80838091BA0381116AC081E0809333
:10117000B90384EA5EC083E08093BC0310925003FD
:10118000CFCF80915003803208F04EC0E0915003E1
:1011900081E08E0F809350038091BB00F0E0EF5A06
:1011A000FC4F8083BDCF0E940008809150038032A5
:1011B00030F4E0915003F0E0EF5AFC4F1082609160
:1011C000500370E0E091B503F091B60381E593E040
:1011D00009951092500336C084E08093BC031092AE
:1011E000720310927103E091B703F091B80309956F
:1011F00080917103811105C081E080937103109289
:101200007303E091720381E08E0F80937203F0E02C
:10121000ED58FC4F80818093BB00909172038091C8
:101220007103981708F47CCF85E88093BC000AC04E
:1012300085EC8093BC001092BC0304C010924F0355
:101240000E94F607FF91EF91BF91AF919F918F910F
:101250007F916F915F914F913F912F910F900FBEB2
:101260000F901F901895CF93CFB7F8948091BD033E
:10127000811127C0E0E4F2E08491E1E2F2E0949190
:10128000E82FF0E0EE0FFF1FE659FD4FA591B49156
:101290008C91892321F461E081E10E94B42061E016
:1012A00081E10E947B208CB580618CBD8CB580640F
:1012B0008CBD61E08FE00E947B2061E080E10E94B4
:1012C0007B208091BD038F5F8093BD03CFBFCF9103
:1012D00008950E9624E1FC0111922A95E9F70895EC
:1012E000CF93DF93EC01625F7F4F0E94C522CE0156
:1012F000DF91CF910895CF93DF93EC016E5E7F4F26
:101300000E94C522CE01DF91CF910895CF93DF9344
:10131000EC016A5E7F4F0E94C522CE01DF91CF9122
:101320000895CF93DF93EC01625E7F4F0E94C52248
:10133000CE01DF91CF91089580E3FB018083329647
:10134000842F82958F7090E1899F401911244A3033
:1013500014F4405D01C0495C4293882311F0482F8A
:10136000EFCF08950F9300E020E040E060E08EEBC7
:1013700093E00E94B9220F9108956F927F928F920D
:101380009F92AF92BF92CF92DF92EF92FF920F9314
:101390001F93CF93DF93CDB7DEB7AC970FB6F8941A
:1013A000DEBF0FBECDBF7C01862EB42EA52E20E25F
:1013B000922ECE0101966C01FC01292D11922A95E5
:1013C000E9F70FEF2FEF4FEF6FEF86960E94B922EC
:1013D00085EF91E09AA389A389A59AA5ABA5BCA5A1
:1013E0008BA39CA3ADA3BEA38701095B1F4F43E45E
:1013F00050E0BE016F5D7F4FC8010E94C31501968A
:1014000009F4BFC081E089838A8386E0782E7B82DD
:101410001C82F70164817581868197810E94EA2C84
:101420006D837E838F839887A986BA8680E890E053
:101430009C878B874CE150E0B601C8010E94CF1514
:10144000F601292D11922A95E9F7570188E0A80E97
:10145000B11CF501D60101900D927A94E1F740E1BB
:1014600050E0B601C8010E94CF15F60111929A947E
:10147000E9F796E0692E712C40E250E0B601C80110
:101480000E94CF15F1E06F1A7108B1F783E68983E6
:1014900092E89A8393E59B838C8385E38D8381E037
:1014A0008E838F829DE3988797E099878A8786E06D
:1014B000F501DE011B9601900D928A95E1F78CE013
:1014C000898B8A8B66E971E0CE0143960E949C2E3F
:1014D000F7014385BE01675E7F4FC7010E949C09EB
:1014E000F7014485BE01655E7F4FC7010E949C09DC
:1014F000F7014585BE01635E7F4FC7010E949C09CD
:101500004EE150E0B601C8010E94CF15F3E08F1202
:101510001EC082E3898384E08A83F70196859B83DA
:1015200097859C8390899D8391899E8396E39F8371
:101530008887828D8987838D8A87848D8B87858D27
:101540008C874CE050E0B601C8010E94CF1587E3BC
:10155000898386E08A8391E09B8393E09C838D83DB
:101560008FE08E838AE38F838BE388878FEF898771
:1015700049E050E0B601C8010E94CF15C8010E94A1
:10158000CB15AC960FB6F894DEBF0FBECDBFDF9182
:10159000CF911F910F91FF90EF90DF90CF90BF9070
:1015A000AF909F908F907F906F9008952F923F9271
:1015B0004F925F926F927F928F929F92AF92BF9263
:1015C000CF92DF92EF92FF920F931F93CF93DF930F
:1015D000CDB7DEB7E3970FB6F894DEBF0FBECDBF31
:1015E0007C012A013B0169010E94741F4B015C01CF
:1015F0008701095B1F4FC8010E9442161816190681
:1016000094F00E94741F681979098A099B0946168B
:10161000570668067906F0F062E370E080E090E03B
:101620000E94A31FE8CF42E250E0BE016F5F7F4FF0
:10163000C8010E940C168981823031F4F801858935
:1016400096898334910541F019A6C8010E949C1522
:1016500089A566C18FEF64C16D817E818F81988578
:101660000E94EA2C4B015C01F60160837183828346
:10167000938346E050E0B701685F7F4FCE014D96FF
:101680000E948F2E892B99F4F70180819181A2818C
:10169000B38188169906AA06BB0648F08481958115
:1016A000A681B78188159905AA05BB0528F4C8014C
:1016B0000E949C1580E034C189899A89AB89BC89D4
:1016C000F70186879787A08BB18B3EECC32ED12C78
:1016D000C8010E94E315F1E0CF1AD108C9F719A695
:1016E000C70182969BA78AA7F701B696FDA7ECA72C
:1016F00008969FA78EA73C976F018E9699AB88ABF3
:101700003897FBABEAAB5701F6E1AF0EB11C4701CE
:101710008EE1880E911CC8010E94821518161906C8
:101720000CF093CFC8010E94E3158333910509F4AF
:10173000CDC0F4F481309105B9F11CF4892B59F333
:10174000DFC083309105C1F1069709F0D9C0C80107
:101750000E94E3153C0144E050E0B401C8010E943E
:101760000C16212C312C7724F4E06F1A71083FC03D
:101770008A33910509F47EC03CF48533910561F00C
:10178000C69709F43FC0BCC08B33910509F488C0EB
:101790008F3F910501F2B4C0C8010E94E315C80152
:1017A0000E94E31589A7B7CFC8010E94E31544E062
:1017B00050E06AA97BA93AC0C8010E94E3153C0128
:1017C00044E050E0B501C8010E940C16212C312CD8
:1017D000772494E0691A7108261437040CF09BCF23
:1017E000C8010E94E315EFEF2E1A3E0AF5CF26142A
:1017F00037040CF090CFC8010E94E3158FEF281A30
:10180000380AF5CFC8010E94E315782EF701828DC2
:10181000811110C0838D81110DC0848D81110AC08A
:10182000858D811107C044E050E0B601C8010E94D7
:101830000C1671CFE8A9F9A920803180428053802D
:10184000B601CE0183960E94C5228DA19EA1AFA1B3
:10185000B8A582159305A405B50529F3212C312CD3
:10186000721409F458CFC8010E94E315FFEF2F1A34
:101870003F0AF6CFC8010E94E31544E050E06CA592
:101880007DA5C8010E940C16F70166A177A180A56D
:1018900091A50E94EA2C66A377A380A791A73BCFCE
:1018A000C8010E94E31544E050E06EA57FA5C80181
:1018B0000E940C16F70162A573A584A595A50E9448
:1018C000EA2C62A773A784A795A725CFC8010E9419
:1018D000E31544E050E06AA57BA5C8010E940C1600
:1018E000F70162A173A184A195A10E94EA2C62A3D1
:1018F00073A384A395A366A777A780AB91AB0BCF07
:10190000C8010E94E315382E612C712C361409F49D
:1019100002CFC8010E94E315FFEF6F1A7F0AF6CFCE
:10192000E3960FB6F894DEBF0FBECDBFDF91CF9127
:101930001F910F91FF90EF90DF90CF90BF90AF90ED
:101940009F908F907F906F905F904F903F902F90DF
:1019500008952F923F924F925F926F927F928F9253
:101960009F92AF92BF92CF92DF92EF92FF920F932E
:101970001F93CF93DF93CDB7DEB727970FB6F894B9
:10198000DEBF0FBECDBF8C0120ED37E040E050E060
:1019900061E070E080E090E00E94CC29D8011496CC
:1019A0006D937D938D939C931797F801608371835A
:1019B000828393834801F7E48F0E911CC4010E9437
:1019C000AE1564E470E0C4010E949316882309F404
:1019D00028C10E94741F6B017C01A12CB12C1D82B7
:1019E000180186E4280E311CD801DE96BF83AE8331
:1019F00038EE432E33E0532E612C712CF10180819F
:101A0000833009F4FDC081111FC0F80184819581E4
:101A1000A681B7810196A11DB11D84839583A683FC
:101A2000B7830E94741F6C197D098E099F09A30159
:101A300092010E94A32CA90161E0C8010E94BD0986
:101A400081E0D1018C93BEC08430F9F4F801848127
:101A50009581A681B7810196A11DB11D84839583CF
:101A6000A683B7830E94741F6C197D098E099F0994
:101A7000A30192010E94A32CA90163E0C8010E9466
:101A8000BD09E2E0D101EC939DC0813061F5AE81EA
:101A9000BF814D915D916D917C919E012F5F3F4F74
:101AA000C8010E94D60A8D83823009F08BC08981DB
:101AB0009A81AB81BC81F80184839583A683B78327
:101AC0000E94741F6C197D098E099F09A301920160
:101AD0000E94A32CA90163E0C8010E94BD09ED8109
:101AE000D101EC9375C0823009F06CC0AE81BF812A
:101AF0004D915D916D917C919E012F5F3F4FC8018B
:101B00000E94D60A8D83853009F056C083E0F1012A
:101B10008083F80182A193A1A4A1B5A1892B8A2B6E
:101B20008B2B41F484E893E0A0E0B0E082A393A380
:101B3000A4A3B5A3F80186A197A1A0A5B1A5892B5F
:101B40008A2B8B2B61F482A193A1A4A1B5A1B69598
:101B5000A7959795879586A397A3A0A7B1A7D80126
:101B60009A964D915D916D917C919D9796968D91F0
:101B70009D910D90BC91A02D452B462B472B59F4E0
:101B8000AC01BD01440F551F661F771FF80142A726
:101B900053A764A775A7F80186A797A7A0ABB1AB19
:101BA00082A593A5A4A5B5A582AB93ABA4ABB5AB19
:101BB000AA24A394B12C0CC0FD81F63019F4D101F4
:101BC0001C9206C0BD81BF3F19F4F10110821D8235
:101BD000F1E0AF16B10409F411CF0E94741F6C1923
:101BE0007D098E099F09D801DA962D913D914D917D
:101BF0005C91DD97261737074807590708F0FECE96
:101C0000C4010E94AE15F80184819581A681B78137
:101C10000196A11DB11D84839583A683B783C50159
:101C200002C080E090E027960FB6F894DEBF0FBEAA
:101C3000CDBFDF91CF911F910F91FF90EF90DF907B
:101C4000CF90BF90AF909F908F907F906F905F905C
:101C50004F903F902F900895CF92DF92EF92FF9296
:101C60000F931F93CF93DF93EC016B011AA21BA27A
:101C70001CA21DA21EA21FA218A619A61AA61BA668
:101C80001CA61DA61EAA1FAA18AE19AE2AAF3BAFEE
:101C90004CAF5DAFFC01FE96E082F18202831383BC
:101CA0008C01085F1F4F86E0F80111928A95E9F7D1
:101CB000CE010E94690986E0F601D80101900D92DB
:101CC0008A95E1F7FE01EA5BFF4F1082CE01DF91BA
:101CD000CF911F910F91FF90EF90DF90CF900C94D8
:101CE000A90C8F929F92AF92BF92CF92DF92EF9208
:101CF000FF920F931F93CF93DF93EC010E94741F09
:101D00006B017C018EA99FA9A8ADB9AD8E010E5BB8
:101D10001F4F892B8A2B8B2B09F48FC0F8018081F0
:101D20009181A281B381A7019601281B390B4A0B2F
:101D30005B0BCA01B90157FD4EC04601570138EE91
:101D4000830E33E0931EA11CB11C28EE33E040E06B
:101D500050E00E94C52C861A970AA80AB90AF80111
:101D600080829182A282B382DA01C9010196A11D0B
:101D7000B11D4EA55FA568A979A98C019D01000F31
:101D8000111F221F331F40175107620773072CF4DE
:101D90001EA61FA618AA19AA08C0481B590B6A0B31
:101DA0007B0B4EA75FA768AB79AB4AA95BA96CA96F
:101DB0007DA940175107620773072CF41AAA1BAAC2
:101DC0001CAA1DAA08C0481B590B6A0B7B0B4AAB07
:101DD0005BAB6CAB7DAB8E010A5B1F4FF801808162
:101DE000833081F48EA59FA5A8A9B9A91816190654
:101DF0001A061B063CF084E08083CE010E94A90CE9
:101E0000019602C080E090E0F8012081233011F0BB
:101E1000211120C04AA95BA96CA97DA91416150639
:101E200016061706BCF0F8011082CE010E9469095F
:101E3000CE010E94A90C03960DC0D701C60188519E
:101E40009C4FAF4FBF4FF80180839183A283B38330
:101E500080E090E0CEAADFAAE8AEF9AEDF91CF91A4
:101E60001F910F91FF90EF90DF90CF90BF90AF90B8
:101E70009F908F900895FB01428153816481758109
:101E8000FC0142835383648375831782168208950D
:101E9000CF93FB0181918111FDCFFB0180E090E0A8
:101EA00020E030E0CAE06191662309F12430310579
:101EB00064F56E3271F48F3F910509F034F5DA0163
:101EC000A20FB31F12968C932F5F3F4F80E090E0DC
:101ED000EACFDC01CA9FC001CB9F900D1124772768
:101EE00067FD709560537109860F971FDCCF8F3F98
:101EF000910509F054F4243031053CF4FA01E20F65
:101F0000F31F828381E090E002C080E090E0CF91F7
:101F100008950F9300E020E040E060E084EC93E05F
:101F20000E94B9220F910895AF92BF92CF92DF9293
:101F3000EF92FF920F931F93CF93DF9300D01F92E6
:101F4000CDB7DEB76C017B010E94741FF601778369
:101F500066838601085F1F4FB6016A5F7F4F42E0CC
:101F600050E0C8010E94CF1581E090E09A838983F8
:101F700042E050E0BE016F5F7F4FC8010E94CF1565
:101F800080E091E09A83898342E050E0BE016F5F78
:101F90007F4FC8010E94CF151A82198242E050E09B
:101FA000BE016F5F7F4FC8010E94CF1542E050E035
:101FB000BE016F5F7F4FC8010E94CF1542E050E025
:101FC000BE016F5F7F4FC8010E94CF156701F60108
:101FD0008081882311F1F7016F018191811115C072
:101FE0005601AE18BF081A141B0494F4AB8241E0EA
:101FF00050E0BE016D5F7F4FC8010E94CF15A50163
:10200000B701C8010E94CF1503C08E3229F7E8CF6F
:102010007601FFEFEF1AFF0ADACF1B8241E050E0B2
:10202000BE016D5F7F4FC8010E94CF15E12CFF24D8
:10203000F394FA82E98242E050E0BE016F5F7F4F85
:10204000C8010E94CF15FA82E98242E050E0BE0149
:102050006F5F7F4FC8010E94CF1581E090E00F9025
:102060000F900F90DF91CF911F910F91FF90EF9004
:10207000DF90CF90BF90AF9008954F925F926F9294
:102080007F928F929F92AF92BF92CF92DF92EF9208
:10209000FF920F931F93CF93DF93CDB7DEB7639774
:1020A0000FB6F894DEBF0FBECDBF7C015B016A01A5
:1020B0000E94741F2B013C018701085F1F4F4501DF
:1020C000A12CB12CC8010E9442161816190694F0D2
:1020D0000E94741F64197509860997098616970668
:1020E000A806B906D0F062E370E080E090E00E94BC
:1020F000A31FE8CFF7014281538164817581818DEF
:10210000928DA38DB48D481759076A077B0741F458
:10211000858D968DC59721F406C08FEF9FEFF9C08E
:102120008EEF9FEFF6C0C8010E9482150C970CF449
:10213000EEC04CE050E0BE016F5F7F4FC8010E94CF
:102140000C168B819C819827892798279A8B898BDD
:10215000F7014681578129813A814217530711F4CB
:1021600097FD06C0C8010E949C158CEF9FEFD1C05F
:102170008F709270892B31F0C8010E949C158BEFF3
:102180009FEFC7C0AF80B884BA24AB24BA24A1148F
:10219000B10419F0E12CF12C23C0C8010E949C1558
:1021A0008AEF9FEFB6C041E050E0BE01635F7F4F12
:1021B000C8010E940C168D8581111BC08D8581116F
:1021C000F2CFC8010E94E315C8010E94E315C801BF
:1021D0000E94E315C8010E94E315FFEFEF1AFF0A02
:1021E0008D819E81982789279827E816F906D8F2CD
:1021F0000AC08D859FEF980F9D878823F9F2C8014B
:102200000E94E315F6CFE12CF12C41E050E0BE0135
:102210006D5E7F4FC8010E940C168B89982F907CB1
:1022200061F4882371F08B899FEF980F9B8B882333
:1022300041F0C8010E94E315F6CFC8010E94E315E2
:102240001B8A8B898111E1CF42E050E0BE01615FC2
:102250007F4FC8010E940C1642E050E0BE01635F50
:102260007F4FC8010E940C16C8010E94E315C801E7
:102270000E94E315C8010E94E315C8010E94E315FE
:1022800042E050E0BE016F5E7F4FC8010E940C1615
:102290008F8598898115914029F48D859E858115BA
:1022A000914019F0812C912C16C089899A89811549
:1022B000944031F0C8010E949C1587EF9FEF29C020
:1022C000B6016E5F7F4F44E050E0C8010E940C16DB
:1022D00081E090E01EC089899A89982789279827EC
:1022E0008816990638F4C8010E94E3152FEF821A68
:1022F000920AF1CF8FEFE81AF80AEA14FB0409F00A
:1023000084CFC8010E949C1586EF9FEF02C08DEF1D
:102310009FEF63960FB6F894DEBF0FBECDBFDF917F
:10232000CF911F910F91FF90EF90DF90CF90BF90D2
:10233000AF909F908F907F906F905F904F90089597
:102340008F929F92AF92BF92CF92DF92EF92FF92C5
:102350000F931F93CF93DF9300D000D000D0CDB761
:10236000DEB78C015B016A010E94480F4C010097A7
:1023700009F05DC0F80142815381648175818091CB
:10238000C6039091C703A091C803B091C903481731
:1023900059076A077B0709F44EC00E94741F780131
:1023A000F8E0EF0EF11C6F7077277C5FC7010E9489
:1023B0009316813009F043C085EF91E09A838983B9
:1023C000F80182819381A481B5818B839C83AD8345
:1023D000BE8345E350E0BE016F5F7F4FC7010E949F
:1023E000C315892B19F4812C912C1DC0B501C8018E
:1023F0000E94940F892BB9F3C7010E94CB15892B3A
:1024000091F333E0A32EB12CA60168E873E1C80173
:102410000E943D104C01F1E0AF1AB10821F08F3F4E
:102420002FEF920789F3C7010E94AE1508C08824D8
:102430008394912C04C09EEF892E99249A94C40110
:1024400026960FB6F894DEBF0FBECDBFDF91CF91B9
:102450001F910F91FF90EF90DF90CF90BF90AF90C2
:102460009F908F90089524E030E0AC0164E081E01B
:1024700090E00C94911924E030E0AC0164E085E038
:1024800090E00C94911926E030E0AC0164E089E022
:1024900090E00C94911924E030E0AC0164E08FE00E
:1024A00090E00C949119AF92BF92CF92DF92EF928D
:1024B000FF920F931F93CF93DF9300D000D000D0F3
:1024C000CDB7DEB76C015B0182E690E00E9403238A
:1024D0008C0182E6F80111928A95E9F7C801895BBF
:1024E0009F4F0E94C616F6011783068382E094E090
:1024F0000E946E19C5010E94431200E020E040E0F6
:1025000060E0CE0101960E94B922CE0103960E949E
:102510004B1218E8E12E13E1F12E00E010E020E666
:102520003AEE40E050E0B501F601868197810E94C5
:102530002C0E8C018130910589F5F6016681778139
:10254000CE0101960E947009CE0103960E944B12A3
:10255000F60166817781CE0101960E948609CE013F
:1025600003960E943312F60166817781CE010196AF
:102570000E947B09CE0103960E943B12F601668100
:102580007781CE0101960E9491094B815C816D811A
:102590007E81F6014283538364837583C801269646
:1025A0000FB6F894DEBF0FBECDBFDF91CF911F9164
:1025B0000F91FF90EF90DF90CF90BF90AF90089574
:1025C000EF92FF920F931F93CF93DF9300D000D031
:1025D00000D0CDB7DEB78C01FC01868197810097D2
:1025E000E1F10E94710E7C018230910521F084E0BE
:1025F000E816F104A1F5F80166817781CE01019614
:102600000E947009CE0103960E944B12F801668168
:102610007781CE0101960E948609CE0103960E9421
:102620003312F80166817781CE0101960E947B0901
:10263000CE0103960E943B12F80166817781CE019C
:1026400001960E9491094B815C816D817E81F80128
:10265000428353836483758302C0E12CF12CC7014C
:1026600026960FB6F894DEBF0FBECDBFDF91CF9197
:102670001F910F91FF90EF900895CF93DF93EC019E
:102680000E94AF22AE014E5F5F4F24E030E060E079
:102690008FE090E00E94A41ACE01DF91CF910895BF
:1026A00025EF31E0FC0131832083FB01428153811E
:1026B00064817581FC01428353836483758308952B
:1026C0000F9300E020E040E060E082EE93E00E94A3
:1026D000B9228AEC93E00F910C94AF22DC01ED91CA
:1026E000FC91008CF18DE02D099591E089270895EA
:1026F000CF93DF931F92CDB7DEB76983DC01ED91F5
:10270000FC910280F381E02D41E050E0BE016F5F5B
:102710007F4F09950F90DF91CF91089521E0FC0143
:102720008485883009F420E0822F0895FC01948587
:10273000FB018485981303C081E0983009F480E0A0
:1027400008950F931F93CF93DF93EC018A018C853B
:10275000883021F00E942318892B39F481E090E021
:102760009B838A8380E090E001C0C801DF91CF9114
:102770001F910F910895FC016485683021F082E07B
:1027800094E00C943F1A80E090E00895CF93DF939B
:102790001F92CDB7DEB741E050E0BE016F5F7F4FC3
:1027A000FC0184850E947518181619061CF489818D
:1027B00090E002C08FEF9FEF0F90DF91CF910895CF
:1027C000FC0184850C9475180F931F93CF93DF93AE
:1027D0001F92CDB7DEB78C01DC01ED91FC91048036
:1027E000F581E02D0995892B51F0BE016F5F7F4F78
:1027F000F80184850E94B918898190E002C08FEFAA
:102800009FEF0F90DF91CF911F910F910895FC01E1
:1028100084850C94C718CF92DF92EF92FF920F93AA
:102820001F93CF93DF93CDB7DEB7AF970FB6F89472
:10283000DEBF0FBECDBF7C018B016A01CE010196C8
:102840000E94AF22CE0109960E94C616CE018A963A
:102850000E94AF226AEC73E0CE0184960E9450136E
:10286000BE016C5D7F4FCE0101960E943B0FAE0111
:10287000465D5F4FB801CE0101960E94A0118130E4
:102880009105C1F4D701ED91FC910484F585E02D0B
:1028900085EF91E09DA38CA30CA51DA52EA53FA5BA
:1028A0000EA31FA328A739A7A601BE016C5D7F4F09
:1028B000C7010995AF960FB6F894DEBF0FBECDBF26
:1028C000DF91CF911F910F91FF90EF90DF90CF900C
:1028D0000895FC011382128248EE53E060E070E03C
:1028E000448355836683778381EA91E09183808373
:1028F00088E084870895FC016485683041F0629522
:10290000660F607E685F83E090E00C94CF1980E0F2
:102910000895DF92EF92FF920F931F93CF93DF936F
:10292000EC017B018A018C85883009F04BC0D12CE9
:102930006D2D6295660F607E685F83E090E00E9477
:10294000CF19811102C0DC8607C08B7F8831D9F393
:10295000D39488E0D812ECCF8C85883099F12091FF
:102960000A0130910B012F5F3F4F11F420E034E05A
:1029700030930B0120930A0140910A0150910B0101
:1029800020E061E00E94A617B7016E5F7F4FA801AB
:102990008C850E94E617811103C088E08C8712C0E5
:1029A000CE010E947B14873151F061E070E080E03D
:1029B00090E00E94A31FCE010E947B14ECCF81E027
:1029C00090E002C080E090E0DF91CF911F910F91E5
:1029D000FF90EF90DF900895CF92DF92EF92FF92F9
:1029E000CF93DF93EC018C85883081F10E941C1815
:1029F0000E94741F6B017C01CE010E947B1488230E
:102A000059F00E94741F6C197D098E099F09683E58
:102A100073408105910598F0CE010E947B148823B4
:102A200019F08C850E949817EC85F0E0EE0FFF1FDF
:102A3000EE52FC4F1182108288E08C8707C061E063
:102A400070E080E090E00E94A31FD6CFDF91CF918D
:102A5000FF90EF90DF90CF900895CF93DF93EC013C
:102A60008C858830D1F0CE010E947B148431A9F08E
:102A7000882399F0883189F08C3169F4E881F981F3
:102A80000480F581E02DCE01099521E0892B09F420
:102A900020E0822F03C081E001C080E0DF91CF9170
:102AA00008950F9300E020E040E060E088EE93E0BE
:102AB0000E94B9220F9108950F9300E020E040E0BA
:102AC00060E08EEE93E00E94B9220F910895DC0140
:102AD000ED91FC91008CF18DE02D099425EF31E012
:102AE000FC0131832083FB01418952896389748908
:102AF000FC0142835383648375830895FC018589B7
:102B000096890895FC01818D928D0895CF93DF936E
:102B10001F92CDB7DEB76983DC01ED91FC91028095
:102B2000F381E02D41E050E0BE016F5F7F4F0995DA
:102B30000F90DF91CF910895CF93DF93EC01898DB2
:102B40009A8D892B41F0E881F9810680F781E02D8B
:102B5000CE010995F4CFDF91CF910895CF93DF9304
:102B6000EC018C85883061F00E949817EC85F0E0CC
:102B7000EE0FFF1FEE52FC4F1182108288E08C870F
:102B8000DF91CF910895FC01108E178A6E5F7F4F01
:102B900084850C94F618FC0184850C941B19CF9342
:102BA000DF93EC019A018F89988DAB01BC018C8574
:102BB0000E94C8182F89388D280F391F388F2F8B06
:102BC000DF91CF9108950F931F93CF93DF931F92BF
:102BD000CDB7DEB78C01FC01818D928D892B59F028
:102BE00041E050E0BE016F5F7F4F84850E94751801
:102BF000181619061CF08FEF9FEF08C0F801818DA1
:102C0000928D0197928F818F898190E00F90DF9153
:102C1000CF911F910F910895CF93DF93EC01898D90
:102C20009A8D009719F48FEF9FEF10C0481759073E
:102C300008F0AC018C850E947518181619069CF7CF
:102C4000298D3A8D281B390B3A8F298FDF91CF912F
:102C50000895CF93DF931F92CDB7DEB7FC01218D8E
:102C6000328D232B49F0BE016F5F7F4F84850E9418
:102C7000B918898190E002C08FEF9FEF0F90DF912C
:102C8000CF9108950F931F93CF93DF93CDB7DEB706
:102C900028970FB6F894DEBF0FBECDBF8C01DC01C4
:102CA000ED91FC910284F385E02D0995F80164858E
:102CB00082E094E00E943F1A892B41F148E050E005
:102CC000BE016F5F7F4FD8011C968C910E947518D2
:102CD00018161906ECF4BE016F5F7F4FC8010F96FE
:102CE0000E94D5228D8190E0982F88272E81820F17
:102CF000911DF801968B858B8F8190E0982F882706
:102D00002885820F911D928F818F02C080E090E014
:102D100028960FB6F894DEBF0FBECDBFDF91CF91DE
:102D20001F910F910895FF920F931F93CF93DF93FD
:102D3000EC018B018C85883011F5F12C6F2D62959B
:102D4000660F607E685F83E090E00E94CF1981117A
:102D500002C0FC8606C08831E1F3F39488E0F812E3
:102D6000EDCF8C85883059F01E870D871A8E198E0D
:102D700020E0A80162E00E94A61781E001C080E087
:102D8000DF91CF911F910F91FF900895FC01138265
:102D9000128248EE53E060E070E04483558366831E
:102DA000778381EC91E09183808388E08487CF01F1
:102DB0000F960C94AF22CF92DF92EF92FF920F9377
:102DC0001F93CF93DF93CDB7DEB7AF970FB6F894CD
:102DD000DEBF0FBECDBF7C018B016A01CE01019623
:102DE0000E94AF22CE0109960E94C616CE018A9695
:102DF0000E94AF226AEC73E0CE0184960E945013C9
:102E0000BE016C5D7F4FCE0101960E943B0FAE016B
:102E1000465D5F4FB801CE0101960E94A01181303E
:102E20009105C1F4D701ED91FC910088F189E02D65
:102E300085EF91E09DA38CA30CA51DA52EA53FA514
:102E40000EA31FA328A739A7A601BE016C5D7F4F63
:102E5000C7010995AF960FB6F894DEBF0FBECDBF80
:102E6000DF91CF911F910F91FF90EF90DF90CF9066
:102E700008950F9300E020E040E060E084EF93E0ED
:102E80000E94B9220F9108950F9300E020E040E0E6
:102E900060E08AEF93E00E94B9220F910895AB01A0
:102EA000682F6295660F607E645F24E030E08CE0FE
:102EB00090E00C9491199B01682F6295660F607EDB
:102EC000685FC9010C94CF1962E070E00C945B1745
:102ED0009B01682F6295660F607E645FC9010C9448
:102EE0004819CF93DF93C82FD62F472F64E070E0A7
:102EF0000E9468174D2F65E070E08C2FDF91CF9115
:102F00000C946817462F62E070E00C946817CF931A
:102F1000DF93C82FD62F472F60E170E00E9468171B
:102F20004D2F61E170E08C2FDF91CF910C946817E9
:102F3000CF93C82F40E150E0682F82E094E00E94D8
:102F40004D1B6FEF8C2FCF910C948217EF92FF9255
:102F50001F93CF93DF9300D0CDB7DEB7182F7A0140
:102F60008FEF860F853048F5812F2A8369830E9471
:102F700098172A816981462F422B60E070E0812FEB
:102F80000E946817E114F10411F0B7010AC06091C2
:102F90000004709101046F5F7F4F70930104609390
:102FA0000004812F0E94711741E050E0612F82E000
:102FB00094E00E944D1B81E001C080E00F900F90D3
:102FC000DF91CF911F91FF90EF9008951F93CF93C2
:102FD000DF93182FFB01EA0180818F3F51F481813B
:102FE0008F3F91F482818F3F79F483818F3F61F429
:102FF0001EC0811109C08181811106C082818111A9
:1030000003C08381882399F0209789F0BF01812F25
:103010000E944F17BE01812F0E94871744E050E0A5
:10302000612F82E094E00E944D1B81E001C080E0AE
:10303000DF91CF911F91089548E050E0682F82E022
:1030400094E00C944D1BDF92EF92FF920F931F932D
:10305000CF93DF93D82E8B01EA01413088E05807E7
:1030600010F0C0E0D8E06D2D82E094E00E940A1AD2
:103070007C0163E070E08D2D0E945B17873111F0B9
:103080008C3121F4EC16FD0670F302C0C0E0D0E0F4
:103090009E01A8016D2D82E094E00E94991A40E201
:1030A00050E06D2D82E094E00E944D1B8D2D0E941A
:1030B000641784FD0DC063E070E08D2D0E945B17E6
:1030C0008111F4CF8D2D0E94981780E090E005C00B
:1030D00060E18D2D0E948217CE01DF91CF911F916B
:1030E0000F91FF90EF90DF900895DF92EF92FF92A3
:1030F0000F931F93CF93DF93D82E7B018A01682F04
:1031000082E094E00E943F1AEC01009799F463E09A
:1031100070E08D2D0E945B17843111F1882301F13D
:10312000C1E0D0E08C3111F4C0E0D0E0D195C19580
:10313000D10916C0081719070CF4E8011C161D0662
:103140007CF400E09E01A7016D2D82E094E00E94D6
:10315000FC1A40E450E06D2D82E094E00E944D1B8B
:10316000CE01DF91CF911F910F91FF90EF90DF90F3
:1031700008950F93AB0101E021E030E0682F82E079
:1031800094E00E94FC1A81E090E00F910895089568
:10319000BF92CF92DF92EF92FF920F931F93CF9344
:1031A000DF93B82E7B016A01E901682F82E094E089
:1031B0000E940A1A8C179D0730F46B2D82E094E070
:1031C0000E940A1AEC018E019601A7016B2D82E084
:1031D00094E00E945B1ACE01DF91CF911F910F9175
:1031E000FF90EF90DF90CF90BF9008951F93CF9303
:1031F000DF93182FFB01EA018081811109C08181D1
:10320000811106C08281811103C08381882369F006
:10321000209759F0BF01812F0E944F17BE01812FC7
:103220000E94871781E090E002C080E090E0DF918B
:10323000CF911F910895CF93C82F40E250E0682F9F
:1032400082E094E00E944D1B8C2F0E94641784FD45
:103250000CC08C2F0E94641783FFF6CF68E18C2F7F
:103260000E94821780E090E006C060E18C2F0E94EF
:10327000821781E090E0CF9108958EBD00000DB4DB
:1032800007FEFDCF8EB508952E9808952E9A0895C5
:103290001F93CF93DF9300D01F92CDB7DEB7182FC7
:1032A0004B836A8399830E9444199981892F0E94D4
:1032B0003D19812F0E943D196A81862F0E943D1978
:1032C0004B81842F0E943D190E94461981E00F9086
:1032D0000F900F90DF91CF911F910895CF93DF93BF
:1032E00068EE73E080E090E00E94A31F269A0E949F
:1032F0003309C0E0DC2FD295DD0FD07ED45F42E0F1
:103300006D2F8EE190E00E94481942E06D2F8FE111
:1033100090E00E944819CF5FC83061F7DF91CF91EC
:103320000895CF92DF92EF92FF920F931F93CF9366
:10333000DF9300D000D0CDB7DEB7F82E89014B83E4
:103340005C836A8399830E94441989810E943D1994
:103350008F2D0E943D196A81862F0E943D194B8155
:10336000C42E5C81D52E7601E00EF11ECE14DF0452
:1033700031F0F60181916F010E943D19F7CF0E9453
:103380004619C8010F900F900F900F90DF91CF91C9
:103390001F910F91FF90EF90DF90CF9008951F93B2
:1033A000CF93DF9300D0CDB7DEB7182F6A83998310
:1033B0000E94441989810E943D19812F0E943D1964
:1033C0006A81862F0E943D1980E00E943D19898301
:1033D0000E94461989810F900F90DF91CF911F9124
:1033E00008951F93CF93DF93182F60E270E00E943F
:1033F0005B17C82FD0E0DC2FCC2761E270E0812F73
:103400000E945B179E01280F311DC901DF91CF91EA
:103410001F910895FF920F931F93CF93DF93F62E82
:10342000C0E0D0E08F2D0E94F1198C01009721F0AF
:103430008F2D0E94F119EC01C017D10799F7CE0129
:10344000DF91CF911F910F91FF9008951F93CF931C
:10345000DF93182F66E270E00E945B17C82FD0E060
:10346000DC2FCC2767E270E0812F0E945B179E0162
:10347000280F311DC901DF91CF911F910895FF924F
:103480000F931F93CF93DF93F62EC0E0D0E08F2DE4
:103490000E94261A8C01009721F08F2D0E94261A77
:1034A000EC01C017D10799F7CE01DF91CF911F91A1
:1034B0000F91FF900895CF92DF92EF92FF920F93BA
:1034C0001F93CF93DF93D62EEA01790164E270E077
:1034D0008D2D0E945B17C82E65E270E08D2D0E9435
:1034E0005B17C80FD11D2C2D30E0322F2227C20FC1
:1034F000D31F6D2D6295660F607E6C5E9801A701EB
:10350000CE010E949119C00FD11F4D2F64E270E0CF
:103510008D2D0E9468174C2F65E270E08D2DDF9194
:10352000CF911F910F91FF90EF90DF90CF900C946F
:1035300068170F931F9389019A0140E050E00E94A1
:103540005B1A1F910F910895CF92DF92EF92FF9235
:103550000F931F93CF93DF9300D000D0CDB7DEB78A
:10356000F82E89014B835C836A8399830E944419F6
:1035700089810E943D198F2D0E943D196A81862FF5
:103580000E943D194B81C42E5C81D52E7601E00E40
:10359000F11ECE14DF0439F080E00E943D19F601DF
:1035A00081936F01F6CF0E944619C8010F900F90CA
:1035B0000F900F90DF91CF911F910F91FF90EF909F
:1035C000DF90CF9008950F931F93CF93DF9300D098
:1035D000CDB7DEB75A834983A901980189819A81C1
:1035E0006295660F607E685E0F900F90DF91CF91BD
:1035F0001F910F910C94A41A8F929F92AF92BF9239
:10360000CF92DF92EF92FF920F931F93CF93DF93AE
:103610006C01962E5A017901802E68E270E0892DA6
:103620000E945B17C82F69E270E0892D0E945B172A
:10363000D0E0DC2FCC27C80FD11D87019501AE014A
:10364000692DC6010E94E31A81101AC0CE0DDF1D3C
:103650004D2F68E270E0892D0E9468174C2F69E2B7
:1036600070E0892DDF91CF911F910F91FF90EF9026
:10367000DF90CF90BF90AF909F908F900C94681781
:10368000DF91CF911F910F91FF90EF90DF90CF903E
:10369000BF90AF909F908F900895CF93C62F61E019
:1036A00070E08C2F0E94681761E070E08C2F0E9400
:1036B0005B178111F9CFCF910895FF920F931F935C
:1036C000CF93DF93FC010081C181D281F89489817D
:1036D000F02EF0948F21898378941DE7115029F101
:1036E00082E090E00E94DD1F88818023B9F3F89486
:1036F0008A818F218A838981802B8983789480EEC7
:1037000091E00E94DD1FF89489818F21898386E4EE
:1037100090E00E94DD1F8881802311E009F010E015
:1037200078948AE991E00E94DD1F812FDF91CF918B
:103730001F910F91FF9008951F93CF93DF93FC018A
:103740001081C181D281912F909560FF12C0F894B1
:103750008A8189238A838981812B89838AE090E009
:103760000E94DD1F8A81812B8A83789487E390E011
:1037700011C0F8948A8189238A838981812B898366
:1037800081E490E00E94DD1F8A81812B8A837894F6
:1037900085E090E0DF91CF911F910C94DD1F0F9396
:1037A0001F93CF93DF93FC011081C181D281F894E4
:1037B0008981812B89838A81012F009580238A83C7
:1037C00083E090E00E94DD1F8981802389838AE065
:1037D00090E00E94DD1FC881789485E390E00E940C
:1037E000DD1F1C2381E009F480E0DF91CF911F9160
:1037F0000F910895CF92DF92EF92FF920F931F9354
:10380000CF93DF931F92CDB7DEB76C01E62E08E0B1
:1038100010E0FF24F39461E09F2D9E2109F460E005
:10382000C60149830E949C1BFF0C0150110949816C
:103830000115110581F7411115C0F894D6011196B3
:10384000ED91FC91129791818C91809589238183D0
:103850001196ED91FC91129792818C91809589231C
:10386000828378940F90DF91CF911F910F91FF90F9
:10387000EF90DF90CF900895EF92FF920F931F93F8
:10388000CF93DF938C01C8E0D0E0F12CEE24E394D9
:10389000C8010E94CF1B8111FE28EE0C2197C1F7B1
:1038A0008F2DDF91CF911F910F91FF90EF90089591
:1038B000CF92DF92FF920F931F93CF93DF931F92CC
:1038C000CDB7DEB78C01F62E40E065E579830E9426
:1038D000FA1BCF2C7981D72E88E0F82EF601619162
:1038E0006F0140E0C8010E94FA1BFA94B9F70F90EB
:1038F000DF91CF911F910F91FF90DF90CF900895AE
:10390000FC0113861586148627E030E0DF01A20F44
:10391000B31F13961C922115310519F0215031095E
:10392000F5CF08951F93CF93DF93EC01162F60E03E
:10393000812F0E947B20612F70E0FB01E05FFD4F33
:10394000E491E883FB01E15DFD4FE491F0E0EE0FCF
:10395000FF1FE25BFD4F859194919A838983CE018D
:10396000DF91CF911F910C94801CAF92BF92CF92A8
:10397000DF92EF92FF920F931F93CF93DF931F92EB
:10398000CDB7DEB75C01D62EE72EFC01858581110F
:1039900064C0C50149830E945D1B4981811105C036
:1039A000F50113861586148671C0442319F040E092
:1039B00060EF02C040E06CEEC5010E94FA1B01E01E
:1039C000F12CC12C11E0C5010E94CF1B682FC5014D
:1039D00069830E94CF1B6981613019F48130B9F489
:1039E00033C02F2D30E068131BC0F50183851817F5
:1039F00030F4E20FF31F8381802349F402C01817CB
:103A000031F060E0193058F4F501148708C0F50171
:103A1000EF0DF11D8381802B838361E009C0C12EEE
:103A2000F501E20FF31F8381902F90958923838303
:103A3000C5010E949C1B1F5F000F11F4F39401E06D
:103A4000F7E0FF1508F0BFCF113438F0F501C38659
:103A5000C11009C081E0858706C0F501138615866F
:103A6000148680E013C0F50183818823B1F3ED2D26
:103A7000FE2D80E090E0D501A80FB91F13962C9180
:103A80002193019688309105B1F781E00F90DF9185
:103A9000CF911F910F91FF90EF90DF90CF90BF904B
:103AA000AF900895DC0180E0615038F0ED91E82797
:103AB000F0E0EF50FF4F8491F7CF0895FC01718340
:103AC0006083538342830895CF92DF92EF92FF92F7
:103AD0000F931F93CF93DF93C62ED42E790100E06E
:103AE00010E0C0E0D0E00E151F0594F461E08D2DCC
:103AF0000E94B420CC0FDD1F8C2D0E94EA20C80F3D
:103B0000D91F60E08D2D0E94B4200F5F1F4FEBCFB7
:103B1000CE01DF91CF911F910F91FF90EF90DF9039
:103B2000CF9008951F93CF93DF93162FC42FD22FDA
:103B300061E0842F0E947B2061E08D2F0E947B201A
:103B400061E08C2F0E94B42061E08D2F0E94B42090
:103B500060E08C2F0E94B42060E08D2F0E94B42082
:103B600061E08D2F0E94B42061E08C2F0E94B42070
:103B700060E08D2F0E94B420212F41E06D2F8C2F0B
:103B80000E94132161E08D2F0E94B42062E08C2FEF
:103B90000E947B208C2F0E94EA2060E08D2F0E94E3
:103BA000B4208C2FDF91CF911F910C94EA201F93AA
:103BB000CF93DF93162F62E0812F0E947B20C8EE07
:103BC000D3E061E070E080E090E00E94A31F812FCD
:103BD0000E94EA20892B11F0219799F7DF91CF916C
:103BE0001F910895CF92DF92EF92FF920F931F9350
:103BF000CF93DF938C01F62ED72EE42EC52E62E0F4
:103C00008F2D0E947B2061E08E2D0E947B2028E07A
:103C100030E04E2D5C2D6F2D7D2DC8010E94641D5E
:103C2000D82F80E0C82F61E08F2D0E947B2061E0BB
:103C30008F2D0E94B42060E08F2D0E94B42061E09F
:103C40008E2D0E94B42060E08E2D0E94B42062E090
:103C50008F2D0E947B2028E030E04E2D5C2D6F2DB3
:103C60007D2DC8010E94641D8C2B9D2BDF91CF916F
:103C70001F910F91FF90EF90DF90CF900895CF9319
:103C8000DF93D62FC42F61E08D2F0E947B2061E04F
:103C90008C2F0E947B2061E08D2F0E94B42061E078
:103CA0008C2F0E94B42060E08C2FDF91CF910C9478
:103CB000B4200F931F93CF93DF93EC012A813B81B4
:103CC0004881598163E070E00E94921D688179818A
:103CD000CE010E94D71D4A815B8168817981CE0126
:103CE0000E94F21D8C014A815B8168817981CE013D
:103CF0000E943F1EB801882777FD8095982F0E946B
:103D0000882BDF91CF911F910F9108950E94591E2A
:103D10000E94552B882777FD8095982F0E94882B2D
:103D20002AE037ED43E25CE30E943C2C20E030E0E7
:103D300040E252E40E94842A08954F925F926F926B
:103D40007F928F929F92AF92BF92CF92DF92EF922B
:103D5000FF92CF93DF93EC012A813B814881598107
:103D600065E070E00E94921D68817981CE010E9419
:103D7000D71D4A815B8168817981CE010E94F21D45
:103D80007C014A815B8168817981CE010E943F1E5E
:103D9000B701882777FD8095982F0E94882B6B01AB
:103DA0007C0124E533EE45E25DE30E943C2C20E0FB
:103DB00030E040E850E40E94842A4B015C0122EA92
:103DC00037EE4BE356EBC701B6010E943C2CA7012E
:103DD00096010E943C2C9B01AC01C501B4010E94DC
:103DE000852A4B015C01CE010E94861E2B013C01FD
:103DF0002CEA35EC47EA58E3C701B6010E943C2C97
:103E00002AE037ED43E25CE30E94852A9B01AC0186
:103E1000C301B2010E943C2CA50194010E94852A95
:103E2000DF91CF91FF90EF90DF90CF90BF90AF9058
:103E30009F908F907F906F905F904F9008950F9319
:103E400000E020E040E060E083E094E00E94B922DE
:103E50000F9108951F920F920FB60F9211242F9376
:103E60003F938F939F93AF93BF9380910A04909158
:103E70000B04A0910C04B0910D043091090423E0CF
:103E8000230F2D3720F40196A11DB11D05C026E892
:103E9000230F0296A11DB11D2093090480930A04EB
:103EA00090930B04A0930C04B0930D0480910E0426
:103EB00090910F04A0911004B09111040196A11DDE
:103EC000B11D80930E0490930F04A0931004B0933F
:103ED0001104BF91AF919F918F913F912F910F90BE
:103EE0000FBE0F901F9018952FB7F89460910A0499
:103EF00070910B0480910C0490910D042FBF0895D4
:103F00003FB7F89480910E0490910F04A091100493
:103F1000B091110426B5A89B05C02F3F19F001965A
:103F2000A11DB11D3FBF6627782F892F9A2F620FE1
:103F3000711D811D911D42E0660F771F881F991F1B
:103F40004A95D1F708958F929F92AF92BF92CF92E8
:103F5000DF92EF92FF926B017C010E94801F4B0168
:103F60005C01C114D104E104F104F1F00E94E829DC
:103F70000E94801F681979098A099B09683E73406D
:103F80008105910570F321E0C21AD108E108F1081A
:103F900088EE880E83E0981EA11CB11CC114D104C8
:103FA000E104F10429F7DDCFFF90EF90DF90CF908F
:103FB000BF90AF909F908F9008958230910538F018
:103FC000880F991F880F991F05970197F1F708959A
:103FD000789484B5826084BD84B5816084BD85B5E4
:103FE000826085BD85B5816085BDEEE6F0E08081AB
:103FF00081608083E1E8F0E01082808182608083CC
:10400000808181608083E0E8F0E08081816080834E
:10401000E1E9F0E08081826080838081816080833B
:10402000E0E9F0E0808181608083E1ECF0E0808174
:1040300084608083808182608083808181608083CE
:10404000E3ECF0E0808181608083E0ECF0E080814F
:1040500082608083E2ECF0E0808181608083EAE727
:10406000F0E08081846080838081826080838081B1
:1040700081608083808180688083089590E0FC0166
:104080003197EF30F105B0F5EA5AFF4F0C94E42C6C
:10409000809180008F7703C0809180008F7D809316
:1040A0008000089580918000877FF9CF84B58F7755
:1040B00002C084B58F7D84BD0895809190008F7774
:1040C00007C0809190008F7D03C080919000877F12
:1040D0008093900008958091C0008F7703C08091F5
:1040E000C0008F7D8093C00008958091C200877FBB
:1040F0008093C2000895CF93DF9390E0FC01E05FCE
:10410000FD4F2491FC01E15DFD4F8491882349F12D
:1041100090E0880F991FFC01E659FD4FA591B491DD
:10412000845A9D4FFC01C591D4919FB7611108C07D
:10413000F8948C91209582238C93888182230AC0E5
:10414000623051F4F8948C91322F309583238C9304
:104150008881822B888304C0F8948C91822B8C9365
:104160009FBFDF91CF9108950F931F93CF93DF935C
:104170001F92CDB7DEB7282F30E0F901EF50FE4F88
:104180008491F901E05FFD4F1491F901E15DFD4F6C
:1041900004910023C9F0882321F069830E943E2006
:1041A0006981E02FF0E0EE0FFF1FE45AFD4FA5916B
:1041B000B4919FB7F8948C91611103C0109581233D
:1041C00001C0812B8C939FBF0F90DF91CF911F91E6
:1041D0000F910895CF93DF93282F30E0F901EF502E
:1041E000FE4F8491F901E05FFD4FD491F901E15D4B
:1041F000FD4FC491CC2391F081110E943E20EC2F01
:10420000F0E0EE0FFF1FE25BFD4FA591B4912C9102
:104210002D2381E090E021F480E002C080E090E076
:10422000DF91CF910895BF92CF92DF92EF92FF92EC
:104230000F931F93CF93DF93C82ED62EB42EC7E0D3
:10424000D0E0022F10E087E0E82EF12CB1100AC078
:10425000F701EC1BFD0BB80102C075956795EA9557
:10426000E2F707C0B8010C2E02C0759567950A9455
:10427000E2F7617077278C2D0E94B42061E08D2DCC
:104280000E94B42060E08D2D0E94B4202197F0F6AA
:10429000DF91CF911F910F91FF90EF90DF90CF9022
:1042A000BF900895CF93DF931F92CDB7DEB7698398
:1042B000DC01ED91FC910280F381E02D41E050E0C2
:1042C000BE016F5F7F4F09950F90DF91CF910895E9
:1042D000CF93DF93EC018C859D8597FF05C082E02D
:1042E0000E946A269D878C878C859D85DF91CF9162
:1042F000089583E00C94FE28FC018485958597FD44
:1043000006C082E00E94122690E00196089582E0A5
:104310000E94122690E00895FC018485958597FD02
:1043200005C02FEF3FEF35872487089582E00C9476
:104330006A26CF93DF93EC0180911701882331F037
:1043400083E00E949B261816190634F081E090E065
:104350009B838A8380E090E0DF91CF910895FC01F8
:1043600020812E5F208342E450E068E772E080E81D
:104370000C943627FC0121818081813A59F4213245
:1043800009F04BC047E050E060E171E080E00E943E
:1043900036275EC0813209F040C0233289F4838120
:1043A00090E0982F88273281832BA0E0B0E08093A3
:1043B0000C0190930D01A0930E01B0930F010FC05B
:1043C000203239F467E070E080E191E00E946727D5
:1043D00009C0223221F482818093170103C02D7F0E
:1043E0002032B1F580916204811103C0E0E0F8E071
:1043F00002C0EEEFFAE08091100190911101A091BE
:104400001201B0911301803B9440A105B10511F553
:104410008091170180FF03C01DC080E00895EE3F2A
:104420002AE0F20731F0808191819093FF0A809316
:10443000FE0A87E797E7918380832BE088E190E08D
:104440000FB6F894A895809360000FBE209360008B
:1044500081E0089588E10FB6F8948093600010928F
:1044600060000FBEA895EE3F8AE0F80739F0809112
:10447000FE0A9091FF0A91838083EACF1092FF0A8F
:104480001092FE0AE5CF2FEF3FEFFC01358724871E
:104490000895CF93C09117016AE070E080E090E04A
:1044A0000E94A31F81E0C11101C080E0CF91089557
:1044B000109215041092140488EE93E0A0E0B0E08E
:1044C0008093160490931704A0931804B0931904D2
:1044D00085EE91E090931304809312048FEF9FEF89
:1044E00090931F0480931E040895AF92BF92CF92C1
:1044F000DF92EF92FF920F931F93CF93DF936C01A4
:104500007B01C0E0D0E000E010E0F601EC0FFD1F01
:104510004AE050E06281C7010E942D245C016EE2F6
:10452000C7010E9440238A0D9B1D080F191F219669
:10453000C330D10551F74AE050E0F6016581C7016B
:104540000E942D24800F911FDF91CF911F910F9119
:10455000FF90EF90DF90CF90BF90AF90089525EF40
:1045600031E0FC0131832083128213821482158290
:1045700008950F93FC0185EF91E09183808362831E
:104580004383248305830F91089525EF31E0FC01D7
:1045900031832083FB014081518162817381FC0161
:1045A00042835383648375830895FB014081518165
:1045B00062817381FC014283538364837583089510
:1045C00085EF91E0909364048093630410926504F6
:1045D000109266041092670410926804089508957A
:1045E0000E94E81F0E94EF2289E694E00E948B2936
:1045F0000E94AF04C0E0D0E00E94F1052097E1F3F3
:104600000E940000F9CF0C940B2D6115710581F00B
:10461000DB010D900020E9F7AD0141505109461B27
:10462000570BDC01ED91FC910280F381E02D0994A0
:1046300080E090E00895EF92FF920F931F93CF9345
:10464000DF938C017B01C0E0D0E0F701EC0FFD1F90
:104650006491662359F0F801A081B181ED91FC913C
:10466000C8010995892B11F02196EFCFCE01DF917A
:10467000CF911F910F91FF90EF9008950C94052317
:10468000DC01ED91FC910190F081E02D099467EF40
:1046900071E00C9405230F931F93CF93DF93EC01EC
:1046A0000E941B238C01CE010E944723800F911F83
:1046B000DF91CF911F910F9108950F931F93CF9387
:1046C000DF93EC010E9405238C01CE010E94472359
:1046D000800F911FDF91CF911F910F9108958F92BD
:1046E0009F92AF92BF92DF92EF92FF920F931F9330
:1046F000CF93DF93CDB7DEB7A1970FB6F894DEBFA7
:104700000FBECDBF7C01F42FD52ECB0119A22230D4
:1047100008F42AE08E010F5D1F4F822E912CA12CF0
:10472000B12C6F2F7D2DA50194010E94A32CF22F97
:10473000D32ECA01015011096A3014F4E0E301C01C
:10474000E7E3E60FD801EC93232B242B252B49F725
:10475000B801C7010E940523A1960FB6F894DEBFE9
:104760000FBECDBFDF91CF911F910F91FF90EF90C2
:10477000DF90BF90AF909F908F900895CF92DF927F
:10478000EF92FF920F931F93CF93DF93EC016A0197
:104790007B012115310579F4E881F9810190F081DF
:1047A000E02D642FDF91CF911F910F91FF90EF903B
:1047B000DF90CF9009942A303105E9F477FF1AC0D1
:1047C0006DE20E9440238C0144275527BA014C1901
:1047D0005D096E097F092AE0CE010E946F23800FD8
:1047E000911FDF91CF911F910F91FF90EF90DF907C
:1047F000CF9008952AE0B701A601CE01DF91CF91B5
:104800001F910F91FF90EF90DF90CF900C946F234A
:104810000F931F93CF93DF93EC019A01AB016627AF
:1048200057FD6095762F0E94BE238C01CE010E9419
:104830004723800F911FDF91CF911F910F91089512
:104840002115310541F4DC01ED91FC910190F081DD
:10485000E02D642F09940C946F239A01462F50E0A9
:1048600060E070E00C9420240F931F93CF93DF93AC
:10487000EC019A01AB0160E070E00E9420248C0101
:10488000CE010E944723800F911FDF91CF911F918E
:104890000F9108950F931F93CF93DF93EC010E9424
:1048A00020248C01CE010E944723800F911FDF91AD
:1048B000CF911F910F9108954F925F926F927F92C7
:1048C0008F929F92AF92BF92CF92DF92EF92FF9220
:1048D0000F931F93CF93DF93EC016A017B01B22EFC
:1048E0009A01AB01C701B6010E949F2C882319F0E1
:1048F0006AEF71E027C026013701E89477F82FEFBF
:104900003FEF4FE75FE7C301B2010E949F2C811187
:104910000DC02FEF3FEF4FE75FE7C301B2010E94E9
:10492000E92A18161CF46EEF71E00CC02FEF3FEF70
:104930004FE75FE4C701B6010E94382C1816ACF4AB
:1049400062E072E0CE01DF91CF911F910F91FF9055
:10495000EF90DF90CF90BF90AF909F908F907F901F
:104960006F905F904F900C9405232FEF3FEF4FE730
:104970005FECC701B6010E94E92A87FDE1CF20E084
:1049800030E0A901C701B6010E94E92A87FF0AC0E9
:104990006DE2CE010E9440238C01F7FAF094F7F803
:1049A000F09402C000E010E0A12C60E070E080E034
:1049B0009FE3AB1441F020E030E040E251E40E947C
:1049C000ED2AA394F6CF9B01AC01C701B6010E946A
:1049D000852A6B017C010E945A2B2B013C010E940D
:1049E000862B9B01AC01C701B6010E94842A6B0192
:1049F0007C012AE0B301A201CE010E946F23080FBF
:104A0000191FBB2039F067E571E0CE010E94052334
:104A1000080F191F7B2C772041F120E030E040E2A5
:104A200051E4C701B6010E943C2C6B017C010E943D
:104A3000552B4B01AA2497FCA094BA2C2AE030E015
:104A4000B501A401CE010E94BE23080F191FC501A4
:104A5000B4010E94882B9B01AC01C701B6010E94E2
:104A6000842A6B017C017A94D6CFC801DF91CF9163
:104A70001F910F91FF90EF90DF90CF90BF90AF907C
:104A80009F908F907F906F905F904F9008950F93BD
:104A90001F93CF93DF93EC010E945C248C01CE0125
:104AA0000E944723800F911FDF91CF911F910F919B
:104AB0000895615030F02091F100FC0120830196AF
:104AC000F8CF289884E680937204089540916D048D
:104AD00050916E0420916B0430916C04421753077F
:104AE000B4F49091E8009570E1F39091E80092FDA4
:104AF00019C08093F10080916D0490916E0401962D
:104B00008F739927892B19F48EEF8093E800809199
:104B10006D0490916E04019690936E0480936D04E1
:104B200081E0089580E00895CF92DF92EF92FF92A6
:104B30000F931F93CF93DF931F92CDB7DEB7082F4C
:104B4000162FF42E862F880F8E5F99830E9466257C
:104B500083E00E946625E02EC02E9981D92E8C2DEF
:104B60008E19811798F4F601F7FE02C0849101C0F6
:104B700080810E946625082F80E00E9466258023A0
:104B8000FFEFCF1ADF0A8111EACF01C081E00F9059
:104B9000DF91CF911F910F91FF90EF90DF90CF9019
:104BA00008958091D70081608093D70080EA809338
:104BB000D80089B5806189BD89B5826089BD09B495
:104BC00000FEFDCF61E070E080E090E00E94A31F56
:104BD0008091D8008F7C80618093D8008091E00024
:104BE000807F8093E0000895CF93DF931F92CDB72D
:104BF000DEB71982CE0101960E94AF210E94702A71
:104C0000BE016F5F7F4F0E94E92989810F90DF917C
:104C1000CF9108952FB7FC012083F89467706093BB
:104C2000E9000895CF93DF931F92CDB7DEB7682FC9
:104C3000CE0101960E940A268091F20099819FBFC1
:104C40000F90DF91CF910895FF920F931F93CF9311
:104C5000DF9300D0CDB7DEB7F62E8A0190917104B4
:104C6000992311F057FF03C08FEF9FEF2BC0682FE0
:104C7000CE0101967A830E940A268091F20090E08C
:104C8000A8017A81801791070CF4AC01EF2DF72F62
:104C9000F40E84E6FE1639F0289880937204909101
:104CA000F1009193F7CF4115510521F08091F20069
:104CB000882321F089818FBFCA0104C08BE68093CD
:104CC000E800F8CF0F900F90DF91CF911F910F91D7
:104CD000FF900895CF93DF931F92CDB7DEB741E0E9
:104CE00050E0BE016F5F7F4F0E942426019719F4A8
:104CF000898190E002C08FEF9FEF0F90DF91CF91FD
:104D00000895CF93DF931F92CDB7DEB7682FCE0102
:104D100001960E940A269091E800892F807295FFE3
:104D200004C09091F20080E4891B99819FBF0F908D
:104D3000DF91CF9108956F927F928F929F92AF9261
:104D4000BF92CF92DF92EF92FF920F931F93CF9378
:104D5000DF931F92CDB7DEB7782E7B01C42EB52E20
:104D600080917104882369F0042F152F8AEFD82EC3
:104D7000872D8072982E9AE3A92E872D8074882E15
:104D800011C08FEF9FEF57C0872D0E948126682E9C
:104D900081110CC0DA94A9F361E070E080E090E04A
:104DA0000E94A31F0115110579F73BC0282F30E0A1
:104DB000021713070CF4602E672DCE0101960E9496
:104DC0000A268091E80085FF29C0262D30E0021BCD
:104DD000130B992039F06A948FEF6816B1F0109296
:104DE000F100F9CFF701862D77FE07C0815058F00A
:104DF00094919093F1003196F9CF815020F09191E8
:104E00009093F100FACFE20EF31E8091E80085FF47
:104E10000FC00115110511F481100AC089818FBFDF
:104E2000C1CF5D9884E6809373048C2D9B2D03C0C5
:104E3000A092E800F3CF0F90DF91CF911F910F91D7
:104E4000FF90EF90DF90CF90BF90AF909F908F90AA
:104E50007F906F9008951092E90010926E04109266
:104E60006D0490936C0480936B040895CF92DF924D
:104E7000FF920F931F93CF93DF9300D0CDB7DEB790
:104E8000F82E8A016B0101151105B1F0F601F7FE4C
:104E900002C0849101C0808149835A830E946625A3
:104EA00001501109FFEFCF1ADF0A49815A818111A0
:104EB000EACF8FEF9FEF01C0CA010F900F90DF91F3
:104EC000CF911F910F91FF90DF90CF900895BF92E7
:104ED000CF92DF92EF92FF920F931F93CF93DF93C6
:104EE0006C018B01EB013BEFB32E2097C1F07E01EB
:104EF000C134D1051CF020E4E22EF12C8091E800B1
:104F000082FFFCCFC8018C1B9D0B6E2D8C0D9D1D4F
:104F10000E945925B092E800CE19DF09E6CFC801FA
:104F2000DF91CF911F910F91FF90EF90DF90CF9085
:104F3000BF9008951F920F920FB60F921124DF9227
:104F4000EF92FF920F931F932F933F934F935F9393
:104F50006F937F938F939F93AF93BF93EF93FF9341
:104F6000CF93DF93CDB7DEB76C97DEBFCDBF109286
:104F7000E9008091E80083FF23C168E0CE014596F7
:104F80000E94592582EF8093E8003D8937FF05C0D4
:104F90008091E80080FFFCCF03C08EEF8093E80093
:104FA000832F807609F0F0C02E894F89D88C21118B
:104FB0000CC0303829F4809170048093F10002C055
:104FC0001092F1001092F100F4C0842F90E09D291E
:104FD000213049F43111EDC0019709F0EAC0809108
:104FE00070048D7F0AC0233059F43111E2C001975B
:104FF00009F0DFC080917004826080937004D9C092
:10500000253041F48091E80080FFFCCF4068409358
:10501000E300CFC0263009F08DC0EB8CFC8C22E081
:10502000D2122CC080E090E00E942B270E94F42531
:1050300099E08E010F5F1F4FF801292F11922A95D9
:10504000E9F79983DA8291E09E8390EA98879AEF54
:10505000998720916D0430916E04275F3F4F3C8308
:105060002B838D83C7010E942B2749E050E0B801B4
:1050700080E00E9436270E94F4259BC0C7010E9451
:105080002B270E94702ABE016B5E7F4F0E94122A5E
:10509000009719F00CF08DC090C081E0D8120EC0BE
:1050A0008B8D9C8D089719F481E080936A04809120
:1050B0006A0481112FC06CEC72E031C0E3E0DE12B3
:1050C0007CC08F89882349F1823029F440E860E16F
:1050D0008AEE92E01CC0813029F440E86BE08EED4E
:1050E00092E015C0833009F068C00E94702A8E01DA
:1050F0000F5F1F4FB8010E94312AF8010190002074
:10510000E9F73197E01BF10B40E06E2FC8010E94D8
:1051100094254DC06AEB72E002C06BEF72E061153E
:10512000710509F44AC0FB01449150E080E80E94F7
:1051300036273FC0273009F440C0283021F481E0F1
:105140008093F10036C02930A1F53370B1F5E9E163
:10515000F1E081E021E036E39081992361F08093D2
:10516000E9002093EB0091919093EC003093ED00D7
:105170008F5F873089F78EE78093EA001092EA000C
:105180008F898093710415C08B8D9C8D0E942B2775
:10519000898D811105C0CE0145960E94BA2107C0B4
:1051A0000E94702ABE016B5E7F4F0E94502A8823A6
:1051B00021F08EEF8093E80003C081E28093EB0042
:1051C0006C960FB6F894DEBF0FBECDBFDF91CF91C6
:1051D000FF91EF91BF91AF919F918F917F916F91CF
:1051E0005F914F913F912F911F910F91FF90EF9001
:1051F000DF900F900FBE0F901F9018958093E900DD
:105200008091F200882319F08AE38093E8000895E2
:105210001F920F920FB60F9211242F933F934F932B
:105220005F936F937F938F939F93AF93BF93CF932E
:10523000EF93FF93C091E1008091E100837F809321
:10524000E1008093E100C3FF0FC01092E90081E00C
:105250008093EB001092EC0082E38093ED001092BB
:10526000710488E08093F000C2FF19C083E00E94BF
:10527000FE2880917304882339F080917304815053
:1052800080937304882389F180917204882339F014
:1052900080917204815080937204882341F1C4FF8D
:1052A00010C08091E2008E7E81608093E200809148
:1052B000E1008F7E8093E10080916F048E7E80619B
:1052C00011C0C0FF16C08091E2008E7E8061809385
:1052D000E2008091E1008E7E8093E10080916F0476
:1052E0008E7E816080936F0404C05D9ACDCF289A32
:1052F000D6CFFF91EF91CF91BF91AF919F918F91B9
:105300007F916F915F914F913F912F910F900FBEC1
:105310000F901F90189510927104109270041092C3
:105320006F040E94D1258091E1008E7E8093E10080
:105330008DE08093E200559A209AEEEFFFE7859189
:1053400094918B3F9C4D19F481E080936204089501
:10535000CF93DF9300D000D0CDB7DEB79B01AC0177
:10536000611571058105910569F069833A834B8365
:105370005C830E94812E29813A814B815C810E944D
:10538000C52C03C060E070E0CB010F900F900F9030
:105390000F90DF91CF910895CF92DF92EF92FF921D
:1053A0006B017C01621773078407950764F4CA01D7
:1053B000B9016C197D098E099F090E94A8296C0DFD
:1053C0007D1D8E1D9F1DFF90EF90DF90CF90089563
:1053D0000895EF92FF920F931F93CF93DF937B017A
:1053E000FC01C281D38100E010E0209781F0E881C8
:1053F000F9810280F381E02DB701CE01099597FD77
:1054000008C0080F191F0884D985C02DEECFC80128
:1054100002C08FEF9FEFDF91CF911F910F91FF900F
:10542000EF9008950F931F93CF93DF938B01FC01AF
:10543000C281D381209771F0E881F9810480F581E0
:10544000E02DB801CE010995009731F40884D98583
:10545000C02DF0CF80E090E0DF91CF911F910F91B0
:1054600008950F931F93CF93DF938B01FC01C281AB
:10547000D381209771F0E881F9810680F781E02DD2
:10548000B801CE010995080F111D0884D985C02DDA
:10549000F0CFF8011082DF91CF911F910F91089505
:1054A0000F931F93CF93DF938B01FC01C281D381B4
:1054B000209771F0E881F9810190F081E02DB80129
:1054C000CE010995811106C00884D985C02DF0CF81
:1054D00080E001C081E0DF91CF911F910F9108958D
:1054E0008091780481110DC082E08093740484E07F
:1054F00080937504109277041092760481E0809373
:10550000780484E794E008955058BB27AA270ED06A
:1055100075C166D130F06BD120F031F49F3F11F4AA
:105520001EF45BC10EF4E095E7FB51C1E92F77D182
:1055300080F3BA17620773078407950718F071F4B0
:105540009EF58FC10EF4E0950B2EBA2FA02D0B0106
:10555000B90190010C01CA01A0011124FF27591BB8
:1055600099F0593F50F4503E68F11A16F040A22FBE
:10557000232F342F4427585FF3CF4695379527952F
:10558000A795F0405395C9F77EF41F16BA0B620B2E
:10559000730B840BBAF09150A1F0FF0FBB1F661F75
:1055A000771F881FC2F70EC0BA0F621F731F841FB8
:1055B00048F4879577956795B795F7959E3F08F0DE
:1055C000B3CF9395880F08F09927EE0F979587959D
:1055D0000895D9D008F481E008950CD00FC107D107
:1055E00040F0FED030F021F45F3F19F0F0C05111CF
:1055F00039C1F3C014D198F39923C9F35523B1F3FA
:10560000951B550BBB27AA2762177307840738F031
:105610009F5F5F4F220F331F441FAA1FA9F333D090
:105620000E2E3AF0E0E830D091505040E695001C44
:10563000CAF729D0FE2F27D0660F771F881FBB1F00
:10564000261737074807AB07B0E809F0BB0B802DDA
:10565000BF01FF2793585F4F2AF09E3F510568F026
:10566000B6C000C15F3FECF3983EDCF386957795BA
:105670006795B795F7959F5FC9F7880F911D969528
:10568000879597F90895E1E0660F771F881FBB1F84
:10569000621773078407BA0720F0621B730B840B31
:1056A000BA0BEE1F88F7E095089504D06894B11105
:1056B000D9C00895BCD088F09F5790F0B92F992792
:1056C000B751A0F0D1F0660F771F881F991F1AF00D
:1056D000BA95C9F712C0B13081F0C3D0B1E00895D6
:1056E000C0C0672F782F8827B85F39F0B93FCCF357
:1056F000869577956795B395D9F73EF49095809503
:10570000709561957F4F8F4F9F4F0895E89409C022
:1057100097FB3EF490958095709561957F4F8F4FE4
:105720009F4F9923A9F0F92F96E9BB279395F695FA
:10573000879577956795B795F111F8CFFAF4BB0F78
:1057400011F460FF1BC06F5F7F4F8F4F9F4F16C0DC
:10575000882311F096E911C0772321F09EE8872F66
:10576000762F05C0662371F096E8862F70E060E022
:105770002AF09A95660F771F881FDAF7880F96959B
:10578000879597F90895990F0008550FAA0BE0E83F
:10579000FEEF16161706E807F907C0F012161306F3
:1057A000E407F50798F0621B730B840B950B39F433
:1057B0000A2661F0232B242B252B21F408950A2699
:1057C00009F4A140A6958FEF811D811D089597F9D9
:1057D0009F6780E870E060E008959FEF80EC089597
:1057E00000240A94161617061806090608950024C0
:1057F0000A9412161306140605060895092E03943A
:10580000000C11F4882352F0BB0F40F4BF2B11F4AD
:1058100060FF04C06F5F7F4F8F4F9F4F089557FD0C
:105820009058440F551F59F05F3F71F04795880F0E
:1058300097FB991F61F09F3F79F0879508951216A5
:1058400013061406551FF2CF4695F1DF08C0161651
:1058500017061806991FF1CF869571056105089402
:105860000895E894BB2766277727CB0197F9089519
:105870008ADF08F48FEF08950BD0C0CFB1DF28F096
:10588000B6DF18F0952309F0A2CFA7CF1124EACFF5
:10589000C6DFA0F3959FD1F3950F50E0551F629F8F
:1058A000F001729FBB27F00DB11D639FAA27F00D79
:1058B000B11DAA1F649F6627B00DA11D661F829FA0
:1058C0002227B00DA11D621F739FB00DA11D621F85
:1058D000839FA00D611D221F749F3327A00D611DA2
:1058E000231F849F600D211D822F762F6A2F112484
:1058F0009F5750408AF0E1F088234AF0EE0FFF1FD7
:10590000BB1F661F771F881F91505040A9F79E3F0D
:10591000510570F05CCFA6CF5F3FECF3983EDCF30F
:10592000869577956795B795F795E7959F5FC1F74A
:10593000FE2B880F911D9695879597F9089523DF83
:10594000880B990B0895A1E21A2EAA1BBB1BFD011F
:105950000DC0AA1FBB1FEE1FFF1FA217B307E4074E
:10596000F50720F0A21BB30BE40BF50B661F771FA6
:10597000881F991F1A9469F7609570958095909586
:105980009B01AC01BD01CF010895052E97FB1EF4CC
:1059900000940E94DC2C57FD07D00E94A32C07FC2A
:1059A00003D04EF40C94DC2C509540953095219505
:1059B0003F4F4F4F5F4F089590958095709561953B
:1059C0007F4F8F4F9F4F0895EE0FFF1F0590F4916B
:1059D000E02D099469279627692778278727782754
:1059E00008950E94FC2CA59F900DB49F900DA49F3C
:1059F000800D911D11240895A29FB001B39FC00195
:105A0000A39F700D811D1124911DB29F700D811DEA
:105A10001124911D0895CF93DF938230910510F4E6
:105A200082E090E0E0918204F091830420E030E095
:105A3000A0E0B0E0309739F1408151814817590713
:105A4000B8F04817590771F482819381109729F0B3
:105A500013969C938E9312972CC0909383048093FB
:105A6000820427C02115310531F04217530718F081
:105A7000A901DB0101C0EF019A01BD01DF01028034
:105A8000F381E02DD7CF21153105F9F0281B390B13
:105A90002430310580F48A819B816115710521F0E4
:105AA000FB019383828304C09093830480938204D8
:105AB000FE01329644C0FE01E20FF31F81939193E1
:105AC00022503109398328833AC0209180043091D3
:105AD0008104232B41F42091020130910301309382
