:100000000C9470010C9498010C9498010C94980134
:100010000C9498010C9498010C9498010C949801FC
:100020000C9498010C9498010C94371A0C940319B1
:100030000C9498010C9498010C9498010C949801DC
:100040000C9498010C9498010C9498010C949801CC
:100050000C9498010C9498010C9498010C940B1337
:100060000C9498010C9498010C9498010C949801AC
:100070000C9498010C9498010C9498010C9498019C
:100080000C9498010C9498010C9498010C9498018C
:100090000C9498010C9498010C9498010C9498017C
:1000A0000C9498010C9498010C9498011A141D1446
:1000B0000C14101416143E143E143E14211425146E
:1000C00029142F1433143E143914000000020009BF
:1000D0000F0000030401000C0000000000000000FD
:1000E00000000000000000000408020110408040F1
:1000F000102040804080080204018040201002014E
:10010000108010204040040404040403040502028B
:1001100002020403020202020606060606060404A0
:100120000202020400000000250028002B002E001F
:10013000310000000000240027002A002D003000BC
:10014000080B000202020100090400000102020083
:100150000005240010010524010101042402060504
:100160002406000107058103100040090401000274
:100170000A00000007050202400000070583024054
:10018000000000C18081C112010002020000400392
:100190002A36800001010200011201000200000065
:1001A00040032A3680000101020001417264756932
:1001B0006E6F2053726C0041726475696E6F204CD3
:1001C000656F6E6172646F00040309040000000033
:1001D000000000002A2B28000000000000000000A2
:1001E0000000000000000000000000002C9EB4A0F1
:1001F000A1A2A434A6A7A5AE362D3738271E1F20EE
:10020000212223242526B333B62EB7B89F848586B2
:100210008788898A8B8C8D8E8F90919293949596F6
:100220009798999A9B9C9D2F3130A3AD3504050674
:100230000708090A0B0C0D0E0F10111213141516D6
:100240001718191A1B1C1DAFB1B0B5000904020024
:1002500001030000000921010100012265000705DA
:10026000840340000105010902A1010901A10085E3
:10027000010509190129031500250195037501815F
:100280000295017505810305010930093109381509
:1002900081257F750895038106C0C005010906A167
:1002A000018502050719E029E7150025017501956B
:1002B00008810295017508810395067508150025CA
:1002C000650507190029658100C00B0262026F07EE
:1002D000E90ADA0CE50CC20ECD0E80150816221CB8
:1002E00011241FBECFEFDAE0DEBFCDBF11E0A0E0EA
:1002F000B1E0E2E7FCE302C005900D92A63CB10735
:10030000D9F722E0A6ECB1E001C01D92A839B207EE
:10031000E1F712E0C0EED2E004C02297FE010E9495
:10032000721CCA3CD107C9F70E9418160C94371EDC
:100330000C940000EF92FF920F931F93CF93DF93E3
:1003400000D000D000D0CDB7DEB740E855E260E085
:1003500070E088E292E00E946B1561E08BE00E9401
:100360003F1460E08BE00E9478146AE070E080E067
:1003700090E00E94841361E08BE00E94781488E290
:1003800092E00E9471158823D1F36AE071E085EE56
:1003900091E00E94390A892B39F46CE171E088E21E
:1003A00092E00E948816FFCF64E471E088E292E058
:1003B0000E946B168E010D5F1F4F7E0187E0E80ED5
:1003C000F11C65EE71E0CE0101960E94C60AF801AB
:1003D00061918F014AE050E088E292E00E940017AC
:1003E00064E571E088E292E00E946B160E151F052D
:1003F00041F788E292E00E94741626960FB6F894B0
:10040000DEBF0FBECDBFDF91CF911F910F91FF9047
:10041000EF90089508950F9300E020E040E060E041
:1004200083ED91E00E94E11586EC91E00F910C9430
:10043000F20B0E9624E1FC0111922A95E9F708953A
:10044000CF93DF93EC01625F7F4F0E94ED15CE01E9
:10045000DF91CF910895CF93DF93EC016E5E7F4FD4
:100460000E94ED15CE01DF91CF910895CF93DF93D8
:10047000EC016A5E7F4F0E94ED15CE01DF91CF91B6
:100480000895CF93DF93EC01625E7F4F0E94ED15DC
:10049000CE01DF91CF91089580E3FB0180833296F6
:1004A000842F82958F7090E1899F401911244A30E2
:1004B00014F4405D01C0495C4293882311F0482F39
:1004C000EFCF08950F9300E020E040E060E089ED79
:1004D00091E00E94E1150F9108956F927F928F92A3
:1004E0009F92AF92BF92CF92DF92EF92FF920F93C3
:1004F0001F93CF93DF93CDB7DEB7AC970FB6F894C9
:10050000DEBF0FBECDBF7C01862EB42EA52E20E20D
:10051000922ECE0101966C01FC01292D11922A9593
:10052000E9F70FEF2FEF4FEF6FEF86960E94E1157F
:1005300085EB91E09AA389A389A59AA5ABA5BCA553
:100540008BA39CA3ADA3BEA38701095B1F4F43E40C
:1005500050E0BE016F5D7F4FC8010E944C0D0196B7
:1005600009F4BFC081E089838A8386E0782E7B828C
:100570001C82F70164817581868197810E94761CB7
:100580006D837E838F839887A986BA8680E890E002
:100590009C878B874CE150E0B601C8010E94580D42
:1005A000F601292D11922A95E9F7570188E0A80E46
:1005B000B11CF501D60101900D927A94E1F740E16A
:1005C00050E0B601C8010E94580DF60111929A94AC
:1005D000E9F796E0692E712C40E250E0B601C801BF
:1005E0000E94580DF1E06F1A7108B1F783E6898314
:1005F00092E89A8393E59B838C8385E38D8381E0E6
:100600008E838F829DE3988797E099878A8786E01B
:10061000F501DE011B9601900D928A95E1F78CE0C1
:10062000898B8A8B66E571E0CE0143960E94281E75
:10063000F7014385BE01675E7F4FC7010E944C02F0
:10064000F7014485BE01655E7F4FC7010E944C02E1
:10065000F7014585BE01635E7F4FC7010E944C02D2
:100660004EE150E0B601C8010E94580DF3E08F1230
:100670001EC082E3898384E08A83F70196859B8389
:1006800097859C8390899D8391899E8396E39F8320
:100690008887828D8987838D8A87848D8B87858DD6
:1006A0008C874CE050E0B601C8010E94580D87E3EA
:1006B000898386E08A8391E09B8393E09C838D838A
:1006C0008FE08E838AE38F838BE388878FEF898720
:1006D00049E050E0B601C8010E94580DC8010E94CF
:1006E000540DAC960FB6F894DEBF0FBECDBFDF91B0
:1006F000CF911F910F91FF90EF90DF90CF90BF901F
:10070000AF909F908F907F906F9008952F923F921F
:100710004F925F926F927F928F929F92AF92BF9211
:10072000CF92DF92EF92FF920F931F93CF93DF93BD
:10073000CDB7DEB7E3970FB6F894DEBF0FBECDBFDF
:100740007C012A013B0169010E9455134B015C01A8
:100750008701095B1F4FC8010E94CB0D18161906AF
:1007600094F00E945513681979098A099B09461665
:10077000570668067906F0F062E370E080E090E0EA
:100780000E948413E8CF42E250E0BE016F5F7F4FCA
:10079000C8010E94950D8981823031F4F801858964
:1007A00096898334910541F019A6C8010E94250D50
:1007B00089A566C18FEF64C16D817E818F81988527
:1007C0000E94761C4B015C01F60160837183828379
:1007D000938346E050E0B701685F7F4FCE014D96AE
:1007E0000E941B1E892B99F4F70180819181A281BF
:1007F000B38188169906AA06BB0648F084819581C4
:10080000A681B78188159905AA05BB0528F4C801FA
:100810000E94250D80E034C189899A89AB89BC8901
:10082000F70186879787A08BB18B3EECC32ED12C26
:10083000C8010E946C0DF1E0CF1AD108C9F719A6C2
:10084000C70182969BA78AA7F701B696FDA7ECA7DA
:1008500008969FA78EA73C976F018E9699AB88ABA1
:100860003897FBABEAAB5701F6E1AF0EB11C47017D
:100870008EE1880E911CC8010E940B0D18161906F6
:100880000CF093CFC8010E946C0D8333910509F4DD
:10089000CDC0F4F481309105B9F11CF4892B59F3E2
:1008A000DFC083309105C1F1069709F0D9C0C801B6
:1008B0000E946C0D3C0144E050E0B401C8010E946C
:1008C000950D212C312C7724F4E06F1A71083FC06C
:1008D0008A33910509F47EC03CF48533910561F0BB
:1008E000C69709F43FC0BCC08B33910509F488C09A
:1008F0008F3F910501F2B4C0C8010E946C0DC80180
:100900000E946C0D89A7B7CFC8010E946C0D44E00E
:1009100050E06AA97BA93AC0C8010E946C0D3C0155
:1009200044E050E0B501C8010E94950D212C312C06
:10093000772494E0691A7108261437040CF09BCFD1
:10094000C8010E946C0DEFEF2E1A3E0AF5CF261457
:1009500037040CF090CFC8010E946C0D8FEF281A5D
:10096000380AF5CFC8010E946C0D782EF701828DF0
:10097000811110C0838D81110DC0848D81110AC039
:10098000858D811107C044E050E0B601C8010E9486
:10099000950D71CFE8A9F9A920803180428053805C
:1009A000B601CE0183960E94ED158DA19EA1AFA147
:1009B000B8A582159305A405B50529F3212C312C82
:1009C000721409F458CFC8010E946C0DFFEF2F1A62
:1009D0003F0AF6CFC8010E946C0D44E050E06CA5C0
:1009E0007DA5C8010E94950DF70166A177A180A59C
:1009F00091A50E94761C66A377A380A791A73BCF01
:100A0000C8010E946C0D44E050E06EA57FA5C801AE
:100A10000E94950DF70162A573A584A595A50E9476
:100A2000761C62A773A784A795A725CFC8010E944B
:100A30006C0D44E050E06AA57BA5C8010E94950DAD
:100A4000F70162A173A184A195A10E94761C62A303
:100A500073A384A395A366A777A780AB91AB0BCFB5
:100A6000C8010E946C0D382E612C712C361409F4CB
:100A700002CFC8010E946C0DFFEF6F1A7F0AF6CFFC
:100A8000E3960FB6F894DEBF0FBECDBFDF91CF91D6
:100A90001F910F91FF90EF90DF90CF90BF90AF909C
:100AA0009F908F907F906F905F904F903F902F908E
:100AB00008952F923F924F925F926F927F928F9202
:100AC0009F92AF92BF92CF92DF92EF92FF920F93DD
:100AD0001F93CF93DF93CDB7DEB727970FB6F89468
:100AE000DEBF0FBECDBF8C0120ED37E040E050E00F
:100AF00061E070E080E090E00E94CF1AD801149687
:100B00006D937D938D939C931797F8016083718308
:100B1000828393834801F7E48F0E911CC4010E94E5
:100B2000370D64E470E0C4010E941C0E882309F4B0
:100B300028C10E9455136B017C01A12CB12C1D8290
:100B4000180186E4280E311CD801DE96BF83AE83DF
:100B500038EE432E33E0532E612C712CF10180814D
:100B6000833009F4FDC081111FC0F8018481958193
:100B7000A681B7810196A11DB11D84839583A683AB
:100B8000B7830E9455136C197D098E099F09A30133
:100B900092010E942F1CA90161E0C8010E946D0210
:100BA00081E0D1018C93BEC08430F9F4F8018481D6
:100BB0009581A681B7810196A11DB11D848395837E
:100BC000A683B7830E9455136C197D098E099F096E
:100BD000A30192010E942F1CA90163E0C8010E9499
:100BE0006D02E2E0D101EC939DC0813061F5AE81F0
:100BF000BF814D915D916D917C919E012F5F3F4F23
:100C0000C8010E9486038D83823009F08BC08981E0
:100C10009A81AB81BC81F80184839583A683B783D5
:100C20000E9455136C197D098E099F09A301920139
:100C30000E942F1CA90163E0C8010E946D02ED8192
:100C4000D101EC9375C0823009F06CC0AE81BF81D8
:100C50004D915D916D917C919E012F5F3F4FC80139
:100C60000E9486038D83853009F056C083E0F10130
:100C70008083F80182A193A1A4A1B5A1892B8A2B1D
:100C80008B2B41F484E893E0A0E0B0E082A393A32F
:100C9000A4A3B5A3F80186A197A1A0A5B1A5892B0E
:100CA0008A2B8B2B61F482A193A1A4A1B5A1B69547
:100CB000A7959795879586A397A3A0A7B1A7D801D5
:100CC0009A964D915D916D917C919D9796968D919F
:100CD0009D910D90BC91A02D452B462B472B59F48F
:100CE000AC01BD01440F551F661F771FF80142A7D5
:100CF00053A764A775A7F80186A797A7A0ABB1ABC8
:100D000082A593A5A4A5B5A582AB93ABA4ABB5ABC7
:100D1000AA24A394B12C0CC0FD81F63019F4D101A2
:100D20001C9206C0BD81BF3F19F4F10110821D82E3
:100D3000F1E0AF16B10409F411CF0E9455136C19FC
:100D40007D098E099F09D801DA962D913D914D912B
:100D50005C91DD97261737074807590708F0FECE44
:100D6000C4010E94370DF80184819581A681B78165
:100D70000196A11DB11D84839583A683B783C50108
:100D800002C080E090E027960FB6F894DEBF0FBE59
:100D9000CDBFDF91CF911F910F91FF90EF90DF902A
:100DA000CF90BF90AF909F908F907F906F905F900B
:100DB0004F903F902F900895CF92DF92EF92FF9245
:100DC0000F931F93CF93DF93EC016B011AA21BA229
:100DD0001CA21DA21EA21FA218A619A61AA61BA617
:100DE0001CA61DA61EAA1FAA18AE19AE2AAF3BAF9D
:100DF0004CAF5DAFFC01FE96E082F182028313836B
:100E00008C01085F1F4F86E0F80111928A95E9F77F
:100E1000CE010E94190286E0F601D80101900D92E0
:100E20008A95E1F7FE01EA5BFF4F1082CE01DF9168
:100E3000CF911F910F91FF90EF90DF90CF900C9486
:100E40005905FB014281538164817581FC01428314
:100E5000538364837583178216820895CF93FB01B1
:100E600081918111FDCFFB0180E090E020E030E036
:100E7000CAE06191662309F12430310564F56E32D0
:100E800071F48F3F910509F034F5DA01A20FB31F19
:100E900012968C932F5F3F4F80E090E0EACFDC0109
:100EA000CA9FC001CB9F900D1124772767FD7095D5
:100EB00060537109860F971FDCCF8F3F910509F0B2
:100EC00054F4243031053CF4FA01E20FF31F82831D
:100ED00081E090E002C080E090E0CF9108950F9310
:100EE00000E020E040E060E08FED91E00E94E1153D
:100EF0000F910895AF92BF92CF92DF92EF92FF923F
:100F00000F931F93CF93DF9300D01F92CDB7DEB71F
:100F10006C017B010E945513F6017783668386017D
:100F2000085F1F4FB6016A5F7F4F42E050E0C80183
:100F30000E94580D81E090E09A83898342E050E05E
:100F4000BE016F5F7F4FC8010E94580D80E091E0A5
:100F50009A83898342E050E0BE016F5F7F4FC801F2
:100F60000E94580D1A82198242E050E0BE016F5F64
:100F70007F4FC8010E94580D42E050E0BE016F5FF4
:100F80007F4FC8010E94580D42E050E0BE016F5FE4
:100F90007F4FC8010E94580D6701F60180818823A8
:100FA00011F1F7016F018191811115C05601AE1841
:100FB000BF081A141B0494F4AB8241E050E0BE0158
:100FC0006D5F7F4FC8010E94580DA501B701C80190
:100FD0000E94580D03C08E3229F7E8CF7601FFEF4B
:100FE000EF1AFF0ADACF1B8241E050E0BE016D5FCD
:100FF0007F4FC8010E94580DE12CFF24F394FA8220
:10100000E98242E050E0BE016F5F7F4FC8010E945D
:10101000580DFA82E98242E050E0BE016F5F7F4FD7
:10102000C8010E94580D81E090E00F900F900F9042
:10103000DF91CF911F910F91FF90EF90DF90CF90B4
:10104000BF90AF9008954F925F926F927F928F9270
:101050009F92AF92BF92CF92DF92EF92FF920F9347
:101060001F93CF93DF93CDB7DEB763970FB6F89496
:10107000DEBF0FBECDBF7C015B016A010E9455132C
:101080002B013C018701085F1F4F4501A12CB12CAA
:10109000C8010E94CB0D1816190694F00E94551332
:1010A000641975098609970986169706A806B90670
:1010B000D0F062E370E080E090E00E948413E8CF1B
:1010C000F7014281538164817581818D928DA38D59
:1010D000B48D481759076A077B0741F4858D968DB3
:1010E000C59721F406C08FEF9FEFF9C08EEF9FEFF9
:1010F000F6C0C8010E940B0D0C970CF4EEC04CE03A
:1011000050E0BE016F5F7F4FC8010E94950D8B813B
:101110009C819827892798279A8B898BF70146818C
:10112000578129813A814217530711F497FD06C070
:10113000C8010E94250D8CEF9FEFD1C08F70927077
:10114000892B31F0C8010E94250D8BEF9FEFC7C09E
:10115000AF80B884BA24AB24BA24A114B10419F026
:10116000E12CF12C23C0C8010E94250D8AEF9FEFCE
:10117000B6C041E050E0BE01635F7F4FC8010E94EE
:10118000950D8D8581111BC08D858111F2CFC80110
:101190000E946C0DC8010E946C0DC8010E946C0D6C
:1011A000C8010E946C0DFFEFEF1AFF0A8D819E812E
:1011B000982789279827E816F906D8F20AC08D855E
:1011C0009FEF980F9D878823F9F2C8010E946C0D4C
:1011D000F6CFE12CF12C41E050E0BE016D5E7F4F77
:1011E000C8010E94950D8B89982F907C61F488230B
:1011F00071F08B899FEF980F9B8B882341F0C8017A
:101200000E946C0DF6CFC8010E946C0D1B8A8B8961
:101210008111E1CF42E050E0BE01615F7F4FC80124
:101220000E94950D42E050E0BE01635F7F4FC80110
:101230000E94950DC8010E946C0DC8010E946C0DA2
:10124000C8010E946C0DC8010E946C0D42E050E084
:10125000BE016F5E7F4FC8010E94950D8F859889F2
:101260008115914029F48D859E858115914019F055
:10127000812C912C16C089899A898115944031F06E
:10128000C8010E94250D87EF9FEF29C0B6016E5F50
:101290007F4F44E050E0C8010E94950D81E090E04E
:1012A0001EC089899A8998278927982788169906C0
:1012B00038F4C8010E946C0D2FEF821A920AF1CF08
:1012C0008FEFE81AF80AEA14FB0409F084CFC8018A
:1012D0000E94250D86EF9FEF02C08DEF9FEF639672
:1012E0000FB6F894DEBF0FBECDBFDF91CF911F9137
:1012F0000F91FF90EF90DF90CF90BF90AF909F90B5
:101300008F907F906F905F904F9008958F929F92F3
:10131000AF92BF92CF92DF92EF92FF920F931F9303
:10132000CF93DF9300D000D000D0CDB7DEB78C01D3
:101330005B016A010E942E074C01009709F05DC015
:10134000F80142815381648175818091E10190911E
:10135000E201A091E301B091E401481759076A073F
:101360007B0709F44EC00E9455137801F8E0EF0E98
:10137000F11C6F7077277C5FC7010E941C0E8130C3
:1013800009F043C085EB91E09A838983F80182815B
:101390009381A481B5818B839C83AD83BE8345E318
:1013A00050E0BE016F5F7F4FC7010E944C0D892B3B
:1013B00019F4812C912C1DC0B501C8010E947A0737
:1013C000892BB9F3C7010E94540D892B91F333E0A7
:1013D000A32EB12CA60168E873E1C8010E9423087E
:1013E0004C01F1E0AF1AB10821F08F3F2FEF9207C7
:1013F00089F3C7010E94370D08C088248394912C7B
:1014000004C09EEF892E99249A94C40126960FB6A3
:10141000F894DEBF0FBECDBFDF91CF911F910F912A
:10142000FF90EF90DF90CF90BF90AF909F908F9004
:10143000089524E030E0AC0164E081E090E00C9499
:101440001A1124E030E0AC0164E085E090E00C94F7
:101450001A1126E030E0AC0164E089E090E00C94E1
:101460001A1124E030E0AC0164E08FE090E00C94CD
:101470001A11AF92BF92CF92DF92EF92FF920F9329
:101480001F93CF93DF9300D000D000D0CDB7DEB74D
:101490006C015B0182E690E00E942B168C0182E6D3
:1014A000F80111928A95E9F7C801895B9F4F0E9464
:1014B0004F0EF601178306838DE192E00E94F7102C
:1014C000C5010E94290A00E020E040E060E0CE0172
:1014D00001960E94E115CE0103960E94310A18E898
:1014E000E12E13E1F12E00E010E020E63AEE40E0BC
:1014F00050E0B501F601868197810E94DC068C01DF
:101500008130910589F5F60166817781CE010196DA
:101510000E942002CE0103960E94310AF6016681E4
:101520007781CE0101960E943602CE0103960E9479
:10153000190AF60166817781CE0101960E942B027D
:10154000CE0103960E94210AF60166817781CE01C1
:1015500001960E9441024B815C816D817E81F60182
:101560004283538364837583C80126960FB6F8942B
:10157000DEBF0FBECDBFDF91CF911F910F91FF90C6
:10158000EF90DF90CF90BF90AF900895CF93DF930F
:10159000EC010E94D715AE014E5F5F4F24E030E0B2
:1015A00060E08FE090E00E942D12CE01DF91CF919C
:1015B000089525EB31E0FC0131832083FB0142815A
:1015C000538164817581FC014283538364837583F5
:1015D00008950F9300E020E040E060E08DEF91E09F
:1015E0000E94E11585EE91E00F910C94D715DC0176
:1015F000ED91FC91008CF18DE02D099591E089270A
:101600000895CF93DF931F92CDB7DEB76983DC01D6
:10161000ED91FC910280F381E02D41E050E0BE01AC
:101620006F5F7F4F09950F90DF91CF91089521E073
:10163000FC018485883009F420E0822F0895FC01A4
:101640009485FB018485981303C081E0983009F4E8
:1016500080E008950F931F93CF93DF93EC018A01ED
:101660008C85883021F00E94AC0F892B39F481E001
:1016700090E09B838A8380E090E001C0C801DF9105
:10168000CF911F910F910895FC016485683021F07E
:101690008DE192E00C94C81180E090E00895CF9322
:1016A000DF931F92CDB7DEB741E050E0BE016F5F20
:1016B0007F4FFC0184850E94FE0F181619061CF44A
:1016C000898190E002C08FEF9FEF0F90DF91CF9163
:1016D0000895FC0184850C94FE0F0F931F93CF9304
:1016E000DF931F92CDB7DEB78C01DC01ED91FC9149
:1016F0000480F581E02D0995892B51F0BE016F5FC3
:101700007F4FF80184850E944210898190E002C0D9
:101710008FEF9FEF0F90DF91CF911F910F91089561
:10172000FC0184850C945010CF92DF92EF92FF92CF
:101730000F931F93CF93DF93CDB7DEB7AF970FB65D
:10174000F894DEBF0FBECDBF7C018B016A01CE01D4
:1017500001960E94D715CE0109960E944F0ECE0128
:101760008A960E94D71565EE71E0CE0184960E949C
:10177000D90ABE016C5D7F4FCE0101960E94210700
:10178000AE01465D5F4FB801CE0101960E94860909
:1017900081309105C1F4D701ED91FC910484F58568
:1017A000E02D85EB91E09DA38CA30CA51DA52EA596
:1017B0003FA50EA31FA328A739A7A601BE016C5DF4
:1017C0007F4FC7010995AF960FB6F894DEBF0FBEE5
:1017D000CDBFDF91CF911F910F91FF90EF90DF90E0
:1017E000CF900895FC011382128248EE53E060E02E
:1017F00070E0448355836683778381E691E091832B
:10180000808388E084870895FC016485683041F016
:101810006295660F607E685F83E090E00C945811DB
:1018200080E00895DF92EF92FF920F931F93CF9382
:10183000DF93EC017B018A018C85883009F04BC075
:10184000D12C6D2D6295660F607E685F83E090E01D
:101850000E945811811102C0DC8607C08B7F88313D
:10186000D9F3D39488E0D812ECCF8C85883099F1E5
:1018700020911001309111012F5F3F4F11F420E0B2
:1018800034E03093110120931001409110015091E8
:10189000110120E061E00E942F0FB7016E5F7F4FC2
:1018A000A8018C850E946F0F811103C088E08C878E
:1018B00012C0CE010E94040C873151F061E070E04B
:1018C00080E090E00E948413CE010E94040CECCFD3
:1018D00081E090E002C080E090E0DF91CF911F9125
:1018E0000F91FF90EF90DF900895CF92DF92EF92EB
:1018F000FF92CF93DF93EC018C85883081F10E94B9
:10190000A50F0E9455136B017C01CE010E94040CAF
:10191000882359F00E9455136C197D098E099F097F
:10192000683E73408105910598F0CE010E94040C39
:10193000882319F08C850E94210FEC85F0E0EE0FD2
:10194000FF1FE351FE4F1182108288E08C8707C091
:1019500061E070E080E090E00E948413D6CFDF91D8
:10196000CF91FF90EF90DF90CF900895CF93DF93CA
:10197000EC018C858830D1F0CE010E94040C8431BA
:10198000A9F0882399F0883189F08C3169F4E881D5
:10199000F9810480F581E02DCE01099521E0892BA4
:1019A00009F420E0822F03C081E001C080E0DF91D4
:1019B000CF9108950F9300E020E040E060E083E0E5
:1019C00092E00E94E1150F9108950F9300E020E04E
:1019D00040E060E089E092E00E94E1150F910895F7
:1019E000DC01ED91FC91008CF18DE02D099425EB4B
:1019F00031E0FC0131832083FB01418952896389F5
:101A00007489FC0142835383648375830895FC01C8
:101A1000858996890895FC01818D928D0895CF93D3
:101A2000DF931F92CDB7DEB76983DC01ED91FC91A6
:101A30000280F381E02D41E050E0BE016F5F7F4FF7
:101A400009950F90DF91CF910895CF93DF93EC012B
:101A5000898D9A8D892B41F0E881F9810680F78183
:101A6000E02DCE010995F4CFDF91CF910895CF936A
:101A7000DF93EC018C85883061F00E94210FEC85AA
:101A8000F0E0EE0FFF1FE351FE4F1182108288E05D
:101A90008C87DF91CF910895FC01108E178A6E5FBD
:101AA0007F4F84850C947F10FC0184850C94A410D6
:101AB000CF93DF93EC019A018F89988DAB01BC0124
:101AC0008C850E9451102F89388D280F391F388F2F
:101AD0002F8BDF91CF9108950F931F93CF93DF93B7
:101AE0001F92CDB7DEB78C01FC01818D928D892BC1
:101AF00059F041E050E0BE016F5F7F4F84850E9446
:101B0000FE0F181619061CF08FEF9FEF08C0F801A2
:101B1000818D928D0197928F818F898190E00F90B6
:101B2000DF91CF911F910F910895CF93DF93EC0137
:101B3000898D9A8D009719F48FEF9FEF10C0481789
:101B4000590708F0AC018C850E94FE0F1816190683
:101B50009CF7298D3A8D281B390B3A8F298FDF91FD
:101B6000CF910895CF93DF931F92CDB7DEB7FC01DD
:101B7000218D328D232B49F0BE016F5F7F4F84850D
:101B80000E944210898190E002C08FEF9FEF0F907A
:101B9000DF91CF9108950F931F93CF93DF93CDB72C
:101BA000DEB728970FB6F894DEBF0FBECDBF8C010D
:101BB000DC01ED91FC910284F385E02D0995F8019B
:101BC00064858DE192E00E94C811892B41F148E0C3
:101BD00050E0BE016F5F7F4FD8011C968C910E9430
:101BE000FE0F18161906ECF4BE016F5F7F4FC80197
:101BF0000F960E94FD158D8190E0982F88272E81E9
:101C0000820F911DF801968B858B8F8190E0982F24
:101C100088272885820F911D928F818F02C080E0D6
:101C200090E028960FB6F894DEBF0FBECDBFDF91CF
:101C3000CF911F910F910895FF920F931F93CF9310
:101C4000DF93EC018B018C85883011F5F12C6F2D21
:101C50006295660F607E685F83E090E00E94581195
:101C6000811102C0FC8606C08831E1F3F39488E05C
:101C7000F812EDCF8C85883059F01E870D871A8EAB
:101C8000198E20E0A80162E00E942F0F81E001C0C0
:101C900080E0DF91CF911F910F91FF900895FC019B
:101CA0001382128248EE53E060E070E04483558373
:101CB0006683778381E891E09183808388E08487DD
:101CC000CF010F960C94D715CF92DF92EF92FF922F
:101CD0000F931F93CF93DF93CDB7DEB7AF970FB6B8
:101CE000F894DEBF0FBECDBF7C018B016A01CE012F
:101CF00001960E94D715CE0109960E944F0ECE0183
:101D00008A960E94D71565EE71E0CE0184960E94F6
:101D1000D90ABE016C5D7F4FCE0101960E9421075A
:101D2000AE01465D5F4FB801CE0101960E94860963
:101D300081309105C1F4D701ED91FC910088F189C2
:101D4000E02D85EB91E09DA38CA30CA51DA52EA5F0
:101D50003FA50EA31FA328A739A7A601BE016C5D4E
:101D60007F4FC7010995AF960FB6F894DEBF0FBE3F
:101D7000CDBFDF91CF911F910F91FF90EF90DF903A
:101D8000CF9008950F9300E020E040E060E08FE006
:101D900092E00E94E1150F9108950F9300E020E07A
:101DA00040E060E085E192E00E94E1150F91089526
:101DB000AB01682F6295660F607E645F24E030E0BF
:101DC0008CE090E00C941A119B01682F6295660FCD
:101DD000607E685FC9010C94581162E070E00C9459
:101DE000E40E9B01682F6295660F607E645FC901F7
:101DF0000C94D110CF93DF93C82FD62F472F64E0D8
:101E000070E00E94F10E4D2F65E070E08C2FDF91A5
:101E1000CF910C94F10E462F62E070E00C94F10E1D
:101E2000CF93DF93C82FD62F472F60E170E00E9439
:101E3000F10E4D2F61E170E08C2FDF91CF910C946A
:101E4000F10ECF93C82F40E150E0682F8DE192E072
:101E50000E94D6126FEF8C2FCF910C940B0FEF9244
:101E6000FF921F93CF93DF9300D0CDB7DEB7182F2B
:101E70007A018FEF860F853048F5812F2A83698399
:101E80000E94210F2A816981462F422B60E070E079
:101E9000812F0E94F10EE114F10411F0B7010AC084
:101EA00060911B0270911C026F5F7F4F70931C0248
:101EB00060931B02812F0E94FA0E41E050E0612FD7
:101EC0008DE192E00E94D61281E001C080E00F9087
:101ED0000F90DF91CF911F91FF90EF9008951F9386
:101EE000CF93DF93182FFB01EA0180818F3F51F4DC
:101EF00081818F3F91F482818F3F79F483818F3F7D
:101F000061F41EC0811109C08181811106C08281E6
:101F1000811103C08381882399F0209789F0BF0144
:101F2000812F0E94D80EBE01812F0E94100F44E025
:101F300050E0612F8DE192E00E94D61281E001C055
:101F400080E0DF91CF911F91089548E050E0682F25
:101F50008DE192E00C94D612DF92EF92FF920F93F4
:101F60001F93CF93DF93D82E8B01EA01413088E095
:101F7000580710F0C0E0D8E06D2D8DE192E00E948E
:101F800093117C0163E070E08D2D0E94E40E873197
:101F900011F08C3121F4EC16FD0670F302C0C0E0A4
:101FA000D0E09E01A8016D2D8DE192E00E942212E9
:101FB00040E250E06D2D8DE192E00E94D6128D2D11
:101FC0000E94ED0E84FD0DC063E070E08D2D0E9437
:101FD000E40E8111F4CF8D2D0E94210F80E090E05E
:101FE00005C060E18D2D0E940B0FCE01DF91CF91D6
:101FF0001F910F91FF90EF90DF900895DF92EF9285
:10200000FF920F931F93CF93DF93D82E7B018A010A
:10201000682F8DE192E00E94C811EC01009799F4BD
:1020200063E070E08D2D0E94E40E843111F188236D
:1020300001F1C1E0D0E08C3111F4C0E0D0E0D195E5
:10204000C195D10916C0081719070CF4E8011C1630
:102050001D067CF400E09E01A7016D2D8DE192E04C
:102060000E94851240E450E06D2D8DE192E00E94C7
:10207000D612CE01DF91CF911F910F91FF90EF907B
:10208000DF9008950F93AB0101E021E030E0682F6D
:102090008DE192E00E94851281E090E00F91089519
:1020A0000895BF92CF92DF92EF92FF920F931F930A
:1020B000CF93DF93B82E7B016A01E901682F8DE190
:1020C00092E00E9493118C179D0730F46B2D8DE1E7
:1020D00092E00E949311EC018E019601A7016B2DF5
:1020E0008DE192E00E94E411CE01DF91CF911F912A
:1020F0000F91FF90EF90DF90CF90BF9008951F93C6
:10210000CF93DF93182FFB01EA018081811109C071
:102110008181811106C08281811103C0838188235E
:1021200069F0209759F0BF01812F0E94D80EBE019F
:10213000812F0E94100F81E090E002C080E090E0CB
:10214000DF91CF911F910895CF93C82F40E250E0C7
:10215000682F8DE192E00E94D6128C2F0E94ED0E26
:1021600084FD0CC08C2F0E94ED0E83FFF6CF68E13A
:102170008C2F0E940B0F80E090E006C060E18C2F56
:102180000E940B0F81E090E0CF9108958EBD00007A
:102190000DB407FEFDCF8EB508952E9808952E9AA2
:1021A00008951F93CF93DF9300D01F92CDB7DEB772
:1021B000182F4B836A8399830E94CD109981892FB0
:1021C0000E94C610812F0E94C6106A81862F0E942D
:1021D000C6104B81842F0E94C6100E94CF1081E050
:1021E0000F900F900F90DF91CF911F910895CF9393
:1021F000DF9368EE73E080E090E00E948413269AFB
:102200000E94E612C0E0DC2FD295DD0FD07ED45FB5
:1022100042E06D2F8EE190E00E94D11042E06D2FE0
:102220008FE190E00E94D110CF5FC83061F7DF915D
:10223000CF910895CF92DF92EF92FF920F931F9369
:10224000CF93DF9300D000D0CDB7DEB7F82E890151
:102250004B835C836A8399830E94CD1089810E949D
:10226000C6108F2D0E94C6106A81862F0E94C6104C
:102270004B81C42E5C81D52E7601E00EF11ECE146A
:10228000DF0431F0F60181916F010E94C610F7CF93
:102290000E94CF10C8010F900F900F900F90DF9108
:1022A000CF911F910F91FF90EF90DF90CF90089505
:1022B0001F93CF93DF9300D0CDB7DEB7182F6A837B
:1022C00099830E94CD1089810E94C610812F0E949F
:1022D000C6106A81862F0E94C61080E00E94C61038
:1022E00089830E94CF1089810F900F90DF91CF9149
:1022F0001F9108951F93CF93DF93182F60E270E032
:102300000E94E40EC82FD0E0DC2FCC2761E270E001
:10231000812F0E94E40E9E01280F311DC901DF911B
:10232000CF911F910895FF920F931F93CF93DF9347
:10233000F62EC0E0D0E08F2D0E947A118C0100971C
:1023400021F08F2D0E947A11EC01C017D10799F767
:10235000CE01DF91CF911F910F91FF9008951F93B0
:10236000CF93DF93182F66E270E00E94E40EC82F2F
:10237000D0E0DC2FCC2767E270E0812F0E94E40ED2
:102380009E01280F311DC901DF91CF911F91089542
:10239000FF920F931F93CF93DF93F62EC0E0D0E010
:1023A0008F2D0E94AF118C01009721F08F2D0E947C
:1023B000AF11EC01C017D10799F7CE01DF91CF9192
:1023C0001F910F91FF900895CF92DF92EF92FF92AD
:1023D0000F931F93CF93DF93D62EEA01790164E226
:1023E00070E08D2D0E94E40EC82E65E270E08D2D08
:1023F0000E94E40EC80FD11D2C2D30E0322F222771
:10240000C20FD31F6D2D6295660F607E6C5E9801C2
:10241000A701CE010E941A11C00FD11F4D2F64E2F7
:1024200070E08D2D0E94F10E4C2F65E270E08D2D35
:10243000DF91CF911F910F91FF90EF90DF90CF90A0
:102440000C94F10E0F931F9389019A0140E050E024
:102450000E94E4111F910F910895CF92DF92EF92A5
:10246000FF920F931F93CF93DF9300D000D0CDB78F
:10247000DEB7F82E89014B835C836A8399830E94BF
:10248000CD1089810E94C6108F2D0E94C6106A81CE
:10249000862F0E94C6104B81C42E5C81D52E7601FA
:1024A000E00EF11ECE14DF0439F080E00E94C61069
:1024B000F60181936F01F6CF0E94CF10C8010F90F3
:1024C0000F900F900F90DF91CF911F910F91FF9080
:1024D000EF90DF90CF9008950F931F93CF93DF93EA
:1024E00000D0CDB7DEB75A834983A901980189810D
:1024F0009A816295660F607E685E0F900F90DF9103
:10250000CF911F910F910C942D128F929F92AF92A9
:10251000BF92CF92DF92EF92FF920F931F93CF93D0
:10252000DF936C01962E5A017901802E68E270E0EB
:10253000892D0E94E40EC82F69E270E0892D0E9467
:10254000E40ED0E0DC2FCC27C80FD11D8701950108
:10255000AE01692DC6010E946C1281101AC0CE0D09
:10256000DF1D4D2F68E270E0892D0E94F10E4C2F87
:1025700069E270E0892DDF91CF911F910F91FF905B
:10258000EF90DF90CF90BF90AF909F908F900C9482
:10259000F10EDF91CF911F910F91FF90EF90DF909F
:1025A000CF90BF90AF909F908F900895CF93C62FFC
:1025B00061E070E08C2F0E94F10E61E070E08C2FE2
:1025C0000E94E40E8111F9CFCF910895CF93CFB738
:1025D000F89480911E02811116C061E081E10E9491
:1025E000781461E081E10E943F148CB580618CBD5C
:1025F0008CB580648CBD61E08FE00E943F1461E087
:1026000080E10E943F1480911E028F5F80931E0222
:10261000CFBFCF9108951F920F920FB60F92112442
:102620002F933F938F939F93AF93BF9380912002FB
:1026300090912102A0912202B091230230911F02B9
:1026400023E0230F2D3720F40196A11DB11D05C0F5
:1026500026E8230F0296A11DB11D20931F0280932F
:10266000200290932102A0932202B0932302809132
:10267000240290912502A0912602B0912702019692
:10268000A11DB11D8093240290932502A0932602E0
:10269000B0932702BF91AF919F918F913F912F915E
:1026A0000F900FBE0F901F9018952FB7F894609160
:1026B00020027091210280912202909123022FBF6B
:1026C00008953FB7F8948091240290912502A0913B
:1026D0002602B091270226B5A89B05C02F3F19F00E
:1026E0000196A11DB11D3FBF6627782F892F9A2F14
:1026F000620F711D811D911D42E0660F771F881FBB
:10270000991F4A95D1F70895CF92DF92EF92FF92E9
:10271000CF93DF936B017C010E946113EB01C11425
:10272000D104E104F10489F00E94EB1A0E946113C4
:102730006C1B7D0B683E734090F381E0C81AD10892
:10274000E108F108C851DC4FEACFDF91CF91FF904B
:10275000EF90DF90CF900895789484B5826084BD27
:1027600084B5816084BD85B5826085BD85B5816095
:1027700085BDEEE6F0E0808181608083E1E8F0E0F5
:102780001082808182608083808181608083E0E824
:10279000F0E0808181608083E1E9F0E08081826007
:1027A0008083808181608083E0E9F0E080818160C6
:1027B0008083E1ECF0E080818460808380818260AE
:1027C0008083808181608083E3ECF0E080818160A0
:1027D0008083E0ECF0E0808182608083E2ECF0E0D6
:1027E000808181608083EAE7F0E08081846080837B
:1027F0008081826080838081816080838081806825
:102800008083089590E0FC013197EF30F105B0F539
:10281000EA5AFF4F0C94701C809180008F7703C0A0
:10282000809180008F7D809380000895809180004A
:10283000877FF9CF84B58F7702C084B58F7D84BD43
:102840000895809190008F7707C0809190008F7DD0
:1028500003C080919000877F8093900008958091BD
:10286000C0008F7703C08091C0008F7D8093C0002F
:1028700008958091C200877F8093C2000895CF930E
:10288000DF9390E0FC01E851FF4F2491FC01EA5FE7
:10289000FE4F8491882349F190E0880F991FFC0135
:1028A000EE5CFE4FA591B4918C5D9E4FFC01C591ED
:1028B000D4919FB7611108C0F8948C912095822320
:1028C0008C93888182230AC0623051F4F8948C91F1
:1028D000322F309583238C938881822B888304C088
:1028E000F8948C91822B8C939FBFDF91CF910895A8
:1028F0000F931F93CF93DF931F92CDB7DEB7282F8F
:1029000030E0F901E653FF4F8491F901E851FF4FA0
:102910001491F901EA5FFE4F04910023C9F0882366
:1029200021F069830E9402146981E02FF0E0EE0F2C
:10293000FF1FEC5DFE4FA591B4919FB7F8948C9169
:10294000611103C01095812301C0812B8C939FBF1F
:102950000F90DF91CF911F910F910895CF93DF9347
:102960001F92CDB7DEB76983DC01ED91FC91028047
:10297000F381E02D41E050E0BE016F5F7F4F09958C
:102980000F90DF91CF910895CF93DF93EC018C8569
:102990009D8597FF05C082E00E94D8179D878C8790
:1029A0008C859D85DF91CF91089583E00C942D1A3D
:1029B000FC018485958597FD06C082E00E94801702
:1029C00090E00196089582E00E94801790E00895BB
:1029D000FC018485958597FD05C02FEF3FEF358776
:1029E0002487089582E00C94D817CF93DF93EC01ED
:1029F00080911901882331F083E00E94091818168C
:102A0000190634F081E090E09B838A8380E090E0B7
:102A1000DF91CF910895FC0120812E5F208342E455
:102A200050E060E471E080E80C94A418FC0181811E
:102A30009081913A59F4813209F03CC047E050E06E
:102A400062E171E080E00E94A41843C0913291F5E8
:102A5000803239F467E070E082E191E00E94D5189D
:102A600006C0823209F035C08281809319018091BD
:102A7000120190911301A0911401B0911501803BB6
:102A80009440A105B105C1F48091190180FD14C0E5
:102A900087E797E790930108809300082BE088E18F
:102AA00090E00FB6F894A895809360000FBE209335
:102AB00060000FC080E0089588E10FB6F89480931D
:102AC0006000109260000FBEA8951092010810924D
:102AD000000881E008952FEF3FEFFC013587248740
:102AE0000895CF93C09119016AE070E080E090E012
:102AF0000E94841381E0C11101C080E0CF9108954C
:102B000010922B0210922A0288EE93E0A0E0B0E02F
:102B100080932C0290932D02A0932E02B0932F024B
:102B200085EA91E090932902809328028FEF9FEF2E
:102B300090933502809334020895AF92BF92CF9262
:102B4000DF92EF92FF920F931F93CF93DF936C016D
:102B50007B01C0E0D0E000E010E0F601EC0FFD1FCB
:102B60004AE050E06281C7010E9400175C016EE2FA
:102B7000C7010E946D168A0D9B1D080F191F219613
:102B8000C330D10551F74AE050E0F6016581C70135
:102B90000E940017800F911FDF91CF911F910F911D
:102BA000FF90EF90DF90CF90BF90AF90089525EB0E
:102BB00031E0FC013183208312821382148215825A
:102BC00008950F93FC0185EB91E0918380836283EC
:102BD0004383248305830F91089525EB31E0FC01A5
:102BE00031832083FB014081518162817381FC012B
:102BF00042835383648375830895FB01408151812F
:102C000062817381FC0142835383648375830895D9
:102C100085EB91E0909379028093780210927A028A
:102C200010927B0210927C0210927D02089508950A
:102C30000E94AC130E9417168EE792E00E948D1A34
:102C40000E949A01C0E0D0E00E940A022097E1F3BE
:102C50000E940000F9CF0C94971CCF92DF92EF9264
:102C6000FF920F931F93CF93DF936C017A01EB01D7
:102C7000E60EF71E00E010E0CE15DF0561F0699169
:102C8000D601ED91FC910190F081E02DC6010995EE
:102C9000080F191FF1CFC801DF91CF911F910F913C
:102CA000FF90EF90DF90CF9008956115710581F04E
:102CB000DB010D900020E9F7AD0141505109461BA1
:102CC000570BDC01ED91FC910280F381E02D09941A
:102CD00080E090E008950C945516DC01ED91FC9194
:102CE0000190F081E02D09940F931F93CF93DF9310
:102CF000EC016DE00E946D168C016AE0CE010E942D
:102D00006D16800F911FDF91CF911F910F91089544
:102D10000F931F93CF93DF93EC010E9455168C0104
:102D2000CE010E947416800F911FDF91CF911F91E9
:102D30000F9108958F929F92AF92BF92CF92DF92A0
:102D4000EF92FF920F931F93CF93DF93CDB7DEB730
:102D5000A1970FB6F894DEBF0FBECDBF7C01C42E85
:102D6000E52FCB01D22E19A221E02D1510F02AE07B
:102D7000D22E8E010F5D1F4F8D2C912CA12CB12CCA
:102D80006C2D7E2FA50194010E942F1C8C2DD29EAC
:102D900080191124015011098A3014F4805D01C09A
:102DA000895CF8018083211531054105510521F029
:102DB000C22EE32FCA01E4CFB801C7010E94551605
:102DC000A1960FB6F894DEBF0FBECDBFDF91CF91B5
:102DD0001F910F91FF90EF90DF90CF90BF90AF9039
:102DE0009F908F9008952115310541F4DC01ED91FC
:102DF000FC910190F081E02D642F09940C949A16B7
:102E00009A01462F50E060E070E00C94F316409178
:102E100082025091830220918002309181024217F8
:102E20005307B4F49091E8009570E1F39091E800B5
:102E300092FD19C08093F1008091820290918302EB
:102E400001968F739927892B19F48EEF8093E800F0
:102E500080918202909183020196909383028093E5
:102E6000820281E0089580E00895CF92DF92FF9280
:102E70000F931F93CF93DF931F92CDB7DEB7082F29
:102E8000162F862F880F8E5F99830E94071783E085
:102E90000E940717F02EC02E9981D92E8C2D8F19E4
:102EA000811778F4F60184910E940717082F80E0BB
:102EB0000E9407178023FFEFCF1ADF0A8111EECFA0
:102EC00001C081E00F90DF91CF911F910F91FF9092
:102ED000DF90CF900895615030F02091F100FC0117
:102EE00020830196F8CF289884E680938502089580
:102EF0002FB7FC012083F89467706093E900089570
:102F0000CF93DF931F92CDB7DEB7682FCE01019626
:102F10000E9478178091F20099819FBF0F90DF91F6
:102F2000CF910895FF920F931F93CF93DF9300D01B
:102F3000CDB7DEB7F62E8A0190918402992311F065
:102F400057FF03C08FEF9FEF2BC0682FCE01019674
:102F50007A830E9478178091F20090E0A8017A812C
:102F6000801791070CF4AC01EF2DF72FF40E84E6D7
:102F7000FE1639F02898809385029091F100919384
:102F8000F7CF4115510521F08091F200882321F0FF
:102F900089818FBFCA0104C08BE68093E800F8CF17
:102FA0000F900F90DF91CF911F910F91FF90089597
:102FB000CF93DF931F92CDB7DEB741E050E0BE0163
:102FC0006F5F7F4F0E949217019719F4898190E0FB
:102FD00002C08FEF9FEF0F90DF91CF910895CF93B5
:102FE000DF931F92CDB7DEB7682FCE0101960E9406
:102FF00078179091E800892F807295FF04C0909116
:10300000F20080E4891B99819FBF0F90DF91CF91DF
:1030100008956F927F928F929F92AF92BF92CF92BC
:10302000DF92EF92FF920F931F93CF93DF931F9244
:10303000CDB7DEB7782E7B01C42EB52E80918402E9
:10304000882369F0042F152F8AEFD82E872D8072E0
:10305000982E9AE3A92E872D8074882E11C08FEFA9
:103060009FEF57C0872D0E94EF17682E81110CC06B
:10307000DA94A9F361E070E080E090E00E948413AC
:103080000115110579F73BC0282F30E0021713070F
:103090000CF4602E672DCE0101960E947817809166
:1030A000E80085FF29C0262D30E0021B130B992074
:1030B00039F06A948FEF6816B1F01092F100F9CFF1
:1030C000F701862D77FE07C0815058F094919093B8
:1030D000F1003196F9CF815020F091919093F10059
:1030E000FACFE20EF31E8091E80085FF0FC00115B4
:1030F000110511F481100AC089818FBFC1CF5D987D
:1031000084E6809386028C2D9B2D03C0A092E8005C
:10311000F3CF0F90DF91CF911F910F91FF90EF9020
:10312000DF90CF90BF90AF909F908F907F906F90E7
:1031300008951092E90010928302109282029093F7
:103140008102809380020895CF92DF92FF920F93C5
:103150001F93CF93DF9300D0CDB7DEB7F82E8A014F
:103160006B0101151105B1F0F601F7FE02C0849163
:1031700001C0808149835A830E94071701501109B9
:10318000FFEFCF1ADF0A49815A818111EACF8FEF11
:103190009FEF01C0CA010F900F90DF91CF911F9157
:1031A0000F91FF90DF90CF9008951F93CF93DF93FF
:1031B0001F92CDB7DEB7162F2091E80022FFFCCF7B
:1031C000612F79830E946B178BEF8093E800812F2A
:1031D0007981972F0F90DF91CF911F910895CF9311
:1031E000DF931F92CDB7DEB71982CE0101960E9400
:1031F0000B15CE0101960E940A1B898190E00F9069
:10320000DF91CF9108951F920F920FB60F92112464
:10321000EF92FF920F931F932F933F934F935F93E0
:103220006F937F938F939F93AF93BF93EF93FF938E
:10323000CF93DF93CDB7DEB76297DEBFCDBF1092DD
:10324000E9008091E80083FFEBC068E0CE010A96B8
:103250000E946B1782EF8093E8009A8597FF05C064
:103260008091E80080FFFCCF03C08EEF8093E800E0
:10327000892F807609F0B9C08B85811105C0109225
:10328000F1001092F100C5C0282F2D7F213009F4E4
:10329000C0C0853049F48091E80080FFFCCF8C8568
:1032A00080688093E300B5C0863009F076C02D8534
:1032B000E888F988223071F580E090E02A8B0E943E
:1032C00099180E94EF1899E08E010F5F1F4FF801C7
:1032D000392F11923A95E9F799832A892A8391E047
:1032E0009E8390E898879AEF998720918202309187
:1032F0008302275F3F4F3C832B838D83C7010E944E
:10330000991849E050E0B80180E00E94A4180E949A
:10331000EF187FC0C7012A8B0E9499182A89223290
:1033200041F482E290E00E94151B892B09F071C0E4
:1033300074C0213069F488899989089711F4209321
:103340007F0280917F02811118C069E971E01AC083
:10335000233009F062C08C85882391F0823021F4FB
:1033600060E187EB91E006C0813009F056C06BE068
:103370008BEA91E00E9435174AC067E871E002C00D
:1033800068EC71E06115710509F447C0FB014491D7
:1033900050E080E80E94A4183CC0873009F43DC08A
:1033A000883021F481E08093F10033C0893089F5C1
:1033B000937099F5E3E8F1E081E021E096E38093F2
:1033C000E9002093EB0034913093EC009093ED00F2
:1033D0008F5F3196853099F78EE78093EA001092DF
:1033E000EA008C858093840214C0888999890E94A0
:1033F00099188E85811105C0CE010A960E94161576
:1034000006C0823051F4CE010A960E943D1B8823EB
:1034100021F08EEF8093E80003C081E28093EB00FF
:1034200062960FB6F894DEBF0FBECDBFDF91CF918D
:10343000FF91EF91BF91AF919F918F917F916F918C
:103440005F914F913F912F911F910F91FF90EF90BE
:103450000F900FBE0F901F9018958093E9008091F8
:10346000F200882319F08AE38093E80008951F9200
:103470000F920FB60F9211242F933F934F935F93A8
:103480006F937F938F939F93AF93BF93EF93FF932C
:103490008091E1001092E10083FF0FC01092E900DB
:1034A00091E09093EB001092EC0092E39093ED008A
:1034B0001092840298E09093F00082FF1DC083E098
:1034C0000E942D1A80918602882339F0809186020D
:1034D000815080938602882369F080918502882339
:1034E00059F080918502815080938502811104C03A
:1034F000289A02C05D9AF1CFFF91EF91BF91AF91F1
:103500009F918F917F916F915F914F913F912F91FB
:103510000F900FBE0F901F9018951092840281E0BB
:103520008093D70080EA8093D80082E189BD09B4F6
:1035300000FEFDCF61E070E080E090E00E94841327
:1035400080E98093D8008CE08093E2001092E00044
:10355000559A209A0895CF93DF9300D000D0CDB72D
:10356000DEB79B01AC01611571058105910569F01C
:1035700069833A834B835C830E940D1E29813A81C3
:103580004B815C810E94511C03C060E070E0CB0164
:103590000F900F900F900F90DF91CF910895CF92E1
:1035A000DF92EF92FF926B017C0162177307840731
:1035B000950764F4CA01B9016C197D098E099F0948
:1035C0000E94AB1A6C0D7D1D8E1D9F1DFF90EF900C
:1035D000DF90CF9008950895FF920F931F93CF939C
:1035E000DF93EC01F62EE881F9810480F581E02D6E
:1035F00009958C01E881F9810680F781E02D6F2D16
:10360000CE010995C8019927DF91CF911F910F91A4
:10361000FF900895FC0120812F5F208349E150E055
:103620006CE472E080E80C94A41845E650E065E68E
:1036300072E080E80C94A418EF92FF920F931F930E
:10364000CF93DF931F92CDB7DEB789838B017A01C9
:1036500041E050E0BE016F5F7F4F84E00E94091897
:10366000A701B80184E40E9409180F90DF91CF915F
:103670001F910F91FF90EF900895FC01918180813F
:10368000813A31F481E0913091F0933089F411C0A6
:10369000813271F49B3021F4828180931B0105C03B
:1036A0009A3031F4828180931A0181E0089508955F
:1036B00080E0089548E050E082E00C941C1BCF931A
:1036C000DF93DC01683818F0E8E7E60F25C0E62F45
:1036D000F0E067FF11C0E058F10981E090E001C01F
:1036E000880FEA95EAF714969C911497982B1496F4
:1036F0009C931497E0E010C0E453FE4FE491EE2356
:1037000009F440C0E7FF08C014968C9114978260BA
:1037100014968C931497EF7716968C9116978E17B4
:1037200041F117968C9117978E1719F118968C9175
:1037300018978E17F1F019968C9119978E17C9F07A
:103740001A968C911A978E17A1F01B968C911B9745
:103750008E1779F080E090E0ED01C80FD91F2E811F
:10376000211102C0EE8305C0019686309105A1F7B4
:1037700009C0BD016C5F7F4FCD010E945A1B81E0E3
:1037800090E008C081E090E013969C938E9312978E
:1037900080E090E0DF91CF910895683818F0E8E775
:1037A000E60F25C0E62FF0E067FF12C0E058F109F0
:1037B00021E030E001C0220FEA95EAF72095DC0114
:1037C00014963C911497322314963C93E0E00FC07A
:1037D000E453FE4FE491EE2329F1E7FF08C0DC013A
:1037E00014962C9114972D7F14962C93EF7720E04C
:1037F00030E0EE2351F0DC01A20FB31F16964C917E
:1038000016974E1302C016961C922F5F3F4F26301C
:10381000310579F7BC016C5F7F4F0E945A1B81E034
:1038200090E0089580E090E00895FC0116821782F0
:1038300010861186128613861482BC016C5F7F4F3E
:103840000C945A1B1092930210928A0210928902D1
:103850008BEB91E090938802809387020895A1E218
:103860001A2EAA1BBB1BFD010DC0AA1FBB1FEE1FFA
:10387000FF1FA217B307E407F50720F0A21BB30B45
:10388000E40BF50B661F771F881F991F1A9469F7C1
:1038900060957095809590959B01AC01BD01CF011D
:1038A0000895052E97FB1EF400940E94681C57FD96
:1038B00007D00E942F1C07FC03D04EF40C94681C08
:1038C00050954095309521953F4F4F4F5F4F08954C
:1038D00090958095709561957F4F8F4F9F4F08957C
:1038E000EE0FFF1F0590F491E02D099469279627AC
:1038F000692778278727782708950E94881CA59F25
:10390000900DB49F900DA49F800D911D11240895DA
:10391000A29FB001B39FC001A39F700D811D112410
:10392000911DB29F700D811D1124911D0895CF939B
:10393000DF938230910510F482E090E0E0919602EE
:10394000F091970220E030E0A0E0B0E0309739F14C
:103950004081518148175907B8F04817590771F449
:1039600082819381109729F013969C938E931297DE
:103970002CC0909397028093960227C021153105A1
:1039800031F04217530718F0A901DB0101C0EF0124
:103990009A01BD01DF010280F381E02DD7CF21150F
:1039A0003105F9F0281B390B2430310580F48A8168
:1039B0009B816115710521F0FB019383828304C013
:1039C0009093970280939602FE01329644C0FE01C6
:1039D000E20FF31F81939193225031093983288399
:1039E0003AC02091940230919502232B41F420910A
:1039F00002013091030130939502209394022091AB
:103A00000001309101012115310541F42DB73EB778
:103A10004091040150910501241B350BE091940263
:103A2000F0919502E217F307A0F42E1B3F0B281725
:103A3000390778F0AC014E5F5F4F2417350748F027
:103A40004E0F5F1F50939502409394028193919380
:103A500002C0E0E0F0E0CF01DF91CF910895CF9375
:103A6000DF93009709F487C0FC013297138212821A
:103A7000C0919602D0919702209781F420813181E4
:103A8000280F391F80919402909195028217930715
:103A900079F5F0939502E09394026DC0DE0120E089
:103AA00030E0AE17BF0750F412964D915C9113971A
:103AB0009D014115510509F1DA01F3CFB383A283CA
:103AC00040815181840F951F8A179B0771F48D9156
:103AD0009C911197840F951F029691838083129673
:103AE0008D919C911397938382832115310529F43D
:103AF000F0939702E09396023EC0D9011396FC938F
:103B0000EE9312974D915D91A40FB51FEA17FB0735
:103B100079F480819181840F951F0296D9011196C5
:103B20009C938E938281938113969C938E9312978C
:103B3000E0E0F0E08A819B81009719F0FE01EC0142
:103B4000F9CFCE01029628813981820F931F2091EF
:103B50009402309195022817390769F4309729F4B7
:103B6000109297021092960202C013821282D09392
:103B70009502C0939402DF91CF9108958F929F9206
:103B8000AF92BF92CF92DF92EF92FF92CF93DF93EB
:103B9000EC01688179818A819B81611571058105BC
:103BA000910521F464E279ED8BE597E02DE133EFA7
:103BB00041E050E00E94511C49015A019B01AC01B7
:103BC000A7EAB1E40E947D1C6B017C01ACEEB4EF6E
:103BD000A50194010E94321EC60ED71EE81EF91ED2
:103BE000F7FE06C081E0C81AD108E10880E8F80AAB
:103BF000C882D982EA82FB82C701B6019F77DF9132
:103C0000CF91FF90EF90DF90CF90BF90AF909F90BB
:103C10008F9008950E94BE1D089586E091E00E9455
:103C2000BE1D0895609306017093070180930801FB
:103C3000909309010895FB01DC0104C08D9101906E
:103C4000801921F441505040C8F7881B990B089502
:103C5000FB01DC0101900D920020E1F70895B7FF10
:103C60000C947D1C0E947D1C821B930B0895F8947C
:023C7000FFCF84
:103C72000000980280000100000000AABBCCDE0216
:103C8200000400E100000000000001014661696CCF
:103C9200656420746F20636F6E6669677572652054
:103CA20045746865726E6574207573696E67204429
:103CB200484350004D792049502061646472657315
:103CC200733A20002E0057495A6E657400000000B6
:103CD20000010B2A0B440B4F0B6D0B900B120C9433
:103CE2000B690B750CB60C170B1F0BF70A000000C3
:103CF200000F0D580D0B0D6C0DB20D250D1C0E375E
:103D02000D4C0D640E540DCB0D950DF00CF70C07F8
:103D12000D00000000AE14F514D814E814C414D534
:103D220014000000009D1500000000EC1A2D165F23
:063D32001BCD1B151C0057
:00000001FF
