:100000000C94F0000C9418010C9418010C94180135
:100010000C9418010C9418010C9418010C941801FC
:100020000C9418010C9418010C9456210C94E81FA0
:100030000C9418010C9418010C9418010C941801DC
:100040000C9418010C9418010C9418010C941801CC
:100050000C9418010C9418010C9418010C942D198F
:100060000C9418010C9418010C9418010C941801AC
:100070000C9418010C9418010C9418010C9418019C
:100080000C9418010C9418010C9418010C9418018C
:100090000C94D6050C9418010C9418010C941801BA
:1000A0000C9418010C9418010C9418014E1A511A52
:1000B000401A441A4A1A721A721A721A551A591A9E
:1000C0005D1A631A671A721A6D1A0000000200099D
:1000D0000F0000030401000C0000000000000000FD
:1000E0000000000000000000000408020110408031
:1000F000401020408040800802040180402010020F
:10010000011080102040402004040404040304056E
:1001100002020202040302020202060606060606A4
:100120000404020202040400000000250028002B41
:10013000002E00310000000000240027002A002DBE
:10014000003000080B000202020100090400000157
:10015000020200000524001001052401010104240D
:10016000020605240600010705810310004009046A
:100170000100020A00000007050202400000070516
:10018000830240000012010002EF020140412336C9
:100190008000010102030112010002000000404141
:1001A00023368000010102030141726475696E6F9C
:1001B000204C4C430041726475696E6F204C656F32
:1001C0006E6172646F0004030904BF01EC048207CE
:1001D000590D301121132C1309151415E81B701C2F
:1001E00011241FBECFEFDAE0DEBFCDBF12E0A0E0EA
:1001F000B1E0E8E2FCE402C005900D92A630B10740
:10020000D9F724E0A6E0B2E001C01D92A136B20702
:10021000E1F711E0C0EED1E004C02297FE010E9498
:100220003724CA3CD107C9F70E94801C0C941226BF
:100230000C9400001F93CF93DF93FC01648D758DA8
:10024000868D978D24E630E040E050E00E94F42354
:10025000672B682B692B49F484E690E00E94F42513
:1002600061E0680F84E690E00BC0C4E6D0E010E0E7
:10027000CE010E94F425811740F461E0680FCE01A1
:10028000DF91CF911F910C94FC252196C83CD1059C
:1002900011F0182FEDCFDF91CF911F910895CF92DC
:1002A000DF92EF92FF920F931F93CF93DF93EC01B6
:1002B000198A188A80E190E09B8B8A8B83E690E014
:1002C0009D8B8C8B0E94F4258F3FB9F404E610E0DF
:1002D00060E0C8010E94FC250F5F1F4F083C11051C
:1002E000B9F70C891D89C8010E94F4258823E9F01B
:1002F00060E0C8010E94FC2518C0C12CD12C7601F9
:1003000004E610E0C8010E94F425C80ED11CE11CCF
:10031000F11C0F5F1F4F083C1105A1F7CC8EDD8E3D
:10032000EE8EFF8ECE010E941A01C888D9887E0108
:1003300000E110E0CC1ADD0AC6018E0D9F1D0E945F
:10034000F425F70181937F0101501109A9F705E018
:1003500010E08A899B89800F911F0E94F425FE017D
:10036000E00FF11F868B0150110999F7DF91CF91B2
:100370001F910F91FF90EF90DF90CF9008950F9312
:1003800000E020E040E060E08AED92E00E94491C3D
:100390008AEB92E00E944F0183E290E09093B702D3
:1003A0008093B60283E192E00E94391289E395E0DE
:1003B000909321028093200280EC8093220288EAAD
:1003C0008093230281E08093240285E380932502B9
:1003D00010928A0210928B028CE892E00E9496148E
:1003E00087EA92E00E94391280EE9BEA9093B50270
:1003F0008093B40286E092E00F910C943912CF9270
:10040000DF92EF92FF920F931F93CF93DF9300D071
:1004100000D000D0CDB7DEB77C018B0161E08AE06F
:100420000E94731A61E088E00E94731A60E088E01D
:100430000E94AC1A6AE070E080E090E00E94A61989
:1004400061E088E00E94AC1A68EC70E080E090E027
:100450000E94A619B8018DEA93E00E942310892B0F
:1004600041F46FE171E08FEE93E00E94B81C80E0F0
:1004700046C067E471E08FEE93E00E94AB1C8E01F2
:100480000D5F1F4F6E0187E0C80ED11C6DEA73E04F
:10049000CE0101960E940D11F80161918F014AE091
:1004A00050E08FEE93E00E94881D67E571E08FEECB
:1004B00093E00E94AB1C0C151D0541F78FEE93E0F5
:1004C0000E94B41C43E064E089E190E00E941817A8
:1004D00048EE64E08AE190E00E94181743E064E08F
:1004E0008BE190E00E941817F701EF55FF4F6081F4
:1004F0007181C70187589F4F0E94631481E026963F
:100500000FB6F894DEBF0FBECDBFDF91CF911F9124
:100510000F91FF90EF90DF90CF90089540E855E263
:1005200060E070E08FEE93E00E94D31B80EE92E0DB
:100530000E945C0461E08BE00E94731A60E08BE033
:100540000E94AC1A6AE070E080E090E00E94A61978
:1005500061E08BE00E94AC1A8FEE93E00E94D91B01
:100560008823D1F369E571E08FEE93E00E94AB1C24
:100570004091D6025091D7026091D8027091D90271
:100580002AE030E08FEE93E00E94951D60ED72E06E
:1005900083E192E00C94FF01AF92BF92CF92DF9281
:1005A000EF92FF920F931F93CF93DF93CDB7DEB7F8
:1005B00062970FB6F894DEBF0FBECDBF6C018DEA17
:1005C00093E00E94B010860107581F4FC8010E9497
:1005D0001214069709F0C4C0F601E857FF4F428194
:1005E0005381648175814F87588B698B7A8B67E65D
:1005F00071E08FEE93E00E94B81CD801ED91FC9160
:10060000008CF18DE02D46E050E0BE01695F7F4F28
:10061000C80109958F81833709F094C08A85823794
:1006200009F090C0055E1F4FC8010E94FD1288238B
:1006300019F0C8010E94BC12F6014585568585EF68
:1006400091E09A8389838F859889A989BA898B8358
:100650009C83AD83BE83BE016F5F7F4FC8010E9444
:1006600059126091B6027091B70280EE92E00E943A
:100670007004E091E002F091E1020190F081E02D40
:1006800060E180EE92E0099580EE92E00E94E9043C
:10069000C090B602D090B702B60180EE92E00E9400
:1006A000700442E050E0B60180EE92E00E94E60461
:1006B00098EBA92E92E0B92EC12CD12C80EE92E0BD
:1006C0000E94C503892B59F080EE92E00E94CD0371
:1006D000D5018D935D01BFEFCB1ADB0AEFCF80EE22
:1006E00092E00E94E904E2E0CE16D104B9F46091F0
:1006F000B80270E0762F66278091B902682B8827B0
:1007000077FD8095982F0E9468232AE939E949E905
:100710005FE30E94D2220E943A237B014AE050E02C
:10072000B701C8010E948F1D62E771E08FEE93E070
:100730000E94B81CBE01695F7F4F8FEE93E00E945C
:10074000B81C0EC06CE771E08FEE93E00E94B81CFD
:100750004AE050E066E070E08FEE93E00E94631D97
:1007600062960FB6F894DEBF0FBECDBFDF91CF917A
:100770001F910F91FF90EF90DF90CF90BF90AF90BF
:10078000089583E192E00C94CC028091100390E0F4
:1007900020911103821B91090895209111038091EA
:1007A0001003281750F4E22FF0E0EE5EFC4F80813A
:1007B00090E02F5F2093110308958FEF9FEF08952E
:1007C000E091110380911003E81730F4F0E0EE5E41
:1007D000FC4F808190E008958FEF9FEF089508957A
:1007E000CF92DF92EF92FF920F931F93CF93DF93FD
:1007F0007C01CB018A012091EC02222389F0EB01DC
:100800006B01C40ED51ECC15DD0569F06991D701C9
:10081000ED91FC910190F081E02DC7010995F3CF96
:10082000642F0E94AD05C801DF91CF911F910F91F8
:10083000FF90EF90DF90CF900895CF93DF931F92BA
:10084000CDB7DEB769832091EC022223D1F020914D
:10085000ED02203240F021E030E0FC0133832283BE
:1008600080E090E015C08091EE02E82FF0E0E151C9
:10087000FD4F998190838F5F8093EE028093ED020C
:1008800005C061E0CE0101960E94AD0581E090E0D7
:100890000F90DF91CF910895FC011382128248EEF0
:1008A00053E060E070E044835583668377838AE891
:1008B00091E09183808308951092110310921003A8
:1008C0001092EE021092ED020C94F00481E08093FD
:1008D000EC0260930F031092EE021092ED02089565
:1008E0000C9466040F93062F21E04091ED026FEE09
:1008F00072E080910F030E9456051092EE02109252
:10090000ED021092EC020F9108958F929F92AF9298
:10091000BF92CF92DF92EF92FF920F931F93CF93EC
:10092000DF93EC01F62ED42E48015901EE2019F187
:100930000E9466041E2D143008F013E01150B8F028
:10094000E881F98128E0129FB0011124A5019401EA
:1009500004C056954795379527956A95D2F7CA01F1
:10096000B9010190F081E02DCE010995E7CF60E05B
:10097000CE010E9472044D2D413208F040E22C2D30
:1009800062E173E08F2D0E940E0510921103809397
:100990001003DF91CF911F910F91FF90EF90DF90A7
:1009A000CF90BF90AF909F908F900895CF92EF928D
:1009B0000F931F93C22EE12C00E010E098010E94DB
:1009C00085041F910F91EF90CF90089521E00C9432
:1009D000D60461E00C94720480EE92E00C944C0416
:1009E00010929F0381E080939D0310929C0361E02D
:1009F00082E00E94AC1A61E083E00E94AC1AE9EB4D
:100A0000F0E080818E7F808380818D7F808388E489
:100A10008093B80085E48093BC000895413208F0CB
:100A200043C090919F039111FCCF91E090939F035D
:100A300020939D032FEF2093320310927703240F0E
:100A40002093760390939E0390919E03880F892BA9
:100A500080939E0380919C03813061F410929C03EB
:100A600080919E038093BB008091BC0083FDF8CFF2
:100A700085EC01C085EE8093BC0080919F0381309E
:100A8000E1F380917703841710F44091770328E70E
:100A900033E0FB01D9018A2F821B841718F48D9152
:100AA0008193F9CF842F089580E008950F93413208
:100AB00008F04AC090919F039111FCCF92E090936F
:100AC0009F0300939D039FEF90933203109277034F
:100AD00040937603FB0168E773E0DB019A2F961BD6
:100AE000941718F491919D93F9CF10929E039091D1
:100AF0009E03880F892B80939E0380919C038130F5
:100B000061F410929C0380919E038093BB008091BE
:100B1000BC0083FDF8CF85EC01C085EE8093BC005E
:100B2000222321F080919F038230E1F380913203F0
:100B30008F3F61F080913203803251F08091320317
:100B4000803341F483E007C081E005C080E003C04A
:100B500082E001C084E00F910895613298F4209101
:100B60009F03243089F460935403FC0186E593E0ED
:100B7000DC012A2F281B261718F421912D93F9CF79
:100B800080E0089581E0089582E0089585ED8093E6
:100B9000BC008091BC0084FDFCCF10929F0308959F
:100BA00085EC8093BC0010929F0308951F920F92D2
:100BB0000FB60F9211242F933F934F935F936F9330
:100BC0007F938F939F93AF93BF93EF93FF93809106
:100BD000B900887F803609F49EC078F5883209F420
:100BE0005DC090F4803109F456C038F4882309F4CC
:100BF000F5C0883009F44FC0F5C0883109F44EC003
:100C0000803209F45FC0EEC0803409F46AC058F441
:100C1000803309F457C0883309F0E4C0809332036D
:100C20000E94D005DFC0803509F44FC0883509F433
:100C30005DC0883409F0D6C0D3C0883909F4C4C077
:100C4000A8F4883709F467C038F4883609F463C01B
:100C5000803709F460C0C6C0883809F4B5C080394F
:100C600009F45FC0803809F0BDC05BC0803B09F467
:100C700083C038F4803A09F466C0883A09F47CC02D
:100C8000B1C0803C09F4A4C0883C09F4A1C0883BF1
:100C900009F487C0A7C080919E0310C0909177038C
:100CA00080917603981770F5E091770381E08E0FBD
:100CB00080937703F0E0E858FC4F80818093BB007D
:100CC00085EC83C0809332038BC0E091770381E091
:100CD0008E0F809377038091BB00F0E0E858FC4FC3
:100CE000808390917703809176036BC0E0917703C6
:100CF00081E08E0F809377038091BB00F0E0E8588D
:100D0000FC4F808380919D0381116AC081E08093B4
:100D10009C0384EA5EC083E080939F0310923303B8
:100D2000CFCF80913303803208F04EC0E09133037F
:100D300081E08E0F809333038091BB00F0E0EC5C88
:100D4000FC4F8083BDCF0E94D00580913303803259
:100D500030F4E0913303F0E0EC5CFC4F10826091E2
:100D6000330370E0E0919803F091990384E393E0FA
:100D700009951092330336C084E080939F0310924C
:100D8000550310925403E0919A03F0919B03099547
:100D900080915403811105C081E080935403109227
:100DA0005603E091550381E08E0F80935503F0E0E8
:100DB000EA5AFC4F80818093BB009091550380914B
:100DC0005403981708F47CCF85E88093BC000AC0D0
:100DD00085EC8093BC0010929F0304C010923203F4
:100DE0000E94C605FF91EF91BF91AF919F918F91A6
:100DF0007F916F915F914F913F912F910F900FBE17
:100E00000F901F901895CF93CFB7F8948091A003BF
:100E1000811127C0E9E1F1E08491EAEFF0E09491DB
:100E2000E82FF0E0EE0FFF1FEB5CFE4FA591B491B1
:100E30008C91892321F461E081E10E94AC1A61E088
:100E400081E10E94731A8CB580618CBD8CB5806481
:100E50008CBD61E08FE00E94731A61E080E10E9426
:100E6000731A8091A0038F5F8093A003CFBFCF91AF
:100E700008950E9624E1FC0111922A95E9F7089550
:100E8000CF93DF93EC01625F7F4F0E94551CCE0130
:100E9000DF91CF910895CF93DF93EC016E5E7F4F8A
:100EA0000E94551CCE01DF91CF910895CF93DF931F
:100EB000EC016A5E7F4F0E94551CCE01DF91CF91FD
:100EC0000895CF93DF93EC01625E7F4F0E94551C23
:100ED000CE01DF91CF91089580E3FB0180833296AC
:100EE000842F82958F7090E1899F401911244A3098
:100EF00014F4405D01C0495C4293882311F0482FEF
:100F0000EFCF08950F9300E020E040E060E081EA39
:100F100093E00E94491C0F9108956F927F928F92E7
:100F20009F92AF92BF92CF92DF92EF92FF920F9378
:100F30001F93CF93DF93CDB7DEB7AC970FB6F8947E
:100F4000DEBF0FBECDBF7C01862EB42EA52E20E2C3
:100F5000922ECE0101966C01FC01292D11922A9549
:100F6000E9F70FEF2FEF4FEF6FEF86960E94491CC6
:100F700085EF91E09AA389A389A59AA5ABA5BCA505
:100F80008BA39CA3ADA3BEA38701095B1F4F43E4C2
:100F900050E0BE016F5D7F4FC8010E949313019620
:100FA00009F4BFC081E089838A8386E0782E7B8242
:100FB0001C82F70164817581868197810E943B24A0
:100FC0006D837E838F839887A986BA8680E890E0B8
:100FD0009C878B874CE150E0B601C8010E949F13AB
:100FE000F601292D11922A95E9F7570188E0A80EFC
:100FF000B11CF501D60101900D927A94E1F740E120
:1010000050E0B601C8010E949F13F60111929A9414
:10101000E9F796E0692E712C40E250E0B601C80174
:101020000E949F13F1E06F1A7108B1F783E689837C
:1010300092E89A8393E59B838C8385E38D8381E09B
:101040008E838F829DE3988797E099878A8786E0D1
:10105000F501DE011B9601900D928A95E1F78CE077
:10106000898B8A8B66E971E0CE0143960E94ED255B
:10107000F7014385BE01675E7F4FC7010E946C0781
:10108000F7014485BE01655E7F4FC7010E946C0772
:10109000F7014585BE01635E7F4FC7010E946C0763
:1010A0004EE150E0B601C8010E949F13F3E08F1299
:1010B0001EC082E3898384E08A83F70196859B833F
:1010C00097859C8390899D8391899E8396E39F83D6
:1010D0008887828D8987838D8A87848D8B87858D8C
:1010E0008C874CE050E0B601C8010E949F1387E353
:1010F000898386E08A8391E09B8393E09C838D8340
:101100008FE08E838AE38F838BE388878FEF8987D5
:1011100049E050E0B601C8010E949F13C8010E9437
:101120009B13AC960FB6F894DEBF0FBECDBFDF9118
:10113000CF911F910F91FF90EF90DF90CF90BF90D4
:10114000AF909F908F907F906F9008952F923F92D5
:101150004F925F926F927F928F929F92AF92BF92C7
:10116000CF92DF92EF92FF920F931F93CF93DF9373
:10117000CDB7DEB7E3970FB6F894DEBF0FBECDBF95
:101180007C012A013B0169010E9477194B015C0136
:101190008701095B1F4FC8010E9412141816190617
:1011A00094F00E947719681979098A099B094616F3
:1011B000570668067906F0F062E370E080E090E0A0
:1011C0000E94A619E8CF42E250E0BE016F5F7F4F58
:1011D000C8010E94DC138981823031F4F8018589CD
:1011E00096898334910541F019A6C8010E946C13B9
:1011F00089A566C18FEF64C16D817E818F819885DD
:101200000E943B244B015C01F60160837183828361
:10121000938346E050E0B701685F7F4FCE014D9663
:101220000E94E025892B99F4F70180819181A281A8
:10123000B38188169906AA06BB0648F08481958179
:10124000A681B78188159905AA05BB0528F4C801B0
:101250000E946C1380E034C189899A89AB89BC896A
:10126000F70186879787A08BB18B3EECC32ED12CDC
:10127000C8010E94B313F1E0CF1AD108C9F719A62B
:10128000C70182969BA78AA7F701B696FDA7ECA790
:1012900008969FA78EA73C976F018E9699AB88AB57
:1012A0003897FBABEAAB5701F6E1AF0EB11C470133
:1012B0008EE1880E911CC8010E945213181619065F
:1012C0000CF093CFC8010E94B3138333910509F446
:1012D000CDC0F4F481309105B9F11CF4892B59F398
:1012E000DFC083309105C1F1069709F0D9C0C8016C
:1012F0000E94B3133C0144E050E0B401C8010E94D5
:10130000DC13212C312C7724F4E06F1A71083FC0D4
:101310008A33910509F47EC03CF48533910561F070
:10132000C69709F43FC0BCC08B33910509F488C04F
:101330008F3F910501F2B4C0C8010E94B313C801E8
:101340000E94B31389A7B7CFC8010E94B31344E02A
:1013500050E06AA97BA93AC0C8010E94B3133C01BE
:1013600044E050E0B501C8010E94DC13212C312C6F
:10137000772494E0691A7108261437040CF09BCF87
:10138000C8010E94B313EFEF2E1A3E0AF5CF2614C0
:1013900037040CF090CFC8010E94B3138FEF281AC6
:1013A000380AF5CFC8010E94B313782EF701828D59
:1013B000811110C0838D81110DC0848D81110AC0EF
:1013C000858D811107C044E050E0B601C8010E943C
:1013D000DC1371CFE8A9F9A92080318042805380C5
:1013E000B601CE0183960E94551C8DA19EA1AFA18E
:1013F000B8A582159305A405B50529F3212C312C38
:10140000721409F458CFC8010E94B313FFEF2F1ACA
:101410003F0AF6CFC8010E94B31344E050E06CA528
:101420007DA5C8010E94DC13F70166A177A180A504
:1014300091A50E943B2466A377A380A791A73BCFE9
:10144000C8010E94B31344E050E06EA57FA5C80117
:101450000E94DC13F70162A573A584A595A50E94DF
:101460003B2462A773A784A795A725CFC8010E9434
:10147000B31344E050E06AA57BA5C8010E94DC13C9
:10148000F70162A173A184A195A10E943B2462A3EC
:1014900073A384A395A366A777A780AB91AB0BCF6B
:1014A000C8010E94B313382E612C712C361409F434
:1014B00002CFC8010E94B313FFEF6F1A7F0AF6CF65
:1014C000E3960FB6F894DEBF0FBECDBFDF91CF918C
:1014D0001F910F91FF90EF90DF90CF90BF90AF9052
:1014E0009F908F907F906F905F904F903F902F9044
:1014F00008952F923F924F925F926F927F928F92B8
:101500009F92AF92BF92CF92DF92EF92FF920F9392
:101510001F93CF93DF93CDB7DEB727970FB6F8941D
:10152000DEBF0FBECDBF8C0120ED37E040E050E0C4
:1015300061E070E080E090E00E941A22D8011496E9
:101540006D937D938D939C931797F80160837183BE
:10155000828393834801F7E48F0E911CC4010E949B
:101560007E1364E470E0C4010E946314882309F4CC
:1015700028C10E9477196B017C01A12CB12C1D821E
:10158000180186E4280E311CD801DE96BF83AE8395
:1015900038EE432E33E0532E612C712CF101808103
:1015A000833009F4FDC081111FC0F8018481958149
:1015B000A681B7810196A11DB11D84839583A68361
:1015C000B7830E9477196C197D098E099F09A301C1
:1015D00092010E94F423A90161E0C8010E948D07D5
:1015E00081E0D1018C93BEC08430F9F4F80184818C
:1015F0009581A681B7810196A11DB11D8483958334
:10160000A683B7830E9477196C197D098E099F09FB
:10161000A30192010E94F423A90163E0C8010E9482
:101620008D07E2E0D101EC939DC0813061F5AE8180
:10163000BF814D915D916D917C919E012F5F3F4FD8
:10164000C8010E94A6088D83823009F08BC0898171
:101650009A81AB81BC81F80184839583A683B7838B
:101660000E9477196C197D098E099F09A3019201C7
:101670000E94F423A90163E0C8010E948D07ED8157
:10168000D101EC9375C0823009F06CC0AE81BF818E
:101690004D915D916D917C919E012F5F3F4FC801EF
:1016A0000E94A6088D83853009F056C083E0F101C1
:1016B0008083F80182A193A1A4A1B5A1892B8A2BD3
:1016C0008B2B41F484E893E0A0E0B0E082A393A3E5
:1016D000A4A3B5A3F80186A197A1A0A5B1A5892BC4
:1016E0008A2B8B2B61F482A193A1A4A1B5A1B695FD
:1016F000A7959795879586A397A3A0A7B1A7D8018B
:101700009A964D915D916D917C919D9796968D9154
:101710009D910D90BC91A02D452B462B472B59F444
:10172000AC01BD01440F551F661F771FF80142A78A
:1017300053A764A775A7F80186A797A7A0ABB1AB7D
:1017400082A593A5A4A5B5A582AB93ABA4ABB5AB7D
:10175000AA24A394B12C0CC0FD81F63019F4D10158
:101760001C9206C0BD81BF3F19F4F10110821D8299
:10177000F1E0AF16B10409F411CF0E9477196C198A
:101780007D098E099F09D801DA962D913D914D91E1
:101790005C91DD97261737074807590708F0FECEFA
:1017A000C4010E947E13F80184819581A681B781CE
:1017B0000196A11DB11D84839583A683B783C501BE
:1017C00002C080E090E027960FB6F894DEBF0FBE0F
:1017D000CDBFDF91CF911F910F91FF90EF90DF90E0
:1017E000CF90BF90AF909F908F907F906F905F90C1
:1017F0004F903F902F900895CF92DF92EF92FF92FB
:101800000F931F93CF93DF93EC016B011AA21BA2DE
:101810001CA21DA21EA21FA218A619A61AA61BA6CC
:101820001CA61DA61EAA1FAA18AE19AE2AAF3BAF52
:101830004CAF5DAFFC01FE96E082F1820283138320
:101840008C01085F1F4F86E0F80111928A95E9F735
:10185000CE010E94390786E0F601D80101900D9271
:101860008A95E1F7FE01EA5BFF4F1082CE01DF911E
:10187000CF911F910F91FF90EF90DF90CF900C943C
:10188000790A8F929F92AF92BF92CF92DF92EF929E
:10189000FF920F931F93CF93DF93EC010E94771970
:1018A0006B017C018EA99FA9A8ADB9AD8E010E5B1D
:1018B0001F4F892B8A2B8B2B09F48FC0F801808155
:1018C0009181A281B381A7019601281B390B4A0B94
:1018D0005B0BCA01B90157FD4EC04601570138EEF6
:1018E000830E33E0931EA11CB11C28EE33E040E0D0
:1018F00050E00E941624861A970AA80AB90AF8012D
:1019000080829182A282B382DA01C9010196A11D6F
:10191000B11D4EA55FA568A979A98C019D01000F95
:10192000111F221F331F40175107620773072CF442
:101930001EA61FA618AA19AA08C0481B590B6A0B95
:101940007B0B4EA75FA768AB79AB4AA95BA96CA9D3
:101950007DA940175107620773072CF41AAA1BAA26
:101960001CAA1DAA08C0481B590B6A0B7B0B4AAB6B
:101970005BAB6CAB7DAB8E010A5B1F4FF8018081C6
:10198000833081F48EA59FA5A8A9B9A918161906B8
:101990001A061B063CF084E08083CE010E94790A7F
:1019A000019602C080E090E0F8012081233011F020
:1019B000211120C04AA95BA96CA97DA9141615069E
:1019C00016061706BCF0F8011082CE010E943907F6
:1019D000CE010E94790A03960DC0D701C601885135
:1019E0009C4FAF4FBF4FF80180839183A283B38395
:1019F00080E090E0CEAADFAAE8AEF9AEDF91CF9109
:101A00001F910F91FF90EF90DF90CF90BF90AF901C
:101A10009F908F900895FB0142815381648175816D
:101A2000FC01428353836483758317821682089571
:101A3000CF93FB0181918111FDCFFB0180E090E00C
:101A400020E030E0CAE06191662309F124303105DD
:101A500064F56E3271F48F3F910509F034F5DA01C7
:101A6000A20FB31F12968C932F5F3F4F80E090E040
:101A7000EACFDC01CA9FC001CB9F900D11247727CC
:101A800067FD709560537109860F971FDCCF8F3FFC
:101A9000910509F054F4243031053CF4FA01E20FC9
:101AA000F31F828381E090E002C080E090E0CF915C
:101AB00008950F9300E020E040E060E087EA93E0C3
:101AC0000E94491C0F910895AF92BF92CF92DF926E
:101AD000EF92FF920F931F93CF93DF9300D01F924B
:101AE000CDB7DEB76C017B010E947719F6017783D1
:101AF00066838601085F1F4FB6016A5F7F4F42E031
:101B000050E0C8010E949F1381E090E09A8389838E
:101B100042E050E0BE016F5F7F4FC8010E949F13FB
:101B200080E091E09A83898342E050E0BE016F5FDC
:101B30007F4FC8010E949F131A82198242E050E031
:101B4000BE016F5F7F4FC8010E949F1342E050E0CB
:101B5000BE016F5F7F4FC8010E949F1342E050E0BB
:101B6000BE016F5F7F4FC8010E949F136701F6019E
:101B70008081882311F1F7016F018191811115C0D6
:101B80005601AE18BF081A141B0494F4AB8241E04E
:101B900050E0BE016D5F7F4FC8010E949F13A501F9
:101BA000B701C8010E949F1303C08E3229F7E8CF06
:101BB0007601FFEFEF1AFF0ADACF1B8241E050E017
:101BC000BE016D5F7F4FC8010E949F13E12CFF246F
:101BD000F394FA82E98242E050E0BE016F5F7F4FEA
:101BE000C8010E949F13FA82E98242E050E0BE01E0
:101BF0006F5F7F4FC8010E949F1381E090E00F90BC
:101C00000F900F90DF91CF911F910F91FF90EF9068
:101C1000DF90CF90BF90AF9008954F925F926F92F8
:101C20007F928F929F92AF92BF92CF92DF92EF926C
:101C3000FF920F931F93CF93DF93CDB7DEB76397D8
:101C40000FB6F894DEBF0FBECDBF7C015B016A0109
:101C50000E9477192B013C018701085F1F4F450146
:101C6000A12CB12CC8010E9412141816190694F068
:101C70000E947719641975098609970986169706CF
:101C8000A806B906D0F062E370E080E090E00E9420
:101C9000A619E8CFF7014281538164817581818D56
:101CA000928DA38DB48D481759076A077B0741F4BD
:101CB000858D968DC59721F406C08FEF9FEFF9C0F3
:101CC0008EEF9FEFF6C0C8010E9452130C970CF4E0
:101CD000EEC04CE050E0BE016F5F7F4FC8010E9434
:101CE000DC138B819C819827892798279A8B898B75
:101CF000F7014681578129813A814217530711F430
:101D000097FD06C0C8010E946C138CEF9FEFD1C0F5
:101D10008F709270892B31F0C8010E946C138BEF89
:101D20009FEFC7C0AF80B884BA24AB24BA24A114F3
:101D3000B10419F0E12CF12C23C0C8010E946C13EE
:101D40008AEF9FEFB6C041E050E0BE01635F7F4F76
:101D5000C8010E94DC138D8581111BC08D85811106
:101D6000F2CFC8010E94B313C8010E94B313C80187
:101D70000E94B313C8010E94B313FFEFEF1AFF0ACA
:101D80008D819E81982789279827E816F906D8F231
:101D90000AC08D859FEF980F9D878823F9F2C801AF
:101DA0000E94B313F6CFE12CF12C41E050E0BE01CC
:101DB0006D5E7F4FC8010E94DC138B89982F907C49
:101DC00061F4882371F08B899FEF980F9B8B882398
:101DD00041F0C8010E94B313F6CFC8010E94B313AB
:101DE0001B8A8B898111E1CF42E050E0BE01615F27
:101DF0007F4FC8010E94DC1342E050E0BE01635FE8
:101E00007F4FC8010E94DC13C8010E94B313C801B0
:101E10000E94B313C8010E94B313C8010E94B313F8
:101E200042E050E0BE016F5E7F4FC8010E94DC13AC
:101E30008F8598898115914029F48D859E8581151E
:101E4000914019F0812C912C16C089899A898115AD
:101E5000944031F0C8010E946C1387EF9FEF29C0B6
:101E6000B6016E5F7F4F44E050E0C8010E94DC1372
:101E700081E090E01EC089899A8998278927982750
:101E80008816990638F4C8010E94B3132FEF821AFE
:101E9000920AF1CF8FEFE81AF80AEA14FB0409F06E
:101EA00084CFC8010E946C1386EF9FEF02C08DEFB4
:101EB0009FEF63960FB6F894DEBF0FBECDBFDF91E4
:101EC000CF911F910F91FF90EF90DF90CF90BF9037
:101ED000AF909F908F907F906F905F904F900895FC
:101EE0008F929F92AF92BF92CF92DF92EF92FF922A
:101EF0000F931F93CF93DF9300D000D000D0CDB7C6
:101F0000DEB78C015B016A010E94180D4C0100973D
:101F100009F05DC0F801428153816481758180912F
:101F2000A9039091AA03A091AB03B091AC03481709
:101F300059076A077B0709F44EC00E947719780198
:101F4000F8E0EF0EF11C6F7077277C5FC7010E94ED
:101F50006314813009F043C085EF91E09A8389834F
:101F6000F80182819381A481B5818B839C83AD83A9
:101F7000BE8345E350E0BE016F5F7F4FC7010E9403
:101F80009313892B19F4812C912C1DC0B501C80124
:101F90000E94640D892BB9F3C7010E949B13892B02
:101FA00091F333E0A32EB12CA60168E873E1C801D8
:101FB0000E940D0E4C01F1E0AF1AB10821F08F3FE5
:101FC0002FEF920789F3C7010E947E1308C088246F
:101FD0008394912C04C09EEF892E99249A94C40175
:101FE00026960FB6F894DEBF0FBECDBFDF91CF911E
:101FF0001F910F91FF90EF90DF90CF90BF90AF9027
:102000009F908F90089524E030E0AC0164E081E07F
:1020100090E00C94611724E030E0AC0164E085E0CE
:1020200090E00C94611726E030E0AC0164E089E0B8
:1020300090E00C94611724E030E0AC0164E08FE0A4
:1020400090E00C946117AF92BF92CF92DF92EF9223
:10205000FF920F931F93CF93DF9300D000D000D057
:10206000CDB7DEB76C015B0182E690E00E94931C65
:102070008C0182E6F80111928A95E9F7C801895B23
:102080009F4F0E949614F6011783068385EE93E016
:102090000E943E17C5010E94131000E020E040E0BE
:1020A00060E0CE0101960E94491CCE0103960E9479
:1020B0001B1018E8E12E13E1F12E00E010E020E6FD
:1020C0003AEE40E050E0B501F601868197810E942A
:1020D000FC0B8C018130910589F5F60166817781D1
:1020E000CE0101960E944007CE0103960E941B106C
:1020F000F60166817781CE0101960E945607CE01D6
:1021000003960E940310F60166817781CE01019645
:102110000E944B07CE0103960E940B10F6016681C8
:102120007781CE0101960E9461074B815C816D81B0
:102130007E81F6014283538364837583C8012696AA
:102140000FB6F894DEBF0FBECDBFDF91CF911F91C8
:102150000F91FF90EF90DF90CF90BF90AF900895D8
:10216000EF92FF920F931F93CF93DF9300D000D095
:1021700000D0CDB7DEB78C01FC0186819781009736
:10218000E1F10E94410C7C018230910521F084E054
:10219000E816F104A1F5F80166817781CE01019678
:1021A0000E944007CE0103960E941B10F801668131
:1021B0007781CE0101960E945607CE0103960E94B8
:1021C0000310F80166817781CE0101960E944B07CA
:1021D000CE0103960E940B10F80166817781CE0133
:1021E00001960E9461074B815C816D817E81F801BF
:1021F000428353836483758302C0E12CF12CC701B1
:1022000026960FB6F894DEBF0FBECDBFDF91CF91FB
:102210001F910F91FF90EF900895CF93DF93EC0102
:102220000E943F1CAE014E5F5F4F24E030E060E053
:102230008FE090E00E947418CE01DF91CF91089555
:1022400025EF31E0FC0131832083FB014281538182
:1022500064817581FC01428353836483758308958F
:102260000F9300E020E040E060E085EC93E00E9406
:10227000491C8DEA93E00F910C943F1CDC01ED9119
:10228000FC91008CF18DE02D099591E0892708954E
:10229000CF93DF931F92CDB7DEB76983DC01ED9159
:1022A000FC910280F381E02D41E050E0BE016F5FC0
:1022B0007F4F09950F90DF91CF91089521E0FC01A8
:1022C0008485883009F420E0822F0895FC019485EC
:1022D000FB018485981303C081E0983009F480E005
:1022E00008950F931F93CF93DF93EC018A018C85A0
:1022F000883021F00E94F315892B39F481E090E0B9
:102300009B838A8380E090E001C0C801DF91CF9178
:102310001F910F910895FC016485683021F085EECE
:1023200093E00C940F1880E090E00895CF93DF9332
:102330001F92CDB7DEB741E050E0BE016F5F7F4F27
:10234000FC0184850E944516181619061CF4898123
:1023500090E002C08FEF9FEF0F90DF91CF91089533
:10236000FC0184850C9445160F931F93CF93DF9344
:102370001F92CDB7DEB78C01DC01ED91FC9104809A
:10238000F581E02D0995892B51F0BE016F5F7F4FDC
:10239000F80184850E948916898190E002C08FEF40
:1023A0009FEF0F90DF91CF911F910F910895FC0146
:1023B00084850C949716CF92DF92EF92FF920F9341
:1023C0001F93CF93DF93CDB7DEB7AF970FB6F894D7
:1023D000DEBF0FBECDBF7C018B016A01CE0101962D
:1023E0000E943F1CCE0109960E949614CE018A9647
:1023F0000E943F1C6DEA73E0CE0184960E9420117A
:10240000BE016C5D7F4FCE0101960E940B0DAE01A7
:10241000465D5F4FB801CE0101960E94700F81307A
:102420009105C1F4D701ED91FC910484F585E02D6F
:1024300085EF91E09DA38CA30CA51DA52EA53FA51E
:102440000EA31FA328A739A7A601BE016C5D7F4F6D
:10245000C7010995AF960FB6F894DEBF0FBECDBF8A
:10246000DF91CF911F910F91FF90EF90DF90CF9070
:102470000895FC011382128248EE53E060E070E0A0
:10248000448355836683778381EA91E091838083D7
:1024900088E084870895FC016485683041F0629586
:1024A000660F607E685F83E090E00C949F1780E089
:1024B0000895DF92EF92FF920F931F93CF93DF93D4
:1024C000EC017B018A018C85883009F04BC0D12C4E
:1024D0006D2D6295660F607E685F83E090E00E94DC
:1024E0009F17811102C0DC8607C08B7F8831D9F32A
:1024F000D39488E0D812ECCF8C85883099F1209164
:102500000A0130910B012F5F3F4F11F420E034E0BE
:1025100030930B0120930A0140910A0150910B0165
:1025200020E061E00E947615B7016E5F7F4FA80141
:102530008C850E94B615811103C088E08C8712C07B
:10254000CE010E944B12873151F061E070E080E0D3
:1025500090E00E94A619CE010E944B12ECCF81E0C0
:1025600090E002C080E090E0DF91CF911F910F9149
:10257000FF90EF90DF900895CF92DF92EF92FF925D
:10258000CF93DF93EC018C85883081F10E94EC15AC
:102590000E9477196B017C01CE010E944B128823A7
:1025A00059F00E9477196C197D098E099F09683EC0
:1025B00073408105910598F0CE010E944B1288234B
:1025C00019F08C850E946815EC85F0E0EE0FFF1F76
:1025D000EB54FC4F1182108288E08C8707C061E0C9
:1025E00070E080E090E00E94A619D6CFDF91CF91F5
:1025F000FF90EF90DF90CF900895CF93DF93EC01A1
:102600008C858830D1F0CE010E944B128431A9F024
:10261000882399F0883189F08C3169F4E881F98157
:102620000480F581E02DCE01099521E0892B09F484
:1026300020E0822F03C081E001C080E0DF91CF91D4
:1026400008950F9300E020E040E060E08BEC93E021
:102650000E94491C0F9108950F9300E020E040E094
:1026600060E081ED93E00E94491C0F910895DC0128
:10267000ED91FC91008CF18DE02D099425EF31E076
:10268000FC0131832083FB0141895289638974896C
:10269000FC0142835383648375830895FC0185891B
:1026A00096890895FC01818D928D0895CF93DF93D3
:1026B0001F92CDB7DEB76983DC01ED91FC910280FA
:1026C000F381E02D41E050E0BE016F5F7F4F09953F
:1026D0000F90DF91CF910895CF93DF93EC01898D17
:1026E0009A8D892B41F0E881F9810680F781E02DF0
:1026F000CE010995F4CFDF91CF910895CF93DF9369
:10270000EC018C85883061F00E946815EC85F0E062
:10271000EE0FFF1FEB54FC4F1182108288E08C8774
:10272000DF91CF910895FC01108E178A6E5F7F4F65
:1027300084850C94C616FC0184850C94EB16CF930B
:10274000DF93EC019A018F89988DAB01BC018C85D8
:102750000E9498162F89388D280F391F388F2F8B9C
:10276000DF91CF9108950F931F93CF93DF931F9223
:10277000CDB7DEB78C01FC01818D928D892B59F08C
:1027800041E050E0BE016F5F7F4F84850E94451697
:10279000181619061CF08FEF9FEF08C0F801818D05
:1027A000928D0197928F818F898190E00F90DF91B8
:1027B000CF911F910F910895CF93DF93EC01898DF5
:1027C0009A8D009719F48FEF9FEF10C048175907A3
:1027D00008F0AC018C850E944516181619069CF766
:1027E000298D3A8D281B390B3A8F298FDF91CF9194
:1027F0000895CF93DF931F92CDB7DEB7FC01218DF3
:10280000328D232B49F0BE016F5F7F4F84850E947C
:102810008916898190E002C08FEF9FEF0F90DF91C2
:10282000CF9108950F931F93CF93DF93CDB7DEB76A
:1028300028970FB6F894DEBF0FBECDBF8C01DC0128
:10284000ED91FC910284F385E02D0995F8016485F2
:1028500085EE93E00E940F18892B41F148E050E08B
:10286000BE016F5F7F4FD8011C968C910E94451668
:1028700018161906ECF4BE016F5F7F4FC8010F9662
:102880000E94651C8D8190E0982F88272E81820FF1
:10289000911DF801968B858B8F8190E0982F88276A
:1028A0002885820F911D928F818F02C080E090E079
:1028B00028960FB6F894DEBF0FBECDBFDF91CF9143
:1028C0001F910F910895FF920F931F93CF93DF9362
:1028D000EC018B018C85883011F5F12C6F2D629500
:1028E000660F607E685F83E090E00E949F17811111
:1028F00002C0FC8606C08831E1F3F39488E0F81248
:10290000EDCF8C85883059F01E870D871A8E198E71
:1029100020E0A80162E00E94761581E001C080E01D
:10292000DF91CF911F910F91FF900895FC011382C9
:10293000128248EE53E060E070E044835583668382
:10294000778381EC91E09183808388E08487CF0155
:102950000F960C943F1CCF92DF92EF92FF920F9351
:102960001F93CF93DF93CDB7DEB7AF970FB6F89431
:10297000DEBF0FBECDBF7C018B016A01CE01019687
:102980000E943F1CCE0109960E949614CE018A96A1
:102990000E943F1C6DEA73E0CE0184960E942011D4
:1029A000BE016C5D7F4FCE0101960E940B0DAE0102
:1029B000465D5F4FB801CE0101960E94700F8130D5
:1029C0009105C1F4D701ED91FC910088F189E02DCA
:1029D00085EF91E09DA38CA30CA51DA52EA53FA579
:1029E0000EA31FA328A739A7A601BE016C5D7F4FC8
:1029F000C7010995AF960FB6F894DEBF0FBECDBFE5
:102A0000DF91CF911F910F91FF90EF90DF90CF90CA
:102A100008950F9300E020E040E060E087ED93E050
:102A20000E94491C0F9108950F9300E020E040E0C0
:102A300060E08DED93E00E94491C0F910895AB0179
:102A4000682F6295660F607E645F24E030E08CE062
:102A500090E00C9461179B01682F6295660F607E71
:102A6000685FC9010C949F1762E070E00C942B150D
:102A70009B01682F6295660F607E645FC9010C94AC
:102A80001817CF93DF93C82FD62F472F64E070E03D
:102A90000E9438154D2F65E070E08C2FDF91CF91AB
:102AA0000C943815462F62E070E00C943815CF93E3
:102AB000DF93C82FD62F472F60E170E00E943815B2
:102AC0004D2F61E170E08C2FDF91CF910C94381580
:102AD000CF93C82F40E150E0682F85EE93E00E942D
:102AE0001D196FEF8C2FCF910C945215EF92FF921E
:102AF0001F93CF93DF9300D0CDB7DEB7182F7A01A5
:102B00008FEF860F853048F5812F2A8369830E94D5
:102B100068152A816981462F422B60E070E0812F81
:102B20000E943815E114F10411F0B7010AC0609158
:102B3000E3037091E4036F5F7F4F7093E40360934E
:102B4000E303812F0E94411541E050E0612F85EEA3
:102B500093E00E941D1981E001C080E00F900F906A
:102B6000DF91CF911F91FF90EF9008951F93CF9326
:102B7000DF93182FFB01EA0180818F3F51F481819F
:102B80008F3F91F482818F3F79F483818F3F61F48D
:102B90001EC0811109C08181811106C0828181110D
:102BA00003C08381882399F0209789F0BF01812F8A
:102BB0000E941F15BE01812F0E94571544E050E06E
:102BC000612F85EE93E00E941D1981E001C080E035
:102BD000DF91CF911F91089548E050E0682F85EE76
:102BE00093E00C941D19DF92EF92FF920F931F93C5
:102BF000CF93DF93D82E8B01EA01413088E058074C
:102C000010F0C0E0D8E06D2D85EE93E00E94DA1759
:102C10007C0163E070E08D2D0E942B15873111F04F
:102C20008C3121F4EC16FD0670F302C0C0E0D0E058
:102C30009E01A8016D2D85EE93E00E94691840E287
:102C400050E06D2D85EE93E00E941D198D2D0E94A0
:102C5000341584FD0DC063E070E08D2D0E942B15AE
:102C60008111F4CF8D2D0E94681580E090E005C0A1
:102C700060E18D2D0E945215CE01DF91CF911F9101
:102C80000F91FF90EF90DF900895DF92EF92FF9207
:102C90000F931F93CF93DF93D82E7B018A01682F68
:102CA00085EE93E00E940F18EC01009799F463E021
:102CB00070E08D2D0E942B15843111F1882301F1D4
:102CC000C1E0D0E08C3111F4C0E0D0E0D195C195E5
:102CD000D10916C0081719070CF4E8011C161D06C7
:102CE0007CF400E09E01A7016D2D85EE93E00E942B
:102CF000CC1840E450E06D2D85EE93E00E941D1944
:102D0000CE01DF91CF911F910F91FF90EF90DF9057
:102D100008950F93AB0101E021E030E0682F85EECC
:102D200093E00E94CC1881E090E00F9108950895FF
:102D3000BF92CF92DF92EF92FF920F931F93CF93A8
:102D4000DF93B82E7B016A01E901682F85EE93E0DD
:102D50000E94DA178C179D0730F46B2D85EE93E0F7
:102D60000E94DA17EC018E019601A7016B2D85EE0A
:102D700093E00E942B18CE01DF91CF911F910F910C
:102D8000FF90EF90DF90CF90BF9008951F93CF9367
:102D9000DF93182FFB01EA018081811109C0818135
:102DA000811106C08281811103C08381882369F06B
:102DB000209759F0BF01812F0E941F15BE01812F5E
:102DC0000E94571581E090E002C080E090E0DF9122
:102DD000CF911F910895CF93C82F40E250E0682F04
:102DE00085EE93E00E941D198C2F0E94341584FDFE
:102DF0000CC08C2F0E94341583FFF6CF68E18C2F16
:102E00000E94521580E090E006C060E18C2F0E9485
:102E1000521581E090E0CF9108958EBD00000DB471
:102E200007FEFDCF8EB508952E9808952E9A089529
:102E30001F93CF93DF9300D01F92CDB7DEB7182F2B
:102E40004B836A8399830E9414179981892F0E946A
:102E50000D17812F0E940D176A81862F0E940D1772
:102E60004B81842F0E940D170E94161781E00F904E
:102E70000F900F90DF91CF911F910895CF93DF9323
:102E800068EE73E080E090E00E94A619269A0E9406
:102E90000307C0E0DC2FD295DD0FD07ED45F42E087
:102EA0006D2F8EE190E00E94181742E06D2F8FE1A8
:102EB00090E00E941817CF5FC83061F7DF91CF9183
:102EC0000895CF92DF92EF92FF920F931F93CF93CB
:102ED000DF9300D000D0CDB7DEB7F82E89014B8349
:102EE0005C836A8399830E94141789810E940D175D
:102EF0008F2D0E940D176A81862F0E940D174B811E
:102F0000C42E5C81D52E7601E00EF11ECE14DF04B6
:102F100031F0F60181916F010E940D17F7CF0E94E9
:102F20001617C8010F900F900F900F90DF91CF915F
:102F30001F910F91FF90EF90DF90CF9008951F9316
:102F4000CF93DF9300D0CDB7DEB7182F6A83998374
:102F50000E94141789810E940D17812F0E940D175E
:102F60006A81862F0E940D1780E00E940D178983C9
:102F70000E94161789810F900F90DF91CF911F91BA
:102F800008951F93CF93DF93182F60E270E00E94A3
:102F90002B15C82FD0E0DC2FCC2761E270E0812F09
:102FA0000E942B159E01280F311DC901DF91CF9181
:102FB0001F910895FF920F931F93CF93DF93F62EE7
:102FC000C0E0D0E08F2D0E94C1178C01009721F046
:102FD0008F2D0E94C117EC01C017D10799F7CE01C0
:102FE000DF91CF911F910F91FF9008951F93CF9381
:102FF000DF93182F66E270E00E942B15C82FD0E0F7
:10300000DC2FCC2767E270E0812F0E942B159E01F8
:10301000280F311DC901DF91CF911F910895FF92B3
:103020000F931F93CF93DF93F62EC0E0D0E08F2D48
:103030000E94F6178C01009721F08F2D0E94F61741
:10304000EC01C017D10799F7CE01DF91CF911F9105
:103050000F91FF900895CF92DF92EF92FF920F931E
:103060001F93CF93DF93D62EEA01790164E270E0DB
:103070008D2D0E942B15C82E65E270E08D2D0E94CB
:103080002B15C80FD11D2C2D30E0322F2227C20F57
:10309000D31F6D2D6295660F607E6C5E9801A7014F
:1030A000CE010E946117C00FD11F4D2F64E270E066
:1030B0008D2D0E9438154C2F65E270E08D2DDF912B
:1030C000CF911F910F91FF90EF90DF90CF900C94D4
:1030D00038150F931F9389019A0140E050E00E9438
:1030E0002B181F910F910895CF92DF92EF92FF92CC
:1030F0000F931F93CF93DF9300D000D0CDB7DEB7EF
:10310000F82E89014B835C836A8399830E9414178C
:1031100089810E940D178F2D0E940D176A81862FBD
:103120000E940D174B81C42E5C81D52E7601E00ED6
:10313000F11ECE14DF0439F080E00E940D17F60175
:1031400081936F01F6CF0E941617C8010F900F9060
:103150000F900F90DF91CF911F910F91FF90EF9003
:10316000DF90CF9008950F931F93CF93DF9300D0FC
:10317000CDB7DEB75A834983A901980189819A8125
:103180006295660F607E685E0F900F90DF91CF9121
:103190001F910F910C9474188F929F92AF92BF92CF
:1031A000CF92DF92EF92FF920F931F93CF93DF9313
:1031B0006C01962E5A017901802E68E270E0892D0B
:1031C0000E942B15C82F69E270E0892D0E942B15F3
:1031D000D0E0DC2FCC27C80FD11D87019501AE01AF
:1031E000692DC6010E94B31881101AC0CE0DDF1DD3
:1031F0004D2F68E270E0892D0E9438154C2F69E24E
:1032000070E0892DDF91CF911F910F91FF90EF908A
:10321000DF90CF90BF90AF909F908F900C94381517
:10322000DF91CF911F910F91FF90EF90DF90CF90A2
:10323000BF90AF909F908F900895CF93C62F61E07D
:1032400070E08C2F0E94381561E070E08C2F0E9496
:103250002B158111F9CFCF9108951F920F920FB6C0
:103260000F9211242F933F938F939F93AF93BF930C
:103270008091E7039091E803A091E903B091EA03FC
:103280003091E60323E0230F2D3720F40196A11D92
:10329000B11D05C026E8230F0296A11DB11D209384
:1032A000E6038093E7039093E803A093E903B093C8
:1032B000EA038091EB039091EC03A091ED03B091B0
:1032C000EE030196A11DB11D8093EB039093EC03D7
:1032D000A093ED03B093EE03BF91AF919F918F91B7
:1032E0003F912F910F900FBE0F901F9018952FB701
:1032F000F8946091E7037091E8038091E90390915D
:10330000EA032FBF08953FB7F8948091EB039091A3
:10331000EC03A091ED03B091EE0326B5A89B05C088
:103320002F3F19F00196A11DB11D3FBF6627782FD1
:10333000892F9A2F620F711D811D911D42E0660F2A
:10334000771F881F991F4A95D1F708958F929F92F2
:10335000AF92BF92CF92DF92EF92FF926B017C010E
:103360000E9483194B015C01C114D104E104F104F2
:10337000F1F00E9436220E948319681979098A099E
:103380009B09683E73408105910570F321E0C21AE4
:10339000D108E108F10888EE880E83E0981EA11C90
:1033A000B11CC114D104E104F10429F7DDCFFF9071
:1033B000EF90DF90CF90BF90AF909F908F90089547
:1033C000789484B5826084BD84B5816084BD85B500
:1033D000826085BD85B5816085BDEEE6F0E08081C7
:1033E00081608083E1E8F0E01082808182608083E8
:1033F000808181608083E0E8F0E08081816080836B
:10340000E1E9F0E080818260808380818160808357
:10341000E0E9F0E0808181608083E1ECF0E0808190
:1034200084608083808182608083808181608083EA
:10343000E3ECF0E0808181608083E0ECF0E080816B
:1034400082608083E2ECF0E0808181608083EAE743
:10345000F0E08081846080838081826080838081CD
:1034600081608083808180688083089590E0FC0182
:103470003197EF30F105B0F5EA5AFF4F0C9435243F
:10348000809180008F7703C0809180008F7D809332
:103490008000089580918000877FF9CF84B58F7771
:1034A00002C084B58F7D84BD0895809190008F7790
:1034B00007C0809190008F7D03C080919000877F2E
:1034C0008093900008958091C0008F7703C0809111
:1034D000C0008F7D8093C00008958091C200877FD7
:1034E0008093C2000895CF93DF9390E0FC01E751F1
:1034F000FF4F2491FC01E85FFE4F8491882349F13E
:1035000090E0880F991FFC01EB5CFE4FA591B491F0
:10351000895D9E4FFC01C591D4919FB7611108C090
:10352000F8948C91209582238C93888182230AC001
:10353000623051F4F8948C91322F309583238C9320
:103540008881822B888304C0F8948C91822B8C9381
:103550009FBFDF91CF9108950F931F93CF93DF9378
:103560001F92CDB7DEB7282F30E0F901E653FF4FA9
:103570008491F901E751FF4F1491F901E85FFE4F83
:1035800004910023C9F0882321F069830E94361A30
:103590006981E02FF0E0EE0FFF1FE95DFE4FA5917E
:1035A000B4919FB7F8948C91611103C01095812359
:1035B00001C0812B8C939FBF0F90DF91CF911F9102
:1035C0000F910895CF93DF931F92CDB7DEB7698334
:1035D000DC01ED91FC910280F381E02D41E050E0AF
:1035E000BE016F5F7F4F09950F90DF91CF910895D6
:1035F000CF93DF93EC018C859D8597FF05C082E01A
:103600000E94B81E9D878C878C859D85DF91CF9108
:10361000089583E00C944C21FC018485958597FDE9
:1036200006C082E00E94601E90E00196089582E04C
:103630000E94601E90E00895FC018485958597FDA9
:1036400005C02FEF3FEF35872487089582E00C9463
:10365000B81ECF93DF93EC0180911701882331F0DE
:1036600083E00E94E91E1816190634F081E090E00C
:103670009B838A8380E090E0DF91CF910895FC01E5
:1036800020812E5F208342E450E063E471E080E813
:103690000C94841FFC0121818081813A59F42132EC
:1036A00009F04BC047E050E060E171E080E00E942B
:1036B000841F5EC0813209F040C0233289F48381C7
:1036C00090E0982F88273281832BA0E0B0E0809390
:1036D0000C0190930D01A0930E01B0930F010FC048
:1036E000203239F467E070E080E191E00E94B51F7C
:1036F00009C0223221F482818093170103C02D7FFB
:103700002032B1F580913F04811103C0E0E0F8E080
:1037100002C0EEEFFAE08091100190911101A091AA
:103720001201B0911301803B9440A105B10511F540
:103730008091170180FF03C01DC080E00895EE3F17
:103740002AE0F20731F0808191819093FF0A809303
:10375000FE0A87E797E7918380832BE088E190E07A
:103760000FB6F894A895809360000FBE2093600078
:1037700081E0089588E10FB6F8948093600010927C
:1037800060000FBEA895EE3F8AE0F80739F08091FF
:10379000FE0A9091FF0A91838083EACF1092FF0A7C
:1037A0001092FE0AE5CF2FEF3FEFFC01358724870B
:1037B0000895CF93C09117016AE070E080E090E037
:1037C0000E94A61981E0C11101C080E0CF91089547
:1037D0001092F2031092F10388EE93E0A0E0B0E0C3
:1037E0008093F3039093F403A093F503B093F6034F
:1037F00085EE91E09093F0038093EF038FEF9FEFBE
:103800009093FC038093FB030895AF92BF92CF92F5
:10381000DF92EF92FF920F931F93CF93DF936C0190
:103820007B01C0E0D0E000E010E0F601EC0FFD1FEE
:103830004AE050E06281C7010E94881D5C016EE28F
:10384000C7010E94AD1C8A0D9B1D080F191F2196F0
:10385000C330D10551F74AE050E0F6016581C70158
:103860000E94881D800F911FDF91CF911F910F91B2
:10387000FF90EF90DF90CF90BF90AF90089525EF2D
:1038800031E0FC013183208312821382148215827D
:1038900008950F93FC0185EF91E09183808362830B
:1038A0004383248305830F91089525EF31E0FC01C4
:1038B00031832083FB014081518162817381FC014E
:1038C00042835383648375830895FB014081518152
:1038D00062817381FC0142835383648375830895FD
:1038E00085EF91E09093410480934004109242044C
:1038F00010924304109244041092450408950895D0
:103900000E94E0190E947F1C86E494E00E94D92165
:103910000E948E02C0E0D0E00E94C1032097E1F334
:103920000E940000F9CF0C945C246115710581F0B0
:10393000DB010D900020E9F7AD0141505109461B14
:10394000570BDC01ED91FC910280F381E02D09948D
:1039500080E090E008950C94951CDC01ED91FC91C1
:103960000190F081E02D099467EF71E00C94951CB3
:103970000F931F93CF93DF93EC010E94951C8C0152
:10398000CE010E94B41C800F911FDF91CF911F9137
:103990000F9108958F929F92AF92BF92DF92EF9214
:1039A000FF920F931F93CF93DF93CDB7DEB7A1970D
:1039B0000FB6F894DEBF0FBECDBF7C01F42FD52E1D
:1039C000CB0119A2223008F42AE08E010F5D1F4FAF
:1039D000822E912CA12CB12C6F2F7D2DA50194014D
:1039E0000E94F423F22FD32ECA01015011096A302C
:1039F00014F4E0E301C0E7E3E60FD801EC93232BD6
:103A0000242B252B49F7B801C7010E94951CA196CC
:103A10000FB6F894DEBF0FBECDBFDF91CF911F91DF
:103A20000F91FF90EF90DF90BF90AF909F908F909D
:103A30000895CF92DF92EF92FF920F931F93CF934F
:103A4000DF93EC016A017B012115310579F4E881EE
:103A5000F9810190F081E02D642FDF91CF911F91CA
:103A60000F91FF90EF90DF90CF9009942A303105AD
:103A7000E9F477FF1AC06DE20E94AD1C8C01442767
:103A80005527BA014C195D096E097F092AE0CE015C
:103A90000E94CA1C800F911FDF91CF911F910F913F
:103AA000FF90EF90DF90CF9008952AE0B701A60134
:103AB000CE01DF91CF911F910F91FF90EF90DF909A
:103AC000CF900C94CA1C0F931F93CF93DF93EC01FC
:103AD0009A01AB01662757FD6095762F0E94191D4C
:103AE0008C01CE010E94B41C800F911FDF91CF91F9
:103AF0001F910F9108952115310541F4DC01ED91DD
:103B0000FC910190F081E02D642F09940C94CA1C63
:103B10009A01462F50E060E070E00C947B1D9A0102
:103B2000AB0160E070E00C947B1D0F931F93CF936B
:103B3000DF93EC010E947B1D8C01CE010E94B41C1E
:103B4000800F911FDF91CF911F910F9108956150C8
:103B500030F02091F100FC0120830196F8CF2898E5
:103B600084E680934F04089540914A0450914B0499
:103B7000209148043091490442175307B4F49091BE
:103B8000E8009570E1F39091E80092FD19C08093F0
:103B9000F10080914A0490914B0401968F7399270C
:103BA000892B19F48EEF8093E80080914A0490915C
:103BB0004B04019690934B0480934A0481E008954E
:103BC00080E00895CF92DF92EF92FF920F931F93C0
:103BD000CF93DF931F92CDB7DEB7082F162FF42EA9
:103BE000862F880F8E5F99830E94B41D83E00E9408
:103BF000B41DE02EC02E9981D92E8C2D8E198117DF
:103C000098F4F601F7FE02C0849101C080810E9401
:103C1000B41D082F80E00E94B41D8023FFEFCF1A4F
:103C2000DF0A8111EACF01C081E00F90DF91CF91CF
:103C30001F910F91FF90EF90DF90CF9008958091AA
:103C4000D70081608093D70080EA8093D80089B53F
:103C5000806189BD89B5826089BD09B400FEFDCF50
:103C600061E070E080E090E00E94A6198091D800A9
:103C70008F7C80618093D8008091E000807F80936A
:103C8000E0000895CF93DF931F92CDB7DEB719827E
:103C9000CE0101960E943F1B0E94BE22BE016F5FB3
:103CA0007F4F0E94372289810F90DF91CF91089535
:103CB0002FB7FC012083F89467706093E9000895A2
:103CC000CF93DF931F92CDB7DEB7682FCE01019659
:103CD0000E94581E8091F20099819FBF0F90DF9142
:103CE000CF910895FF920F931F93CF93DF9300D04E
:103CF000CDB7DEB7F62E8A0190914E04992311F0CC
:103D000057FF03C08FEF9FEF2BC0682FCE010196A6
:103D10007A830E94581E8091F20090E0A8017A8177
:103D2000801791070CF4AC01EF2DF72FF40E84E609
:103D3000FE1639F0289880934F049091F1009193EA
:103D4000F7CF4115510521F08091F200882321F031
:103D500089818FBFCA0104C08BE68093E800F8CF49
:103D60000F900F90DF91CF911F910F91FF900895C9
:103D7000CF93DF931F92CDB7DEB741E050E0BE0195
:103D80006F5F7F4F0E94721E019719F4898190E046
:103D900002C08FEF9FEF0F90DF91CF910895CF93E7
:103DA000DF931F92CDB7DEB7682FCE0101960E9438
:103DB000581E9091E800892F807295FF04C0909161
:103DC000F20080E4891B99819FBF0F90DF91CF9112
:103DD00008956F927F928F929F92AF92BF92CF92EF
:103DE000DF92EF92FF920F931F93CF93DF931F9277
:103DF000CDB7DEB7782E7B01C42EB52E80914E0450
:103E0000882369F0042F152F8AEFD82E872D807212
:103E1000982E9AE3A92E872D8074882E11C08FEFDB
:103E20009FEF57C0872D0E94CF1E682E81110CC0B6
:103E3000DA94A9F361E070E080E090E00E94A619B6
:103E40000115110579F73BC0282F30E00217130741
:103E50000CF4602E672DCE0101960E94581E8091B1
:103E6000E80085FF29C0262D30E0021B130B9920A6
:103E700039F06A948FEF6816B1F01092F100F9CF23
:103E8000F701862D77FE07C0815058F094919093EA
:103E9000F1003196F9CF815020F091919093F1008B
:103EA000FACFE20EF31E8091E80085FF0FC00115E6
:103EB000110511F481100AC089818FBFC1CF5D98AF
:103EC00084E6809350048C2D9B2D03C0A092E800C3
:103ED000F3CF0F90DF91CF911F910F91FF90EF9053
:103EE000DF90CF90BF90AF909F908F907F906F901A
:103EF00008951092E90010924B0410924A04909396
:103F00004904809348040895CF92DF92FF920F9363
:103F10001F93CF93DF9300D0CDB7DEB7F82E8A0181
:103F20006B0101151105B1F0F601F7FE02C0849195
:103F300001C0808149835A830E94B41D0150110938
:103F4000FFEFCF1ADF0A49815A818111EACF8FEF43
:103F50009FEF01C0CA010F900F90DF91CF911F9189
:103F60000F91FF90DF90CF900895BF92CF92DF9294
:103F7000EF92FF920F931F93CF93DF936C018B010E
:103F8000EB013BEFB32E2097C1F07E01C134D10588
:103F90001CF020E4E22EF12C8091E80082FFFCCF9F
:103FA000C8018C1B9D0B6E2D8C0D9D1D0E94A71DA5
:103FB000B092E800CE19DF09E6CFC801DF91CF91BA
:103FC0001F910F91FF90EF90DF90CF90BF900895D9
:103FD0001F920F920FB60F921124DF92EF92FF9271
:103FE0000F931F932F933F934F935F936F937F9301
:103FF0008F939F93AF93BF93EF93FF93CF93DF93F1
:10400000CDB7DEB76C97DEBFCDBF1092E9008091CF
:10401000E80083FF23C168E0CE0145960E94A71DFA
:1040200082EF8093E8003D8937FF05C08091E8006A
:1040300080FFFCCF03C08EEF8093E800832F807653
:1040400009F0F0C02E894F89D88C21110CC030386E
:1040500029F480914D048093F10002C01092F10088
:104060001092F100F4C0842F90E09D29213049F492
:104070003111EDC0019709F0EAC080914D048D7FA8
:104080000AC0233059F43111E2C0019709F0DFC0B2
:1040900080914D04826080934D04D9C0253041F455
:1040A0008091E80080FFFCCF40684093E300CFC0E0
:1040B000263009F08DC0EB8CFC8C22E0D2122CC093
:1040C00080E090E00E94791F0E94421E99E08E01DC
:1040D0000F5F1F4FF801292F11922A95E9F7998355
:1040E000DA8291E09E8390EA98879AEF99872091EF
:1040F0004A0430914B04275F3F4F3C832B838D83D1
:10410000C7010E94791F49E050E0B80180E00E9499
:10411000841F0E94421E9BC0C7010E94791F0E94FB
:10412000BE22BE016B5E7F4F0E946022009719F095
:104130000CF08DC090C081E0D8120EC08B8D9C8D8C
:10414000089719F481E08093470480914704811116
:104150002FC067E971E031C0E3E0DE127CC08F89D7
:10416000882349F1823029F440E860E185EB91E051
:104170001CC0813029F440E86BE089EA91E015C069
:10418000833009F068C00E94BE228E010F5F1F4F6E
:10419000B8010E947F22F80101900020E9F73197D1
:1041A000E01BF10B40E06E2FC8010E94E21D4DC0E4
:1041B00065E871E002C066EC71E06115710509F413
:1041C0004AC0FB01449150E080E80E94841F3FC038
:1041D000273009F440C0283021F481E08093F100B9
:1041E00036C02930A1F53370B1F5E9E1F1E081E0A5
:1041F00021E036E39081992361F08093E9002093D8
:10420000EB0091919093EC003093ED008F5F87303D
:1042100089F78EE78093EA001092EA008F898093F5
:104220004E0415C08B8D9C8D0E94791F898D811144
:1042300005C0CE0145960E944A1B07C00E94BE22BF
:10424000BE016B5E7F4F0E949E22882321F08EEF7D
:104250008093E80003C081E28093EB006C960FB678
:10426000F894DEBF0FBECDBFDF91CF91FF91EF91EC
:10427000BF91AF919F918F917F916F915F914F917E
:104280003F912F911F910F91FF90EF90DF900F9032
:104290000FBE0F901F9018958093E9008091F20057
:1042A000882319F08AE38093E80008951F920F9203
:1042B0000FB60F9211242F933F934F935F936F93F9
:1042C0007F938F939F93AF93BF93CF93EF93FF937E
:1042D000C091E1008091E100837F8093E1008093B1
:1042E000E100C3FF0FC01092E90081E08093EB0072
:1042F0001092EC0082E38093ED0010924E0488E06F
:104300008093F000C2FF19C083E00E944C2180918D
:104310005004882339F080915004815080935004D8
:10432000882389F180914F04882339F080914F04CC
:10433000815080934F04882341F1C4FF10C08091C5
:10434000E2008E7E81608093E2008091E1008F7EAA
:104350008093E10080914C048E7E806111C0C0FF8B
:1043600016C08091E2008E7E80618093E200809191
:10437000E1008E7E8093E10080914C048E7E81600E
:1043800080934C0404C05D9ACDCF289AD6CFFF917C
:10439000EF91CF91BF91AF919F918F917F916F914D
:1043A0005F914F913F912F910F900FBE0F901F90F3
:1043B000189510924E0410924D0410924C040E94D5
:1043C0001F1E8091E1008E7E8093E1008DE080933E
:1043D000E200559A209AEEEFFFE7859194918B3F8A
:1043E0009C4D19F481E080933F040895CF93DF93AF
:1043F00000D000D0CDB7DEB79B01AC0161157105CF
:104400008105910569F069833A834B835C830E943F
:10441000D22529813A814B815C810E94162403C0F8
:1044200060E070E0CB010F900F900F900F90DF9144
:10443000CF910895CF92DF92EF92FF926B017C01B2
:10444000621773078407950764F4CA01B9016C19F0
:104450007D098E099F090E94F6216C0D7D1D8E1D20
:104460009F1DFF90EF90DF90CF9008950895EF92F9
:10447000FF920F931F93CF93DF937B01FC01C281C7
:10448000D38100E010E0209781F0E881F98102807B
:10449000F381E02DB701CE01099597FD08C0080F03
:1044A000191F0884D985C02DEECFC80102C08FEF37
:1044B0009FEFDF91CF911F910F91FF90EF900895A3
:1044C0000F931F93CF93DF938B01FC01C281D381A4
:1044D000209771F0E881F9810480F581E02DB80121
:1044E000CE010995009731F40884D985C02DF0CF0D
:1044F00080E090E0DF91CF911F910F9108950F938D
:104500001F93CF93DF938B01FC01C281D38120974E
:1045100071F0E881F9810680F781E02DB801CE01C4
:104520000995080F111D0884D985C02DF0CFF80119
:104530001082DF91CF911F910F9108950F931F93D8
:10454000CF93DF938B01FC01C281D381209771F05F
:10455000E881F9810190F081E02DB801CE01099543
:10456000811106C00884D985C02DF0CF80E001C03C
:1045700081E0DF91CF911F910F91089580915504B3
:1045800081110DC082E08093510484E08093520435
:10459000109254041092530481E08093550481E5F5
:1045A00094E008950CD0E6C0DED040F0D5D030F0D5
:1045B00021F45F3F19F0C7C0511110C1CAC0EBD040
:1045C00098F39923C9F35523B1F3951B550BBB27DA
:1045D000AA2762177307840738F09F5F5F4F220F87
:1045E000331F441FAA1FA9F333D00E2E3AF0E0E880
:1045F00030D091505040E695001CCAF729D0FE2FCC
:1046000027D0660F771F881FBB1F2617370748075D
:10461000AB07B0E809F0BB0B802DBF01FF27935813
:104620005F4F2AF09E3F510568F08DC0D7C05F3FB5
:10463000ECF3983EDCF3869577956795B795F795FB
:104640009F5FC9F7880F911D9695879597F90895F3
:10465000E1E0660F771F881FBB1F6217730784078F
:10466000BA0720F0621B730B840BBA0BEE1F88F79E
:10467000E095089598D088F09F5790F0B92F99272A
:10468000B751A0F0D1F0660F771F881F991F1AF05D
:10469000BA95C9F712C0B13081F09FD0B1E008954A
:1046A0009CC0672F782F8827B85F39F0B93FCCF3CB
:1046B000869577956795B395D9F73EF49095809553
:1046C000709561957F4F8F4F9F4F0895E89409C073
:1046D00097FB3EF490958095709561957F4F8F4F35
:1046E0009F4F9923A9F0F92F96E9BB279395F6954B
:1046F000879577956795B795F111F8CFFAF4BB0FC9
:1047000011F460FF1BC06F5F7F4F8F4F9F4F16C02C
:10471000882311F096E911C0772321F09EE8872FB6
:10472000762F05C0662371F096E8862F70E060E072
:104730002AF09A95660F771F881FDAF7880F9695EB
:10474000879597F9089597F99F6780E870E060E092
:1047500008959FEF80EC089500240A94161617061A
:1047600018060906089500240A9412161306140662
:1047700005060895092E0394000C11F4882352F0C5
:10478000BB0F40F4BF2B11F460FF04C06F5F7F4F7D
:104790008F4F9F4F089557FD9058440F551F59F064
:1047A0005F3F71F04795880F97FB991F61F09F3F1E
:1047B00079F087950895121613061406551FF2CF47
:1047C0004695F1DF08C0161617061806991FF1CF97
:1047D00086957105610508940895E894BB276627BE
:1047E0007727CB0197F90895A1E21A2EAA1BBB1BCC
:1047F000FD010DC0AA1FBB1FEE1FFF1FA217B307AD
:10480000E407F50720F0A21BB30BE40BF50B661FC2
:10481000771F881F991F1A9469F760957095809586
:1048200090959B01AC01BD01CF010895052E97FB2A
:104830001EF400940E942D2457FD07D00E94F423FB
:1048400007FC03D04EF40C942D24509540953095E0
:1048500021953F4F4F4F5F4F0895909580957095EC
:1048600061957F4F8F4F9F4F0895EE0FFF1F05906B
:10487000F491E02D099469279627692778278727DF
:10488000782708950E944D24A59F900DB49F900D08
:10489000A49F800D911D11240895A29FB001B39F84
:1048A000C001A39F700D811D1124911DB29F700D39
:1048B000811D1124911D0895CF93DF9382309105BE
:1048C00010F482E090E0E0915F04F091600420E059
:1048D00030E0A0E0B0E0309739F1408151814817D5
:1048E0005907B8F04817590771F4828193811097DE
:1048F00029F013969C938E9312972CC0909360048A
:1049000080935F0427C02115310531F0421753070A
:1049100018F0A901DB0101C0EF019A01BD01DF011F
:104920000280F381E02DD7CF21153105F9F0281B46
:10493000390B2430310580F48A819B816115710522
:1049400021F0FB019383828304C0909360048093E1
:104950005F04FE01329644C0FE01E20FF31F819313
:10496000919322503109398328833AC020915D0404
:1049700030915E04232B41F4209102013091030118
:1049800030935E0420935D04209100013091010179
:104990002115310541F42DB73EB7409104015091E6
:1049A0000501241B350BE0915D04F0915E04E217D4
:1049B000F307A0F42E1B3F0B2817390778F0AC0142
:1049C0004E5F5F4F2417350748F04E0F5F1F50931F
:1049D0005E0440935D048193919302C0E0E0F0E0B7
:1049E000CF01DF91CF910895CF93DF93009709F422
:1049F00087C0FC01329713821282C0915F04D0916C
:104A00006004209781F420813181280F391F809123
:104A10005D0490915E048217930779F5F0935E042C
:104A2000E0935D046DC0DE0120E030E0AE17BF070B
:104A300050F412964D915C9113979D0141155105CB
:104A400009F1DA01F3CFB383A28340815181840F4E
:104A5000951F8A179B0771F48D919C911197840F74
:104A6000951F02969183808312968D919C91139746
:104A7000938382832115310529F4F0936004E09338
:104A80005F043EC0D9011396FC93EE9312974D91AB
:104A90005D91A40FB51FEA17FB0779F4808191811E
:104AA000840F951F0296D90111969C938E93828153
:104AB000938113969C938E931297E0E0F0E08A81A5
:104AC0009B81009719F0FE01EC01F9CFCE0102960F
:104AD00028813981820F931F20915D0430915E04FB
:104AE0002817390769F4309729F41092600410925E
:104AF0005F0402C013821282D0935E04C0935D04EF
:104B0000DF91CF9108958F929F92AF92BF92CF92F3
:104B1000DF92EF92FF92CF93DF93EC01688179816E
:104B20008A819B81611571058105910521F464E2FB
:104B300079ED8BE597E02DE133EF41E050E00E9405
:104B4000162449015A019B01AC01A7EAB1E40E9475
:104B500042246B017C01ACEEB4EFA50194010E94EC
:104B60000D26C60ED71EE81EF91EF7FE06C081E010
:104B7000C81AD108E10880E8F80AC882D982EA8216
:104B8000FB82C701B6019F77DF91CF91FF90EF9035
:104B9000DF90CF90BF90AF909F908F9008950E942C
:104BA0008325089586E091E00E948325089560930F
:104BB00006017093070180930801909309010895FD
:104BC000FB01DC0104C08D910190801921F441505A
:104BD0005040C8F7881B990B0895FB01DC01019038
:104BE0000D920020E1F70895F999FECF92BD81BDA5
:104BF000F89A992780B50895262FF999FECF1FBA04
:104C000092BD81BD20BD0FB6F894FA9AF99A0FBEF5
:104C100001960895B7FF0C9442240E944224821BFF
:084C2000930B0895F894FFCFF7
:104C2800000061048000010000000004FFFFFFFF96
:104C380000E100000000000000C180810000004683
:104C480061696C656420746F20636F6E666967754F
:104C580072652045746865726E6574207573696E37
:104C6800672044484350004D7920495020616464CE
:104C7800726573733A20002E00426F6F74206E7550
:104C88006D6265723A20005061636B657443616DB3
:104C98006500436F6E74656E74733A0073697A6564
:104CA800206973203A00000000001D04F003C503CA
:104CB800CD03E003EF0357495A6E65740000000006
:104CC80000481171118B119611B411D7115912DBCB
:104CD80011B011BC12FD125E1166113E11000000E8
:104CE8000056139F135213B313F9136C1363147EF6
:104CF800139313AB149B131214DC1337133E134E88
:104D08001300000000E21A291B0C1B1C1BF81A09CF
:104D18001B00000000051C0D0A006E616E00696E24
:064D280066006F766600D4
:00000001FF
