:100000000C9492010C949B200C94C2200C94E92037
:100010000C9410210C94BA010C94BA010C94372161
:100020000C94BA010C94BA010C945D2B0C94EF293A
:100030000C94BA010C94BA010C94BA010C94BA0154
:100040000C94BA010C94BA010C94BA010C94BA0144
:100050000C94BA010C94BA010C94BA010C945E2170
:100060000C94BA010C94BA010C94BA010C94BA0124
:100070000C94BA010C94BA010C94BA010C94BA0114
:100080000C94BA010C94BA010C94BA010C94BA0104
:100090000C9426090C94BA010C94BA010C94BA0180
:1000A0000C94BA010C94BA010C94BA01BB22BE2282
:1000B000AD22B122B722DF22DF22DF22C222C622F6
:1000C000CA22D022D422DF22DA224465766963650F
:1000D000206973206E6F7420612044533138783268
:1000E000302066616D696C79206465766963652E80
:1000F00000005EBCE2613FDD83C29C7E20A3FD1F49
:10010000419DC3217FFCA2401E5F01E3BD3E608292
:10011000DC237D9FC1421CFEA0E1BF5D0380DE3C6D
:1001200062BEE0025CDF81633D7C22C09E1D43A174
:10013000FF4618FAA427799BC584DA3866E5BB59CF
:1001400007DB856739BAE406581947A5FB7826C44A
:100150009A653BD987045AB8E6A7F91B45C6987A31
:1001600024F8A6441A99C7257B3A6486D85B05E72C
:10017000B98CD2306EEDB3510F4E10F2AC2F71939B
:10018000CD114FADF3702ECC92D38D6F31B2EC0EFA
:1001900050AFF1134DCE90722C6D33D18F0C52B005
:1001A000EE326C8ED0530DEFB1F0AE4C1291CF2DDC
:1001B00073CA947628ABF517490856B4EA6937D55F
:1001C0008B5709EBB536688AD495CB2977F4AA48C2
:1001D00016E9B7550B88D6346A2B7597C94A14F6B9
:1001E000A8742AC896154BA9F7B6E80A54D7896BA4
:1001F00035070605040100080A0B0C0D0900000074
:100200000200090F0000030401000C0000000000C0
:1002100000000000000000000000000004080201CF
:10022000104080401020408040800802040180403F
:100230002010020110801020404020040404040417
:100240000304050202020204030202020206060679
:100250000606060404020202040400000000230053
:10026000260029002C002F00000000002500280097
:100270002B002E00310000000000240027002A007F
:100280002D003000080B00020202010009040000EA
:1002900001020200000524001001052401010104EF
:1002A0002402060524060001070581031000400909
:1002B000040100020A0000000705020240000007D6
:1002C00005830240000012010002EF0201404123B9
:1002D000368000010102030112010002000000400B
:1002E0004123368000010102030141726475696E89
:1002F0006F204C4C430041726475696E6F204C65F1
:100300006F6E6172646F0004030904001C04DB0853
:10031000D20AA910801471167C16591864183F204F
:10032000BD24452511241FBECFEFDAE0DEBFCDBFCF
:1003300012E0A0E0B1E0E0E8F2E602C005900D9224
:10034000AA35B107D9F725E0AAE5B2E001C01D92B0
:10035000AE33B207E1F713E0C4E2D3E004C0229762
:10036000FE010E944F2FCC30D107C9F70E945525BE
:100370000C943E310C9400008091F402811117C05E
:1003800080E090E0A0E4B1E480935E0290935F028D
:10039000A0936002B0936102109262026AE070E082
:1003A00080E090E00E94D72181E08093F402809168
:1003B0005A0290915B02A0915C02B0915D0201969D
:1003C000A11DB11D80935A0290935B02A0935C0221
:1003D000B0935D028091F402811117C080E090E03B
:1003E000A0E4B1E480935E0290935F02A093600268
:1003F000B0936102109262026AE070E080E090E0E7
:100400000E94D72181E08093F40280915A0290915A
:100410005B02A0915C02B0915D02682F61708DE07B
:100420000C9419231F93CF93DF93FC01648D758D7A
:10043000868D978D24E630E040E050E00E940C2F3E
:10044000672B682B692B49F484E690E00E942031E9
:1004500061E0680F84E690E00BC0C4E6D0E010E0F5
:10046000CE010E942031811740F461E0680FCE0177
:10047000DF91CF911F910C9428312196C83CD10572
:1004800011F0182FEDCFDF91CF911F910895CF92EA
:10049000DF92EF92FF920F931F93CF93DF93EC01C4
:1004A000198A188A80E190E09B8B8A8B83E690E022
:1004B0009D8B8C8B0E9420318F3FB9F404E610E0B5
:1004C00060E0C8010E9428310F5F1F4F083C1105F2
:1004D000B9F70C891D89C8010E9420318823E9F0F1
:1004E00060E0C8010E94283118C0C12CD12C7601CF
:1004F00004E610E0C8010E942031C80ED11CE11CA6
:10050000F11C0F5F1F4F083C1105A1F7CC8EDD8E4B
:10051000EE8EFF8ECE010E941202C888D9887E011D
:1005200000E110E0CC1ADD0AC6018E0D9F1D0E946D
:100530002031F70181937F0101501109A9F705E0EE
:1005400010E08A899B89800F911F0E942031FE0153
:10055000E00FF11F868B0150110999F7DF91CF91C0
:100560001F910F91FF90EF90DF90CF9008958F92A1
:100570009F92AF92BF92DF92EF92FF920F931F93E1
:10058000CF93DF93CDB7DEB7C554D1090FB6F8943A
:10059000DEBF0FBECDBF7C018B01DC0114961D9226
:1005A0001D921D921C92179788E018968C930E94BA
:1005B000B421F80183889488A588B68868197909D8
:1005C0008A099B0980809180A280B3808616970655
:1005D000A806B90608F012C15801F7E0AF0EB11C29
:1005E000D8011596ED91FC9116978EE0DE019B9651
:1005F00001900D928A95E1F741E0BE016F5F7F4F58
:10060000CE018B960E94D51D882379F0FE0131968C
:10061000D501CE01099621912D93E817F907D9F755
:1006200067E0CE0101960E94721EF8018481058068
:10063000F681E02D9EE0DE015D9601900D929A9587
:10064000E1F78C3031F08B3031F08A3031F02FE12E
:1006500005C02FE703C02FE501C02FE3CE014D9663
:1006600026962FAF26970E947D1CB501CE014D9690
:100670000E94781D40E06EE4CE014D960E941A1D46
:1006800040E060E0CE014D960E941A1D40E060E01F
:10069000CE014D960E941A1D40E026962FAD26975A
:1006A000622FCE014D960E941A1D40E068E4CE01F3
:1006B0004D960E941A1DD8011596ED91FC91169742
:1006C0008EE0DE011F9601900D928A95E1F7CE0132
:1006D0000F960E947D1CB501CE010F960E94781DD9
:1006E00041E064E4CE010F960E941A1DD8011596D0
:1006F000ED91FC9116978EE0DE01119601900D921E
:100700008A95E1F7F8018781823271F0883261F0D1
:10071000803119F4DD24D39408C06AEC70E08CECCD
:1007200094E00E94B02501C0D12CCE0101960E9418
:100730007D1CB501CE0101960E94781D40E06EEB54
:10074000CE0101960E941A1D5E01F9E3AF0EB11CA5
:10075000450189E0880E911CCE0101960E945C1D26
:10076000D5018D935D01A815B905B1F76AAD70E0AB
:10077000762F662789AD682BDD2041F133E0660FC7
:10078000771F3A95E1F721968FAD2197803151F48B
:10079000CB01807F2FAD6CE070E0621B7109680FA8
:1007A000791F14C08DAD807631F423E0660F771F7A
:1007B0002A95E1F70BC0803229F4660F771F660F88
:1007C000771F04C0803411F4660F771F80E090E03B
:1007D0000E94DB2D20E030E040E85DE30E94912E96
:1007E000F8016787708B818B928B0E94B421D801AE
:1007F00053966D937D938D939C935697F8018785BF
:100800009089A189B289F70180839183A283B38300
:10081000C701CB5BDF4F0FB6F894DEBF0FBECDBF75
:10082000DF91CF911F910F91FF90EF90DF90BF90DC
:10083000AF909F908F9008950F93CF93DF9300E038
:1008400020E040E060E082EB93E00E941E2582E918
:1008500093E00E94470289E395E09093FD02809324
:10086000FC0280EC8093FE0288EA8093FF0281E024
:100870008093000385E38093010310926603109236
:10088000670388E693E00E94E61783E893E00E94FE
:10089000891580EE9BEA909391038093900383E205
:1008A00090E09093F0028093EF021092F30280E8C0
:1008B00094E8AEE1B0E08093D8029093D902A0937F
:1008C000DA02B093DB028AE08093DC021092E70246
:1008D0001092E8021092E9021092EA021092EB02E2
:1008E0001092EC021092ED021092EE028EE090E077
:1008F0000E946825EC0167E00E94B21DD093DE02E1
:10090000C093DD0249E050E068E070E08AEC92E0DC
:100910000E947E1E1092C702CEE9D2E084E1888355
:1009200082E180939D0260E00E94E02261E0888184
:100930000E94E02261E08881DF91CF910F910C94B9
:100940001923CF92DF92EF92FF920F931F93CF93D1
:10095000DF9300D000D000D0CDB7DEB77C018B0193
:1009600061E08BE00E94E02260E08BE00E941923AE
:100970006AE070E080E090E00E94D72161E08BE0C7
:100980000E94192368EC70E080E090E00E94D7217B
:10099000B80184E894E00E947313892B41F46AE261
:1009A00071E08CEC94E00E94C22580E046C062E5D4
:1009B00071E08CEC94E00E94A3258E010D5F1F4F27
:1009C0006E0187E0C80ED11C64E874E0CE01019688
:1009D0000E945D14F80161918F014AE050E08CECB7
:1009E00094E00E94922662E671E08CEC94E00E9412
:1009F000A3250C151D0541F78CEC94E00E94AC2555
:100A000043E064E089E190E00E94681A48EE64E007
:100A10008AE190E00E94681A43E064E08BE190E094
:100A20000E94681AF701EC56FF4F60817181C7017F
:100A300084599F4F0E94B31781E026960FB6F89411
:100A4000DEBF0FBECDBFDF91CF911F910F91FF9001
:100A5000EF90DF90CF90089540E052EC61E070E0BD
:100A60008CEC94E00E94A82488EB93E00E94D108CB
:100A700044EF51E060E070E088EB93E00E94A8272B
:100A80008CEC94E00E94AE248823D1F364E671E0FC
:100A90008CEC94E00E94A3254091AE035091AF03EB
:100AA0006091B0037091B1032AE030E08CEC94E0E7
:100AB0000E94992662E080E00E94E0228091F40288
:100AC000811117C080E090E0A0E4B1E480935E0261
:100AD00090935F02A0936002B09361021092620251
:100AE0006AE070E080E090E00E94D72181E080938E
:100AF000F40261E08DE00E94E022809162028111A7
:100B000018C062E083E00E94E02281E080936202EC
:100B10000E94B42160936302709364028093650223
:100B20009093660242E050E06CEB71E080E00E943E
:100B30004B208AE592E09093C9028093C80268EA4C
:100B400073E08CEF92E00C94A104AF92BF92CF922D
:100B5000DF92EF92FF920F931F93CF93DF93CDB766
:100B6000DEB72C970FB6F894DEBF0FBECDBF8C0159
:100B700084E894E00E94001478018CE6E80EF11CF1
:100B8000C7010E946217069709F070C0F801E35888
:100B9000FF4FA0803196B0803196C0803196D080D2
:100BA00062E771E08CEC94E00E94C225D701ED91E0
:100BB000FC91008CF18DE02D46E050E0BE01695FB4
:100BC0007F4FC70109958F81833709F041C08A851E
:100BD0008237F1F57801B7E8EB0EF11CC7010E94EE
:100BE0004D16882319F0C7010E940C16F8014081A8
:100BF000518188E492E09A838983AB82BC82CD8262
:100C0000DE82BE016F5F7F4FC7010E94A915019769
:100C100069F56DE771E0C7010E94C225D8011296FF
:100C2000AC9212971396BC9213971496CC92149789
:100C30001596DC9265E871E08CEC94E00E94C22588
:100C4000BE01695F7F4F8CEC94E00E94C2250EC00C
:100C50006FE871E08CEC94E00E94C2254AE050E01D
:100C600066E070E08CEC94E00E946D262C960FB646
:100C7000F894DEBF0FBECDBFDF91CF911F910F91D2
:100C8000FF90EF90DF90CF90BF90AF9008954F927C
:100C90005F926F927F928F929F92AF92BF92CF920C
:100CA000DF92EF92FF920F931F93CF93DF93CDB715
:100CB000DEB761970FB6F894DEBF0FBECDBF8CEFE5
:100CC00092E00E94A5050E94B4210091D0021091EB
:100CD000D1022091D2023091D302601B710B820BA2
:100CE000930B6135734C8105910510F10E94B4217D
:100CF0006093D0027093D1028093D2029093D3027A
:100D00000091C70210E080919D020E947222F801BA
:100D1000EE0FFF1FE156FD4F918380838091C70244
:100D200090E0019664E170E00E94F82E8093C70283
:100D30000E94B4210091D4021091D5022091D602D4
:100D40003091D702601B710B820B930B613472449C
:100D50008F40910508F477C10E94B4216093D402BA
:100D60007093D5028093D6029093D7020E94B4214B
:100D70006A877B878C879D878AEC92E00E94BD1FE3
:100D800060936702709368028093690290936A028D
:100D900010926B0210926C0210926D0210926E0211
:100DA00085E080936F028AEC92E00E94A61F609318
:100DB000700270937102809372029093730210928A
:100DC000740210927502109276021092770286E0F9
:100DD000809378020091C8021091C9020E94B42148
:100DE000F8940E94B4214B015C01D801CD90DD90B4
:100DF000ED90FC90F8011082118212821382789497
:100E0000F80181859285A385B485A5019401281BED
:100E1000390B4A0B5B0B2E873F87488B598BC701D9
:100E2000B6010E94DB2DD80114962D913D914D9174
:100E30005C9117970E94422D2B013C01F80181869D
:100E40009286A386B48669E971E08CEC94E00E94F6
:100E5000C2252AE030E0B701A6018CEC94E00E94A4
:100E600099264092790250927A0260927B027092A7
:100E70007C022E853F854889598920937D023093D5
:100E80007E0240937F025093800280E18093810232
:100E900010928602109287021092880210928902A4
:100EA00083E180938A0280E00E944F23BC0188275F
:100EB00077FD8095982F0E94DD2D609382027093BC
:100EC0008302809384029093850268ED72E0CE01E4
:100ED00001960E94B70289E0FE013196ABE8B2E0CC
:100EE00001900D928A95E1F7EFE9F2E060E070E0A1
:100EF000CB0121913191620F731F811D911D32E051
:100F0000E73CF307B1F724E130E040E050E00E9415
:100F10000C2FCA01B9010E94DB2D20E030E44CE91E
:100F200050E40E94912E6B017C016DEB71E08CEC22
:100F300094E00E94C22522E030E0B701A6018CECCB
:100F400094E00E949627A701960160E070EB83E190
:100F500095E40E94D92C20E030E042E852E40E945F
:100F6000422D20E030E040EE50E40E94DA2C609305
:100F7000940270939502809396029093970280E476
:100F800092E4AFE0B0E08093980290939902A0932E
:100F90009A02B0939B0284E080939C0269EC71E01A
:100FA0008CEC94E00E94C2250E94B421AB01BC01EC
:100FB0008A859B85AC85BD85481B590B6A0B7B0BCD
:100FC0002AE030E08CEC94E00E94992607E612E0DB
:100FD000D8014D915D916D917C9122E030E08CECD7
:100FE00094E00E949627075F1F4FB2E00D391B0760
:100FF00079F783E893E00E944D16882321F1409110
:10100000700250917102609172027091730222E03D
:1010100030E083E893E061960FB6F894DEBF0FBE30
:10102000CDBFDF91CF911F910F91FF90EF90DF9097
:10103000CF90BF90AF909F908F907F906F905F9078
:101040004F900C94962761960FB6F894DEBF0FBEB2
:10105000CDBFDF91CF911F910F91FF90EF90DF9067
:10106000CF90BF90AF909F908F907F906F905F9048
:101070004F9008958091E70390E02091E803821B50
:10108000910908952091E8038091E703281750F40F
:10109000E22FF0E0E751FC4F808190E02F5F20933A
:1010A000E80308958FEF9FEF0895E091E8038091A2
:1010B000E703E81730F4F0E0E751FC4F808190E05F
:1010C00008958FEF9FEF08950895CF92DF92EF92EA
:1010D000FF920F931F93CF93DF937C01CB018A0183
:1010E0002091C403222389F0EB016B01C40ED51EAD
:1010F000CC15DD0569F06991D701ED91FC91019066
:10110000F081E02DC7010995F3CF642F0E94FD08FF
:10111000C801DF91CF911F910F91FF90EF90DF9069
:10112000CF900895CF93DF931F92CDB7DEB7698339
:101130002091C4032223D1F02091C503203240F036
:1011400021E030E0FC013383228380E090E015C091
:101150008091C603E82FF0E0E953FC4F998190831A
:101160008F5F8093C6038093C50305C061E0CE0105
:1011700001960E94FD0881E090E00F90DF91CF91F1
:101180000895FC011382128248EE53E060E070E0A3
:1011900044835583668377838DED91E091838083CB
:1011A00008951092E8031092E7031092C60310927C
:1011B000C5030C94DF0888EB93E00C94C1081092EF
:1011C000760481E0809374041092730461E082E0FD
:1011D0000E94192361E083E00E941923E9EBF0E00B
:1011E00080818E7F808380818D7F808388E480935F
:1011F000B80085E48093BC000895613298F4209192
:101200007604243089F460932B04FC018DE294E091
:10121000DC012A2F281B261718F421912D93F9CFD2
:1012200080E0089581E0089582E0089585ED80933F
:10123000BC008091BC0084FDFCCF10927604089520
:1012400085EC8093BC001092760408951F920F9253
:101250000FB60F9211242F933F934F935F936F9389
:101260007F938F939F93AF93BF93EF93FF9380915F
:10127000B900887F803609F49EC078F5883209F479
:101280005DC090F4803109F456C038F4882309F425
:10129000F5C0883009F44FC0F5C0883109F44EC05C
:1012A000803209F45FC0EEC0803409F46AC058F49B
:1012B000803309F457C0883309F0E4C080930904EF
:1012C0000E942009DFC0803509F44FC0883509F439
:1012D0005DC0883409F0D6C0D3C0883909F4C4C0D1
:1012E000A8F4883709F467C038F4883609F463C075
:1012F000803709F460C0C6C0883809F4B5C08039A9
:1013000009F45FC0803809F0BDC05BC0803B09F4C0
:1013100083C038F4803A09F466C0883A09F47CC086
:10132000B1C0803C09F4A4C0883C09F4A1C0883B4A
:1013300009F487C0A7C08091750410C090914E0435
:1013400080914D04981770F5E0914E0481E08E0F66
:1013500080934E04F0E0E15BFB4F80818093BB0003
:1013600085EC83C0809309048BC0E0914E0481E03A
:101370008E0F80934E048091BB00F0E0E15BFB4F49
:10138000808390914E0480914D046BC0E0914E0497
:1013900081E08E0F80934E048091BB00F0E0E15B12
:1013A000FB4F80838091740481116AC081E0809337
:1013B000730484EA5EC083E08093760410920A048A
:1013C000CFCF80910A04803208F04EC0E0910A0429
:1013D00081E08E0F80930A048091BB00F0E0E55F0E
:1013E000FB4F8083BDCF0E94200980910A04803288
:1013F00030F4E0910A04F0E0E55FFB4F1082609169
:101400000A0470E0E0916F04F09170048BE094E0C6
:10141000099510920A0436C084E0809376041092F5
:101420002C0410922B04E0917104F0917204099540
:1014300080912B04811105C081E080932B041092D0
:101440002D04E0912C0481E08E0F80932C04F0E0B9
:10145000E35DFB4F80818093BB0090912C048091D1
:101460002B04981708F47CCF85E88093BC000AC051
:1014700085EC8093BC001092760404C0109209049D
:101480000E941609FF91EF91BF91AF919F918F91AB
:101490007F916F915F914F913F912F910F900FBE70
:1014A0000F901F901895CF93CFB7F8948091770441
:1014B000811127C0ECE4F2E08491EDE2F2E0949136
:1014C000E82FF0E0EE0FFF1FEA58FD4FA591B49111
:1014D0008C91892321F461E081E10E94192361E06C
:1014E00081E10E94E0228CB580618CBD8CB5806466
:1014F0008CBD61E08FE00E94E02261E080E10E940B
:10150000E022809177048F5F80937704CFBFCF91E3
:1015100008950E9624E1FC0111922A95E9F70895A9
:10152000CF93DF93EC01625F7F4F0E942A25CE01AB
:10153000DF91CF910895CF93DF93EC016E5E7F4FE3
:101540000E942A25CE01DF91CF910895CF93DF939A
:10155000EC016A5E7F4F0E942A25CE01DF91CF9178
:101560000895CF93DF93EC01625E7F4F0E942A259E
:10157000CE01DF91CF91089580E3FB018083329605
:10158000842F82958F7090E1899F401911244A30F1
:1015900014F4405D01C0495C4293882311F0482F48
:1015A000EFCF08950F9300E020E040E060E088E78F
:1015B00094E00E941E250F9108956F927F928F9262
:1015C0009F92AF92BF92CF92DF92EF92FF920F93D2
:1015D0001F93CF93DF93CDB7DEB7AC970FB6F894D8
:1015E000DEBF0FBECDBF7C01862EB42EA52E20E21D
:1015F000922ECE0101966C01FC01292D11922A95A3
:10160000E9F70FEF2FEF4FEF6FEF86960E941E2541
:1016100088E492E09AA389A389A59AA5ABA5BCA565
:101620008BA39CA3ADA3BEA38701095B1F4F43E41B
:1016300050E0BE016F5D7F4FC8010E94E316019626
:1016400009F4BFC081E089838A8386E0782E7B829B
:101650001C82F70164817581868197810E94532FD6
:101660006D837E838F839887A986BA8680E890E011
:101670009C878B874CE150E0B601C8010E94EF16B1
:10168000F601292D11922A95E9F7570188E0A80E55
:10169000B11CF501D60101900D927A94E1F740E179
:1016A00050E0B601C8010E94EF16F60111929A941B
:1016B000E9F796E0692E712C40E250E0B601C801CE
:1016C0000E94EF16F1E06F1A7108B1F783E6898383
:1016D00092E89A8393E59B838C8385E38D8381E0F5
:1016E0008E838F829DE3988797E099878A8786E02B
:1016F000F501DE011B9601900D928A95E1F78CE0D1
:10170000898B8A8B69EE71E0CE0143960E94193174
:10171000F7014385BE01675E7F4FC7010E94BC0A87
:10172000F7014485BE01655E7F4FC7010E94BC0A78
:10173000F7014585BE01635E7F4FC7010E94BC0A69
:101740004EE150E0B601C8010E94EF16F3E08F129F
:101750001EC082E3898384E08A83F70196859B8398
:1017600097859C8390899D8391899E8396E39F832F
:101770008887828D8987838D8A87848D8B87858DE5
:101780008C874CE050E0B601C8010E94EF1687E359
:10179000898386E08A8391E09B8393E09C838D8399
:1017A0008FE08E838AE38F838BE388878FEF89872F
:1017B00049E050E0B601C8010E94EF16C8010E943E
:1017C000EB16AC960FB6F894DEBF0FBECDBFDF911F
:1017D000CF911F910F91FF90EF90DF90CF90BF902E
:1017E000AF909F908F907F906F9008952F923F922F
:1017F0004F925F926F927F928F929F92AF92BF9221
:10180000CF92DF92EF92FF920F931F93CF93DF93CC
:10181000CDB7DEB7E3970FB6F894DEBF0FBECDBFEE
:101820007C012A013B0169010E94A8214B015C0156
:101830008701095B1F4FC8010E946217181619061D
:1018400094F00E94A821681979098A099B09461613
:10185000570668067906F0F062E370E080E090E0F9
:101860000E94D721E8CF42E250E0BE016F5F7F4F78
:10187000C8010E942C178981823031F4F8018589D2
:1018800096898334910541F019A6C8010E94BC16BF
:1018900089A566C18FEF64C16D817E818F81988536
:1018A0000E94532F4B015C01F60160837183828398
:1018B000938346E050E0B701685F7F4FCE014D96BD
:1018C0000E940C31892B99F4F70180819181A281CA
:1018D000B38188169906AA06BB0648F084819581D3
:1018E000A681B78188159905AA05BB0528F4C8010A
:1018F0000E94BC1680E034C189899A89AB89BC8971
:10190000F70186879787A08BB18B3EECC32ED12C35
:10191000C8010E940317F1E0CF1AD108C9F719A630
:10192000C70182969BA78AA7F701B696FDA7ECA7E9
:1019300008969FA78EA73C976F018E9699AB88ABB0
:101940003897FBABEAAB5701F6E1AF0EB11C47018C
:101950008EE1880E911CC8010E94A2161816190665
:101960000CF093CFC8010E9403178333910509F44B
:10197000CDC0F4F481309105B9F11CF4892B59F3F1
:10198000DFC083309105C1F1069709F0D9C0C801C5
:101990000E9403173C0144E050E0B401C8010E94DA
:1019A0002C17212C312C7724F4E06F1A71083FC0DA
:1019B0008A33910509F47EC03CF48533910561F0CA
:1019C000C69709F43FC0BCC08B33910509F488C0A9
:1019D0008F3F910501F2B4C0C8010E940317C801EE
:1019E0000E94031789A7B7CFC8010E94031744E0DC
:1019F00050E06AA97BA93AC0C8010E9403173C01C4
:101A000044E050E0B501C8010E942C17212C312C74
:101A1000772494E0691A7108261437040CF09BCFE0
:101A2000C8010E940317EFEF2E1A3E0AF5CF2614C5
:101A300037040CF090CFC8010E9403178FEF281ACB
:101A4000380AF5CFC8010E940317782EF701828D5E
:101A5000811110C0838D81110DC0848D81110AC048
:101A6000858D811107C044E050E0B601C8010E9495
:101A70002C1771CFE8A9F9A92080318042805380CA
:101A8000B601CE0183960E942A258DA19EA1AFA109
:101A9000B8A582159305A405B50529F3212C312C91
:101AA000721409F458CFC8010E940317FFEF2F1AD0
:101AB0003F0AF6CFC8010E94031744E050E06CA52E
:101AC0007DA5C8010E942C17F70166A177A180A50A
:101AD00091A50E94532F66A377A380A791A73BCF20
:101AE000C8010E94031744E050E06EA57FA5C8011D
:101AF0000E942C17F70162A573A584A595A50E94E5
:101B0000532F62A773A784A795A725CFC8010E946A
:101B1000031744E050E06AA57BA5C8010E942C177A
:101B2000F70162A173A184A195A10E94532F62A322
:101B300073A384A395A366A777A780AB91AB0BCFC4
:101B4000C8010E940317382E612C712C361409F439
:101B500002CFC8010E940317FFEF6F1A7F0AF6CF6A
:101B6000E3960FB6F894DEBF0FBECDBFDF91CF91E5
:101B70001F910F91FF90EF90DF90CF90BF90AF90AB
:101B80009F908F907F906F905F904F903F902F909D
:101B900008952F923F924F925F926F927F928F9211
:101BA0009F92AF92BF92CF92DF92EF92FF920F93EC
:101BB0001F93CF93DF93CDB7DEB727970FB6F89477
:101BC000DEBF0FBECDBF8C0120ED37E040E050E01E
:101BD00061E070E080E090E00E94212CD801149632
:101BE0006D937D938D939C931797F8016083718318
:101BF000828393834801F7E48F0E911CC4010E94F5
:101C0000CE1664E470E0C4010E94B317882309F47F
:101C100028C10E94A8216B017C01A12CB12C1D823E
:101C2000180186E4280E311CD801DE96BF83AE83EE
:101C300038EE432E33E0532E612C712CF10180815C
:101C4000833009F4FDC081111FC0F80184819581A2
:101C5000A681B7810196A11DB11D84839583A683BA
:101C6000B7830E94A8216C197D098E099F09A301E1
:101C700092010E940C2FA90161E0C8010E94DD0AB7
:101C800081E0D1018C93BEC08430F9F4F8018481E5
:101C90009581A681B7810196A11DB11D848395838D
:101CA000A683B7830E94A8216C197D098E099F091C
:101CB000A30192010E940C2FA90163E0C8010E94B8
:101CC000DD0AE2E0D101EC939DC0813061F5AE8187
:101CD000BF814D915D916D917C919E012F5F3F4F32
:101CE000C8010E94F60B8D83823009F08BC0898178
:101CF0009A81AB81BC81F80184839583A683B783E5
:101D00000E94A8216C197D098E099F09A3019201E7
:101D10000E940C2FA90163E0C8010E94DD0AED8139
:101D2000D101EC9375C0823009F06CC0AE81BF81E7
:101D30004D915D916D917C919E012F5F3F4FC80148
:101D40000E94F60B8D83853009F056C083E0F101C7
:101D50008083F80182A193A1A4A1B5A1892B8A2B2C
:101D60008B2B41F484E893E0A0E0B0E082A393A33E
:101D7000A4A3B5A3F80186A197A1A0A5B1A5892B1D
:101D80008A2B8B2B61F482A193A1A4A1B5A1B69556
:101D9000A7959795879586A397A3A0A7B1A7D801E4
:101DA0009A964D915D916D917C919D9796968D91AE
:101DB0009D910D90BC91A02D452B462B472B59F49E
:101DC000AC01BD01440F551F661F771FF80142A7E4
:101DD00053A764A775A7F80186A797A7A0ABB1ABD7
:101DE00082A593A5A4A5B5A582AB93ABA4ABB5ABD7
:101DF000AA24A394B12C0CC0FD81F63019F4D101B2
:101E00001C9206C0BD81BF3F19F4F10110821D82F2
:101E1000F1E0AF16B10409F411CF0E94A8216C19AA
:101E20007D098E099F09D801DA962D913D914D913A
:101E30005C91DD97261737074807590708F0FECE53
:101E4000C4010E94CE16F80184819581A681B781D4
:101E50000196A11DB11D84839583A683B783C50117
:101E600002C080E090E027960FB6F894DEBF0FBE68
:101E7000CDBFDF91CF911F910F91FF90EF90DF9039
:101E8000CF90BF90AF909F908F907F906F905F901A
:101E90004F903F902F900895CF92DF92EF92FF9254
:101EA0000F931F93CF93DF93EC016B011AA21BA238
:101EB0001CA21DA21EA21FA218A619A61AA61BA626
:101EC0001CA61DA61EAA1FAA18AE19AE2AAF3BAFAC
:101ED0004CAF5DAFFC01FE96E082F182028313837A
:101EE0008C01085F1F4F86E0F80111928A95E9F78F
:101EF000CE010E94890A86E0F601D80101900D9278
:101F00008A95E1F7FE01EA5BFF4F1082CE01DF9177
:101F1000CF911F910F91FF90EF90DF90CF900C9495
:101F2000C90D8F929F92AF92BF92CF92DF92EF92A4
:101F3000FF920F931F93CF93DF93EC010E94A82190
:101F40006B017C018EA99FA9A8ADB9AD8E010E5B76
:101F50001F4F892B8A2B8B2B09F48FC0F8018081AE
:101F60009181A281B381A7019601281B390B4A0BED
:101F70005B0BCA01B90157FD4EC04601570138EE4F
:101F8000830E33E0931EA11CB11C28EE33E040E029
:101F900050E00E942E2F861A970AA80AB90AF80163
:101FA00080829182A282B382DA01C9010196A11DC9
:101FB000B11D4EA55FA568A979A98C019D01000FEF
:101FC000111F221F331F40175107620773072CF49C
:101FD0001EA61FA618AA19AA08C0481B590B6A0BEF
:101FE0007B0B4EA75FA768AB79AB4AA95BA96CA92D
:101FF0007DA940175107620773072CF41AAA1BAA80
:102000001CAA1DAA08C0481B590B6A0B7B0B4AABC4
:102010005BAB6CAB7DAB8E010A5B1F4FF80180811F
:10202000833081F48EA59FA5A8A9B9A91816190611
:102030001A061B063CF084E08083CE010E94C90D85
:10204000019602C080E090E0F8012081233011F079
:10205000211120C04AA95BA96CA97DA914161506F7
:1020600016061706BCF0F8011082CE010E94890AFC
:10207000CE010E94C90D03960DC0D701C60188513B
:102080009C4FAF4FBF4FF80180839183A283B383EE
:1020900080E090E0CEAADFAAE8AEF9AEDF91CF9162
:1020A0001F910F91FF90EF90DF90CF90BF90AF9076
:1020B0009F908F900895FB014281538164817581C7
:1020C000FC014283538364837583178216820895CB
:1020D000CF93FB0181918111FDCFFB0180E090E066
:1020E00020E030E0CAE06191662309F12430310537
:1020F00064F56E3271F48F3F910509F034F5DA0121
:10210000A20FB31F12968C932F5F3F4F80E090E099
:10211000EACFDC01CA9FC001CB9F900D1124772725
:1021200067FD709560537109860F971FDCCF8F3F55
:10213000910509F054F4243031053CF4FA01E20F22
:10214000F31F828381E090E002C080E090E0CF91B5
:1021500008950F9300E020E040E060E08EE794E017
:102160000E941E250F910895AF92BF92CF92DF92E9
:10217000EF92FF920F931F93CF93DF9300D01F92A4
:10218000CDB7DEB76C017B010E94A821F6017783F1
:1021900066838601085F1F4FB6016A5F7F4F42E08A
:1021A00050E0C8010E94EF1681E090E09A83898395
:1021B00042E050E0BE016F5F7F4FC8010E94EF1602
:1021C00080E091E09A83898342E050E0BE016F5F36
:1021D0007F4FC8010E94EF161A82198242E050E038
:1021E000BE016F5F7F4FC8010E94EF1642E050E0D2
:1021F000BE016F5F7F4FC8010E94EF1642E050E0C2
:10220000BE016F5F7F4FC8010E94EF166701F601A4
:102210008081882311F1F7016F018191811115C02F
:102220005601AE18BF081A141B0494F4AB8241E0A7
:1022300050E0BE016D5F7F4FC8010E94EF16A501FF
:10224000B701C8010E94EF1603C08E3229F7E8CF0C
:102250007601FFEFEF1AFF0ADACF1B8241E050E070
:10226000BE016D5F7F4FC8010E94EF16E12CFF2475
:10227000F394FA82E98242E050E0BE016F5F7F4F43
:10228000C8010E94EF16FA82E98242E050E0BE01E6
:102290006F5F7F4FC8010E94EF1681E090E00F90C2
:1022A0000F900F90DF91CF911F910F91FF90EF90C2
:1022B000DF90CF90BF90AF9008954F925F926F9252
:1022C0007F928F929F92AF92BF92CF92DF92EF92C6
:1022D000FF920F931F93CF93DF93CDB7DEB7639732
:1022E0000FB6F894DEBF0FBECDBF7C015B016A0163
:1022F0000E94A8212B013C018701085F1F4F450167
:10230000A12CB12CC8010E9462171816190694F06E
:102310000E94A821641975098609970986169706EF
:10232000A806B906D0F062E370E080E090E00E9479
:10233000D721E8CFF7014281538164817581818D76
:10234000928DA38DB48D481759076A077B0741F416
:10235000858D968DC59721F406C08FEF9FEFF9C04C
:102360008EEF9FEFF6C0C8010E94A2160C970CF4E6
:10237000EEC04CE050E0BE016F5F7F4FC8010E948D
:102380002C178B819C819827892798279A8B898B7A
:10239000F7014681578129813A814217530711F489
:1023A00097FD06C0C8010E94BC168CEF9FEFD1C0FC
:1023B0008F709270892B31F0C8010E94BC168BEF90
:1023C0009FEFC7C0AF80B884BA24AB24BA24A1144D
:1023D000B10419F0E12CF12C23C0C8010E94BC16F5
:1023E0008AEF9FEFB6C041E050E0BE01635F7F4FD0
:1023F000C8010E942C178D8581111BC08D8581110C
:10240000F2CFC8010E940317C8010E940317C80138
:102410000E940317C8010E940317FFEFEF1AFF0A7B
:102420008D819E81982789279827E816F906D8F28A
:102430000AC08D859FEF980F9D878823F9F2C80108
:102440000E940317F6CFE12CF12C41E050E0BE01D1
:102450006D5E7F4FC8010E942C178B89982F907C4E
:1024600061F4882371F08B899FEF980F9B8B8823F1
:1024700041F0C8010E940317F6CFC8010E9403175C
:102480001B8A8B898111E1CF42E050E0BE01615F80
:102490007F4FC8010E942C1742E050E0BE01635FED
:1024A0007F4FC8010E942C17C8010E940317C80162
:1024B0000E940317C8010E940317C8010E94031756
:1024C00042E050E0BE016F5E7F4FC8010E942C17B2
:1024D0008F8598898115914029F48D859E85811578
:1024E000914019F0812C912C16C089899A89811507
:1024F000944031F0C8010E94BC1687EF9FEF29C0BD
:10250000B6016E5F7F4F44E050E0C8010E942C1777
:1025100081E090E01EC089899A89982789279827A9
:102520008816990638F4C8010E9403172FEF821A03
:10253000920AF1CF8FEFE81AF80AEA14FB0409F0C7
:1025400084CFC8010E94BC1686EF9FEF02C08DEFBA
:102550009FEF63960FB6F894DEBF0FBECDBFDF913D
:10256000CF911F910F91FF90EF90DF90CF90BF9090
:10257000AF909F908F907F906F905F904F90089555
:102580008F929F92AF92BF92CF92DF92EF92FF9283
:102590000F931F93CF93DF9300D000D000D0CDB71F
:1025A000DEB78C015B016A010E9468104C01009744
:1025B00009F05DC0F8014281538164817581809189
:1025C000800490918104A0918204B0918304481703
:1025D00059076A077B0709F44EC00E94A8217801B9
:1025E000F8E0EF0EF11C6F7077277C5FC7010E9447
:1025F000B317813009F043C088E492E09A8389835D
:10260000F80182819381A481B5818B839C83AD8302
:10261000BE8345E350E0BE016F5F7F4FC7010E945C
:10262000E316892B19F4812C912C1DC0B501C8012A
:102630000E94B410892BB9F3C7010E94EB16892BB5
:1026400091F333E0A32EB12CA60168E873E1C80131
:102650000E945D114C01F1E0AF1AB10821F08F3FEB
:102660002FEF920789F3C7010E94CE1608C0882475
:102670008394912C04C09EEF892E99249A94C401CE
:1026800026960FB6F894DEBF0FBECDBFDF91CF9177
:102690001F910F91FF90EF90DF90CF90BF90AF9080
:1026A0009F908F90089524E030E0AC0164E081E0D9
:1026B00090E00C94B11A24E030E0AC0164E085E0D5
:1026C00090E00C94B11A26E030E0AC0164E089E0BF
:1026D00090E00C94B11A24E030E0AC0164E08FE0AB
:1026E00090E00C94B11AAF92BF92CF92DF92EF922A
:1026F000FF920F931F93CF93DF9300D000D000D0B1
:10270000CDB7DEB76C015B0182E690E00E946825E0
:102710008C0182E6F80111928A95E9F7C801895B7C
:102720009F4F0E94E617F601178306838CEB94E017
:102730000E948E1AC5010E94631300E020E040E071
:1027400060E0CE0101960E941E25CE0103960E94F4
:102750006B1318E8E12E13E1F12E00E010E020E603
:102760003AEE40E050E0B501F601868197810E9483
:102770004C0F8C018130910589F5F60166817781D6
:10278000CE0101960E94900ACE0103960E946B131F
:10279000F60166817781CE0101960E94A60ACE01DC
:1027A00003960E945313F60166817781CE0101964C
:1027B0000E949B0ACE0103960E945B13F60166817C
:1027C0007781CE0101960E94B10A4B815C816D81B7
:1027D0007E81F6014283538364837583C801269604
:1027E0000FB6F894DEBF0FBECDBFDF91CF911F9122
:1027F0000F91FF90EF90DF90CF90BF90AF90089532
:10280000EF92FF920F931F93CF93DF9300D000D0EE
:1028100000D0CDB7DEB78C01FC018681978100978F
:10282000E1F10E94910F7C018230910521F084E05A
:10283000E816F104A1F5F80166817781CE010196D1
:102840000E94900ACE0103960E946B13F8016681E4
:102850007781CE0101960E94A60ACE0103960E94BE
:102860005313F80166817781CE0101960E949B0A7D
:10287000CE0103960E945B13F80166817781CE0139
:1028800001960E94B10A4B815C816D817E81F801C5
:10289000428353836483758302C0E12CF12CC7010A
:1028A00026960FB6F894DEBF0FBECDBFDF91CF9155
:1028B0001F910F91FF90EF900895CF93DF93EC015C
:1028C0000E941425AE014E5F5F4F24E030E060E0CF
:1028D0008FE090E00E94C41BCE01DF91CF9108955C
:1028E00028E432E0FC0131832083FB0142815381E3
:1028F00064817581FC0142835383648375830895E9
:102900000F9300E020E040E060E08CE994E00E945A
:102910001E2584E894E00F910C941425DC01ED91C0
:10292000FC91008CF18DE02D099591E089270895A7
:10293000CF93DF931F92CDB7DEB76983DC01ED91B2
:10294000FC910280F381E02D41E050E0BE016F5F19
:102950007F4F09950F90DF91CF91089521E0FC0101
:102960008485883009F420E0822F0895FC01948545
:10297000FB018485981303C081E0983009F480E05E
:1029800008950F931F93CF93DF93EC018A018C85F9
:10299000883021F00E944319892B39F481E090E0BE
:1029A0009B838A8380E090E001C0C801DF91CF91D2
:1029B0001F910F910895FC016485683021F08CEB24
:1029C00094E00C945F1B80E090E00895CF93DF9338
:1029D0001F92CDB7DEB741E050E0BE016F5F7F4F81
:1029E000FC0184850E949519181619061CF489812A
:1029F00090E002C08FEF9FEF0F90DF91CF9108958D
:102A0000FC0184850C9495190F931F93CF93DF934A
:102A10001F92CDB7DEB78C01DC01ED91FC910480F3
:102A2000F581E02D0995892B51F0BE016F5F7F4F35
:102A3000F80184850E94D919898190E002C08FEF46
:102A40009FEF0F90DF91CF911F910F910895FC019F
:102A500084850C94E719CF92DF92EF92FF920F9347
:102A60001F93CF93DF93CDB7DEB7AF970FB6F89430
:102A7000DEBF0FBECDBF7C018B016A01CE01019686
:102A80000E941425CE0109960E94E617CE018A966F
:102A90000E94142564E874E0CE0184960E947014AC
:102AA000BE016C5D7F4FCE0101960E945B10AE01AE
:102AB000465D5F4FB801CE0101960E94C012813081
:102AC0009105C1F4D701ED91FC910484F585E02DC9
:102AD00088E492E09DA38CA30CA51DA52EA53FA57F
:102AE0000EA31FA328A739A7A601BE016C5D7F4FC7
:102AF000C7010995AF960FB6F894DEBF0FBECDBFE4
:102B0000DF91CF911F910F91FF90EF90DF90CF90C9
:102B10000895FC011382128248EE53E060E070E0F9
:102B2000448355836683778384EF91E09183808328
:102B300088E084870895FC016485683041F06295DF
:102B4000660F607E685F83E090E00C94EF1A80E08F
:102B50000895DF92EF92FF920F931F93CF93DF932D
:102B6000EC017B018A018C85883009F04BC0D12CA7
:102B70006D2D6295660F607E685F83E090E00E9435
:102B8000EF1A811102C0DC8607C08B7F8831D9F330
:102B9000D39488E0D812ECCF8C85883099F12091BD
:102BA0000A0130910B012F5F3F4F11F420E034E018
:102BB00030930B0120930A0140910A0150910B01BF
:102BC00020E061E00E94C618B7016E5F7F4FA80148
:102BD0008C850E940619811103C088E08C8712C081
:102BE000CE010E949B15873151F061E070E080E0DA
:102BF00090E00E94D721CE010E949B15ECCF81E08E
:102C000090E002C080E090E0DF91CF911F910F91A2
:102C1000FF90EF90DF900895CF92DF92EF92FF92B6
:102C2000CF93DF93EC018C85883081F10E943C19B1
:102C30000E94A8216B017C01CE010E949B15882374
:102C400059F00E94A8216C197D098E099F09683EE0
:102C500073408105910598F0CE010E949B15882351
:102C600019F08C850E94B818EC85F0E0EE0FFF1F7C
:102C7000E457FB4F1182108288E08C8707C061E027
:102C800070E080E090E00E94D721D6CFDF91CF9115
:102C9000FF90EF90DF90CF900895CF93DF93EC01FA
:102CA0008C858830D1F0CE010E949B158431A9F02B
:102CB000882399F0883189F08C3169F4E881F981B1
:102CC0000480F581E02DCE01099521E0892B09F4DE
:102CD00020E0822F03C081E001C080E0DF91CF912E
:102CE00008950F9300E020E040E060E082EA94E085
:102CF0000E941E250F9108950F9300E020E040E010
:102D000060E088EA94E00E941E250F910895DC019E
:102D1000ED91FC91008CF18DE02D099428E432E0D6
:102D2000FC0131832083FB014189528963897489C5
:102D3000FC0142835383648375830895FC01858974
:102D400096890895FC01818D928D0895CF93DF932C
:102D50001F92CDB7DEB76983DC01ED91FC91028053
:102D6000F381E02D41E050E0BE016F5F7F4F099598
:102D70000F90DF91CF910895CF93DF93EC01898D70
:102D80009A8D892B41F0E881F9810680F781E02D49
:102D9000CE010995F4CFDF91CF910895CF93DF93C2
:102DA000EC018C85883061F00E94B818EC85F0E069
:102DB000EE0FFF1FE457FB4F1182108288E08C87D3
:102DC000DF91CF910895FC01108E178A6E5F7F4FBF
:102DD00084850C94161AFC0184850C943B1ACF93BD
:102DE000DF93EC019A018F89988DAB01BC018C8532
:102DF0000E94E8192F89388D280F391F388F2F8BA3
:102E0000DF91CF9108950F931F93CF93DF931F927C
:102E1000CDB7DEB78C01FC01818D928D892B59F0E5
:102E200041E050E0BE016F5F7F4F84850E9495199D
:102E3000181619061CF08FEF9FEF08C0F801818D5E
:102E4000928D0197928F818F898190E00F90DF9111
:102E5000CF911F910F910895CF93DF93EC01898D4E
:102E60009A8D009719F48FEF9FEF10C048175907FC
:102E700008F0AC018C850E949519181619069CF76C
:102E8000298D3A8D281B390B3A8F298FDF91CF91ED
:102E90000895CF93DF931F92CDB7DEB7FC01218D4C
:102EA000328D232B49F0BE016F5F7F4F84850E94D6
:102EB000D919898190E002C08FEF9FEF0F90DF91C9
:102EC000CF9108950F931F93CF93DF93CDB7DEB7C4
:102ED00028970FB6F894DEBF0FBECDBF8C01DC0182
:102EE000ED91FC910284F385E02D0995F80164854C
:102EF0008CEB94E00E945F1B892B41F148E050E08D
:102F0000BE016F5F7F4FD8011C968C910E9495196E
:102F100018161906ECF4BE016F5F7F4FC8010F96BB
:102F20000E943A258D8190E0982F88272E81820F6C
:102F3000911DF801968B858B8F8190E0982F8827C3
:102F40002885820F911D928F818F02C080E090E0D2
:102F500028960FB6F894DEBF0FBECDBFDF91CF919C
:102F60001F910F910895FF920F931F93CF93DF93BB
:102F7000EC018B018C85883011F5F12C6F2D629559
:102F8000660F607E685F83E090E00E94EF1A811117
:102F900002C0FC8606C08831E1F3F39488E0F812A1
:102FA000EDCF8C85883059F01E870D871A8E198ECB
:102FB00020E0A80162E00E94C61881E001C080E024
:102FC000DF91CF911F910F91FF900895FC01138223
:102FD000128248EE53E060E070E0448355836683DC
:102FE000778384E192E09183808388E08487CF01B6
:102FF0000F960C941425CF92DF92EF92FF920F93CD
:103000001F93CF93DF93CDB7DEB7AF970FB6F8948A
:10301000DEBF0FBECDBF7C018B016A01CE010196E0
:103020000E941425CE0109960E94E617CE018A96C9
:103030000E94142564E874E0CE0184960E94701406
:10304000BE016C5D7F4FCE0101960E945B10AE0108
:10305000465D5F4FB801CE0101960E94C0128130DB
:103060009105C1F4D701ED91FC910088F189E02D23
:1030700088E492E09DA38CA30CA51DA52EA53FA5D9
:103080000EA31FA328A739A7A601BE016C5D7F4F21
:10309000C7010995AF960FB6F894DEBF0FBECDBF3E
:1030A000DF91CF911F910F91FF90EF90DF90CF9024
:1030B00008950F9300E020E040E060E08EEA94E0A5
:1030C0000E941E250F9108950F9300E020E040E03C
:1030D00060E084EB94E00E941E250F910895AB01FF
:1030E000682F6295660F607E645F24E030E08CE0BC
:1030F00090E00C94B11A9B01682F6295660F607E78
:10310000685FC9010C94EF1A62E070E00C947B18C0
:103110009B01682F6295660F607E645FC9010C9405
:10312000681ACF93DF93C82FD62F472F64E070E043
:103130000E9488184D2F65E070E08C2FDF91CF91B1
:103140000C948818462F62E070E00C948818CF9396
:10315000DF93C82FD62F472F60E170E00E948818B8
:103160004D2F61E170E08C2FDF91CF910C94881886
:10317000CF93C82F40E150E0682F8CEB94E00E9481
:103180006D1C6FEF8C2FCF910C94A218EF92FF92D1
:103190001F93CF93DF9300D0CDB7DEB7182F7A01FE
:1031A0008FEF860F853048F5812F2A8369830E942F
:1031B000B8182A816981462F422B60E070E0812F88
:1031C0000E948818E114F10411F0B7010AC060915F
:1031D000BA047091BB046F5F7F4F7093BB04609320
:1031E000BA04812F0E94911841E050E0612F8CEBCE
:1031F00094E00E946D1C81E001C080E00F900F9070
:10320000DF91CF911F91FF90EF9008951F93CF937F
:10321000DF93182FFB01EA0180818F3F51F48181F8
:103220008F3F91F482818F3F79F483818F3F61F4E6
:103230001EC0811109C08181811106C08281811166
:1032400003C08381882399F0209789F0BF01812FE3
:103250000E946F18BE01812F0E94A71844E050E021
:10326000612F8CEB94E00E946D1C81E001C080E036
:10327000DF91CF911F91089548E050E0682F8CEBCB
:1032800094E00C946D1CDF92EF92FF920F931F93CA
:10329000CF93DF93D82E8B01EA01413088E05807A5
:1032A00010F0C0E0D8E06D2D8CEB94E00E942A1B5A
:1032B0007C0163E070E08D2D0E947B18873111F056
:1032C0008C3121F4EC16FD0670F302C0C0E0D0E0B2
:1032D0009E01A8016D2D8CEB94E00E94B91B40E289
:1032E00050E06D2D8CEB94E00E946D1C8D2D0E94A2
:1032F000841884FD0DC063E070E08D2D0E947B1862
:103300008111F4CF8D2D0E94B81880E090E005C0A7
:1033100060E18D2D0E94A218CE01DF91CF911F9107
:103320000F91FF90EF90DF900895DF92EF92FF9260
:103330000F931F93CF93DF93D82E7B018A01682FC1
:103340008CEB94E00E945F1BEC01009799F463E022
:1033500070E08D2D0E947B18843111F1882301F1DA
:10336000C1E0D0E08C3111F4C0E0D0E0D195C1953E
:10337000D10916C0081719070CF4E8011C161D0620
:103380007CF400E09E01A7016D2D8CEB94E00E947F
:103390001C1C40E450E06D2D8CEB94E00E946D1CF1
:1033A000CE01DF91CF911F910F91FF90EF90DF90B1
:1033B00008950F93AB0101E021E030E0682F8CEB22
:1033C00094E00E941C1C81E090E00F910895089504
:1033D000BF92CF92DF92EF92FF920F931F93CF9302
:1033E000DF93B82E7B016A01E901682F8CEB94E032
:1033F0000E942A1B8C179D0730F46B2D8CEB94E0F8
:103400000E942A1BEC018E019601A7016B2D8CEB0B
:1034100094E00E947B1BCE01DF91CF911F910F9111
:10342000FF90EF90DF90CF90BF9008951F93CF93C0
:10343000DF93182FFB01EA018081811109C081818E
:10344000811106C08281811103C08381882369F0C4
:10345000209759F0BF01812F0E946F18BE01812F64
:103460000E94A71881E090E002C080E090E0DF9128
:10347000CF911F910895CF93C82F40E250E0682F5D
:103480008CEB94E00E946D1C8C2F0E94841884FDAC
:103490000CC08C2F0E94841883FFF6CF68E18C2F1C
:1034A0000E94A21880E090E006C060E18C2F0E948C
:1034B000A21881E090E0CF9108958EBD00000DB478
:1034C00007FEFDCF8EB508952E9808952E9A089583
:1034D0001F93CF93DF9300D01F92CDB7DEB7182F85
:1034E0004B836A8399830E94641A9981892F0E9471
:1034F0005D1A812F0E945D1A6A81862F0E945D1AD3
:103500004B81842F0E945D1A0E94661A81E00F9001
:103510000F900F90DF91CF911F910895CF93DF937C
:1035200068EE73E080E090E00E94D721269A0E9426
:10353000530AC0E0DC2FD295DD0FD07ED45F42E08D
:103540006D2F8EE190E00E94681A42E06D2F8FE1AE
:1035500090E00E94681ACF5FC83061F7DF91CF9189
:103560000895CF92DF92EF92FF920F931F93CF9324
:10357000DF9300D000D0CDB7DEB7F82E89014B83A2
:103580005C836A8399830E94641A89810E945D1A10
:103590008F2D0E945D1A6A81862F0E945D1A4B81D1
:1035A000C42E5C81D52E7601E00EF11ECE14DF0410
:1035B00031F0F60181916F010E945D1AF7CF0E94F0
:1035C000661AC8010F900F900F900F90DF91CF9166
:1035D0001F910F91FF90EF90DF90CF9008951F9370
:1035E000CF93DF9300D0CDB7DEB7182F6A839983CE
:1035F0000E94641A89810E945D1A812F0E945D1ABF
:103600006A81862F0E945D1A80E00E945D1A89837C
:103610000E94661A89810F900F90DF91CF911F91C0
:1036200008951F93CF93DF93182F60E270E00E94FC
:103630007B18C82FD0E0DC2FCC2761E270E0812F0F
:103640000E947B189E01280F311DC901DF91CF9187
:103650001F910895FF920F931F93CF93DF93F62E40
:10366000C0E0D0E08F2D0E94111B8C01009721F04B
:103670008F2D0E94111BEC01C017D10799F7CE01C5
:10368000DF91CF911F910F91FF9008951F93CF93DA
:10369000DF93182F66E270E00E947B18C82FD0E0FD
:1036A000DC2FCC2767E270E0812F0E947B189E01FF
:1036B000280F311DC901DF91CF911F910895FF920D
:1036C0000F931F93CF93DF93F62EC0E0D0E08F2DA2
:1036D0000E94461B8C01009721F08F2D0E94461BF3
:1036E000EC01C017D10799F7CE01DF91CF911F915F
:1036F0000F91FF900895CF92DF92EF92FF920F9378
:103700001F93CF93DF93D62EEA01790164E270E034
:103710008D2D0E947B18C82E65E270E08D2D0E94D1
:103720007B18C80FD11D2C2D30E0322F2227C20F5D
:10373000D31F6D2D6295660F607E6C5E9801A701A8
:10374000CE010E94B11AC00FD11F4D2F64E270E06C
:103750008D2D0E9488184C2F65E270E08D2DDF9131
:10376000CF911F910F91FF90EF90DF90CF900C942D
:1037700088180F931F9389019A0140E050E00E943E
:103780007B1B1F910F910895CF92DF92EF92FF92D2
:103790000F931F93CF93DF9300D000D0CDB7DEB748
:1037A000F82E89014B835C836A8399830E94641A93
:1037B00089810E945D1A8F2D0E945D1A6A81862F71
:1037C0000E945D1A4B81C42E5C81D52E7601E00EDD
:1037D000F11ECE14DF0439F080E00E945D1AF6017C
:1037E00081936F01F6CF0E94661AC8010F900F9067
:1037F0000F900F90DF91CF911F910F91FF90EF905D
:10380000DF90CF9008950F931F93CF93DF9300D055
:10381000CDB7DEB75A834983A901980189819A817E
:103820006295660F607E685E0F900F90DF91CF917A
:103830001F910F910C94C41B8F929F92AF92BF92D5
:10384000CF92DF92EF92FF920F931F93CF93DF936C
:103850006C01962E5A017901802E68E270E0892D64
:103860000E947B18C82F69E270E0892D0E947B18A6
:10387000D0E0DC2FCC27C80FD11D87019501AE0108
:10388000692DC6010E94031C81101AC0CE0DDF1DD8
:103890004D2F68E270E0892D0E9488184C2F69E254
:1038A00070E0892DDF91CF911F910F91FF90EF90E4
:1038B000DF90CF90BF90AF909F908F900C9488181E
:1038C000DF91CF911F910F91FF90EF90DF90CF90FC
:1038D000BF90AF909F908F900895CF93C62F61E0D7
:1038E00070E08C2F0E94881861E070E08C2F0E949D
:1038F0007B188111F9CFCF910895FF920F931F93F9
:10390000CF93DF93FC010081C181D281F89489813A
:10391000F02EF0948F21898378941DE7115029F1BE
:1039200082E090E00E94112288818023B9F3F8940C
:103930008A818F218A838981802B8983789480EE84
:1039400091E00E941122F89489818F21898386E475
:1039500090E00E9411228881802311E009F010E09C
:1039600078948AE991E00E941122812FDF91CF9112
:103970001F910F91FF9008951F93CF93DF93FC0148
:103980001081C181D281912F909560FF12C0F8946F
:103990008A8189238A838981812B89838AE090E0C7
:1039A0000E9411228A81812B8A83789487E390E098
:1039B00011C0F8948A8189238A838981812B898324
:1039C00081E490E00E9411228A81812B8A8378947D
:1039D00085E090E0DF91CF911F910C9411220F931D
:1039E0001F93CF93DF93FC011081C181D281F894A2
:1039F0008981812B89838A81012F009580238A8385
:103A000083E090E00E9411228981802389838AE0EB
:103A100090E00E941122C881789485E390E00E9492
:103A200011221C2381E009F480E0DF91CF911F91E6
:103A30000F910895CF92DF92EF92FF920F931F9311
:103A4000CF93DF931F92CDB7DEB76C01E62E08E06F
:103A500010E0FF24F39461E09F2D9E2109F460E0C3
:103A6000C60149830E94BC1CFF0C01501109498109
:103A70000115110581F7411115C0F894D601119671
:103A8000ED91FC91129791818C918095892381838E
:103A90001196ED91FC91129792818C9180958923DA
:103AA000828378940F90DF91CF911F910F91FF90B7
:103AB000EF90DF90CF900895EF92FF920F931F93B6
:103AC000CF93DF938C01C8E0D0E0F12CEE24E39497
:103AD000C8010E94EF1C8111FE28EE0C2197C1F74E
:103AE0008F2DDF91CF911F910F91FF90EF9008954F
:103AF000CF92DF92FF920F931F93CF93DF931F928A
:103B0000CDB7DEB78C01F62E40E065E579830E94E3
:103B10001A1DCF2C7981D72E88E0F82EF6016191FD
:103B20006F0140E0C8010E941A1DFA94B9F70F9086
:103B3000DF91CF911F910F91FF90DF90CF9008956B
:103B4000FC0113861586148627E030E0DF01A20F02
:103B5000B31F13961C922115310519F0215031091C
:103B6000F5CF08951F93CF93DF93EC01162F60E0FC
:103B7000812F0E94E022612F70E0FB01E45EFD4F87
:103B8000E491E883FB01E55CFD4FE491F0E0EE0F8A
:103B9000FF1FE65AFD4F859194919A838983CE0148
:103BA000DF91CF911F910C94A01DAF92BF92CF9245
:103BB000DF92EF92FF920F931F93CF93DF931F92A9
:103BC000CDB7DEB75C01D62EE72EFC0185858111CD
:103BD00064C0C50149830E947D1C4981811105C0D3
:103BE000F50113861586148671C0442319F040E050
:103BF00060EF02C040E06CEEC5010E941A1D01E0BA
:103C0000F12CC12C11E0C5010E94EF1C682FC501E9
:103C100069830E94EF1C6981613019F48130B9F425
:103C200033C02F2D30E068131BC0F50183851817B2
:103C300030F4E20FF31F8381802349F402C0181788
:103C400031F060E0193058F4F501148708C0F5012F
:103C5000EF0DF11D8381802B838361E009C0C12EAC
:103C6000F501E20FF31F8381902F909589238383C1
:103C7000C5010E94BC1C1F5F000F11F4F39401E00A
:103C8000F7E0FF1508F0BFCF113438F0F501C38617
:103C9000C11009C081E0858706C0F501138615862D
:103CA000148680E013C0F50183818823B1F3ED2DE4
:103CB000FE2D80E090E0D501A80FB91F13962C913E
:103CC0002193019688309105B1F781E00F90DF9143
:103CD000CF911F910F91FF90EF90DF90CF90BF9009
:103CE000AF900895DC0180E0615038F0ED91E82755
:103CF000F0E0EF50FF4F8491F7CF0895FC017183FE
:103D00006083538342830895CF92DF92EF92FF92B4
:103D10000F931F93CF93DF93C62ED42E790100E02B
:103D200010E0C0E0D0E00E151F0594F461E08D2D89
:103D30000E941923CC0FDD1F8C2D0E944F23C80F2A
:103D4000D91F60E08D2D0E9419230F5F1F4FEBCF0D
:103D5000CE01DF91CF911F910F91FF90EF90DF90F7
:103D6000CF9008951F93CF93DF93162FC42FD22F98
:103D700061E0842F0E94E02261E08D2F0E94E0220A
:103D800061E08C2F0E94192361E08D2F0E9419237E
:103D900060E08C2F0E94192360E08D2F0E94192370
:103DA00061E08D2F0E94192361E08C2F0E9419235E
:103DB00060E08D2F0E941923212F41E06D2F8C2F61
:103DC0000E94782361E08D2F0E94192362E08C2FDE
:103DD0000E94E0228C2F0E944F2360E08D2F0E94D2
:103DE00019238C2FDF91CF911F910C944F231F9398
:103DF000CF93DF93162F62E0812F0E94E022C8EE5E
:103E0000D3E061E070E080E090E00E94D721812F54
:103E10000E944F23892B11F0219799F7DF91CF91C1
:103E20001F910895CF92DF92EF92FF920F931F930D
:103E3000CF93DF938C01F62ED72EE42EC52E62E0B1
:103E40008F2D0E94E02261E08E2D0E94E02228E06A
:103E500030E04E2D5C2D6F2D7D2DC8010E94841EFB
:103E6000D82F80E0C82F61E08F2D0E94E02261E012
:103E70008F2D0E94192360E08F2D0E94192361E08D
:103E80008E2D0E94192360E08E2D0E94192362E07E
:103E90008F2D0E94E02228E030E04E2D5C2D6F2D0A
:103EA0007D2DC8010E94841E8C2B9D2BDF91CF910C
:103EB0001F910F91FF90EF90DF90CF900895CF93D7
:103EC000DF93D62FC42F61E08D2F0E94E02261E0A6
:103ED0008C2F0E94E02261E08D2F0E94192361E067
:103EE0008C2F0E94192360E08C2FDF91CF910C94CE
:103EF00019230F931F93CF93DF93EC012A813B810A
:103F00004881598163E070E00E94B21E6881798126
:103F1000CE010E94F71E4A815B8168817981CE01C2
:103F20000E94121F8C014A815B8168817981CE01D8
:103F30000E945F1FB801882777FD8095982F0E9407
:103F4000DD2DDF91CF911F910F9108950E94791F70
:103F50000E94AA2D882777FD8095982F0E94DD2D3D
:103F60002AE037ED43E25CE30E94912E20E030E04E
:103F700040E252E40E94D92C08954F925F926F92D2
:103F80007F928F929F92AF92BF92CF92DF92EF92E9
:103F9000FF92CF93DF93EC012A813B8148815981C5
:103FA00065E070E00E94B21E68817981CE010E94B6
:103FB000F71E4A815B8168817981CE010E94121FC0
:103FC0007C014A815B8168817981CE010E945F1FFB
:103FD000B701882777FD8095982F0E94DD2D6B0112
:103FE0007C0124E533EE45E25DE30E94912E20E062
:103FF00030E040E850E40E94D92C4B015C0122EAF9
:1040000037EE4BE356EBC701B6010E94912EA70194
:1040100096010E94912E9B01AC01C501B4010E9442
:10402000DA2C4B015C01CE010E94A61F2B013C0142
:104030002CEA35EC47EA58E3C701B6010E94912EFD
:104040002AE037ED43E25CE30E94DA2C9B01AC01ED
:10405000C301B2010E94912EA50194010E94DA2CA5
:10406000DF91CF91FF90EF90DF90CF90BF90AF9016
:104070009F908F907F906F905F904F9008950F93D7
:1040800000E020E040E060E08DEB94E00E941E251F
:104090000F9108950895853008F04CC0E82FF0E0A6
:1040A000EE0FFF1FE45FFE4F718360838230E1F00B
:1040B00018F4813069F004C0833019F1843071F153
:1040C000809169008C7F842B80936900E89A089521
:1040D00080916900440F551F440F551F837F842B27
:1040E00080936900E99A08958091690034E0440F53
:1040F000551F3A95E1F78F7C842B80936900EA9AEB
:1041000008958091690026E0440F551F2A95E1F734
:104110008F73842B80936900EB9A089580916A00D5
:1041200094E0440F551F9A95E1F78F7C842B809380
:104130006A00EE9A08951F920F920FB60F92112403
:104140002F933F934F935F936F937F938F939F939F
:10415000AF93BF93EF93FF93E0910C01F0910D01AA
:104160000995FF91EF91BF91AF919F918F917F91B1
:104170006F915F914F913F912F910F900FBE0F90D4
:104180001F9018951F920F920FB60F9211242F9324
:104190003F934F935F936F937F938F939F93AF93CF
:1041A000BF93EF93FF93E0910E01F0910F010995FA
:1041B000FF91EF91BF91AF919F918F917F916F91FF
:1041C0005F914F913F912F910F900FBE0F901F90D5
:1041D00018951F920F920FB60F9211242F933F93B1
:1041E0004F935F936F937F938F939F93AF93BF93FF
:1041F000EF93FF93E0911001F09111010995FF9168
:10420000EF91BF91AF919F918F917F916F915F914E
:104210004F913F912F910F900FBE0F901F901895C7
:104220001F920F920FB60F9211242F933F934F932B
:104230005F936F937F938F939F93AF93BF93EF930E
:10424000FF93E0911201F09113010995FF91EF9115
:10425000BF91AF919F918F917F916F915F914F919E
:104260003F912F910F900FBE0F901F9018951F92A6
:104270000F920FB60F9211242F933F934F935F939A
:104280006F937F938F939F93AF93BF93EF93FF931E
:10429000E0911401F09115010995FF91EF91BF9103
:1042A000AF919F918F917F916F915F914F913F91CE
:1042B0002F910F900FBE0F901F9018951F920F9285
:1042C0000FB60F9211242F933F938F939F93AF9329
:1042D000BF938091C4049091C504A091C604B0918D
:1042E000C7043091C30423E0230F2D3720F4019637
:1042F000A11DB11D05C026E8230F0296A11DB11D09
:104300002093C3048093C4049093C504A093C6046F
:10431000B093C7048091C8049091C904A091CA04C5
:10432000B091CB040196A11DB11D8093C804909358
:10433000C904A093CA04B093CB04BF91AF919F91DD
:104340008F913F912F910F900FBE0F901F90189556
:104350002FB7F8946091C4047091C5048091C6048D
:104360009091C7042FBF08953FB7F8948091C80477
:104370009091C904A091CA04B091CB0426B5A89B22
:1043800005C02F3F19F00196A11DB11D3FBF662743
:10439000782F892F9A2F620F711D811D911D42E088
:1043A000660F771F881F991F4A95D1F708958F923E
:1043B0009F92AF92BF92CF92DF92EF92FF926B01EA
:1043C0007C010E94B4214B015C01C114D104E104C1
:1043D000F104F1F00E943D2C0E94B4216819790982
:1043E0008A099B09683E73408105910570F321E0BD
:1043F000C21AD108E108F10888EE880E83E0981E01
:10440000A11CB11CC114D104E104F10429F7DDCFD2
:10441000FF90EF90DF90CF90BF90AF909F908F90E4
:1044200008958230910538F0880F991F880F991FE1
:1044300005970197F1F70895789484B5826084BD5B
:1044400084B5816084BD85B5826085BD85B5816098
:1044500085BDEEE6F0E0808181608083E1E8F0E0F8
:104460001082808182608083808181608083E0E827
:10447000F0E0808181608083E1E9F0E0808182600A
:104480008083808181608083E0E9F0E080818160C9
:104490008083E1ECF0E080818460808380818260B1
:1044A0008083808181608083E3ECF0E080818160A3
:1044B0008083E0ECF0E0808182608083E2ECF0E0D9
:1044C000808181608083EAE7F0E08081846080837E
:1044D0008081826080838081816080838081806828
:1044E00080830895823108F08251E82FF0E0EF5088
:1044F000FE4FE49180917B00E3FB222720F930E01E
:1045000095E0220F331F9A95E1F78F7D822B8093E0
:104510007B00E7708091160120E4829FC001112486
:10452000E82BE0937C0080917A00806480937A008D
:1045300080917A0086FDFCCF8091780020917900EF
:1045400090E0922B089590E0FC013197EF30F10557
:10455000B0F5EA5AFF4F0C944D2F809180008F7771
:1045600003C0809180008F7D8093800008958091AA
:104570008000877FF9CF84B58F7702C084B58F7DA7
:1045800084BD0895809190008F7707C0809190003E
:104590008F7D03C080919000877F80939000089565
:1045A0008091C0008F7703C08091C0008F7D809381
:1045B000C00008958091C200877F8093C200089553
:1045C000CF93DF9390E0FC01E45EFD4F2491FC016A
:1045D000E55CFD4F8491882349F190E0880F991F95
:1045E000FC01EA58FD4FA591B49188599D4FFC01FB
:1045F000C591D4919FB7611108C0F8948C91209512
:1046000082238C93888182230AC0623051F4F8940B
:104610008C91322F309583238C938881822B8883D1
:1046200004C0F8948C91822B8C939FBFDF91CF9123
:1046300008950F931F93CF93DF931F92CDB7DEB7EB
:10464000282F30E0F901E350FE4F8491F901E45E38
:10465000FD4F1491F901E55CFD4F04910023C9F071
:10466000882321F069830E94A3226981E02FF0E072
:10467000EE0FFF1FE859FD4FA591B4919FB7F89435
:104680008C91611103C01095812301C0812B8C9303
:104690009FBF0F90DF91CF911F910F910895CF93FE
:1046A000DF93282F30E0F901E350FE4F8491F901A8
:1046B000E45EFD4FD491F901E55CFD4FC491CC233C
:1046C00091F081110E94A322EC2FF0E0EE0FFF1F6A
:1046D000E65AFD4FA591B4912C912D2381E090E0F5
:1046E00021F480E002C080E090E0DF91CF91089556
:1046F000BF92CF92DF92EF92FF920F931F93CF93CF
:10470000DF93C82ED62EB42EC7E0D0E0022F10E0E3
:1047100087E0E82EF12CB1100AC0F701EC1BFD0B6D
:10472000B80102C075956795EA95E2F707C0B80130
:104730000C2E02C0759567950A94E2F76170772791
:104740008C2D0E94192361E08D2D0E94192360E0B9
:104750008D2D0E9419232197F0F6DF91CF911F91A3
:104760000F91FF90EF90DF90CF90BF900895CF937F
:10477000DF931F92CDB7DEB76983DC01ED91FC9129
:104780000280F381E02D41E050E0BE016F5F7F4F7A
:1047900009950F90DF91CF910895CF93DF93EC01AE
:1047A0008C859D8597FF05C082E00E94BF289D876C
:1047B0008C878C859D85DF91CF91089583E00C9443
:1047C000532BFC018485958597FD06C082E00E94ED
:1047D000672890E00196089582E00E94672890E0A3
:1047E0000895FC018485958597FD05C02FEF3FEF67
:1047F00035872487089582E00C94BF28CF93DF93F8
:10480000EC0180912201882331F083E00E94F0289E
:104810001816190634F081E090E09B838A8380E0CB
:1048200090E0DF91CF910895FC0120812E5F2083DD
:1048300042E450E064E872E080E80C948B29FC01CB
:1048400021818081813A59F4213209F04BC047E03F
:1048500050E06BE171E080E00E948B295EC0813204
:1048600009F040C0233289F4838190E0982F882793
:104870003281832BA0E0B0E0809317019093180160
:10488000A0931901B0931A010FC0203239F467E0E8
:1048900070E08BE191E00E94BC2909C0223221F432
:1048A00082818093220103C02D7F2032B1F5809157
:1048B0001C05811103C0E0E0F8E002C0EEEFFAE071
:1048C00080911B0190911C01A0911D01B0911E01CE
:1048D000803B9440A105B10511F58091220180FF34
:1048E00003C01DC080E00895EE3F2AE0F20731F0DA
:1048F000808191819093FF0A8093FE0A87E797E772
:10490000918380832BE088E190E00FB6F894A8951E
:10491000809360000FBE2093600081E0089588E1DD
:104920000FB6F89480936000109260000FBEA895B7
:10493000EE3F8AE0F80739F08091FE0A9091FF0A75
:1049400091838083EACF1092FF0A1092FE0AE5CF8E
:104950002FEF3FEFFC01358724870895CF93C09157
:1049600022016AE070E080E090E00E94D72181E0BF
:10497000C11101C080E0CF9108951092CF04109230
:10498000CE0488EE93E0A0E0B0E08093D004909352
:10499000D104A093D204B093D30488E392E090931F
:1049A000CD048093CC048FEF9FEF9093D904809334
:1049B000D8040895AF92BF92CF92DF92EF92FF9208
:1049C0000F931F93CF93DF936C017B01C0E0D0E086
:1049D00000E010E0F601EC0FFD1F4AE050E06281BC
:1049E000C7010E9492265C016EE2C7010E94A525C4
:1049F0008A0D9B1D080F191F2196C330D10551F751
:104A00004AE050E0F6016581C7010E949226800FBE
:104A1000911FDF91CF911F910F91FF90EF90DF9049
:104A2000CF90BF90AF90089528E432E0FC0131832D
:104A30002083128213821482158208950F93FC0141
:104A400088E492E091838083628343832483058397
:104A50000F91089528E432E0FC0131832083FB01AB
:104A60004081518162817381FC014283538364835D
:104A700075830895FB014081518162817381FC013E
:104A80004283538364837583089588E492E090930E
:104A90001E0580931D0510921F051092200510928F
:104AA000210510922205089508950E941C220E945B
:104AB000542583E295E00E94E02B0E942C05C0E083
:104AC000D0E00E9447062097E1F30E940000F9CF52
:104AD0000C94882F6115710581F0DB010D90002089
:104AE000E9F7AD0141505109461B570BDC01ED912F
:104AF000FC910280F381E02D099480E090E008951C
:104B0000EF92FF920F931F93CF93DF938C017B0162
:104B1000C0E0D0E0F701EC0FFD1F6491662359F06F
:104B2000F801A081B181ED91FC91C8010995892B13
:104B300011F02196EFCFCE01DF91CF911F910F9110
:104B4000FF90EF9008950C946A25DC01ED91FC91A3
:104B50000190F081E02D09946AE472E00C946A25DA
:104B60000F931F93CF93DF93EC010E9480258C015C
:104B7000CE010E94AC25800F911FDF91CF911F9134
:104B80000F9108950F931F93CF93DF93EC010E9431
:104B90006A258C01CE010E94AC25800F911FDF9108
:104BA000CF911F910F9108958F929F92AF92BF92D4
:104BB000DF92EF92FF920F931F93CF93DF93CDB7C6
:104BC000DEB7A1970FB6F894DEBF0FBECDBF7C0154
:104BD000F42FD52ECB0119A2223008F42AE08E0141
:104BE0000F5D1F4F822E912CA12CB12C6F2F7D2D8C
:104BF000A50194010E940C2FF22FD32ECA0101505F
:104C000011096A3014F4E0E301C0E7E3E60FD801CC
:104C1000EC93232B242B252B49F7B801C7010E94C5
:104C20006A25A1960FB6F894DEBF0FBECDBFDF9107
:104C3000CF911F910F91FF90EF90DF90BF90AF90B9
:104C40009F908F900895CF92DF92EF92FF920F93F3
:104C50001F93CF93DF93EC016A017B01211531058E
:104C600079F4E881F9810190F081E02D642FDF91E2
:104C7000CF911F910F91FF90EF90DF90CF9009940B
:104C80002A303105E9F477FF1AC06DE20E94A525AC
:104C90008C0144275527BA014C195D096E097F091B
:104CA0002AE0CE010E94D425800F911FDF91CF9181
:104CB0001F910F91FF90EF90DF90CF9008952AE021
:104CC000B701A601CE01DF91CF911F910F91FF9007
:104CD000EF90DF90CF900C94D4250F931F93CF9338
:104CE000DF93EC019A01AB01662757FD6095762FA3
:104CF0000E9423268C01CE010E94AC25800F911FBB
:104D0000DF91CF911F910F9108952115310541F445
:104D1000DC01ED91FC910190F081E02D642F09946C
:104D20000C94D4259A01462F50E060E070E00C947A
:104D300085260F931F93CF93DF93EC010E94852666
:104D40008C01CE010E94AC25800F911FDF91CF9185
:104D50001F910F9108954F925F926F927F928F9261
:104D60009F92AF92BF92CF92DF92EF92FF920F93FA
:104D70001F93CF93DF93EC016A017B01B22E9A015E
:104D8000AB01C701B6010E94F42E882319F06DE42F
:104D900072E027C026013701E89477F82FEF3FEF44
:104DA0004FE75FE7C301B2010E94F42E81110DC0ED
:104DB0002FEF3FEF4FE75FE7C301B2010E943E2DA7
:104DC00018161CF461E572E00CC02FEF3FEF4FE7BF
:104DD0005FE4C701B6010E948D2E1816ACF465E59C
:104DE00072E0CE01DF91CF911F910F91FF90EF9074
:104DF000DF90CF90BF90AF909F908F907F906F90FB
:104E00005F904F900C946A252FEF3FEF4FE75FECD8
:104E1000C701B6010E943E2D87FDE1CF20E030E0C2
:104E2000A901C701B6010E943E2D87FF0AC06DE2AD
:104E3000CE010E94A5258C01F7FAF094F7F8F094C2
:104E400002C000E010E0A12C60E070E080E09FE391
:104E5000AB1441F020E030E040E251E40E94422DEA
:104E6000A394F6CF9B01AC01C701B6010E94DA2CD6
:104E70006B017C010E94AF2D2B013C010E94DB2DB8
:104E80009B01AC01C701B6010E94D92C6B017C01CA
:104E90002AE0B301A201CE010E94D425080F191FF8
:104EA000BB2039F062E671E0CE010E946A25080F4E
:104EB000191F7B2C772041F120E030E040E251E4E3
:104EC000C701B6010E94912E6B017C010E94AA2DA0
:104ED0004B01AA2497FCA094BA2C2AE030E0B5013B
:104EE000A401CE010E942326080F191FC501B40199
:104EF0000E94DD2D9B01AC01C701B6010E94D92C97
:104F00006B017C017A94D6CFC801DF91CF911F91BC
:104F10000F91FF90EF90DF90CF90BF90AF909F9058
:104F20008F907F906F905F904F9008950F931F9395
:104F3000CF93DF93EC010E94AB268C01CE010E943F
:104F4000AC25800F911FDF91CF911F910F91089594
:104F5000FC0144835583668377830895615030F064
:104F60002091F100FC0120830196F8CF289884E677
:104F700080932C0508954091270550912805209194
:104F800025053091260542175307B4F49091E800A7
:104F90009570E1F39091E80092FD19C08093F100C3
:104FA000809127059091280501968F739927892B69
:104FB00019F48EEF8093E8008091270590912805E1
:104FC0000196909328058093270581E0089580E05D
:104FD0000895CF92DF92EF92FF920F931F93CF939A
:104FE000DF931F92CDB7DEB7082F162FF42E862F32
:104FF000880F8E5F99830E94BB2783E00E94BB27A6
:10500000E02EC02E9981D92E8C2D8E19811798F4FF
:10501000F601F7FE02C0849101C080810E94BB2787
:10502000082F80E00E94BB278023FFEFCF1ADF0A02
:105030008111EACF01C081E00F90DF91CF911F91E4
:105040000F91FF90EF90DF90CF9008958091D7005F
:1050500081608093D70080EA8093D80089B5806111
:1050600089BD89B5826089BD09B400FEFDCF61E0CC
:1050700070E080E090E00E94D7218091D8008F7C82
:1050800080618093D8008091E000807F8093E00071
:105090000895CF93DF931F92CDB7DEB71982CE016B
:1050A00001960E9414240E94C52CBE016F5F7F4FA1
:1050B0000E943E2C89810F90DF91CF9108952FB7E8
:1050C000FC012083F89467706093E9000895CF9302
:1050D000DF931F92CDB7DEB7682FCE0101960E94F5
:1050E0005F288091F20099819FBF0F90DF91CF914F
:1050F0000895FF920F931F93CF93DF9300D0CDB706
:10510000DEB7F62E8A0190912B05992311F057FFF7
:1051100003C08FEF9FEF2BC0682FCE0101967A83DB
:105120000E945F288091F20090E0A8017A818017A8
:1051300091070CF4AC01EF2DF72FF40E84E6FE1668
:1051400039F0289880932C059091F1009193F7CF36
:105150004115510521F08091F200882321F08981C9
:105160008FBFCA0104C08BE68093E800F8CF0F9090
:105170000F90DF91CF911F910F91FF900895CF93E2
:10518000DF931F92CDB7DEB741E050E0BE016F5F05
:105190007F4F0E947928019719F4898190E002C01D
:1051A0008FEF9FEF0F90DF91CF910895CF93DF9313
:1051B0001F92CDB7DEB7682FCE0101960E945F28FF
:1051C0009091E800892F807295FF04C09091F200C1
:1051D00080E4891B99819FBF0F90DF91CF91089543
:1051E0006F927F928F929F92AF92BF92CF92DF92F7
:1051F000EF92FF920F931F93CF93DF931F92CDB740
:10520000DEB7782E7B01C42EB52E80912B05882326
:1052100069F0042F152F8AEFD82E872D8072982ED3
:105220009AE3A92E872D8074882E11C08FEF9FEFEF
:1052300057C0872D0E94D628682E81110CC0DA94A1
:10524000A9F361E070E080E090E00E94D7210115B1
:10525000110579F73BC0282F30E0021713070CF433
:10526000602E672DCE0101960E945F288091E80094
:1052700085FF29C0262D30E0021B130B992039F041
:105280006A948FEF6816B1F01092F100F9CFF70130
:10529000862D77FE07C0815058F094919093F100CD
:1052A0003196F9CF815020F091919093F100FACF8F
:1052B000E20EF31E8091E80085FF0FC00115110575
:1052C00011F481100AC089818FBFC1CF5D9884E637
:1052D00080932D058C2D9B2D03C0A092E800F3CF69
:1052E0000F90DF91CF911F910F91FF90EF90DF9082
:1052F000CF90BF90AF909F908F907F906F900895C8
:105300001092E90010922805109227059093260527
:10531000809325050895CF92DF92FF920F931F93FC
:10532000CF93DF9300D0CDB7DEB7F82E8A016B01A3
:1053300001151105B1F0F601F7FE02C0849101C01C
:10534000808149835A830E94BB2701501109FFEFD6
:10535000CF1ADF0A49815A818111EACF8FEF9FEF7F
:1053600001C0CA010F900F90DF91CF911F910F9153
:10537000FF90DF90CF900895BF92CF92DF92EF928F
:10538000FF920F931F93CF93DF936C018B01EB017F
:105390003BEFB32E2097C1F07E01C134D1051CF044
:1053A00020E4E22EF12C8091E80082FFFCCFC801BE
:1053B0008C1B9D0B6E2D8C0D9D1D0E94AE27B092F7
:1053C000E800CE19DF09E6CFC801DF91CF911F9128
:1053D0000F91FF90EF90DF90CF90BF9008951F92B4
:1053E0000F920FB60F921124DF92EF92FF920F935C
:1053F0001F932F933F934F935F936F937F938F935D
:105400009F93AF93BF93EF93FF93CF93DF93CDB76A
:10541000DEB76C97DEBFCDBF1092E9008091E80047
:1054200083FF23C168E0CE0145960E94AE2782EF3C
:105430008093E8003D8937FF05C08091E80080FF38
:10544000FCCF03C08EEF8093E800832F807609F0B5
:10545000F0C02E894F89D88C21110CC0303829F426
:1054600080912A058093F10002C01092F100109201
:10547000F100F4C0842F90E09D29213049F43111CE
:10548000EDC0019709F0EAC080912A058D7F0AC01E
:10549000233059F43111E2C0019709F0DFC0809147
:1054A0002A05826080932A05D9C0253041F4809175
:1054B000E80080FFFCCF40684093E300CFC0263077
:1054C00009F08DC0EB8CFC8C22E0D2122CC080E065
:1054D00090E00E9480290E94492899E08E010F5F88
:1054E0001F4FF801292F11922A95E9F79983DA8243
:1054F00091E09E8390EA98879AEF998720912705FB
:1055000030912805275F3F4F3C832B838D83C70154
:105510000E94802949E050E0B80180E00E948B2978
:105520000E9449289BC0C7010E9480290E94C52C67
:10553000BE016B5E7F4F0E94672C009719F00CF044
:105540008DC090C081E0D8120EC08B8D9C8D0897C5
:1055500019F481E0809324058091240581112FC0E6
:1055600068ED72E031C0E3E0DE127CC08F898823F1
:1055700049F1823029F440E860E186EF92E01CC0F6
:10558000813029F440E86BE08AEE92E015C0833068
:1055900009F068C00E94C52C8E010F5F1F4FB80133
:1055A0000E94862CF80101900020E9F73197E01B5A
:1055B000F10B40E06E2FC8010E94E9274DC066EC58
:1055C00072E002C067E073E06115710509F44AC03A
:1055D000FB01449150E080E80E948B293FC02730B6
:1055E00009F440C0283021F481E08093F10036C0F6
:1055F0002930A1F53370B1F5E4E2F1E081E021E07A
:1056000036E39081992361F08093E9002093EB00C9
:1056100091919093EC003093ED008F5F873089F784
:105620008EE78093EA001092EA008F8980932B0521
:1056300015C08B8D9C8D0E948029898D811105C09C
:10564000CE0145960E941F2407C00E94C52CBE01B2
:105650006B5E7F4F0E94A52C882321F08EEF8093F4
:10566000E80003C081E28093EB006C960FB6F894DB
:10567000DEBF0FBECDBFDF91CF91FF91EF91BF9104
:10568000AF919F918F917F916F915F914F913F91DA
:105690002F911F910F91FF90EF90DF900F900FBE11
:1056A0000F901F9018958093E9008091F200882355
:1056B00019F08AE38093E80008951F920F920FB6C5
:1056C0000F9211242F933F934F935F936F937F9388
:1056D0008F939F93AF93BF93CF93EF93FF93C0911B
:1056E000E1008091E100837F8093E1008093E100FD
:1056F000C3FF0FC01092E90081E08093EB0010928D
:10570000EC0082E38093ED0010922B0588E08093FB
:10571000F000C2FF19C083E00E94532B80912D0539
:10572000882339F080912D05815080932D058823A1
:1057300089F180912C05882339F080912C058150C6
:1057400080932C05882341F1C4FF10C08091E200B2
:105750008E7E81608093E2008091E1008F7E809355
:10576000E100809129058E7E806111C0C0FF16C0C6
:105770008091E2008E7E80618093E2008091E10062
:105780008E7E8093E100809129058E7E81608093DA
:10579000290504C05D9ACDCF289AD6CFFF91EF910D
:1057A000CF91BF91AF919F918F917F916F915F91B9
:1057B0004F913F912F910F900FBE0F901F90189512
:1057C00010922B0510922A05109229050E94262876
:1057D0008091E1008E7E8093E1008DE08093E20075
:1057E000559A209AEEEFFFE7859194918B3F9C4D5F
:1057F00019F481E080931C050895CF93DF9300D0C6
:1058000000D0CDB7DEB79B01AC01611571058105F4
:10581000910569F069833A834B835C830E94FE3073
:1058200029813A814B815C810E942E2F03C060E068
:1058300070E0CB010F900F900F900F90DF91CF9100
:105840000895CF92DF92EF92FF926B017C01621775
:1058500073078407950764F4CA01B9016C197D09BF
:105860008E099F090E94FD2B6C0D7D1D8E1D9F1DB5
:10587000FF90EF90DF90CF9008950895EF92FF9200
:105880000F931F93CF93DF937B01FC01C281D381E0
:1058900000E010E0209781F0E881F9810280F38137
:1058A000E02DB701CE01099597FD08C0080F191F1B
:1058B0000884D985C02DEECFC80102C08FEF9FEFBD
:1058C000DF91CF911F910F91FF90EF9008950F936B
:1058D0001F93CF93DF938B01FC01C281D38120976B
:1058E00071F0E881F9810480F581E02DB801CE01E5
:1058F0000995009731F40884D985C02DF0CF80E058
:1059000090E0DF91CF911F910F9108950F931F9316
:10591000CF93DF938B01FC01C281D381209771F07B
:10592000E881F9810680F781E02DB801CE01099563
:10593000080F111D0884D985C02DF0CFF801108201
:10594000DF91CF911F910F9108950F931F93CF93E4
:10595000DF938B01FC01C281D381209771F0E88134
:10596000F9810190F081E02DB801CE0109958111F6
:1059700006C00884D985C02DF0CF80E001C081E049
:10598000DF91CF911F910F91089580913205811180
:105990000DC082E080932E0584E080932F05109245
:1059A00031051092300581E0809332058EE295E05A
:1059B00008955058BB27AA270ED075C166D130F084
:1059C0006BD120F031F49F3F11F41EF45BC10EF453
:1059D000E095E7FB51C1E92F77D180F3BA17620751
:1059E00073078407950718F071F49EF58FC10EF4C4
:1059F000E0950B2EBA2FA02D0B01B90190010C01DF
:105A0000CA01A0011124FF27591B99F0593F50F4F6
:105A1000503E68F11A16F040A22F232F342F44274E
:105A2000585FF3CF469537952795A795F040539546
:105A3000C9F77EF41F16BA0B620B730B840BBAF016
:105A40009150A1F0FF0FBB1F661F771F881FC2F781
:105A50000EC0BA0F621F731F841F48F48795779595
:105A60006795B795F7959E3F08F0B3CF9395880F4C
:105A700008F09927EE0F979587950895D9D008F4E7
:105A800081E008950CD00FC107D140F0FED030F076
:105A900021F45F3F19F0F0C0511139C1F3C014D1A6
:105AA00098F39923C9F35523B1F3951B550BBB27E5
:105AB000AA2762177307840738F09F5F5F4F220F92
:105AC000331F441FAA1FA9F333D00E2E3AF0E0E88B
:105AD00030D091505040E695001CCAF729D0FE2FD7
