:100000000C948C010C94B4010C94B4010C94B401C4
:100010000C94B4010C94B4010C94B4010C94B4018C
:100020000C94B4010C94B4010C94072D0C94992BEE
:100030000C94B4010C94B4010C94B4010C94B4016C
:100040000C94B4010C94B4010C94B4010C94B4015C
:100050000C94B4010C94B4010C94B4010C944A2394
:100060000C94B4010C94B4010C94B4010C94B4013C
:100070000C94B4010C94B4010C94B4010C94B4012C
:100080000C94B4010C94B4010C94B4010C94B4011C
:100090000C9411080C94B4010C94B4010C94B401A8
:1000A0000C94B4010C94B4010C94B401762479241A
:1000B00068246C2472249A249A249A247D2481240E
:1000C00085248B248F249A2495244465766963655E
:1000D000206973206E6F7420612044533138783268
:1000E000302066616D696C79206465766963652E80
:1000F00000005EBCE2613FDD83C29C7E20A3FD1F49
:10010000419DC3217FFCA2401E5F01E3BD3E608292
:10011000DC237D9FC1421CFEA0E1BF5D0380DE3C6D
:1001200062BEE0025CDF81633D7C22C09E1D43A174
:10013000FF4618FAA427799BC584DA3866E5BB59CF
:1001400007DB856739BAE406581947A5FB7826C44A
:100150009A653BD987045AB8E6A7F91B45C6987A31
:1001600024F8A6441A99C7257B3A6486D85B05E72C
:10017000B98CD2306EEDB3510F4E10F2AC2F71939B
:10018000CD114FADF3702ECC92D38D6F31B2EC0EFA
:1001900050AFF1134DCE90722C6D33D18F0C52B005
:1001A000EE326C8ED0530DEFB1F0AE4C1291CF2DDC
:1001B00073CA947628ABF517490856B4EA6937D55F
:1001C0008B5709EBB536688AD495CB2977F4AA48C2
:1001D00016E9B7550B88D6346A2B7597C94A14F6B9
:1001E000A8742AC896154BA9F7B6E80A54D7896BA4
:1001F000350000000200090F0000030401000C009C
:1002000000000000000000000000000000000000EE
:100210000408020110408040102040804080080205
:100220000401804020100201108010204040200472
:10023000040404040304050202020204030202028D
:100240000206060606060604040202020404000072
:1002500000002300260029002C002F0000000000D1
:10026000250028002B002E00310000000000240093
:1002700027002A002D003000080B000202020100B6
:1002800009040000010202000005240010010524F9
:10029000010101042402060524060001070581036B
:1002A00010004009040100020A00000007050202D4
:1002B0004000000705830240000012010002EF0227
:1002C00001404123368000010102030112010002B6
:1002D0000000004041233680000101020301417209
:1002E0006475696E6F204C4C430041726475696E91
:1002F0006F204C656F6E6172646F00040309040027
:10030000AD032707BD09940F6B135C1567154417E0
:100310004F173F236926F12611241FBECFEFDAE0E5
:10032000DEBFCDBF12E0A0E0B1E0E4E8F5E602C038
:1003300005900D92A632B107D9F724E0A6E2B2E00B
:1003400001C01D92A43AB207E1F713E0C8E1D3E07F
:1003500004C02297FE010E94E530C030D107C9F7E2
:100360000E9401270C94C0320C9400001F93CF937D
:10037000DF93FC01648D758D868D978D24E630E0CA
:1003800040E050E00E94A230672B682B692B49F4B3
:1003900084E690E00E94A23261E0680F84E690E07B
:1003A0000BC0C4E6D0E010E0CE010E94A23281175B
:1003B00040F461E0680FCE01DF91CF911F910C9462
:1003C000AA322196C83CD10511F0182FEDCFDF914C
:1003D000CF911F910895CF92DF92EF92FF920F93EA
:1003E0001F93CF93DF93EC01198A188A80E190E084
:1003F0009B8B8A8B83E690E09D8B8C8B0E94A23234
:100400008F3FB9F404E610E060E0C8010E94AA3210
:100410000F5F1F4F083C1105B9F70C891D89C801F2
:100420000E94A2328823E9F060E0C8010E94AA324B
:1004300018C0C12CD12C760104E610E0C8010E943E
:10044000A232C80ED11CE11CF11C0F5F1F4F083CEB
:100450001105A1F7CC8EDD8EEE8EFF8ECE010E94AF
:10046000B601C888D9887E0100E110E0CC1ADD0A07
:10047000C6018E0D9F1D0E94A232F70181937F015C
:1004800001501109A9F705E010E08A899B89800FC6
:10049000911F0E94A232FE01E00FF11F868B0150D6
:1004A000110999F7DF91CF911F910F91FF90EF9074
:1004B000DF90CF900895BF92CF92DF92EF92FF929C
:1004C0000F931F93CF93DF93CDB7DEB7C554D109F8
:1004D0000FB6F894DEBF0FBECDBF8C010E94A023E3
:1004E000D8015396CD90DD90ED90FC9056976C1905
:1004F0007D098E099F09CD90DD90ED90FC90C61688
:10050000D706E806F90608F012C17801B7E0EB0E4D
:10051000F11CD8011596ED91FC9116978EE0DE0145
:100520009B9601900D928A95E1F741E0BE016F5FC5
:100530007F4FCE018B960E94C01C882379F0FE016C
:100540003196D701CE01099621912D93E817F9072D
:10055000D9F767E0CE0101960E945D1DF801848104
:100560000580F681E02D9EE0DE015D9601900D9202
:100570009A95E1F78C3031F08B3031F08A3031F0E0
:100580002FE105C02FE703C02FE501C02FE3CE0107
:100590004D9626962FAF26970E94681BB701CE0175
:1005A0004D960E94631C40E06EE4CE014D960E9481
:1005B000051C40E060E0CE014D960E94051C40E025
:1005C00060E0CE014D960E94051C40E026962FADBE
:1005D0002697622FCE014D960E94051C40E068E4EC
:1005E000CE014D960E94051CD8011596ED91FC9107
:1005F00016978EE0DE011F9601900D928A95E1F725
:10060000CE010F960E94681BB701CE010F960E9483
:10061000631C41E064E4CE010F960E94051CD801E2
:100620001596ED91FC9116978EE0DE0111960190E2
:100630000D928A95E1F7F8018781823271F0883254
:1006400061F0803119F4BB24B39408C06AEC70E007
:1006500082E394E00E945C2701C0B12CCE01019698
:100660000E94681BB701CE0101960E94631C40E006
:100670006EEBCE0101960E94051C7E01F9E3EF0EA0
:10068000F11C670189E0C80ED11CCE0101960E94C1
:10069000471CD7018D937D01AC15BD05B1F76AAD3F
:1006A00070E0762F662789AD682BBB2041F133E0DF
:1006B000660F771F3A95E1F721968FAD219780312C
:1006C00051F4CB01807F2FAD6CE070E0621B7109AB
:1006D000680F791F14C08DAD807631F423E0660F6A
:1006E000771F2A95E1F70BC0803229F4660F771F38
:1006F000660F771F04C0803411F4660F771F80E007
:1007000090E00E94852F20E030E040E85DE30E9409
:100710003B30F8016787708B818B928B0E94A023FE
:10072000D80153966D937D938D939C935697F801C2
:100730006785708981899289CB5BDF4F0FB6F8940A
:10074000DEBF0FBECDBFDF91CF911F910F91FF9004
:10075000EF90DF90CF90BF9008950F93CF93DF93EA
:1007600000E020E040E060E087E193E00E94CA26DC
:1007700087EF92E00E94EB0183E290E09093F40215
:100780008093F30280E894E8AEE1B0E08093DC026D
:100790009093DD02A093DE02B093DF028AE08093A3
:1007A000E0021092EB021092EC021092ED02109215
:1007B000EE021092EF021092F0021092F1021092EB
:1007C000F2028EE090E00E941427EC0167E00E94A4
:1007D0009D1CD093E202C093E1024DE050E06CE03A
:1007E00070E086ED92E00E94691D83E392E00E9432
:1007F000741489E395E0909341028093400280EC69
:100800008093420288EA8093430281E0809344020D
:1008100085E3809345021092AA021092AB028CEA03
:1008200092E00E94D11687EC92E00E94741480EE50
:100830009BEA9093D5028093D40286E292E0DF9106
:10084000CF910F910C947414CF92DF92EF92FF929C
:100850000F931F93CF93DF9300D000D000D0CDB77C
:10086000DEB77C018B0161E08BE00E949B2460E09D
:100870008BE00E94D4246AE070E080E090E00E9467
:10088000C32361E08BE00E94D42468EC70E080E038
:1008900090E00E94C323B8018AEE93E00E945E12AA
:1008A000892B41F466E271E082E394E00E946E27B6
:1008B00080E046C06EE471E082E394E00E944F273E
:1008C0008E010D5F1F4F6E0187E0C80ED11C6AEECE
:1008D00073E0CE0101960E944813F80161918F01E7
:1008E0004AE050E082E394E00E943E286EE571E029
:1008F00082E394E00E944F270C151D0541F782E327
:1009000094E00E94582743E064E089E190E00E946F
:10091000531948EE64E08AE190E00E94531943E0E5
:1009200064E08BE190E00E945319F701EF55FF4F0F
:1009300060817181C70187589F4F0E949E1681E098
:1009400026960FB6F894DEBF0FBECDBFDF91CF91D4
:100950001F910F91FF90EF90DF90CF90089540E8A6
:1009600055E260E070E082E394E00E9463268DE14E
:1009700093E00E9497066DE073E083E392E00C94AD
:100980002404AF92BF92CF92DF92EF92FF920F9327
:100990001F93CF93DF93CDB7DEB7C95AD1090FB6F6
:1009A000F894DEBF0FBECDBF6C018AEE93E00E94CB
:1009B000EB12860107581F4FC8010E944D1606977B
:1009C00009F008C1F601E857FF4F42815381648165
:1009D0007581CA55DF4F488359836A837B83C65A22
:1009E000D04060E671E082E394E00E946E27D80177
:1009F000ED91FC91008CF18DE02D46E050E0BE01C0
:100A000062567F4FC8010995C256DF4F8881CE5983
:100A1000D040833709F0D0C0CF55DF4F8881C15A0D
:100A2000D040823709F0C8C0055E1F4FC8010E9440
:100A30003815882319F0C8010E94F714F60145857E
:100A4000568584E192E09A838983CA55DF4F888175
:100A50009981AA81BB81C65AD0408B839C83AD8388
:100A6000BE83BE016F5F7F4FC8010E9494146091E6
:100A7000F3027091F4028DE193E00E94AB06E091E5
:100A80001D03F0911E030190F081E02D60E18DE1E6
:100A900093E009958DE193E00E942407C090F30252
:100AA000D090F402B6018DE193E00E94AB0642E0E3
:100AB00050E0B6018DE193E00E94210765EFA62E7C
:100AC00062E0B62EC12CD12C8DE193E00E9400068D
:100AD000892B59F08DE193E00E940806D5018D9392
:100AE0005D01BFEFCB1ADB0AEFCF8DE193E00E94EF
:100AF0002407E2E0CE16D104B9F46091F50270E06B
:100B0000762F66278091F602682B882777FD8095DF
:100B1000982F0E94872F2AE939E949E95FE30E946B
:100B2000EC2E0E94592F7B014AE050E0B701C8012A
:100B30000E9445288CED92E00E945B02AB01BC0153
:100B400022E030E0C8010E94462986ED92E00E9432
:100B5000911EAB01BC0122E030E0C8010E94462991
:100B600086ED92E00E94A81EAB01BC0122E030E0BD
:100B7000C8010E9446296BE671E082E394E00E947E
:100B80006E27BE0162567F4F82E394E00E946E277B
:100B9000B801CE0101960E942A1F65E771E0CE01DF
:100BA00001960E94A7224CE751E06CE871E0CE016B
:100BB00001960E9430230EC06BE971E082E394E05D
:100BC0000E946E274AE050E066E070E082E394E025
:100BD0000E941928C755DF4F0FB6F894DEBF0FBE2D
:100BE000CDBFDF91CF911F910F91FF90EF90DF90DC
:100BF000CF90BF90AF90089583E392E00C94C1042E
:100C000080914D0390E020914E03821B910908953D
:100C100020914E0380914D03281750F4E22FF0E00D
:100C2000E15BFC4F808190E02F5F20934E0308959D
:100C30008FEF9FEF0895E0914E0380914D03E817E9
:100C400030F4F0E0E15BFC4F808190E008958FEF9D
:100C50009FEF08950895CF92DF92EF92FF920F9346
:100C60001F93CF93DF937C01CB018A01209129034D
:100C7000222389F0EB016B01C40ED51ECC15DD05D6
:100C800069F06991D701ED91FC910190F081E02D1F
:100C9000C7010995F3CF642F0E94E807C801DF91CF
:100CA000CF911F910F91FF90EF90DF90CF9008951B
:100CB000CF93DF931F92CDB7DEB7698320912903CD
:100CC0002223D1F020912A03203240F021E030E0AD
:100CD000FC013383228380E090E015C080912B03D8
:100CE000E82FF0E0E45DFC4F998190838F5F809363
:100CF0002B0380932A0305C061E0CE0101960E9478
:100D0000E80781E090E00F90DF91CF910895FC011A
:100D10001382128248EE53E060E070E04483558312
:100D20006683778389EA91E09183808308951092A6
:100D30004E0310924D0310922B0310922A030C9431
:100D40002B0781E08093290360934C0310922B03BF
:100D500010922A0308950C94A1060F93062F21E008
:100D600040912A036CE273E080914C030E9491074A
:100D700010922B0310922A03109229030F910895C9
:100D80008F929F92AF92BF92CF92DF92EF92FF929B
:100D90000F931F93CF93DF93EC01F62ED42E4801CF
:100DA0005901EE2019F10E94A1061E2D143008F001
:100DB00013E01150B8F0E881F98128E0129FB001EA
:100DC0001124A501940104C05695479537952795A0
:100DD0006A95D2F7CA01B9010190F081E02DCE01E8
:100DE0000995E7CF60E0CE010E94AD064D2D41325E
:100DF00008F040E22C2D6FE473E08F2D0E9449072C
:100E000010924E0380934D03DF91CF911F910F916C
:100E1000FF90EF90DF90CF90BF90AF909F908F901A
:100E20000895CF92EF920F931F93C22EE12C00E012
:100E300010E098010E94C0061F910F91EF90CF9093
:100E4000089521E00C94110761E00C94AD068DE14A
:100E500093E00C9487061092DC0381E08093DA0320
:100E60001092D90361E082E00E94D42461E083E023
:100E70000E94D424E9EBF0E080818E7F8083808122
:100E80008D7F808388E48093B80085E48093BC00E4
:100E90000895413208F043C09091DC039111FCCFDA
:100EA00091E09093DC032093DA032FEF20936F03FC
:100EB0001092B403240F2093B3039093DB0390911B
:100EC000DB03880F892B8093DB038091D90381306A
:100ED00061F41092D9038091DB038093BB00809171
:100EE000BC0083FDF8CF85EC01C085EE8093BC008B
:100EF0008091DC038130E1F38091B403841710F416
:100F00004091B40325EB33E0FB01D9018A2F821B0A
:100F1000841718F48D918193F9CF842F089580E080
:100F200008950F93413208F04AC09091DC0391116B
:100F3000FCCF92E09093DC030093DA039FEF909351
:100F40006F031092B4034093B303FB0165EB73E0AE
:100F5000DB019A2F961B941718F491919D93F9CF6A
:100F60001092DB039091DB03880F892B8093DB03C6
:100F70008091D903813061F41092D9038091DB0311
:100F80008093BB008091BC0083FDF8CF85EC01C04D
:100F900085EE8093BC00222321F08091DC03823017
:100FA000E1F380916F038F3F61F080916F03803296
:100FB00051F080916F03803341F483E007C081E0FA
:100FC00005C080E003C082E001C084E00F91089575
:100FD000613298F42091DC03243089F4609391030A
:100FE000FC0183E993E0DC012A2F281B261718F463
:100FF00021912D93F9CF80E0089581E0089582E05A
:10100000089585ED8093BC008091BC0084FDFCCFE9
:101010001092DC03089585EC8093BC001092DC03F1
:1010200008951F920F920FB60F9211242F933F93A2
:101030004F935F936F937F938F939F93AF93BF93E0
:10104000EF93FF938091B900887F803609F49EC0AA
:1010500078F5883209F45DC090F4803109F456C007
:1010600038F4882309F4F5C0883009F44FC0F5C07E
:10107000883109F44EC0803209F45FC0EEC080347C
:1010800009F46AC058F4803309F457C0883309F072
:10109000E4C080936F030E940B08DFC0803509F421
:1010A0004FC0883509F45DC0883409F0D6C0D3C07C
:1010B000883909F4C4C0A8F4883709F467C038F443
:1010C000883609F463C0803709F460C0C6C0883828
:1010D00009F4B5C0803909F45FC0803809F0BDC09B
:1010E0005BC0803B09F483C038F4803A09F466C0E1
:1010F000883A09F47CC0B1C0803C09F4A4C0883CA3
:1011000009F4A1C0883B09F487C0A7C08091DB0324
:1011100010C09091B4038091B303981770F5E091DB
:10112000B40381E08E0F8093B403F0E0EB54FC4FE6
:1011300080818093BB0085EC83C080936F038BC05C
:10114000E091B40381E08E0F8093B4038091BB00E3
:10115000F0E0EB54FC4F80839091B4038091B30393
:101160006BC0E091B40381E08E0F8093B403809153
:10117000BB00F0E0EB54FC4F80838091DA038111D7
:101180006AC081E08093D90384EA5EC083E08093E3
:10119000DC0310927003CFCF80917003803208F08F
:1011A0004EC0E091700381E08E0F809370038091B8
:1011B000BB00F0E0EF58FC4F8083BDCF0E940B08CE
:1011C00080917003803230F4E0917003F0E0EF58CA
:1011D000FC4F10826091700370E0E091D503F091B4
:1011E000D60381E793E009951092700336C084E03E
:1011F0008093DC031092920310929103E091D70345
:10120000F091D803099580919103811105C081E087
:101210008093910310929303E091920381E08E0FEB
:1012200080939203F0E0ED56FC4F80818093BB00E9
:101230009091920380919103981708F47CCF85E8F0
:101240008093BC000AC085EC8093BC001092DC0344
:1012500004C010926F030E940108FF91EF91BF91AB
:10126000AF919F918F917F916F915F914F913F913E
:101270002F910F900FBE0F901F901895CF93CFB75F
:10128000F8948091DD03811127C0E0E4F2E08491BD
:10129000E1E2F2E09491E82FF0E0EE0FFF1FE65953
:1012A000FD4FA591B4918C91892321F461E081E1F6
:1012B0000E94D42461E081E10E949B248CB580616E
:1012C0008CBD8CB580648CBD61E08FE00E949B2456
:1012D00061E080E10E949B248091DD038F5F809319
:1012E000DD03CFBFCF9108950E9624E1FC0111924A
:1012F0002A95E9F70895CF93DF93EC01625F7F4F62
:101300000E94D626CE01DF91CF910895CF93DF932F
:10131000EC016E5E7F4F0E94D626CE01DF91CF9109
:101320000895CF93DF93EC016A5E7F4F0E94D6262B
:10133000CE01DF91CF910895CF93DF93EC01625EF0
:101340007F4F0E94D626CE01DF91CF91089580E392
:10135000FB0180833296842F82958F7090E1899F64
:10136000401911244A3014F4405D01C0495C429395
:10137000882311F0482FEFCF08950F9300E020E06D
:1013800040E060E08EED93E00E94CA260F91089540
:101390006F927F928F929F92AF92BF92CF92DF9285
:1013A000EF92FF920F931F93CF93DF93CDB7DEB7EA
:1013B000AC970FB6F894DEBF0FBECDBF7C01862E72
:1013C000B42EA52E20E2922ECE0101966C01FC01D6
:1013D000292D11922A95E9F70FEF2FEF4FEF6FEFBD
:1013E00086960E94CA2684E192E09AA389A389A5E1
:1013F0009AA5ABA5BCA58BA39CA3ADA3BEA3870157
:10140000095B1F4F43E450E0BE016F5D7F4FC80191
:101410000E94CE15019609F4BFC081E089838A83BA
:1014200086E0782E7B821C82F7016481758186813B
:1014300097810E94E9306D837E838F839887A98688
:10144000BA8680E890E09C878B874CE150E0B6013B
:10145000C8010E94DA15F601292D11922A95E9F7A3
:10146000570188E0A80EB11CF501D60101900D923C
:101470007A94E1F740E150E0B601C8010E94DA1524
:10148000F60111929A94E9F796E0692E712C40E2E8
:1014900050E0B601C8010E94DA15F1E06F1A710838
:1014A000B1F783E6898392E89A8393E59B838C83E3
:1014B00085E38D8381E08E838F829DE3988797E01B
:1014C00099878A8786E0F501DE011B9601900D92CF
:1014D0008A95E1F78CE0898B8A8B65EB71E0CE0110
:1014E00043960E949B32F7014385BE01675E7F4FA2
:1014F000C7010E94A709F7014485BE01655E7F4FC1
:10150000C7010E94A709F7014585BE01635E7F4FB1
:10151000C7010E94A7094EE150E0B601C8010E9430
:10152000DA15F3E08F121EC082E3898384E08A8398
:10153000F70196859B8397859C8390899D839189EC
:101540009E8396E39F838887828D8987838D8A8790
:10155000848D8B87858D8C874CE050E0B601C80167
:101560000E94DA1587E3898386E08A8391E09B8372
:1015700093E09C838D838FE08E838AE38F838BE35C
:1015800088878FEF898749E050E0B601C8010E9443
:10159000DA15C8010E94D615AC960FB6F894DEBFD6
:1015A0000FBECDBFDF91CF911F910F91FF90EF90B4
:1015B000DF90CF90BF90AF909F908F907F906F9073
:1015C00008952F923F924F925F926F927F928F92E7
:1015D0009F92AF92BF92CF92DF92EF92FF920F93C2
:1015E0001F93CF93DF93CDB7DEB7E3970FB6F89491
:1015F000DEBF0FBECDBF7C012A013B0169010E9405
:1016000094234B015C018701095B1F4FC8010E94B5
:101610004D161816190694F00E949423681979093A
:101620008A099B094616570668067906F0F062E3B8
:1016300070E080E090E00E94C323E8CF42E250E0F7
:10164000BE016F5F7F4FC8010E94171689818230EB
:1016500031F4F801858996898334910541F019A602
:10166000C8010E94A71589A566C18FEF64C16D816D
:101670007E818F8198850E94E9304B015C01F601E3
:10168000608371838283938346E050E0B701685F93
:101690007F4FCE014D960E948E32892B99F4F7012F
:1016A00080819181A281B38188169906AA06BB0622
:1016B00048F084819581A681B78188159905AA058E
:1016C000BB0528F4C8010E94A71580E034C18989B0
:1016D0009A89AB89BC89F70186879787A08BB18BE4
:1016E0003EECC32ED12CC8010E94EE15F1E0CF1ABA
:1016F000D108C9F719A6C70182969BA78AA7F70147
:10170000B696FDA7ECA708969FA78EA73C976F01FA
:101710008E9699AB88AB3897FBABEAAB5701F6E1F5
:10172000AF0EB11C47018EE1880E911CC8010E94CA
:101730008D15181619060CF093CFC8010E94EE15EE
:101740008333910509F4CDC0F4F481309105B9F1EA
:101750001CF4892B59F3DFC083309105C1F1069742
:1017600009F0D9C0C8010E94EE153C0144E050E0E8
:10177000B401C8010E941716212C312C7724F4E003
:101780006F1A71083FC08A33910509F47EC03CF49A
:101790008533910561F0C69709F43FC0BCC08B3317
:1017A000910509F488C08F3F910501F2B4C0C801CA
:1017B0000E94EE15C8010E94EE1589A7B7CFC80197
:1017C0000E94EE1544E050E06AA97BA93AC0C80126
:1017D0000E94EE153C0144E050E0B501C8010E94B2
:1017E0001716212C312C772494E0691A71082614DD
:1017F00037040CF09BCFC8010E94EE15EFEF2E1AB4
:101800003E0AF5CF261437040CF090CFC8010E9491
:10181000EE158FEF281A380AF5CFC8010E94EE1591
:10182000782EF701828D811110C0838D81110DC03A
:10183000848D81110AC0858D811107C044E050E07C
:10184000B601C8010E94171671CFE8A9F9A9208036
:10185000318042805380B601CE0183960E94D62605
:101860008DA19EA1AFA1B8A582159305A405B505CC
:1018700029F3212C312C721409F458CFC8010E948D
:10188000EE15FFEF2F1A3F0AF6CFC8010E94EE15A2
:1018900044E050E06CA57DA5C8010E941716F70131
:1018A00066A177A180A591A50E94E93066A377A3E0
:1018B00080A791A73BCFC8010E94EE1544E050E0FD
:1018C0006EA57FA5C8010E941716F70162A573A532
:1018D00084A595A50E94E93062A773A784A795A760
:1018E00025CFC8010E94EE1544E050E06AA57BA513
:1018F000C8010E941716F70162A173A184A195A1E6
:101900000E94E93062A373A384A395A366A777A777
:1019100080AB91AB0BCFC8010E94EE15382E612C25
:10192000712C361409F402CFC8010E94EE15FFEFA6
:101930006F1A7F0AF6CFE3960FB6F894DEBF0FBE9C
:10194000CDBFDF91CF911F910F91FF90EF90DF906E
:10195000CF90BF90AF909F908F907F906F905F904F
:101960004F903F902F9008952F923F924F925F9209
:101970006F927F928F929F92AF92BF92CF92DF929F
:10198000EF92FF920F931F93CF93DF93CDB7DEB704
:1019900027970FB6F894DEBF0FBECDBF8C0120EDA8
:1019A00037E040E050E061E070E080E090E00E94CD
:1019B000CB2DD80114966D937D938D939C9317979F
:1019C000F80160837183828393834801F7E48F0E6B
:1019D000911CC4010E94B91564E470E0C4010E9426
:1019E0009E16882309F428C10E9494236B017C0170
:1019F000A12CB12C1D82180186E4280E311CD801BF
:101A0000DE96BF83AE8338EE432E33E0532E612C37
:101A1000712CF1018081833009F4FDC081111FC058
:101A2000F80184819581A681B7810196A11DB11D20
:101A300084839583A683B7830E9494236C197D09C0
:101A40008E099F09A30192010E94A230A90161E0C1
:101A5000C8010E94C80981E0D1018C93BEC08430C6
:101A6000F9F4F80184819581A681B7810196A11DC1
:101A7000B11D84839583A683B7830E9494236C1938
:101A80007D098E099F09A30192010E94A230A9013C
:101A900063E0C8010E94C809E2E0D101EC939DC057
:101AA000813061F5AE81BF814D915D916D917C91E9
:101AB0009E012F5F3F4FC8010E94E10A8D83823053
:101AC00009F08BC089819A81AB81BC81F801848344
:101AD0009583A683B7830E9494236C197D098E0990
:101AE0009F09A30192010E94A230A90163E0C801ED
:101AF0000E94C809ED81D101EC9375C0823009F0D4
:101B00006CC0AE81BF814D915D916D917C919E01C4
:101B10002F5F3F4FC8010E94E10A8D83853009F095
:101B200056C083E0F1018083F80182A193A1A4A1B2
:101B3000B5A1892B8A2B8B2B41F484E893E0A0E09C
:101B4000B0E082A393A3A4A3B5A3F80186A197A1B3
:101B5000A0A5B1A5892B8A2B8B2B61F482A193A11F
:101B6000A4A1B5A1B695A7959795879586A397A3A8
:101B7000A0A7B1A7D8019A964D915D916D917C91E6
:101B80009D9796968D919D910D90BC91A02D452B82
:101B9000462B472B59F4AC01BD01440F551F661F5E
:101BA000771FF80142A753A764A775A7F80186A776
:101BB00097A7A0ABB1AB82A593A5A4A5B5A582AB11
:101BC00093ABA4ABB5ABAA24A394B12C0CC0FD81FC
:101BD000F63019F4D1011C9206C0BD81BF3F19F443
:101BE000F10110821D82F1E0AF16B10409F411CFAA
:101BF0000E9494236C197D098E099F09D801DA96F9
:101C00002D913D914D915C91DD972617370748073F
:101C1000590708F0FECEC4010E94B915F80184816D
:101C20009581A681B7810196A11DB11D84839583FD
:101C3000A683B783C50102C080E090E027960FB667
:101C4000F894DEBF0FBECDBFDF91CF911F910F91F2
:101C5000FF90EF90DF90CF90BF90AF909F908F90CC
:101C60007F906F905F904F903F902F900895CF920C
:101C7000DF92EF92FF920F931F93CF93DF93EC01CC
:101C80006B011AA21BA21CA21DA21EA21FA218A6B3
:101C900019A61AA61BA61CA61DA61EAA1FAA18AE28
:101CA00019AE2AAF3BAF4CAF5DAFFC01FE96E082B0
:101CB000F182028313838C01085F1F4F86E0F801D5
:101CC00011928A95E9F7CE010E94740986E0F60127
:101CD000D80101900D928A95E1F7FE01EA5BFF4F72
:101CE0001082CE01DF91CF911F910F91FF90EF9065
:101CF000DF90CF900C94B40C8F929F92AF92BF92D2
:101D0000CF92DF92EF92FF920F931F93CF93DF93C7
:101D1000EC010E9494236B017C018EA99FA9A8ADC0
:101D2000B9AD8E010E5B1F4F892B8A2B8B2B09F4CB
:101D30008FC0F80180819181A281B381A7019601B2
:101D4000281B390B4A0B5B0BCA01B90157FD4EC06A
:101D50004601570138EE830E33E0931EA11CB11CDF
:101D600028EE33E040E050E00E94C430861A970A23
:101D7000A80AB90AF80180829182A282B382DA01AC
:101D8000C9010196A11DB11D4EA55FA568A979A93C
:101D90008C019D01000F111F221F331F4017510797
:101DA000620773072CF41EA61FA618AA19AA08C05A
:101DB000481B590B6A0B7B0B4EA75FA768AB79AB2F
:101DC0004AA95BA96CA97DA940175107620773074F
:101DD0002CF41AAA1BAA1CAA1DAA08C0481B590B3E
:101DE0006A0B7B0B4AAB5BAB6CAB7DAB8E010A5BCA
:101DF0001F4FF8018081833081F48EA59FA5A8A98B
:101E0000B9A9181619061A061B063CF084E080834F
:101E1000CE010E94B40C019602C080E090E0F8016F
:101E20002081233011F0211120C04AA95BA96CA99F
:101E30007DA91416150616061706BCF0F8011082C7
:101E4000CE010E947409CE010E94B40C03960DC00D
:101E5000D701C60188519C4FAF4FBF4FF801808317
:101E60009183A283B38380E090E0CEAADFAAE8AE9C
:101E7000F9AEDF91CF911F910F91FF90EF90DF901E
:101E8000CF90BF90AF909F908F900895FB014281BB
:101E9000538164817581FC0142835383648375831C
:101EA000178216820895CF93FB0181918111FDCF96
:101EB000FB0180E090E020E030E0CAE06191662321
:101EC00009F12430310564F56E3271F48F3F9105CC
:101ED00009F034F5DA01A20FB31F12968C932F5F2D
:101EE0003F4F80E090E0EACFDC01CA9FC001CB9F6A
:101EF000900D1124772767FD709560537109860F47
:101F0000971FDCCF8F3F910509F054F42430310541
:101F10003CF4FA01E20FF31F828381E090E002C0FB
:101F200080E090E0CF9108950F9300E020E040E042
:101F300060E084EE93E00E94CA260F910895AF926C
:101F4000BF92CF92DF92EF92FF920F931F93CF93A6
:101F5000DF9300D01F92CDB7DEB76C017B010E94EA
:101F60009423F601778366838601085F1F4FB601CD
:101F70006A5F7F4F42E050E0C8010E94DA1581E0BD
:101F800090E09A83898342E050E0BE016F5F7F4F0B
:101F9000C8010E94DA1580E091E09A83898342E0CB
:101FA00050E0BE016F5F7F4FC8010E94DA151A82B0
:101FB000198242E050E0BE016F5F7F4FC8010E946E
:101FC000DA1542E050E0BE016F5F7F4FC8010E940A
:101FD000DA1542E050E0BE016F5F7F4FC8010E94FA
:101FE000DA156701F6018081882311F1F7016F018D
:101FF0008191811115C05601AE18BF081A141B0437
:1020000094F4AB8241E050E0BE016D5F7F4FC801A8
:102010000E94DA15A501B701C8010E94DA1503C0B4
:102020008E3229F7E8CF7601FFEFEF1AFF0ADACFF9
:102030001B8241E050E0BE016D5F7F4FC8010E94EE
:10204000DA15E12CFF24F394FA82E98242E050E0B1
:10205000BE016F5F7F4FC8010E94DA15FA82E982E4
:1020600042E050E0BE016F5F7F4FC8010E94DA1569
:1020700081E090E00F900F900F90DF91CF911F9132
:102080000F91FF90EF90DF90CF90BF90AF900895A9
:102090004F925F926F927F928F929F92AF92BF9278
:1020A000CF92DF92EF92FF920F931F93CF93DF9324
:1020B000CDB7DEB763970FB6F894DEBF0FBECDBFC6
:1020C0007C015B016A010E9494232B013C01870182
:1020D000085F1F4F4501A12CB12CC8010E944D166D
:1020E0001816190694F00E9494236419750986093C
:1020F000970986169706A806B906D0F062E370E045
:1021000080E090E00E94C323E8CFF7014281538131
:1021100064817581818D928DA38DB48D4817590787
:102120006A077B0741F4858D968DC59721F406C01B
:102130008FEF9FEFF9C08EEF9FEFF6C0C8010E94AE
:102140008D150C970CF4EEC04CE050E0BE016F5FB3
:102150007F4FC8010E9417168B819C819827892781
:1021600098279A8B898BF7014681578129813A817B
:102170004217530711F497FD06C0C8010E94A71526
:102180008CEF9FEFD1C08F709270892B31F0C80116
:102190000E94A7158BEF9FEFC7C0AF80B884BA2409
:1021A000AB24BA24A114B10419F0E12CF12C23C002
:1021B000C8010E94A7158AEF9FEFB6C041E050E02A
:1021C000BE01635F7F4FC8010E9417168D85811184
:1021D0001BC08D858111F2CFC8010E94EE15C80188
:1021E0000E94EE15C8010E94EE15C8010E94EE156E
:1021F000FFEFEF1AFF0A8D819E8198278927982784
:10220000E816F906D8F20AC08D859FEF980F9D87D2
:102210008823F9F2C8010E94EE15F6CFE12CF12CCB
:1022200041E050E0BE016D5E7F4FC8010E9417166D
:102230008B89982F907C61F4882371F08B899FEFB4
:10224000980F9B8B882341F0C8010E94EE15F6CFB2
:10225000C8010E94EE151B8A8B898111E1CF42E0F3
:1022600050E0BE01615F7F4FC8010E94171642E037
:1022700050E0BE01635F7F4FC8010E941716C8017E
:102280000E94EE15C8010E94EE15C8010E94EE15CD
:10229000C8010E94EE1542E050E0BE016F5E7F4F24
:1022A000C8010E9417168F8598898115914029F4DD
:1022B0008D859E858115914019F0812C912C16C039
:1022C00089899A898115944031F0C8010E94A71527
:1022D00087EF9FEF29C0B6016E5F7F4F44E050E06B
:1022E000C8010E94171681E090E01EC089899A8972
:1022F0009827892798278816990638F4C8010E94DC
:10230000EE152FEF821A920AF1CF8FEFE81AF80A32
:10231000EA14FB0409F084CFC8010E94A71586EFD8
:102320009FEF02C08DEF9FEF63960FB6F894DEBF6C
:102330000FBECDBFDF91CF911F910F91FF90EF9016
:10234000DF90CF90BF90AF909F908F907F906F90D5
:102350005F904F9008958F929F92AF92BF92CF92CD
:10236000DF92EF92FF920F931F93CF93DF9300D0F2
:1023700000D000D0CDB7DEB78C015B016A010E94AE
:10238000530F4C01009709F05DC0F8014281538161
:10239000648175818091E6039091E703A091E80341
:1023A000B091E903481759076A077B0709F44EC043
:1023B0000E9494237801F8E0EF0EF11C6F707727EC
:1023C0007C5FC7010E949E16813009F043C084E102
:1023D00092E09A838983F80182819381A481B581F7
:1023E0008B839C83AD83BE8345E350E0BE016F5F6A
:1023F0007F4FC7010E94CE15892B19F4812C912C97
:102400001DC0B501C8010E949F0F892BB9F3C701F8
:102410000E94D615892B91F333E0A32EB12CA6018F
:1024200068E873E1C8010E9448104C01F1E0AF1A5E
:10243000B10821F08F3F2FEF920789F3C7010E9467
:10244000B91508C088248394912C04C09EEF892E6E
:1024500099249A94C40126960FB6F894DEBF0FBE55
:10246000CDBFDF91CF911F910F91FF90EF90DF9043
:10247000CF90BF90AF909F908F90089524E030E070
:10248000AC0164E081E090E00C949C1924E030E021
:10249000AC0164E085E090E00C949C1926E030E00B
:1024A000AC0164E089E090E00C949C1924E030E0F9
:1024B000AC0164E08FE090E00C949C19AF92BF9265
:1024C000CF92DF92EF92FF920F931F93CF93DF9300
:1024D00000D000D000D0CDB7DEB76C015B0182E642
:1024E00090E00E9414278C0182E6F80111928A95EF
:1024F000E9F7C801895B9F4F0E94D116F601178347
:10250000068382E294E00E947919C5010E944E126E
:1025100000E020E040E060E0CE0101960E94CA2683
:10252000CE0103960E94561218E8E12E13E1F12E17
:1025300000E010E020E63AEE40E050E0B501F601A0
:10254000868197810E94370E8C018130910589F533
:10255000F60166817781CE0101960E947B09CE014A
:1025600003960E945612F60166817781CE0101968C
:102570000E949109CE0103960E943E12F6016681E7
:102580007781CE0101960E948609CE0103960E94B2
:102590004612F60166817781CE0101960E949C0960
:1025A0004B815C816D817E81F6014283538364831C
:1025B0007583C80126960FB6F894DEBF0FBECDBF57
:1025C000DF91CF911F910F91FF90EF90DF90CF900F
:1025D000BF90AF900895EF92FF920F931F93CF9308
:1025E000DF9300D000D000D0CDB7DEB78C01FC0166
:1025F000868197810097E1F10E947C0E7C018230F8
:10260000910521F084E0E816F104A1F5F801668156
:102610007781CE0101960E947B09CE0103960E942C
:102620005612F80166817781CE0101960E949109C8
:10263000CE0103960E943E12F80166817781CE0199
:1026400001960E948609CE0103960E944612F80167
:1026500066817781CE0101960E949C094B815C8145
:102660006D817E81F801428353836483758302C048
:10267000E12CF12CC70126960FB6F894DEBF0FBEF1
:10268000CDBFDF91CF911F910F91FF90EF900895F3
:10269000CF93DF93EC010E94C026AE014E5F5F4FE7
:1026A00024E030E060E08FE090E00E94AF1ACE01BD
:1026B000DF91CF91089524E132E0FC013183208342
:1026C000FB014281538164817581FC014283538304
:1026D0006483758308950F9300E020E040E060E09C
:1026E00082E094E00E94CA268AEE93E00F910C9457
:1026F000C026DC01ED91FC91008CF18DE02D099557
:1027000091E089270895CF93DF931F92CDB7DEB76D
:102710006983DC01ED91FC910280F381E02D41E0C1
:1027200050E0BE016F5F7F4F09950F90DF91CF9111
:10273000089521E0FC018485883009F420E0822F8F
:102740000895FC019485FB018485981303C081E002
:10275000983009F480E008950F931F93CF93DF938F
:10276000EC018A018C85883021F00E942E18892B7B
:1027700039F481E090E09B838A8380E090E001C09F
:10278000C801DF91CF911F910F910895FC016485DD
:10279000683021F082E294E00C944A1A80E090E0E4
:1027A0000895CF93DF931F92CDB7DEB741E050E09D
:1027B000BE016F5F7F4FFC0184850E948018181650
:1027C00019061CF4898190E002C08FEF9FEF0F90F3
:1027D000DF91CF910895FC0184850C9480180F93AC
:1027E0001F93CF93DF931F92CDB7DEB78C01DC012F
:1027F000ED91FC910480F581E02D0995892B51F034
:10280000BE016F5F7F4FF80184850E94C4188981E3
:1028100090E002C08FEF9FEF0F90DF91CF911F915B
:102820000F910895FC0184850C94D218CF92DF9209
:10283000EF92FF920F931F93CF93DF93CDB7DEB745
:10284000AF970FB6F894DEBF0FBECDBF7C018B01F2
:102850006A01CE0101960E94C026CE0109960E940F
:10286000D116CE018A960E94C0266AEE73E0CE0190
:1028700084960E945B13BE016C5D7F4FCE01019672
:102880000E94460FAE01465D5F4FB801CE01019632
:102890000E94AB1181309105C1F4D701ED91FC91FB
:1028A0000484F585E02D84E192E09DA38CA30CA522
:1028B0001DA52EA53FA50EA31FA328A739A7A601D6
:1028C000BE016C5D7F4FC7010995AF960FB6F894B6
:1028D000DEBF0FBECDBFDF91CF911F910F91FF9053
:1028E000EF90DF90CF900895FC011382128248EEA2
:1028F00053E060E070E0448355836683778380EC27
:1029000091E09183808388E084870895FC01648549
:10291000683041F06295660F607E685F83E090E00A
:102920000C94DA1980E00895DF92EF92FF920F93F2
:102930001F93CF93DF93EC017B018A018C85883054
:1029400009F04BC0D12C6D2D6295660F607E685FDB
:1029500083E090E00E94DA19811102C0DC8607C092
:102960008B7F8831D9F3D39488E0D812ECCF8C8553
:10297000883099F120910A0130910B012F5F3F4F70
:1029800011F420E034E030930B0120930A014091D0
:102990000A0150910B0120E061E00E94B117B701DC
:1029A0006E5F7F4FA8018C850E94F117811103C0D3
:1029B00088E08C8712C0CE010E948614873151F0C6
:1029C00061E070E080E090E00E94C323CE010E94AD
:1029D0008614ECCF81E090E002C080E090E0DF91CF
:1029E000CF911F910F91FF90EF90DF900895CF92BC
:1029F000DF92EF92FF92CF93DF93EC018C858830CA
:102A000081F10E9427180E9494236B017C01CE0162
:102A10000E948614882359F00E9494236C197D0922
:102A20008E099F09683E73408105910598F0CE019B
:102A30000E948614882319F08C850E94A317EC85C8
:102A4000F0E0EE0FFF1FEE50FC4F1182108288E085
:102A50008C8707C061E070E080E090E00E94C323B3
:102A6000D6CFDF91CF91FF90EF90DF90CF90089578
:102A7000CF93DF93EC018C858830D1F0CE010E949A
:102A800086148431A9F0882399F0883189F08C313B
:102A900069F4E881F9810480F581E02DCE01099582
:102AA00021E0892B09F420E0822F03C081E001C0DE
:102AB00080E0DF91CF9108950F9300E020E040E0A7
:102AC00060E088E094E00E94CA260F9108950F9379
:102AD00000E020E040E060E08EE094E00E94CA2642
:102AE0000F910895DC01ED91FC91008CF18DE02DAA
:102AF000099424E132E0FC0131832083FB01418908
:102B0000528963897489FC0142835383648375838A
:102B10000895FC01858996890895FC01818D928D27
:102B20000895CF93DF931F92CDB7DEB76983DC01A1
:102B3000ED91FC910280F381E02D41E050E0BE0177
:102B40006F5F7F4F09950F90DF91CF910895CF93DD
:102B5000DF93EC01898D9A8D892B41F0E881F98111
:102B60000680F781E02DCE010995F4CFDF91CF915A
:102B70000895CF93DF93EC018C85883061F00E943B
:102B8000A317EC85F0E0EE0FFF1FEE50FC4F118213
:102B9000108288E08C87DF91CF910895FC01108E20
:102BA000178A6E5F7F4F84850C940119FC01848520
:102BB0000C942619CF93DF93EC019A018F89988D9D
:102BC000AB01BC018C850E94D3182F89388D280F4A
:102BD000391F388F2F8BDF91CF9108950F931F935B
:102BE000CF93DF931F92CDB7DEB78C01FC01818DAF
:102BF000928D892B59F041E050E0BE016F5F7F4F0D
:102C000084850E948018181619061CF08FEF9FEF1C
:102C100008C0F801818D928D0197928F818F8981F3
:102C200090E00F90DF91CF911F910F910895CF9376
:102C3000DF93EC01898D9A8D009719F48FEF9FEF48
:102C400010C04817590708F0AC018C850E94801805
:102C5000181619069CF7298D3A8D281B390B3A8FC7
:102C6000298FDF91CF910895CF93DF931F92CDB736
:102C7000DEB7FC01218D328D232B49F0BE016F5F41
:102C80007F4F84850E94C418898190E002C08FEF35
:102C90009FEF0F90DF91CF9108950F931F93CF93E4
:102CA000DF93CDB7DEB728970FB6F894DEBF0FBE1F
:102CB000CDBF8C01DC01ED91FC910284F385E02D08
:102CC0000995F801648582E294E00E944A1A892BF2
:102CD00041F148E050E0BE016F5F7F4FD8011C9684
:102CE0008C910E94801818161906ECF4BE016F5FD3
:102CF0007F4FC8010F960E94E6268D8190E0982FA5
:102D000088272E81820F911DF801968B858B8F81EC
:102D100090E0982F88272885820F911D928F818FB0
:102D200002C080E090E028960FB6F894DEBF0FBE98
:102D3000CDBFDF91CF911F910F910895FF920F9317
:102D40001F93CF93DF93EC018B018C85883011F5B5
:102D5000F12C6F2D6295660F607E685F83E090E0D6
:102D60000E94DA19811102C0FC8606C08831E1F3A5
:102D7000F39488E0F812EDCF8C85883059F01E87E7
:102D80000D871A8E198E20E0A80162E00E94B1170B
:102D900081E001C080E0DF91CF911F910F91FF9002
:102DA0000895FC011382128248EE53E060E070E067
:102DB000448355836683778380EE91E0918380839B
:102DC00088E08487CF010F960C94C026CF92DF92C3
:102DD000EF92FF920F931F93CF93DF93CDB7DEB7A0
:102DE000AF970FB6F894DEBF0FBECDBF7C018B014D
:102DF0006A01CE0101960E94C026CE0109960E946A
:102E0000D116CE018A960E94C0266AEE73E0CE01EA
:102E100084960E945B13BE016C5D7F4FCE010196CC
:102E20000E94460FAE01465D5F4FB801CE0101968C
:102E30000E94AB1181309105C1F4D701ED91FC9155
:102E40000088F189E02D84E192E09DA38CA30CA57C
:102E50001DA52EA53FA50EA31FA328A739A7A60130
:102E6000BE016C5D7F4FC7010995AF960FB6F89410
:102E7000DEBF0FBECDBFDF91CF911F910F91FF90AD
:102E8000EF90DF90CF9008950F9300E020E040E0B6
:102E900060E084E194E00E94CA260F9108950F93A8
:102EA00000E020E040E060E08AE194E00E94CA2671
:102EB0000F910895AB01682F6295660F607E645F85
:102EC00024E030E08CE090E00C949C199B01682F8A
:102ED0006295660F607E685FC9010C94DA1962E042
:102EE00070E00C9466179B01682F6295660F607EF8
:102EF000645FC9010C945319CF93DF93C82FD62F69
:102F0000472F64E070E00E9473174D2F65E070E07A
:102F10008C2FDF91CF910C947317462F62E070E0F5
:102F20000C947317CF93DF93C82FD62F472F60E1F0
:102F300070E00E9473174D2F61E170E08C2FDF91DC
:102F4000CF910C947317CF93C82F40E150E0682FB6
:102F500082E294E00E94581B6FEF8C2FCF910C946B
:102F60008D17EF92FF921F93CF93DF9300D0CDB7D1
:102F7000DEB7182F7A018FEF860F853048F5812F45
:102F80002A8369830E94A3172A816981462F422BD5
:102F900060E070E0812F0E947317E114F10411F0DA
:102FA000B7010AC060912004709121046F5F7F4FC8
:102FB0007093210460932004812F0E947C1741E0CC
:102FC00050E0612F82E294E00E94581B81E001C032
:102FD00080E00F900F90DF91CF911F91FF90EF90C5
:102FE00008951F93CF93DF93182FFB01EA0180818F
:102FF0008F3F51F481818F3F91F482818F3F79F42B
:1030000083818F3F61F41EC0811109C081818111CC
:1030100006C08281811103C08381882399F02097A3
:1030200089F0BF01812F0E945A17BE01812F0E9493
:10303000921744E050E0612F82E294E00E94581B16
:1030400081E001C080E0DF91CF911F91089548E0B9
:1030500050E0682F82E294E00C94581BDF92EF92CC
:10306000FF920F931F93CF93DF93D82E8B01EA012A
:10307000413088E0580710F0C0E0D8E06D2D82E2C2
:1030800094E00E94151A7C0163E070E08D2D0E948F
:103090006617873111F08C3121F4EC16FD0670F3C0
:1030A00002C0C0E0D0E09E01A8016D2D82E294E054
:1030B0000E94A41A40E250E06D2D82E294E00E944A
:1030C000581B8D2D0E946F1784FD0DC063E070E0CA
:1030D0008D2D0E9466178111F4CF8D2D0E94A317AC
:1030E00080E090E005C060E18D2D0E948D17CE013B
:1030F000DF91CF911F910F91FF90EF90DF90089596
:10310000DF92EF92FF920F931F93CF93DF93D82E0E
:103110007B018A01682F82E294E00E944A1AEC0146
:10312000009799F463E070E08D2D0E94661784315A
:1031300011F1882301F1C1E0D0E08C3111F4C0E03D
:10314000D0E0D195C195D10916C0081719070CF424
:10315000E8011C161D067CF400E09E01A7016D2D00
:1031600082E294E00E94071B40E450E06D2D82E271
:1031700094E00E94581BCE01DF91CF911F910F91D7
:10318000FF90EF90DF9008950F93AB0101E021E0F5
:1031900030E0682F82E294E00E94071B81E090E01B
:1031A0000F9108950895BF92CF92DF92EF92FF9210
:1031B0000F931F93CF93DF93B82E7B016A01E90130
:1031C000682F82E294E00E94151A8C179D0730F454
:1031D0006B2D82E294E00E94151AEC018E0196019B
:1031E000A7016B2D82E294E00E94661ACE01DF9166
:1031F000CF911F910F91FF90EF90DF90CF90BF90F4
:1032000008951F93CF93DF93182FFB01EA0180816C
:10321000811109C08181811106C08281811103C0A1
:103220008381882369F0209759F0BF01812F0E9484
:103230005A17BE01812F0E94921781E090E002C0D0
:1032400080E090E0DF91CF911F910895CF93C82F38
:1032500040E250E0682F82E294E00E94581B8C2FDD
:103260000E946F1784FD0CC08C2F0E946F1783FF84
:10327000F6CF68E18C2F0E948D1780E090E006C0A9
:1032800060E18C2F0E948D1781E090E0CF9108952E
:103290008EBD00000DB407FEFDCF8EB508952E98AB
:1032A00008952E9A08951F93CF93DF9300D01F9215
:1032B000CDB7DEB7182F4B836A8399830E944F19CD
:1032C0009981892F0E944819812F0E9448196A818B
:1032D000862F0E9448194B81842F0E9448190E9412
:1032E000511981E00F900F900F90DF91CF911F91B6
:1032F0000895CF93DF9368EE73E080E090E00E9442
:10330000C323269A0E943E09C0E0DC2FD295DD0F30
:10331000D07ED45F42E06D2F8EE190E00E94531981
:1033200042E06D2F8FE190E00E945319CF5FC830CB
:1033300061F7DF91CF910895CF92DF92EF92FF92E4
:103340000F931F93CF93DF9300D000D0CDB7DEB79C
:10335000F82E89014B835C836A8399830E944F19FD
:1033600089810E9448198F2D0E9448196A81862FF1
:103370000E9448194B81C42E5C81D52E7601E00E47
:10338000F11ECE14DF0431F0F60181916F010E942D
:103390004819F7CF0E945119C8010F900F900F9054
:1033A0000F90DF91CF911F910F91FF90EF90DF90E1
:1033B000CF9008951F93CF93DF9300D0CDB7DEB7A2
:1033C000182F6A8399830E944F1989810E94481996
:1033D000812F0E9448196A81862F0E94481980E037
:1033E0000E94481989830E94511989810F900F907A
:1033F000DF91CF911F9108951F93CF93DF93182FE3
:1034000060E270E00E946617C82FD0E0DC2FCC2766
:1034100061E270E0812F0E9466179E01280F311D26
:10342000C901DF91CF911F910895FF920F931F93D0
:10343000CF93DF93F62EC0E0D0E08F2D0E94FC19D1
:103440008C01009721F08F2D0E94FC19EC01C01710
:10345000D10799F7CE01DF91CF911F910F91FF9086
:1034600008951F93CF93DF93182F66E270E00E94B8
:103470006617C82FD0E0DC2FCC2767E270E0812FE1
:103480000E9466179E01280F311DC901DF91CF915F
:103490001F910895FF920F931F93CF93DF93F62E02
:1034A000C0E0D0E08F2D0E94311A8C01009721F0EE
:1034B0008F2D0E94311AEC01C017D10799F7CE0168
:1034C000DF91CF911F910F91FF900895CF92DF92DE
:1034D000EF92FF920F931F93CF93DF93D62EEA01C3
:1034E000790164E270E08D2D0E946617C82E65E2B6
:1034F00070E08D2D0E946617C80FD11D2C2D30E075
:10350000322F2227C20FD31F6D2D6295660F607E6A
:103510006C5E9801A701CE010E949C19C00FD11FBB
:103520004D2F64E270E08D2D0E9473174C2F65E2E1
:1035300070E08D2DDF91CF911F910F91FF90EF9053
:10354000DF90CF900C9473170F931F9389019A010A
:1035500040E050E00E94661A1F910F910895CF92AB
:10356000DF92EF92FF920F931F93CF93DF9300D0E0
:1035700000D0CDB7DEB7F82E89014B835C836A8318
:1035800099830E944F1989810E9448198F2D0E94AA
:1035900048196A81862F0E9448194B81C42E5C818C
:1035A000D52E7601E00EF11ECE14DF0439F080E056
:1035B0000E944819F60181936F01F6CF0E945119BC
:1035C000C8010F900F900F900F90DF91CF911F9136
:1035D0000F91FF90EF90DF90CF9008950F931F937E
:1035E000CF93DF9300D0CDB7DEB75A834983A901CB
:1035F000980189819A816295660F607E685E0F905E
:103600000F90DF91CF911F910F910C94AF1A8F9271
:103610009F92AF92BF92CF92DF92EF92FF920F9361
:103620001F93CF93DF936C01962E5A017901802E60
:1036300068E270E0892D0E946617C82F69E270E089
:10364000892D0E946617D0E0DC2FCC27C80FD11D32
:1036500087019501AE01692DC6010E94EE1A811005
:103660001AC0CE0DDF1D4D2F68E270E0892D0E943B
:1036700073174C2F69E270E0892DDF91CF911F9174
:103680000F91FF90EF90DF90CF90BF90AF909F9001
:103690008F900C947317DF91CF911F910F91FF9032
:1036A000EF90DF90CF90BF90AF909F908F90089554
:1036B000CF93C62F61E070E08C2F0E94731761E0FA
:1036C00070E08C2F0E9466178111F9CFCF91089579
:1036D000FF920F931F93CF93DF93FC010081C18171
:1036E000D281F8948981F02EF0948F218983789487
:1036F0001DE7115029F182E090E00E94FD238881AE
:103700008023B9F3F8948A818F218A838981802B61
:103710008983789480EE91E00E94FD23F89489815A
:103720008F21898386E490E00E94FD238881802395
:1037300011E009F010E078948AE991E00E94FD23FD
:10374000812FDF91CF911F910F91FF9008951F93CB
:10375000CF93DF93FC011081C181D281912F90958D
:1037600060FF12C0F8948A8189238A838981812B22
:1037700089838AE090E00E94FD238A81812B8A83DD
:10378000789487E390E011C0F8948A8189238A8332
:103790008981812B898381E490E00E94FD238A81C5
:1037A000812B8A83789485E090E0DF91CF911F91FF
:1037B0000C94FD230F931F93CF93DF93FC01108193
:1037C000C181D281F8948981812B89838A81012FDB
:1037D000009580238A8383E090E00E94FD23898105
:1037E000802389838AE090E00E94FD23C881789439
:1037F00085E390E00E94FD231C2381E009F480E032
:10380000DF91CF911F910F910895CF92DF92EF92A8
:10381000FF920F931F93CF93DF931F92CDB7DEB725
:103820006C01E62E08E010E0FF24F39461E09F2D88
:103830009E2109F460E0C60149830E94A71BFF0C8A
:103840000150110949810115110581F7411115C078
:10385000F894D6011196ED91FC91129791818C917B
:103860008095892381831196ED91FC911297928125
:103870008C9180958923828378940F90DF91CF91EA
:103880001F910F91FF90EF90DF90CF900895EF92EE
:10389000FF920F931F93CF93DF938C01C8E0D0E08A
:1038A000F12CEE24E394C8010E94DA1B8111FE285A
:1038B000EE0C2197C1F78F2DDF91CF911F910F91C2
:1038C000FF90EF900895CF92DF92FF920F931F9396
:1038D000CF93DF931F92CDB7DEB78C01F62E40E079
:1038E00065E579830E94051CCF2C7981D72E88E06D
:1038F000F82EF60161916F0140E0C8010E94051C9D
:10390000FA94B9F70F90DF91CF911F910F91FF902B
:10391000DF90CF900895FC0113861586148627E06A
:1039200030E0DF01A20FB31F13961C922115310561
:1039300019F021503109F5CF08951F93CF93DF93EC
:10394000EC01162F60E0812F0E949B24612F70E014
:10395000FB01E05FFD4FE491E883FB01E15DFD4F7A
:10396000E491F0E0EE0FFF1FE25BFD4F8591949133
:103970009A838983CE01DF91CF911F910C948B1C88
:10398000AF92BF92CF92DF92EF92FF920F931F936D
:10399000CF93DF931F92CDB7DEB75C01D62EE72E13
:1039A000FC018585811164C0C50149830E94681BA3
:1039B0004981811105C0F50113861586148671C0F1
:1039C000442319F040E060EF02C040E06CEEC50116
:1039D0000E94051C01E0F12CC12C11E0C5010E94E0
:1039E000DA1B682FC50169830E94DA1B6981613087
:1039F00019F48130B9F433C02F2D30E068131BC0A7
:103A0000F5018385181730F4E20FF31F83818023BB
:103A100049F402C0181731F060E0193058F4F5018C
:103A2000148708C0F501EF0DF11D8381802B83837E
:103A300061E009C0C12EF501E20FF31F8381902FD1
:103A4000909589238383C5010E94A71B1F5F000FE8
:103A500011F4F39401E0F7E0FF1508F0BFCF113443
:103A600038F0F501C386C11009C081E0858706C022
:103A7000F50113861586148680E013C0F501838155
:103A80008823B1F3ED2DFE2D80E090E0D501A80F45
:103A9000B91F13962C912193019688309105B1F7A7
:103AA00081E00F90DF91CF911F910F91FF90EF90E8
:103AB000DF90CF90BF90AF900895DC0180E061501F
:103AC00038F0ED91E827F0E0EF50FF4F8491F7CF09
:103AD0000895FC0171836083538342830895CF92DC
:103AE000DF92EF92FF920F931F93CF93DF93C62E37
:103AF000D42E790100E010E0C0E0D0E00E151F05E3
:103B000094F461E08D2D0E94D424CC0FDD1F8C2D08
:103B10000E940A25C80FD91F60E08D2D0E94D42471
:103B20000F5F1F4FEBCFCE01DF91CF911F910F9110
:103B3000FF90EF90DF90CF9008951F93CF93DF9386
:103B4000162FC42FD22F61E0842F0E949B2461E0A6
:103B50008D2F0E949B2461E08C2F0E94D42461E071
:103B60008D2F0E94D42460E08C2F0E94D42460E02A
:103B70008D2F0E94D42461E08D2F0E94D42461E017
:103B80008C2F0E94D42460E08D2F0E94D424212FFA
:103B900041E06D2F8C2F0E94332561E08D2F0E9414
:103BA000D42462E08C2F0E949B248C2F0E940A2533
:103BB00060E08D2F0E94D4248C2FDF91CF911F9134
:103BC0000C940A251F93CF93DF93162F62E0812F69
:103BD0000E949B24C8EED3E061E070E080E090E0BA
:103BE0000E94C323812F0E940A25892B11F021975F
:103BF00099F7DF91CF911F910895CF92DF92EF92C5
:103C0000FF920F931F93CF93DF938C01F62ED72E45
:103C1000E42EC52E62E08F2D0E949B2461E08E2D44
:103C20000E949B2428E030E04E2D5C2D6F2D7D2DD1
:103C3000C8010E946F1DD82F80E0C82F61E08F2D32
:103C40000E949B2461E08F2D0E94D42460E08F2D80
:103C50000E94D42461E08E2D0E94D42460E08E2D39
:103C60000E94D42462E08F2D0E949B2428E030E043
:103C70004E2D5C2D6F2D7D2DC8010E946F1D8C2B4C
:103C80009D2BDF91CF911F910F91FF90EF90DF90CF
:103C9000CF900895CF93DF93D62FC42F61E08D2F5F
:103CA0000E949B2461E08C2F0E949B2461E08D2F59
:103CB0000E94D42461E08C2F0E94D42460E08C2FD9
:103CC000DF91CF910C94D4240F931F93CF93DF9364
:103CD000EC012A813B814881598163E070E00E94B8
:103CE0009D1D68817981CE010E94E21D4A815B8120
:103CF00068817981CE010E94FD1D8C014A815B8122
:103D000068817981CE010E944A1EB801882777FD1B
:103D10008095982F0E94872FDF91CF911F910F914F
:103D200008950E94641E0E94542F882777FD809575
:103D3000982F0E94872F2AE037ED43E25CE30E9430
:103D40003B3020E030E040E252E40E94832E0895B0
:103D50004F925F926F927F928F929F92AF92BF929B
:103D6000CF92DF92EF92FF92CF93DF93EC012A8103
:103D70003B814881598165E070E00E949D1D68810A
:103D80007981CE010E94E21D4A815B81688179813F
:103D9000CE010E94FD1D7C014A815B816881798191
:103DA000CE010E944A1EB701882777FD8095982F83
:103DB0000E94872F6B017C0124E533EE45E25DE331
:103DC0000E943B3020E030E040E850E40E94832E27
:103DD0004B015C0122EA37EE4BE356EBC701B6011B
:103DE0000E943B30A70196010E943B309B01AC0131
:103DF000C501B4010E94842E4B015C01CE010E94DA
:103E0000911E2B013C012CEA35EC47EA58E3C7012F
:103E1000B6010E943B302AE037ED43E25CE30E94AA
:103E2000842E9B01AC01C301B2010E943B30A5016D
:103E300094010E94842EDF91CF91FF90EF90DF904C
:103E4000CF90BF90AF909F908F907F906F905F903A
:103E50004F9008950F931F93CF93DF93EC018B0145
:103E600081579F4F0E94C026FE01E556FF4F8FEFFE
:103E70009FEF9183808319830883C756DF4F198290
:103E80001882DF91CF911F910F910895CF92DF9209
:103E9000EF92FF920F931F93CF93DF93EC018B016F
:103EA0000E9494236B017C0188819981DC01ED9152
:103EB000FC910480F581E02D0995892B69F40E941D
:103EC00094236C197D098E099F0968397A4381050D
:103ED000910550F380E00CC088819981DC01ED915F
:103EE000FC910680F781E02D0995F801808381E03F
:103EF000DF91CF911F910F91FF90EF90DF90CF90C6
:103F000008950F931F93CF93DF93EA0108811981DE
:103F1000600F711F0E94461F882331F00F5F1F4FF3
:103F20001983088381E001C080E0DF91CF911F9168
:103F30000F9108953F924F925F926F927F928F926E
:103F40009F92AF92BF92CF92DF92EF92FF920F9328
:103F50001F93CF93DF9300D01F92CDB7DEB78C01B4
:103F60006B011A8219825C0182E0A80EB11CAE01BD
:103F70004F5F5F4FB501C8010E94811F811103C0CF
:103F800080E090E0BDC0D80112969C901B82E12C8D
:103F9000F12C412C512C32014394BE016D5F7F4FB7
:103FA000C8010E94461F882359F329813A81C9011B
:103FB00001969A8389836B81F801E20FF31F628374
:103FC000462F4F7750E0449D9001459D300D549D04
:103FD000300D1124E20EF31E97E0440C551C661CB4
:103FE000771C9A95D1F767FDD8CF292D207F3324F0
:103FF0003394203309F0312C8150F6018083332033
:1040000041F1AE014F5F5F4FB501C8010E94811FB2
:10401000882309F4B5CFAE014F5F5F4FB501C801EA
:104020000E94811F882309F4ABCFD6018C91F8013F
:10403000E80FF11D4380512C542C44248481480EF8
:10404000511CF801828181FF08C0F2E04F0E511C23
:1040500004C080E0412C512C01C082E0A82EB12C7C
:10406000612C712C480189E9880E911CC3018A0DCD
:104070009B1D8E159F05A0F5BE016D5F7F4FC8018A
:104080000E94461F882309F47BCFD4018D919C9117
:104090000097A9F0332099F029813A812250310903
:1040A000F6014081241B31094216530640F4DC011D
:1040B000ED91FC910190F081E02D6B810995898152
:1040C0009A818038910528F42B81F801E80FF91FB7
:1040D000228301969A838983BFEF6B1A7B0AC6CF2E
:1040E000F801E756FF4F80819181892B39F489814E
:1040F0009A818138910510F01A82198289819A81FA
:104100000F900F900F90DF91CF911F910F91FF9023
:10411000EF90DF90CF90BF90AF909F908F907F9067
:104120006F905F904F903F900895AF92BF92CF9263
:10413000DF92EF92FF920F931F93CF93DF9300D004
:1041400000D0CDB7DEB77C01F90180E09E2F9F77CC
:10415000EE0FEF2FEE1FFF0BF195309709F09068EF
:10416000A1E0B0E0AC0FBD1FA80FB11D9C938F5F05
:10417000309761F7A82EB12CDA01AA19BB09149661
:104180006C93BE016F5F7F4F80E090E04A195B093E
:104190008A159B0554F4FB01D190BF018A01080FD9
:1041A000191FF801D5820196F3CFF7018081918123
:1041B00089010F5F1F4F0A0D1B1DFC0120813181FA
:1041C000F90122813381A801BD01F90109956C0132
:1041D0000E949423F701EC57FF4F60837183828321
:1041E000938381E0C016D10609F080E00F900F9014
:1041F0000F900F90DF91CF911F910F91FF90EF9053
:10420000DF90CF90BF90AF900895C9010296DB0177
:10421000FD01E61BF70B2D91222331F0FA01E80F87
:10422000F91F20830196F4CF9C012E1B3F0B240F16
:10423000351FD9011297FC931196EC930895CF93F3
:10424000DF93EC0188819981009731F1DC01ED91D8
:10425000FC910488F589E02D099581111FC0FE01AC
:10426000E556FF4F80819181892BB1F48DEF9FEF4F
:104270009183808388819981DC01ED91FC91028496
:10428000F385E02D099588819981DC01ED91FC9100
:104290000288F389E02D099580E001C081E0DF917B
:1042A000CF9108952F923F924F925F926F927F929B
:1042B0008F929F92AF92BF92CF92EF92FF920F9305
:1042C0001F93CF93DF93CDB7DEB72C970FB6F8943B
:1042D000DEBF0FBECDBF4C011B012A0139010E9478
:1042E0001F2181111BC1F401EB56FF4F60817181C9
:1042F000D4018D919C911197A956BF4FFC0120814B
:1043000031816115710541F04D915C91D9011E9685
:10431000ED91FC911F971FC0F9010484F585E02DF4
:10432000FC87EB87ED91FC9124E132E03A8329830D
:10433000D401A157BF4F12964D915D916D917C9123
:1043400015974B835C836D837E83AF01BE016F5FE6
:104350007F4FEB85FC850995F4018130910509F0CB
:10436000D5C0EE57FF4F9183808387E0EFE1F1E006
:10437000DE01119601900D928A95E1F7FE013196CA
:1043800080E090E02191D401A80FB91F17962C93DB
:10439000019687309105B1F70115110559F0F0E24A
:1043A000CF9EC0011124866028E0E29E7001112496
:1043B0008E2901C082E04114510431F0611471046E
:1043C00011F4806801C0806CD4011E968C931E97F6
:1043D0001F961C921F978FE050968C937401B2E049
:1043E000EB0EF11C2FE030E0A701B101C4010E94E7
:1043F00005210115110561F09C01A701B801C40157
:104400000E9405219C01A701B501C4010E9405215C
:104410004114510479F09C01A701B201C4010E942A
:1044200005216114710431F09C01A701B301C4019D
:104430000E9405219C0125503109A70160E1C401BA
:104440000E9495200E949423F401EC57FF4F608353
:10445000718382839383840108571F4FF80160831F
:10446000718382839383F40180819181DC01ED91DA
:10447000FC910480F581E02D0995892BC1F40E94FF
:104480009423D8014D905D906D907C9064197509CE
:104490008609970968397A438105910520F3F4016B
:1044A000E556FF4F8CEF9FEF9183808324C0BE01C0
:1044B000685F7F4FC4010E949A1F0497E1F4F401E2
:1044C0008581940125563F4F7901811110C00E94CA
:1044D0009423D8016D937D938D939C931397F4014E
:1044E000E457FF4F1082F7011182108217C090E04D
:1044F000D9018D939C93F40180819181DC01ED9130
:10450000FC910288F389E02D099506C0E556FF4F1E
:104510008EEF9FEF9183808380E001C081E02C9635
:104520000FB6F894DEBF0FBECDBFDF91CF911F91C4
:104530000F91FF90EF90CF90BF90AF909F908F9092
:104540007F906F905F904F903F902F900895AF9223
:10455000BF92CF92EF920F931F93A12CB12CC12C3D
:10456000E12C00E010E020E030E040E050E00E946C
:1045700052211F910F91EF90CF90BF90AF9008956F
:104580008F929F92BF92CF92DF92EF92FF920F9302
:104590001F93CF93DF9300D0CDB7DEB74C01B42E7D
:1045A000152F790169837A830E941F2169817A819D
:1045B000882309F446C0FB0101900020E9F73197F8
:1045C000E61BF70BC70107968E0F9F1F81389105D9
:1045D000C0F5640182E0C80ED11C25E030E0A601E0
:1045E000C4010E940521EB2DF12F60E070E09401E1
:1045F000280F391F6E157F0549F04191D901A60F8B
:10460000B71F12964C936F5F7F4FF4CF011102C01A
:1046100060E301C061E3970125503109280F391F7C
:10462000A601C4010F900F90DF91CF911F910F91C0
:10463000FF90EF90DF90CF90BF909F908F900C9461
:10464000952080E00F900F90DF91CF911F910F91F7
:10465000FF90EF90DF90CF90BF909F908F90089544
:104660000F93FA0101900020E9F79F0121503109D1
:10467000241B350B00E00E94C0220F9108950F9378
:1046800000E020E040E060E083E294E00E94CA267F
:104690000F9108951F920F920FB60F9211242F932E
:1046A0003F938F939F93AF93BF9380912A049091F0
:1046B0002B04A0912C04B0912D043091290423E007
:1046C000230F2D3720F40196A11DB11D05C026E84A
:1046D000230F0296A11DB11D2093290480932A0463
:1046E00090932B04A0932C04B0932D0480912E045E
:1046F00090912F04A0913004B09131040196A11D36
:10470000B11D80932E0490932F04A0933004B09396
:104710003104BF91AF919F918F913F912F910F9055
:104720000FBE0F901F9018952FB7F89460912A0430
:1047300070912B0480912C0490912D042FBF08952B
:104740003FB7F89480912E0490912F04A0913004EB
:10475000B091310426B5A89B05C02F3F19F00196F2
:10476000A11DB11D3FBF6627782F892F9A2F620F99
:10477000711D811D911D42E0660F771F881F991FD3
:104780004A95D1F708958F929F92AF92BF92CF92A0
:10479000DF92EF92FF926B017C010E94A0234B01FC
:1047A0005C01C114D104E104F104F1F00E94E72D91
:1047B0000E94A023681979098A099B09683E734001
:1047C0008105910570F321E0C21AD108E108F108D2
:1047D00088EE880E83E0981EA11CB11CC114D10480
:1047E000E104F10429F7DDCFFF90EF90DF90CF9047
:1047F000BF90AF909F908F9008958230910538F0D0
:10480000880F991F880F991F05970197F1F7089551
:10481000789484B5826084BD84B5816084BD85B59B
:10482000826085BD85B5816085BDEEE6F0E0808162
:1048300081608083E1E8F0E0108280818260808383
:10484000808181608083E0E8F0E080818160808306
:10485000E1E9F0E0808182608083808181608083F3
:10486000E0E9F0E0808181608083E1ECF0E080812C
:104870008460808380818260808380818160808386
:10488000E3ECF0E0808181608083E0ECF0E0808107
:1048900082608083E2ECF0E0808181608083EAE7DF
:1048A000F0E0808184608083808182608083808169
:1048B00081608083808180688083089590E0FC011E
:1048C0003197EF30F105B0F5EA5AFF4F0C94E33021
:1048D000809180008F7703C0809180008F7D8093CE
:1048E0008000089580918000877FF9CF84B58F770D
:1048F00002C084B58F7D84BD0895809190008F772C
:1049000007C0809190008F7D03C080919000877FC9
:104910008093900008958091C0008F7703C08091AC
:10492000C0008F7D8093C00008958091C200877F72
:104930008093C2000895CF93DF9390E0FC01E05F85
:10494000FD4F2491FC01E15DFD4F8491882349F1E5
:1049500090E0880F991FFC01E659FD4FA591B49195
:10496000845A9D4FFC01C591D4919FB7611108C035
:10497000F8948C91209582238C93888182230AC09D
:10498000623051F4F8948C91322F309583238C93BC
:104990008881822B888304C0F8948C91822B8C931D
:1049A0009FBFDF91CF9108950F931F93CF93DF9314
:1049B0001F92CDB7DEB7282F30E0F901EF50FE4F40
:1049C0008491F901E05FFD4F1491F901E15DFD4F24
:1049D00004910023C9F0882321F069830E945E249A
:1049E0006981E02FF0E0EE0FFF1FE45AFD4FA59123
:1049F000B4919FB7F8948C91611103C010958123F5
:104A000001C0812B8C939FBF0F90DF91CF911F919D
:104A10000F910895CF93DF93282F30E0F901EF50E5
:104A2000FE4F8491F901E05FFD4FD491F901E15D02
:104A3000FD4FC491CC2391F081110E945E24EC2F94
:104A4000F0E0EE0FFF1FE25BFD4FA591B4912C91BA
:104A50002D2381E090E021F480E002C080E090E02E
:104A6000DF91CF910895BF92CF92DF92EF92FF92A4
:104A70000F931F93CF93DF93C82ED62EB42EC7E08B
:104A8000D0E0022F10E087E0E82EF12CB1100AC030
:104A9000F701EC1BFD0BB80102C075956795EA950F
:104AA000E2F707C0B8010C2E02C0759567950A940D
:104AB000E2F7617077278C2D0E94D42461E08D2D60
:104AC0000E94D42460E08D2D0E94D4242197F0F61A
:104AD000DF91CF911F910F91FF90EF90DF90CF90DA
:104AE000BF900895CF93DF931F92CDB7DEB7698350
:104AF000DC01ED91FC910280F381E02D41E050E07A
:104B0000BE016F5F7F4F09950F90DF91CF910895A0
:104B1000CF93DF93EC018C859D8597FF05C082E0E4
:104B20000E94692A9D878C878C859D85DF91CF9116
:104B3000089583E00C94FD2CFC018485958597FDF8
:104B400006C082E00E94112A90E00196089582E05A
:104B50000E94112A90E00895FC018485958597FDB7
:104B600005C02FEF3FEF35872487089582E00C942E
:104B7000692ACF93DF93EC0180911701882331F0EC
:104B800083E00E949A2A1816190634F081E090E01A
:104B90009B838A8380E090E0DF91CF910895FC01B0
:104BA00020812E5F208342E450E068E772E080E8D5
:104BB0000C94352BFC0121818081813A59F42132FA
:104BC00009F04BC047E050E060E171E080E00E94F6
:104BD000352B5EC0813209F040C0233289F48381D5
:104BE00090E0982F88273281832BA0E0B0E080935B
:104BF0000C0190930D01A0930E01B0930F010FC013
:104C0000203239F467E070E080E191E00E94662B89
:104C100009C0223221F482818093170103C02D7FC5
:104C20002032B1F580918204811103C0E0E0F8E008
:104C300002C0EEEFFAE08091100190911101A09175
:104C40001201B0911301803B9440A105B10511F50B
:104C50008091170180FF03C01DC080E00895EE3FE2
:104C60002AE0F20731F0808191819093FF0A8093CE
:104C7000FE0A87E797E7918380832BE088E190E045
:104C80000FB6F894A895809360000FBE2093600043
:104C900081E0089588E10FB6F89480936000109247
:104CA00060000FBEA895EE3F8AE0F80739F08091CA
:104CB000FE0A9091FF0A91838083EACF1092FF0A47
:104CC0001092FE0AE5CF2FEF3FEFFC0135872487D6
:104CD0000895109235041092340488EE93E0A0E019
:104CE000B0E08093360490933704A0933804B093D7
:104CF000390484E092E090933304809332048FEF80
:104D00009FEF90933F0480933E040895AF92BF922B
:104D1000CF92DF92EF92FF920F931F93CF93DF9387
:104D20006C017B01C0E0D0E000E010E0F601EC0F88
:104D3000FD1F4AE050E06281C7010E943E285C01ED
:104D40006EE2C7010E9451278A0D9B1D080F191F93
:104D50002196C330D10551F74AE050E0F601658154
:104D6000C7010E943E28800F911FDF91CF911F91B4
:104D70000F91FF90EF90DF90CF90BF90AF9008958C
:104D800024E132E0FC0131832083128213821482F9
:104D9000158208950F93FC0184E192E09183808352
:104DA00062834383248305830F91089524E132E0D5
:104DB000FC0131832083FB01408151816281738139
:104DC000FC0142835383648375830895FB01408112
:104DD000518162817381FC014283538364837583B3
:104DE000089584E192E09093840480938304109268
:104DF0008504109286041092870410928804089506
:104E000008950E9408240E94002789E894E00E94E7
:104E10008A2D0E94AF04C0E0D0E00E94FC052097DC
:104E2000E1F30E940000F9CF0C940A31611571057D
:104E300081F0DB010D900020E9F7AD0141505109EF
:104E4000461B570BDC01ED91FC910280F381E02DB4
:104E5000099480E090E00895EF92FF920F931F93E2
:104E6000CF93DF938C017B01C0E0D0E0F701EC0F22
:104E7000FD1F6491662359F0F801A081B181ED9185
:104E8000FC91C8010995892B11F02196EFCFCE0135
:104E9000DF91CF911F910F91FF90EF9008950C94A7
:104EA0001627DC01ED91FC910190F081E02D099431
:104EB00066E172E00C9416270F931F93CF93DF9354
:104EC000EC010E942C278C01CE010E945827800FF4
:104ED000911FDF91CF911F910F9108950F931F9311
:104EE000CF93DF93EC010E9416278C01CE010E9424
:104EF0005827800F911FDF91CF911F910F91089537
:104F00008F929F92AF92BF92DF92EF92FF920F9398
:104F10001F93CF93DF93CDB7DEB7A1970FB6F89469
:104F2000DEBF0FBECDBF7C01F42FD52ECB0119A261
:104F3000223008F42AE08E010F5D1F4F822E912C43
:104F4000A12CB12C6F2F7D2DA50194010E94A230C0
:104F5000F22FD32ECA01015011096A3014F4E0E394
:104F600001C0E7E3E60FD801EC93232B242B252B7C
:104F700049F7B801C7010E941627A1960FB6F89409
:104F8000DEBF0FBECDBFDF91CF911F910F91FF907C
:104F9000EF90DF90BF90AF909F908F900895CF9249
:104FA000DF92EF92FF920F931F93CF93DF93EC0169
:104FB0006A017B012115310579F4E881F9810190BD
:104FC000F081E02D642FDF91CF911F910F91FF9021
:104FD000EF90DF90CF9009942A303105E9F477FF04
:104FE0001AC06DE20E9451278C0144275527BA014F
:104FF0004C195D096E097F092AE0CE010E948027C5
:10500000800F911FDF91CF911F910F91FF90EF9033
:10501000DF90CF9008952AE0B701A601CE01DF917D
:10502000CF911F910F91FF90EF90DF90CF900C9454
:1050300080270F931F93CF93DF93EC019A01AB016D
:10504000662757FD6095762F0E94CF278C01CE01F1
:105050000E945827800F911FDF91CF911F910F91D0
:1050600008952115310541F4DC01ED91FC91019089
:10507000F081E02D642F09940C9480279A01462F2B
:1050800050E060E070E00C9431280F931F93CF93B1
:10509000DF93EC019A01AB0160E070E00E943128DF
:1050A0008C01CE010E945827800F911FDF91CF9174
:1050B0001F910F9108954F925F926F927F928F92FE
:1050C0009F92AF92BF92CF92DF92EF92FF920F9397
:1050D0001F93CF93DF93EC016A017B01B22E9A01FB
:1050E000AB01C701B6010E949E30882319F069E127
:1050F00072E027C026013701E89477F82FEF3FEFE1
:105100004FE75FE7C301B2010E949E3081110DC0DD
:105110002FEF3FEF4FE75FE7C301B2010E94E82E98
:1051200018161CF46DE172E00CC02FEF3FEF4FE753
:105130005FE4C701B6010E9437301816ACF461E293
:1051400072E0CE01DF91CF911F910F91FF90EF9010
:10515000DF90CF90BF90AF909F908F907F906F9097
:105160005F904F900C9416272FEF3FEF4FE75FECC7
:10517000C701B6010E94E82E87FDE1CF20E030E0B4
:10518000A901C701B6010E94E82E87FF0AC06DE29F
:10519000CE010E9451278C01F7FAF094F7F8F094B1
:1051A00002C000E010E0A12C60E070E080E09FE32E
:1051B000AB1441F020E030E040E251E40E94EC2EDC
:1051C000A394F6CF9B01AC01C701B6010E94842EC7
:1051D0006B017C010E94592F2B013C010E94852FFD
:1051E0009B01AC01C701B6010E94832E6B017C01BB
:1051F0002AE0B301A201CE010E948027080F191FE7
:10520000BB2039F06EE571E0CE010E941627080F31
:10521000191F7B2C772041F120E030E040E251E47F
:10522000C701B6010E943B306B017C010E94542FE4
:105230004B01AA2497FCA094BA2C2AE030E0B501D7
:10524000A401CE010E94CF27080F191FC501B40188
:105250000E94872F9B01AC01C701B6010E94832EDB
:105260006B017C017A94D6CFC801DF91CF911F9159
:105270000F91FF90EF90DF90CF90BF90AF909F90F5
:105280008F907F906F905F904F9008950F931F9332
:10529000CF93DF93EC010E945B288C01CE010E942A
:1052A0005827800F911FDF91CF911F910F91089583
:1052B000615030F02091F100FC0120830196F8CF7D
:1052C000289884E680939204089540918D0450912B
:1052D0008E0420918B0430918C0442175307B4F450
:1052E0009091E8009570E1F39091E80092FD19C06B
:1052F0008093F10080918D0490918E0401968F73BC
:105300009927892B19F48EEF8093E80080918D0402
:1053100090918E04019690938E0480938D0481E089
:10532000089580E00895CF92DF92EF92FF920F935D
:105330001F93CF93DF931F92CDB7DEB7082F162FA1
:10534000F42E862F880F8E5F99830E94652983E053
:105350000E946529E02EC02E9981D92E8C2D8E19A0
:10536000811798F4F601F7FE02C0849101C0808194
:105370000E946529082F80E00E9465298023FFEFA5
:10538000CF1ADF0A8111EACF01C081E00F90DF91CF
:10539000CF911F910F91FF90EF90DF90CF900895E4
:1053A0008091D70081608093D70080EA8093D800F5
:1053B00089B5806189BD89B5826089BD09B400FE67
:1053C000FDCF61E070E080E090E00E94C323809117
:1053D000D8008F7C80618093D8008091E000807F2E
:1053E0008093E0000895CF93DF931F92CDB7DEB78F
:1053F0001982CE0101960E94CF250E946F2EBE0118
:105400006F5F7F4F0E94E82D89810F90DF91CF91D0
:1054100008952FB7FC012083F89467706093E9002A
:105420000895CF93DF931F92CDB7DEB7682FCE01DB
:1054300001960E94092A8091F20099819FBF0F90E6
:10544000DF91CF910895FF920F931F93CF93DF9336
:1054500000D0CDB7DEB7F62E8A0190919104992342
:1054600011F057FF03C08FEF9FEF2BC0682FCE01C5
:1054700001967A830E94092A8091F20090E0A801A7
:105480007A81801791070CF4AC01EF2DF72FF40E01
:1054900084E6FE1639F02898809392049091F100EA
:1054A0009193F7CF4115510521F08091F2008823A7
:1054B00021F089818FBFCA0104C08BE68093E80088
:1054C000F8CF0F900F90DF91CF911F910F91FF9028
:1054D0000895CF93DF931F92CDB7DEB741E050E040
:1054E000BE016F5F7F4F0E94232A019719F48981C3
:1054F00090E002C08FEF9FEF0F90DF91CF91089562
:10550000CF93DF931F92CDB7DEB7682FCE01019600
:105510000E94092A9091E800892F807295FF04C0AB
:105520009091F20080E4891B99819FBF0F90DF91D9
:10553000CF9108956F927F928F929F92AF92BF9278
:10554000CF92DF92EF92FF920F931F93CF93DF934F
:105550001F92CDB7DEB7782E7B01C42EB52E809179
:105560009104882369F0042F152F8AEFD82E872DF8
:105570008072982E9AE3A92E872D8074882E11C0F0
:105580008FEF9FEF57C0872D0E94802A682E8111D0
:105590000CC0DA94A9F361E070E080E090E00E9432
:1055A000C3230115110579F73BC0282F30E00217FE
:1055B00013070CF4602E672DCE0101960E94092A74
:1055C0008091E80085FF29C0262D30E0021B130BD7
:1055D000992039F06A948FEF6816B1F01092F100BB
:1055E000F9CFF701862D77FE07C0815058F09491CE
:1055F0009093F1003196F9CF815020F091919093E2
:10560000F100FACFE20EF31E8091E80085FF0FC093
:105610000115110511F481100AC089818FBFC1CF16
:105620005D9884E6809393048C2D9B2D03C0A092FB
:10563000E800F3CF0F90DF91CF911F910F91FF9072
:10564000EF90DF90CF90BF90AF909F908F907F9022
:105650006F9008951092E90010928E0410928D04BC
:1056600090938C0480938B040895CF92DF92FF92E5
:105670000F931F93CF93DF9300D0CDB7DEB7F82EF3
:105680008A016B0101151105B1F0F601F7FE02C0A8
:10569000849101C0808149835A830E946529015009
:1056A0001109FFEFCF1ADF0A49815A818111EACF30
:1056B0008FEF9FEF01C0CA010F900F90DF91CF9144
:1056C0001F910F91FF90DF90CF900895BF92CF92DE
:1056D000DF92EF92FF920F931F93CF93DF936C01B2
:1056E0008B01EB013BEFB32E2097C1F07E01C1345B
:1056F000D1051CF020E4E22EF12C8091E80082FF1D
:10570000FCCFC8018C1B9D0B6E2D8C0D9D1D0E9426
:105710005829B092E800CE19DF09E6CFC801DF9121
:10572000CF911F910F91FF90EF90DF90CF90BF909E
:1057300008951F920F920FB60F921124DF92EF92ED
:10574000FF920F931F932F933F934F935F936F930A
:105750007F938F939F93AF93BF93EF93FF93CF93D9
:10576000DF93CDB7DEB76C97DEBFCDBF1092E900F7
:105770008091E80083FF23C168E0CE0145960E9436
:10578000582982EF8093E8003D8937FF05C080915A
:10579000E80080FFFCCF03C08EEF8093E800832FEA
:1057A000807609F0F0C02E894F89D88C21110CC069
:1057B000303829F4809190048093F10002C0109257
:1057C000F1001092F100F4C0842F90E09D29213067
:1057D00049F43111EDC0019709F0EAC080919004BD
:1057E0008D7F0AC0233059F43111E2C0019709F0CE
:1057F000DFC080919004826080939004D9C02530EE
:1058000041F48091E80080FFFCCF40684093E300C2
:10581000CFC0263009F08DC0EB8CFC8C22E0D21278
:105820002CC080E090E00E942A2B0E94F32999E08E
:105830008E010F5F1F4FF801292F11922A95E9F76A
:105840009983DA8291E09E8390EA98879AEF99870C
:1058500020918D0430918E04275F3F4F3C832B8332
:105860008D83C7010E942A2B49E050E0B80180E0F7
:105870000E94352B0E94F3299BC0C7010E942A2B4E
:105880000E946F2EBE016B5E7F4F0E94112E00970B
:1058900019F00CF08DC090C081E0D8120EC08B8D35
:1058A0009C8D089719F481E080938A0480918A0482
:1058B00081112FC06CEC72E031C0E3E0DE127CC0DD
:1058C0008F89882349F1823029F440E860E18AEE2B
:1058D00092E01CC0813029F440E86BE08EED92E04C
:1058E00015C0833009F068C00E946F2E8E010F5FD3
:1058F0001F4FB8010E94302EF80101900020E9F7F7
:105900003197E01BF10B40E06E2FC8010E949329F4
:105910004DC06AEB72E002C06BEF72E06115710579
:1059200009F44AC0FB01449150E080E80E94352B05
:105930003FC0273009F440C0283021F481E0809333
:10594000F10036C02930A1F53370B1F5E9E1F1E09D
:1059500081E021E036E39081992361F08093E900B2
:105960002093EB0091919093EC003093ED008F5FCA
:10597000873089F78EE78093EA001092EA008F89DA
:105980008093910415C08B8D9C8D0E942A2B898D4C
:10599000811105C0CE0145960E94DA2507C00E94FC
:1059A0006F2EBE016B5E7F4F0E944F2E882321F029
:1059B0008EEF8093E80003C081E28093EB006C9649
:1059C0000FB6F894DEBF0FBECDBFDF91CF91FF9130
:1059D000EF91BF91AF919F918F917F916F915F9167
:1059E0004F913F912F911F910F91FF90EF90DF907A
:1059F0000F900FBE0F901F9018958093E900809133
:105A0000F200882319F08AE38093E80008951F923A
:105A10000F920FB60F9211242F933F934F935F93E2
:105A20006F937F938F939F93AF93BF93CF93EF9396
:105A3000FF93C091E1008091E100837F8093E100BA
:105A40008093E100C3FF0FC01092E90081E08093D2
:105A5000EB001092EC0082E38093ED001092910431
:105A600088E08093F000C2FF19C083E00E94FD2C03
:105A700080919304882339F080919304815080931E
:105A80009304882389F180919204882339F08091CE
:105A90009204815080939204882341F1C4FF10C086
:105AA0008091E2008E7E81608093E2008091E1002F
:105AB0008F7E8093E10080918F048E7E806111C083
:105AC000C0FF16C08091E2008E7E80618093E2006C
:105AD0008091E1008E7E8093E10080918F048E7E24
