:100000000C94F8000C946A1D0C94911D0C94B81D6E
:100010000C94DF1D0C9420010C9420010C94061EFE
:100020000C9420010C9420010C94BB270C944D26B9
:100030000C9420010C9420010C9420010C942001BC
:100040000C9420010C9420010C9420010C942001AC
:100050000C9420010C9420010C9420010C942D1E72
:100060000C9420010C9420010C9420010C9420018C
:100070000C9420010C9420010C9420010C9420017C
:100080000C9420010C9420010C9420010C9420016C
:100090000C94F6070C9420010C9420010C94200180
:1000A0000C9420010C9420010C9420014E1F511F30
:1000B000401F441F4A1F721F721F721F551F591F76
:1000C0005D1F631F671F721F6D1F00000002000984
:1000D0000F0000030401000C0000000000000000FD
:1000E0000000000000000000000408020110408031
:1000F000401020408040800802040180402010020F
:10010000011080102040402004040404040304056E
:1001100002020202040302020202060606060606A4
:100120000404020202040400000000230026002947
:10013000002C002F0000000000250028002B002EBE
:1001400000310000000000240027002A002D0030AC
:1001500000080B0002020201000904000001020273
:1001600000000524001001052401010104240206F9
:100170000524060001070581031000400904010061
:10018000020A000000070502024000000705830282
:1001900040000012010002EF0201404123368000BE
:1001A0000101020301120100020000004041233658
:1001B0008000010102030141726475696E6F204C79
:1001C0004C430041726475696E6F204C656F6E61BF
:1001D00072646F00040309041D020C07A209790F61
:1001E000501341154C15291734170E1D5021D821D5
:1001F00011241FBECFEFDAE0DEBFCDBF12E0A0E0DA
:10020000B1E0ECEEFAE502C005900D92A635B1071B
:10021000D9F725E0A6E5B2E001C01D92A230B207F1
:10022000E1F711E0C0EFD1E004C02297FE010E9487
:10023000992BC83DD107C9F70E94E8210C94742D71
:100240000C9400008091B702811117C080E090E00B
:10025000A0E4B1E480935A0290935B02A0935C0205
:10026000B0935D0210925E026AE070E080E090E080
:100270000E94A61E81E08093B70280915602909161
:100280005702A0915802B09159020196A11DB11DCB
:100290008093560290935702A0935802B09359024C
:1002A0008091B702811117C080E090E0A0E4B1E432
:1002B00080935A0290935B02A0935C02B0935D021C
:1002C00010925E026AE070E080E090E00E94A61E5C
:1002D00081E08093B7028091560290915702A091DD
:1002E0005802B0915902682F61708DE00C94AC1FD8
:1002F0001F93CF93DF93FC01648D758D868D978D51
:1003000024E630E040E050E00E94562B672B682B3B
:10031000692B49F484E690E00E94562D61E0680F55
:1003200084E690E00BC0C4E6D0E010E0CE010E946D
:10033000562D811740F461E0680FCE01DF91CF9117
:100340001F910C945E2D2196C83CD10511F0182FF9
:10035000EDCFDF91CF911F910895CF92DF92EF9271
:10036000FF920F931F93CF93DF93EC01198A188AA2
:1003700080E190E09B8B8A8B83E690E09D8B8C8B59
:100380000E94562D8F3FB9F404E610E060E0C801EA
:100390000E945E2D0F5F1F4F083C1105B9F70C89B5
:1003A0001D89C8010E94562D8823E9F060E0C8012C
:1003B0000E945E2D18C0C12CD12C760104E610E0FD
:1003C000C8010E94562DC80ED11CE11CF11C0F5F04
:1003D0001F4F083C1105A1F7CC8EDD8EEE8EFF8EEF
:1003E000CE010E947801C888D9887E0100E110E022
:1003F000CC1ADD0AC6018E0D9F1D0E94562DF701F5
:1004000081937F0101501109A9F705E010E08A8965
:100410009B89800F911F0E94562DFE01E00FF11F56
:10042000868B0150110999F7DF91CF911F910F91A0
:10043000FF90EF90DF90CF9008950F9300E020E0C1
:1004400040E060E085E793E00E94B12185E593E01C
:100450000E94AD0189E395E09093C0028093BF02B2
:1004600080EC8093C10288EA8093C20281E080938D
:10047000C30285E38093C4021092290310922A03D9
:100480008BE293E00E94B61686E493E00E94591432
:1004900080EE9BEA909354038093530383E290E0B1
:1004A0009093B3028093B2021092B60249E050E0FA
:1004B00068E070E084EA92E00F910C944D1BCF92BB
:1004C000DF92EF92FF920F931F93CF93DF9300D0B1
:1004D00000D000D0CDB7DEB77C018B0161E08BE0AE
:1004E0000E94731F60E08BE00E94AC1F6AE070E026
:1004F00080E090E00E94A61E61E08BE00E94AC1FAD
:1005000068EC70E080E090E00E94A61EB80188E4EC
:1005100094E00E944312892B41F469E271E080E982
:1005200094E00E94202280E046C061E571E080E90D
:1005300094E00E9413228E010D5F1F4F6E0187E031
:10054000C80ED11C68E474E0CE0101960E942D1300
:10055000F80161918F014AE050E080E994E00E9447
:10056000F02261E671E080E994E00E9413220C150C
:100570001D0541F780E994E00E941C2243E064E0FD
:1005800089E190E00E94381948EE64E08AE190E049
:100590000E94381943E064E08BE190E00E94381932
:1005A000F701EC56FF4F60817181C70184599F4F5D
:1005B0000E94831681E026960FB6F894DEBF0FBE28
:1005C000CDBFDF91CF911F910F91FF90EF90DF9002
:1005D000CF90089540E052EC61E070E080E994E053
:1005E0000E943B218BE793E00E947C0644EF51E0A0
:1005F00060E070E08BE793E00E94062480E994E0DD
:100600000E9441218823D1F363E671E080E994E000
:100610000E94132240917103509172036091730301
:10062000709174032AE030E080E994E00E94F722A0
:100630008091B702811117C080E090E0A0E4B1E49E
:1006400080935A0290935B02A0935C02B0935D0288
:1006500010925E026AE070E080E090E00E94A61EC8
:1006600081E08093B70261E08DE00E94731F80916A
:100670005E02811118C062E083E00E94731F81E076
:1006800080935E020E94831E60935F0270936002FB
:10069000809361029093620242E050E062E271E076
:1006A00080E00E941A1D86E592E09093A302809359
:1006B000A2026BE673E08FEB92E00C945F02AF92C4
:1006C000BF92CF92DF92EF92FF920F931F93CF933F
:1006D000DF93CDB7DEB72C970FB6F894DEBF0FBE11
:1006E000CDBF8C0188E494E00E94D01278018CE6A2
:1006F000E80EF11CC7010E943216069709F070C07F
:10070000F801E358FF4FA0803196B0803196C08049
:100710003196D08061E771E080E994E00E94202268
:10072000D701ED91FC91008CF18DE02D46E050E079
:10073000BE01695F7F4FC70109958F81833709F03B
:1007400041C08A858237F1F57801B7E8EB0EF11CDC
:10075000C7010E941D15882319F0C7010E94DC14EF
:10076000F8014081518184E492E09A838983AB82CD
:10077000BC82CD82DE82BE016F5F7F4FC7010E94C7
:100780007914019769F56CE771E0C7010E94202296
:10079000D8011296AC9212971396BC9213971496A6
:1007A000CC9214971596DC9264E871E080E994E0AD
:1007B0000E942022BE01695F7F4F80E994E00E9481
:1007C00020220EC06EE871E080E994E00E942022B1
:1007D0004AE050E066E070E080E994E00E94CB22BD
:1007E0002C960FB6F894DEBF0FBECDBFDF91CF9130
:1007F0001F910F91FF90EF90DF90CF90BF90AF903F
:1008000008954F925F926F927F928F929F92AF92D4
:10081000BF92CF92DF92EF92FF920F931F93CF93ED
:10082000DF93CDB7DEB728970FB6F894DEBF0FBEC3
:10083000CDBF8FEB92E00E945F030E94831EC090A9
:10084000AA02D090AB02E090AC02F090AD026C191D
:100850007D098E099F096135734C8105910550F022
:100860000E94831E6093AA027093AB028093AC0235
:100870009093AD020E94831EC090AE02D090AF0252
:10088000E090B002F090B1026C197D098E099F09C9
:10089000613472448F40910508F480C10E94831E28
:1008A0006093AE027093AF028093B0029093B10256
:1008B0000E94831E69837A838B839C8384EA92E0FF
:1008C0000E948C1C609363027093640280936502A3
:1008D0009093660210926702109268021092690269
:1008E00010926A0285E080936B0284EA92E00E9493
:1008F000751C60936C0270936D0280936E029093EE
:100900006F02109270021092710210927202109295
:10091000730286E08093740268E971E080E994E0F4
:100920000E9420228091B60281112FC00091B20254
:100930001091B302B8018BE793E00E949006E0911A
:100940007B03F0917C030190F081E02D67E08BE761
:1009500093E009958BE793E00E940907B8018BE7C4
:1009600093E00E949006E0917B03F0917C0301905C
:10097000F081E02D60E18BE793E009958BE793E050
:100980000E94090781E08093B6020091B2021091A3
:10099000B302B8018BE793E00E94900642E050E07A
:1009A000B8018BE793E00E940607823069F58BE778
:1009B00093E00E94ED058093B4028BE793E00E94E0
:1009C000ED058093B5028BE793E00E9409076091E3
:1009D000B40270E0762F66278091B502682B8827D5
:1009E00077FD8095982F0E943B2A2AE939E949E949
:1009F0005FE30E94A0290E940D2A80E090E00E94FF
:100A0000392AAB01BC0111C08BE793E00E94E505D8
:100A1000892B29F08BE793E00E94ED05F5CF10922A
:100A2000B60240E054E264EF79EC409375025093D3
:100A30007602609377027093780210927902109296
:100A40007A0210927B0210927C028BE080937D02EE
:100A500022E030E080E994E00E94F4230091A202B9
:100A60001091A3020E94831EF8940E94831E4B01E2
:100A70005C01D801CD90DD90ED90FC90F8011082E2
:100A80001182128213827894F80181859285A38560
:100A9000B485A5019401281B390B4A0B5B0B2D83F0
:100AA0003E834F835887C701B6010E94392AD80177
:100AB00014962D913D914D915C9117970E94A0291C
:100AC0002B013C01F80181869286A386B48661EAF7
:100AD00071E080E994E00E9420222AE030E0B70132
:100AE000A60180E994E00E94F72240927E02509293
:100AF0007F0260928002709281022D813E814F813F
:100B0000588520938202309383024093840250934D
:100B1000850280E18093860265EC71E080E994E0D3
:100B20000E9420220E94831EAB01BC0189819A8110
:100B3000AB81BC81481B590B6A0B7B0B2AE030E070
:100B400080E994E00E94F72286E493E00E941D155C
:100B5000882321F140916C0250916D0260916E02E8
:100B600070916F0222E030E086E493E028960FB6A1
:100B7000F894DEBF0FBECDBFDF91CF911F910F91D3
:100B8000FF90EF90DF90CF90BF90AF909F908F90AD
:100B90007F906F905F904F900C94F42328960FB63F
:100BA000F894DEBF0FBECDBFDF91CF911F910F91A3
:100BB000FF90EF90DF90CF90BF90AF909F908F907D
:100BC0007F906F905F904F9008958091AB0390E07D
:100BD0002091AC03821B910908952091AC03809170
:100BE000AB03281750F4E22FF0E0E355FC4F80816F
:100BF00090E02F5F2093AC0308958FEF9FEF08954F
:100C0000E091AC038091AB03E81730F4F0E0E355DA
:100C1000FC4F808190E008958FEF9FEF0895089535
:100C2000CF92DF92EF92FF920F931F93CF93DF93B8
:100C30007C01CB018A0120918703222389F0EB01FB
:100C40006B01C40ED51ECC15DD0569F06991D70185
:100C5000ED91FC910190F081E02DC7010995F3CF52
:100C6000642F0E94CD07C801DF91CF911F910F9192
:100C7000FF90EF90DF90CF900895CF93DF931F9276
:100C8000CDB7DEB76983209187032223D1F020916D
:100C90008803203240F021E030E0FC0133832283DE
:100CA00080E090E015C080918903E82FF0E0E657DE
:100CB000FC4F998190838F5F809389038093880391
:100CC00005C061E0CE0101960E94CD0781E090E071
:100CD0000F90DF91CF910895FC011382128248EEAC
:100CE00053E060E070E0448355836683778389ED49
:100CF00091E09183808308951092AC031092AB032E
:100D000010928903109288030C94100781E080935D
:100D100087036093AA0310928903109288030895B1
:100D20000C9486060F93062F21E0409188036AE811
:100D300073E08091AA030E947607109289031092B3
:100D40008803109287030F9108958F929F92AF921C
:100D5000BF92CF92DF92EF92FF920F931F93CF93A8
:100D6000DF93EC01F62ED42E48015901EE2019F143
:100D70000E9486061E2D143008F013E01150B8F0C2
:100D8000E881F98128E0129FB0011124A5019401A6
:100D900004C056954795379527956A95D2F7CA01AD
:100DA000B9010190F081E02DCE010995E7CF60E017
:100DB000CE010E9492064D2D413208F040E22C2DCA
:100DC0006DEA73E08F2D0E942E071092AC03809382
:100DD000AB03DF91CF911F910F91FF90EF90DF90C8
:100DE000CF90BF90AF909F908F900895CF92EF9249
:100DF0000F931F93C22EE12C00E010E098010E9497
:100E0000A5061F910F91EF90CF90089521E00C94CB
:100E1000F60661E00C9492068BE793E00C946C0666
:100E200010923A0481E0809338041092370461E014
:100E300082E00E94AC1F61E083E00E94AC1FE9EBFE
:100E4000F0E080818E7F808380818D7F808388E445
:100E50008093B80085E48093BC000895413208F087
:100E600043C090913A049111FCCF91E090933A04E1
:100E7000209338042FEF2093CD0310921204240FF7
:100E8000209311049093390490913904880F892B91
:100E90008093390480913704813061F410923704D3
:100EA000809139048093BB008091BC0083FDF8CF12
:100EB00085EC01C085EE8093BC0080913A048130BE
:100EC000E1F380911204841710F44091120423E19D
:100ED00034E0FB01D9018A2F821B841718F48D910D
:100EE0008193F9CF842F089580E008950F934132C4
:100EF00008F04AC090913A049111FCCF92E090938F
:100F00003A04009338049FEF9093CD03109212049B
:100F100040931104FB0163E174E0DB019A2F961BFF
:100F2000941718F491919D93F9CF109239049091F0
:100F30003904880F892B80933904809137048130DC
:100F400061F410923704809139048093BB00809142
:100F5000BC0083FDF8CF85EC01C085EE8093BC001A
:100F6000222321F080913A048230E1F38091CD0375
:100F70008F3F61F08091CD03803251F08091CD039D
:100F8000803341F483E007C081E005C080E003C006
:100F900082E001C084E00F910895613298F42091BD
:100FA0003A04243089F46093EF03FC0181EF93E06D
:100FB000DC012A2F281B261718F421912D93F9CF35
:100FC00080E0089581E0089582E0089585ED8093A2
:100FD000BC008091BC0084FDFCCF10923A040895BF
:100FE00085EC8093BC0010923A0408951F920F92F2
:100FF0000FB60F9211242F933F934F935F936F93EC
:101000007F938F939F93AF93BF93EF93FF938091C1
:10101000B900887F803609F49EC078F5883209F4DB
:101020005DC090F4803109F456C038F4882309F487
:10103000F5C0883009F44FC0F5C0883109F44EC0BE
:10104000803209F45FC0EEC0803409F46AC058F4FD
:10105000803309F457C0883309F0E4C08093CD038E
:101060000E94F007DFC0803509F44FC0883509F4CD
:101070005DC0883409F0D6C0D3C0883909F4C4C033
:10108000A8F4883709F467C038F4883609F463C0D7
:10109000803709F460C0C6C0883809F4B5C080390B
:1010A00009F45FC0803809F0BDC05BC0803B09F423
:1010B00083C038F4803A09F466C0883A09F47CC0E9
:1010C000B1C0803C09F4A4C0883C09F4A1C0883BAD
:1010D00009F487C0A7C08091390410C09091120410
:1010E00080911104981770F5E091120481E08E0F41
:1010F00080931204F0E0ED5EFB4F80818093BB0093
:1011000085EC83C08093CD038BC0E091120481E015
:101110008E0F809312048091BB00F0E0ED5EFB4FD8
:10112000808390911204809111046BC0E0911204AD
:1011300081E08E0F809312048091BB00F0E0ED5EA1
:10114000FB4F80838091380481116AC081E08093D5
:10115000370484EA5EC083E080933A041092CE03A1
:10116000CFCF8091CE03803208F04EC0E091CE0305
:1011700081E08E0F8093CE038091BB00F0E0E153BD
:10118000FC4F8083BDCF0E94F0078091CE03803258
:1011900030F4E091CE03F0E0E153FC4F1082609117
:1011A000CE0370E0E0913304F09134048FEC93E0CF
:1011B00009951092CE0336C084E080933A041092D1
:1011C000F0031092EF03E0913504F0913604099595
:1011D0008091EF03811105C081E08093EF031092AD
:1011E000F103E091F00381E08E0F8093F003F0E0D3
:1011F000EF50FC4F80818093BB009091F003809171
:10120000EF03981708F47CCF85E88093BC000AC0F0
:1012100085EC8093BC0010923A0404C01092CD0378
:101220000E94E607FF91EF91BF91AF919F918F913F
:101230007F916F915F914F913F912F910F900FBED2
:101240000F901F901895CF93CFB7F89480913B04DF
:10125000811127C0E9E1F1E08491EAEFF0E0949197
:10126000E82FF0E0EE0FFF1FED5BFE4FA591B4916C
:101270008C91892321F461E081E10E94AC1F61E03F
:1012800081E10E94731F8CB580618CBD8CB5806438
:101290008CBD61E08FE00E94731F61E080E10E94DD
:1012A000731F80913B048F5F80933B04CFBFCF912E
:1012B00008950E9624E1FC0111922A95E9F708950C
:1012C000CF93DF93EC01625F7F4F0E94BD21CE017F
:1012D000DF91CF910895CF93DF93EC016E5E7F4F46
:1012E0000E94BD21CE01DF91CF910895CF93DF936E
:1012F000EC016A5E7F4F0E94BD21CE01DF91CF914C
:101300000895CF93DF93EC01625E7F4F0E94BD2171
:10131000CE01DF91CF91089580E3FB018083329667
:10132000842F82958F7090E1899F401911244A3053
:1013300014F4405D01C0495C4293882311F0482FAA
:10134000EFCF08950F9300E020E040E060E08CE3F1
:1013500094E00E94B1210F9108956F927F928F9235
:101360009F92AF92BF92CF92DF92EF92FF920F9334
:101370001F93CF93DF93CDB7DEB7AC970FB6F8943A
:10138000DEBF0FBECDBF7C01862EB42EA52E20E27F
:10139000922ECE0101966C01FC01292D11922A9505
:1013A000E9F70FEF2FEF4FEF6FEF86960E94B12115
:1013B00084E492E09AA389A389A59AA5ABA5BCA5CC
:1013C0008BA39CA3ADA3BEA38701095B1F4F43E47E
:1013D00050E0BE016F5D7F4FC8010E94B3150196BA
:1013E00009F4BFC081E089838A8386E0782E7B82FE
:1013F0001C82F70164817581868197810E949D2BF3
:101400006D837E838F839887A986BA8680E890E073
:101410009C878B874CE150E0B601C8010E94BF1544
:10142000F601292D11922A95E9F7570188E0A80EB7
:10143000B11CF501D60101900D927A94E1F740E1DB
:1014400050E0B601C8010E94BF15F60111929A94AE
:10145000E9F796E0692E712C40E250E0B601C80130
:101460000E94BF15F1E06F1A7108B1F783E6898316
:1014700092E89A8393E59B838C8385E38D8381E057
:101480008E838F829DE3988797E099878A8786E08D
:10149000F501DE011B9601900D928A95E1F78CE033
:1014A000898B8A8B65EE71E0CE0143960E944F2DA9
:1014B000F7014385BE01675E7F4FC7010E948C091B
:1014C000F7014485BE01655E7F4FC7010E948C090C
:1014D000F7014585BE01635E7F4FC7010E948C09FD
:1014E0004EE150E0B601C8010E94BF15F3E08F1233
:1014F0001EC082E3898384E08A83F70196859B83FB
:1015000097859C8390899D8391899E8396E39F8391
:101510008887828D8987838D8A87848D8B87858D47
:101520008C874CE050E0B601C8010E94BF1587E3EC
:10153000898386E08A8391E09B8393E09C838D83FB
:101540008FE08E838AE38F838BE388878FEF898791
:1015500049E050E0B601C8010E94BF15C8010E94D1
:10156000BB15AC960FB6F894DEBF0FBECDBFDF91B2
:10157000CF911F910F91FF90EF90DF90CF90BF9090
:10158000AF909F908F907F906F9008952F923F9291
:101590004F925F926F927F928F929F92AF92BF9283
:1015A000CF92DF92EF92FF920F931F93CF93DF932F
:1015B000CDB7DEB7E3970FB6F894DEBF0FBECDBF51
:1015C0007C012A013B0169010E94771E4B015C01ED
:1015D0008701095B1F4FC8010E94321618161906B1
:1015E00094F00E94771E681979098A099B094616AA
:1015F000570668067906F0F062E370E080E090E05C
:101600000E94A61EE8CF42E250E0BE016F5F7F4F0E
:10161000C8010E94FC158981823031F4F801858966
:1016200096898334910541F019A6C8010E948C1552
:1016300089A566C18FEF64C16D817E818F81988598
:101640000E949D2B4B015C01F601608371838283B4
:10165000938346E050E0B701685F7F4FCE014D961F
:101660000E94422D892B99F4F70180819181A281FA
:10167000B38188169906AA06BB0648F08481958135
:10168000A681B78188159905AA05BB0528F4C8016C
:101690000E948C1580E034C189899A89AB89BC8904
:1016A000F70186879787A08BB18B3EECC32ED12C98
:1016B000C8010E94D315F1E0CF1AD108C9F719A6C5
:1016C000C70182969BA78AA7F701B696FDA7ECA74C
:1016D00008969FA78EA73C976F018E9699AB88AB13
:1016E0003897FBABEAAB5701F6E1AF0EB11C4701EF
:1016F0008EE1880E911CC8010E94721518161906F9
:101700000CF093CFC8010E94D3158333910509F4DF
:10171000CDC0F4F481309105B9F11CF4892B59F353
:10172000DFC083309105C1F1069709F0D9C0C80127
:101730000E94D3153C0144E050E0B401C8010E946E
:10174000FC15212C312C7724F4E06F1A71083FC06E
:101750008A33910509F47EC03CF48533910561F02C
:10176000C69709F43FC0BCC08B33910509F488C00B
:101770008F3F910501F2B4C0C8010E94D315C80182
:101780000E94D31589A7B7CFC8010E94D31544E0A2
:1017900050E06AA97BA93AC0C8010E94D3153C0158
:1017A00044E050E0B501C8010E94FC15212C312C09
:1017B000772494E0691A7108261437040CF09BCF43
:1017C000C8010E94D315EFEF2E1A3E0AF5CF26145A
:1017D00037040CF090CFC8010E94D3158FEF281A60
:1017E000380AF5CFC8010E94D315782EF701828DF3
:1017F000811110C0838D81110DC0848D81110AC0AB
:10180000858D811107C044E050E0B601C8010E94F7
:10181000FC1571CFE8A9F9A920803180428053805E
:10182000B601CE0183960E94BD218DA19EA1AFA1DC
:10183000B8A582159305A405B50529F3212C312CF3
:10184000721409F458CFC8010E94D315FFEF2F1A64
:101850003F0AF6CFC8010E94D31544E050E06CA5C2
:101860007DA5C8010E94FC15F70166A177A180A59E
:1018700091A50E949D2B66A377A380A791A73BCF3C
:10188000C8010E94D31544E050E06EA57FA5C801B1
:101890000E94FC15F70162A573A584A595A50E9479
:1018A0009D2B62A773A784A795A725CFC8010E9487
:1018B000D31544E050E06AA57BA5C8010E94FC1541
:1018C000F70162A173A184A195A10E949D2B62A33F
:1018D00073A384A395A366A777A780AB91AB0BCF27
:1018E000C8010E94D315382E612C712C361409F4CE
:1018F00002CFC8010E94D315FFEF6F1A7F0AF6CFFF
:10190000E3960FB6F894DEBF0FBECDBFDF91CF9147
:101910001F910F91FF90EF90DF90CF90BF90AF900D
:101920009F908F907F906F905F904F903F902F90FF
:1019300008952F923F924F925F926F927F928F9273
:101940009F92AF92BF92CF92DF92EF92FF920F934E
:101950001F93CF93DF93CDB7DEB727970FB6F894D9
:10196000DEBF0FBECDBF8C0120ED37E040E050E080
:1019700061E070E080E090E00E947F28D80114963A
:101980006D937D938D939C931797F801608371837A
:10199000828393834801F7E48F0E911CC4010E9457
:1019A0009E1564E470E0C4010E948316882309F444
:1019B00028C10E94771E6B017C01A12CB12C1D82D5
:1019C000180186E4280E311CD801DE96BF83AE8351
:1019D00038EE432E33E0532E612C712CF1018081BF
:1019E000833009F4FDC081111FC0F8018481958105
:1019F000A681B7810196A11DB11D84839583A6831D
:101A0000B7830E94771E6C197D098E099F09A30177
:101A100092010E94562BA90161E0C8010E94AD0904
:101A200081E0D1018C93BEC08430F9F4F801848147
:101A30009581A681B7810196A11DB11D84839583EF
:101A4000A683B7830E94771E6C197D098E099F09B2
:101A5000A30192010E94562BA90163E0C8010E94D4
:101A6000AD09E2E0D101EC939DC0813061F5AE811A
:101A7000BF814D915D916D917C919E012F5F3F4F94
:101A8000C8010E94C60A8D83823009F08BC089810B
:101A90009A81AB81BC81F80184839583A683B78347
:101AA0000E94771E6C197D098E099F09A30192017E
:101AB0000E94562BA90163E0C8010E94AD09ED8187
:101AC000D101EC9375C0823009F06CC0AE81BF814A
:101AD0004D915D916D917C919E012F5F3F4FC801AB
:101AE0000E94C60A8D83853009F056C083E0F1015B
:101AF0008083F80182A193A1A4A1B5A1892B8A2B8F
:101B00008B2B41F484E893E0A0E0B0E082A393A3A0
:101B1000A4A3B5A3F80186A197A1A0A5B1A5892B7F
:101B20008A2B8B2B61F482A193A1A4A1B5A1B695B8
:101B3000A7959795879586A397A3A0A7B1A7D80146
:101B40009A964D915D916D917C919D9796968D9110
:101B50009D910D90BC91A02D452B462B472B59F400
:101B6000AC01BD01440F551F661F771FF80142A746
:101B700053A764A775A7F80186A797A7A0ABB1AB39
:101B800082A593A5A4A5B5A582AB93ABA4ABB5AB39
:101B9000AA24A394B12C0CC0FD81F63019F4D10114
:101BA0001C9206C0BD81BF3F19F4F10110821D8255
:101BB000F1E0AF16B10409F411CF0E94771E6C1941
:101BC0007D098E099F09D801DA962D913D914D919D
:101BD0005C91DD97261737074807590708F0FECEB6
:101BE000C4010E949E15F80184819581A681B78168
:101BF0000196A11DB11D84839583A683B783C5017A
:101C000002C080E090E027960FB6F894DEBF0FBECA
:101C1000CDBFDF91CF911F910F91FF90EF90DF909B
:101C2000CF90BF90AF909F908F907F906F905F907C
:101C30004F903F902F900895CF92DF92EF92FF92B6
:101C40000F931F93CF93DF93EC016B011AA21BA29A
:101C50001CA21DA21EA21FA218A619A61AA61BA688
:101C60001CA61DA61EAA1FAA18AE19AE2AAF3BAF0E
:101C70004CAF5DAFFC01FE96E082F18202831383DC
:101C80008C01085F1F4F86E0F80111928A95E9F7F1
:101C9000CE010E94590986E0F601D80101900D920B
:101CA0008A95E1F7FE01EA5BFF4F1082CE01DF91DA
:101CB000CF911F910F91FF90EF90DF90CF900C94F8
:101CC000990C8F929F92AF92BF92CF92DF92EF9238
:101CD000FF920F931F93CF93DF93EC010E94771E27
:101CE0006B017C018EA99FA9A8ADB9AD8E010E5BD9
:101CF0001F4F892B8A2B8B2B09F48FC0F801808111
:101D00009181A281B381A7019601281B390B4A0B4F
:101D10005B0BCA01B90157FD4EC04601570138EEB1
:101D2000830E33E0931EA11CB11C28EE33E040E08B
:101D300050E00E94782B861A970AA80AB90AF8017F
:101D400080829182A282B382DA01C9010196A11D2B
:101D5000B11D4EA55FA568A979A98C019D01000F51
:101D6000111F221F331F40175107620773072CF4FE
:101D70001EA61FA618AA19AA08C0481B590B6A0B51
:101D80007B0B4EA75FA768AB79AB4AA95BA96CA98F
:101D90007DA940175107620773072CF41AAA1BAAE2
:101DA0001CAA1DAA08C0481B590B6A0B7B0B4AAB27
:101DB0005BAB6CAB7DAB8E010A5B1F4FF801808182
:101DC000833081F48EA59FA5A8A9B9A91816190674
:101DD0001A061B063CF084E08083CE010E94990C19
:101DE000019602C080E090E0F8012081233011F0DC
:101DF000211120C04AA95BA96CA97DA9141615065A
:101E000016061706BCF0F8011082CE010E9459098F
:101E1000CE010E94990C03960DC0D701C6018851CE
:101E20009C4FAF4FBF4FF80180839183A283B38350
:101E300080E090E0CEAADFAAE8AEF9AEDF91CF91C4
:101E40001F910F91FF90EF90DF90CF90BF90AF90D8
:101E50009F908F900895FB01428153816481758129
:101E6000FC0142835383648375831782168208952D
:101E7000CF93FB0181918111FDCFFB0180E090E0C8
:101E800020E030E0CAE06191662309F12430310599
:101E900064F56E3271F48F3F910509F034F5DA0183
:101EA000A20FB31F12968C932F5F3F4F80E090E0FC
:101EB000EACFDC01CA9FC001CB9F900D1124772788
:101EC00067FD709560537109860F971FDCCF8F3FB8
:101ED000910509F054F4243031053CF4FA01E20F85
:101EE000F31F828381E090E002C080E090E0CF9118
:101EF00008950F9300E020E040E060E082E494E089
:101F00000E94B1210F910895AF92BF92CF92DF92BC
:101F1000EF92FF920F931F93CF93DF9300D01F9206
:101F2000CDB7DEB76C017B010E94771EF601778387
:101F300066838601085F1F4FB6016A5F7F4F42E0EC
:101F400050E0C8010E94BF1581E090E09A83898328
:101F500042E050E0BE016F5F7F4FC8010E94BF1595
:101F600080E091E09A83898342E050E0BE016F5F98
:101F70007F4FC8010E94BF151A82198242E050E0CB
:101F8000BE016F5F7F4FC8010E94BF1542E050E065
:101F9000BE016F5F7F4FC8010E94BF1542E050E055
:101FA000BE016F5F7F4FC8010E94BF156701F60138
:101FB0008081882311F1F7016F018191811115C092
:101FC0005601AE18BF081A141B0494F4AB8241E00A
:101FD00050E0BE016D5F7F4FC8010E94BF15A50193
:101FE000B701C8010E94BF1503C08E3229F7E8CFA0
:101FF0007601FFEFEF1AFF0ADACF1B8241E050E0D3
:10200000BE016D5F7F4FC8010E94BF15E12CFF2408
:10201000F394FA82E98242E050E0BE016F5F7F4FA5
:10202000C8010E94BF15FA82E98242E050E0BE0179
:102030006F5F7F4FC8010E94BF1581E090E00F9055
:102040000F900F90DF91CF911F910F91FF90EF9024
:10205000DF90CF90BF90AF9008954F925F926F92B4
:102060007F928F929F92AF92BF92CF92DF92EF9228
:10207000FF920F931F93CF93DF93CDB7DEB7639794
:102080000FB6F894DEBF0FBECDBF7C015B016A01C5
:102090000E94771E2B013C018701085F1F4F4501FD
:1020A000A12CB12CC8010E9432161816190694F002
:1020B0000E94771E64197509860997098616970686
:1020C000A806B906D0F062E370E080E090E00E94DC
:1020D000A61EE8CFF7014281538164817581818D0D
:1020E000928DA38DB48D481759076A077B0741F479
:1020F000858D968DC59721F406C08FEF9FEFF9C0AF
:102100008EEF9FEFF6C0C8010E9472150C970CF479
:10211000EEC04CE050E0BE016F5F7F4FC8010E94EF
:10212000FC158B819C819827892798279A8B898B0E
:10213000F7014681578129813A814217530711F4EB
:1021400097FD06C0C8010E948C158CEF9FEFD1C08F
:102150008F709270892B31F0C8010E948C158BEF23
:102160009FEFC7C0AF80B884BA24AB24BA24A114AF
:10217000B10419F0E12CF12C23C0C8010E948C1588
:102180008AEF9FEFB6C041E050E0BE01635F7F4F32
:10219000C8010E94FC158D8581111BC08D858111A0
:1021A000F2CFC8010E94D315C8010E94D315C801FF
:1021B0000E94D315C8010E94D315FFEFEF1AFF0A42
:1021C0008D819E81982789279827E816F906D8F2ED
:1021D0000AC08D859FEF980F9D878823F9F2C8016B
:1021E0000E94D315F6CFE12CF12C41E050E0BE0166
:1021F0006D5E7F4FC8010E94FC158B89982F907CE3
:1022000061F4882371F08B899FEF980F9B8B882353
:1022100041F0C8010E94D315F6CFC8010E94D31522
:102220001B8A8B898111E1CF42E050E0BE01615FE2
:102230007F4FC8010E94FC1542E050E0BE01635F81
:102240007F4FC8010E94FC15C8010E94D315C80128
:102250000E94D315C8010E94D315C8010E94D3154E
:1022600042E050E0BE016F5E7F4FC8010E94FC1546
:102270008F8598898115914029F48D859E858115DA
:10228000914019F0812C912C16C089899A89811569
:10229000944031F0C8010E948C1587EF9FEF29C050
:1022A000B6016E5F7F4F44E050E0C8010E94FC150C
:1022B00081E090E01EC089899A899827892798270C
:1022C0008816990638F4C8010E94D3152FEF821A98
:1022D000920AF1CF8FEFE81AF80AEA14FB0409F02A
:1022E00084CFC8010E948C1586EF9FEF02C08DEF4E
:1022F0009FEF63960FB6F894DEBF0FBECDBFDF91A0
:10230000CF911F910F91FF90EF90DF90CF90BF90F2
:10231000AF909F908F907F906F905F904F900895B7
:102320008F929F92AF92BF92CF92DF92EF92FF92E5
:102330000F931F93CF93DF9300D000D000D0CDB781
:10234000DEB78C015B016A010E94380F4C010097D7
:1023500009F05DC0F80142815381648175818091EB
:10236000440490914504A0914604B0914704481755
:1023700059076A077B0709F44EC00E94771E78014F
:10238000F8E0EF0EF11C6F7077277C5FC7010E94A9
:102390008316813009F043C084E492E09A838983F4
:1023A000F80182819381A481B5818B839C83AD8365
:1023B000BE8345E350E0BE016F5F7F4FC7010E94BF
:1023C000B315892B19F4812C912C1DC0B501C801BE
:1023D0000E94840F892BB9F3C7010E94BB15892B7A
:1023E00091F333E0A32EB12CA60168E873E1C80194
:1023F0000E942D104C01F1E0AF1AB10821F08F3F7F
:102400002FEF920789F3C7010E949E1508C0882408
:102410008394912C04C09EEF892E99249A94C40130
:1024200026960FB6F894DEBF0FBECDBFDF91CF91D9
:102430001F910F91FF90EF90DF90CF90BF90AF90E2
:102440009F908F90089524E030E0AC0164E081E03B
:1024500090E00C94811924E030E0AC0164E085E068
:1024600090E00C94811926E030E0AC0164E089E052
:1024700090E00C94811924E030E0AC0164E08FE03E
:1024800090E00C948119AF92BF92CF92DF92EF92BD
:10249000FF920F931F93CF93DF9300D000D000D013
:1024A000CDB7DEB76C015B0182E690E00E94FB21B4
:1024B0008C0182E6F80111928A95E9F7C801895BDF
:1024C0009F4F0E94B616F6011783068380E894E0BA
:1024D0000E945E19C5010E94331200E020E040E036
:1024E00060E0CE0101960E94B121CE0103960E94C8
:1024F0003B1218E8E12E13E1F12E00E010E020E697
:102500003AEE40E050E0B501F601868197810E94E5
:102510001C0E8C018130910589F5F6016681778169
:10252000CE0101960E946009CE0103960E943B12E3
:10253000F60166817781CE0101960E947609CE016F
:1025400003960E942312F60166817781CE010196DF
:102550000E946B09CE0103960E942B12F601668140
:102560007781CE0101960E9481094B815C816D814A
:102570007E81F6014283538364837583C801269666
:102580000FB6F894DEBF0FBECDBFDF91CF911F9184
:102590000F91FF90EF90DF90CF90BF90AF90089594
:1025A000EF92FF920F931F93CF93DF9300D000D051
:1025B00000D0CDB7DEB78C01FC01868197810097F2
:1025C000E1F10E94610E7C018230910521F084E0EE
:1025D000E816F104A1F5F80166817781CE01019634
:1025E0000E946009CE0103960E943B12F8016681A9
:1025F0007781CE0101960E947609CE0103960E9452
:102600002312F80166817781CE0101960E946B0941
:10261000CE0103960E942B12F80166817781CE01CC
:1026200001960E9481094B815C816D817E81F80158
:10263000428353836483758302C0E12CF12CC7016C
:1026400026960FB6F894DEBF0FBECDBFDF91CF91B7
:102650001F910F91FF90EF900895CF93DF93EC01BE
:102660000E94A721AE014E5F5F4F24E030E060E0A2
:102670008FE090E00E94941ACE01DF91CF910895EF
:1026800024E432E0FC0131832083FB014281538149
:1026900064817581FC01428353836483758308954B
:1026A0000F9300E020E040E060E080E694E00E94CC
:1026B000B12188E494E00F910C94A721DC01ED9105
:1026C000FC91008CF18DE02D099591E0892708950A
:1026D000CF93DF931F92CDB7DEB76983DC01ED9115
:1026E000FC910280F381E02D41E050E0BE016F5F7C
:1026F0007F4F09950F90DF91CF91089521E0FC0164
:102700008485883009F420E0822F0895FC019485A7
:10271000FB018485981303C081E0983009F480E0C0
:1027200008950F931F93CF93DF93EC018A018C855B
:10273000883021F00E941318892B39F481E090E051
:102740009B838A8380E090E001C0C801DF91CF9134
:102750001F910F910895FC016485683021F080E895
:1027600094E00C942F1A80E090E00895CF93DF93CB
:102770001F92CDB7DEB741E050E0BE016F5F7F4FE3
:10278000FC0184850E946518181619061CF48981BD
:1027900090E002C08FEF9FEF0F90DF91CF910895EF
:1027A000FC0184850C9465180F931F93CF93DF93DE
:1027B0001F92CDB7DEB78C01DC01ED91FC91048056
:1027C000F581E02D0995892B51F0BE016F5F7F4F98
:1027D000F80184850E94A918898190E002C08FEFDA
:1027E0009FEF0F90DF91CF911F910F910895FC0102
:1027F00084850C94B718CF92DF92EF92FF920F93DB
:102800001F93CF93DF93CDB7DEB7AF970FB6F89492
:10281000DEBF0FBECDBF7C018B016A01CE010196E8
:102820000E94A721CE0109960E94B616CE018A9673
:102830000E94A72168E474E0CE0184960E944013B0
:10284000BE016C5D7F4FCE0101960E942B0FAE0141
:10285000465D5F4FB801CE0101960E949011813014
:102860009105C1F4D701ED91FC910484F585E02D2B
:1028700084E492E09DA38CA30CA51DA52EA53FA5E5
:102880000EA31FA328A739A7A601BE016C5D7F4F29
:10289000C7010995AF960FB6F894DEBF0FBECDBF46
:1028A000DF91CF911F910F91FF90EF90DF90CF902C
:1028B0000895FC011382128248EE53E060E070E05C
:1028C000448355836683778380EF91E0918380838F
:1028D00088E084870895FC016485683041F0629542
:1028E000660F607E685F83E090E00C94BF1980E023
:1028F0000895DF92EF92FF920F931F93CF93DF9390
:10290000EC017B018A018C85883009F04BC0D12C09
:102910006D2D6295660F607E685F83E090E00E9497
:10292000BF19811102C0DC8607C08B7F8831D9F3C3
:10293000D39488E0D812ECCF8C85883099F120911F
:102940000A0130910B012F5F3F4F11F420E034E07A
:1029500030930B0120930A0140910A0150910B0121
:1029600020E061E00E949617B7016E5F7F4FA801DB
:102970008C850E94D617811103C088E08C8712C015
:10298000CE010E946B14873151F061E070E080E06D
:1029900090E00E94A61ECE010E946B14ECCF81E055
:1029A00090E002C080E090E0DF91CF911F910F9105
:1029B000FF90EF90DF900895CF92DF92EF92FF9219
:1029C000CF93DF93EC018C85883081F10E940C1845
:1029D0000E94771E6B017C01CE010E946B1488233C
:1029E00059F00E94771E6C197D098E099F09683E77
:1029F00073408105910598F0CE010E946B148823E5
:102A000019F08C850E948817EC85F0E0EE0FFF1F0F
:102A1000E05BFB4F1182108288E08C8707C061E089
:102A200070E080E090E00E94A61ED6CFDF91CF91AB
:102A3000FF90EF90DF90CF900895CF93DF93EC015C
:102A40008C858830D1F0CE010E946B148431A9F0BE
:102A5000882399F0883189F08C3169F4E881F98113
:102A60000480F581E02DCE01099521E0892B09F440
:102A700020E0822F03C081E001C080E0DF91CF9190
:102A800008950F9300E020E040E060E086E694E0E7
:102A90000E94B1210F9108950F9300E020E040E0E3
:102AA00060E08CE694E00E94B1210F910895DC0172
:102AB000ED91FC91008CF18DE02D099424E432E03D
:102AC000FC0131832083FB01418952896389748928
:102AD000FC0142835383648375830895FC018589D7
:102AE00096890895FC01818D928D0895CF93DF938F
:102AF0001F92CDB7DEB76983DC01ED91FC910280B6
:102B0000F381E02D41E050E0BE016F5F7F4F0995FA
:102B10000F90DF91CF910895CF93DF93EC01898DD2
:102B20009A8D892B41F0E881F9810680F781E02DAB
:102B3000CE010995F4CFDF91CF910895CF93DF9324
:102B4000EC018C85883061F00E948817EC85F0E0FC
:102B5000EE0FFF1FE05BFB4F1182108288E08C8735
:102B6000DF91CF910895FC01108E178A6E5F7F4F21
:102B700084850C94E618FC0184850C940B19CF9382
:102B8000DF93EC019A018F89988DAB01BC018C8594
:102B90000E94B8182F89388D280F391F388F2F8B36
:102BA000DF91CF9108950F931F93CF93DF931F92DF
:102BB000CDB7DEB78C01FC01818D928D892B59F048
:102BC00041E050E0BE016F5F7F4F84850E94651831
:102BD000181619061CF08FEF9FEF08C0F801818DC1
:102BE000928D0197928F818F898190E00F90DF9174
:102BF000CF911F910F910895CF93DF93EC01898DB1
:102C00009A8D009719F48FEF9FEF10C0481759075E
:102C100008F0AC018C850E946518181619069CF7FF
:102C2000298D3A8D281B390B3A8F298FDF91CF914F
:102C30000895CF93DF931F92CDB7DEB7FC01218DAE
:102C4000328D232B49F0BE016F5F7F4F84850E9438
:102C5000A918898190E002C08FEF9FEF0F90DF915C
:102C6000CF9108950F931F93CF93DF93CDB7DEB726
:102C700028970FB6F894DEBF0FBECDBF8C01DC01E4
:102C8000ED91FC910284F385E02D0995F8016485AE
:102C900080E894E00E942F1A892B41F148E050E02F
:102CA000BE016F5F7F4FD8011C968C910E94651802
:102CB00018161906ECF4BE016F5F7F4FC8010F961E
:102CC0000E94CD218D8190E0982F88272E81820F40
:102CD000911DF801968B858B8F8190E0982F882726
:102CE0002885820F911D928F818F02C080E090E035
:102CF00028960FB6F894DEBF0FBECDBFDF91CF91FF
:102D00001F910F910895FF920F931F93CF93DF931D
:102D1000EC018B018C85883011F5F12C6F2D6295BB
:102D2000660F607E685F83E090E00E94BF198111AA
:102D300002C0FC8606C08831E1F3F39488E0F81203
:102D4000EDCF8C85883059F01E870D871A8E198E2D
:102D500020E0A80162E00E94961781E001C080E0B7
:102D6000DF91CF911F910F91FF900895FC01138285
:102D7000128248EE53E060E070E04483558366833E
:102D8000778380E192E09183808388E08487CF011C
:102D90000F960C94A721CF92DF92EF92FF920F93A0
:102DA0001F93CF93DF93CDB7DEB7AF970FB6F894ED
:102DB000DEBF0FBECDBF7C018B016A01CE01019643
:102DC0000E94A721CE0109960E94B616CE018A96CE
:102DD0000E94A72168E474E0CE0184960E9440130B
:102DE000BE016C5D7F4FCE0101960E942B0FAE019C
:102DF000465D5F4FB801CE0101960E94901181306F
:102E00009105C1F4D701ED91FC910088F189E02D85
:102E100084E492E09DA38CA30CA51DA52EA53FA53F
:102E20000EA31FA328A739A7A601BE016C5D7F4F83
:102E3000C7010995AF960FB6F894DEBF0FBECDBFA0
:102E4000DF91CF911F910F91FF90EF90DF90CF9086
:102E500008950F9300E020E040E060E082E794E016
:102E60000E94B1210F9108950F9300E020E040E00F
:102E700060E088E794E00E94B1210F910895AB01D2
:102E8000682F6295660F607E645F24E030E08CE01E
:102E900090E00C9481199B01682F6295660F607E0B
:102EA000685FC9010C94BF1962E070E00C944B1785
:102EB0009B01682F6295660F607E645FC9010C9468
:102EC0003819CF93DF93C82FD62F472F64E070E0D7
:102ED0000E9458174D2F65E070E08C2FDF91CF9145
:102EE0000C945817462F62E070E00C945817CF935B
:102EF000DF93C82FD62F472F60E170E00E9458174C
:102F00004D2F61E170E08C2FDF91CF910C94581719
:102F1000CF93C82F40E150E0682F80E894E00E94F2
:102F20003D1B6FEF8C2FCF910C947217EF92FF9295
:102F30001F93CF93DF9300D0CDB7DEB7182F7A0160
:102F40008FEF860F853048F5812F2A8369830E9491
:102F500088172A816981462F422B60E070E0812F1B
:102F60000E945817E114F10411F0B7010AC06091F2
:102F70007E0470917F046F5F7F4F70937F04609336
:102F80007E04812F0E94611741E050E0612F80E8AC
:102F900094E00E943D1B81E001C080E00F900F9003
:102FA000DF91CF911F91FF90EF9008951F93CF93E2
:102FB000DF93182FFB01EA0180818F3F51F481815B
:102FC0008F3F91F482818F3F79F483818F3F61F449
:102FD0001EC0811109C08181811106C082818111C9
:102FE00003C08381882399F0209789F0BF01812F46
:102FF0000E943F17BE01812F0E94771744E050E0E6
:10300000612F80E894E00E943D1B81E001C080E0D8
:10301000DF91CF911F91089548E050E0682F80E83C
:1030200094E00C943D1BDF92EF92FF920F931F935D
:10303000CF93DF93D82E8B01EA01413088E0580707
:1030400010F0C0E0D8E06D2D80E894E00E94FA19FD
:103050007C0163E070E08D2D0E944B17873111F0E9
:103060008C3121F4EC16FD0670F302C0C0E0D0E014
:103070009E01A8016D2D80E894E00E94891A40E22B
:1030800050E06D2D80E894E00E943D1B8D2D0E9444
:10309000541784FD0DC063E070E08D2D0E944B1726
:1030A0008111F4CF8D2D0E94881780E090E005C03B
:1030B00060E18D2D0E947217CE01DF91CF911F919B
:1030C0000F91FF90EF90DF900895DF92EF92FF92C3
:1030D0000F931F93CF93DF93D82E7B018A01682F24
:1030E00080E894E00E942F1AEC01009799F463E0C5
:1030F00070E08D2D0E944B17843111F1882301F16E
:10310000C1E0D0E08C3111F4C0E0D0E0D195C195A0
:10311000D10916C0081719070CF4E8011C161D0682
:103120007CF400E09E01A7016D2D80E894E00E94F0
:10313000EC1A40E450E06D2D80E894E00E943D1BC5
:10314000CE01DF91CF911F910F91FF90EF90DF9013
:1031500008950F93AB0101E021E030E0682F80E893
:1031600094E00E94EC1A81E090E00F910895089598
:10317000BF92CF92DF92EF92FF920F931F93CF9364
:10318000DF93B82E7B016A01E901682F80E894E0A3
:103190000E94FA198C179D0730F46B2D80E894E09B
:1031A0000E94FA19EC018E019601A7016B2D80E8AF
:1031B00094E00E944B1ACE01DF91CF911F910F91A5
:1031C000FF90EF90DF90CF90BF9008951F93CF9323
:1031D000DF93182FFB01EA018081811109C08181F1
:1031E000811106C08281811103C08381882369F027
:1031F000209759F0BF01812F0E943F17BE01812FF8
:103200000E94771781E090E002C080E090E0DF91BB
:10321000CF911F910895CF93C82F40E250E0682FBF
:1032200080E894E00E943D1B8C2F0E94541784FD7F
:103230000CC08C2F0E94541783FFF6CF68E18C2FAF
:103240000E94721780E090E006C060E18C2F0E941F
:10325000721781E090E0CF9108958EBD00000DB40B
:1032600007FEFDCF8EB508952E9808952E9A0895E5
:103270001F93CF93DF9300D01F92CDB7DEB7182FE7
:103280004B836A8399830E9434199981892F0E9404
:103290002D19812F0E942D196A81862F0E942D19C8
:1032A0004B81842F0E942D190E94361981E00F90C6
:1032B0000F900F90DF91CF911F910895CF93DF93DF
:1032C00068EE73E080E090E00E94A61E269A0E94BD
:1032D0002309C0E0DC2FD295DD0FD07ED45F42E021
:1032E0006D2F8EE190E00E94381942E06D2F8FE142
:1032F00090E00E943819CF5FC83061F7DF91CF911D
:103300000895CF92DF92EF92FF920F931F93CF9386
:10331000DF9300D000D0CDB7DEB7F82E89014B8304
:103320005C836A8399830E94341989810E942D19D4
:103330008F2D0E942D196A81862F0E942D194B8195
:10334000C42E5C81D52E7601E00EF11ECE14DF0472
:1033500031F0F60181916F010E942D19F7CF0E9483
:103360003619C8010F900F900F900F90DF91CF91F9
:103370001F910F91FF90EF90DF90CF9008951F93D2
:10338000CF93DF9300D0CDB7DEB7182F6A83998330
:103390000E94341989810E942D19812F0E942D19B4
:1033A0006A81862F0E942D1980E00E942D19898341
:1033B0000E94361989810F900F90DF91CF911F9154
:1033C00008951F93CF93DF93182F60E270E00E945F
:1033D0004B17C82FD0E0DC2FCC2761E270E0812FA3
:1033E0000E944B179E01280F311DC901DF91CF911B
:1033F0001F910895FF920F931F93CF93DF93F62EA3
:10340000C0E0D0E08F2D0E94E1198C01009721F0DF
:103410008F2D0E94E119EC01C017D10799F7CE0159
:10342000DF91CF911F910F91FF9008951F93CF933C
:10343000DF93182F66E270E00E944B17C82FD0E090
:10344000DC2FCC2767E270E0812F0E944B179E0192
:10345000280F311DC901DF91CF911F910895FF926F
:103460000F931F93CF93DF93F62EC0E0D0E08F2D04
:103470000E94161A8C01009721F08F2D0E94161AB7
:10348000EC01C017D10799F7CE01DF91CF911F91C1
:103490000F91FF900895CF92DF92EF92FF920F93DA
:1034A0001F93CF93DF93D62EEA01790164E270E097
:1034B0008D2D0E944B17C82E65E270E08D2D0E9465
:1034C0004B17C80FD11D2C2D30E0322F2227C20FF1
:1034D000D31F6D2D6295660F607E6C5E9801A7010B
:1034E000CE010E948119C00FD11F4D2F64E270E000
:1034F0008D2D0E9458174C2F65E270E08D2DDF91C5
:10350000CF911F910F91FF90EF90DF90CF900C948F
:1035100058170F931F9389019A0140E050E00E94D1
:103520004B1A1F910F910895CF92DF92EF92FF9265
:103530000F931F93CF93DF9300D000D0CDB7DEB7AA
:10354000F82E89014B835C836A8399830E94341926
:1035500089810E942D198F2D0E942D196A81862F35
:103560000E942D194B81C42E5C81D52E7601E00E70
:10357000F11ECE14DF0439F080E00E942D19F6010F
:1035800081936F01F6CF0E943619C8010F900F90FA
:103590000F900F90DF91CF911F910F91FF90EF90BF
:1035A000DF90CF9008950F931F93CF93DF9300D0B8
:1035B000CDB7DEB75A834983A901980189819A81E1
:1035C0006295660F607E685E0F900F90DF91CF91DD
:1035D0001F910F910C94941A8F929F92AF92BF9269
:1035E000CF92DF92EF92FF920F931F93CF93DF93CF
:1035F0006C01962E5A017901802E68E270E0892DC7
:103600000E944B17C82F69E270E0892D0E944B176A
:10361000D0E0DC2FCC27C80FD11D87019501AE016A
:10362000692DC6010E94D31A81101AC0CE0DDF1D6C
:103630004D2F68E270E0892D0E9458174C2F69E2E7
:1036400070E0892DDF91CF911F910F91FF90EF9046
:10365000DF90CF90BF90AF909F908F900C945817B1
:10366000DF91CF911F910F91FF90EF90DF90CF905E
:10367000BF90AF909F908F900895CF93C62F61E039
:1036800070E08C2F0E94581761E070E08C2F0E9430
:103690004B178111F9CFCF910895FC01718360839D
:1036A000538342830895CF92DF92EF92FF920F935C
:1036B0001F93CF93DF93C62ED42E790100E010E044
:1036C000C0E0D0E00E151F0594F461E08D2D0E943E
:1036D000AC1FCC0FDD1F8C2D0E94E21FC80FD91F1D
:1036E00060E08D2D0E94AC1F0F5F1F4FEBCFCE010E
:1036F000DF91CF911F910F91FF90EF90DF90CF90CE
:1037000008951F93CF93DF93162FC42FD22F61E01C
:10371000842F0E94731F61E08D2F0E94731F61E050
:103720008C2F0E94AC1F61E08D2F0E94AC1F60E0C7
:103730008C2F0E94AC1F60E08D2F0E94AC1F61E0B7
:103740008D2F0E94AC1F61E08C2F0E94AC1F60E0A7
:103750008D2F0E94AC1F212F41E06D2F8C2F0E94D6
:103760000B2061E08D2F0E94AC1F62E08C2F0E9425
:10377000731F8C2F0E94E21F60E08D2F0E94AC1FF0
:103780008C2FDF91CF911F910C94E21F1F93CF9349
:10379000DF93162F62E0812F0E94731FC8EED3E0E3
:1037A00061E070E080E090E00E94A61E812F0E9400
:1037B000E21F892B11F0219799F7DF91CF911F918B
:1037C0000895CF92DF92EF92FF920F931F93CF93C2
:1037D000DF938C01F62ED72EE42EC52E62E08F2DBE
:1037E0000E94731F61E08E2D0E94731F28E030E05D
:1037F0004E2D5C2D6F2D7D2DC8010E94531BD82F9F
:1038000080E0C82F61E08F2D0E94731F61E08F2D33
:103810000E94AC1F60E08F2D0E94AC1F61E08E2DD6
:103820000E94AC1F60E08E2D0E94AC1F62E08F2DC5
:103830000E94731F28E030E04E2D5C2D6F2D7D2DF2
:10384000C8010E94531B8C2B9D2BDF91CF911F91A0
:103850000F91FF90EF90DF90CF900895CF93DF937B
:10386000D62FC42F61E08D2F0E94731F61E08C2F33
:103870000E94731F61E08D2F0E94AC1F61E08C2FAE
:103880000E94AC1F60E08C2FDF91CF910C94AC1F95
:103890000F931F93CF93DF93EC012A813B814881E3
:1038A000598163E070E00E94811B68817981CE01BB
:1038B0000E94C61B4A815B8168817981CE010E948A
:1038C000E11B8C014A815B8168817981CE010E9474
:1038D0002E1CB801882777FD8095982F0E943B2ADF
:1038E000DF91CF911F910F9108950E94481C0E9473
:1038F000082A882777FD8095982F0E943B2A2AE086
:1039000037ED43E25CE30E94EF2A20E030E040E242
:1039100052E40E94372908954F925F926F927F92EE
:103920008F929F92AF92BF92CF92DF92EF92FF92CF
:10393000CF93DF93EC012A813B814881598165E077
:1039400070E00E94811B68817981CE010E94C61BB4
:103950004A815B8168817981CE010E94E11B7C01F3
:103960004A815B8168817981CE010E942E1CB7015A
:10397000882777FD8095982F0E943B2A6B017C0158
:1039800024E533EE45E25DE30E94EF2A20E030E0DB
:1039900040E850E40E9437294B015C0122EA37EEEF
:1039A0004BE356EBC701B6010E94EF2AA70196012F
:1039B0000E94EF2A9B01AC01C501B4010E94382985
:1039C0004B015C01CE010E94751C2B013C012CEACD
:1039D00035EC47EA58E3C701B6010E94EF2A2AE016
:1039E00037ED43E25CE30E9438299B01AC01C3013F
:1039F000B2010E94EF2AA50194010E943829DF91AB
:103A0000CF91FF90EF90DF90CF90BF90AF909F90BD
:103A10008F907F906F905F904F9008950F9300E08C
:103A200020E040E060E081E894E00E94B1210F9145
:103A300008950895853008F04CC0E82FF0E0EE0FAF
:103A4000FF1FE45FFE4F718360838230E1F018F462
:103A5000813069F004C0833019F1843071F18091B4
:103A600069008C7F842B80936900E89A0895809187
:103A70006900440F551F440F551F837F842B80938B
:103A80006900E99A08958091690034E0440F551F58
:103A90003A95E1F78F7C842B80936900EA9A089528
:103AA0008091690026E0440F551F2A95E1F78F7336
:103AB000842B80936900EB9A089580916A0094E0CA
:103AC000440F551F9A95E1F78F7C842B80936A00F1
:103AD000EE9A08951F920F920FB60F9211242F9312
:103AE0003F934F935F936F937F938F939F93AF9386
:103AF000BF93EF93FF93E0910C01F0910D010995B5
:103B0000FF91EF91BF91AF919F918F917F916F91B5
:103B10005F914F913F912F910F900FBE0F901F908B
:103B200018951F920F920FB60F9211242F933F9367
:103B30004F935F936F937F938F939F93AF93BF93B5
:103B4000EF93FF93E0910E01F0910F010995FF9122
:103B5000EF91BF91AF919F918F917F916F915F9105
:103B60004F913F912F910F900FBE0F901F9018957E
:103B70001F920F920FB60F9211242F933F934F93E2
:103B80005F936F937F938F939F93AF93BF93EF93C5
:103B9000FF93E0911001F09111010995FF91EF91D0
:103BA000BF91AF919F918F917F916F915F914F9155
:103BB0003F912F910F900FBE0F901F9018951F925D
:103BC0000F920FB60F9211242F933F934F935F9351
:103BD0006F937F938F939F93AF93BF93EF93FF93D5
:103BE000E0911201F09113010995FF91EF91BF91BE
:103BF000AF919F918F917F916F915F914F913F9185
:103C00002F910F900FBE0F901F9018951F920F923B
:103C10000FB60F9211242F933F934F935F936F939F
:103C20007F938F939F93AF93BF93EF93FF93E09115
:103C30001401F09115010995FF91EF91BF91AF919A
:103C40009F918F917F916F915F914F913F912F91B4
:103C50000F900FBE0F901F9018951F920F920FB6E6
:103C60000F9211242F933F938F939F93AF93BF9302
:103C70008091880490918904A0918A04B0918B046A
:103C80003091870423E0230F2D3720F40196A11DE6
:103C9000B11D05C026E8230F0296A11DB11D20937A
:103CA00087048093880490938904A0938A04B09336
:103CB0008B0480918C0490918D04A0918E04B0911E
:103CC0008F040196A11DB11D80938C0490938D04E7
:103CD000A0938E04B0938F04BF91AF919F918F9169
:103CE0003F912F910F900FBE0F901F9018952FB7F7
:103CF000F894609188047091890480918A0490916D
:103D00008B042FBF08953FB7F89480918C04909155
:103D10008D04A0918E04B0918F0426B5A89B05C098
:103D20002F3F19F00196A11DB11D3FBF6627782FC7
:103D3000892F9A2F620F711D811D911D42E0660F20
:103D4000771F881F991F4A95D1F708958F929F92E8
:103D5000AF92BF92CF92DF92EF92FF926B017C0104
:103D60000E94831E4B015C01C114D104E104F104E3
:103D7000F1F00E949B280E94831E681979098A0924
:103D80009B09683E73408105910570F321E0C21ADA
:103D9000D108E108F10888EE880E83E0981EA11C86
:103DA000B11CC114D104E104F10429F7DDCFFF9067
:103DB000EF90DF90CF90BF90AF909F908F9008953D
:103DC000789484B5826084BD84B5816084BD85B5F6
:103DD000826085BD85B5816085BDEEE6F0E08081BD
:103DE00081608083E1E8F0E01082808182608083DE
:103DF000808181608083E0E8F0E080818160808361
:103E0000E1E9F0E08081826080838081816080834D
:103E1000E0E9F0E0808181608083E1ECF0E0808186
:103E200084608083808182608083808181608083E0
:103E3000E3ECF0E0808181608083E0ECF0E0808161
:103E400082608083E2ECF0E0808181608083EAE739
:103E5000F0E08081846080838081826080838081C3
:103E600081608083808180688083089590E0FC0178
:103E70003197EF30F105B0F5EA5AFF4F0C94972BCC
:103E8000809180008F7703C0809180008F7D809328
:103E90008000089580918000877FF9CF84B58F7767
:103EA00002C084B58F7D84BD0895809190008F7786
:103EB00007C0809190008F7D03C080919000877F24
:103EC0008093900008958091C0008F7703C0809107
:103ED000C0008F7D8093C00008958091C200877FCD
:103EE0008093C2000895CF93DF9390E0FC01E751E7
:103EF000FF4F2491FC01E85FFE4F8491882349F134
:103F000090E0880F991FFC01ED5BFE4FA591B491E5
:103F10008B5C9E4FFC01C591D4919FB7611108C085
:103F2000F8948C91209582238C93888182230AC0F7
:103F3000623051F4F8948C91322F309583238C9316
:103F40008881822B888304C0F8948C91822B8C9377
:103F50009FBFDF91CF9108950F931F93CF93DF936E
:103F60001F92CDB7DEB7282F30E0F901E653FF4F9F
:103F70008491F901E751FF4F1491F901E85FFE4F79
:103F800004910023C9F0882321F069830E94361F21
:103F90006981E02FF0E0EE0FFF1FEB5CFE4FA59173
:103FA000B4919FB7F8948C91611103C0109581234F
:103FB00001C0812B8C939FBF0F90DF91CF911F91F8
:103FC0000F910895CF93DF93282F30E0F901E65346
:103FD000FF4F8491F901E751FF4FD491F901E85F58
:103FE000FE4FC491CC2391F081110E94361FEC2F1B
:103FF000F0E0EE0FFF1FE95DFE4FA591B4912C910B
:104000002D2381E090E021F480E002C080E090E088
:10401000DF91CF910895BF92CF92DF92EF92FF92FE
:104020000F931F93CF93DF93C82ED62EB42EC7E0E5
:10403000D0E0022F10E087E0E82EF12CB1100AC08A
:10404000F701EC1BFD0BB80102C075956795EA9569
:10405000E2F707C0B8010C2E02C0759567950A9467
:10406000E2F7617077278C2D0E94AC1F61E08D2DE7
:104070000E94AC1F60E08D2D0E94AC1F2197F0F6CE
:10408000DF91CF911F910F91FF90EF90DF90CF9034
:10409000BF900895CF93DF931F92CDB7DEB76983AA
:1040A000DC01ED91FC910280F381E02D41E050E0D4
:1040B000BE016F5F7F4F09950F90DF91CF910895FB
:1040C000CF93DF93EC018C859D8597FF05C082E03F
:1040D0000E941D259D878C878C859D85DF91CF91C2
:1040E000089583E00C94B127FC018485958597FDA4
:1040F00006C082E00E94C52490E00196089582E007
:104100000E94C52490E00895FC018485958597FD63
:1041100005C02FEF3FEF35872487089582E00C9488
:104120001D25CF93DF93EC0180912101882331F08D
:1041300083E00E944E251816190634F081E090E0C5
:104140009B838A8380E090E0DF91CF910895FC010A
:1041500020812E5F208342E450E061E571E080E839
:104160000C94E925FC0121818081813A59F42132A6
:1041700009F04BC047E050E06AE171E080E00E9446
:10418000E9255EC0813209F040C0233289F4838181
:1041900090E0982F88273281832BA0E0B0E08093B5
:1041A000160190931701A0931801B09319010FC045
:1041B000203239F467E070E08AE191E00E941A262B
:1041C00009C0223221F482818093210103C02D7F16
:1041D0002032B1F58091E004811103C0E0E0F8E005
:1041E00002C0EEEFFAE080911A0190911B01A091BC
:1041F0001C01B0911D01803B9440A105B10511F552
:104200008091210180FF03C01DC080E00895EE3F32
:104210002AE0F20731F0808191819093FF0A809328
:10422000FE0A87E797E7918380832BE088E190E09F
:104230000FB6F894A895809360000FBE209360009D
:1042400081E0089588E10FB6F894809360001092A1
:1042500060000FBEA895EE3F8AE0F80739F0809124
:10426000FE0A9091FF0A91838083EACF1092FF0AA1
:104270001092FE0AE5CF2FEF3FEFFC013587248730
:104280000895CF93C09121016AE070E080E090E052
:104290000E94A61E81E0C11101C080E0CF91089567
:1042A000109293041092920488EE93E0A0E0B0E0A4
:1042B0008093940490939504A0939604B0939704EC
:1042C00084E392E090939104809390048FEF9FEFAA
:1042D00090939D0480939C040895AF92BF92CF92D7
:1042E000DF92EF92FF920F931F93CF93DF936C01B6
:1042F0007B01C0E0D0E000E010E0F601EC0FFD1F14
:104300004AE050E06281C7010E94F0225C016EE247
:10431000C7010E9415228A0D9B1D080F191F2196A7
:10432000C330D10551F74AE050E0F6016581C7017D
:104330000E94F022800F911FDF91CF911F910F916A
:10434000FF90EF90DF90CF90BF90AF90089524E45E
:1043500032E0FC01318320831282138214821582A1
:1043600008950F93FC0184E492E09183808362833B
:104370004383248305830F91089524E432E0FC01F4
:1043800031832083FB014081518162817381FC0173
:1043900042835383648375830895FB014081518177
:1043A00062817381FC014283538364837583089522
:1043B00084E492E09093E2048093E1041092E30499
:1043C0001092E4041092E5041092E6040895089512
:1043D0000E94E01E0E94E72187EE94E00E943E28A2
:1043E0000E94EA02C0E0D0E00E9401042097E1F3BD
:1043F0000E940000F9CF0C94BE2B6115710581F06D
:10440000DB010D900020E9F7AD0141505109461B39
:10441000570BDC01ED91FC910280F381E02D0994B2
:1044200080E090E008950C94FD21DC01ED91FC9179
:104430000190F081E02D099466E472E00C94FD2176
:104440000F931F93CF93DF93EC010E94FD218C010A
:10445000CE010E941C22800F911FDF91CF911F91EE
:104460000F9108958F929F92AF92BF92DF92EF9239
:10447000FF920F931F93CF93DF93CDB7DEB7A19732
:104480000FB6F894DEBF0FBECDBF7C01F42FD52E42
:10449000CB0119A2223008F42AE08E010F5D1F4FD4
:1044A000822E912CA12CB12C6F2F7D2DA501940172
:1044B0000E94562BF22FD32ECA01015011096A30E7
:1044C00014F4E0E301C0E7E3E60FD801EC93232BFB
:1044D000242B252B49F7B801C7010E94FD21A19685
:1044E0000FB6F894DEBF0FBECDBFDF91CF911F9105
:1044F0000F91FF90EF90DF90BF90AF909F908F90C3
:104500000895CF92DF92EF92FF920F931F93CF9374
:10451000DF93EC016A017B012115310579F4E88113
:10452000F9810190F081E02D642FDF91CF911F91EF
:104530000F91FF90EF90DF90CF9009942A303105D2
:10454000E9F477FF1AC06DE20E9415228C0144271E
:104550005527BA014C195D096E097F092AE0CE0181
:104560000E943222800F911FDF91CF911F910F91F6
:10457000FF90EF90DF90CF9008952AE0B701A60159
:10458000CE01DF91CF911F910F91FF90EF90DF90BF
:10459000CF900C9432220F931F93CF93DF93EC01B3
:1045A0009A01AB01662757FD6095762F0E94812204
:1045B0008C01CE010E941C22800F911FDF91CF91B0
:1045C0001F910F9108952115310541F4DC01ED9102
:1045D000FC910190F081E02D642F09940C9432221B
:1045E0009A01462F50E060E070E00C94E3220F93B4
:1045F0001F93CF93DF93EC010E94E3228C01CE0145
:104600000E941C22800F911FDF91CF911F910F916B
:1046100008954F925F926F927F928F929F92AF9286
:10462000BF92CF92DF92EF92FF920F931F93CF939F
:10463000DF93EC016A017B01B22E9A01AB01C70145
:10464000B6010E94522B882319F069E472E027C05A
:1046500026013701E89477F82FEF3FEF4FE75FE748
:10466000C301B2010E94522B81110DC02FEF3FEF09
:104670004FE75FE7C301B2010E949C2918161CF4A2
:104680006DE472E00CC02FEF3FEF4FE75FE4C7012E
:10469000B6010E94EB2A1816ACF461E572E0CE0177
:1046A000DF91CF911F910F91FF90EF90DF90CF900E
:1046B000BF90AF909F908F907F906F905F904F9042
:1046C0000C94FD212FEF3FEF4FE75FECC701B601E0
:1046D0000E949C2987FDE1CF20E030E0A901C701BD
:1046E000B6010E949C2987FF0AC06DE2CE010E949C
:1046F00015228C01F7FAF094F7F8F09402C000E06C
:1047000010E0A12C60E070E080E09FE3AB1441F08A
:1047100020E030E040E251E40E94A029A394F6CFCB
:104720009B01AC01C701B6010E9438296B017C01D5
:104730000E940D2A2B013C010E94392A9B01AC01E9
:10474000C701B6010E9437296B017C012AE0B30141
:10475000A201CE010E943222080F191FBB2039F09E
:1047600061E671E0CE010E94FD21080F191F7B2C2C
:10477000772041F120E030E040E251E4C701B6018A
:104780000E94EF2A6B017C010E94082A4B01AA2497
:1047900097FCA094BA2C2AE030E0B501A401CE0128
:1047A0000E948122080F191FC501B4010E943B2AF3
:1047B0009B01AC01C701B6010E9437296B017C0146
:1047C0007A94D6CFC801DF91CF911F910F91FF90BE
:1047D000EF90DF90CF90BF90AF909F908F907F90A1
:1047E0006F905F904F9008950F931F93CF93DF9337
:1047F000EC010E9409238C01CE010E941C22800F33
:10480000911FDF91CF911F910F910895FC01448377
:104810005583668377830895615030F02091F100CD
:10482000FC0120830196F8CF289884E68093F00459
:1048300008954091EB045091EC042091E9043091EB
:10484000EA0442175307B4F49091E8009570E1F33D
:104850009091E80092FD19C08093F1008091EB04E3
:104860009091EC0401968F739927892B19F48EEFA0
:104870008093E8008091EB049091EC040196909372
:10488000EC048093EB0481E0089580E00895CF92DA
:10489000DF92EF92FF920F931F93CF93DF931F92BC
:1048A000CDB7DEB7082F162FF42E862F880F8E5F18
:1048B00099830E94192483E00E941924E02EC02EBF
:1048C0009981D92E8C2D8E19811798F4F601F7FE57
:1048D00002C0849101C080810E941924082F80E0C9
:1048E0000E9419248023FFEFCF1ADF0A8111EACF3B
:1048F00001C081E00F90DF91CF911F910F91FF9048
:10490000EF90DF90CF9008958091D70081608093E1
:10491000D70080EA8093D80089B5806189BD89B5C8
:10492000826089BD09B400FEFDCF61E070E080E0E7
:1049300090E00E94A61E8091D8008F7C80618093B9
:10494000D8008091E000807F8093E0000895CF93AD
:10495000DF931F92CDB7DEB71982CE0101960E9478
:10496000A7200E942329BE016F5F7F4F0E949C28D1
:1049700089810F90DF91CF9108952FB7FC0120839B
:10498000F89467706093E9000895CF93DF931F92C6
:10499000CDB7DEB7682FCE0101960E94BD2480916D
:1049A000F20099819FBF0F90DF91CF910895FF9200
:1049B0000F931F93CF93DF9300D0CDB7DEB7F62EC2
:1049C0008A019091EF04992311F057FF03C08FEFF4
:1049D0009FEF2BC0682FCE0101967A830E94BD24E1
:1049E0008091F20090E0A8017A81801791070CF481
:1049F000AC01EF2DF72FF40E84E6FE1639F028985F
:104A00008093F0049091F1009193F7CF41155105F7
:104A100021F08091F200882321F089818FBFCA01A3
:104A200004C08BE68093E800F8CF0F900F90DF91E1
:104A3000CF911F910F91FF900895CF93DF931F9215
:104A4000CDB7DEB741E050E0BE016F5F7F4F0E94FF
:104A5000D724019719F4898190E002C08FEF9FEF6E
:104A60000F90DF91CF910895CF93DF931F92CDB731
:104A7000DEB7682FCE0101960E94BD249091E80018
:104A8000892F807295FF04C09091F20080E4891B09
:104A900099819FBF0F90DF91CF9108956F927F9280
:104AA0008F929F92AF92BF92CF92DF92EF92FF923E
:104AB0000F931F93CF93DF931F92CDB7DEB7782E5E
:104AC0007B01C42EB52E8091EF04882369F0042F5A
:104AD000152F8AEFD82E872D8072982E9AE3A92E53
:104AE000872D8074882E11C08FEF9FEF57C0872DC0
:104AF0000E943425682E81110CC0DA94A9F361E07C
:104B000070E080E090E00E94A61E0115110579F783
:104B10003BC0282F30E0021713070CF4602E672DDE
:104B2000CE0101960E94BD248091E80085FF29C036
:104B3000262D30E0021B130B992039F06A948FEF79
:104B40006816B1F01092F100F9CFF701862D77FECB
:104B500007C0815058F094919093F1003196F9CFAD
:104B6000815020F091919093F100FACFE20EF31E64
:104B70008091E80085FF0FC00115110511F4811027
:104B80000AC089818FBFC1CF5D9884E68093F1040C
:104B90008C2D9B2D03C0A092E800F3CF0F90DF91E6
:104BA000CF911F910F91FF90EF90DF90CF90BF902A
:104BB000AF909F908F907F906F9008951092E90032
:104BC0001092EC041092EB049093EA048093E904B1
:104BD0000895CF92DF92FF920F931F93CF93DF93AD
:104BE00000D0CDB7DEB7F82E8A016B010115110593
:104BF000B1F0F601F7FE02C0849101C080814983C3
:104C00005A830E94192401501109FFEFCF1ADF0ABD
:104C100049815A818111EACF8FEF9FEF01C0CA010C
:104C20000F900F90DF91CF911F910F91FF90DF9028
:104C3000CF900895BF92CF92DF92EF92FF920F93A1
:104C40001F93CF93DF936C018B01EB013BEFB32EEE
:104C50002097C1F07E01C134D1051CF020E4E22E82
:104C6000F12C8091E80082FFFCCFC8018C1B9D0BCA
:104C70006E2D8C0D9D1D0E940C24B092E800CE1963
:104C8000DF09E6CFC801DF91CF911F910F91FF900F
:104C9000EF90DF90CF90BF9008951F920F920FB6C4
:104CA0000F921124DF92EF92FF920F931F932F9395
:104CB0003F934F935F936F937F938F939F93AF93A4
:104CC000BF93EF93FF93CF93DF93CDB7DEB76C978E
:104CD000DEBFCDBF1092E9008091E80083FF23C1C1
:104CE00068E0CE0145960E940C2482EF8093E80094
:104CF0003D8937FF05C08091E80080FFFCCF03C0ED
:104D00008EEF8093E800832F807609F0F0C02E8923
:104D10004F89D88C21110CC0303829F48091EE04D1
:104D20008093F10002C01092F1001092F100F4C0E3
:104D3000842F90E09D29213049F43111EDC0019775
:104D400009F0EAC08091EE048D7F0AC0233059F447
:104D50003111E2C0019709F0DFC08091EE0482605A
:104D60008093EE04D9C0253041F48091E80080FFA3
:104D7000FCCF40684093E300CFC0263009F08DC0DF
:104D8000EB8CFC8C22E0D2122CC080E090E00E94E0
:104D9000DE250E94A72499E08E010F5F1F4FF801C6
:104DA000292F11922A95E9F79983DA8291E09E835F
:104DB00090EA98879AEF99872091EB043091EC0460
:104DC000275F3F4F3C832B838D83C7010E94DE25E5
:104DD00049E050E0B80180E00E94E9250E94A72444
:104DE0009BC0C7010E94DE250E942329BE016B5E85
:104DF0007F4F0E94C528009719F00CF08DC090C01D
:104E000081E0D8120EC08B8D9C8D089719F481E03B
:104E10008093E8048091E80481112FC065EA71E075
:104E200031C0E3E0DE127CC08F89882349F18230F3
:104E300029F440E860E183EC91E01CC0813029F462
:104E400040E86BE087EB91E015C0833009F068C063
:104E50000E9423298E010F5F1F4FB8010E94E42892
:104E6000F80101900020E9F73197E01BF10B40E0D9
:104E70006E2FC8010E9447244DC063E971E002C053
:104E800064ED71E06115710509F44AC0FB014491BC
:104E900050E080E80E94E9253FC0273009F440C077
:104EA000283021F481E08093F10036C02930A1F54B
:104EB0003370B1F5E3E2F1E081E021E036E3908187
:104EC000992361F08093E9002093EB0091919093F6
:104ED000EC003093ED008F5F873089F78EE7809389
:104EE000EA001092EA008F898093EF0415C08B8D41
:104EF0009C8D0E94DE25898D811105C0CE014596CD
:104F00000E94B22007C00E942329BE016B5E7F4F22
:104F10000E940329882321F08EEF8093E80003C0CC
:104F200081E28093EB006C960FB6F894DEBF0FBE63
:104F3000CDBFDF91CF91FF91EF91BF91AF919F9145
:104F40008F917F916F915F914F913F912F911F9121
:104F50000F91FF90EF90DF900F900FBE0F901F907A
:104F600018958093E9008091F200882319F08AE374
:104F70008093E80008951F920F920FB60F921124AC
:104F80002F933F934F935F936F937F938F939F9351
:104F9000AF93BF93CF93EF93FF93C091E1008091C4
:104FA000E100837F8093E1008093E100C3FF0FC0A5
:104FB0001092E90081E08093EB001092EC0082E314
:104FC0008093ED001092EF0488E08093F000C2FF20
:104FD00019C083E00E94B1278091F104882339F041
:104FE0008091F10481508093F104882389F18091AC
:104FF000F004882339F08091F00481508093F0040C
:10500000882341F1C4FF10C08091E2008E7E816050
:105010008093E2008091E1008F7E8093E100809197
:10502000ED048E7E806111C0C0FF16C08091E20049
:105030008E7E80618093E2008091E1008E7E80937D
:10504000E1008091ED048E7E81608093ED0404C0C8
:105050005D9ACDCF289AD6CFFF91EF91CF91BF9196
:10506000AF919F918F917F916F915F914F913F9100
:105070002F910F900FBE0F901F9018951092EF0474
:105080001092EE041092ED040E9484248091E100BD
:105090008E7E8093E1008DE08093E200559A209A05
:1050A000EEEFFFE7859194918B3F9C4D19F481E0E1
:1050B0008093E0040895CF93DF9300D000D0CDB764
:1050C000DEB79B01AC01611571058105910569F0A1
:1050D00069833A834B835C830E94342D29813A8112
:1050E0004B815C810E94782B03C060E070E0CB01B3
:1050F0000F900F900F900F90DF91CF910895CF9266
:10510000DF92EF92FF926B017C01621773078407B5
:10511000950764F4CA01B9016C197D098E099F09CC
:105120000E945B286C0D7D1D8E1D9F1DFF90EF90D2
:10513000DF90CF9008950895EF92FF920F931F9301
:10514000CF93DF937B01FC01C281D38100E010E0AB
:10515000209781F0E881F9810280F381E02DB70189
:10516000CE01099597FD08C0080F191F0884D9853D
:10517000C02DEECFC80102C08FEF9FEFDF91CF911E
:105180001F910F91FF90EF9008950F931F93CF936E
:10519000DF938B01FC01C281D381209771F0E881FC
:1051A000F9810480F581E02DB801CE0109950097C1
:1051B00031F40884D985C02DF0CF80E090E0DF91F4
:1051C000CF911F910F9108950F931F93CF93DF936A
:1051D0008B01FC01C281D381209771F0E881F981B4
:1051E0000680F781E02DB801CE010995080F111D49
:1051F0000884D985C02DF0CFF8011082DF91CF91BE
:105200001F910F9108950F931F93CF93DF938B01FD
:10521000FC01C281D381209771F0E881F98101906E
:10522000F081E02DB801CE010995811106C00884F6
:10523000D985C02DF0CF80E001C081E0DF91CF9112
:105240001F910F9108958091F60481110DC082E0A5
:105250008093F20484E08093F3041092F50410929A
:10526000F40481E08093F60482EF94E008955058AE
:10527000BB27AA270ED075C166D130F06BD120F0C4
:1052800031F49F3F11F41EF45BC10EF4E095E7FB8F
:1052900051C1E92F77D180F3BA17620773078407EA
:1052A000950718F071F49EF58FC10EF4E0950B2E62
:1052B000BA2FA02D0B01B90190010C01CA01A00168
:1052C0001124FF27591B99F0593F50F4503E68F1C3
:1052D0001A16F040A22F232F342F4427585FF3CF04
:1052E000469537952795A795F0405395C9F77EF4D5
:1052F0001F16BA0B620B730B840BBAF09150A1F01E
:10530000FF0FBB1F661F771F881FC2F70EC0BA0FA3
:10531000621F731F841F48F4879577956795B7952B
:10532000F7959E3F08F0B3CF9395880F08F0992723
:10533000EE0F979587950895D9D008F481E00895E8
:105340000CD00FC107D140F0FED030F021F45F3F08
:1053500019F0F0C0511139C1F3C014D198F3992359
:10536000C9F35523B1F3951B550BBB27AA27621729
:105370007307840738F09F5F5F4F220F331F441F6E
:10538000AA1FA9F333D00E2E3AF0E0E830D09150A6
:105390005040E695001CCAF729D0FE2F27D0660F93
:1053A000771F881FBB1F261737074807AB07B0E8D2
:1053B00009F0BB0B802DBF01FF2793585F4F2AF0E8
:1053C0009E3F510568F0B6C000C15F3FECF3983EC8
:1053D000DCF3869577956795B795F7959F5FC9F745
:1053E000880F911D9695879597F90895E1E0660FCE
:1053F000771F881FBB1F621773078407BA0720F047
:10540000621B730B840BBA0BEE1F88F7E0950895AF
:1054100004D06894B111D9C00895BCD088F09F57CA
:1054200090F0B92F9927B751A0F0D1F0660F771FF0
:10543000881F991F1AF0BA95C9F712C0B13081F0D0
:10544000C3D0B1E00895C0C0672F782F8827B85F18
:1054500039F0B93FCCF3869577956795B395D9F731
:105460003EF490958095709561957F4F8F4F9F4F3B
:105470000895E89409C097FB3EF490958095709547
:1054800061957F4F8F4F9F4F9923A9F0F92F96E990
:10549000BB279395F695879577956795B795F11105
:1054A000F8CFFAF4BB0F11F460FF1BC06F5F7F4FA2
:1054B0008F4F9F4F16C0882311F096E911C07723B4
:1054C00021F09EE8872F762F05C0662371F096E8BD
:1054D000862F70E060E02AF09A95660F771F881F8C
:1054E000DAF7880F9695879597F90895990F000830
:1054F000550FAA0BE0E8FEEF16161706E807F907A6
:10550000C0F012161306E407F50798F0621B730B40
:10551000840B950B39F40A2661F0232B242B252BC1
:1055200021F408950A2609F4A140A6958FEF811D64
:10553000811D089597F99F6780E870E060E0089505
:105540009FEF80EC089500240A941616170618069B
:105550000906089500240A94121613061406050677
:105560000895092E0394000C11F4882352F0BB0F08
:1055700040F4BF2B11F460FF04C06F5F7F4F8F4F6B
:105580009F4F089557FD9058440F551F59F05F3FA6
:1055900071F04795880F97FB991F61F09F3F79F055
:1055A00087950895121613061406551FF2CF4695D7
:1055B000F1DF08C0161617061806991FF1CF869559
:1055C0007105610508940895E894BB27662777273D
:1055D000CB0197F908958ADF08F48FEF08950BD077
:1055E000C0CFB1DF28F0B6DF18F0952309F0A2CFC5
:1055F000A7CF1124EACFC6DFA0F3959FD1F3950F73
:1056000050E0551F629FF001729FBB27F00DB11D46
:10561000639FAA27F00DB11DAA1F649F6627B00DD6
:10562000A11D661F829F2227B00DA11D621F739FBF
:10563000B00DA11D621F839FA00D611D221F749FCD
:105640003327A00D611D231F849F600D211D822F14
:10565000762F6A2F11249F5750408AF0E1F088235B
:105660004AF0EE0FFF1FBB1F661F771F881F915068
:105670005040A9F79E3F510570F05CCFA6CF5F3F29
:10568000ECF3983EDCF3869577956795B795F7959B
:10569000E7959F5FC1F7FE2B880F911D9695879523
:1056A00097F9089523DF880B990B0895A1E21A2E2C
:1056B000AA1BBB1BFD010DC0AA1FBB1FEE1FFF1FB6
:1056C000A217B307E407F50720F0A21BB30BE40B06
:1056D000F50B661F771F881F991F1A9469F760954D
:1056E0007095809590959B01AC01BD01CF01089507
:1056F000052E97FB1EF400940E948F2B57FD07D0B8
:105700000E94562B07FC03D04EF40C948F2B50951F
:105710004095309521953F4F4F4F5F4F089590959D
:105720008095709561957F4F8F4F9F4F0895EE0F35
:10573000FF1F0590F491E02D0994692796276927AA
:1057400078278727782708950E94AF2BA59F900D73
:10575000B49F900DA49F800D911D11240895A29FC8
:10576000B001B39FC001A39F700D811D1124911D35
:10577000B29F700D811D1124911D0895CF93DF9369
:105780008230910510F482E090E0E0910005F09104
:10579000010520E030E0A0E0B0E0309739F1408131
:1057A000518148175907B8F04817590771F4828199
:1057B0009381109729F013969C938E9312972CC087
:1057C000909301058093000527C02115310531F024
:1057D0004217530718F0A901DB0101C0EF019A013C
:1057E000BD01DF010280F381E02DD7CF2115310506
:1057F000F9F0281B390B2430310580F48A819B8114
:105800006115710521F0FB019383828304C090939D
:10581000010580930005FE01329644C0FE01E20FAF
:10582000F31F8193919322503109398328833AC021
:105830002091FE043091FF04232B41F420910201BA
:10584000309103013093FF042093FE042091000166
:10585000309101012115310541F42DB73EB740913A
:10586000040150910501241B350BE091FE04F091D9
:10587000FF04E217F307A0F42E1B3F0B281739078C
:1058800078F0AC014E5F5F4F2417350748F04E0F9C
:105890005F1F5093FF044093FE048193919302C0D5
:1058A000E0E0F0E0CF01DF91CF910895CF93DF9357
:1058B000009709F487C0FC01329713821282C091CD
:1058C0000005D0910105209781F420813181280FB6
:1058D000391F8091FE049091FF048217930779F598
:1058E000F093FF04E093FE046DC0DE0120E030E0A1
:1058F000AE17BF0750F412964D915C9113979D011E
:105900004115510509F1DA01F3CFB383A283408138
:105910005181840F951F8A179B0771F48D919C917B
:105920001197840F951F02969183808312968D9113
:105930009C911397938382832115310529F4F09369
:105940000105E09300053EC0D9011396FC93EE9348
:1059500012974D915D91A40FB51FEA17FB0779F4DB
:1059600080819181840F951F0296D90111969C9395
:105970008E938281938113969C938E931297E0E08D
:10598000F0E08A819B81009719F0FE01EC01F9CFCC
:10599000CE01029628813981820F931F2091FE0447
:1059A0003091FF042817390769F4309729F41092D1
:1059B00001051092000502C013821282D093FF04E9
:1059C000C093FE04DF91CF9108958F929F92AF9282
:1059D000BF92CF92DF92EF92FF92CF93DF93EC01D1
:1059E000688179818A819B816115710581059105A5
:1059F00021F464E279ED8BE597E02DE133EF41E0AE
:105A000050E00E94782B49015A019B01AC01A7EAA2
:105A1000B1E40E94A42B6B017C01ACEEB4EFA501B4
:105A200094010E946F2DC60ED71EE81EF91EF7FEC8
:105A300006C081E0C81AD108E10880E8F80AC882E7
:105A4000D982EA82FB82C701B6019F77DF91CF91AD
:105A5000FF90EF90DF90CF90BF90AF909F908F908E
:105A600008950E94E52C089586E091E00E94E52CBF
:105A70000895609306017093070180930801909345
:105A800009010895FB01DC0104C08D91019080198A
:105A900021F441505040C8F7881B990B0895FB0131
:105AA000DC0101900D920020E1F70895F999FECFF5
:105AB00092BD81BDF89A992780B50895262FF9994E
:105AC000FECF1FBA92BD81BD20BD0FB6F894FA9AE1
:105AD000F99A0FBE01960895B7FF0C94A42B0E946B
