:100000000C94EF000C9417010C9417010C94170139
:100010000C9417010C9417010C9417010C94170100
:100020000C9417010C9417010C94821B0C94141A55
:100030000C9417010C9417010C9417010C941701E0
:100040000C9417010C9417010C9417010C941701D0
:100050000C9417010C9417010C9417010C94C11304
:100060000C9417010C9417010C9417010C941701B0
:100070000C9417010C9417010C9417010C941701A0
:100080000C9417010C9417010C9417010C94170190
:100090000C9417010C9417010C9417010C94170180
:1000A0000C9417010C9417010C941701E214E51439
:1000B000D414D814DE14061506150615E914ED142B
:1000C000F114F714FB1406150115000000020009D5
:1000D0000F0000030401000C0000000000000000FD
:1000E0000000000000000000000408020110408031
:1000F000401020408040800802040180402010020F
:10010000011080102040402004040404040304056E
:1001100002020202040302020202060606060606A4
:100120000404020202040400000000250028002B41
:10013000002E00310000000000240027002A002DBE
:10014000003000080B000202020100090400000157
:10015000020200000524001001052401010104240D
:10016000020605240600010705810310004009046A
:100170000100020A00000007050202400000070516
:10018000830240000012010002EF020140412336C9
:100190008000010102030112010002000000404141
:1001A00023368000010102030141726475696E6F9C
:1001B000204C4C430041726475696E6F204C656F32
:1001C0006E6172646F0004030904BF013D034A08B5
:1001D000C40BB50DC00D9D0FA80F7C16041711247C
:1001E0001FBECFEFDAE0DEBFCDBF11E0A0E0B1E08F
:1001F000ECE3FEE302C005900D92A83DB107D9F7EC
:1002000023E0A8EDB1E001C01D92A236B207E1F7EC
:1002100011E0CEEDD1E004C02297FE010E94411D05
:10022000CA3CD107C9F70E9414170C941C1F0C94E8
:1002300000001F93CF93DF93FC01648D758D868D35
:10024000978D24E630E040E050E00E94FE1C672BD2
:10025000682B692B49F484E690E00E94FE1E61E061
:10026000680F84E690E00BC0C4E6D0E010E0CE0159
:100270000E94FE1E811740F461E0680FCE01DF91FD
:10028000CF911F910C94061F2196C83CD10511F007
:10029000182FEDCFDF91CF911F910895CF92DF926C
:1002A000EF92FF920F931F93CF93DF93EC01198A84
:1002B000188A80E190E09B8B8A8B83E690E09D8B8F
:1002C0008C8B0E94FE1E8F3FB9F404E610E060E0C4
:1002D000C8010E94061F0F5F1F4F083C1105B9F7A8
:1002E0000C891D89C8010E94FE1E8823E9F060E088
:1002F000C8010E94061F18C0C12CD12C760104E64B
:1003000010E0C8010E94FE1EC80ED11CE11CF11CA9
:100310000F5F1F4F083C1105A1F7CC8EDD8EEE8ECE
:10032000FF8ECE010E941901C888D9887E0100E1A4
:1003300010E0CC1ADD0AC6018E0D9F1D0E94FE1E24
:10034000F70181937F0101501109A9F705E010E041
:100350008A899B89800F911F0E94FE1EFE01E00F7B
:10036000F11F868B0150110999F7DF91CF911F91F1
:100370000F91FF90EF90DF90CF90089508950F9325
:1003800000E020E040E060E08BE992E00E94DD16B2
:100390008BE792E00E944E0185EE91E00E94CD0C29
:1003A00089E395E09093F3018093F20180EC8093D0
:1003B000F40188EA8093F50181E08093F60185E3FA
:1003C0008093F70110925C0210925D028EE592E03C
:1003D0000E942A0F80EE9BEA90937A028093790222
:1003E00088ED91E00F910C94CD0CCF92DF92EF92BB
:1003F000FF920F931F93CF93DF9300D000D000D0D4
:10040000CDB7DEB77C018B0161E08AE00E94071561
:1004100061E088E00E94071560E088E00E944015D6
:100420006AE070E080E090E00E943A1461E088E0C9
:100430000E94401568EC70E080E090E00E943A1461
:10044000B8018EEA92E00E94140B892B41F46FE10F
:1004500071E080EF92E00E944C1780E046C067E4B4
:1004600071E080EF92E00E943F178E010D5F1F4FF9
:100470006E0187E0C80ED11C6EEA72E0CE010196D3
:100480000E94A10BF80161918F014AE050E080EFDA
:1004900092E00E94BA1767E571E080EF92E00E9457
:1004A0003F170C151D0541F780EF92E00E94481799
:1004B00043E064E089E190E00E94AC1148EE64E022
:1004C0008AE190E00E94AC1143E064E08BE190E0AF
:1004D0000E94AC11F701EC56FF4F60817181C7019A
:1004E00087589F4F0E94F70E81E026960FB6F8942A
:1004F000DEBF0FBECDBFDF91CF911F910F91FF9057
:10050000EF90DF90CF90089540E855E260E070E012
:1005100080EF92E00E94671661E08BE00E94071571
:1005200060E08BE00E9440156AE070E080E090E0BF
:100530000E943A1461E08BE00E94401580EF92E047
:100540000E946D168823D1F369E571E080EF92E097
:100550000E943F1740919702509198026091990232
:1005600070919A022AE030E080EF92E00E94C11779
:1005700061E972E085EE91E00C94F501CF93CFB77D
:10058000F8948091A102811127C0E9E1F1E0849102
:10059000EAEFF0E09491E82FF0E0EE0FFF1FEB5C44
:1005A000FE4FA591B4918C91892321F461E081E102
:1005B0000E94401561E081E10E9407158CB58061C1
:1005C0008CBD8CB580648CBD61E08FE00E94071506
:1005D00061E080E10E9407158091A1028F5F809306
:1005E000A102CFBFCF9108950E9624E1FC01119294
:1005F0002A95E9F70895CF93DF93EC01625F7F4F6F
:100600000E94E916CE01DF91CF910895CF93DF9339
:10061000EC016E5E7F4F0E94E916CE01DF91CF9113
:100620000895CF93DF93EC016A5E7F4F0E94E91635
:10063000CE01DF91CF910895CF93DF93EC01625EFD
:100640007F4F0E94E916CE01DF91CF91089580E39C
:10065000FB0180833296842F82958F7090E1899F71
:10066000401911244A3014F4405D01C0495C4293A2
:10067000882311F0482FEFCF08950F9300E020E07A
:1006800040E060E082EA92E00E94DD160F9108955A
:100690006F927F928F929F92AF92BF92CF92DF9292
:1006A000EF92FF920F931F93CF93DF93CDB7DEB7F7
:1006B000AC970FB6F894DEBF0FBECDBF7C01862E7F
:1006C000B42EA52E20E2922ECE0101966C01FC01E3
:1006D000292D11922A95E9F70FEF2FEF4FEF6FEFCA
:1006E00086960E94DD1686EC91E09AA389A389A5DF
:1006F0009AA5ABA5BCA58BA39CA3ADA3BEA3870164
:10070000095B1F4F43E450E0BE016F5D7F4FC8019E
:100710000E94270E019609F4BFC081E089838A8375
:1007200086E0782E7B821C82F70164817581868148
:1007300097810E94451D6D837E838F839887A9864C
:10074000BA8680E890E09C878B874CE150E0B60148
:10075000C8010E94330EF601292D11922A95E9F75E
:10076000570188E0A80EB11CF501D60101900D9249
:100770007A94E1F740E150E0B601C8010E94330EDF
:10078000F60111929A94E9F796E0692E712C40E2F5
:1007900050E0B601C8010E94330EF1E06F1A7108F3
:1007A000B1F783E6898392E89A8393E59B838C83F0
:1007B00085E38D8381E08E838F829DE3988797E028
:1007C00099878A8786E0F501DE011B9601900D92DC
:1007D0008A95E1F78CE0898B8A8B67E671E0CE0120
:1007E00043960E94F71EF7014385BE01675E7F4F67
:1007F000C7010E942703F7014485BE01655E7F4F54
:10080000C7010E942703F7014585BE01635E7F4F44
:10081000C7010E9427034EE150E0B601C8010E94C3
:10082000330EF3E08F121EC082E3898384E08A8353
:10083000F70196859B8397859C8390899D839189F9
:100840009E8396E39F838887828D8987838D8A879D
:10085000848D8B87858D8C874CE050E0B601C80174
:100860000E94330E87E3898386E08A8391E09B832D
:1008700093E09C838D838FE08E838AE38F838BE369
:1008800088878FEF898749E050E0B601C8010E9450
:10089000330EC8010E942F0EAC960FB6F894DEBF3F
:1008A0000FBECDBFDF91CF911F910F91FF90EF90C1
:1008B000DF90CF90BF90AF909F908F907F906F9080
:1008C00008952F923F924F925F926F927F928F92F4
:1008D0009F92AF92BF92CF92DF92EF92FF920F93CF
:1008E0001F93CF93DF93CDB7DEB7E3970FB6F8949E
:1008F000DEBF0FBECDBF7C012A013B0169010E9412
:100900000B144B015C018701095B1F4FC8010E945A
:10091000A60E1816190694F00E940B14681979098E
:100920008A099B094616570668067906F0F062E3C5
:1009300070E080E090E00E943A14E8CF42E250E09C
:10094000BE016F5F7F4FC8010E94700E89818230A7
:1009500031F4F801858996898334910541F019A60F
:10096000C8010E94000E89A566C18FEF64C16D8128
:100970007E818F8198850E94451D4B015C01F601A7
:10098000608371838283938346E050E0B701685FA0
:100990007F4FCE014D960E94EA1E892B99F4F701F4
:1009A00080819181A281B38188169906AA06BB062F
:1009B00048F084819581A681B78188159905AA059B
:1009C000BB0528F4C8010E94000E80E034C189896B
:1009D0009A89AB89BC89F70186879787A08BB18BF1
:1009E0003EECC32ED12CC8010E94470EF1E0CF1A75
:1009F000D108C9F719A6C70182969BA78AA7F70154
:100A0000B696FDA7ECA708969FA78EA73C976F0107
:100A10008E9699AB88AB3897FBABEAAB5701F6E102
:100A2000AF0EB11C47018EE1880E911CC8010E94D7
:100A3000E60D181619060CF093CFC8010E94470E58
:100A40008333910509F4CDC0F4F481309105B9F1F7
:100A50001CF4892B59F3DFC083309105C1F106974F
:100A600009F0D9C0C8010E94470E3C0144E050E0A3
:100A7000B401C8010E94700E212C312C7724F4E0BF
:100A80006F1A71083FC08A33910509F47EC03CF4A7
:100A90008533910561F0C69709F43FC0BCC08B3324
:100AA000910509F488C08F3F910501F2B4C0C801D7
:100AB0000E94470EC8010E94470E89A7B7CFC80100
:100AC0000E94470E44E050E06AA97BA93AC0C801E1
:100AD0000E94470E3C0144E050E0B501C8010E946D
:100AE000700E212C312C772494E0691A7108261499
:100AF00037040CF09BCFC8010E94470EEFEF2E1A6F
:100B00003E0AF5CF261437040CF090CFC8010E949E
:100B1000470E8FEF281A380AF5CFC8010E94470EFA
:100B2000782EF701828D811110C0838D81110DC047
:100B3000848D81110AC0858D811107C044E050E089
:100B4000B601C8010E94700E71CFE8A9F9A92080F2
:100B5000318042805380B601CE0183960E94E9160F
:100B60008DA19EA1AFA1B8A582159305A405B505D9
:100B700029F3212C312C721409F458CFC8010E949A
:100B8000470EFFEF2F1A3F0AF6CFC8010E94470E0B
:100B900044E050E06CA57DA5C8010E94700EF701ED
:100BA00066A177A180A591A50E94451D66A377A3A4
:100BB00080A791A73BCFC8010E94470E44E050E0B8
:100BC0006EA57FA5C8010E94700EF70162A573A5EE
:100BD00084A595A50E94451D62A773A784A795A724
:100BE00025CFC8010E94470E44E050E06AA57BA5CE
:100BF000C8010E94700EF70162A173A184A195A1A2
:100C00000E94451D62A373A384A395A366A777A73B
:100C100080AB91AB0BCFC8010E94470E382E612CE0
:100C2000712C361409F402CFC8010E94470EFFEF61
:100C30006F1A7F0AF6CFE3960FB6F894DEBF0FBEA9
:100C4000CDBFDF91CF911F910F91FF90EF90DF907B
:100C5000CF90BF90AF909F908F907F906F905F905C
:100C60004F903F902F9008952F923F924F925F9216
:100C70006F927F928F929F92AF92BF92CF92DF92AC
:100C8000EF92FF920F931F93CF93DF93CDB7DEB711
:100C900027970FB6F894DEBF0FBECDBF8C0120EDB5
:100CA00037E040E050E061E070E080E090E00E94DA
:100CB000461CD80114966D937D938D939C93179742
:100CC000F80160837183828393834801F7E48F0E78
:100CD000911CC4010E94120E64E470E0C4010E94E1
:100CE000F70E882309F428C10E940B146B017C01C4
:100CF000A12CB12C1D82180186E4280E311CD801CC
:100D0000DE96BF83AE8338EE432E33E0532E612C44
:100D1000712CF1018081833009F4FDC081111FC065
:100D2000F80184819581A681B7810196A11DB11D2D
:100D300084839583A683B7830E940B146C197D0965
:100D40008E099F09A30192010E94FE1CA90161E086
:100D5000C8010E94480381E0D1018C93BEC0843059
:100D6000F9F4F80184819581A681B7810196A11DCE
:100D7000B11D84839583A683B7830E940B146C19DD
:100D80007D098E099F09A30192010E94FE1CA90101
:100D900063E0C8010E944803E2E0D101EC939DC0EA
:100DA000813061F5AE81BF814D915D916D917C91F6
:100DB0009E012F5F3F4FC8010E9461048D838230E6
:100DC00009F08BC089819A81AB81BC81F801848351
:100DD0009583A683B7830E940B146C197D098E0935
:100DE0009F09A30192010E94FE1CA90163E0C801B2
:100DF0000E944803ED81D101EC9375C0823009F067
:100E00006CC0AE81BF814D915D916D917C919E01D1
:100E10002F5F3F4FC8010E9461048D83853009F028
:100E200056C083E0F1018083F80182A193A1A4A1BF
:100E3000B5A1892B8A2B8B2B41F484E893E0A0E0A9
:100E4000B0E082A393A3A4A3B5A3F80186A197A1C0
:100E5000A0A5B1A5892B8A2B8B2B61F482A193A12C
:100E6000A4A1B5A1B695A7959795879586A397A3B5
:100E7000A0A7B1A7D8019A964D915D916D917C91F3
:100E80009D9796968D919D910D90BC91A02D452B8F
:100E9000462B472B59F4AC01BD01440F551F661F6B
:100EA000771FF80142A753A764A775A7F80186A783
:100EB00097A7A0ABB1AB82A593A5A4A5B5A582AB1E
:100EC00093ABA4ABB5ABAA24A394B12C0CC0FD8109
:100ED000F63019F4D1011C9206C0BD81BF3F19F450
:100EE000F10110821D82F1E0AF16B10409F411CFB7
:100EF0000E940B146C197D098E099F09D801DA969E
:100F00002D913D914D915C91DD972617370748074C
:100F1000590708F0FECEC4010E94120EF801848128
:100F20009581A681B7810196A11DB11D848395830A
:100F3000A683B783C50102C080E090E027960FB674
:100F4000F894DEBF0FBECDBFDF91CF911F910F91FF
:100F5000FF90EF90DF90CF90BF90AF909F908F90D9
:100F60007F906F905F904F903F902F900895CF9219
:100F7000DF92EF92FF920F931F93CF93DF93EC01D9
:100F80006B011AA21BA21CA21DA21EA21FA218A6C0
:100F900019A61AA61BA61CA61DA61EAA1FAA18AE35
:100FA00019AE2AAF3BAF4CAF5DAFFC01FE96E082BD
:100FB000F182028313838C01085F1F4F86E0F801E2
:100FC00011928A95E9F7CE010E94F40286E0F601BB
:100FD000D80101900D928A95E1F7FE01EA5BFF4F7F
:100FE0001082CE01DF91CF911F910F91FF90EF9072
:100FF000DF90CF900C943406FB01428153816481D1
:101000007581FC0142835383648375831782168242
:101010000895CF93FB0181918111FDCFFB0180E009
:1010200090E020E030E0CAE06191662309F12430CD
:10103000310564F56E3271F48F3F910509F034F596
:10104000DA01A20FB31F12968C932F5F3F4F80E0FF
:1010500090E0EACFDC01CA9FC001CB9F900D112424
:10106000772767FD709560537109860F971FDCCF56
:101070008F3F910509F054F4243031053CF4FA0116
:10108000E20FF31F828381E090E002C080E090E0F5
:10109000CF9108950F9300E020E040E060E088EAFF
:1010A00092E00E94DD160F910895AF92BF92CF9209
:1010B000DF92EF92FF920F931F93CF93DF9300D0B5
:1010C0001F92CDB7DEB76C017B010E940B14F601B5
:1010D000778366838601085F1F4FB6016A5F7F4F83
:1010E00042E050E0C8010E94330E81E090E09A8314
:1010F000898342E050E0BE016F5F7F4FC8010E94CC
:10110000330E80E091E09A83898342E050E0BE0193
:101110006F5F7F4FC8010E94330E1A82198242E02E
:1011200050E0BE016F5F7F4FC8010E94330E42E066
:1011300050E0BE016F5F7F4FC8010E94330E42E056
:1011400050E0BE016F5F7F4FC8010E94330E670100
:10115000F6018081882311F1F7016F0181918111DE
:1011600015C05601AE18BF081A141B0494F4AB82C4
:1011700041E050E0BE016D5F7F4FC8010E94330E19
:10118000A501B701C8010E94330E03C08E3229F7B2
:10119000E8CF7601FFEFEF1AFF0ADACF1B8241E0BA
:1011A00050E0BE016D5F7F4FC8010E94330EE12CFD
:1011B000FF24F394FA82E98242E050E0BE016F5FBF
:1011C0007F4FC8010E94330EFA82E98242E050E06C
:1011D000BE016F5F7F4FC8010E94330E81E090E037
:1011E0000F900F900F90DF91CF911F910F91FF9073
:1011F000EF90DF90CF90BF90AF9008954F925F92A5
:101200006F927F928F929F92AF92BF92CF92DF9216
:10121000EF92FF920F931F93CF93DF93CDB7DEB77B
:1012200063970FB6F894DEBF0FBECDBF7C015B01A4
:101230006A010E940B142B013C018701085F1F4FBC
:101240004501A12CB12CC8010E94A60E1816190642
:1012500094F00E940B146419750986099709861683
:101260009706A806B906D0F062E370E080E090E04F
:101270000E943A14E8CFF70142815381648175815D
:10128000818D928DA38DB48D481759076A077B070E
:1012900041F4858D968DC59721F406C08FEF9FEFA1
:1012A000F9C08EEF9FEFF6C0C8010E94E60D0C97C3
:1012B0000CF4EEC04CE050E0BE016F5F7F4FC80100
:1012C0000E94700E8B819C819827892798279A8B82
:1012D000898BF7014681578129813A81421753074B
:1012E00011F497FD06C0C8010E94000E8CEF9FEF1D
:1012F000D1C08F709270892B31F0C8010E94000E0E
:101300008BEF9FEFC7C0AF80B884BA24AB24BA2458
:10131000A114B10419F0E12CF12C23C0C8010E94E2
:10132000000E8AEF9FEFB6C041E050E0BE01635F60
:101330007F4FC8010E94700E8D8581111BC08D8565
:101340008111F2CFC8010E94470EC8010E94470ECA
:10135000C8010E94470EC8010E94470EFFEFEF1A16
:10136000FF0A8D819E81982789279827E816F9061C
:10137000D8F20AC08D859FEF980F9D878823F9F2D8
:10138000C8010E94470EF6CFE12CF12C41E050E05D
:10139000BE016D5E7F4FC8010E94700E8B89982F31
:1013A000907C61F4882371F08B899FEF980F9B8B61
:1013B000882341F0C8010E94470EF6CFC8010E9461
:1013C000470E1B8A8B898111E1CF42E050E0BE01BC
:1013D000615F7F4FC8010E94700E42E050E0BE0185
:1013E000635F7F4FC8010E94700EC8010E94470EC4
:1013F000C8010E94470EC8010E94470EC8010E9402
:10140000470E42E050E0BE016F5E7F4FC8010E9470
:10141000700E8F8598898115914029F48D859E8560
:101420008115914019F0812C912C16C089899A89D7
:101430008115944031F0C8010E94000E87EF9FEFA4
:1014400029C0B6016E5F7F4F44E050E0C8010E94A2
:10145000700E81E090E01EC089899A8998278927BB
:1014600098278816990638F4C8010E94470E2FEF76
:10147000821A920AF1CF8FEFE81AF80AEA14FB04F5
:1014800009F084CFC8010E94000E86EF9FEF02C0D2
:101490008DEF9FEF63960FB6F894DEBF0FBECDBF02
:1014A000DF91CF911F910F91FF90EF90DF90CF9040
:1014B000BF90AF909F908F907F906F905F904F9074
:1014C00008958F929F92AF92BF92CF92DF92EF9248
:1014D000FF920F931F93CF93DF9300D000D000D0E3
:1014E000CDB7DEB78C015B016A010E9409084C018F
:1014F000009709F05DC0F8014281538164817581D4
:101500008091AA029091AB02A091AC02B091AD0281
:10151000481759076A077B0709F44EC00E940B144D
:101520007801F8E0EF0EF11C6F7077277C5FC70140
:101530000E94F70E813009F043C086EC91E09A8357
:101540008983F80182819381A481B5818B839C83F7
:10155000AD83BE8345E350E0BE016F5F7F4FC7019F
:101560000E94270E892B19F4812C912C1DC0B501E6
:10157000C8010E945508892BB9F3C7010E942F0E9C
:10158000892B91F333E0A32EB12CA60168E873E117
:10159000C8010E94FE084C01F1E0AF1AB10821F029
:1015A0008F3F2FEF920789F3C7010E94120E08C0E8
:1015B00088248394912C04C09EEF892E99249A94B8
:1015C000C40126960FB6F894DEBF0FBECDBFDF91E3
:1015D000CF911F910F91FF90EF90DF90CF90BF9030
:1015E000AF909F908F90089524E030E0AC0164E0CC
:1015F00081E090E00C94F51124E030E0AC0164E06F
:1016000085E090E00C94F51126E030E0AC0164E058
:1016100089E090E00C94F51124E030E0AC0164E046
:101620008FE090E00C94F511AF92BF92CF92DF92D1
:10163000EF92FF920F931F93CF93DF9300D000D0D0
:1016400000D0CDB7DEB76C015B0182E690E00E946E
:1016500027178C0182E6F80111928A95E9F7C801F3
:10166000895B9F4F0E942A0FF6011783068386EE3F
:1016700092E00E94D211C5010E94040B00E020E01C
:1016800040E060E0CE0101960E94DD16CE01039697
:101690000E940C0B18E8E12E13E1F12E00E010E09F
:1016A00020E63AEE40E050E0B501F60186819781F0
:1016B0000E94B7078C018130910589F5F60166819A
:1016C0007781CE0101960E94FB02CE0103960E9413
:1016D0000C0BF60166817781CE0101960E94110301
:1016E000CE0103960E94F40AF60166817781CE014D
:1016F00001960E940603CE0103960E94FC0AF601A1
:1017000066817781CE0101960E941C034B815C812A
:101710006D817E81F6014283538364837583C801A2
:1017200026960FB6F894DEBF0FBECDBFDF91CF91E6
:101730001F910F91FF90EF90DF90CF90BF90AF90EF
:101740000895CF93DF93EC010E94D316AE014E5F54
:101750005F4F24E030E060E08FE090E00E940813EB
:10176000CE01DF91CF91089526EC31E0FC01318369
:101770002083FB014281538164817581FC01428396
:1017800053836483758308950F9300E020E040E065
:1017900060E086EC92E00E94DD168EEA92E00F9106
:1017A0000C94D316DC01ED91FC91008CF18DE02DB1
:1017B000099591E089270895CF93DF931F92CDB7C4
:1017C000DEB76983DC01ED91FC910280F381E02DAD
:1017D00041E050E0BE016F5F7F4F09950F90DF91B0
:1017E000CF91089521E0FC018485883009F420E040
:1017F000822F0895FC019485FB018485981303C012
:1018000081E0983009F480E008950F931F93CF93FF
:10181000DF93EC018A018C85883021F00E948710CB
:10182000892B39F481E090E09B838A8380E090E00B
:1018300001C0C801DF91CF911F910F910895FC0164
:101840006485683021F086EE92E00C94A31280E06B
:1018500090E00895CF93DF931F92CDB7DEB741E0BC
:1018600050E0BE016F5F7F4FFC0184850E94D9105C
:10187000181619061CF4898190E002C08FEF9FEFC3
:101880000F90DF91CF910895FC0184850C94D910BD
:101890000F931F93CF93DF931F92CDB7DEB78C01C9
:1018A000DC01ED91FC910480F581E02D0995892BF7
:1018B00051F0BE016F5F7F4FF80184850E941D11BA
:1018C000898190E002C08FEF9FEF0F90DF91CF9161
:1018D0001F910F910895FC0184850C942B11CF92D8
:1018E000DF92EF92FF920F931F93CF93DF93CDB7C9
:1018F000DEB7AF970FB6F894DEBF0FBECDBF7C0149
:101900008B016A01CE0101960E94D316CE01099681
:101910000E942A0FCE018A960E94D3166EEA72E0C8
:10192000CE0184960E94B40BBE016C5D7F4FCE0148
:1019300001960E94FC07AE01465D5F4FB801CE01E3
:1019400001960E94610A81309105C1F4D701ED91A1
:10195000FC910484F585E02D86EC91E09DA38CA399
:101960000CA51DA52EA53FA50EA31FA328A739A72B
:10197000A601BE016C5D7F4FC7010995AF960FB6FA
:10198000F894DEBF0FBECDBFDF91CF911F910F91B5
:10199000FF90EF90DF90CF900895FC0113821282A8
:1019A00048EE53E060E070E04483558366837783BC
:1019B00082E791E09183808388E084870895FC0129
:1019C0006485683041F06295660F607E685F83E0F1
:1019D00090E00C94331280E00895DF92EF92FF9232
:1019E0000F931F93CF93DF93EC017B018A018C85CA
:1019F000883009F04BC0D12C6D2D6295660F607E4A
:101A0000685F83E090E00E943312811102C0DC869F
:101A100007C08B7F8831D9F3D39488E0D812ECCFFC
:101A20008C85883099F120910A0130910B012F5F4C
:101A30003F4F11F420E034E030930B0120930A0172
:101A400040910A0150910B0120E061E00E940A10D0
:101A5000B7016E5F7F4FA8018C850E944A108111EB
:101A600003C088E08C8712C0CE010E94DF0C873152
:101A700051F061E070E080E090E00E943A14CE0105
:101A80000E94DF0CECCF81E090E002C080E090E0AB
:101A9000DF91CF911F910F91FF90EF90DF9008950C
:101AA000CF92DF92EF92FF92CF93DF93EC018C8580
:101AB000883081F10E9480100E940B146B017C0120
:101AC000CE010E94DF0C882359F00E940B146C1980
:101AD0007D098E099F09683E73408105910598F044
:101AE000CE010E94DF0C882319F08C850E94FC0F28
:101AF000EC85F0E0EE0FFF1FEA54FD4F11821082DB
:101B000088E08C8707C061E070E080E090E00E9490
:101B10003A14D6CFDF91CF91FF90EF90DF90CF9026
:101B20000895CF93DF93EC018C858830D1F0CE01FE
:101B30000E94DF0C8431A9F0882399F0883189F064
:101B40008C3169F4E881F9810480F581E02DCE01C2
:101B5000099521E0892B09F420E0822F03C081E060
:101B600001C080E0DF91CF9108950F9300E020E065
:101B700040E060E08CEC92E00E94DD160F91089549
:101B80000F9300E020E040E060E082ED92E00E94F0
:101B9000DD160F910895DC01ED91FC91008CF18D23
:101BA000E02D099426EC31E0FC0131832083FB0118
:101BB0004189528963897489FC0142835383648318
:101BC00075830895FC01858996890895FC01818DAE
:101BD000928D0895CF93DF931F92CDB7DEB76983BF
:101BE000DC01ED91FC910280F381E02D41E050E0B9
:101BF000BE016F5F7F4F09950F90DF91CF910895E0
:101C0000CF93DF93EC01898D9A8D892B41F0E88188
:101C1000F9810680F781E02DCE010995F4CFDF919F
:101C2000CF910895CF93DF93EC018C85883061F0DC
:101C30000E94FC0FEC85F0E0EE0FFF1FEA54FD4F11
:101C40001182108288E08C87DF91CF910895FC018A
:101C5000108E178A6E5F7F4F84850C945A11FC0199
:101C600084850C947F11CF93DF93EC019A018F89C7
:101C7000988DAB01BC018C850E942C112F89388D69
:101C8000280F391F388F2F8BDF91CF9108950F9335
:101C90001F93CF93DF931F92CDB7DEB78C01FC016A
:101CA000818D928D892B59F041E050E0BE016F5F2C
:101CB0007F4F84850E94D910181619061CF08FEFEB
:101CC0009FEF08C0F801818D928D0197928F818FCF
:101CD000898190E00F90DF91CF911F910F9108952E
:101CE000CF93DF93EC01898D9A8D009719F48FEFD4
:101CF0009FEF10C04817590708F0AC018C850E946F
:101D0000D910181619069CF7298D3A8D281B390B06
:101D10003A8F298FDF91CF910895CF93DF931F9250
:101D2000CDB7DEB7FC01218D328D232B49F0BE01EA
:101D30006F5F7F4F84850E941D11898190E002C0F2
:101D40008FEF9FEF0F90DF91CF9108950F931F9327
:101D5000CF93DF93CDB7DEB728970FB6F894DEBFE9
:101D60000FBECDBF8C01DC01ED91FC910284F385A7
:101D7000E02D0995F801648586EE92E00E94A31299
:101D8000892B41F148E050E0BE016F5F7F4FD801E1
:101D90001C968C910E94D91018161906ECF4BE01FD
:101DA0006F5F7F4FC8010F960E94F9168D8190E0FA
:101DB000982F88272E81820F911DF801968B858B95
:101DC0008F8190E0982F88272885820F911D928F10
:101DD000818F02C080E090E028960FB6F894DEBFB5
:101DE0000FBECDBFDF91CF911F910F910895FF924C
:101DF0000F931F93CF93DF93EC018B018C85883079
:101E000011F5F12C6F2D6295660F607E685F83E09F
:101E100090E00E943312811102C0FC8606C0883116
:101E2000E1F3F39488E0F812EDCF8C85883059F017
:101E30001E870D871A8E198E20E0A80162E00E948D
:101E40000A1081E001C080E0DF91CF911F910F91D6
:101E5000FF900895FC011382128248EE53E060E087
:101E600070E0448355836683778382E991E09183B0
:101E7000808388E08487CF010F960C94D316CF928D
:101E8000DF92EF92FF920F931F93CF93DF93CDB723
:101E9000DEB7AF970FB6F894DEBF0FBECDBF7C01A3
:101EA0008B016A01CE0101960E94D316CE010996DC
:101EB0000E942A0FCE018A960E94D3166EEA72E023
:101EC000CE0184960E94B40BBE016C5D7F4FCE01A3
:101ED00001960E94FC07AE01465D5F4FB801CE013E
:101EE00001960E94610A81309105C1F4D701ED91FC
:101EF000FC910088F189E02D86EC91E09DA38CA3F4
:101F00000CA51DA52EA53FA50EA31FA328A739A785
:101F1000A601BE016C5D7F4FC7010995AF960FB654
:101F2000F894DEBF0FBECDBFDF91CF911F910F910F
:101F3000FF90EF90DF90CF9008950F9300E020E0A6
:101F400040E060E088ED92E00E94DD160F91089578
:101F50000F9300E020E040E060E08EED92E00E9410
:101F6000DD160F910895AB01682F6295660F607EB4
:101F7000645F24E030E08CE090E00C94F5119B016C
:101F8000682F6295660F607E685FC9010C943312FA
:101F900062E070E00C94BF0F9B01682F6295660FA2
:101FA000607E645FC9010C94AC11CF93DF93C82F9E
:101FB000D62F472F64E070E00E94CC0F4D2F65E0D4
:101FC00070E08C2FDF91CF910C94CC0F462F62E004
:101FD00070E00C94CC0FCF93DF93C82FD62F472FF0
:101FE00060E170E00E94CC0F4D2F61E170E08C2F1A
:101FF000DF91CF910C94CC0FCF93C82F40E150E0EC
:10200000682F86EE92E00E94B1136FEF8C2FCF9174
:102010000C94E60FEF92FF921F93CF93DF9300D0C3
:10202000CDB7DEB7182F7A018FEF860F853048F5D0
:10203000812F2A8369830E94FC0F2A816981462FA0
:10204000422B60E070E0812F0E94CC0FE114F1047C
:1020500011F0B7010AC06091E4027091E5026F5F70
:102060007F4F7093E5026093E402812F0E94D50FA9
:1020700041E050E0612F86EE92E00E94B11381E0D2
:1020800001C080E00F900F90DF91CF911F91FF90E2
:10209000EF9008951F93CF93DF93182FFB01EA0170
:1020A00080818F3F51F481818F3F91F482818F3FF6
:1020B00079F483818F3F61F41EC0811109C0818151
:1020C000811106C08281811103C08381882399F028
:1020D000209789F0BF01812F0E94B30FBE01812F8D
:1020E0000E94EB0F44E050E0612F86EE92E00E94E8
:1020F000B11381E001C080E0DF91CF911F9108957D
:1021000048E050E0682F86EE92E00C94B113DF9225
:10211000EF92FF920F931F93CF93DF93D82E8B01F3
:10212000EA01413088E0580710F0C0E0D8E06D2D9A
:1021300086EE92E00E946E127C0163E070E08D2DCD
:102140000E94BF0F873111F08C3121F4EC16FD068F
:1021500070F302C0C0E0D0E09E01A8016D2D86EEB4
:1021600092E00E94FD1240E250E06D2D86EE92E07A
:102170000E94B1138D2D0E94C80F84FD0DC063E035
:1021800070E08D2D0E94BF0F8111F4CF8D2D0E9424
:10219000FC0F80E090E005C060E18D2D0E94E60F0D
:1021A000CE01DF91CF911F910F91FF90EF90DF90C3
:1021B0000895DF92EF92FF920F931F93CF93DF93D7
:1021C000D82E7B018A01682F86EE92E00E94A3122E
:1021D000EC01009799F463E070E08D2D0E94BF0F31
:1021E000843111F1882301F1C1E0D0E08C3111F488
:1021F000C0E0D0E0D195C195D10916C008171907E4
:102200000CF4E8011C161D067CF400E09E01A701F9
:102210006D2D86EE92E00E94601340E450E06D2D3B
:1022200086EE92E00E94B113CE01DF91CF911F9113
:102230000F91FF90EF90DF9008950F93AB0101E0B5
:1022400021E030E0682F86EE92E00E94601381E08A
:1022500090E00F9108950895BF92CF92DF92EF9290
:10226000FF920F931F93CF93DF93B82E7B016A01E8
:10227000E901682F86EE92E00E946E128C179D078E
:1022800030F46B2D86EE92E00E946E12EC018E010E
:102290009601A7016B2D86EE92E00E94BF12CE013F
:1022A000DF91CF911F910F91FF90EF90DF90CF9032
:1022B000BF9008951F93CF93DF93182FFB01EA017E
:1022C0008081811109C08181811106C082818111C3
:1022D00003C08381882369F0209759F0BF01812FC3
:1022E0000E94B30FBE01812F0E94EB0F81E090E0AE
:1022F00002C080E090E0DF91CF911F910895CF93CD
:10230000C82F40E250E0682F86EE92E00E94B113A1
:102310008C2F0E94C80F84FD0CC08C2F0E94C80F08
:1023200083FFF6CF68E18C2F0E94E60F80E090E0FB
:1023300006C060E18C2F0E94E60F81E090E0CF9113
:1023400008958EBD00000DB407FEFDCF8EB5089533
:102350002E9808952E9A08951F93CF93DF9300D05F
:102360001F92CDB7DEB7182F4B836A8399830E94E3
:10237000A8119981892F0E94A111812F0E94A1117A
:102380006A81862F0E94A1114B81842F0E94A11186
:102390000E94AA1181E00F900F900F90DF91CF91D2
:1023A0001F910895CF93DF9368EE73E080E090E093
:1023B0000E943A14269A0E94BE02C0E0DC2FD295F9
:1023C000DD0FD07ED45F42E06D2F8EE190E00E9461
:1023D000AC1142E06D2F8FE190E00E94AC11CF5F15
:1023E000C83061F7DF91CF910895CF92DF92EF92DD
:1023F000FF920F931F93CF93DF9300D000D0CDB700
:10240000DEB7F82E89014B835C836A8399830E942F
:10241000A81189810E94A1118F2D0E94A1116A81AA
:10242000862F0E94A1114B81C42E5C81D52E76018E
:10243000E00EF11ECE14DF0431F0F60181916F0140
:102440000E94A111F7CF0E94AA11C8010F900F900E
:102450000F900F90DF91CF911F910F91FF90EF9010
:10246000DF90CF9008951F93CF93DF9300D0CDB727
:10247000DEB7182F6A8399830E94A81189810E9470
:10248000A111812F0E94A1116A81862F0E94A111A2
:1024900080E00E94A11189830E94AA1189810F9076
:1024A0000F90DF91CF911F9108951F93CF93DF93EA
:1024B000182F60E270E00E94BF0FC82FD0E0DC2F21
:1024C000CC2761E270E0812F0E94BF0F9E01280F90
:1024D000311DC901DF91CF911F910895FF920F9394
:1024E0001F93CF93DF93F62EC0E0D0E08F2D0E9494
:1024F00055128C01009721F08F2D0E945512EC018E
:10250000C017D10799F7CE01DF91CF911F910F919D
:10251000FF9008951F93CF93DF93182F66E270E02A
:102520000E94BF0FC82FD0E0DC2FCC2767E270E0FD
:10253000812F0E94BF0F9E01280F311DC901DF911D
:10254000CF911F910895FF920F931F93CF93DF9325
:10255000F62EC0E0D0E08F2D0E948A128C010097E9
:1025600021F08F2D0E948A12EC01C017D10799F734
:10257000CE01DF91CF911F910F91FF900895CF92DF
:10258000DF92EF92FF920F931F93CF93DF93D62E9C
:10259000EA01790164E270E08D2D0E94BF0FC82E20
:1025A00065E270E08D2D0E94BF0FC80FD11D2C2D4C
:1025B00030E0322F2227C20FD31F6D2D6295660F98
:1025C000607E6C5E9801A701CE010E94F511C00FDC
:1025D000D11F4D2F64E270E08D2D0E94CC0F4C2F47
:1025E00065E270E08D2DDF91CF911F910F91FF90EB
:1025F000EF90DF90CF900C94CC0F0F931F93890135
:102600009A0140E050E00E94BF121F910F9108957F
:10261000CF92DF92EF92FF920F931F93CF93DF93AE
:1026200000D000D0CDB7DEB7F82E89014B835C8394
:102630006A8399830E94A81189810E94A1118F2D1C
:102640000E94A1116A81862F0E94A1114B81C42E84
:102650005C81D52E7601E00EF11ECE14DF0439F038
:1026600080E00E94A111F60181936F01F6CF0E94D4
:10267000AA11C8010F900F900F900F90DF91CF918A
:102680001F910F91FF90EF90DF90CF9008950F93DF
:102690001F93CF93DF9300D0CDB7DEB75A83498322
:1026A000A901980189819A816295660F607E685EB2
:1026B0000F900F90DF91CF911F910F910C94081301
:1026C0008F929F92AF92BF92CF92DF92EF92FF9242
:1026D0000F931F93CF93DF936C01962E5A017901CC
:1026E000802E68E270E0892D0E94BF0FC82F69E23A
:1026F00070E0892D0E94BF0FD0E0DC2FCC27C80FDF
:10270000D11D87019501AE01692DC6010E944713B5
:1027100081101AC0CE0DDF1D4D2F68E270E0892DAB
:102720000E94CC0F4C2F69E270E0892DDF91CF9190
:102730001F910F91FF90EF90DF90CF90BF90AF90DF
:102740009F908F900C94CC0FDF91CF911F910F91A0
:10275000FF90EF90DF90CF90BF90AF909F908F90C1
:102760000895CF93C62F61E070E08C2F0E94CC0FAC
:1027700061E070E08C2F0E94BF0F8111F9CFCF91E3
:1027800008951F920F920FB60F9211242F933F932B
:102790008F939F93AF93BF938091E8029091E9024A
:1027A000A091EA02B091EB023091E70223E0230FFF
:1027B0002D3720F40196A11DB11D05C026E8230F79
:1027C0000296A11DB11D2093E7028093E802909329
:1027D000E902A093EA02B093EB028091EC0290919F
:1027E000ED02A091EE02B091EF020196A11DB11D84
:1027F0008093EC029093ED02A093EE02B093EF026F
:10280000BF91AF919F918F913F912F910F900FBEEC
:102810000F901F9018952FB7F8946091E80270916F
:10282000E9028091EA029091EB022FBF08953FB731
:10283000F8948091EC029091ED02A091EE02B0919B
:10284000EF0226B5A89B05C02F3F19F00196A11DE8
:10285000B11D3FBF6627782F892F9A2F620F711DF8
:10286000811D911D42E0660F771F881F991F4A95B1
:10287000D1F708958F929F92AF92BF92CF92DF923D
:10288000EF92FF926B017C010E9417144B015C01D7
:10289000C114D104E104F104F1F00E94FD1C0E9476
:1028A0001714681979098A099B09683E73408105E4
:1028B000910570F321E0C21AD108E108F10888EE11
:1028C000880E83E0981EA11CB11CC114D104E10440
:1028D000F10429F7DDCFFF90EF90DF90CF90BF900C
:1028E000AF909F908F900895789484B5826084BD56
:1028F00084B5816084BD85B5826085BD85B5816004
:1029000085BDEEE6F0E0808181608083E1E8F0E063
:102910001082808182608083808181608083E0E892
:10292000F0E0808181608083E1E9F0E08081826075
:102930008083808181608083E0E9F0E08081816034
:102940008083E1ECF0E0808184608083808182601C
:102950008083808181608083E3ECF0E0808181600E
:102960008083E0ECF0E0808182608083E2ECF0E044
:10297000808181608083EAE7F0E0808184608083E9
:102980008081826080838081816080838081806893
:102990008083089590E0FC013197EF30F105B0F5A8
:1029A000EA5AFF4F0C943F1D809180008F7703C03F
:1029B000809180008F7D80938000089580918000B9
:1029C000877FF9CF84B58F7702C084B58F7D84BDB2
:1029D0000895809190008F7707C0809190008F7D3F
:1029E00003C080919000877F80939000089580912C
:1029F000C0008F7703C08091C0008F7D8093C0009E
:102A000008958091C200877F8093C2000895CF937C
:102A1000DF9390E0FC01E751FF4F2491FC01E85F58
:102A2000FE4F8491882349F190E0880F991FFC01A3
:102A3000EB5CFE4FA591B491895D9E4FFC01C59161
:102A4000D4919FB7611108C0F8948C91209582238E
:102A50008C93888182230AC0623051F4F8948C915F
:102A6000322F309583238C938881822B888304C0F6
:102A7000F8948C91822B8C939FBFDF91CF91089516
:102A80000F931F93CF93DF931F92CDB7DEB7282FFD
:102A900030E0F901E653FF4F8491F901E751FF4F10
:102AA0001491F901E85FFE4F04910023C9F08823D7
:102AB00021F069830E94CA146981E02FF0E0EE0FD3
:102AC000FF1FE95DFE4FA591B4919FB7F8948C91DB
:102AD000611103C01095812301C0812B8C939FBF8E
:102AE0000F90DF91CF911F910F910895CF93DF93B6
:102AF0001F92CDB7DEB76983DC01ED91FC910280B6
:102B0000F381E02D41E050E0BE016F5F7F4F0995FA
:102B10000F90DF91CF910895CF93DF93EC018C85D7
:102B20009D8597FF05C082E00E94E4189D878C87F1
:102B30008C859D85DF91CF91089583E00C94781B5F
:102B4000FC018485958597FD06C082E00E948C1863
:102B500090E00196089582E00E948C1890E008951C
:102B6000FC018485958597FD05C02FEF3FEF3587E4
:102B70002487089582E00C94E418CF93DF93EC014E
:102B800080911701882331F083E00E9415191816EF
:102B9000190634F081E090E09B838A8380E090E026
:102BA000DF91CF910895FC0120812E5F208342E4C4
:102BB00050E063E471E080E80C94B019FC012181DD
:102BC0008081813A59F4213209F04BC047E050E04E
:102BD00060E171E080E00E94B0195EC0813209F0CE
:102BE00040C0233289F4838190E0982F8827328176
:102BF000832BA0E0B0E080930C0190930D01A09393
:102C00000E01B0930F010FC0203239F467E070E07D
:102C100080E191E00E94E11909C0223221F4828111
:102C20008093170103C02D7F2032B1F580914003BE
:102C3000811103C0E0E0F8E002C0EEEFFAE080911D
:102C4000100190911101A0911201B0911301803BEC
:102C50009440A105B10511F58091170180FF03C0D3
:102C60001DC080E00895EE3F2AE0F20731F0808138
:102C700091819093FF0A8093FE0A87E797E79183FB
:102C800080832BE088E190E00FB6F894A8958093BC
:102C900060000FBE2093600081E0089588E10FB6C8
:102CA000F89480936000109260000FBEA895EE3FEC
:102CB0008AE0F80739F08091FE0A9091FF0A91832B
:102CC0008083EACF1092FF0A1092FE0AE5CF2FEF21
:102CD0003FEFFC01358724870895CF93C0911701FA
:102CE0006AE070E080E090E00E943A1481E0C11157
:102CF00001C080E0CF9108951092F3021092F20289
:102D000088EE93E0A0E0B0E08093F4029093F502A7
:102D1000A093F602B093F70286EB91E09093F10254
:102D20008093F0028FEF9FEF9093FD028093FC025F
:102D30000895AF92BF92CF92DF92EF92FF920F93DE
:102D40001F93CF93DF936C017B01C0E0D0E000E0E4
:102D500010E0F601EC0FFD1F4AE050E06281C70170
:102D60000E94BA175C016EE2C7010E9441178A0DEA
:102D70009B1D080F191F2196C330D10551F74AE05A
:102D800050E0F6016581C7010E94BA17800F911FBC
:102D9000DF91CF911F910F91FF90EF90DF90CF9037
:102DA000BF90AF90089526EC31E0FC013183208381
:102DB000128213821482158208950F93FC0186EC0F
:102DC00091E09183808362834383248305830F9101
:102DD000089526EC31E0FC0131832083FB01408122
:102DE000518162817381FC014283538364837583C3
:102DF0000895FB014081518162817381FC0142830E
:102E0000538364837583089586EC91E09093420325
:102E100080934103109243031092440310924503A0
:102E200010924603089508950E9474140E94131787
:102E300087E493E00E94051C0E948402C0E0D0E079
:102E40000E94BE012097E1F30E940000F9CF0C948C
:102E5000661D6115710581F0DB010D900020E9F719
:102E6000AD0141505109461B570BDC01ED91FC911E
:102E70000280F381E02D099480E090E008950C94A5
:102E80002917DC01ED91FC910190F081E02D09946E
:102E900068EC71E00C9429170F931F93CF93DF9385
:102EA000EC010E9429178C01CE010E944817800F67
:102EB000911FDF91CF911F910F9108958F929F9253
:102EC000AF92BF92DF92EF92FF920F931F93CF9337
:102ED000DF93CDB7DEB7A1970FB6F894DEBF0FBE74
:102EE000CDBF7C01F42FD52ECB0119A2223008F4DE
:102EF0002AE08E010F5D1F4F822E912CA12CB12C48
:102F00006F2F7D2DA50194010E94FE1CF22FD32E60
:102F1000CA01015011096A3014F4E0E301C0E7E38B
:102F2000E60FD801EC93232B242B252B49F7B8016E
:102F3000C7010E942917A1960FB6F894DEBF0FBEF5
:102F4000CDBFDF91CF911F910F91FF90EF90DF9058
:102F5000BF90AF909F908F9008952115310541F457
:102F6000DC01ED91FC910190F081E02D642F09943A
:102F70000C945E179A01462F50E060E070E00C94CC
:102F8000AD170F931F93CF93DF93EC010E94AD1702
:102F90008C01CE010E944817800F911FDF91CF91C5
:102FA0001F910F910895615030F02091F100FC01C4
:102FB00020830196F8CF289884E6809350030895E3
:102FC00040914B0350914C032091490330914A03A7
:102FD00042175307B4F49091E8009570E1F3909193
:102FE000E80092FD19C08093F10080914B0390910D
:102FF0004C0301968F739927892B19F48EEF8093D8
:10300000E80080914B0390914C03019690934C0300
:1030100080934B0381E0089580E00895CF92DF9282
:10302000EF92FF920F931F93CF93DF931F92CDB731
:10303000DEB7082F162FF42E862F880F8E5F998308
:103040000E94E01783E00E94E017E02EC02E9981D5
:10305000D92E8C2D8E19811798F4F601F7FE02C037
:10306000849101C080810E94E017082F80E00E94B7
:10307000E0178023FFEFCF1ADF0A8111EACF01C0EA
:1030800081E00F90DF91CF911F910F91FF90EF9012
:10309000DF90CF9008958091D70081608093D70012
:1030A00080EA8093D80089B5806189BD89B5826046
:1030B00089BD09B400FEFDCF61E070E080E090E0E2
:1030C0000E943A148091D8008F7C80618093D80050
:1030D0008091E000807F8093E0000895CF93DF939C
:1030E0001F92CDB7DEB71982CE0101960E94D3158B
:1030F0000E94E91CBE016F5F7F4F0E94621C8981A4
:103100000F90DF91CF9108952FB7FC012083F894A1
:1031100067706093E9000895CF93DF931F92CDB756
:10312000DEB7682FCE0101960E9484188091F200CC
:1031300099819FBF0F90DF91CF910895FF920F93D8
:103140001F93CF93DF9300D0CDB7DEB7F62E8A0161
:1031500090914F03992311F057FF03C08FEF9FEF1A
:103160002BC0682FCE0101967A830E94841880912B
:10317000F20090E0A8017A81801791070CF4AC016D
:10318000EF2DF72FF40E84E6FE1639F02898809381
:1031900050039091F1009193F7CF4115510521F023
:1031A0008091F200882321F089818FBFCA0104C079
:1031B0008BE68093E800F8CF0F900F90DF91CF91CE
:1031C0001F910F91FF900895CF93DF931F92CDB77A
:1031D000DEB741E050E0BE016F5F7F4F0E949E1856
:1031E000019719F4898190E002C08FEF9FEF0F9053
:1031F000DF91CF910895CF93DF931F92CDB7DEB7C4
:10320000682FCE0101960E9484189091E800892FC2
:10321000807295FF04C09091F20080E4891B99812F
:103220009FBF0F90DF91CF9108956F927F928F9201
:103230009F92AF92BF92CF92DF92EF92FF920F9345
:103240001F93CF93DF931F92CDB7DEB7782E7B010C
:10325000C42EB52E80914F03882369F0042F152FBB
:103260008AEFD82E872D8072982E9AE3A92E872D6B
:103270008074882E11C08FEF9FEF57C0872D0E945A
:10328000FB18682E81110CC0DA94A9F361E070E09C
:1032900080E090E00E943A140115110579F73BC0D7
:1032A000282F30E0021713070CF4602E672DCE0193
:1032B00001960E9484188091E80085FF29C0262D80
:1032C00030E0021B130B992039F06A948FEF6816D7
:1032D000B1F01092F100F9CFF701862D77FE07C00B
:1032E000815058F094919093F1003196F9CF81502C
:1032F00020F091919093F100FACFE20EF31E8091AD
:10330000E80085FF0FC00115110511F481100AC0F6
:1033100089818FBFC1CF5D9884E6809351038C2D46
:103320009B2D03C0A092E800F3CF0F90DF91CF91C7
:103330001F910F91FF90EF90DF90CF90BF90AF90D3
:103340009F908F907F906F9008951092E900109257
:103350004C0310924B0390934A03809349030895C2
:10336000CF92DF92FF920F931F93CF93DF9300D002
:10337000CDB7DEB7F82E8A016B0101151105B1F04A
:10338000F601F7FE02C0849101C0808149835A830F
:103390000E94E01701501109FFEFCF1ADF0A49819F
:1033A0005A818111EACF8FEF9FEF01C0CA010F90C0
:1033B0000F90DF91CF911F910F91FF90DF90CF90F1
:1033C0000895BF92CF92DF92EF92FF920F931F93D7
:1033D000CF93DF936C018B01EB013BEFB32E209772
:1033E000C1F07E01C134D1051CF020E4E22EF12CA5
:1033F0008091E80082FFFCCFC8018C1B9D0B6E2DD5
:103400008C0D9D1D0E94D317B092E800CE19DF09E4
:10341000E6CFC801DF91CF911F910F91FF90EF9000
:10342000DF90CF90BF9008951F920F920FB60F922A
:103430001124DF92EF92FF920F931F932F933F93EC
:103440004F935F936F937F938F939F93AF93BF93AC
:10345000EF93FF93CF93DF93CDB7DEB76C97DEBFCB
:10346000CDBF1092E9008091E80083FF23C168E09E
:10347000CE0145960E94D31782EF8093E8003D89E4
:1034800037FF05C08091E80080FFFCCF03C08EEFBE
:103490008093E800832F807609F0F0C02E894F8951
:1034A000D88C21110CC0303829F480914E038093C0
:1034B000F10002C01092F1001092F100F4C0842FCC
:1034C00090E09D29213049F43111EDC0019709F0B8
:1034D000EAC080914E038D7F0AC0233059F4311128
:1034E000E2C0019709F0DFC080914E0382608093B3
:1034F0004E03D9C0253041F48091E80080FFFCCF15
:1035000040684093E300CFC0263009F08DC0EB8CBB
:10351000FC8C22E0D2122CC080E090E00E94A51921
:103520000E946E1899E08E010F5F1F4FF801292F3E
:1035300011922A95E9F79983DA8291E09E8390EAC5
:1035400098879AEF998720914B0330914C03275F1E
:103550003F4F3C832B838D83C7010E94A51949E00F
:1035600050E0B80180E00E94B0190E946E189BC024
:10357000C7010E94A5190E94E91CBE016B5E7F4F26
:103580000E948B1C009719F00CF08DC090C081E058
:10359000D8120EC08B8D9C8D089719F481E0809312
:1035A00048038091480381112FC067E971E031C061
:1035B000E3E0DE127CC08F89882349F1823029F450
:1035C00040E860E185EB91E01CC0813029F440E8DF
:1035D0006BE089EA91E015C0833009F068C00E9471
:1035E000E91C8E010F5F1F4FB8010E94AA1CF80151
:1035F00001900020E9F73197E01BF10B40E06E2FBE
:10360000C8010E940E184DC065E871E002C066EC6A
:1036100071E06115710509F44AC0FB01449150E065
:1036200080E80E94B0193FC0273009F440C028301C
:1036300021F481E08093F10036C02930A1F5337088
:10364000B1F5E9E1F1E081E021E036E390819923F1
:1036500061F08093E9002093EB0091919093EC004E
:103660003093ED008F5F873089F78EE78093EA0013
:103670001092EA008F8980934F0315C08B8D9C8D2B
:103680000E94A519898D811105C0CE0145960E9421
:10369000DE1507C00E94E91CBE016B5E7F4F0E94D1
:1036A000C91C882321F08EEF8093E80003C081E2DB
:1036B0008093EB006C960FB6F894DEBF0FBECDBFC3
:1036C000DF91CF91FF91EF91BF91AF919F918F913A
:1036D0007F916F915F914F913F912F911F910F912A
:1036E000FF90EF90DF900F900FBE0F901F901895F6
:1036F0008093E9008091F200882319F08AE3809397
:10370000E80008951F920F920FB60F9211242F9385
:103710003F934F935F936F937F938F939F93AF9359
:10372000BF93CF93EF93FF93C091E1008091E100AD
:10373000837F8093E1008093E100C3FF0FC010926C
:10374000E90081E08093EB001092EC0082E380932B
:10375000ED0010924F0388E08093F000C2FF19C083
:1037600083E00E94781B80915103882339F0809177
:103770005103815080935103882389F18091500334
:10378000882339F08091500381508093500388231F
:1037900041F1C4FF10C08091E2008E7E8160809371
:1037A000E2008091E1008F7E8093E10080914D03E3
:1037B0008E7E806111C0C0FF16C08091E2008E7EB7
:1037C00080618093E2008091E1008E7E8093E10031
:1037D00080914D038E7E816080934D0304C05D9A7D
:1037E000CDCF289AD6CFFF91EF91CF91BF91AF91D6
:1037F0009F918F917F916F915F914F913F912F9109
:103800000F900FBE0F901F90189510924F031092BB
:103810004E0310924D030E944B188091E1008E7E62
:103820008093E1008DE08093E200559A209AEEEFBC
:10383000FFE7859194918B3F9C4D19F481E0809333
:1038400040030895CF93DF9300D000D0CDB7DEB70B
:103850009B01AC01611571058105910569F06983D2
:103860003A834B835C830E94DC1E29813A814B8121
:103870005C810E94201D03C060E070E0CB010F90CE
:103880000F900F900F90DF91CF910895CF92DF921C
:10389000EF92FF926B017C01621773078407950713
:1038A00064F4CA01B9016C197D098E099F090E944F
:1038B000221C6C0D7D1D8E1D9F1DFF90EF90DF90D3
:1038C000CF900895EF92FF920F931F93CF93DF93C2
:1038D0007B01FC01C281D38100E010E0209781F0E0
:1038E000E881F9810280F381E02DB701CE010995CD
:1038F00097FD08C0080F191F0884D985C02DEECF89
:10390000C80102C08FEF9FEFDF91CF911F910F9100
:10391000FF90EF9008950F931F93CF93DF938B0148
:10392000FC01C281D381209771F0E881F981048084
:10393000F581E02DB801CE010995009731F4088496
:10394000D985C02DF0CF80E090E0DF91CF911F911D
:103950000F9108950F931F93CF93DF938B01FC0179
:10396000C281D381209771F0E881F9810680F781C7
:10397000E02DB801CE010995080F111D0884D985E5
:10398000C02DF0CFF8011082DF91CF911F910F91E0
:1039900008950F931F93CF93DF938B01FC01C28196
:1039A000D381209771F0E881F9810190F081E02DB9
:1039B000B801CE010995811106C00884D985C02DB2
:1039C000F0CF80E001C081E0DF91CF911F910F9196
:1039D00008958091560381110DC082E080935203B7
:1039E00084E080935303109255031092540381E0B6
:1039F0008093560382E593E008950895A1E21A2E7C
:103A0000AA1BBB1BFD010DC0AA1FBB1FEE1FFF1F82
:103A1000A217B307E407F50720F0A21BB30BE40BD2
:103A2000F50B661F771F881F991F1A9469F7609519
:103A30007095809590959B01AC01BD01CF010895D3
:103A4000052E97FB1EF400940E94371D57FD07D0EA
:103A50000E94FE1C07FC03D04EF40C94371D5095B9
:103A60004095309521953F4F4F4F5F4F089590956A
:103A70008095709561957F4F8F4F9F4F0895EE0F02
:103A8000FF1F0590F491E02D099469279627692777
:103A900078278727782708950E94571DA59F900DA6
:103AA000B49F900DA49F800D911D11240895A29F95
:103AB000B001B39FC001A39F700D811D1124911D02
:103AC000B29F700D811D1124911D0895CF93DF9336
:103AD0008230910510F482E090E0E0916003F09173
:103AE000610320E030E0A0E0B0E0309739F14081A0
:103AF000518148175907B8F04817590771F4828166
:103B00009381109729F013969C938E9312972CC053
:103B1000909361038093600327C02115310531F034
:103B20004217530718F0A901DB0101C0EF019A0108
:103B3000BD01DF010280F381E02DD7CF21153105D2
:103B4000F9F0281B390B2430310580F48A819B81E0
:103B50006115710521F0FB019383828304C090936A
:103B6000610380936003FE01329644C0FE01E20FC0
:103B7000F31F8193919322503109398328833AC0EE
:103B800020915E0330915F03232B41F420910201C9
:103B90003091030130935F0320935E032091000175
:103BA000309101012115310541F42DB73EB7409107
:103BB000040150910501241B350BE0915E03F09147
:103BC0005F03E217F307A0F42E1B3F0B28173907FA
:103BD00078F0AC014E5F5F4F2417350748F04E0F69
:103BE0005F1F50935F0340935E038193919302C0E4
:103BF000E0E0F0E0CF01DF91CF910895CF93DF9324
:103C0000009709F487C0FC01329713821282C09199
:103C10006003D0916103209781F420813181280FC6
:103C2000391F80915E0390915F038217930779F5A6
:103C3000F0935F03E0935E036DC0DE0120E030E0AF
:103C4000AE17BF0750F412964D915C9113979D01EA
:103C50004115510509F1DA01F3CFB383A283408105
:103C60005181840F951F8A179B0771F48D919C9148
:103C70001197840F951F02969183808312968D91E0
:103C80009C911397938382832115310529F4F09336
:103C90006103E09360033EC0D9011396FC93EE9359
:103CA00012974D915D91A40FB51FEA17FB0779F4A8
:103CB00080819181840F951F0296D90111969C9362
:103CC0008E938281938113969C938E931297E0E05A
:103CD000F0E08A819B81009719F0FE01EC01F9CF99
:103CE000CE01029628813981820F931F20915E03B5
:103CF00030915F032817390769F4309729F410923F
:103D000061031092600302C013821282D0935F039A
:103D1000C0935E03DF91CF9108958F929F92AF92EF
:103D2000BF92CF92DF92EF92FF92CF93DF93EC019D
:103D3000688179818A819B81611571058105910571
:103D400021F464E279ED8BE597E02DE133EF41E07A
:103D500050E00E94201D49015A019B01AC01A7EAD5
:103D6000B1E40E944C1D6B017C01ACEEB4EFA501E7
:103D700094010E94171FC60ED71EE81EF91EF7FEFB
:103D800006C081E0C81AD108E10880E8F80AC882B4
:103D9000D982EA82FB82C701B6019F77DF91CF917A
:103DA000FF90EF90DF90CF90BF90AF909F908F905B
:103DB00008950E948D1E089586E091E00E948D1E58
:103DC0000895609306017093070180930801909312
:103DD00009010895FB01DC0104C08D910190801957
:103DE00021F441505040C8F7881B990B0895FB01FE
:103DF000DC0101900D920020E1F70895F999FECFC2
:103E000092BD81BDF89A992780B50895262FF9991A
:103E1000FECF1FBA92BD81BD20BD0FB6F894FA9AAD
:103E2000F99A0FBE01960895B7FF0C944C1D0E949D
:0C3E30004C1D821B930B0895F894FFCFEB
:103E3C00000062038000010000000004FFFFFFFF90
:103E4C0000E100000000000000C18081000000467D
:103E5C0061696C656420746F20636F6E6669677549
:103E6C0072652045746865726E6574207573696E31
:103E7C00672044484350004D7920495020616464C8
:103E8C00726573733A20002E00426F6F74206E754A
:103E9C006D6265723A200057495A6E6574000000D5
:103EAC000000DC0B050C1F0C2A0C480C6B0CED0CE9
:103EBC006F0C440C500D910DF20BFA0BD20B000051
:103ECC000000EA0D330EE60D470E8D0E000EF70EB8
:103EDC00120E270E3F0F2F0EA60E700ECB0DD20D0D
:103EEC00E20D000000007615BD15A015B0158C155F
:103EFC009D150000000099160D0A006E616E006998
:083F0C006E66006F766600008E
:00000001FF
