:100000000C948B010C94B3010C94B3010C94B301C8
:100010000C94B3010C94B3010C94B3010C94B30190
:100020000C94B3010C94B3010C9495260C942725E1
:100030000C94B3010C94B3010C94B3010C94B30170
:100040000C94B3010C94B3010C94B3010C94B30160
:100050000C94B3010C94B3010C94B3010C943F1DA8
:100060000C94B3010C94B3010C94B3010C94B30140
:100070000C94B3010C94B3010C94B3010C94B30130
:100080000C94B3010C94B3010C94B3010C94B30120
:100090000C94E7070C94B3010C94B3010C94B301D6
:1000A0000C94B3010C94B3010C94B3016B1E6E1E3F
:1000B0005D1E611E671E8F1E8F1E8F1E721E761E96
:1000C0007A1E801E841E8F1E8A1E446576696365B3
:1000D000206973206E6F7420612044533138783268
:1000E000302066616D696C79206465766963652E80
:1000F00000005EBCE2613FDD83C29C7E20A3FD1F49
:10010000419DC3217FFCA2401E5F01E3BD3E608292
:10011000DC237D9FC1421CFEA0E1BF5D0380DE3C6D
:1001200062BEE0025CDF81633D7C22C09E1D43A174
:10013000FF4618FAA427799BC584DA3866E5BB59CF
:1001400007DB856739BAE406581947A5FB7826C44A
:100150009A653BD987045AB8E6A7F91B45C6987A31
:1001600024F8A6441A99C7257B3A6486D85B05E72C
:10017000B98CD2306EEDB3510F4E10F2AC2F71939B
:10018000CD114FADF3702ECC92D38D6F31B2EC0EFA
:1001900050AFF1134DCE90722C6D33D18F0C52B005
:1001A000EE326C8ED0530DEFB1F0AE4C1291CF2DDC
:1001B00073CA947628ABF517490856B4EA6937D55F
:1001C0008B5709EBB536688AD495CB2977F4AA48C2
:1001D00016E9B7550B88D6346A2B7597C94A14F6B9
:1001E000A8742AC896154BA9F7B6E80A54D7896BA4
:1001F000350000000200090F0000030401000C009C
:1002000000000000000000000000000000000000EE
:100210000408020110408040102040804080080205
:100220000401804020100201108010204040200472
:10023000040404040304050202020204030202028D
:100240000206060606060604040202020404000072
:1002500000002300260029002C002F0000000000D1
:10026000250028002B002E00310000000000240093
:1002700027002A002D003000080B000202020100B6
:1002800009040000010202000005240010010524F9
:10029000010101042402060524060001070581036B
:1002A00010004009040100020A00000007050202D4
:1002B0004000000705830240000012010002EF0227
:1002C00001404123368000010102030112010002B6
:1002D0000000004041233680000101020301417209
:1002E0006475696E6F204C4C430041726475696E91
:1002F0006F204C656F6E6172646F00040309040027
:10030000AC03FD0693096A0F411332153D151A1708
:10031000251705208D2011241FBECFEFDAE0DEBFA8
:10032000CDBF12E0A0E0B1E0E0EAF8E502C0059040
:100330000D92A630B107D9F724E0A6E0B2E001C0E3
:100340001D92A837B207E1F713E0C6E1D3E004C07D
:100350002297FE010E94732AC030D107C9F70E947C
:100360009D200C944E2C0C9400001F93CF93DF9390
:10037000FC01648D758D868D978D24E630E040E01C
:1003800050E00E94302A672B682B692B49F484E6E1
:1003900090E00E94302C61E0680F84E690E00BC092
:1003A000C4E6D0E010E0CE010E94302C811740F46A
:1003B00061E0680FCE01DF91CF911F910C94382C32
:1003C0002196C83CD10511F0182FEDCFDF91CF91C8
:1003D0001F910895CF92DF92EF92FF920F931F9398
:1003E000CF93DF93EC01198A188A80E190E09B8B10
:1003F0008A8B83E690E09D8B8C8B0E94302C8F3F04
:10040000B9F404E610E060E0C8010E94382C0F5FE8
:100410001F4F083C1105B9F70C891D89C8010E94BE
:10042000302C8823E9F060E0C8010E94382C18C005
:10043000C12CD12C760104E610E0C8010E94302CBA
:10044000C80ED11CE11CF11C0F5F1F4F083C1105A9
:10045000A1F7CC8EDD8EEE8EFF8ECE010E94B5010F
:10046000C888D9887E0100E110E0CC1ADD0AC601F7
:100470008E0D9F1D0E94302CF70181937F0101504A
:100480001109A9F705E010E08A899B89800F911F67
:100490000E94302CFE01E00FF11F868B01501109E4
:1004A00099F7DF91CF911F910F91FF90EF90DF901F
:1004B000CF900895BF92CF92DF92EF92FF920F9369
:1004C0001F93CF93DF93CDB7DEB7C554D1090FB6D5
:1004D000F894DEBF0FBECDBF8C010E94951DD801E0
:1004E0005396CD90DD90ED90FC9056976C197D0958
:1004F0008E099F09CD90DD90ED90FC90C616D70631
:10050000E806F90608F012C17801B7E0EB0EF11C1D
:10051000D8011596ED91FC9116978EE0DE019B9621
:1005200001900D928A95E1F741E0BE016F5F7F4F28
:10053000CE018B960E94961C882379F0FE0131969D
:10054000D701CE01099621912D93E817F907D9F724
:1005500067E0CE0101960E94331DF8018481058079
:10056000F681E02D9EE0DE015D9601900D929A9558
:10057000E1F78C3031F08B3031F08A3031F02FE1FF
:1005800005C02FE703C02FE501C02FE3CE014D9634
:1005900026962FAF26970E943E1BB701CE014D969F
:1005A0000E94391C40E06EE4CE014D960E94DB1B98
:1005B00040E060E0CE014D960E94DB1B40E060E031
:1005C000CE014D960E94DB1B40E026962FAD26976C
:1005D000622FCE014D960E94DB1B40E068E4CE0105
:1005E0004D960E94DB1BD8011596ED91FC91169754
:1005F0008EE0DE011F9601900D928A95E1F7CE0103
:100600000F960E943E1BB701CE010F960E94391C27
:1006100041E064E4CE010F960E94DB1BD8011596E1
:10062000ED91FC9116978EE0DE01119601900D92EE
:100630008A95E1F7F8018781823271F0883261F0A2
:10064000803119F4BB24B39408C06AEC70E086E0F2
:1006500094E00E94F82001C0B12CCE0101960E94C6
:100660003E1BB701CE0101960E94391C40E06EEBA3
:10067000CE0101960E94DB1B7E01F9E3EF0EF11C17
:10068000670189E0C80ED11CCE0101960E941D1C95
:10069000D7018D937D01AC15BD05B1F76AAD70E052
:1006A000762F662789AD682BBB2041F133E0660FBA
:1006B000771F3A95E1F721968FAD2197803151F45C
:1006C000CB01807F2FAD6CE070E0621B7109680F79
:1006D000791F14C08DAD807631F423E0660F771F4B
:1006E0002A95E1F70BC0803229F4660F771F660F59
:1006F000771F04C0803411F4660F771F80E090E00C
:100700000E94132920E030E040E85DE30E94C929FF
:10071000F8016787708B818B928B0E94951DD801A1
:1007200053966D937D938D939C935697F8016785AF
:10073000708981899289CB5BDF4F0FB6F894DEBF59
:100740000FBECDBFDF91CF911F910F91FF90EF9022
:10075000DF90CF90BF9008950F93CF93DF9300E089
:1007600020E040E060E081EF92E00E94662081EDB1
:1007700092E00E94EA0183E290E09093CE0280939F
:10078000CD0280E894E8AEE1B0E08093B6029093A9
:10079000B702A093B802B093B9028AE08093BA027C
:1007A0001092C5021092C6021092C7021092C8029F
:1007B0001092C9021092CA021092CB021092CC027F
:1007C0008EE090E00E94B020EC0167E00E94731C74
:1007D000D093BC02C093BB0283E192E00E944A1412
:1007E00089E395E0909321028093200280EC80932E
:1007F000220288EA8093230281E08093240285E329
:100800008093250210928A0210928B028CE892E06B
:100810000E94A71687EA92E00E944A1480EE9BEAA3
:100820009093B5028093B40286E092E0DF91CF917D
:100830000F910C944A14CF92DF92EF92FF920F9394
:100840001F93CF93DF9300D000D000D0CDB7DEB799
:100850007C018B0161E08BE00E94901E60E08BE0E8
:100860000E94C91E6AE070E080E090E00E94B81D1E
:1008700061E08BE00E94C91E68EC70E080E090E0CF
:100880000E94B81DB80184EC93E00E943412892BB9
:1008900041F46FE171E086E094E00E940A2180E07B
:1008A00046C067E471E086E094E00E94EB208E0190
:1008B0000D5F1F4F6E0187E0C80ED11C64EC73E022
:1008C000CE0101960E941E13F80161918F014AE04A
:1008D00050E086E094E00E94DA2167E571E086E06E
:1008E00094E00E94EB200C151D0541F786E094E092
:1008F0000E94F42043E064E089E190E00E9429191D
:1009000048EE64E08AE190E00E94291943E064E047
:100910008BE190E00E942919F701EF55FF4F6081AC
:100920007181C70187589F4F0E94741681E02696F7
:100930000FB6F894DEBF0FBECDBFDF91CF911F91F0
:100940000F91FF90EF90DF90CF90089540E855E22F
:1009500060E070E086E094E00E94F01F87EF92E094
:100960000E946D0686E094E00E94F61F8823D1F372
:1009700069E571E086E094E00E94EB204091ED0291
:100980005091EE026091EF027091F0022AE030E0A7
:1009900086E094E00E94E72167EE72E083E192E056
:1009A0000C941B04AF92BF92CF92DF92EF92FF9212
:1009B0000F931F93CF93DF93CDB7DEB762970FB638
:1009C000F894DEBF0FBECDBF6C0184EC93E00E94B3
:1009D000C112860107581F4FC8010E9423160697AF
:1009E00009F0CFC0F601E857FF4F4281538164817F
:1009F00075814F87588B698B7A8B67E671E086E04B
:100A000094E00E940A21D801ED91FC91008CF18DB7
:100A1000E02D46E050E0BE01695F7F4FC8010995B7
:100A20008F81833709F09FC08A85823709F09BC088
:100A3000055E1F4FC8010E940E15882319F0C801DA
:100A40000E94CD14F6014585568585EF91E09A8385
:100A500089838F859889A989BA898B839C83AD8383
:100A6000BE83BE016F5F7F4FC8010E946A14609110
:100A7000CD027091CE0287EF92E00E948106E09154
:100A8000F702F091F8020190F081E02D60E187EF2C
:100A900092E0099587EF92E00E94FA06C090CD029D
:100AA000D090CE02B60187EF92E00E94810642E02C
:100AB00050E0B60187EF92E00E94F7066FECA62E99
:100AC00062E0B62EC12CD12C87EF92E00E94D605B1
:100AD000892B59F087EF92E00E94DE05D5018D93B6
:100AE0005D01BFEFCB1ADB0AEFCF87EF92E00E94E8
:100AF000FA06E2E0CE16D104B9F46091CF0270E0BC
:100B0000762F66278091D002682B882777FD809505
:100B1000982F0E9415292AE939E949E95FE30E94E3
:100B20007A280E94E7287B014AE050E0B701C8011B
:100B30000E94E12186EB92E00E945A02AB01BC01C7
:100B400022E030E0C8010E94E42262E771E086E022
:100B500094E00E940A21BE01695F7F4F86E094E025
:100B60000E940A210EC06CE771E086E094E00E94CA
:100B70000A214AE050E066E070E086E094E00E94DE
:100B8000B52162960FB6F894DEBF0FBECDBFDF91E0
:100B9000CF911F910F91FF90EF90DF90CF90BF907A
:100BA000AF90089583E192E00C94D20480912703E2
:100BB00090E020912803821B910908952091280339
:100BC00080912703281750F4E22FF0E0E75DFC4FF7
:100BD000808190E02F5F2093280308958FEF9FEF8F
:100BE0000895E091280380912703E81730F4F0E09E
:100BF000E75DFC4F808190E008958FEF9FEF0895AF
:100C00000895CF92DF92EF92FF920F931F93CF93AD
:100C1000DF937C01CB018A0120910303222389F019
:100C2000EB016B01C40ED51ECC15DD0569F0699191
:100C3000D701ED91FC910190F081E02DC70109955C
:100C4000F3CF642F0E94BE07C801DF91CF911F919F
:100C50000F91FF90EF90DF90CF900895CF93DF93A7
:100C60001F92CDB7DEB76983209103032223D1F011
:100C700020910403203240F021E030E0FC01338376
:100C8000228380E090E015C080910503E82FF0E01A
:100C9000EA5FFC4F998190838F5F80930503809377
:100CA000040305C061E0CE0101960E94BE0781E009
:100CB00090E00F90DF91CF910895FC011382128292
:100CC00048EE53E060E070E04483558366837783A9
:100CD0008AE891E09183808308951092280310920E
:100CE000270310920503109204030C94010781E07E
:100CF000809303036093260310920503109204036C
:100D000008950C9477060F93062F21E04091040379
:100D100066E073E0809126030E9467071092050346
:100D200010920403109203030F9108958F929F92E3
:100D3000AF92BF92CF92DF92EF92FF920F931F93E9
:100D4000CF93DF93EC01F62ED42E48015901EE200B
:100D500019F10E9477061E2D143008F013E011508F
:100D6000B8F0E881F98128E0129FB0011124A501B3
:100D7000940104C056954795379527956A95D2F703
:100D8000CA01B9010190F081E02DCE010995E7CFAC
:100D900060E0CE010E9483064D2D413208F040E212
:100DA0002C2D69E273E08F2D0E941F0710922803FB
:100DB00080932703DF91CF911F910F91FF90EF90C8
:100DC000DF90CF90BF90AF909F908F900895CF927B
:100DD000EF920F931F93C22EE12C00E010E09801D8
:100DE0000E9496061F910F91EF90CF90089521E0F9
:100DF0000C94E70661E00C94830687EF92E00C9474
:100E00005D061092B60381E08093B4031092B303A1
:100E100061E082E00E94C91E61E083E00E94C91E79
:100E2000E9EBF0E080818E7F808380818D7F8083FD
:100E300088E48093B80085E48093BC000895413233
:100E400008F043C09091B6039111FCCF91E09093CC
:100E5000B6032093B4032FEF2093490310928E031F
:100E6000240F20938D039093B5039091B503880FC1
:100E7000892B8093B5038091B303813061F4109284
:100E8000B3038091B5038093BB008091BC0083FDC8
:100E9000F8CF85EC01C085EE8093BC008091B6034D
:100EA0008130E1F380918E03841710F440918E031A
:100EB0002FE833E0FB01D9018A2F821B841718F435
:100EC0008D918193F9CF842F089580E008950F9339
:100ED000413208F04AC09091B6039111FCCF92E0E4
:100EE0009093B6030093B4039FEF9093490310923D
:100EF0008E0340938D03FB016FE873E0DB019A2FB3
:100F0000961B941718F491919D93F9CF1092B50305
:100F10009091B503880F892B8093B5038091B3031B
:100F2000813061F41092B3038091B5038093BB00CC
:100F30008091BC0083FDF8CF85EC01C085EE8093E5
:100F4000BC00222321F08091B6038230E1F380912E
:100F500049038F3F61F080914903803251F08091C5
:100F60004903803341F483E007C081E005C080E09D
:100F700003C082E001C084E00F910895613298F4CB
:100F80002091B603243089F460936B03FC018DE655
:100F900093E0DC012A2F281B261718F421912D93AA
:100FA000F9CF80E0089581E0089582E0089585ED0D
:100FB0008093BC008091BC0084FDFCCF1092B603EE
:100FC000089585EC8093BC001092B60308951F929B
:100FD0000F920FB60F9211242F933F934F935F936D
:100FE0006F937F938F939F93AF93BF93EF93FF93F1
:100FF0008091B900887F803609F49EC078F58832E8
:1010000009F45DC090F4803109F456C038F48823A7
:1010100009F4F5C0883009F44FC0F5C0883109F4EF
:101020004EC0803209F45FC0EEC0803409F46AC05B
:1010300058F4803309F457C0883309F0E4C0809332
:1010400049030E94E107DFC0803509F44FC08835AD
:1010500009F45DC0883409F0D6C0D3C0883909F4DA
:10106000C4C0A8F4883709F467C038F4883609F496
:1010700063C0803709F460C0C6C0883809F4B5C0C1
:10108000803909F45FC0803809F0BDC05BC0803B87
:1010900009F483C038F4803A09F466C0883A09F448
:1010A0007CC0B1C0803C09F4A4C0883C09F4A1C054
:1010B000883B09F487C0A7C08091B50310C0909108
:1010C0008E0380918D03981770F5E0918E0381E077
:1010D0008E0F80938E03F0E0E157FC4F8081809368
:1010E000BB0085EC83C0809349038BC0E0918E03E5
:1010F00081E08E0F80938E038091BB00F0E0E1577A
:10110000FC4F808390918E0380918D036BC0E091A2
:101110008E0381E08E0F80938E038091BB00F0E000
:10112000E157FC4F80838091B40381116AC081E054
:101130008093B30384EA5EC083E08093B603109289
:101140004A03CFCF80914A03803208F04EC0E0912D
:101150004A0381E08E0F80934A038091BB00F0E048
:10116000E55BFC4F8083BDCF0E94E10780914A037D
:10117000803230F4E0914A03F0E0E55BFC4F1082EE
:1011800060914A0370E0E091AF03F091B0038BE40B
:1011900093E0099510924A0336C084E08093B60329
:1011A00010926C0310926B03E091B103F091B203C3
:1011B000099580916B03811105C081E080936B03D9
:1011C00010926D03E0916C0381E08E0F80936C03AD
:1011D000F0E0E359FC4F80818093BB0090916C0359
:1011E00080916B03981708F47CCF85E88093BC004E
:1011F0000AC085EC8093BC001092B60304C0109224
:1012000049030E94D707FF91EF91BF91AF919F9142
:101210008F917F916F915F914F913F912F910F909F
:101220000FBE0F901F901895CF93CFB7F894809171
:10123000B703811127C0E0E4F2E08491E1E2F2E03B
:101240009491E82FF0E0EE0FFF1FE659FD4FA591B6
:10125000B4918C91892321F461E081E10E94C91E3F
:1012600061E081E10E94901E8CB580618CBD8CB5DF
:1012700080648CBD61E08FE00E94901E61E080E19F
:101280000E94901E8091B7038F5F8093B703CFBFFA
:10129000CF9108950E9624E1FC0111922A95E9F769
:1012A0000895CF93DF93EC01625F7F4F0E9472201D
:1012B000CE01DF91CF910895CF93DF93EC016E5E65
:1012C0007F4F0E947220CE01DF91CF910895CF937E
:1012D000DF93EC016A5E7F4F0E947220CE01DF91A6
:1012E000CF910895CF93DF93EC01625E7F4F0E9410
:1012F0007220CE01DF91CF91089580E3FB018083BE
:101300003296842F82958F7090E1899F4019112425
:101310004A3014F4405D01C0495C4293882311F0C7
:10132000482FEFCF08950F9300E020E040E060E009
:1013300088EB93E00E9466200F9108956F927F9250
:101340008F929F92AF92BF92CF92DF92EF92FF92D5
:101350000F931F93CF93DF93CDB7DEB7AC970FB644
:10136000F894DEBF0FBECDBF7C01862EB42EA52E15
:1013700020E2922ECE0101966C01FC01292D1192E2
:101380002A95E9F70FEF2FEF4FEF6FEF86960E9448
:10139000662085EF91E09AA389A389A59AA5ABA5BC
:1013A000BCA58BA39CA3ADA3BEA38701095B1F4F64
:1013B00043E450E0BE016F5D7F4FC8010E94A41559
:1013C000019609F4BFC081E089838A8386E0782E84
:1013D0007B821C82F70164817581868197810E94DE
:1013E000772A6D837E838F839887A986BA8680E863
:1013F00090E09C878B874CE150E0B601C8010E94C9
:10140000B015F601292D11922A95E9F7570188E0C8
:10141000A80EB11CF501D60101900D927A94E1F766
:1014200040E150E0B601C8010E94B015F6011192EA
:101430009A94E9F796E0692E712C40E250E0B601EB
:10144000C8010E94B015F1E06F1A7108B1F783E688
:10145000898392E89A8393E59B838C8385E38D83CC
:1014600081E08E838F829DE3988797E099878A87B2
:1014700086E0F501DE011B9601900D928A95E1F759
:101480008CE0898B8A8B66E971E0CE0143960E94DD
:10149000292CF7014385BE01675E7F4FC7010E947B
:1014A0007D09F7014485BE01655E7F4FC7010E943B
:1014B0007D09F7014585BE01635E7F4FC7010E942C
:1014C0007D094EE150E0B601C8010E94B015F3E07D
:1014D0008F121EC082E3898384E08A83F701968598
:1014E0009B8397859C8390899D8391899E8396E3B6
:1014F0009F838887828D8987838D8A87848D8B8758
:10150000858D8C874CE050E0B601C8010E94B01573
:1015100087E3898386E08A8391E09B8393E09C83C1
:101520008D838FE08E838AE38F838BE388878FEFB1
:10153000898749E050E0B601C8010E94B015C80192
:101540000E94AC15AC960FB6F894DEBF0FBECDBFAF
:10155000DF91CF911F910F91FF90EF90DF90CF908F
:10156000BF90AF909F908F907F906F9008952F9233
:101570003F924F925F926F927F928F929F92AF9223
:10158000BF92CF92DF92EF92FF920F931F93CF9370
:10159000DF93CDB7DEB7E3970FB6F894DEBF0FBE8B
:1015A000CDBF7C012A013B0169010E94891D4B01CD
:1015B0005C018701095B1F4FC8010E9423161816A2
:1015C000190694F00E94891D681979098A099B09F6
:1015D0004616570668067906F0F062E370E080E090
:1015E00090E00E94B81DE8CF42E250E0BE016F5F7C
:1015F0007F4FC8010E94ED158981823031F4F801D6
:10160000858996898334910541F019A6C8010E9405
:101610007D1589A566C18FEF64C16D817E818F8143
:1016200098850E94772A4B015C01F60160837183E3
:101630008283938346E050E0B701685F7F4FCE011D
:101640004D960E941C2C892B99F4F7018081918181
:10165000A281B38188169906AA06BB0648F0848148
:101660009581A681B78188159905AA05BB0528F43F
:10167000C8010E947D1580E034C189899A89AB89AF
:10168000BC89F70186879787A08BB18B3EECC32E70
:10169000D12CC8010E94C415F1E0CF1AD108C9F7B6
:1016A00019A6C70182969BA78AA7F701B696FDA740
:1016B000ECA708969FA78EA73C976F018E9699ABD3
:1016C00088AB3897FBABEAAB5701F6E1AF0EB11C24
:1016D00047018EE1880E911CC8010E9463151816FF
:1016E00019060CF093CFC8010E94C41583339105ED
:1016F00009F4CDC0F4F481309105B9F11CF4892BC3
:1017000059F3DFC083309105C1F1069709F0D9C0C4
:10171000C8010E94C4153C0144E050E0B401C80176
:101720000E94ED15212C312C7724F4E06F1A7108FA
:101730003FC08A33910509F47EC03CF4853391059E
:1017400061F0C69709F43FC0BCC08B33910509F422
:1017500088C08F3F910501F2B4C0C8010E94C41532
:10176000C8010E94C41589A7B7CFC8010E94C4153B
:1017700044E050E06AA97BA93AC0C8010E94C415A0
:101780003C0144E050E0B501C8010E94ED15212C58
:10179000312C772494E0691A7108261437040CF070
:1017A0009BCFC8010E94C415EFEF2E1A3E0AF5CF59
:1017B000261437040CF090CFC8010E94C4158FEF97
:1017C000281A380AF5CFC8010E94C415782EF701EF
:1017D000828D811110C0838D81110DC0848D811186
:1017E0000AC0858D811107C044E050E0B601C801F0
:1017F0000E94ED1571CFE8A9F9A9208031804280BF
:101800005380B601CE0183960E9472208DA19EA1C5
:10181000AFA1B8A582159305A405B50529F3212C20
:10182000312C721409F458CFC8010E94C415FFEF7F
:101830002F1A3F0AF6CFC8010E94C41544E050E0B9
:101840006CA57DA5C8010E94ED15F70166A177A1E1
:1018500080A591A50E94772A66A377A380A791A768
:101860003BCFC8010E94C41544E050E06EA57FA59F
:10187000C8010E94ED15F70162A573A584A595A581
:101880000E94772A62A773A784A795A725CFC801CE
:101890000E94C41544E050E06AA57BA5C8010E94DF
:1018A000ED15F70162A173A184A195A10E94772A89
:1018B00062A373A384A395A366A777A780AB91AB1C
:1018C0000BCFC8010E94C415382E612C712C361420
:1018D00009F402CFC8010E94C415FFEF6F1A7F0AF6
:1018E000F6CFE3960FB6F894DEBF0FBECDBFDF9103
:1018F000CF911F910F91FF90EF90DF90CF90BF900D
:10190000AF909F908F907F906F905F904F903F909F
:101910002F9008952F923F924F925F926F927F92F5
:101920008F929F92AF92BF92CF92DF92EF92FF92EF
:101930000F931F93CF93DF93CDB7DEB727970FB6E3
:10194000F894DEBF0FBECDBF8C0120ED37E040E044
:1019500050E061E070E080E090E00E945927D801FB
:1019600014966D937D938D939C931797F8016083E4
:101970007183828393834801F7E48F0E911CC40125
:101980000E948F1564E470E0C4010E9474168823DD
:1019900009F428C10E94891D6B017C01A12CB12C86
:1019A0001D82180186E4280E311CD801DE96BF8303
:1019B000AE8338EE432E33E0532E612C712CF101AF
:1019C0008081833009F4FDC081111FC0F80184813A
:1019D0009581A681B7810196A11DB11D8483958350
:1019E000A683B7830E94891D6C197D098E099F0902
:1019F000A30192010E94302AA90161E0C8010E945E
:101A00009E0981E0D1018C93BEC08430F9F4F801C5
:101A100084819581A681B7810196A11DB11D848322
:101A20009583A683B7830E94891D6C197D098E0951
:101A30009F09A30192010E94302AA90163E0C80115
:101A40000E949E09E2E0D101EC939DC0813061F5D6
:101A5000AE81BF814D915D916D917C919E012F5F13
:101A60003F4FC8010E94B70A8D83823009F08BC0B6
:101A700089819A81AB81BC81F80184839583A68397
:101A8000B7830E94891D6C197D098E099F09A301E6
:101A900092010E94302AA90163E0C8010E949E09B8
:101AA000ED81D101EC9375C0823009F06CC0AE813C
:101AB000BF814D915D916D917C919E012F5F3F4F54
:101AC000C8010E94B70A8D83853009F056C083E0B3
:101AD000F1018083F80182A193A1A4A1B5A1892B72
:101AE0008A2B8B2B41F484E893E0A0E0B0E082A342
:101AF00093A3A4A3B5A3F80186A197A1A0A5B1A51E
:101B0000892B8A2B8B2B61F482A193A1A4A1B5A16F
:101B1000B695A7959795879586A397A3A0A7B1A7F4
:101B2000D8019A964D915D916D917C919D97969675
:101B30008D919D910D90BC91A02D452B462B472B4F
:101B400059F4AC01BD01440F551F661F771FF80102
:101B500042A753A764A775A7F80186A797A7A0ABCC
:101B6000B1AB82A593A5A4A5B5A582AB93ABA4AB5D
:101B7000B5ABAA24A394B12C0CC0FD81F63019F4A6
:101B8000D1011C9206C0BD81BF3F19F4F101108242
:101B90001D82F1E0AF16B10409F411CF0E94891D36
:101BA0006C197D098E099F09D801DA962D913D9116
:101BB0004D915C91DD97261737074807590708F0C4
:101BC000FECEC4010E948F15F80184819581A68103
:101BD000B7810196A11DB11D84839583A683B78328
:101BE000C50102C080E090E027960FB6F894DEBFF2
:101BF0000FBECDBFDF91CF911F910F91FF90EF905E
:101C0000DF90CF90BF90AF909F908F907F906F901C
:101C10005F904F903F902F900895CF92DF92EF9278
:101C2000FF920F931F93CF93DF93EC016B011AA2E6
:101C30001BA21CA21DA21EA21FA218A619A61AA6AC
:101C40001BA61CA61DA61EAA1FAA18AE19AE2AAF57
:101C50003BAF4CAF5DAFFC01FE96E082F1820283A8
:101C600013838C01085F1F4F86E0F80111928A955B
:101C7000E9F7CE010E944A0986E0F601D8010190F9
:101C80000D928A95E1F7FE01EA5BFF4F1082CE01CB
:101C9000DF91CF911F910F91FF90EF90DF90CF9048
:101CA0000C948A0C8F929F92AF92BF92CF92DF9248
:101CB000EF92FF920F931F93CF93DF93EC010E945B
:101CC000891D6B017C018EA99FA9A8ADB9AD8E01BC
:101CD0000E5B1F4F892B8A2B8B2B09F48FC0F801C9
:101CE00080819181A281B381A7019601281B390BC4
:101CF0004A0B5B0BCA01B90157FD4EC046015701A3
:101D000038EE830E33E0931EA11CB11C28EE33E0A5
:101D100040E050E00E94522A861A970AA80AB90A9F
:101D2000F80180829182A282B382DA01C901019610
:101D3000A11DB11D4EA55FA568A979A98C019D01C2
:101D4000000F111F221F331F40175107620773072F
:101D50002CF41EA61FA618AA19AA08C0481B590BC6
:101D60006A0B7B0B4EA75FA768AB79AB4AA95BA94F
:101D70006CA97DA940175107620773072CF41AAAB2
:101D80001BAA1CAA1DAA08C0481B590B6A0B7B0B77
:101D90004AAB5BAB6CAB7DAB8E010A5B1F4FF801AE
:101DA0008081833081F48EA59FA5A8A9B9A91816B2
:101DB00019061A061B063CF084E08083CE010E94BF
:101DC0008A0C019602C080E090E0F8012081233067
:101DD00011F0211120C04AA95BA96CA97DA9141694
:101DE000150616061706BCF0F8011082CE010E94F7
:101DF0004A09CE010E948A0C03960DC0D701C60184
:101E000088519C4FAF4FBF4FF80180839183A283CD
:101E1000B38380E090E0CEAADFAAE8AEF9AEDF910E
:101E2000CF911F910F91FF90EF90DF90CF90BF90D7
:101E3000AF909F908F900895FB0142815381648100
:101E40007581FC01428353836483758317821682F4
:101E50000895CF93FB0181918111FDCFFB0180E0BB
:101E600090E020E030E0CAE06191662309F124307F
:101E7000310564F56E3271F48F3F910509F034F548
:101E8000DA01A20FB31F12968C932F5F3F4F80E0B1
:101E900090E0EACFDC01CA9FC001CB9F900D1124D6
:101EA000772767FD709560537109860F971FDCCF08
:101EB0008F3F910509F054F4243031053CF4FA01C8
:101EC000E20FF31F828381E090E002C080E090E0A7
:101ED000CF9108950F9300E020E040E060E08EEBAA
:101EE00093E00E9466200F910895AF92BF92CF9227
:101EF000DF92EF92FF920F931F93CF93DF9300D067
:101F00001F92CDB7DEB76C017B010E94891DF601DF
:101F1000778366838601085F1F4FB6016A5F7F4F34
:101F200042E050E0C8010E94B01581E090E09A8341
:101F3000898342E050E0BE016F5F7F4FC8010E947D
:101F4000B01580E091E09A83898342E050E0BE01C1
:101F50006F5F7F4FC8010E94B0151A82198242E05C
:101F600050E0BE016F5F7F4FC8010E94B01542E094
:101F700050E0BE016F5F7F4FC8010E94B01542E084
:101F800050E0BE016F5F7F4FC8010E94B01567012E
:101F9000F6018081882311F1F7016F018191811190
:101FA00015C05601AE18BF081A141B0494F4AB8276
:101FB00041E050E0BE016D5F7F4FC8010E94B01547
:101FC000A501B701C8010E94B01503C08E3229F7E0
:101FD000E8CF7601FFEFEF1AFF0ADACF1B8241E06C
:101FE00050E0BE016D5F7F4FC8010E94B015E12C2B
:101FF000FF24F394FA82E98242E050E0BE016F5F71
:102000007F4FC8010E94B015FA82E98242E050E099
:10201000BE016F5F7F4FC8010E94B01581E090E064
:102020000F900F900F90DF91CF911F910F91FF9024
:10203000EF90DF90CF90BF90AF9008954F925F9256
:102040006F927F928F929F92AF92BF92CF92DF92C8
:10205000EF92FF920F931F93CF93DF93CDB7DEB72D
:1020600063970FB6F894DEBF0FBECDBF7C015B0156
:102070006A010E94891D2B013C018701085F1F4FE7
:102080004501A12CB12CC8010E942316181619066F
:1020900094F00E94891D64197509860997098616AE
:1020A0009706A806B906D0F062E370E080E090E001
:1020B0000E94B81DE8CFF701428153816481758188
:1020C000818D928DA38DB48D481759076A077B07C0
:1020D00041F4858D968DC59721F406C08FEF9FEF53
:1020E000F9C08EEF9FEFF6C0C8010E9463150C97F0
:1020F0000CF4EEC04CE050E0BE016F5F7F4FC801B2
:102100000E94ED158B819C819827892798279A8BAF
:10211000898BF7014681578129813A8142175307FC
:1021200011F497FD06C0C8010E947D158CEF9FEF4A
:10213000D1C08F709270892B31F0C8010E947D153B
:102140008BEF9FEFC7C0AF80B884BA24AB24BA240A
:10215000A114B10419F0E12CF12C23C0C8010E9494
:102160007D158AEF9FEFB6C041E050E0BE01635F8E
:102170007F4FC8010E94ED158D8581111BC08D8593
:102180008111F2CFC8010E94C415C8010E94C41574
:10219000C8010E94C415C8010E94C415FFEFEF1AC0
:1021A000FF0A8D819E81982789279827E816F906CE
:1021B000D8F20AC08D859FEF980F9D878823F9F28A
:1021C000C8010E94C415F6CFE12CF12C41E050E08B
:1021D000BE016D5E7F4FC8010E94ED158B89982F5F
:1021E000907C61F4882371F08B899FEF980F9B8B13
:1021F000882341F0C8010E94C415F6CFC8010E948F
:10220000C4151B8A8B898111E1CF42E050E0BE01E9
:10221000615F7F4FC8010E94ED1542E050E0BE01B2
:10222000635F7F4FC8010E94ED15C8010E94C4156D
:10223000C8010E94C415C8010E94C415C8010E94AB
:10224000C41542E050E0BE016F5E7F4FC8010E949E
:10225000ED158F8598898115914029F48D859E858E
:102260008115914019F0812C912C16C089899A8989
:102270008115944031F0C8010E947D1587EF9FEFD2
:1022800029C0B6016E5F7F4F44E050E0C8010E9454
:10229000ED1581E090E01EC089899A8998278927E9
:1022A00098278816990638F4C8010E94C4152FEFA4
:1022B000821A920AF1CF8FEFE81AF80AEA14FB04A7
:1022C00009F084CFC8010E947D1586EF9FEF02C000
:1022D0008DEF9FEF63960FB6F894DEBF0FBECDBFB4
:1022E000DF91CF911F910F91FF90EF90DF90CF90F2
:1022F000BF90AF909F908F907F906F905F904F9026
:1023000008958F929F92AF92BF92CF92DF92EF92F9
:10231000FF920F931F93CF93DF9300D000D000D094
:10232000CDB7DEB78C015B016A010E94290F4C0119
:10233000009709F05DC0F801428153816481758185
:102340008091C0039091C103A091C203B091C303D7
:10235000481759076A077B0709F44EC00E94891D78
:102360007801F8E0EF0EF11C6F7077277C5FC701F2
:102370000E947416813009F043C085EF91E09A8382
:102380008983F80182819381A481B5818B839C83A9
:10239000AD83BE8345E350E0BE016F5F7F4FC70151
:1023A0000E94A415892B19F4812C912C1DC0B50114
:1023B000C8010E94750F892BB9F3C7010E94AC15A3
:1023C000892B91F333E0A32EB12CA60168E873E1C9
:1023D000C8010E941E104C01F1E0AF1AB10821F0B3
:1023E0008F3F2FEF920789F3C7010E948F1508C016
:1023F00088248394912C04C09EEF892E99249A946A
:10240000C40126960FB6F894DEBF0FBECDBFDF9194
:10241000CF911F910F91FF90EF90DF90CF90BF90E1
:10242000AF909F908F90089524E030E0AC0164E07D
:1024300081E090E00C94721924E030E0AC0164E09B
:1024400085E090E00C94721926E030E0AC0164E085
:1024500089E090E00C94721924E030E0AC0164E073
:102460008FE090E00C947219AF92BF92CF92DF92FE
:10247000EF92FF920F931F93CF93DF9300D000D082
:1024800000D0CDB7DEB76C015B0182E690E00E9420
:10249000B0208C0182E6F80111928A95E9F7C80113
:1024A000895B9F4F0E94A716F601178306838CEF66
:1024B00093E00E944F19C5010E94241200E020E021
:1024C00040E060E0CE0101960E946620CE010396B6
:1024D0000E942C1218E8E12E13E1F12E00E010E02A
:1024E00020E63AEE40E050E0B501F60186819781A2
:1024F0000E940D0E8C018130910589F5F6016681EF
:102500007781CE0101960E945109CE0103960E9467
:102510002C12F60166817781CE0101960E9467092F
:10252000CE0103960E941412F60166817781CE01D6
:1025300001960E945C09CE0103960E941C12F601CE
:1025400066817781CE0101960E9472094B815C8180
:102550006D817E81F6014283538364837583C80154
:1025600026960FB6F894DEBF0FBECDBFDF91CF9198
:102570001F910F91FF90EF90DF90CF90BF90AF90A1
:102580000895EF92FF920F931F93CF93DF9300D0A4
:1025900000D000D0CDB7DEB78C01FC0186819781D9
:1025A0000097E1F10E94520E7C018230910521F0EA
:1025B00084E0E816F104A1F5F80166817781CE0187
:1025C00001960E945109CE0103960E942C12F80137
:1025D00066817781CE0101960E946709CE0103963C
:1025E0000E941412F80166817781CE0101960E9443
:1025F0005C09CE0103960E941C12F8016681778166
:10260000CE0101960E9472094B815C816D817E81B1
:10261000F801428353836483758302C0E12CF12C5B
:10262000C70126960FB6F894DEBF0FBECDBFDF916F
:10263000CF911F910F91FF90EF900895CF93DF936B
:10264000EC010E945C20AE014E5F5F4F24E030E061
:1026500060E08FE090E00E94851ACE01DF91CF917B
:10266000089525EF31E0FC0131832083FB01428195
:10267000538164817581FC01428353836483758334
:1026800008950F9300E020E040E060E08CED93E0DF
:102690000E94662084EC93E00F910C945C20DC0196
:1026A000ED91FC91008CF18DE02D099591E0892749
:1026B0000895CF93DF931F92CDB7DEB76983DC0116
:1026C000ED91FC910280F381E02D41E050E0BE01EC
:1026D0006F5F7F4F09950F90DF91CF91089521E0B3
:1026E000FC018485883009F420E0822F0895FC01E4
:1026F0009485FB018485981303C081E0983009F428
:1027000080E008950F931F93CF93DF93EC018A012C
:102710008C85883021F00E940418892B39F481E0DF
:1027200090E09B838A8380E090E001C0C801DF9144
:10273000CF911F910F910895FC016485683021F0BD
:102740008CEF93E00C94201A80E090E00895CF93F2
:10275000DF931F92CDB7DEB741E050E0BE016F5F5F
:102760007F4FFC0184850E945618181619061CF428
:10277000898190E002C08FEF9FEF0F90DF91CF91A2
:102780000895FC0184850C9456180F931F93CF93E2
:10279000DF931F92CDB7DEB78C01DC01ED91FC9188
:1027A0000480F581E02D0995892B51F0BE016F5F02
:1027B0007F4FF80184850E949A18898190E002C0B9
:1027C0008FEF9FEF0F90DF91CF911F910F910895A1
:1027D000FC0184850C94A818CF92DF92EF92FF92AF
:1027E0000F931F93CF93DF93CDB7DEB7AF970FB69D
:1027F000F894DEBF0FBECDBF7C018B016A01CE0114
:1028000001960E945C20CE0109960E94A716CE0177
:102810008A960E945C2064EC73E0CE0184960E944C
:102820003113BE016C5D7F4FCE0101960E941C0FDB
:10283000AE01465D5F4FB801CE0101960E94811145
:1028400081309105C1F4D701ED91FC910484F585A7
:10285000E02D85EF91E09DA38CA30CA51DA52EA5D1
:102860003FA50EA31FA328A739A7A601BE016C5D33
:102870007F4FC7010995AF960FB6F894DEBF0FBE24
:10288000CDBFDF91CF911F910F91FF90EF90DF901F
:10289000CF900895FC011382128248EE53E060E06D
:1028A00070E0448355836683778381EA91E0918366
:1028B000808388E084870895FC016485683041F056
:1028C0006295660F607E685F83E090E00C94B019BB
:1028D00080E00895DF92EF92FF920F931F93CF93C2
:1028E000DF93EC017B018A018C85883009F04BC0B5
:1028F000D12C6D2D6295660F607E685F83E090E05D
:102900000E94B019811102C0DC8607C08B7F88311C
:10291000D9F3D39488E0D812ECCF8C85883099F124
:1029200020910A0130910B012F5F3F4F11F420E0FD
:1029300034E030930B0120930A0140910A01509139
:102940000B0120E061E00E948717B7016E5F7F4FA7
:10295000A8018C850E94C717811103C088E08C876D
:1029600012C0CE010E945C14873151F061E070E02A
:1029700080E090E00E94B81DCE010E945C14ECCF74
:1029800081E090E002C080E090E0DF91CF911F9164
:102990000F91FF90EF90DF900895CF92DF92EF922A
:1029A000FF92CF93DF93EC018C85883081F10E94F8
:1029B000FD170E94891D6B017C01CE010E945C14F1
:1029C000882359F00E94891D6C197D098E099F0981
:1029D000683E73408105910598F0CE010E945C1419
:1029E000882319F08C850E947917EC85F0E0EE0FB2
:1029F000FF1FE453FC4F1182108288E08C8707C0D0
:102A000061E070E080E090E00E94B81DD6CFDF91D9
:102A1000CF91FF90EF90DF90CF900895CF93DF9309
:102A2000EC018C858830D1F0CE010E945C14843199
:102A3000A9F0882399F0883189F08C3169F4E88114
:102A4000F9810480F581E02DCE01099521E0892BE3
:102A500009F420E0822F03C081E001C080E0DF9113
:102A6000CF9108950F9300E020E040E060E082EE17
:102A700093E00E9466200F9108950F9300E020E0FC
:102A800040E060E088EE93E00E9466200F91089598
:102A9000DC01ED91FC91008CF18DE02D099425EF86
:102AA00031E0FC0131832083FB0141895289638934
:102AB0007489FC0142835383648375830895FC0108
:102AC000858996890895FC01818D928D0895CF9313
:102AD000DF931F92CDB7DEB76983DC01ED91FC91E6
:102AE0000280F381E02D41E050E0BE016F5F7F4F37
:102AF00009950F90DF91CF910895CF93DF93EC016B
:102B0000898D9A8D892B41F0E881F9810680F781C2
:102B1000E02DCE010995F4CFDF91CF910895CF93A9
:102B2000DF93EC018C85883061F00E947917EC8589
:102B3000F0E0EE0FFF1FE453FC4F1182108288E09B
:102B40008C87DF91CF910895FC01108E178A6E5FFC
:102B50007F4F84850C94D718FC0184850C94FC1855
:102B6000CF93DF93EC019A018F89988DAB01BC0163
:102B70008C850E94A9182F89388D280F391F388F0E
:102B80002F8BDF91CF9108950F931F93CF93DF93F6
:102B90001F92CDB7DEB78C01FC01818D928D892B00
:102BA00059F041E050E0BE016F5F7F4F84850E9485
:102BB0005618181619061CF08FEF9FEF08C0F80181
:102BC000818D928D0197928F818F898190E00F90F6
:102BD000DF91CF911F910F910895CF93DF93EC0177
:102BE000898D9A8D009719F48FEF9FEF10C04817C9
:102BF000590708F0AC018C850E9456181816190662
:102C00009CF7298D3A8D281B390B3A8F298FDF913C
:102C1000CF910895CF93DF931F92CDB7DEB7FC011C
:102C2000218D328D232B49F0BE016F5F7F4F84854C
:102C30000E949A18898190E002C08FEF9FEF0F9059
:102C4000DF91CF9108950F931F93CF93DF93CDB76B
:102C5000DEB728970FB6F894DEBF0FBECDBF8C014C
:102C6000DC01ED91FC910284F385E02D0995F801DA
:102C700064858CEF93E00E94201A892B41F148E093
:102C800050E0BE016F5F7F4FD8011C968C910E946F
:102C9000561818161906ECF4BE016F5F7F4FC80175
:102CA0000F960E9482208D8190E0982F88272E8198
:102CB000820F911DF801968B858B8F8190E0982F64
:102CC00088272885820F911D928F818F02C080E016
:102CD00090E028960FB6F894DEBF0FBECDBFDF910F
:102CE000CF911F910F910895FF920F931F93CF9350
:102CF000DF93EC018B018C85883011F5F12C6F2D61
:102D00006295660F607E685F83E090E00E94B01974
:102D1000811102C0FC8606C08831E1F3F39488E09B
:102D2000F812EDCF8C85883059F01E870D871A8EEA
:102D3000198E20E0A80162E00E94871781E001C09F
:102D400080E0DF91CF911F910F91FF900895FC01DA
:102D50001382128248EE53E060E070E044835583B2
:102D60006683778381EC91E09183808388E0848718
:102D7000CF010F960C945C20CF92DF92EF92FF92DE
:102D80000F931F93CF93DF93CDB7DEB7AF970FB6F7
:102D9000F894DEBF0FBECDBF7C018B016A01CE016E
:102DA00001960E945C20CE0109960E94A716CE01D2
:102DB0008A960E945C2064EC73E0CE0184960E94A7
:102DC0003113BE016C5D7F4FCE0101960E941C0F36
:102DD000AE01465D5F4FB801CE0101960E948111A0
:102DE00081309105C1F4D701ED91FC910088F18902
:102DF000E02D85EF91E09DA38CA30CA51DA52EA52C
:102E00003FA50EA31FA328A739A7A601BE016C5D8D
:102E10007F4FC7010995AF960FB6F894DEBF0FBE7E
:102E2000CDBFDF91CF911F910F91FF90EF90DF9079
:102E3000CF9008950F9300E020E040E060E08EEE38
:102E400093E00E9466200F9108950F9300E020E028
:102E500040E060E084EF93E00E9466200F910895C7
:102E6000AB01682F6295660F607E645F24E030E0FE
:102E70008CE090E00C9472199B01682F6295660FAC
:102E8000607E685FC9010C94B01962E070E00C9438
:102E90003C179B01682F6295660F607E645FC901D5
:102EA0000C942919CF93DF93C82FD62F472F64E0B6
:102EB00070E00E9449174D2F65E070E08C2FDF9184
:102EC000CF910C944917462F62E070E00C9449179B
:102ED000CF93DF93C82FD62F472F60E170E00E9479
:102EE00049174D2F61E170E08C2FDF91CF910C9449
:102EF0004917CF93C82F40E150E0682F8CEF93E043
:102F00000E942E1B6FEF8C2FCF910C946317EF92C2
:102F1000FF921F93CF93DF9300D0CDB7DEB7182F6A
:102F20007A018FEF860F853048F5812F2A836983D8
:102F30000E9479172A816981462F422B60E070E058
:102F4000812F0E944917E114F10411F0B7010AC062
:102F50006091FA037091FB036F5F7F4F7093FB03E7
:102F60006093FA03812F0E94521741E050E0612FD5
:102F70008CEF93E00E942E1B81E001C080E00F9057
:102F80000F90DF91CF911F91FF90EF9008951F93C5
:102F9000CF93DF93182FFB01EA0180818F3F51F41B
:102FA00081818F3F91F482818F3F79F483818F3FBC
:102FB00061F41EC0811109C08181811106C0828126
:102FC000811103C08381882399F0209789F0BF0184
:102FD000812F0E943017BE01812F0E94681744E0A4
:102FE00050E0612F8CEF93E00E942E1B81E001C026
:102FF00080E0DF91CF911F91089548E050E0682F65
:103000008CEF93E00C942E1BDF92EF92FF920F93C4
:103010001F93CF93DF93D82E8B01EA01413088E0D4
:10302000580710F0C0E0D8E06D2D8CEF93E00E94BF
:10303000EB197C0163E070E08D2D0E943C17873115
:1030400011F08C3121F4EC16FD0670F302C0C0E0E3
:10305000D0E09E01A8016D2D8CEF93E00E947A1ABA
:1030600040E250E06D2D8CEF93E00E942E1B8D2DE1
:103070000E94451784FD0DC063E070E08D2D0E9415
:103080003C178111F4CF8D2D0E94791780E090E0DC
:1030900005C060E18D2D0E946317CE01DF91CF91B5
:1030A0001F910F91FF90EF90DF900895DF92EF92C4
:1030B000FF920F931F93CF93DF93D82E7B018A014A
:1030C000682F8CEF93E00E94201AEC01009799F48E
:1030D00063E070E08D2D0E943C17843111F188234C
:1030E00001F1C1E0D0E08C3111F4C0E0D0E0D19525
:1030F000C195D10916C0081719070CF4E8011C1670
:103100001D067CF400E09E01A7016D2D8CEF93E07D
:103110000E94DD1A40E450E06D2D8CEF93E00E9498
:103120002E1BCE01DF91CF911F910F91FF90EF9059
:10313000DF9008950F93AB0101E021E030E0682FAC
:103140008CEF93E00E94DD1A81E090E00F910895EA
:103150000895BF92CF92DF92EF92FF920F931F9349
:10316000CF93DF93B82E7B016A01E901682F8CEFC2
:1031700093E00E94EB198C179D0730F46B2D8CEFB8
:1031800093E00E94EB19EC018E019601A7016B2DD3
:103190008CEF93E00E943C1ACE01DF91CF911F91FA
:1031A0000F91FF90EF90DF90CF90BF9008951F9305
:1031B000CF93DF93182FFB01EA018081811109C0B1
:1031C0008181811106C08281811103C0838188239E
:1031D00069F0209759F0BF01812F0E943017BE017E
:1031E000812F0E94681781E090E002C080E090E0AB
:1031F000DF91CF911F910895CF93C82F40E250E007
:10320000682F8CEF93E00E942E1B8C2F0E94451795
:1032100084FD0CC08C2F0E94451783FFF6CF68E118
:103220008C2F0E94631780E090E006C060E18C2F35
:103230000E94631781E090E0CF9108958EBD000059
:103240000DB407FEFDCF8EB508952E9808952E9AE1
:1032500008951F93CF93DF9300D01F92CDB7DEB7B1
:10326000182F4B836A8399830E9425199981892F8E
:103270000E941E19812F0E941E196A81862F0E94AA
:103280001E194B81842F0E941E190E94271981E06C
:103290000F900F900F90DF91CF911F910895CF93D2
:1032A000DF9368EE73E080E090E00E94B81D269AFC
:1032B0000E941409C0E0DC2FD295DD0FD07ED45FD0
:1032C00042E06D2F8EE190E00E94291942E06D2FBF
:1032D0008FE190E00E942919CF5FC83061F7DF913C
:1032E000CF910895CF92DF92EF92FF920F931F93A9
:1032F000CF93DF9300D000D0CDB7DEB7F82E890191
:103300004B835C836A8399830E94251989810E947B
:103310001E198F2D0E941E196A81862F0E941E1968
:103320004B81C42E5C81D52E7601E00EF11ECE14A9
:10333000DF0431F0F60181916F010E941E19F7CF71
:103340000E942719C8010F900F900F900F90DF91E6
:10335000CF911F910F91FF90EF90DF90CF90089544
:103360001F93CF93DF9300D0CDB7DEB7182F6A83BA
:1033700099830E94251989810E941E19812F0E941C
:103380001E196A81862F0E941E1980E00E941E1954
:1033900089830E94271989810F900F90DF91CF9127
:1033A0001F9108951F93CF93DF93182F60E270E071
:1033B0000E943C17C82FD0E0DC2FCC2761E270E0E0
:1033C000812F0E943C179E01280F311DC901DF91FA
:1033D000CF911F910895FF920F931F93CF93DF9387
:1033E000F62EC0E0D0E08F2D0E94D2198C010097FC
:1033F00021F08F2D0E94D219EC01C017D10799F747
:10340000CE01DF91CF911F910F91FF9008951F93EF
:10341000CF93DF93182F66E270E00E943C17C82F0D
:10342000D0E0DC2FCC2767E270E0812F0E943C17B0
:103430009E01280F311DC901DF91CF911F91089581
:10344000FF920F931F93CF93DF93F62EC0E0D0E04F
:103450008F2D0E94071A8C01009721F08F2D0E945A
:10346000071AEC01C017D10799F7CE01DF91CF9170
:103470001F910F91FF900895CF92DF92EF92FF92EC
:103480000F931F93CF93DF93D62EEA01790164E265
:1034900070E08D2D0E943C17C82E65E270E08D2DE6
:1034A0000E943C17C80FD11D2C2D30E0322F22274F
:1034B000C20FD31F6D2D6295660F607E6C5E980102
:1034C000A701CE010E947219C00FD11F4D2F64E2D7
:1034D00070E08D2D0E9449174C2F65E270E08D2D14
:1034E000DF91CF911F910F91FF90EF90DF90CF90E0
:1034F0000C9449170F931F9389019A0140E050E003
:103500000E943C1A1F910F910895CF92DF92EF9283
:10351000FF920F931F93CF93DF9300D000D0CDB7CE
:10352000DEB7F82E89014B835C836A8399830E94FE
:10353000251989810E941E198F2D0E941E196A81EA
:10354000862F0E941E194B81C42E5C81D52E7601D8
:10355000E00EF11ECE14DF0439F080E00E941E1947
:10356000F60181936F01F6CF0E942719C8010F90D1
:103570000F900F900F90DF91CF911F910F91FF90BF
:10358000EF90DF90CF9008950F931F93CF93DF9329
:1035900000D0CDB7DEB75A834983A901980189814C
:1035A0009A816295660F607E685E0F900F90DF9142
:1035B000CF911F910F910C94851A8F929F92AF9289
:1035C000BF92CF92DF92EF92FF920F931F93CF9310
:1035D000DF936C01962E5A017901802E68E270E02B
:1035E000892D0E943C17C82F69E270E0892D0E9446
:1035F0003C17D0E0DC2FCC27C80FD11D87019501E7
:10360000AE01692DC6010E94C41A81101AC0CE0DE8
:10361000DF1D4D2F68E270E0892D0E9449174C2F65
:1036200069E270E0892DDF91CF911F910F91FF909A
:10363000EF90DF90CF90BF90AF909F908F900C94C1
:103640004917DF91CF911F910F91FF90EF90DF907D
:10365000CF90BF90AF909F908F900895CF93C62F3B
:1036600061E070E08C2F0E94491761E070E08C2FC0
:103670000E943C178111F9CFCF910895FF920F93CB
:103680001F93CF93DF93FC010081C181D281F89415
:103690008981F02EF0948F21898378941DE7115051
:1036A00029F182E090E00E94F21D88818023B9F325
:1036B000F8948A818F218A838981802B89837894E9
:1036C00080EE91E00E94F21DF89489818F21898318
:1036D00086E490E00E94F21D8881802311E009F0C9
:1036E00010E078948AE991E00E94F21D812FDF9129
:1036F000CF911F910F91FF9008951F93CF93DF9368
:10370000FC011081C181D281912F909560FF12C080
:10371000F8948A8189238A838981812B89838AE02D
:1037200090E00E94F21D8A81812B8A83789487E33E
:1037300090E011C0F8948A8189238A838981812B42
:10374000898381E490E00E94F21D8A81812B8A8323
:10375000789485E090E0DF91CF911F910C94F21D59
:103760000F931F93CF93DF93FC011081C181D2810E
:10377000F8948981812B89838A81012F0095802388
:103780008A8383E090E00E94F21D898180238983EF
:103790008AE090E00E94F21DC881789485E390E071
:1037A0000E94F21D1C2381E009F480E0DF91CF919B
:1037B0001F910F910895CF92DF92EF92FF920F9396
:1037C0001F93CF93DF931F92CDB7DEB76C01E62E28
:1037D00008E010E0FF24F39461E09F2D9E2109F49E
:1037E00060E0C60149830E947D1BFF0C0150110956
:1037F00049810115110581F7411115C0F894D601D1
:103800001196ED91FC91129791818C91809589236D
:1038100081831196ED91FC91129792818C91809504
:103820008923828378940F90DF91CF911F910F911C
:10383000FF90EF90DF90CF900895EF92FF920F935B
:103840001F93CF93DF938C01C8E0D0E0F12CEE24DE
:10385000E394C8010E94B01B8111FE28EE0C219751
:10386000C1F78F2DDF91CF911F910F91FF90EF90B6
:103870000895CF92DF92FF920F931F93CF93DF9320
:103880001F92CDB7DEB78C01F62E40E065E5798357
:103890000E94DB1BCF2C7981D72E88E0F82EF60111
:1038A00061916F0140E0C8010E94DB1BFA94B9F7F7
:1038B0000F90DF91CF911F910F91FF90DF90CF90EC
:1038C0000895FC0113861586148627E030E0DF0199
:1038D000A20FB31F13961C922115310519F0215028
:1038E0003109F5CF08951F93CF93DF93EC01162F85
:1038F00060E0812F0E94901E612F70E0FB01E05F6D
:10390000FD4FE491E883FB01E15DFD4FE491F0E0C0
:10391000EE0FFF1FE25BFD4F859194919A8389839F
:10392000CE01DF91CF911F910C94611CAF92BF9299
:10393000CF92DF92EF92FF920F931F93CF93DF937B
:103940001F92CDB7DEB75C01D62EE72EFC01858530
:10395000811164C0C50149830E943E1B49818111C8
:1039600005C0F50113861586148671C0442319F02D
:1039700040E060EF02C040E06CEEC5010E94DB1B3E
:1039800001E0F12CC12C11E0C5010E94B01B682F91
:10399000C50169830E94B01B6981613019F48130CF
:1039A000B9F433C02F2D30E068131BC0F5018385B7
:1039B000181730F4E20FF31F8381802349F402C00B
:1039C000181731F060E0193058F4F501148708C079
:1039D000F501EF0DF11D8381802B838361E009C028
:1039E000C12EF501E20FF31F8381902F909589235B
:1039F0008383C5010E947D1B1F5F000F11F4F394A8
:103A000001E0F7E0FF1508F0BFCF113438F0F50101
:103A1000C386C11009C081E0858706C0F501138601
:103A20001586148680E013C0F50183818823B1F3E5
:103A3000ED2DFE2D80E090E0D501A80FB91F139663
:103A40002C912193019688309105B1F781E00F9078
:103A5000DF91CF911F910F91FF90EF90DF90CF906A
:103A6000BF90AF900895DC0180E0615038F0ED9197
:103A7000E827F0E0EF50FF4F8491F7CF08951F92B1
:103A80000F920FB60F9211242F933F938F939F9312
:103A9000AF93BF938091FE039091FF03A091000428
:103AA000B09101043091FD0323E0230F2D3720F462
:103AB0000196A11DB11D05C026E8230F0296A11D88
:103AC000B11D2093FD038093FE039093FF03A09309
:103AD0000004B09301048091020490910304A0912A
:103AE0000404B09105040196A11DB11D8093020448
:103AF00090930304A0930404B0930504BF91AF9185
:103B00009F918F913F912F910F900FBE0F901F901B
:103B100018952FB7F8946091FE037091FF03809180
:103B20000004909101042FBF08953FB7F89480914D
:103B3000020490910304A0910404B091050426B5F9
:103B4000A89B05C02F3F19F00196A11DB11D3FBFD5
:103B50006627782F892F9A2F620F711D811D911D65
:103B600042E0660F771F881F991F4A95D1F7089585
:103B70008F929F92AF92BF92CF92DF92EF92FF927D
:103B80006B017C010E94951D4B015C01C114D104A5
:103B9000E104F104F1F00E9475270E94951D681957
:103BA00079098A099B09683E73408105910570F384
:103BB00021E0C21AD108E108F10888EE880E83E0FE
:103BC000981EA11CB11CC114D104E104F10429F711
:103BD000DDCFFF90EF90DF90CF90BF90AF909F90A0
:103BE0008F9008958230910538F0880F991F880FC3
:103BF000991F05970197F1F70895789484B582602D
:103C000084BD84B5816084BD85B5826085BD85B580
:103C1000816085BDEEE6F0E0808181608083E1E82F
:103C2000F0E0108280818260808380818160808367
:103C3000E0E8F0E0808181608083E1E9F0E080816C
:103C400082608083808181608083E0E9F0E0808110
:103C500081608083E1ECF0E08081846080838081FA
:103C600082608083808181608083E3ECF0E08081EA
:103C700081608083E0ECF0E0808182608083E2EC10
:103C8000F0E0808181608083EAE7F0E080818460F9
:103C90008083808182608083808181608083808155
:103CA00080688083089590E0FC013197EF30F10542
:103CB000B0F5EA5AFF4F0C94712A809180008F77FB
:103CC00003C0809180008F7D809380000895809153
:103CD0008000877FF9CF84B58F7702C084B58F7D50
:103CE00084BD0895809190008F7707C080919000E7
:103CF0008F7D03C080919000877F8093900008950E
:103D00008091C0008F7703C08091C0008F7D809329
:103D1000C00008958091C200877F8093C2000895FB
:103D2000CF93DF9390E0FC01E05FFD4F2491FC0115
:103D3000E15DFD4F8491882349F190E0880F991F40
:103D4000FC01E659FD4FA591B491845A9D4FFC01A9
:103D5000C591D4919FB7611108C0F8948C912095BA
:103D600082238C93888182230AC0623051F4F894B4
:103D70008C91322F309583238C938881822B88837A
:103D800004C0F8948C91822B8C939FBFDF91CF91CC
:103D900008950F931F93CF93DF931F92CDB7DEB794
:103DA000282F30E0F901EF50FE4F8491F901E05FD8
:103DB000FD4F1491F901E15DFD4F04910023C9F01D
:103DC000882321F069830E94531E6981E02FF0E06F
:103DD000EE0FFF1FE45AFD4FA591B4919FB7F894E1
:103DE0008C91611103C01095812301C0812B8C93AC
:103DF0009FBF0F90DF91CF911F910F910895CF93A7
:103E0000DF931F92CDB7DEB76983DC01ED91FC91A2
:103E10000280F381E02D41E050E0BE016F5F7F4FF3
:103E200009950F90DF91CF910895CF93DF93EC0127
:103E30008C859D8597FF05C082E00E94F7239D87B2
:103E40008C878C859D85DF91CF91089583E00C94BC
:103E50008B26FC018485958597FD06C082E00E9433
:103E60009F2390E00196089582E00E949F2390E0B6
:103E70000895FC018485958597FD05C02FEF3FEFE0
:103E800035872487089582E00C94F723CF93DF933E
:103E9000EC0180911701882331F083E00E942824EF
:103EA0001816190634F081E090E09B838A8380E045
:103EB00090E0DF91CF910895FC0120812E5F208357
:103EC00042E450E068E772E080E80C94C324FC010F
:103ED00021818081813A59F4213209F04BC047E0B9
:103EE00050E060E171E080E00E94C3245EC0813256
:103EF00009F040C0233289F4838190E0982F88270D
:103F00003281832BA0E0B0E080930C0190930D01EF
:103F1000A0930E01B0930F010FC0203239F467E077
:103F200070E080E191E00E94F42409C0223221F483
:103F300082818093170103C02D7F2032B1F58091DB
:103F40005604811103C0E0E0F8E002C0EEEFFAE0B1
:103F50008091100190911101A0911201B091130173
:103F6000803B9440A105B10511F58091170180FFB8
:103F700003C01DC080E00895EE3F2AE0F20731F053
:103F8000808191819093FF0A8093FE0A87E797E7EB
:103F9000918380832BE088E190E00FB6F894A89598
:103FA000809360000FBE2093600081E0089588E157
:103FB0000FB6F89480936000109260000FBEA89531
:103FC000EE3F8AE0F80739F08091FE0A9091FF0AEF
:103FD00091838083EACF1092FF0A1092FE0AE5CF08
:103FE0002FEF3FEFFC01358724870895CF93C091D1
:103FF00017016AE070E080E090E00E94B81D81E067
:10400000C11101C080E0CF9108951092090410926F
:10401000080488EE93E0A0E0B0E080930A04909357
:104020000B04A0930C04B0930D0485EE91E09093E3
:104030000704809306048FEF9FEF909313048093FF
:1040400012040895AF92BF92CF92DF92EF92FF9247
:104050000F931F93CF93DF936C017B01C0E0D0E0FF
:1040600000E010E0F601EC0FFD1F4AE050E0628135
:10407000C7010E94DA215C016EE2C7010E94ED20B7
:104080008A0D9B1D080F191F2196C330D10551F7CA
:104090004AE050E0F6016581C7010E94DA21800FF5
:1040A000911FDF91CF911F910F91FF90EF90DF90C3
:1040B000CF90BF90AF90089525EF31E0FC013183A0
:1040C0002083128213821482158208950F93FC01BB
:1040D00085EF91E09183808362834383248305830A
:1040E0000F91089525EF31E0FC0131832083FB011E
:1040F0004081518162817381FC01428353836483D7
:1041000075830895FB014081518162817381FC01B7
:104110004283538364837583089585EF91E0909380
:104120005804809357041092590410925A04109224
:104130005B0410925C04089508950E94FD1D0E9486
:104140009C208DE594E00E9418270E94A604C0E000
:10415000D0E00E94D2052097E1F30E940000F9CF41
:104160000C94982A6115710581F0DB010D900020F7
:10417000E9F7AD0141505109461B570BDC01ED91A8
:10418000FC910280F381E02D099480E090E0089595
:10419000EF92FF920F931F93CF93DF938C017B01DC
:1041A000C0E0D0E0F701EC0FFD1F6491662359F0E9
:1041B000F801A081B181ED91FC91C8010995892B8D
:1041C00011F02196EFCFCE01DF91CF911F910F918A
:1041D000FF90EF9008950C94B220DC01ED91FC91DA
:1041E0000190F081E02D099467EF71E00C94B2200A
:1041F0000F931F93CF93DF93EC010E94C8208C0193
:10420000CE010E94F420800F911FDF91CF911F916A
:104210000F9108950F931F93CF93DF93EC010E94AA
:10422000B2208C01CE010E94F420800F911FDF91FB
:10423000CF911F910F9108958F929F92AF92BF924D
:10424000DF92EF92FF920F931F93CF93DF93CDB73F
:10425000DEB7A1970FB6F894DEBF0FBECDBF7C01CD
:10426000F42FD52ECB0119A2223008F42AE08E01BA
:104270000F5D1F4F822E912CA12CB12C6F2F7D2D05
:10428000A50194010E94302AF22FD32ECA010150B9
:1042900011096A3014F4E0E301C0E7E3E60FD80146
:1042A000EC93232B242B252B49F7B801C7010E943F
:1042B000B220A1960FB6F894DEBF0FBECDBFDF913E
:1042C000CF911F910F91FF90EF90DF90BF90AF9033
:1042D0009F908F900895CF92DF92EF92FF920F936D
:1042E0001F93CF93DF93EC016A017B012115310508
:1042F00079F4E881F9810190F081E02D642FDF915C
:10430000CF911F910F91FF90EF90DF90CF90099484
:104310002A303105E9F477FF1AC06DE20E94ED20E2
:104320008C0144275527BA014C195D096E097F0994
:104330002AE0CE010E941C21800F911FDF91CF91B6
:104340001F910F91FF90EF90DF90CF9008952AE09A
:10435000B701A601CE01DF91CF911F910F91FF9080
:10436000EF90DF90CF900C941C210F931F93CF936D
:10437000DF93EC019A01AB01662757FD6095762F1C
:104380000E946B218C01CE010E94F420800F911FAE
:10439000DF91CF911F910F9108952115310541F4BF
:1043A000DC01ED91FC910190F081E02D642F0994E6
:1043B0000C941C219A01462F50E060E070E00C94B0
:1043C000CD219A01AB0160E070E00C94CD210F93F8
:1043D0001F93CF93DF93EC010E94CD218C01CE017E
:1043E0000E94F420800F911FDF91CF911F910F91B8
:1043F00008954F925F926F927F928F929F92AF92A9
:10440000BF92CF92DF92EF92FF920F931F93CF93C1
:10441000DF93EC016A017B01B22E9A01AB01C70167
:10442000B6010E942C2A882319F06AEF71E027C098
:1044300026013701E89477F82FEF3FEF4FE75FE76A
:10444000C301B2010E942C2A81110DC02FEF3FEF52
:104450004FE75FE7C301B2010E94762818161CF4EB
:104460006EEF71E00CC02FEF3FEF4FE75FE4C70145
:10447000B6010E94C5291816ACF462E072E0CE01C4
:10448000DF91CF911F910F91FF90EF90DF90CF9030
:10449000BF90AF909F908F907F906F905F904F9064
:1044A0000C94B2202FEF3FEF4FE75FECC701B6014E
:1044B0000E94762887FDE1CF20E030E0A901C70106
:1044C000B6010E94762887FF0AC06DE2CE010E94E5
:1044D000ED208C01F7FAF094F7F8F09402C000E0B8
:1044E00010E0A12C60E070E080E09FE3AB1441F0AD
:1044F00020E030E040E251E40E947A28A394F6CF15
:104500009B01AC01C701B6010E9412286B017C011E
:104510000E94E7282B013C010E9413299B01AC015A
:10452000C701B6010E9411286B017C012AE0B3018A
:10453000A201CE010E941C21080F191FBB2039F0D7
:1045400067E571E0CE010E94B220080F191F7B2C95
:10455000772041F120E030E040E251E4C701B601AC
:104560000E94C9296B017C010E94E2284B01AA2408
:1045700097FCA094BA2C2AE030E0B501A401CE014A
:104580000E946B21080F191FC501B4010E94152953
:104590009B01AC01C701B6010E9411286B017C018F
:1045A0007A94D6CFC801DF91CF911F910F91FF90E0
:1045B000EF90DF90CF90BF90AF909F908F907F90C3
:1045C0006F905F904F9008950C94F921615030F0F6
:1045D0002091F100FC0120830196F8CF289884E611
:1045E0008093660408954091610450916204209183
:1045F0005F043091600442175307B4F49091E800CF
:104600009570E1F39091E80092FD19C08093F1005C
:10461000809161049091620401968F739927892B90
:1046200019F48EEF8093E800809161049091620408
:104630000196909362048093610481E0089580E084
:104640000895CF92DF92EF92FF920F931F93CF9333
:10465000DF931F92CDB7DEB7082F162FF42E862FCB
:10466000880F8E5F99830E94F32283E00E94F322D9
:10467000E02EC02E9981D92E8C2D8E19811798F499
:10468000F601F7FE02C0849101C080810E94F322EE
:10469000082F80E00E94F3228023FFEFCF1ADF0A69
:1046A0008111EACF01C081E00F90DF91CF911F917E
:1046B0000F91FF90EF90DF90CF9008958091D700F9
:1046C00081608093D70080EA8093D80089B58061AB
:1046D00089BD89B5826089BD09B400FEFDCF61E066
:1046E00070E080E090E00E94B81D8091D8008F7C3F
:1046F00080618093D8008091E000807F8093E0000B
:104700000895CF93DF931F92CDB7DEB71982CE0104
:1047100001960E945C1F0E94FD27BE016F5F7F4FC4
:104720000E94762789810F90DF91CF9108952FB74E
:10473000FC012083F89467706093E9000895CF939B
:10474000DF931F92CDB7DEB7682FCE0101960E948E
:1047500097238091F20099819FBF0F90DF91CF91B5
:104760000895FF920F931F93CF93DF9300D0CDB79F
:10477000DEB7F62E8A0190916504992311F057FF58
:1047800003C08FEF9FEF2BC0682FCE0101967A8375
:104790000E9497238091F20090E0A8017A8180170F
:1047A00091070CF4AC01EF2DF72FF40E84E6FE1602
:1047B00039F02898809366049091F1009193F7CF97
:1047C0004115510521F08091F200882321F0898163
:1047D0008FBFCA0104C08BE68093E800F8CF0F902A
:1047E0000F90DF91CF911F910F91FF900895CF937C
:1047F000DF931F92CDB7DEB741E050E0BE016F5F9F
:104800007F4F0E94B123019719F4898190E002C083
:104810008FEF9FEF0F90DF91CF910895CF93DF93AC
:104820001F92CDB7DEB7682FCE0101960E94972365
:104830009091E800892F807295FF04C09091F2005A
:1048400080E4891B99819FBF0F90DF91CF910895DC
:104850006F927F928F929F92AF92BF92CF92DF9290
:10486000EF92FF920F931F93CF93DF931F92CDB7D9
:10487000DEB7782E7B01C42EB52E80916504882387
:1048800069F0042F152F8AEFD82E872D8072982E6D
:104890009AE3A92E872D8074882E11C08FEF9FEF89
:1048A00057C0872D0E940E24682E81110CC0DA9407
:1048B000A9F361E070E080E090E00E94B81D01156E
:1048C000110579F73BC0282F30E0021713070CF4CD
:1048D000602E672DCE0101960E9497238091E800FB
:1048E00085FF29C0262D30E0021B130B992039F0DB
:1048F0006A948FEF6816B1F01092F100F9CFF701CA
:10490000862D77FE07C0815058F094919093F10066
:104910003196F9CF815020F091919093F100FACF28
:10492000E20EF31E8091E80085FF0FC0011511050E
:1049300011F481100AC089818FBFC1CF5D9884E6D0
:10494000809367048C2D9B2D03C0A092E800F3CFC9
:104950000F90DF91CF911F910F91FF90EF90DF901B
:10496000CF90BF90AF909F908F907F906F90089561
:104970001092E90010926204109261049093600416
:1049800080935F040895CF92DF92FF920F931F935D
:10499000CF93DF9300D0CDB7DEB7F82E8A016B013D
:1049A00001151105B1F0F601F7FE02C0849101C0B6
:1049B000808149835A830E94F32201501109FFEF3D
:1049C000CF1ADF0A49815A818111EACF8FEF9FEF19
:1049D00001C0CA010F900F90DF91CF911F910F91ED
:1049E000FF90DF90CF900895BF92CF92DF92EF9229
:1049F000FF920F931F93CF93DF936C018B01EB0119
:104A00003BEFB32E2097C1F07E01C134D1051CF0DD
:104A100020E4E22EF12C8091E80082FFFCCFC80157
:104A20008C1B9D0B6E2D8C0D9D1D0E94E622B0925D
:104A3000E800CE19DF09E6CFC801DF91CF911F91C1
:104A40000F91FF90EF90DF90CF90BF9008951F924D
:104A50000F920FB60F921124DF92EF92FF920F93F5
:104A60001F932F933F934F935F936F937F938F93F6
:104A70009F93AF93BF93EF93FF93CF93DF93CDB704
:104A8000DEB76C97DEBFCDBF1092E9008091E800E1
:104A900083FF23C168E0CE0145960E94E62282EFA3
:104AA0008093E8003D8937FF05C08091E80080FFD2
:104AB000FCCF03C08EEF8093E800832F807609F04F
:104AC000F0C02E894F89D88C21110CC0303829F4C0
:104AD000809164048093F10002C01092F100109262
:104AE000F100F4C0842F90E09D29213049F4311168
:104AF000EDC0019709F0EAC0809164048D7F0AC07F
:104B0000233059F43111E2C0019709F0DFC08091E0
:104B10006404826080936404D9C0253041F480919C
:104B2000E80080FFFCCF40684093E300CFC0263010
:104B300009F08DC0EB8CFC8C22E0D2122CC080E0FE
:104B400090E00E94B8240E94812399E08E010F5FBB
:104B50001F4FF801292F11922A95E9F79983DA82DC
:104B600091E09E8390EA98879AEF9987209161045B
:104B700030916204275F3F4F3C832B838D83C701B5
:104B80000E94B82449E050E0B80180E00E94C324AC
:104B90000E9481239BC0C7010E94B8240E94FD2768
:104BA000BE016B5E7F4F0E949F27009719F00CF0AB
:104BB0008DC090C081E0D8120EC08B8D9C8D08975F
:104BC00019F481E080935E0480915E0481112FC00E
:104BD0006CEC72E031C0E3E0DE127CC08F89882388
:104BE00049F1823029F440E860E18AEE92E01CC08D
:104BF000813029F440E86BE08EED92E015C08330FF
:104C000009F068C00E94FD278E010F5F1F4FB80199
:104C10000E94BE27F80101900020E9F73197E01BC0
:104C2000F10B40E06E2FC8010E9421234DC06AEBBA
:104C300072E002C06BEF72E06115710509F44AC0C1
:104C4000FB01449150E080E80E94C3243FC027301C
:104C500009F440C0283021F481E08093F10036C08F
:104C60002930A1F53370B1F5E9E1F1E081E021E00F
:104C700036E39081992361F08093E9002093EB0063
:104C800091919093EC003093ED008F5F873089F71E
:104C90008EE78093EA001092EA008F898093650482
:104CA00015C08B8D9C8D0E94B824898D811105C003
:104CB000CE0145960E94671F07C00E94FD27BE01D6
:104CC0006B5E7F4F0E94DD27882321F08EEF80935B
:104CD000E80003C081E28093EB006C960FB6F89475
:104CE000DEBF0FBECDBFDF91CF91FF91EF91BF919E
:104CF000AF919F918F917F916F915F914F913F9174
:104D00002F911F910F91FF90EF90DF900F900FBEAA
:104D10000F901F9018958093E9008091F2008823EE
:104D200019F08AE38093E80008951F920F920FB65E
:104D30000F9211242F933F934F935F936F937F9321
:104D40008F939F93AF93BF93CF93EF93FF93C091B4
:104D5000E1008091E100837F8093E1008093E10096
:104D6000C3FF0FC01092E90081E08093EB00109226
:104D7000EC0082E38093ED001092650488E080935C
:104D8000F000C2FF19C083E00E948B268091670467
:104D9000882339F0809167048150809367048823C9
:104DA00089F180916604882339F0809166048150EE
:104DB00080936604882341F1C4FF10C08091E20013
:104DC0008E7E81608093E2008091E1008F7E8093EF
:104DD000E100809163048E7E806111C0C0FF16C027
:104DE0008091E2008E7E80618093E2008091E100FC
:104DF0008E7E8093E100809163048E7E816080933B
:104E0000630404C05D9ACDCF289AD6CFFF91EF916D
:104E1000CF91BF91AF919F918F917F916F915F9152
:104E20004F913F912F910F900FBE0F901F901895AB
:104E30001092650410926404109263040E945E2331
:104E40008091E1008E7E8093E1008DE08093E2000E
:104E5000559A209AEEEFFFE7859194918B3F9C4DF8
:104E600019F481E0809356040895CF93DF9300D026
:104E700000D0CDB7DEB79B01AC016115710581058E
:104E8000910569F069833A834B835C830E940E2C01
:104E900029813A814B815C810E94522A03C060E0E3
:104EA00070E0CB010F900F900F900F90DF91CF919A
:104EB0000895CF92DF92EF92FF926B017C0162170F
:104EC00073078407950764F4CA01B9016C197D0959
:104ED0008E099F090E9435276C0D7D1D8E1D9F1D1B
:104EE000FF90EF90DF90CF9008950895EF92FF929A
:104EF0000F931F93CF93DF937B01FC01C281D3817A
:104F000000E010E0209781F0E881F9810280F381D0
:104F1000E02DB701CE01099597FD08C0080F191FB4
:104F20000884D985C02DEECFC80102C08FEF9FEF56
:104F3000DF91CF911F910F91FF90EF9008950F9304
:104F40001F93CF93DF938B01FC01C281D381209704
:104F500071F0E881F9810480F581E02DB801CE017E
:104F60000995009731F40884D985C02DF0CF80E0F1
:104F700090E0DF91CF911F910F9108950F931F93B0
:104F8000CF93DF938B01FC01C281D381209771F015
:104F9000E881F9810680F781E02DB801CE010995FD
:104FA000080F111D0884D985C02DF0CFF80110829B
:104FB000DF91CF911F910F9108950F931F93CF937E
:104FC000DF938B01FC01C281D381209771F0E881CE
:104FD000F9810190F081E02DB801CE010995811190
:104FE00006C00884D985C02DF0CF80E001C081E0E3
:104FF000DF91CF911F910F91089580916C048111E1
:105000000DC082E08093680484E08093690410926C
:105010006B0410926A0481E080936C0488E694E04B
:1050200008955058BB27AA270ED075C166D130F01D
:105030006BD120F031F49F3F11F41EF45BC10EF4EC
:10504000E095E7FB51C1E92F77D180F3BA176207EA
:1050500073078407950718F071F49EF58FC10EF45D
:10506000E0950B2EBA2FA02D0B01B90190010C0178
:10507000CA01A0011124FF27591B99F0593F50F490
:10508000503E68F11A16F040A22F232F342F4427E8
:10509000585FF3CF469537952795A795F0405395E0
:1050A000C9F77EF41F16BA0B620B730B840BBAF0B0
:1050B0009150A1F0FF0FBB1F661F771F881FC2F71B
:1050C0000EC0BA0F621F731F841F48F4879577952F
:1050D0006795B795F7959E3F08F0B3CF9395880FE6
:1050E00008F09927EE0F979587950895D9D008F481
:1050F00081E008950CD00FC107D140F0FED030F010
:1051000021F45F3F19F0F0C0511139C1F3C014D13F
:1051100098F39923C9F35523B1F3951B550BBB277E
:10512000AA2762177307840738F09F5F5F4F220F2B
:10513000331F441FAA1FA9F333D00E2E3AF0E0E824
:1051400030D091505040E695001CCAF729D0FE2F70
:1051500027D0660F771F881FBB1F26173707480702
:10516000AB07B0E809F0BB0B802DBF01FF279358B8
:105170005F4F2AF09E3F510568F0B6C000C15F3F07
:10518000ECF3983EDCF3869577956795B795F795A0
:105190009F5FC9F7880F911D9695879597F9089598
:1051A000E1E0660F771F881FBB1F62177307840734
:1051B000BA0720F0621B730B840BBA0BEE1F88F743
:1051C000E095089504D06894B111D9C00895BCD079
:1051D00088F09F5790F0B92F9927B751A0F0D1F0E0
:1051E000660F771F881F991F1AF0BA95C9F712C06A
:1051F000B13081F0C3D0B1E00895C0C0672F782FDF
:105200008827B85F39F0B93FCCF3869577956795D5
:10521000B395D9F73EF490958095709561957F4F41
:105220008F4F9F4F0895E89409C097FB3EF49095E7
:105230008095709561957F4F8F4F9F4F9923A9F06F
:10524000F92F96E9BB279395F695879577956795FE
:10525000B795F111F8CFFAF4BB0F11F460FF1BC042
:105260006F5F7F4F8F4F9F4F16C0882311F096E9D5
:1052700011C0772321F09EE8872F762F05C0662383
:1052800071F096E8862F70E060E02AF09A95660F3C
:10529000771F881FDAF7880F9695879597F90895F5
:1052A000990F0008550FAA0BE0E8FEEF1616170637
:1052B000E807F907C0F012161306E407F50798F09F
:1052C000621B730B840B950B39F40A2661F0232BB8
:1052D000242B252B21F408950A2609F4A140A69534
:1052E0008FEF811D811D089597F99F6780E870E019
:1052F00060E008959FEF80EC089500240A9416164C
:10530000170618060906089500240A9412161306B3
:10531000140605060895092E0394000C11F4882341
:1053200052F0BB0F40F4BF2B11F460FF04C06F5F5D
:105330007F4F8F4F9F4F089557FD9058440F551F33
:1053400059F05F3F71F04795880F97FB991F61F007
:105350009F3F79F087950895121613061406551F7E
:10536000F2CF4695F1DF08C0161617061806991FEA
:10537000F1CF86957105610508940895E894BB27DF
:1053800066277727CB0197F908958ADF08F48FEF16
:1053900008950BD0C0CFB1DF28F0B6DF18F0952309
:1053A00009F0A2CFA7CF1124EACFC6DFA0F3959FC3
:1053B000D1F3950F50E0551F629FF001729FBB27FC
:1053C000F00DB11D639FAA27F00DB11DAA1F649FA8
:1053D0006627B00DA11D661F829F2227B00DA11D5B
:1053E000621F739FB00DA11D621F839FA00D611DE1
:1053F000221F749F3327A00D611D231F849F600D02
:10540000211D822F762F6A2F11249F5750408AF03A
:10541000E1F088234AF0EE0FFF1FBB1F661F771FC6
:10542000881F91505040A9F79E3F510570F05CCF06
:10543000A6CF5F3FECF3983EDCF3869577956795B2
:10544000B795F795E7959F5FC1F7FE2B880F911DE4
:105450009695879597F9089523DF880B990B089502
:10546000A1E21A2EAA1BBB1BFD010DC0AA1FBB1F68
:10547000EE1FFF1FA217B307E407F50720F0A21BDA
:10548000B30BE40BF50B661F771F881F991F1A9447
:1054900069F760957095809590959B01AC01BD0171
:1054A000CF010895052E97FB1EF400940E94692AEF
:1054B00057FD07D00E94302A07FC03D04EF40C940D
:1054C000692A50954095309521953F4F4F4F5F4F3A
:1054D000089590958095709561957F4F8F4F9F4F60
:1054E0000895EE0FFF1F0590F491E02D09946927B0
:1054F0009627692778278727782708950E94892A81
:10550000A59F900DB49F900DA49F800D911D112417
:105510000895A29FB001B39FC001A39F700D811D8C
:105520001124911DB29F700D811D1124911D0895AC
:10553000CF93DF938230910510F482E090E0E09108
:105540007604F091770420E030E0A0E0B0E03097FE
:1055500039F14081518148175907B8F04817590768
:1055600071F482819381109729F013969C938E9306
:1055700012972CC0909377048093760427C021154E
:10558000310531F04217530718F0A901DB0101C0C2
:10559000EF019A01BD01DF010280F381E02DD7CF39
:1055A00021153105F9F0281B390B2430310580F421
:1055B0008A819B816115710521F0FB0193838283B0
:1055C00004C09093770480937604FE01329644C021
:1055D000FE01E20FF31F8193919322503109398329
:1055E00028833AC02091740430917504232B41F430
:1055F00020910201309103013093750420937404CB
:1056000020910001309101012115310541F42DB7A0
:105610003EB74091040150910501241B350BE091E8
:105620007404F0917504E217F307A0F42E1B3F0BEE
:105630002817390778F0AC014E5F5F4F2417350704
:1056400048F04E0F5F1F509375044093740481938C
:10565000919302C0E0E0F0E0CF01DF91CF91089597
:10566000CF93DF93009709F487C0FC013297138230
:105670001282C0917604D0917704209781F4208122
:105680003181280F391F809174049091750482171D
:10569000930779F5F0937504E09374046DC0DE010F
:1056A00020E030E0AE17BF0750F412964D915C91A8
:1056B00013979D014115510509F1DA01F3CFB38329
:1056C000A28340815181840F951F8A179B0771F433
:1056D0008D919C911197840F951F029691838083E1
:1056E00012968D919C911397938382832115310596
:1056F00029F4F0937704E09376043EC0D901139621
:10570000FC93EE9312974D915D91A40FB51FEA178C
:10571000FB0779F480819181840F951F0296D9014E
:1057200011969C938E938281938113969C938E9372
:105730001297E0E0F0E08A819B81009719F0FE016A
:10574000EC01F9CFCE01029628813981820F931F97
:1057500020917404309175042817390769F4309743
:1057600029F4109277041092760402C013821282F8
:10577000D0937504C0937404DF91CF9108958F92F4
:105780009F92AF92BF92CF92DF92EF92FF92CF9310
:10579000DF93EC01688179818A819B8161157105B4
:1057A0008105910521F464E279ED8BE597E02DE127
:1057B00033EF41E050E00E94522A49015A019B0117
:1057C000AC01A7EAB1E40E947E2A6B017C01ACEE39
:1057D000B4EFA50194010E94492CC60ED71EE81E05
:1057E000F91EF7FE06C081E0C81AD108E10880E87A
:1057F000F80AC882D982EA82FB82C701B6019F7784
:10580000DF91CF91FF90EF90DF90CF90BF90AF905E
:105810009F908F9008950E94BF2B089586E091E09D
:105820000E94BF2B08956093060170930701809337
:105830000801909309010895FB01DC0104C08D91DA
:105840000190801921F441505040C8F7881B990BF2
:105850000895FB01DC0101900D920020E1F708950D
:10586000F999FECF92BD81BDF89A992780B5089528
:10587000262FF999FECF1FBA92BD81BD20BD0FB66C
:10588000F894FA9AF99A0FBE01960895B7FF0C940E
:105890007E2A0E947E2A821B930B0895F894FFCFE4
:1058A000000078048000010000000004FFFFFFFFFB
:1058B00000E100000000000000C1808100000046FF
:1058C00061696C656420746F20636F6E66696775CB
:1058D00072652045746865726E6574207573696EB3
:1058E000672044484350004D79204950206164644A
:1058F000726573733A20002E00426F6F74206E75CC
:105900006D6265723A20005061636B657443616D2E
:105910006500436F6E74656E74733A0073697A65DF
:10592000206973203A00000000002E060106D6050B
:10593000DE05F105000657495A6E65740000000047
:1059400000591382139C13A713C513E8136A14ECB0
:1059500013C113CD140E156F1377134F13000000EE
:10596000006715B0156315C4150A167D1574168FDA
:1059700015A415BC16AC152316ED1548154F155F6B
:105980001500000000FF1E461F291F391F151F2686
:105990001F0000000022200D0A006E616E00696E7B
:0659A00066006F76660050
:00000001FF
