:100000000C949D000C94C5000C94C5000C94C50084
:100010000C94C5000C94C5000C94C5000C94C5004C
:100020000C94C5000C94C5000C9407090C94990716
:100030000C94C5000C94C5000C94C5000C94C5002C
:100040000C94C5000C94C5000C94C5000C94C5001C
:100050000C94C5000C94C5000C94C5000C942B0A9C
:100060000C94C5000C94C5000C94C5000C94C500FC
:100070000C94C5000C94C5000C94C5000C94C500EC
:100080000C94C5000C94C5000C94C5000C94C500DC
:100090000C94C5000C94C5000C94C5000C94C500CC
:1000A0000C94C5000C94C5000C94C500080B00020C
:1000B0000202010009040000010202000005240000
:1000C0001001052401010104240206052406000193
:1000D0000705810310004009040100020A00000026
:1000E00007050202400000070583024000001201DC
:1000F0000002EF02014041233680000101020301AA
:10010000120100020000004041233680000101027C
:10011000030141726475696E6F204C4C430041725B
:100120006475696E6F204C656F6E6172646F000458
:1001300003090400FE016F04040211241FBECFEF67
:10014000DAE0DEBFCDBF12E0A0E0B1E0E6E3FFE120
:1001500002C005900D92AA38B107D9F723E0AAE8AA
:10016000B2E001C01D92A730B207E1F711E0C8E389
:10017000D1E004C02297FE010E94E80BC433D107EE
:10018000C9F70E948D040C948E0F0C940000EF921E
:10019000FF920F931F93CF93DF931F92CDB7DEB7DC
:1001A0007C01FC0100811181C80169830E94140F48
:1001B0006981681719F0C8010E941C0FC7010F90D0
:1001C000DF91CF911F910F91FF90EF900895EF92E3
:1001D000FF920F931F93CF93DF93CDB7DEB7609756
:1001E0000FB6F894DEBF0FBECDBFCE0101967C01E5
:1001F00000E010E0C8010E94140FF70181937F0115
:100200000F5F1F4F00311105A9F749815A816B819A
:100210007C8120E130E080E992E00E941D0569E1E7
:1002200071E080E992E00E94B6046D817E8140E138
:1002300050E080E992E00E942A0569E171E080E9DE
:1002400092E00E94B6046F81788540E150E080E939
:1002500092E00E942A0569E171E080E992E00E9443
:10026000B60469857A8540E150E080E992E00E9419
:100270002A0569E171E080E992E00E94B6046B858D
:100280007C8540E150E080E992E00E942A054D859E
:100290005E856F85788920E130E080E992E06096A4
:1002A0000FB6F894DEBF0FBECDBFDF91CF911F9187
:1002B0000F91FF90EF900C944605EF92FF920F93F1
:1002C0001F93CF93DF9300D000D000D0CDB7DEB71F
:1002D000CE0101967C0100E110E0C8010E94140FDC
:1002E000F70181937F010F5F1F4F06311105A9F7B9
:1002F00049815A816B817C8120E130E080E992E084
:100300000E941D0569E171E080E992E00E94B60457
:100310006D817E8140E150E080E992E026960FB643
:10032000F894DEBF0FBECDBFDF91CF911F910F912B
:10033000FF90EF900C9430050F931F93CF93DF93B2
:10034000DB01AB014150504C440F551F440F551F6A
:10035000EC0160E070E0CB01E0E0F0E0EA17FB07C1
:10036000F1F02991022F112707FD10952A331CF473
:100370000053110902C007531109042E02C0000FD7
:10038000111F0A94E2F7222717FD2095322F600FE4
:10039000711F821F931F319644505109DFCFDF91A7
:1003A000CF911F910F91089540E052EC61E070E011
:1003B00080E992E00E945A0480E992E00E94600481
:1003C0008823D1F36BE171E080E992E00E94BC04E4
:1003D0006DE371E080E992E00E94BC040E94E700B6
:1003E00060E671E080E992E00E94BC040E945D0139
:1003F00060E871E080E992E00C94BC046BE772E085
:100400008AE892E00C94150A8AE892E00C94A70915
:100410008F929F92AF92BF92CF92DF92EF92FF9214
:100420000F931F93CF93DF93CDB7DEB7E8970FB647
:10043000F894DEBF0FBECDBF80E992E00E94930327
:10044000181619060CF032C180E992E00E94A3034D
:100450008233910509F083C06CEA71E080E992E093
:100460000E94BC0400E010E080E992E00E94A30337
:10047000F82E992787FD90950E94F10E892B49F05F
:10048000E1E2F0E0EC0FFD1FE00FF11FF0820F5FE3
:100490001F4F0830110544F340E150E060E070E088
:1004A000CE0181960E94DD0D4B015C0100E010E061
:1004B00080E992E00E94A303F82E992787FD90958A
:1004C0000E94F10E892B49F0E5E2F0E0EC0FFD1FF0
:1004D000E00FF11FF0820F5F1F4F0430110544F34E
:1004E000BE016F5F7F4F80E992E00E94BC0440E153
:1004F00050E060E070E0CE0101960E94DD0D6B01DE
:100500007C0189AA9AAAABAABCAA7EAB6DAB20E1FA
:1005100030E0B501A40180E992E00E94460520E1A7
:1005200030E0B701A60180E992E00E944605CE01C5
:10053000C1967C0100E110E0F70161917F0118AFE5
:100540000FABCE01C7960E94C7000F5F1F4F063149
:10055000110591F70E945D0166EE71E0A2C0C1979E
:1005600009F09DC06DEE71E080E992E00E94BC044C
:1005700000E010E080E992E00E94A303F82E9927A2
:1005800087FD90950E94F10E892B49F0E1E0F0E0A3
:10059000EC0FFD1FE00FF11FF0820F5F1F4F0032C5
:1005A000110544F369E272E080E992E00E94BC0424
:1005B000BE016F5F7F4F80E992E00E94BC0464E05F
:1005C00070E0CE0101960E949C016B017C0164E009
:1005D00070E0CE0105960E949C019601112700272C
:1005E000060F171F281F391F09A31AA32BA33CA30B
:1005F00064E070E0CE0109960E949C017EA36DA389
:1006000064E070E0CE010D960E949C0178A76FA374
:1006100064E070E0CE0141960E949C017AA769A730
:1006200064E070E0CE0145960E949C017CA76BA718
:1006300064E070E0CE0149960E949C016B017C0150
:1006400064E070E0CE014D960E949C019601112756
:100650000027060F171F281F391F0DA71EA72FA73A
:1006600038AB8E010F5D1F4FE12CF12CF801619129
:100670008F01FAAAE9AACE01C1960E94C700FFEF36
:10068000EF1AFF0A80E1E816F10481F760E372E0F7
:1006900080E992E00E94BC040E94E700CDCE62E5B2
:1006A00072E080E992E00E94BC04C6CEE8960FB6E4
:1006B000F894DEBF0FBECDBFDF91CF911F910F9198
:1006C000FF90EF90DF90CF90BF90AF909F908F9072
:1006D0000895CF93DF931F92CDB7DEB76983DC0116
:1006E000ED91FC910280F381E02D41E050E0BE01EC
:1006F0006F5F7F4F09950F90DF91CF910895CF9352
:10070000DF93EC018C859D8597FF05C082E00E94F8
:1007100069069D878C878C859D85DF91CF91089593
:1007200083E00C94FD08FC018485958597FD06C047
:1007300082E00E94110690E00196089582E00E94F6
:10074000110690E00895FC018485958597FD05C00C
:100750002FEF3FEF35872487089582E00C946906D8
:10076000CF93DF93EC0180911101882331F083E076
:100770000E949A061816190634F081E090E09B83D7
:100780008A8380E090E0DF91CF910895FC01208181
:100790002E5F208342E450E06CEA70E080E80C9425
:1007A0003507FC0121818081813A59F4213209F019
:1007B0004BC047E050E06AE071E080E00E943507FE
:1007C0005EC0813209F040C0233289F4838190E019
:1007D000982F88273281832BA0E0B0E08093060118
:1007E00090930701A0930801B09309010FC0203234
:1007F00039F467E070E08AE091E00E94660709C082
:10080000223221F482818093110103C02D7F203296
:10081000B1F58091E002811103C0E0E0F8E002C090
:10082000EEEFFAE080910A0190910B01A0910C018A
:10083000B0910D01803B9440A105B10511F5809167
:10084000110180FF03C01DC080E00895EE3F2AE043
:10085000F20731F0808191819093FF0A8093FE0A24
:1008600087E797E7918380832BE088E190E00FB6DC
:10087000F894A895809360000FBE2093600081E0FB
:10088000089588E10FB6F89480936000109260009C
:100890000FBEA895EE3F8AE0F80739F08091FE0A76
:1008A0009091FF0A91838083EACF1092FF0A109201
:1008B000FE0AE5CF2FEF3FEFFC013587248708952F
:1008C000CF93C09111016AE070E080E090E00E9457
:1008D000980A81E0C11101C080E0CF910895109283
:1008E00093021092920288EE93E0A0E0B0E0809331
:1008F000940290939502A0939602B09397028DE68E
:1009000092E090939102809390028FEF9FEF9093EB
:100910009D0280939C02089508950E94D20A0E942D
:100920008C0481EE92E00E948A090E94D401C0E00A
:10093000D0E00E9408022097E1F30E940000F9CF66
:100940006115710581F0DB010D900020E9F7AD0123
:1009500041505109461B570BDC01ED91FC9102807F
:10096000F381E02D099480E090E008950C94A004B8
:1009700069E772E00C94A0040F931F93CF93DF9369
:10098000EC010E94A0048C01CE010E94B804800FEB
:10099000911FDF91CF911F910F9108958F929F9298
:1009A000AF92BF92DF92EF92FF920F931F93CF937C
:1009B000DF93CDB7DEB7A1970FB6F894DEBF0FBEB9
:1009C000CDBF7C01F42FD52ECB0119A2223008F423
:1009D0002AE08E010F5D1F4F822E912CA12CB12C8D
:1009E0006F2F7D2DA50194010E94C40BF22FD32EF1
:1009F000CA01015011096A3014F4E0E301C0E7E3D1
:100A0000E60FD801EC93232B242B252B49F7B801B3
:100A1000C7010E94A004A1960FB6F894DEBF0FBED6
:100A2000CDBFDF91CF911F910F91FF90EF90DF909D
:100A3000BF90AF909F908F9008952115310541F49C
:100A4000DC01ED91FC910190F081E02D642F09947F
:100A50000C94CE049A01AB0160E070E00C941D058B
:100A60000F931F93CF93DF93EC019A01AB0160E0EA
:100A700070E00E941D058C01CE010E94B804800F19
:100A8000911FDF91CF911F910F9108950F931F93A5
:100A9000CF93DF93EC010E941D058C01CE010E94D3
:100AA000B804800F911FDF91CF911F910F9108958E
:100AB000615030F02091F100FC0120830196F8CFC5
:100AC000289884E68093EA0208954091E5025091C7
:100AD000E6022091E3023091E40242175307B4F496
:100AE0009091E8009570E1F39091E80092FD19C0B3
:100AF0008093F1008091E5029091E60201968F7358
:100B00009927892B19F48EEF8093E8008091E502F4
:100B10009091E60201969093E6028093E50281E0CF
:100B2000089580E00895CF92DF92EF92FF920F93A5
:100B30001F93CF93DF931F92CDB7DEB7082F162FE9
:100B4000F42E862F880F8E5F99830E94650583E0BF
:100B50000E946505E02EC02E9981D92E8C2D8E190C
:100B6000811798F4F601F7FE02C0849101C08081DC
:100B70000E946505082F80E00E9465058023FFEF35
:100B8000CF1ADF0A8111EACF01C081E00F90DF9117
:100B9000CF911F910F91FF90EF90DF90CF9008952C
:100BA0008091D70081608093D70080EA8093D8003D
:100BB00089B5806189BD89B5826089BD09B400FEAF
:100BC000FDCF61E070E080E090E00E94980A8091A3
:100BD000D8008F7C80618093D8008091E000807F76
:100BE0008093E0000895CF93DF931F92CDB7DEB7D7
:100BF0001982CE0101960E94C6030E94AF0BBE016E
:100C00006F5F7F4F0E94280B89810F90DF91CF91FA
:100C100008952FB7FC012083F89467706093E90072
:100C20000895CF93DF931F92CDB7DEB7682FCE0123
:100C300001960E9409068091F20099819FBF0F9052
:100C4000DF91CF910895FF920F931F93CF93DF937E
:100C500000D0CDB7DEB7F62E8A019091E902992334
:100C600011F057FF03C08FEF9FEF2BC0682FCE010D
:100C700001967A830E9409068091F20090E0A80113
:100C80007A81801791070CF4AC01EF2DF72FF40E49
:100C900084E6FE1639F028988093EA029091F100DC
:100CA0009193F7CF4115510521F08091F2008823EF
:100CB00021F089818FBFCA0104C08BE68093E800D0
:100CC000F8CF0F900F90DF91CF911F910F91FF9070
:100CD0000895CF93DF931F92CDB7DEB741E050E088
:100CE000BE016F5F7F4F0E942306019719F489812F
:100CF00090E002C08FEF9FEF0F90DF91CF910895AA
:100D0000CF93DF931F92CDB7DEB7682FCE01019648
:100D10000E9409069091E800892F807295FF04C017
:100D20009091F20080E4891B99819FBF0F90DF9121
:100D3000CF9108956F927F928F929F92AF92BF92C0
:100D4000CF92DF92EF92FF920F931F93CF93DF9397
:100D50001F92CDB7DEB7782E7B01C42EB52E8091C1
:100D6000E902882369F0042F152F8AEFD82E872DEA
:100D70008072982E9AE3A92E872D8074882E11C038
:100D80008FEF9FEF57C0872D0E948006682E81113C
:100D90000CC0DA94A9F361E070E080E090E00E947A
:100DA000980A0115110579F73BC0282F30E002178A
:100DB00013070CF4602E672DCE0101960E940906E0
:100DC0008091E80085FF29C0262D30E0021B130B1F
:100DD000992039F06A948FEF6816B1F01092F10003
:100DE000F9CFF701862D77FE07C0815058F0949116
:100DF0009093F1003196F9CF815020F0919190932A
:100E0000F100FACFE20EF31E8091E80085FF0FC0DB
:100E10000115110511F481100AC089818FBFC1CF5E
:100E20005D9884E68093EB028C2D9B2D03C0A092ED
:100E3000E800F3CF0F90DF91CF911F910F91FF90BA
:100E4000EF90DF90CF90BF90AF909F908F907F906A
:100E50006F9008951092E9001092E6021092E50258
:100E60009093E4028093E3020895CF92DF92FF9281
:100E70000F931F93CF93DF9300D0CDB7DEB7F82E3B
:100E80008A016B0101151105B1F0F601F7FE02C0F0
:100E9000849101C0808149835A830E946505015075
:100EA0001109FFEFCF1ADF0A49815A818111EACF78
:100EB0008FEF9FEF01C0CA010F900F90DF91CF918C
:100EC0001F910F91FF90DF90CF900895BF92CF9226
:100ED000DF92EF92FF920F931F93CF93DF936C01FA
:100EE0008B01EB013BEFB32E2097C1F07E01C134A3
:100EF000D1051CF020E4E22EF12C8091E80082FF65
:100F0000FCCFC8018C1B9D0B6E2D8C0D9D1D0E946E
:100F10005805B092E800CE19DF09E6CFC801DF918D
:100F2000CF911F910F91FF90EF90DF90CF90BF90E6
:100F300008951F920F920FB60F921124DF92EF9235
:100F4000FF920F931F932F933F934F935F936F9352
:100F50007F938F939F93AF93BF93EF93FF93CF9321
:100F6000DF93CDB7DEB76C97DEBFCDBF1092E9003F
:100F70008091E80083FF23C168E0CE0145960E947E
:100F8000580582EF8093E8003D8937FF05C08091C6
:100F9000E80080FFFCCF03C08EEF8093E800832F32
:100FA000807609F0F0C02E894F89D88C21110CC0B1
:100FB000303829F48091E8028093F10002C0109249
:100FC000F1001092F100F4C0842F90E09D292130AF
:100FD00049F43111EDC0019709F0EAC08091E802AF
:100FE0008D7F0AC0233059F43111E2C0019709F016
:100FF000DFC08091E80282608093E802D9C025308A
:1010000041F48091E80080FFFCCF40684093E3000A
:10101000CFC0263009F08DC0EB8CFC8C22E0D212C0
:101020002CC080E090E00E942A070E94F30599E01E
:101030008E010F5F1F4FF801292F11922A95E9F7B2
:101040009983DA8291E09E8390EA98879AEF998754
:101050002091E5023091E602275F3F4F3C832B83CE
:101060008D83C7010E942A0749E050E0B80180E063
:101070000E9435070E94F3059BC0C7010E942A0702
:101080000E94AF0BBE016B5E7F4F0E94510B009719
:1010900019F00CF08DC090C081E0D8120EC08B8D7D
:1010A0009C8D089719F481E08093E2028091E2021E
:1010B00081112FC060E071E031C0E3E0DE127CC03E
:1010C0008F89882349F1823029F440E860E18EE17C
:1010D00091E01CC0813029F440E86BE082E191E0AE
:1010E00015C0833009F068C00E94AF0B8E010F5FFE
:1010F0001F4FB8010E94700BF80101900020E9F722
:101100003197E01BF10B40E06E2FC8010E94930560
:101110004DC06EEE70E002C06FE271E061157105C6
:1011200009F44AC0FB01449150E080E80E94350771
:101130003FC0273009F440C0283021F481E080937B
:10114000F10036C02930A1F53370B1F5E3E1F1E0EB
:1011500081E021E036E39081992361F08093E900FA
:101160002093EB0091919093EC003093ED008F5F12
:10117000873089F78EE78093EA001092EA008F8922
:101180008093E90215C08B8D9C8D0E942A07898D62
:10119000811105C0CE0145960E94D10307C00E946F
:1011A000AF0BBE016B5E7F4F0E948F0B882321F037
:1011B0008EEF8093E80003C081E28093EB006C9691
:1011C0000FB6F894DEBF0FBECDBFDF91CF91FF9178
:1011D000EF91BF91AF919F918F917F916F915F91AF
:1011E0004F913F912F911F910F91FF90EF90DF90C2
:1011F0000F900FBE0F901F9018958093E90080917B
:10120000F200882319F08AE38093E80008951F9282
:101210000F920FB60F9211242F933F934F935F932A
:101220006F937F938F939F93AF93BF93CF93EF93DE
:10123000FF93C091E1008091E100837F8093E10002
:101240008093E100C3FF0FC01092E90081E080931A
:10125000EB001092EC0082E38093ED001092E90223
:1012600088E08093F000C2FF19C083E00E94FD086F
:101270008091EB02882339F08091EB0281508093BA
:10128000EB02882389F18091EA02882339F080916A
:10129000EA0281508093EA02882341F1C4FF10C022
:1012A0008091E2008E7E81608093E2008091E10077
:1012B0008F7E8093E1008091E7028E7E806111C075
:1012C000C0FF16C08091E2008E7E80618093E200B4
:1012D0008091E1008E7E8093E1008091E7028E7E16
:1012E00081608093E70204C05D9ACDCF289AD6CF63
:1012F000FF91EF91CF91BF91AF919F918F917F918E
:101300006F915F914F913F912F910F900FBE0F9072
:101310001F9018951092E9021092E8021092E702CD
:101320000E94D0058091E1008E7E8093E1008DE0E7
:101330008093E200559A209AEEEFFFE78591949111
:101340008B3F9C4D19F481E08093E0020895FC01ED
:10135000808191810C94840CCF93DF93EC01888180
:101360009981009711F00E94840C198218821D82C5
:101370001C821B821A82DF91CF9108950F931F93D5
:10138000CF93DF93EC018B016F5F7F4F8881998151
:101390000E94130D009731F0998388831B830A8381
:1013A00081E001C080E0DF91CF911F910F910895FE
:1013B000CF93DF93EC0188819981892B29F08A8171
:1013C0009B818617970760F4CE010E94BE0988238F
:1013D00041F08C819D81892B19F4E881F98110827B
:1013E00081E0DF91CF910895EF92FF920F931F93C9
:1013F000CF93DF93EC017B018A01BA010E94D809E7
:10140000811104C0CE010E94AC0907C01D830C836A
:10141000B701888199810E940D0FCE01DF91CF9194
:101420001F910F91FF90EF900895FC01118210829F
:1014300013821282158214826115710559F0FB0125
:1014400001900020E9F7AF0141505109461B570BAD
:101450000C94F40908951F920F920FB60F92112465
:101460002F933F938F939F93AF93BF938091ED0200
:101470009091EE02A091EF02B091F0023091EC0257
:1014800023E0230F2D3720F40196A11DB11D05C0C7
:1014900026E8230F0296A11DB11D2093EC02809334
:1014A000ED029093EE02A093EF02B093F0028091D0
:1014B000F1029091F202A091F302B091F402019630
:1014C000A11DB11D8093F1029093F202A093F3024B
:1014D000B093F402BF91AF919F918F913F912F9163
:1014E0000F900FBE0F901F9018953FB7F894809102
:1014F000F1029091F202A091F302B091F40226B5AC
:10150000A89B05C02F3F19F00196A11DB11D3FBF3B
:101510006627782F892F9A2F620F711D811D911DCB
:1015200042E0660F771F881F991F4A95D1F70895EB
:101530008F929F92AF92BF92CF92DF92EF92FF92E3
:101540006B017C010E94750A4B015C01C114D1043E
:10155000E104F104F1F00E94C30B0E94750A6819BE
:1015600079098A099B09683E73408105910570F3EA
:1015700021E0C21AD108E108F10888EE880E83E064
:10158000981EA11CB11CC114D104E104F10429F777
:10159000DDCFFF90EF90DF90CF90BF90AF909F9006
:1015A0008F900895789484B5826084BD84B58160FD
:1015B00084BD85B5826085BD85B5816085BDEEE65B
:1015C000F0E0808181608083E1E8F0E0108280813A
:1015D00082608083808181608083E0E8F0E08081A8
:1015E00081608083E1E9F0E0808182608083808196
:1015F00081608083E0E9F0E0808181608083E1ECBC
:10160000F0E080818460808380818260808380813B
:1016100081608083E3ECF0E0808181608083E0EC96
:10162000F0E0808182608083E2ECF0E08081816084
:101630008083EAE7F0E0808184608083808182603B
:101640008083808181608083808180688083089529
:10165000EF92FF920F931F93CF93DF937B01FC01D7
:10166000C281D38100E010E0209781F0E881F98108
:101670000280F381E02DB701CE01099597FD08C0E6
:10168000080F191F0884D985C02DEECFC80102C0EC
:101690008FEF9FEFDF91CF911F910F91FF90EF9010
:1016A00008950F931F93CF93DF938B01FC01C281A9
:1016B000D381209771F0E881F9810480F581E02DD4
:1016C000B801CE010995009731F40884D985C02D61
:1016D000F0CF80E090E0DF91CF911F910F910895BE
:1016E0000F931F93CF93DF938B01FC01C281D381B2
:1016F000209771F0E881F9810680F781E02DB8012B
:10170000CE010995080F111D0884D985C02DF0CF91
:10171000F8011082DF91CF911F910F9108950F93DF
:101720001F93CF93DF938B01FC01C281D38120975C
:1017300071F0E881F9810190F081E02DB801CE01CE
:101740000995811106C00884D985C02DF0CF80E0AD
:1017500001C081E0DF91CF911F910F910895809199
:10176000F90281110DC082E08093F50284E080933C
:10177000F6021092F8021092F70281E08093F902CB
:1017800085EF92E008950895A1E21A2EAA1BBB1BD3
:10179000FD010DC0AA1FBB1FEE1FFF1FA217B3073D
:1017A000E407F50720F0A21BB30BE40BF50B661F53
:1017B000771F881F991F1A9469F760957095809517
:1017C00090959B01AC01BD01CF010895EE0FFF1F65
:1017D0000590F491E02D0994CF93DF938230910529
:1017E00010F482E090E0E0910303F091040320E024
:1017F00030E0A0E0B0E0309739F1408151814817E6
:101800005907B8F04817590771F4828193811097EE
:1018100029F013969C938E9312972CC090930403F7
:101820008093030327C02115310531F04217530778
:1018300018F0A901DB0101C0EF019A01BD01DF0130
:101840000280F381E02DD7CF21153105F9F0281B57
:10185000390B2430310580F48A819B816115710533
:1018600021F0FB019383828304C09093040380934F
:101870000303FE01329644C0FE01E20FF31F819381
:10188000919322503109398328833AC02091010372
:1018900030910203232B41F4209102013091030186
:1018A0003093020320930103209100013091010144
:1018B0002115310541F42DB73EB7409104015091F7
:1018C0000501241B350BE0910103F0910203E2179F
:1018D000F307A0F42E1B3F0B2817390778F0AC0153
:1018E0004E5F5F4F2417350748F04E0F5F1F509330
:1018F0000203409301038193919302C0E0E0F0E082
:10190000CF01DF91CF910895CF93DF93009709F432
:1019100087C0FC01329713821282C0910303D091D9
:101920000403209781F420813181280F391F809191
:101930000103909102038217930779F5F093020354
:10194000E09301036DC0DE0120E030E0AE17BF0779
:1019500050F412964D915C9113979D0141155105DC
:1019600009F1DA01F3CFB383A28340815181840F5F
:10197000951F8A179B0771F48D919C911197840F85
:10198000951F02969183808312968D919C91139757
:10199000938382832115310529F4F0930403E093A6
:1019A00003033EC0D9011396FC93EE9312974D9119
:1019B0005D91A40FB51FEA17FB0779F4808191812F
:1019C000840F951F0296D90111969C938E93828164
:1019D000938113969C938E931297E0E0F0E08A81B6
:1019E0009B81009719F0FE01EC01F9CFCE01029620
:1019F00028813981820F931F2091010330910203C6
:101A00002817390769F4309729F4109204031092CB
:101A1000030302C013821282D0930203C093010316
:101A2000DF91CF910895A0E0B0E0E9E1FDE00C94F2
:101A30004C0FEC01CB01209719F40E94EC0BB8C0BD
:101A4000FE01E60FF71F9E0122503109E217F3074E
:101A500008F4ACC0D9010D911C9111970617170716
:101A6000B8F00530110508F49FC0A8014450510991
:101A70004617570708F498C002501109061B170BA8
:101A8000019311936D937C93CF010E94840C8CC0C1
:101A90005B01A01AB10A4E01800E911EA0910303B2
:101AA000B0910403612C712C60E070E0109709F490
:101AB00049C0A815B905C9F5ED90FC9011976701CB
:101AC00042E0C40ED11CCA14DB0478F147018A1825
:101AD0009B08640142E0C40ED11C1296BC90129780
:101AE0001396AC91B5E0CB16D10440F0B282A3833B
:101AF00091828082D9018D939C9309C00E5F1F4F04
:101B00000E0D1F1DF90111830083EB2DFA2F6115B6
:101B1000710531F0DB011396FC93EE93129744C0EC
:101B2000F0930403E09303033FC06D917C91119700
:101B30006616770608F43B01BD0112960D90BC9124
:101B4000A02DB4CF6091010370910203681579054F
:101B5000E9F468167906D0F4409100015091010132
:101B60004115510541F44DB75EB760910401709184
:101B70000501461B570BE417F507C0F4F093020369
:101B8000E0930103F901918380830EC00E94EC0B66
:101B90007C01009759F0A801BE010E94040FCE01FC
:101BA0000E94840CC70104C0CE0102C080E090E016
:101BB000CDB7DEB7EEE00C94680F2F923F925F92A4
:101BC0006F927F928F929F92AF92BF92CF92DF924D
:101BD000EF92FF920F931F93CF93DF938B01EA0154
:101BE0006115710521F0DB018C9311969C93209770
:101BF00039F09E01225031092332310508F0D8C056
:101C00007C016701BFEFCB1ADB0A5601F701608048
:101C1000862D90E00E94FC0E892B11F07601F1CF09
:101C2000FDE26F120AC0570182E0A80EB11CD70175
:101C300011966C90772473940BC0BBE26B1207C0B3
:101C40005701E2E0AE0EB11CD70111966C90712CD9
:101C5000CE018F7E892B89F4B0E36B1237C0F5017A
:101C600080818F7D8835D1F46180F2E0AF0EB11CA8
:101C7000872D8260782EC0E1D0E0CA30D10551F1C5
:101C8000C031D10521F0C830D10599F409C0CC2468
:101C9000CA94DC2CEC2CAFE0FA2E22C0209769F716
:101CA000C8E0D0E0CC24CA94DC2CEC2CFFE1FF2E61
:101CB00017C06FEF7FEFCB019E01442737FD4095A2
:101CC000542F0E94C40B69017A010AC02097A9F61B
:101CD000CAE0D0E0E9E9CE2EDC2CEC2CE9E1FE2EC6
:101CE000F50160E020E030E0A9014E01AA2497FC54
:101CF000A094BA2C1F0170ED572E560CA9E0A51523
:101D000070F48FEB860D8A3118F499EC592E06C0C9
:101D10008FE9860D8A3148F589EA582E560C852DB3
:101D200090E08C179D070CF56F3FD9F0C216D306D3
:101D3000E406F50698F0C501B4010E942D0F9B0141
:101D4000AC01852D90E0A0E0B0E0280F391F4A1FBC
:101D50005B1F281739074A075B0710F46FEF01C0B4
:101D600061E03196D1016C90C5CF0115110551F09C
:101D7000662311F0319703C071FE04C03297D80179
:101D8000ED93FC9370FE07C05095409530952195DA
:101D90003F4F4F4F5F4F67FF10C082E290E090933C
:101DA0000603809305036FEF7FEF8FEF9FEF07C070
:101DB00060E070E080E090E002C0B901CA01DF910C
:101DC000CF911F910F91FF90EF90DF90CF90BF9038
:101DD000AF909F908F907F906F905F903F902F90EB
:101DE0000895911137C080538A5028F0865C806234
:101DF00081568650B8F7089591112CC0803219F0A1
:101E000089508550D0F70895FB01DC0102C0019094
:101E10000D9241505040D8F70895FB01DC0101902C
:101E20000D920020E1F70895F999FECF92BD81BD92
:101E3000F89A992780B50895262FF999FECF1FBAF1
:101E400092BD81BD20BD0FB6F894FA9AF99A0FBEE3
:101E500001960895992788270895DB018F939F9312
:101E60000E943D0FBF91AF91A29F800D911DA39F36
:101E7000900DB29F900D112408950E947F0FA59F91
:101E8000900DB49F900DA49F800D911D1124089575
:101E90002F923F924F925F926F927F928F929F927A
:101EA000AF92BF92CF92DF92EF92FF920F931F9368
:101EB000CF93DF93CDB7DEB7CA1BDB0B0FB6F89419
:101EC000DEBF0FBECDBF09942A88398848885F8459
:101ED0006E847D848C849B84AA84B984C884DF80CA
:101EE000EE80FD800C811B81AA81B981CE0FD11DAE
:101EF0000FB6F894DEBF0FBECDBFED010895A29FCF
:101F0000B001B39FC001A39F700D811D1124911DCD
:101F1000B29F700D811D1124911D089511E0C8E339
:101F2000D1E004C0FE010E94E80B2296CA33D1071B
:061F3000C9F7F894FFCF91
:101F3600000007038000FFFFFFFF00E10000000034
:101F4600000000C180810000002D004172647569A7
:101F56006E6F2053657475702070726F6A65637456
:101F66002069732072756E6E696E67200043757204
:101F760072656E742041726475696E6F2053657266
:101F860069616C204E756D6265722069733A200036
:101F960043757272656E742041726475696E6F2046
:101FA6004D616320416464726573732069733A00FE
:101FB60054797065203120746F20736574205365E1
:101FC6007269616C4E756D626572204F52203220C7
:101FD600746F20736574204D41433A00456E7465F5
:101FE60072204D4143206164647265737320666F8D
:101FF60072207468652064657669636520696E2061
:1020060048455820666F726D61742C203132206409
:10201600696769747300726573756C7400456E74D4
:1020260065722073657269616C206E756D6265728A
:1020360020666F7220746865206465766963652022
:10204600696E2048455820666F726D61742C203386
:10205600322064696769747300476F74204974009D
:1020660053657269616C204E756D62657220636896
:10207600616E6765642C206974206973206E6F77C2
:102086003A00636F6D6D616E64206E6F74207265C9
:10209600636F676E6973656400000000006903B0D2
:1020A600039303A3037F0390030D0A006E616E0082
:0A20B600696E66006F7666002E006A
:00000001FF
