:100000000C9491010C94A6270C94CD270C94F42702
:100010000C941B280C94B9010C94B9010C9442283F
:100020000C94B9010C94B9010C94E0300C94722F2B
:100030000C94B9010C94B9010C94B9010C94B90158
:100040000C94B9010C94B9010C94B9010C94B90148
:100050000C94B9010C94B9010C94B9010C94692861
:100060000C94B9010C94B9010C94B9010C94B90128
:100070000C94B9010C94B9010C94B9010C94B90118
:100080000C94B9010C94B9010C94B9010C94B90108
:100090000C94B9010C94B9010C94B9010C94B901F8
:1000A0000C94B9010C94B9010C94B901C629C92961
:1000B000B829BC29C229EA29EA29EA29CD29D12966
:1000C000D529DB29DF29EA29E529446576696365B5
:1000D000206973206E6F7420612044533138783268
:1000E000302066616D696C79206465766963652E80
:1000F00000005EBCE2613FDD83C29C7E20A3FD1F49
:10010000419DC3217FFCA2401E5F01E3BD3E608292
:10011000DC237D9FC1421CFEA0E1BF5D0380DE3C6D
:1001200062BEE0025CDF81633D7C22C09E1D43A174
:10013000FF4618FAA427799BC584DA3866E5BB59CF
:1001400007DB856739BAE406581947A5FB7826C44A
:100150009A653BD987045AB8E6A7F91B45C6987A31
:1001600024F8A6441A99C7257B3A6486D85B05E72C
:10017000B98CD2306EEDB3510F4E10F2AC2F71939B
:10018000CD114FADF3702ECC92D38D6F31B2EC0EFA
:1001900050AFF1134DCE90722C6D33D18F0C52B005
:1001A000EE326C8ED0530DEFB1F0AE4C1291CF2DDC
:1001B00073CA947628ABF517490856B4EA6937D55F
:1001C0008B5709EBB536688AD495CB2977F4AA48C2
:1001D00016E9B7550B88D6346A2B7597C94A14F6B9
:1001E000A8742AC896154BA9F7B6E80A54D7896BA4
:1001F00035070605040100080A0B0C0D0900000074
:100200000200090F0000030401000C0000000000C0
:1002100000000000000000000000000004080201CF
:10022000104080401020408040800802040180403F
:100230002010020110801020404020040404040417
:100240000304050202020204030202020206060679
:100250000606060404020202040400000000230053
:10026000260029002C002F00000000002500280097
:100270002B002E00310000000000240027002A007F
:100280002D003000080B00020202010009040000EA
:1002900001020200000524001001052401010104EF
:1002A0002402060524060001070581031000400909
:1002B000040100020A0000000705020240000007D6
:1002C00005830240000012010002EF0201404123B9
:1002D000368000010102030112010002000000400B
:1002E0004123368000010102030141726475696E89
:1002F0006F204C4C430041726475696E6F204C65F1
:100300006F6E6172646F0004030904004206150CED
:10031000EC11B015A117AC17891994194A27B92BFC
:10032000412C11241FBECFEFDAE0DEBFCDBF11E0BC
:10033000A0E0B1E0EEE7FDE602C005900D92A43C1E
:10034000B107D9F725E0A4ECB1E001C01D92AE31B0
:10035000B207E1F713E0C2E2D3E004C02297FE0146
:100360000E94CE34CC30D107C9F70E94512C0C9496
:10037000BD360C9400008091C102811117C080E04D
:1003800090E0A0E4B1E48093C8019093C901A093E8
:10039000CA01B093CB011092CC016AE070E080E01A
:1003A00090E00E94E22881E08093C1028091C40124
:1003B0009091C501A091C601B091C7010196A11D00
:1003C000B11D8093C4019093C501A093C601B09361
:1003D000C7018091C102811117C080E090E0A0E4C4
:1003E000B1E48093C8019093C901A093CA01B0936E
:1003F000CB011092CC016AE070E080E090E00E94B6
:10040000E22881E08093C1028091C4019091C501EE
:10041000A091C601B091C701682F61708DE00C9466
:10042000242AEF92FF920F931F93CF93DF931F9293
:10043000CDB7DEB77C01FC0100811181C801698361
:100440000E949F366981681719F0C8010E94A7367B
:10045000C7010F90DF91CF911F910F91FF90EF9007
:1004600008951F93CF93DF93FC01668D778D80A154
:1004700091A124E630E040E050E00E948B34672BED
:10048000682B692B49F484E690E00E949F3661E076
:10049000680F84E690E00BC0C4E6D0E010E0CE0127
:1004A0000E949F36811740F461E0680FCE01DF9112
:1004B000CF911F910C94A7362196C83CD10511F01D
:1004C000182FEDCFDF91CF911F910895AF92BF927A
:1004D000CF92DF92EF92FF920F931F93CF93DF9310
:1004E00000D0CDB7DEB78C01FC01118A108A80E103
:1004F00090E0938B828B8EE190E0958B848B83E6EA
:1005000090E0978B868B0E949F368F3FC9F434E62C
:10051000E32EF12C60E0C7010E94A736FFEFEF1A2F
:10052000FF0A88ECE816F104A9F7F8018689978993
:100530009A83898360E0CE0101960E9411021CC05B
:10054000C12CD12C760124E6A22EB12CC5010E942B
:100550009F36C80ED11CE11CF11CFFEFAF1ABF0A79
:1005600088ECA816B10491F7F801C68ED78EE0A2E8
:10057000F1A2C8010E943102F801A088B188680187
:1005800090E1E92EF12CA01AB10AC5018C0D9D1D38
:100590000E949F36F60181936F01F1E0EF1AF10896
:1005A000A1F785E0E82EF12CF801828993898E0D60
:1005B0009F1D0E949F36F801EE0DFF1D808FF1E018
:1005C000EF1AF10889F70F900F90DF91CF911F91EB
:1005D0000F91FF90EF90DF90CF90BF90AF90089574
:1005E0008F929F92AF92BF92DF92EF92FF920F9302
:1005F0001F93CF93DF93CDB7DEB7C554D1090FB6A4
:10060000F894DEBF0FBECDBF7C018B01DC011496D8
:100610001D921D921D921C92179788E018968C933C
:100620000E94BF28F80183889488A588B688681935
:1006300079098A099B0980809180A280B3808616FF
:100640009706A806B90608F012C15801F7E0AF0EE8
:10065000B11CD8011596ED91FC9116978EE0DE0144
:100660009B9601900D928A95E1F741E0BE016F5F84
:100670007F4FCE018B960E94051F882379F0FE01E3
:100680003196D501CE01099621912D93E817F907EE
:10069000D9F767E0CE0101960E94A21FF80184817C
:1006A0000580F681E02D9EE0DE015D9601900D92C1
:1006B0009A95E1F78C3031F08B3031F08A3031F09F
:1006C0002FE105C02FE703C02FE501C02FE3CE01C6
:1006D0004D9626962FAF26970E94AD1DB501CE01EF
:1006E0004D960E94A81E40E06EE4CE014D960E94F9
:1006F0004A1E40E060E0CE014D960E944A1E40E056
:1007000060E0CE014D960E944A1E40E026962FAD35
:100710002697622FCE014D960E944A1E40E068E463
:10072000CE014D960E944A1ED8011596ED91FC917E
:1007300016978EE0DE011F9601900D928A95E1F7E3
:10074000CE010F960E94AD1DB501CE010F960E94FD
:10075000A81E41E064E4CE010F960E944A1ED80113
:100760001596ED91FC9116978EE0DE0111960190A1
:100770000D928A95E1F7F8018781823271F0883213
:1007800061F0803119F4DD24D39408C06AEC70E084
:100790008CEA94E00E94AA2C01C0D12CCE010196D3
:1007A0000E94AD1DB501CE0101960E94A81E40E039
:1007B0006EEBCE0101960E944A1E5E01F9E3AF0E78
:1007C000B11C450189E0880E911CCE0101960E9462
:1007D0008C1ED5018D935D01A815B905B1F76AADE1
:1007E00070E0762F662789AD682BDD2041F1F3E0BC
:1007F000660F771FFA95E1F721968FAD219780312B
:1008000051F4CB01807F2FAD6CE070E0621B710969
:10081000680F791F14C08DAD807631F4E3E0660F68
:10082000771FEA95E1F70BC0803229F4660F771F36
:10083000660F771F04C0803411F4660F771F80E0C5
:1008400090E00E945E3320E030E040E85DE30E94EB
:100850001434F8016787708B818B928B0E94BF28BC
:10086000D80153966D937D938D939C935697F80181
:1008700087859089A189B289F70180839183A283BA
:10088000B383C701CB5BDF4F0FB6F894DEBF0FBE5B
:10089000CDBFDF91CF911F910F91FF90EF90DF902F
:1008A000BF90AF909F908F9008958F929F92AF923C
:1008B000BF92CF92DF92EF92FF926A017B0120E01C
:1008C00030E040E351E4C701B6010E94C13218167E
:1008D0003CF02DEC3CEC4CE45DE3C701B601C3C138
:1008E00020E030E040E351E4C701B6010E9410343B
:1008F0001816BCF420E030E048EB51E4C701B60123
:100900000E94C13218166CF02EEA37E441EE5EE325
:10091000C701B6010E945C3226EA3BE944E45DE38C
:10092000A2C120E030E048EB51E4C701B6010E94CB
:1009300010341816BCF420E030E04CE352E4C70158
:10094000B6010E94C13218166CF028EA36EC4BED65
:100950005FE3C701B6010E945C322EE73CE849E341
:100960005DE381C120E030E04CE352E4C701B60111
:100970000E9410341816BCF420E030E04CEB52E436
:10098000C701B6010E94C13218166CF025E63AEA9A
:100990004AEF50E4C701B6010E945C322EE230E912
:1009A00040E25DE360C120E030E04CEB52E4C7017F
:1009B000B6010E9410341816BCF420E030E042E288
:1009C00053E4C701B6010E94C13218166CF027ED3E
:1009D00033EA48E052E4C701B6010E945C3229E8DC
:1009E00032ED4EED5CE33FC120E030E042E253E403
:1009F000C701B6010E9410341816BCF420E030E0A4
:100A00004AE353E4C701B6010E94C13218166CF0E4
:100A100022E03BEA42E152E4C701B6010E945C32A7
:100A200025EF39EB4AED5CE31EC120E030E04AE3FC
:100A300053E4C701B6010E9410341816BCF420E03C
:100A400030E841E853E4C701B6010E94C1321816EC
:100A50006CF02AE83EE24AEB52E4C701B6010E947C
:100A60005C3226E234EE43E85CE3FDC020E030E88F
:100A700041E853E4C701B6010E9410341816BCF4D3
:100A800020E030E04BE953E4C701B6010E94C132D7
:100A900018166CF020E030E04DE153E4C701B601D8
:100AA0000E945C3227EE3DE147E25CE3DCC020E0DF
:100AB00030E04BE953E4C701B6010E941034181628
:100AC000BCF420E030E043EB53E4C701B6010E94E0
:100AD000C13218166CF025E934E24FE453E4C70143
:100AE000B6010E945C3225E639E142EE5BE3BBC011
:100AF00020E030E043EB53E4C701B6010E9410341C
:100B00001816BCF420E030E848EC53E4C701B60105
:100B10000E94C13218166CF020E030E048E853E43F
:100B2000C701B6010E945C3224E237E94FE75BE37C
:100B30009AC020E030E848EC53E4C701B6010E94B7
:100B400010341816BCF420E030E048ED53E4C7013F
:100B5000B6010E94C13218166CF02CED36EF43EA54
:100B600053E4C701B6010E945C3220EE3DE240E151
:100B70005BE379C020E030E048ED53E4C701B60103
:100B80000E9410341816BCF420E030E045EE53E427
:100B9000C701B6010E94C13218166CF02EE937EE7B
:100BA0004AEB53E4C701B6010E945C3222E539E406
:100BB0004DE95AE358C020E030E045EE53E4C70168
:100BC000B6010E9410341816BCF420E030E84FEE55
:100BD00053E4C701B6010E94C13218166CF020E040
:100BE00030EB4EEC53E4C701B6010E945C3224E3C3
:100BF00030E847E35AE337C020E030E84FEE53E4F3
:100C0000C701B6010E9410341816BCF420E030E48D
:100C100043E054E4C701B6010E94C13218166CF0DB
:100C200027EC31EF4CEE53E4C701B6010E945C3271
:100C300027E137EB41ED58E316C020E030E443E014
:100C400054E4C701B6010E941034181684F427EC4E
:100C500031E743E054E4C701B6010E945C322CEA5C
:100C600035EC47E257E30E94C5324B015C01C501F8
:100C7000B401FF90EF90DF90CF90BF90AF909F9026
:100C80008F9008950F931F93CF93DF9300E020E0A0
:100C900040E060E081E594E00E941A2C8FE294E04D
:100CA0000E9466028BE597E09093CA028093C90286
:100CB0008BEC92E00E94102C1092350310923603B8
:100CC00087E393E00E94161982E593E00E94B9162B
:100CD00080EE9BEA9093600380935F0381E693E04C
:100CE0000E946F211092FE0380E894E8AEE1B0E02C
:100CF0008093AA029093AB02A093AC02B093AD0292
:100D00008AE08093AE021092B9021092BA02109259
:100D1000BB021092BC021092BD021092BE02109251
:100D2000BF021092C0028EE090E00E94642CEC01A1
:100D300067E00E94E21ED093B002C093AF0249E088
:100D400050E068E070E08CE992E00E94AE1F1092E3
:100D50009902C0E7D2E014E1188382E180936F0228
:100D600060E00E94EB2961E088810E94EB2961E04C
:100D700088810E94242A10926E0285E180934402A9
:100D80001093450283E18093430260E00E94EB29C7
:100D90001092420287E18093190260E0DF91CF91C7
:100DA0001F910F910C94EB296F927F928F929F92DB
:100DB000AF92BF92CF92DF92EF92FF920F931F9369
:100DC000CF93DF93CDB7DEB766970FB6F894DEBF4B
:100DD0000FBECDBF7C016B0161E08BE00E94EB296F
:100DE00060E08BE00E94242A6AE070E080E090E0FE
:100DF0000E94E22861E08BE00E94242A68EC70E007
:100E000080E090E00E94E2288E010F5F1F4FC80132
:100E10000E94102C80904304909044043E0187E08F
:100E2000680E711C5801801A910AC4018A0D9B1D1D
:100E30000E949F36D5018D935D01A615B705A9F7D0
:100E40004B815C816D817E81F7014483558366838C
:100E50007783B60184E694E00E94B614892B09F4E6
:100E600072C081E0F701EB5CFE4F808380E1EFE22E
:100E7000F4E0D80101900D928A95E1F7A7014A5C50
:100E80005E4FFA016AE3CE0141966C01D8018D9163
:100E90008D01282F22952F7030E02F5C3E4FD90115
:100EA0009C9190838F7090E08F5C9E4FDC018C91C1
:100EB00081836283CF0103969C01241B350B213370
:100EC000310528F40C151D0518F4FC01DFCFCF0106
:100ED000FC013197108243E064E089E190E00E94D8
:100EE000981B48EE64E08AE190E00E94981B43E082
:100EF00064E08BE190E00E94981BF701EA56FF4FF7
:100F000060817181C70182599F4F0E94E318F701E8
:100F10004081518181EB91E09A8B898B048115810D
:100F2000268137810B8B1C8B2D8B3E8BB601C70125
:100F300088569F4F0E942D27B70167577F4F0E9409
:100F4000462781E001C080E066960FB6F894DEBFC8
:100F50000FBECDBFDF91CF911F910F91FF90EF900A
:100F6000DF90CF90BF90AF909F908F907F906F90C9
:100F7000089540E052EC61E070E08CEA94E00E9459
:100F8000B32B62E080E00E94EB298091C1028111C5
:100F900017C080E090E0A0E4B1E48093C801909392
:100FA000C901A093CA01B093CB011092CC016AE0B1
:100FB00070E080E090E00E94E22881E08093C1022E
:100FC00061E08DE00E94EB298091CC01811118C075
:100FD00062E083E00E94EB2981E08093CC010E94D3
:100FE000BF286093CD017093CE018093CF01909381
:100FF000D00142E050E06BEB71E080E00E945627A8
:1010000084EC91E090939B0280939A0267E474E0F1
:1010100089EC92E00C94D4064F925F926F927F928B
:101020008F929F92AF92BF92CF92DF92EF92FF92F8
:101030000F931F93CF93DF93CDB7DEB72E970FB6E5
:10104000F894DEBF0FBECDBF5C0184E694E00E9441
:101050004315750188E9E80EF11CC7010E94382587
:1010600065019EE6C90ED11CC6010E949218069722
:1010700009F0A2C0F501E158FF4F40803196508041
:101080003196608031967080D601ED91FC918E0191
:10109000095F1F4F008CF18DE02D46E050E0B80154
:1010A000C60109958F81833709F086C08A8582370A
:1010B00009F082C0F501848184110AC085818511FF
:1010C00007C08681861104C08781871509F474C022
:1010D000C7010E944823D5014D915C91B1EB8B2E45
:1010E000B1E09B2E9A8289824B825C826D827E82E5
:1010F000BE016F5F7F4FC7010E942D276501BAECCB
:10110000CB1ABEEFDB0AB601C7010E941F25882358
:10111000C9F162E471E0C50187579F4F0E94BC2C62
:10112000D50114964C92149715965C9215971696C5
:101130006C92169717967C9217979A8289821496CA
:101140008D919D910D90BC91A02D8B839C83AD833F
:10115000BE83C0904304D0904404FE0131967F01C9
:10116000CE1ADF0AC6018E0D9F1DD7016D917D013C
:101170009E878D87CE010D960E941102E016F10622
:1011800089F71AC0C7010E944823F50140815181A7
:101190009A82898204811581268137810B831C8381
:1011A0002D833E83BE016F5F7F4FC7010E942D27B5
:1011B000B601C7010E941F252E960FB6F894DEBF18
:1011C0000FBECDBFDF91CF911F910F91FF90EF9098
:1011D000DF90CF90BF90AF909F908F907F906F9057
:1011E0005F904F9008954F925F926F927F928F928F
:1011F0009F92AF92BF92CF92DF92EF92FF920F93A6
:101200001F93CF93DF93CDB7DEB7C155D1090FB68A
:10121000F894DEBF0FBECDBF89EC92E00E940C08AF
:101220000E94BF28C090A202D090A302E090A40226
:10123000F090A5026C197D098E099F096135734CE8
:101240008105910508F471C00E94BF286093A20235
:101250007093A3028093A4029093A5020091990237
:1012600010E080916F020E947D29F801EE0FFF1FB0
:10127000EF58FD4F918380838091990290E0019611
:1012800004E110E0B8010E9477348093990260E095
:10129000809145020E94242A61E070E080E090E0A5
:1012A0000E94E22861E0809144020E94242A61E0C9
:1012B00070E080E090E00E94E228E0906E02F12C65
:1012C000809143020E947D29F701EE0FFF1FED5B25
:1012D000FD4F9483838380916E0290E00196B80164
:1012E0000E94773480936E0260E0809144020E94F5
:1012F000242A61E0809145020E94242AE090420263
:10130000F12C809119020E947D29F701EE0FFF1F39
:10131000E75EFD4F928381838091420290E00196C7
:10132000B8010E947734809342020E94BF28C09087
:10133000A602D090A702E090A802F090A9026C1932
:101340007D098E099F09613472448F40910508F42C
:10135000D5C10E94BF286093A6027093A702809314
:10136000A8029093A9020E94BF288CE992E00E94F3
:10137000ED206093D1017093D2018093D3019093BB
:10138000D4011092D5011092D6011092D70110927B
:10139000D80185E08093D9018CE992E00E94D620A3
:1013A0006093DA017093DB018093DC019093DD019F
:1013B0001092DE011092DF011092E0011092E10123
:1013C00086E08093E201A0909A02B0909B020E9476
:1013D000BF28F8940E94BF286B017C01F501608151
:1013E000718182819381108211821282138278949A
:1013F000F5014184528463847484A7019601241901
:1014000035094609570929013A010E945E33F50161
:1014100024813581468157810E94C532F501C186FC
:10142000D286E386F4866093E3017093E4018093AF
:10143000E5019093E6014092E7015092E801609245
:10144000E9017092EA0180E18093EB011092F001D2
:101450001092F1011092F2011092F30183E1809356
:10146000F40180E00E945A2A24E6AC01249FC001C6
:10147000259F900D1124BC01882777FD8095982F1A
:101480000E9460336093EC017093ED018093EE0154
:101490009093EF016AEA72E0CE01875B9F4F0E9452
:1014A000F00289E0FE01E75BFF4FA5EFB1E001909C
:1014B0000D928A95E1F7E1E7F2E060E070E0CB01A0
:1014C00021913191620F731F811D911D52E0E93905
:1014D000F507B1F724E130E040E050E00E948B34A2
:1014E000CA01B9010E945E3320E030E44CE950E4C7
:1014F0000E9414349B01AC0160E070EB83E195E441
:101500000E945C3220E030E042E852E40E94C532A2
:1015100020E030E040EE50E40E945D326093FE0136
:101520007093FF01809300029093010280E492E4A3
:10153000AFE0B0E08093020290930302A093040214
:10154000B093050284E0809306028090F5019090AC
:10155000F601A090F701B090F801E6E4F2E060E057
:1015600070E0CB0121913191620F731F811D911D9C
:1015700022E0EE36F207B1F724E130E040E050E03F
:101580000E948B34CA01B9010E945E33AB01BC01D9
:1015900083E492E00E9455040E9432330E945E333D
:1015A0002DE836EE4BE551E40E945C329B01AC0124
:1015B00060E27EE987E899E40E94C5326B017C0114
:1015C00020E030E048EC51E4C501B4010E945C32F7
:1015D00020E53DE847E95CE30E94143420E030E078
:1015E00040E85FE30E945D329B01AC01C701B60198
:1015F0000E94C53220E030E04AE754E40E94C53240
:1016000060930702709308028093090290930A0284
:1016100080E492E4AFE0B0E080930B0290930C0280
:10162000A0930D02B0930E028DE080930F02EAE1C9
:10163000F2E060E070E0CB0121913191620F731F05
:10164000811D911D32E0E234F307B1F724E130E06F
:1016500040E050E00E948B34CA01B9010E945E3321
:1016600020E030E44CE950E40E94143420E030E003
:101670004AE754E40E94C53260931002709311024D
:10168000809312029093130280E492E4AFE0B0E002
:101690008093140290931502A0931602B093170240
:1016A0008BE08093180281E693E00E9497238823C1
:1016B00041F0AAE1B2E0FE01E65BFF4FCE010296E7
:1016C0000DC081E693E00E9448236FEF73E081E64E
:1016D00093E00E941F25882389F0EBCF2E9122935F
:1016E000E817F907D9F728E430E0AE014F5F5F4F04
:1016F00069E471E081E693E00E942727CF5ADF4F2B
:101700000FB6F894DEBF0FBECDBFDF91CF911F9112
:101710000F91FF90EF90DF90CF90BF90AF909F9090
:101720008F907F906F905F904F900895CF93CFB739
:10173000F89480915704811127C0ECE4F2E0849181
:10174000EDE2F2E09491E82FF0E0EE0FFF1FEA588F
:10175000FD4FA591B4918C91892321F461E081E141
:101760000E94242A61E081E10E94EB298CB580610E
:101770008CBD8CB580648CBD61E08FE00E94EB294C
:1017800061E080E10E94EB29809157048F5F809394
:101790005704CFBFCF9108950E9624E1FC0111921A
:1017A0002A95E9F70895CF93DF93EC01625F7F4FAD
:1017B0000E94262CCE01DF91CF910895CF93DF9325
:1017C000EC016E5E7F4F0E94262CCE01DF91CF91FF
:1017D0000895CF93DF93EC016A5E7F4F0E94262C21
:1017E000CE01DF91CF910895CF93DF93EC01625E3C
:1017F0007F4F0E94262CCE01DF91CF91089580E388
:10180000FB0180833296842F82958F7090E1899FAF
:10181000401911244A3014F4405D01C0495C4293E0
:10182000882311F0482FEFCF08950F9300E020E0B8
:1018300040E060E088E594E00E941A2C0F91089542
:101840006F927F928F929F92AF92BF92CF92DF92D0
:10185000EF92FF920F931F93CF93DF93CDB7DEB735
:10186000AC970FB6F894DEBF0FBECDBF7C01862EBD
:10187000B42EA52E20E2922ECE0101966C01FC0121
:10188000292D11922A95E9F70FEF2FEF4FEF6FEF08
:1018900086960E941A2C81EB91E09AA389A389A5D0
:1018A0009AA5ABA5BCA58BA39CA3ADA3BEA38701A2
:1018B000095B1F4F43E450E0BE016F5D7F4FC801DD
:1018C0000E941318019609F4BFC081E089838A83BE
:1018D00086E0782E7B821C82F70164817581868187
:1018E00097810E94D2346D837E838F839887A986E7
:1018F000BA8680E890E09C878B874CE150E0B60187
:10190000C8010E941F18F601292D11922A95E9F7A6
:10191000570188E0A80EB11CF501D60101900D9287
:101920007A94E1F740E150E0B601C8010E941F1827
:10193000F60111929A94E9F796E0692E712C40E233
:1019400050E0B601C8010E941F18F1E06F1A71083B
:10195000B1F783E6898392E89A8393E59B838C832E
:1019600085E38D8381E08E838F829DE3988797E066
:1019700099878A8786E0F501DE011B9601900D921A
:101980008A95E1F78CE0898B8A8B62E571E0CE0164
:1019900043960E949836F7014385BE01675E7F4FEC
:1019A000C7010E94FF0BF7014485BE01655E7F4FB2
:1019B000C7010E94FF0BF7014585BE01635E7F4FA3
:1019C000C7010E94FF0B4EE150E0B601C8010E9422
:1019D0001F18F3E08F121EC082E3898384E08A839C
:1019E000F70196859B8397859C8390899D83918938
:1019F0009E8396E39F838887828D8987838D8A87DC
:101A0000848D8B87858D8C874CE050E0B601C801B2
:101A10000E941F1887E3898386E08A8391E09B8375
:101A200093E09C838D838FE08E838AE38F838BE3A7
:101A300088878FEF898749E050E0B601C8010E948E
:101A40001F18C8010E941B18AC960FB6F894DEBF91
:101A50000FBECDBFDF91CF911F910F91FF90EF90FF
:101A6000DF90CF90BF90AF909F908F907F906F90BE
:101A700008952F923F924F925F926F927F928F9232
:101A80009F92AF92BF92CF92DF92EF92FF920F930D
:101A90001F93CF93DF93CDB7DEB7E3970FB6F894DC
:101AA000DEBF0FBECDBF7C012A013B0169010E9450
:101AB000B3284B015C018701095B1F4FC8010E94DD
:101AC00092181816190694F00E94B328681979091B
:101AD0008A099B094616570668067906F0F062E304
:101AE00070E080E090E00E94E228E8CF42E250E01F
:101AF000BE016F5F7F4FC8010E945C1889818230F0
:101B000031F4F801858996898334910541F019A64D
:101B1000C8010E94EC1789A566C18FEF64C16D8171
:101B20007E818F8198850E94D2344B015C01F60141
:101B3000608371838283938346E050E0B701685FDE
:101B40007F4FCE014D960E948B36892B99F4F70179
:101B500080819181A281B38188169906AA06BB066D
:101B600048F084819581A681B78188159905AA05D9
:101B7000BB0528F4C8010E94EC1780E034C18989B4
:101B80009A89AB89BC89F70186879787A08BB18B2F
:101B90003EECC32ED12CC8010E943318F1E0CF1ABD
:101BA000D108C9F719A6C70182969BA78AA7F70192
:101BB000B696FDA7ECA708969FA78EA73C976F0146
:101BC0008E9699AB88AB3897FBABEAAB5701F6E141
:101BD000AF0EB11C47018EE1880E911CC8010E9416
:101BE000D217181619060CF093CFC8010E943318AB
:101BF0008333910509F4CDC0F4F481309105B9F136
:101C00001CF4892B59F3DFC083309105C1F106978D
:101C100009F0D9C0C8010E9433183C0144E050E0EB
:101C2000B401C8010E945C18212C312C7724F4E007
:101C30006F1A71083FC08A33910509F47EC03CF4E5
:101C40008533910561F0C69709F43FC0BCC08B3362
:101C5000910509F488C08F3F910501F2B4C0C80115
:101C60000E943318C8010E94331889A7B7CFC80152
:101C70000E94331844E050E06AA97BA93AC0C80129
:101C80000E9433183C0144E050E0B501C8010E94B5
:101C90005C18212C312C772494E0691A71082614E1
:101CA00037040CF09BCFC8010E943318EFEF2E1AB7
:101CB0003E0AF5CF261437040CF090CFC8010E94DD
:101CC00033188FEF281A380AF5CFC8010E9433184D
:101CD000782EF701828D811110C0838D81110DC086
:101CE000848D81110AC0858D811107C044E050E0C8
:101CF000B601C8010E945C1871CFE8A9F9A920803B
:101D0000318042805380B601CE0183960E94262CFA
:101D10008DA19EA1AFA1B8A582159305A405B50517
:101D200029F3212C312C721409F458CFC8010E94D8
:101D30003318FFEF2F1A3F0AF6CFC8010E9433185D
:101D400044E050E06CA57DA5C8010E945C18F70135
:101D500066A177A180A591A50E94D23466A377A33E
:101D600080A791A73BCFC8010E94331844E050E000
:101D70006EA57FA5C8010E945C18F70162A573A536
:101D800084A595A50E94D23462A773A784A795A7BE
:101D900025CFC8010E94331844E050E06AA57BA516
:101DA000C8010E945C18F70162A173A184A195A1EA
:101DB0000E94D23462A373A384A395A366A777A7D6
:101DC00080AB91AB0BCFC8010E943318382E612C29
:101DD000712C361409F402CFC8010E943318FFEFAA
:101DE0006F1A7F0AF6CFE3960FB6F894DEBF0FBEE8
:101DF000CDBFDF91CF911F910F91FF90EF90DF90BA
:101E0000CF90BF90AF909F908F907F906F905F909A
:101E10004F903F902F9008952F923F924F925F9254
:101E20006F927F928F929F92AF92BF92CF92DF92EA
:101E3000EF92FF920F931F93CF93DF93CDB7DEB74F
:101E400027970FB6F894DEBF0FBECDBF8C0120EDF3
:101E500037E040E050E061E070E080E090E00E9418
:101E6000A431D80114966D937D938D939C9317970D
:101E7000F80160837183828393834801F7E48F0EB6
:101E8000911CC4010E94FE1764E470E0C4010E942A
:101E9000E318882309F428C10E94B3286B017C0150
:101EA000A12CB12C1D82180186E4280E311CD8010A
:101EB000DE96BF83AE8338EE432E33E0532E612C83
:101EC000712CF1018081833009F4FDC081111FC0A4
:101ED000F80184819581A681B7810196A11DB11D6C
:101EE00084839583A683B7830E94B3286C197D09E8
:101EF0008E099F09A30192010E948B34A90161E020
:101F0000C8010E94200C81E0D1018C93BEC08430B6
:101F1000F9F4F80184819581A681B7810196A11D0C
:101F2000B11D84839583A683B7830E94B3286C195F
:101F30007D098E099F09A30192010E948B34A9019A
:101F400063E0C8010E94200CE2E0D101EC939DC047
:101F5000813061F5AE81BF814D915D916D917C9134
:101F60009E012F5F3F4FC8010E94390D8D83823043
:101F700009F08BC089819A81AB81BC81F80184838F
:101F80009583A683B7830E94B3286C197D098E09B7
:101F90009F09A30192010E948B34A90163E0C8014B
:101FA0000E94200CED81D101EC9375C0823009F0C4
:101FB0006CC0AE81BF814D915D916D917C919E0110
:101FC0002F5F3F4FC8010E94390D8D83853009F086
:101FD00056C083E0F1018083F80182A193A1A4A1FE
:101FE000B5A1892B8A2B8B2B41F484E893E0A0E0E8
:101FF000B0E082A393A3A4A3B5A3F80186A197A1FF
:10200000A0A5B1A5892B8A2B8B2B61F482A193A16A
:10201000A4A1B5A1B695A7959795879586A397A3F3
:10202000A0A7B1A7D8019A964D915D916D917C9131
:102030009D9796968D919D910D90BC91A02D452BCD
:10204000462B472B59F4AC01BD01440F551F661FA9
:10205000771FF80142A753A764A775A7F80186A7C1
:1020600097A7A0ABB1AB82A593A5A4A5B5A582AB5C
:1020700093ABA4ABB5ABAA24A394B12C0CC0FD8147
:10208000F63019F4D1011C9206C0BD81BF3F19F48E
:10209000F10110821D82F1E0AF16B10409F411CFF5
:1020A0000E94B3286C197D098E099F09D801DA9620
:1020B0002D913D914D915C91DD972617370748078B
:1020C000590708F0FECEC4010E94FE17F801848172
:1020D0009581A681B7810196A11DB11D8483958349
:1020E000A683B783C50102C080E090E027960FB6B3
:1020F000F894DEBF0FBECDBFDF91CF911F910F913E
:10210000FF90EF90DF90CF90BF90AF909F908F9017
:102110007F906F905F904F903F902F900895CF9257
:10212000DF92EF92FF920F931F93CF93DF93EC0117
:102130006B011AA21BA21CA21DA21EA21FA218A6FE
:1021400019A61AA61BA61CA61DA61EAA1FAA18AE73
:1021500019AE2AAF3BAF4CAF5DAFFC01FE96E082FB
:10216000F182028313838C01085F1F4F86E0F80120
:1021700011928A95E9F7CE010E94CC0B86E0F60118
:10218000D80101900D928A95E1F7FE01EA5BFF4FBD
:102190001082CE01DF91CF911F910F91FF90EF90B0
:1021A000DF90CF900C940C0F8F929F92AF92BF92C2
:1021B000CF92DF92EF92FF920F931F93CF93DF9313
:1021C000EC010E94B3286B017C018EA99FA9A8ADE8
:1021D000B9AD8E010E5B1F4F892B8A2B8B2B09F417
:1021E0008FC0F80180819181A281B381A7019601FE
:1021F000281B390B4A0B5B0BCA01B90157FD4EC0B6
:102200004601570138EE830E33E0931EA11CB11C2A
:1022100028EE33E040E050E00E94AD34861A970A81
:10222000A80AB90AF80180829182A282B382DA01F7
:10223000C9010196A11DB11D4EA55FA568A979A987
:102240008C019D01000F111F221F331F40175107E2
:10225000620773072CF41EA61FA618AA19AA08C0A5
:10226000481B590B6A0B7B0B4EA75FA768AB79AB7A
:102270004AA95BA96CA97DA940175107620773079A
:102280002CF41AAA1BAA1CAA1DAA08C0481B590B89
:102290006A0B7B0B4AAB5BAB6CAB7DAB8E010A5B15
:1022A0001F4FF8018081833081F48EA59FA5A8A9D6
:1022B000B9A9181619061A061B063CF084E080839B
:1022C000CE010E940C0F019602C080E090E0F80160
:1022D0002081233011F0211120C04AA95BA96CA9EB
:1022E0007DA91416150616061706BCF0F801108213
:1022F000CE010E94CC0BCE010E940C0F03960DC0A4
:10230000D701C60188519C4FAF4FBF4FF801808362
:102310009183A283B38380E090E0CEAADFAAE8AEE7
:10232000F9AEDF91CF911F910F91FF90EF90DF9069
:10233000CF90BF90AF909F908F900895FB01428106
:10234000538164817581FC01428353836483758367
:10235000178216820895CF93FB0181918111FDCFE1
:10236000FB0180E090E020E030E0CAE0619166236C
:1023700009F12430310564F56E3271F48F3F910517
:1023800009F034F5DA01A20FB31F12968C932F5F78
:102390003F4F80E090E0EACFDC01CA9FC001CB9FB5
:1023A000900D1124772767FD709560537109860F92
:1023B000971FDCCF8F3F910509F054F4243031058D
:1023C0003CF4FA01E20FF31F828381E090E002C047
:1023D00080E090E0CF9108950F9300E020E040E08E
:1023E00060E08EE594E00E941A2C0F910895AF9260
:1023F000BF92CF92DF92EF92FF920F931F93CF93F2
:10240000DF9300D01F92CDB7DEB76C017B010E9435
:10241000B328F601778366838601085F1F4FB601F4
:102420006A5F7F4F42E050E0C8010E941F1881E0C0
:1024300090E09A83898342E050E0BE016F5F7F4F56
:10244000C8010E941F1880E091E09A83898342E0CE
:1024500050E0BE016F5F7F4FC8010E941F181A82B3
:10246000198242E050E0BE016F5F7F4FC8010E94B9
:102470001F1842E050E0BE016F5F7F4FC8010E940D
:102480001F1842E050E0BE016F5F7F4FC8010E94FD
:102490001F186701F6018081882311F1F7016F0190
:1024A0008191811115C05601AE18BF081A141B0482
:1024B00094F4AB8241E050E0BE016D5F7F4FC801F4
:1024C0000E941F18A501B701C8010E941F1803C070
:1024D0008E3229F7E8CF7601FFEFEF1AFF0ADACF45
:1024E0001B8241E050E0BE016D5F7F4FC8010E943A
:1024F0001F18E12CFF24F394FA82E98242E050E0B5
:10250000BE016F5F7F4FC8010E941F18FA82E982E7
:1025100042E050E0BE016F5F7F4FC8010E941F186C
:1025200081E090E00F900F900F90DF91CF911F917D
:102530000F91FF90EF90DF90CF90BF90AF900895F4
:102540004F925F926F927F928F929F92AF92BF92C3
:10255000CF92DF92EF92FF920F931F93CF93DF936F
:10256000CDB7DEB763970FB6F894DEBF0FBECDBF11
:102570007C015B016A010E94B3282B013C018701A9
:10258000085F1F4F4501A12CB12CC8010E94921871
:102590001816190694F00E94B32864197509860963
:1025A000970986169706A806B906D0F062E370E090
:1025B00080E090E00E94E228E8CFF7014281538159
:1025C00064817581818D928DA38DB48D48175907D3
:1025D0006A077B0741F4858D968DC59721F406C067
:1025E0008FEF9FEFF9C08EEF9FEFF6C0C8010E94FA
:1025F000D2170C970CF4EEC04CE050E0BE016F5FB8
:102600007F4FC8010E945C188B819C819827892785
:1026100098279A8B898BF7014681578129813A81C6
:102620004217530711F497FD06C0C8010E94EC172A
:102630008CEF9FEFD1C08F709270892B31F0C80161
:102640000E94EC178BEF9FEFC7C0AF80B884BA240D
:10265000AB24BA24A114B10419F0E12CF12C23C04D
:10266000C8010E94EC178AEF9FEFB6C041E050E02E
:10267000BE01635F7F4FC8010E945C188D85811188
:102680001BC08D858111F2CFC8010E943318C8018B
:102690000E943318C8010E943318C8010E943318E1
:1026A000FFEFEF1AFF0A8D819E81982789279827CF
:1026B000E816F906D8F20AC08D859FEF980F9D871E
:1026C0008823F9F2C8010E943318F6CFE12CF12CCF
:1026D00041E050E0BE016D5E7F4FC8010E945C1872
:1026E0008B89982F907C61F4882371F08B899FEF00
:1026F000980F9B8B882341F0C8010E943318F6CFB6
:10270000C8010E9433181B8A8B898111E1CF42E0F6
:1027100050E0BE01615F7F4FC8010E945C1842E03B
:1027200050E0BE01635F7F4FC8010E945C18C80182
:102730000E943318C8010E943318C8010E94331840
:10274000C8010E94331842E050E0BE016F5E7F4F27
:10275000C8010E945C188F8598898115914029F4E1
:102760008D859E858115914019F0812C912C16C084
:1027700089899A898115944031F0C8010E94EC172B
:1027800087EF9FEF29C0B6016E5F7F4F44E050E0B6
:10279000C8010E945C1881E090E01EC089899A8976
:1027A0009827892798278816990638F4C8010E9427
:1027B00033182FEF821A920AF1CF8FEFE81AF80A36
:1027C000EA14FB0409F084CFC8010E94EC1786EFDD
:1027D0009FEF02C08DEF9FEF63960FB6F894DEBFB8
:1027E0000FBECDBFDF91CF911F910F91FF90EF9062
:1027F000DF90CF90BF90AF909F908F907F906F9021
:102800005F904F9008958F929F92AF92BF92CF9218
:10281000DF92EF92FF920F931F93CF93DF9300D03D
:1028200000D000D0CDB7DEB78C015B016A010E94F9
:10283000AB114C01009709F05DC0F8014281538152
:10284000648175818091600490916104A09162041B
:10285000B0916304481759076A077B0709F44EC013
:102860000E94B3287801F8E0EF0EF11C6F70772713
:102870007C5FC7010E94E318813009F043C081EBFF
:1028800091E09A838983F80182819381A481B58143
:102890008B839C83AD83BE8345E350E0BE016F5FB5
:1028A0007F4FC7010E941318892B19F4812C912C9A
:1028B0001DC0B501C8010E94F711892BB9F3C701EA
:1028C0000E941B18892B91F333E0A32EB12CA60193
:1028D00068E873E1C8010E94A0124C01F1E0AF1A50
:1028E000B10821F08F3F2FEF920789F3C7010E94B3
:1028F000FE1708C088248394912C04C09EEF892E73
:1029000099249A94C40126960FB6F894DEBF0FBEA0
:10291000CDBFDF91CF911F910F91FF90EF90DF908E
:10292000CF90BF90AF909F908F90089524E030E0BB
:10293000AC0164E081E090E00C94E11B24E030E025
:10294000AC0164E085E090E00C94E11B26E030E00F
:10295000AC0164E089E090E00C94E11B24E030E0FD
:10296000AC0164E08FE090E00C94E11BAF92BF9269
:10297000CF92DF92EF92FF920F931F93CF93DF934B
:1029800000D000D000D0CDB7DEB76C015B0182E68D
:1029900090E00E94642C8C0182E6F80111928A95E5
:1029A000E9F7C801895B9F4F0E941619F60117834A
:1029B00006838CE994E00E94BE1BC5010E94A61408
:1029C00000E020E040E060E0CE0101960E941A2C79
:1029D000CE0103960E94AE1418E8E12E13E1F12E09
:1029E00000E010E020E63AEE40E050E0B501F601EC
:1029F000868197810E948F108C018130910589F525
:102A0000F60166817781CE0101960E94D30BCE013B
:102A100003960E94AE14F60166817781CE0101967D
:102A20000E94E90BCE0103960E949614F60166817E
:102A30007781CE0101960E94DE0BCE0103960E94A3
:102A40009E14F60166817781CE0101960E94F40BF7
:102A50004B815C816D817E81F60142835383648367
:102A60007583C80126960FB6F894DEBF0FBECDBFA2
:102A7000DF91CF911F910F91FF90EF90DF90CF905A
:102A8000BF90AF900895EF92FF920F931F93CF9353
:102A9000DF9300D000D000D0CDB7DEB78C01FC01B1
:102AA000868197810097E1F10E94D4107C018230E9
:102AB000910521F084E0E816F104A1F5F8016681A2
:102AC0007781CE0101960E94D30BCE0103960E941E
:102AD000AE14F80166817781CE0101960E94E90B60
:102AE000CE0103960E949614F80166817781CE018B
:102AF00001960E94DE0BCE0103960E949E14F801FF
:102B000066817781CE0101960E94F40B4B815C8136
:102B10006D817E81F801428353836483758302C093
:102B2000E12CF12CC70126960FB6F894DEBF0FBE3C
:102B3000CDBFDF91CF911F910F91FF90EF9008953E
:102B400021EB31E0FC0131832083FB014281538181
:102B500064817581FC014283538364837583089586
:102B60000F9300E020E040E060E08CE794E00E94FA
:102B70001A2C84E694E00F910C94102CDC01ED915A
:102B8000FC91008CF18DE02D099591E08927089545
:102B9000CF93DF931F92CDB7DEB76983DC01ED9150
:102BA000FC910280F381E02D41E050E0BE016F5FB7
:102BB0007F4F09950F90DF91CF91089521E0FC019F
:102BC0008485883009F420E0822F0895FC019485E3
:102BD000FB018485981303C081E0983009F480E0FC
:102BE00008950F931F93CF93DF93EC018A018C8597
:102BF000883021F00E94731A892B39F481E090E02B
:102C00009B838A8380E090E001C0C801DF91CF916F
:102C10001F910F910895FC016485683021F08CE9C3
:102C200094E00C948F1C80E090E00895CF93DF93A4
:102C30001F92CDB7DEB741E050E0BE016F5F7F4F1E
:102C4000FC0184850E94C51A181619061CF4898196
:102C500090E002C08FEF9FEF0F90DF91CF9108952A
:102C6000FC0184850C94C51A0F931F93CF93DF93B7
:102C70001F92CDB7DEB78C01DC01ED91FC91048091
:102C8000F581E02D0995892B51F0BE016F5F7F4FD3
:102C9000F80184850E94091B898190E002C08FEFB2
:102CA0009FEF0F90DF91CF911F910F910895FC013D
:102CB00084850C94171BCF92DF92EF92FF920F93B3
:102CC0001F93CF93DF93CDB7DEB7AF970FB6F894CE
:102CD000DEBF0FBECDBF7C018B016A01CE01019624
:102CE0000E94102CCE0109960E941619CE018A96D8
:102CF0000E94102C64E674E0CE0184960E94A01518
:102D0000BE016C5D7F4FCE0101960E949E11AE0107
:102D1000465D5F4FB801CE0101960E9403148130D9
:102D20009105C1F4D701ED91FC910484F585E02D66
:102D300081EB91E09DA38CA30CA51DA52EA53FA51D
:102D40000EA31FA328A739A7A601BE016C5D7F4F64
:102D5000C7010995AF960FB6F894DEBF0FBECDBF81
:102D6000DF91CF911F910F91FF90EF90DF90CF9067
:102D70000895FC011382128248EE53E060E070E097
:102D800044835583668377838DE591E091838083C7
:102D900088E084870895FC016485683041F062957D
:102DA000660F607E685F83E090E00C941F1C80E0FB
:102DB0000895DF92EF92FF920F931F93CF93DF93CB
:102DC000EC017B018A018C85883009F04BC0D12C45
:102DD0006D2D6295660F607E685F83E090E00E94D3
:102DE0001F1C811102C0DC8607C08B7F8831D9F39C
:102DF000D39488E0D812ECCF8C85883099F120915B
:102E00000A0130910B012F5F3F4F11F420E034E0B5
:102E100030930B0120930A0140910A0150910B015C
:102E200020E061E00E94F619B7016E5F7F4FA801B4
:102E30008C850E94361A811103C088E08C8712C0ED
:102E4000CE010E94CB16873151F061E070E080E046
:102E500090E00E94E228CE010E94CB16ECCF81E0E8
:102E600090E002C080E090E0DF91CF911F910F9140
:102E7000FF90EF90DF900895CF92DF92EF92FF9254
:102E8000CF93DF93EC018C85883081F10E946C1A1E
:102E90000E94B3286B017C01CE010E94CB168823CF
:102EA00059F00E94B3286C197D098E099F09683E6C
:102EB00073408105910598F0CE010E94CB168823BE
:102EC00019F08C850E94E819EC85F0E0EE0FFF1FE9
:102ED000E459FB4F1182108288E08C8707C061E0C3
:102EE00070E080E090E00E94E228D6CFDF91CF91A1
:102EF000FF90EF90DF90CF900895CF93DF93EC0198
:102F00008C858830D1F0CE010E94CB168431A9F097
:102F1000882399F0883189F08C3169F4E881F9814E
:102F20000480F581E02DCE01099521E0892B09F47B
:102F300020E0822F03C081E001C080E0DF91CF91CB
:102F400008950F9300E020E040E060E082E894E024
:102F50000E941A2C0F9108950F9300E020E040E0AA
:102F600060E088E894E00E941A2C0F910895DC013B
:102F7000ED91FC91008CF18DE02D099421EB31E075
:102F8000FC0131832083FB01418952896389748963
:102F9000FC0142835383648375830895FC01858912
:102FA00096890895FC01818D928D0895CF93DF93CA
:102FB0001F92CDB7DEB76983DC01ED91FC910280F1
:102FC000F381E02D41E050E0BE016F5F7F4F099536
:102FD0000F90DF91CF910895CF93DF93EC01898D0E
:102FE0009A8D892B41F0E881F9810680F781E02DE7
:102FF000CE010995F4CFDF91CF910895CF93DF9360
:10300000EC018C85883061F00E94E819EC85F0E0D5
:10301000EE0FFF1FE459FB4F1182108288E08C876E
:10302000DF91CF910895FC01108E178A6E5F7F4F5C
:1030300084850C94461BFC0184850C946B1BCF93F8
:10304000DF93EC019A018F89988DAB01BC018C85CF
:103050000E94181B2F89388D280F391F388F2F8B0E
:10306000DF91CF9108950F931F93CF93DF931F921A
:10307000CDB7DEB78C01FC01818D928D892B59F083
:1030800041E050E0BE016F5F7F4F84850E94C51A0A
:10309000181619061CF08FEF9FEF08C0F801818DFC
:1030A000928D0197928F818F898190E00F90DF91AF
:1030B000CF911F910F910895CF93DF93EC01898DEC
:1030C0009A8D009719F48FEF9FEF10C0481759079A
:1030D00008F0AC018C850E94C51A181619069CF7D9
:1030E000298D3A8D281B390B3A8F298FDF91CF918B
:1030F0000895CF93DF931F92CDB7DEB7FC01218DEA
:10310000328D232B49F0BE016F5F7F4F84850E9473
:10311000091B898190E002C08FEF9FEF0F90DF9134
:10312000CF9108950F931F93CF93DF93CDB7DEB761
:1031300028970FB6F894DEBF0FBECDBF8C01DC011F
:10314000ED91FC910284F385E02D0995F8016485E9
:103150008CE994E00E948F1C892B41F148E050E0FB
:10316000BE016F5F7F4FD8011C968C910E94C51ADB
:1031700018161906ECF4BE016F5F7F4FC8010F9659
:103180000E94362C8D8190E0982F88272E81820F07
:10319000911DF801968B858B8F8190E0982F882761
:1031A0002885820F911D928F818F02C080E090E070
:1031B00028960FB6F894DEBF0FBECDBFDF91CF913A
:1031C0001F910F910895FF920F931F93CF93DF9359
:1031D000EC018B018C85883011F5F12C6F2D6295F7
:1031E000660F607E685F83E090E00E941F1C811183
:1031F00002C0FC8606C08831E1F3F39488E0F8123F
:10320000EDCF8C85883059F01E870D871A8E198E68
:1032100020E0A80162E00E94F61981E001C080E090
:10322000DF91CF911F910F91FF900895FC011382C0
:10323000128248EE53E060E070E044835583668379
:1032400077838DE791E09183808388E08487CF0145
:103250000F960C94102CCF92DF92EF92FF920F9367
:103260001F93CF93DF93CDB7DEB7AF970FB6F89428
:10327000DEBF0FBECDBF7C018B016A01CE0101967E
:103280000E94102CCE0109960E941619CE018A9632
:103290000E94102C64E674E0CE0184960E94A01572
:1032A000BE016C5D7F4FCE0101960E949E11AE0162
:1032B000465D5F4FB801CE0101960E940314813034
:1032C0009105C1F4D701ED91FC910088F189E02DC1
:1032D00081EB91E09DA38CA30CA51DA52EA53FA578
:1032E0000EA31FA328A739A7A601BE016C5D7F4FBF
:1032F000C7010995AF960FB6F894DEBF0FBECDBFDC
:10330000DF91CF911F910F91FF90EF90DF90CF90C1
:1033100008950F9300E020E040E060E08EE894E044
:103320000E941A2C0F9108950F9300E020E040E0D6
:1033300060E084E994E00E941A2C0F910895AB019B
:10334000682F6295660F607E645F24E030E08CE059
:1033500090E00C94E11B9B01682F6295660F607EE4
:10336000685FC9010C941F1C62E070E00C94AB19FB
:103370009B01682F6295660F607E645FC9010C94A3
:10338000981BCF93DF93C82FD62F472F64E070E0B0
:103390000E94B8194D2F65E070E08C2FDF91CF911E
:1033A0000C94B819462F62E070E00C94B819CF93D2
:1033B000DF93C82FD62F472F60E170E00E94B81925
:1033C0004D2F61E170E08C2FDF91CF910C94B819F3
:1033D000CF93C82F40E150E0682F8CE994E00E9421
:1033E0009D1D6FEF8C2FCF910C94D219EF92FF920D
:1033F0001F93CF93DF9300D0CDB7DEB7182F7A019C
:103400008FEF860F853048F5812F2A8369830E94CC
:10341000E8192A816981462F422B60E070E0812FF4
:103420000E94B819E114F10411F0B7010AC06091CB
:103430009A0470919B046F5F7F4F70939B0460931D
:103440009A04812F0E94C11941E050E0612F8CE95C
:1034500094E00E949D1D81E001C080E00F900F90DC
:10346000DF91CF911F91FF90EF9008951F93CF931D
:10347000DF93182FFB01EA0180818F3F51F4818196
:103480008F3F91F482818F3F79F483818F3F61F484
:103490001EC0811109C08181811106C08281811104
:1034A00003C08381882399F0209789F0BF01812F81
:1034B0000E949F19BE01812F0E94D71944E050E05D
:1034C000612F8CE994E00E949D1D81E001C080E0A5
:1034D000DF91CF911F91089548E050E0682F8CE96B
:1034E00094E00C949D1DDF92EF92FF920F931F9337
:1034F000CF93DF93D82E8B01EA01413088E0580743
:1035000010F0C0E0D8E06D2D8CE994E00E945A1CC8
:103510007C0163E070E08D2D0E94AB19873111F0C2
:103520008C3121F4EC16FD0670F302C0C0E0D0E04F
:103530009E01A8016D2D8CE994E00E94E91C40E2F7
:1035400050E06D2D8CE994E00E949D1D8D2D0E9410
:10355000B41984FD0DC063E070E08D2D0E94AB199D
:103560008111F4CF8D2D0E94E81980E090E005C014
:1035700060E18D2D0E94D219CE01DF91CF911F9174
:103580000F91FF90EF90DF900895DF92EF92FF92FE
:103590000F931F93CF93DF93D82E7B018A01682F5F
:1035A0008CE994E00E948F1CEC01009799F463E091
:1035B00070E08D2D0E94AB19843111F1882301F147
:1035C000C1E0D0E08C3111F4C0E0D0E0D195C195DC
:1035D000D10916C0081719070CF4E8011C161D06BE
:1035E0007CF400E09E01A7016D2D8CE994E00E941F
:1035F0004C1D40E450E06D2D8CE994E00E949D1D2F
:10360000CE01DF91CF911F910F91FF90EF90DF904E
:1036100008950F93AB0101E021E030E0682F8CE9C1
:1036200094E00E944C1D81E090E00F910895089570
:10363000BF92CF92DF92EF92FF920F931F93CF939F
:10364000DF93B82E7B016A01E901682F8CE994E0D1
:103650000E945A1C8C179D0730F46B2D8CE994E066
:103660000E945A1CEC018E019601A7016B2D8CE97A
:1036700094E00E94AB1CCE01DF91CF911F910F917E
:10368000FF90EF90DF90CF90BF9008951F93CF935E
:10369000DF93182FFB01EA018081811109C081812C
:1036A000811106C08281811103C08381882369F062
:1036B000209759F0BF01812F0E949F19BE01812FD1
:1036C0000E94D71981E090E002C080E090E0DF9195
:1036D000CF911F910895CF93C82F40E250E0682FFB
:1036E0008CE994E00E949D1D8C2F0E94B41984FDEA
:1036F0000CC08C2F0E94B41983FFF6CF68E18C2F89
:103700000E94D21980E090E006C060E18C2F0E94F8
:10371000D21981E090E0CF9108958EBD00000DB4E4
:1037200007FEFDCF8EB508952E9808952E9A089520
:103730001F93CF93DF9300D01F92CDB7DEB7182F22
:103740004B836A8399830E94941B9981892F0E94DD
:103750008D1B812F0E948D1B6A81862F0E948D1BDD
:103760004B81842F0E948D1B0E94961B81E00F903D
:103770000F900F90DF91CF911F910895CF93DF931A
:1037800068EE73E080E090E00E94E228269A0E94B2
:10379000960BC0E0DC2FD295DD0FD07ED45F42E0E7
:1037A0006D2F8EE190E00E94981B42E06D2F8FE11B
:1037B00090E00E94981BCF5FC83061F7DF91CF91F6
:1037C0000895CF92DF92EF92FF920F931F93CF93C2
:1037D000DF9300D000D0CDB7DEB7F82E89014B8340
:1037E0005C836A8399830E94941B89810E948D1B4C
:1037F0008F2D0E948D1B6A81862F0E948D1B4B810D
:10380000C42E5C81D52E7601E00EF11ECE14DF04AD
:1038100031F0F60181916F010E948D1BF7CF0E945C
:10382000961BC8010F900F900F900F90DF91CF91D2
:103830001F910F91FF90EF90DF90CF9008951F930D
:10384000CF93DF9300D0CDB7DEB7182F6A8399836B
:103850000E94941B89810E948D1B812F0E948D1BC9
:103860006A81862F0E948D1B80E00E948D1B8983B8
:103870000E94961B89810F900F90DF91CF911F912D
:1038800008951F93CF93DF93182F60E270E00E949A
:10389000AB19C82FD0E0DC2FCC2761E270E0812F7C
:1038A0000E94AB199E01280F311DC901DF91CF91F4
:1038B0001F910895FF920F931F93CF93DF93F62EDE
:1038C000C0E0D0E08F2D0E94411C8C01009721F0B8
:1038D0008F2D0E94411CEC01C017D10799F7CE0132
:1038E000DF91CF911F910F91FF9008951F93CF9378
:1038F000DF93182F66E270E00E94AB19C82FD0E06A
:10390000DC2FCC2767E270E0812F0E94AB199E016B
:10391000280F311DC901DF91CF911F910895FF92AA
:103920000F931F93CF93DF93F62EC0E0D0E08F2D3F
:103930000E94761C8C01009721F08F2D0E94761C2E
:10394000EC01C017D10799F7CE01DF91CF911F91FC
:103950000F91FF900895CF92DF92EF92FF920F9315
:103960001F93CF93DF93D62EEA01790164E270E0D2
:103970008D2D0E94AB19C82E65E270E08D2D0E943E
:10398000AB19C80FD11D2C2D30E0322F2227C20FCA
:10399000D31F6D2D6295660F607E6C5E9801A70146
:1039A000CE010E94E11BC00FD11F4D2F64E270E0D9
:1039B0008D2D0E94B8194C2F65E270E08D2DDF919E
:1039C000CF911F910F91FF90EF90DF90CF900C94CB
:1039D000B8190F931F9389019A0140E050E00E94AB
:1039E000AB1C1F910F910895CF92DF92EF92FF923F
:1039F0000F931F93CF93DF9300D000D0CDB7DEB7E6
:103A0000F82E89014B835C836A8399830E94941BFF
:103A100089810E948D1B8F2D0E948D1B6A81862FAC
:103A20000E948D1B4B81C42E5C81D52E7601E00E49
:103A3000F11ECE14DF0439F080E00E948D1BF601E8
:103A400081936F01F6CF0E94961BC8010F900F90D3
:103A50000F900F90DF91CF911F910F91FF90EF90FA
:103A6000DF90CF9008950F931F93CF93DF9300D0F3
:103A7000CDB7DEB75A834983A901980189819A811C
:103A80006295660F607E685E0F900F90DF91CF9118
:103A90001F910F910C94F41C8F929F92AF92BF9242
:103AA000CF92DF92EF92FF920F931F93CF93DF930A
:103AB0006C01962E5A017901802E68E270E0892D02
:103AC0000E94AB19C82F69E270E0892D0E94AB19E2
:103AD000D0E0DC2FCC27C80FD11D87019501AE01A6
:103AE000692DC6010E94331D81101AC0CE0DDF1D45
:103AF0004D2F68E270E0892D0E94B8194C2F69E2C1
:103B000070E0892DDF91CF911F910F91FF90EF9081
:103B1000DF90CF90BF90AF909F908F900C94B8198A
:103B2000DF91CF911F910F91FF90EF90DF90CF9099
:103B3000BF90AF909F908F900895CF93C62F61E074
:103B400070E08C2F0E94B81961E070E08C2F0E9409
:103B5000AB198111F9CFCF910895FF920F931F9365
:103B6000CF93DF93FC010081C181D281F8948981D8
:103B7000F02EF0948F21898378941DE7115029F15C
:103B800082E090E00E941C2988818023B9F3F89498
:103B90008A818F218A838981802B8983789480EE22
:103BA00091E00E941C29F89489818F21898386E401
:103BB00090E00E941C298881802311E009F010E028
:103BC00078948AE991E00E941C29812FDF91CF919E
:103BD0001F910F91FF9008951F93CF93DF93FC01E6
:103BE0001081C181D281912F909560FF12C0F8940D
:103BF0008A8189238A838981812B89838AE090E065
:103C00000E941C298A81812B8A83789487E390E023
:103C100011C0F8948A8189238A838981812B8983C1
:103C200081E490E00E941C298A81812B8A83789408
:103C300085E090E0DF91CF911F910C941C290F93A8
:103C40001F93CF93DF93FC011081C181D281F8943F
:103C50008981812B89838A81012F009580238A8322
:103C600083E090E00E941C298981802389838AE077
:103C700090E00E941C29C881789485E390E00E941E
:103C80001C291C2381E009F480E0DF91CF911F9172
:103C90000F910895CF92DF92EF92FF920F931F93AF
:103CA000CF93DF931F92CDB7DEB76C01E62E08E00D
:103CB00010E0FF24F39461E09F2D9E2109F460E061
:103CC000C60149830E94EC1DFF0C01501109498176
:103CD0000115110581F7411115C0F894D60111960F
:103CE000ED91FC91129791818C918095892381832C
:103CF0001196ED91FC91129792818C918095892378
:103D0000828378940F90DF91CF911F910F91FF9054
:103D1000EF90DF90CF900895EF92FF920F931F9353
:103D2000CF93DF938C01C8E0D0E0F12CEE24E39434
:103D3000C8010E941F1E8111FE28EE0C2197C1F7B9
:103D40008F2DDF91CF911F910F91FF90EF900895EC
:103D5000CF92DF92FF920F931F93CF93DF931F9227
:103D6000CDB7DEB78C01F62E40E065E579830E9481
:103D70004A1ECF2C7981D72E88E0F82EF60161916A
:103D80006F0140E0C8010E944A1EFA94B9F70F90F3
:103D9000DF91CF911F910F91FF90DF90CF90089509
:103DA000FC0113861586148627E030E0DF01A20FA0
:103DB000B31F13961C922115310519F021503109BA
:103DC000F5CF08951F93CF93DF93EC01162F60E09A
:103DD000812F0E94EB29612F70E0FB01E45EFD4F13
:103DE000E491E883FB01E55CFD4FE491F0E0EE0F28
:103DF000FF1FE65AFD4F859194919A838983CE01E6
:103E0000DF91CF911F910C94D01EAF92BF92CF92B1
:103E1000DF92EF92FF920F931F93CF93DF931F9246
:103E2000CDB7DEB75C01D62EE72EFC01858581116A
:103E300064C0C50149830E94AD1D4981811105C03F
:103E4000F50113861586148671C0442319F040E0ED
:103E500060EF02C040E06CEEC5010E944A1E01E026
:103E6000F12CC12C11E0C5010E941F1E682FC50155
:103E700069830E941F1E6981613019F48130B9F491
:103E800033C02F2D30E068131BC0F5018385181750
:103E900030F4E20FF31F8381802349F402C0181726
:103EA00031F060E0193058F4F501148708C0F501CD
:103EB000EF0DF11D8381802B838361E009C0C12E4A
:103EC000F501E20FF31F8381902F9095892383835F
:103ED000C5010E94EC1D1F5F000F11F4F39401E077
:103EE000F7E0FF1508F0BFCF113438F0F501C386B5
:103EF000C11009C081E0858706C0F50113861586CB
:103F0000148680E013C0F50183818823B1F3ED2D81
:103F1000FE2D80E090E0D501A80FB91F13962C91DB
:103F20002193019688309105B1F781E00F90DF91E0
:103F3000CF911F910F91FF90EF90DF90CF90BF90A6
:103F4000AF900895DC0180E0615038F0ED91E827F2
:103F5000F0E0EF50FF4F8491F7CF0895FC0171839B
:103F60006083538342830895CF92DF92EF92FF9252
:103F70000F931F93CF93DF93C62ED42E790100E0C9
:103F800010E0C0E0D0E00E151F0594F461E08D2D27
:103F90000E94242ACC0FDD1F8C2D0E945A2AC80FA4
:103FA000D91F60E08D2D0E94242A0F5F1F4FEBCF99
:103FB000CE01DF91CF911F910F91FF90EF90DF9095
:103FC000CF9008951F93CF93DF93162FC42FD22F36
:103FD00061E0842F0E94EB2961E08D2F0E94EB2984
:103FE00061E08C2F0E94242A61E08D2F0E94242AF8
:103FF00060E08C2F0E94242A60E08D2F0E94242AEA
:1040000061E08D2F0E94242A61E08C2F0E94242AD7
:1040100060E08D2F0E94242A212F41E06D2F8C2FEC
:104020000E94832A61E08D2F0E94242A62E08C2F57
:104030000E94EB298C2F0E945A2A60E08D2F0E944B
:10404000242A8C2FDF91CF911F910C945A2A1F9311
:10405000CF93DF93162F62E0812F0E94EB29C8EEE9
:10406000D3E061E070E080E090E00E94E228812FE0
:104070000E945A2A892B11F0219799F7DF91CF914D
:104080001F910895CF92DF92EF92FF920F931F93AB
:10409000CF93DF938C01F62ED72EE42EC52E62E04F
:1040A0008F2D0E94EB2961E08E2D0E94EB2928E0E4
:1040B00030E04E2D5C2D6F2D7D2DC8010E94B41F68
:1040C000D82F80E0C82F61E08F2D0E94EB2961E09E
:1040D0008F2D0E94242A60E08F2D0E94242A61E007
:1040E0008E2D0E94242A60E08E2D0E94242A62E0F8
:1040F0008F2D0E94EB2928E030E04E2D5C2D6F2D96
:104100007D2DC8010E94B41F8C2B9D2BDF91CF9178
:104110001F910F91FF90EF90DF90CF900895CF9374
:10412000DF93D62FC42F61E08D2F0E94EB2961E031
:104130008C2F0E94EB2961E08D2F0E94242A61E0E0
:104140008C2F0E94242A60E08C2FDF91CF910C9459
:10415000242A0F931F93CF93DF93EC012A813B8195
:104160004881598163E070E00E94E21F6881798193
:10417000CE010E9427204A815B8168817981CE012E
:104180000E9442208C014A815B8168817981CE0145
:104190000E948F20B801882777FD8095982F0E9474
:1041A0006033DF91CF911F910F9108950E94A92054
:1041B0000E942D33882777FD8095982F0E946033C9
:1041C0002AE037ED43E25CE30E94143420E030E063
:1041D00040E252E40E945C3208954F925F926F92E7
:1041E0007F928F929F92AF92BF92CF92DF92EF9287
:1041F000FF92CF93DF93EC012A813B814881598163
:1042000065E070E00E94E21F68817981CE010E9422
:1042100027204A815B8168817981CE010E944220FA
:104220007C014A815B8168817981CE010E948F2067
:10423000B701882777FD8095982F0E9460336B0126
:104240007C0124E533EE45E25DE30E94143420E076
:1042500030E040E850E40E945C324B015C0122EA0D
:1042600037EE4BE356EBC701B6010E941434A701A9
:1042700096010E9414349B01AC01C501B4010E9457
:104280005D324B015C01CE010E94D6202B013C0126
:104290002CEA35EC47EA58E3C701B6010E94143412
:1042A0002AE037ED43E25CE30E945D329B01AC0102
:1042B000C301B2010E941434A50194010E945D3231
:1042C000DF91CF91FF90EF90DF90CF90BF90AF90B4
:1042D0009F908F907F906F905F904F900895CF93B5
:1042E000DF93EC0181579F4F0E94102CFE01E55691
:1042F000FF4F8FEF9FEF918380831982188232974F
:1043000011821082C357DF4F19821882DF91CF913B
:104310000895CF92DF92EF92FF920F931F93CF9366
:10432000DF93EC018B010E94B3286B017C01888133
:104330009981DC01ED91FC910480F581E02D0995D6
:10434000892B69F40E94B3286C197D098E099F0995
:1043500068397A438105910550F380E00CC088816B
:104360009981DC01ED91FC910680F781E02D0995A2
:10437000F801808381E0DF91CF911F910F91FF9031
:10438000EF90DF90CF9008950F931F93CF93DF931B
:10439000EA0108811981600F711F0E948921882319
:1043A00031F00F5F1F4F1983088381E001C080E067
:1043B000DF91CF911F910F9108953F924F925F929D
:1043C0006F927F928F929F92AF92BF92CF92DF9225
:1043D000EF92FF920F931F93CF93DF9300D01F9222
:1043E000CDB7DEB78C016B011A8219825C0182E0C5
:1043F000A80EB11CAE014F5F5F4FB501C8010E940E
:10440000C421811103C080E090E0BDC0D8011296A4
:104410009C901B82E12CF12C412C512C32014394B5
:10442000BE016D5F7F4FC8010E948921882359F327
:1044300029813A81C90101969A8389836B81F801A8
:10444000E20FF31F6283462F4F7750E0449D9001A7
:10445000459D300D549D300D1124E20EF31E97E062
:10446000440C551C661C771C9A95D1F767FDD8CF74
:10447000292D207F33243394203309F0312C8150AF
:10448000F6018083332041F1AE014F5F5F4FB501EC
:10449000C8010E94C421882309F4B5CFAE014F5F43
:1044A0005F4FB501C8010E94C421882309F4ABCF36
:1044B000D6018C91F801E80FF11D4380512C542C4A
:1044C00044248481480E511CF801828181FF08C078
:1044D000F2E04F0E511C04C080E0412C512C01C071
:1044E00082E0A82EB12C612C712C480189E9880E3C
:1044F000911CC3018A0D9B1D8E159F05A0F5BE0161
:104500006D5F7F4FC8010E948921882309F47BCF0A
:10451000D4018D919C910097A9F0332099F02981C5
:104520003A8122503109F6014081241B310942169B
:10453000530640F4DC01ED91FC910190F081E02DF7
:104540006B81099589819A818038910528F42B81A6
:10455000F801E80FF91F228301969A838983BFEF40
:104560006B1A7B0AC6CFF801E756FF4F8081918115
:10457000892B39F489819A818138910510F01A824A
:10458000198289819A810F900F900F90DF91CF91BE
:104590001F910F91FF90EF90DF90CF90BF90AF9061
:1045A0009F908F907F906F905F904F903F90089575
:1045B000AF92BF92CF92DF92EF92FF920F931F9331
:1045C000CF93DF9300D000D0CDB7DEB77C01F901E7
:1045D00080E09E2F9F77EE0FEF2FEE1FFF0BF195E0
:1045E000309709F09068A1E0B0E0AC0FBD1FA80FB4
:1045F000B11D9C938F5F309761F7A82EB12CDA0123
:10460000AA19BB0914966C93BE016F5F7F4F80E0BF
:1046100090E04A195B098A159B0554F4FB01D1907F
:10462000BF018A01080F191FF801D5820196F3CF47
:10463000F7018081918189010F5F1F4F0A0D1B1DBA
:10464000FC0120813181F90122813381A801BD0162
:10465000F90109956C010E94B328F701EC57FF4F4F
:10466000608371838283938381E0C016D10609F051
:1046700080E00F900F900F900F90DF91CF911F91DE
:104680000F91FF90EF90DF90CF90BF90AF90089583
:10469000CF93DF93EC0180EE8A831B82DE018D9144
:1046A0009D91BD01DC01ED91FC910280F381E02D33
:1046B00042E050E00995FE01E556FF4F8FEF9FEF76
:1046C0009183808388819981DC01ED91FC9102883E
:1046D000F389E02D09950E94B328FE01EC57FF4FA6
:1046E0006083718382839383C857DF4F68837983A4
:1046F0008A839B83DF91CF910895C9010296DB01E4
:10470000FD01E61BF70B2D91222331F0FA01E80F92
:10471000F91F20830196F4CF9C012E1B3F0B240F21
:10472000351FD9011297FC931196EC930895CF93FE
:10473000DF93EC0188819981009731F1DC01ED91E3
:10474000FC910488F589E02D099581111FC0FE01B7
:10475000E556FF4F80819181892BB1F48DEF9FEF5A
:104760009183808388819981DC01ED91FC910284A1
:10477000F385E02D099588819981DC01ED91FC910B
:104780000288F389E02D099580E001C081E0DF9186
:10479000CF9108952F923F924F925F926F927F92A6
:1047A0008F929F92AF92BF92CF92EF92FF920F9310
:1047B0001F93CF93DF93CDB7DEB72C970FB6F89446
:1047C000DEBF0FBECDBF4C011B012A0139010E9483
:1047D000972381111BC1F401EB56FF4F608171815A
:1047E000D4018D919C911197A956BF4FFC01208156
:1047F00031816115710541F04D915C91D9011E9691
:10480000ED91FC911F971FC0F9010484F585E02DFF
:10481000FC87EB87ED91FC9121EB31E03A83298312
:10482000D401A157BF4F12964D915D916D917C912E
:1048300015974B835C836D837E83AF01BE016F5FF1
:104840007F4FEB85FC850995F4018130910509F0D6
:10485000D5C0EE57FF4F9183808387E0EAE2F1E015
:10486000DE01119601900D928A95E1F7FE013196D5
:1048700080E090E02191D401A80FB91F17962C93E6
:10488000019687309105B1F70115110559F0F0E255
:10489000CF9EC0011124866028E0E29E70011124A1
:1048A0008E2901C082E04114510431F06114710479
:1048B00011F4806801C0806CD4011E968C931E9701
:1048C0001F961C921F978FE050968C937401B2E054
:1048D000EB0EF11C2FE030E0A701B101C4010E94F2
:1048E0007D230115110561F09C01A701B801C401E8
:1048F0000E947D239C01A701B501C4010E947D2374
:104900004114510479F09C01A701B201C4010E9435
:104910007D236114710431F09C01A701B301C4012E
:104920000E947D239C0125503109A70160E1C4014B
:104930000E94D8220E94B328F401EC57FF4F6083F5
:10494000718382839383840108571F4FF80160832A
:10495000718382839383F40180819181DC01ED91E5
:10496000FC910480F581E02D0995892BC1F40E940A
:10497000B328D8014D905D906D907C9064197509B5
:104980008609970968397A438105910520F3F40176
:10499000E556FF4F8CEF9FEF9183808324C0BE01CB
:1049A000685F7F4FC4010E94DD210497E1F4F401A8
:1049B0008581940125563F4F7901811110C00E94D5
:1049C000B328D8016D937D938D939C931397F40135
:1049D000E457FF4F1082F7011182108217C090E058
:1049E000D9018D939C93F40180819181DC01ED913B
:1049F000FC910288F389E02D099506C0E556FF4F2A
:104A00008EEF9FEF9183808380E001C081E02C9640
:104A10000FB6F894DEBF0FBECDBFDF91CF911F91CF
:104A20000F91FF90EF90CF90BF90AF909F908F909D
:104A30007F906F905F904F903F902F900895AF922E
:104A4000BF92CF92EF920F931F93A12CB12CC12C48
:104A5000E12C00E010E020E030E040E050E00E9477
:104A6000CA231F910F91EF90CF90BF90AF90089500
:104A70002F923F924F925F926F927F928F929F926E
:104A8000AF92BF92CF92DF92EF92FF920F931F935C
:104A9000CF93DF9300D000D0CDB7DEB78C014DB6F9
:104AA0005EB60E949723882309F442C10E94B3286E
:104AB0006B017C01580128E8A20EB11CF501808130
:104AC0009181A281B381A7019601281B390B4A0B62
:104AD0005B0BDA01C90189399A43A105B10590F44C
:104AE000349780819181A281B381A7019601281B0F
:104AF000390B4A0B5B0BDA01C90189399A43A105CD
:104B0000B105C0F148014CE8840E911CD4012C91F0
:104B1000F80180819181222371F0E556FF4F2CEF3F
:104B20003FEF31832083DC01ED91FC910288F38912
:104B3000E02D0995FDC020ECF80122831382DC01F1
:104B4000ED91FC910280F381E02D42E050E0B8014C
:104B50006E5F7F4F0995F801EC57FF4FC082D182FD
:104B6000E282F382F501C082D182E282F38281E0A7
:104B7000D4018C93F80180819181DC01ED91FC914D
:104B80000480F581E02D0995892B09F4D3C0BE017D
:104B90006F5F7F4FC8010E94DD21FC01009709F47F
:104BA000C9C0D501CD92DD92ED92FC921397D80148
:104BB00012968C91807F803309F09FC04801BDE838
:104BC0008B0E911CD4018D919C91892B09F4B2C05C
:104BD0002DB63EB6698170E0D801A60FB71F1396B7
:104BE0004C91139750E0542F442714968C911497AE
:104BF000480F511DCA0101962DB73EB7281B390B2E
:104C00000FB6F8943EBF0FBE2DBF8DB79EB701966D
:104C10005C0120E030E0BC83AB832417350769F0EA
:104C20006B807C80620E731ED30115966C90D5014B
:104C30006D925D012F5F3F4FF0CFDC01A20FB31FDC
:104C40001C92D8011296BC91B670BA83B230E9F5C5
:104C50003901660E771ED801A60DB71D1596AC90CA
:104C60001597B12CBA2CAA2416964C91A40EB11CFF
:104C70004BEF5FEF461B570B421B530B4E0F5F1F53
:104C8000B301695F7F4F600F711FD401ED91FC91FB
:104C9000099580E4F80182837A807382B482A582C8
:104CA000D8018D919D91BD01DC01ED91FC910280B7
:104CB000F381E02D44E050E00995F801EC57FF4FF7
:104CC000C082D182E282F38212C04DEF5FEF461BB9
:104CD000570B421B530B4E0F5F1F620F731F6B5F0F
:104CE0007F4F600F711FD401ED91FC9109950FB6B4
:104CF000F8943EBE0FBE2DBE1DC0803C91F480EDE9
:104D0000F80182831382D8018D919D91BD01DC0150
:104D1000ED91FC910280F381E02D42E050E0099595
:104D200009C0803D39F4F801E457FF4F108202C0FA
:104D300080E001C081E00FB6F8945EBE0FBE4DBEAC
:104D40000F900F900F900F90DF91CF911F910F91C7
:104D5000FF90EF90DF90CF90BF90AF909F908F909B
:104D60007F906F905F904F903F902F9008958F921B
:104D70009F92BF92CF92DF92EF92FF920F931F9379
:104D8000CF93DF9300D0CDB7DEB74C01B42E152FF3
:104D9000790169837A830E94972369817A818823C4
:104DA00009F446C0FB0101900020E9F73197E61BAA
:104DB000F70BC70107968E0F9F1F81389105C0F52D
:104DC000640182E0C80ED11C25E030E0A601C401D8
:104DD0000E947D23EB2DF12F60E070E09401280FFD
:104DE000391F6E157F0549F04191D901A60FB71FF4
:104DF00012964C936F5F7F4FF4CF011102C060E3B6
:104E000001C061E3970125503109280F391FA60120
:104E1000C4010F900F90DF91CF911F910F91FF90E0
:104E2000EF90DF90CF90BF909F908F900C94D822FE
:104E300080E00F900F90DF91CF911F910F91FF9025
:104E4000EF90DF90CF90BF909F908F9008950F9339
:104E500000E00E94B7260F9108950F931F93FC0165
:104E6000E157FF4FDB0112960D911D912D913C9161
:104E700015970283138324833583389651834083A7
:104E80003297118210821F910F910895FC01718356
:104E9000608308950F9300E020E040E060E08DE93A
:104EA00094E00E941A2C0F9108950895853008F01F
:104EB0004CC0E82FF0E0EE0FFF1FE45FFE4F718360
:104EC00060838230E1F018F4813069F004C08330EF
:104ED00019F1843071F1809169008C7F842B80936B
:104EE0006900E89A089580916900440F551F440FA6
:104EF000551F837F842B80936900E99A08958091E0
:104F0000690034E0440F551F3A95E1F78F7C842BFC
:104F100080936900EA9A08958091690026E0440F21
:104F2000551F2A95E1F78F73842B80936900EB9AC4
:104F3000089580916A0094E0440F551F9A95E1F717
:104F40008F7C842B80936A00EE9A08951F920F92B3
:104F50000FB60F9211242F933F934F935F936F934C
:104F60007F938F939F93AF93BF93EF93FF93E091C2
:104F70000C01F0910D010995FF91EF91BF91AF9157
:104F80009F918F917F916F915F914F913F912F9161
:104F90000F900FBE0F901F9018951F920F920FB693
:104FA0000F9211242F933F934F935F936F937F93AF
:104FB0008F939F93AF93BF93EF93FF93E0910E0175
:104FC000F0910F010995FF91EF91BF91AF919F91E2
:104FD0008F917F916F915F914F913F912F910F90A2
:104FE0000FBE0F901F9018951F920F920FB60F9241
:104FF00011242F933F934F935F936F937F938F93DE
:105000009F93AF93BF93EF93FF93E0911001F091C3
:1050100011010995FF91EF91BF91AF919F918F91F0
:105020007F916F915F914F913F912F910F900FBEA4
:105030000F901F9018951F920F920FB60F92112488
:105040002F933F934F935F936F937F938F939F9390
:10505000AF93BF93EF93FF93E0911201F09113018F
:105060000995FF91EF91BF91AF919F918F917F91A2
:105070006F915F914F913F912F910F900FBE0F90C5
:105080001F9018951F920F920FB60F9211242F9315
:105090003F934F935F936F937F938F939F93AF93C0
:1050A000BF93EF93FF93E0911401F09115010995DF
:1050B000FF91EF91BF91AF919F918F917F916F91F0
:1050C0005F914F913F912F910F900FBE0F901F90C6
:1050D00018951F920F920FB60F9211242F933F93A2
:1050E0008F939F93AF93BF938091A4049091A50455
:1050F000A091A604B091A7043091A30423E0230F4C
:105100002D3720F40196A11DB11D05C026E8230FFF
:105110000296A11DB11D2093A3048093A404909333
:10512000A504A093A604B093A7048091A80490912D
:10513000A904A091AA04B091AB040196A11DB11DD0
:105140008093A8049093A904A093AA04B093AB04FD
:10515000BF91AF919F918F913F912F910F900FBE73
:105160000F901F9018952FB7F8946091A404709138
:10517000A5048091A6049091A7042FBF08953FB77E
:10518000F8948091A8049091A904A091AA04B091E8
:10519000AB0426B5A89B05C02F3F19F00196A11DB1
:1051A000B11D3FBF6627782F892F9A2F620F711D7F
:1051B000811D911D42E0660F771F881F991F4A9538
:1051C000D1F708958F929F92AF92BF92CF92DF92C4
:1051D000EF92FF926B017C010E94BF284B015C01A2
:1051E000C114D104E104F104F1F00E94C0310E9425
:1051F000BF28681979098A099B09683E73408105AF
:10520000910570F321E0C21AD108E108F10888EE97
:10521000880E83E0981EA11CB11CC114D104E104C6
:10522000F10429F7DDCFFF90EF90DF90CF90BF9092
:10523000AF909F908F9008958230910538F0880F3D
:10524000991F880F991F05970197F1F70895789492
:1052500084B5826084BD84B5816084BD85B582607B
:1052600085BD85B5816085BDEEE6F0E08081816019
:105270008083E1E8F0E01082808182608083808119
:1052800081608083E0E8F0E0808181608083E1E9F3
:10529000F0E0808182608083808181608083E0E9AA
:1052A000F0E0808181608083E1ECF0E080818460C7
:1052B0008083808182608083808181608083E3EC51
:1052C000F0E0808181608083E0ECF0E080818260AA
:1052D0008083E2ECF0E0808181608083EAE7F0E0A7
:1052E000808184608083808182608083808181600E
:1052F00080838081806880830895823108F08251A4
:10530000E82FF0E0EF50FE4FE49180917B00E3FB4B
:10531000222720F930E095E0220F331F9A95E1F71C
:105320008F7D822B80937B00E7708091160120E4B3
:10533000829FC0011124E82BE0937C0080917A00C9
:10534000806480937A0080917A0086FDFCCF809102
:1053500078002091790090E0922B089590E0FC0174
:105360003197EF30F105B0F5EA5AFF4F0C94CC3489
:10537000809180008F7703C0809180008F7D809323
:105380008000089580918000877FF9CF84B58F7762
:1053900002C084B58F7D84BD0895809190008F7781
:1053A00007C0809190008F7D03C080919000877F1F
:1053B0008093900008958091C0008F7703C0809102
:1053C000C0008F7D8093C00008958091C200877FC8
:1053D0008093C2000895CF93DF9390E0FC01E45ED8
:1053E000FD4F2491FC01E55CFD4F8491882349F138
:1053F00090E0880F991FFC01EA58FD4FA591B491E8
:1054000088599D4FFC01C591D4919FB7611108C087
:10541000F8948C91209582238C93888182230AC0F2
:10542000623051F4F8948C91322F309583238C9311
:105430008881822B888304C0F8948C91822B8C9372
:105440009FBFDF91CF9108950F931F93CF93DF9369
:105450001F92CDB7DEB7282F30E0F901E350FE4FA1
:105460008491F901E45EFD4F1491F901E55CFD4F73
:1054700004910023C9F0882321F069830E94AE299A
:105480006981E02FF0E0EE0FFF1FE859FD4FA59175
:10549000B4919FB7F8948C91611103C0109581234A
:1054A00001C0812B8C939FBF0F90DF91CF911F91F3
:1054B0000F910895CF93DF93282F30E0F901E35047
:1054C000FE4F8491F901E45EFD4FD491F901E55C52
:1054D000FD4FC491CC2391F081110E94AE29EC2F95
:1054E000F0E0EE0FFF1FE65AFD4FA591B4912C910D
:1054F0002D2381E090E021F480E002C080E090E084
:10550000DF91CF910895BF92CF92DF92EF92FF92F9
:105510000F931F93CF93DF93C82ED62EB42EC7E0E0
:10552000D0E0022F10E087E0E82EF12CB1100AC085
:10553000F701EC1BFD0BB80102C075956795EA9564
:10554000E2F707C0B8010C2E02C0759567950A9462
:10555000E2F7617077278C2D0E94242A61E08D2D5F
:105560000E94242A60E08D2D0E94242A2197F0F6C3
:10557000DF91CF911F910F91FF90EF90DF90CF902F
:10558000BF900895CF93DF931F92CDB7DEB76983A5
:10559000DC01ED91FC910280F381E02D41E050E0CF
:1055A000BE016F5F7F4F09950F90DF91CF910895F6
:1055B000CF93DF93EC018C859D8597FF05C082E03A
:1055C0000E94422E9D878C878C859D85DF91CF918F
:1055D000089583E00C94D630FC018485958597FD71
:1055E00006C082E00E94EA2D90E00196089582E0D4
:1055F0000E94EA2D90E00895FC018485958597FD31
:1056000005C02FEF3FEF35872487089582E00C9483
:10561000422ECF93DF93EC0180912201882331F059
:1056200083E00E94732E1816190634F081E090E092
:105630009B838A8380E090E0DF91CF910895FC0105
:1056400020812E5F208342E450E064E872E080E82D
:105650000C940E2FFC0121818081813A59F4213272
:1056600009F04BC047E050E06BE171E080E00E9440
:105670000E2F5EC0813209F040C0233289F483814D
:1056800090E0982F88273281832BA0E0B0E08093B0
:10569000170190931801A0931901B0931A010FC03C
:1056A000203239F467E070E08BE191E00E943F2FF7
:1056B00009C0223221F482818093220103C02D7F10
:1056C0002032B1F58091FC04811103C0E0E0F8E0E4
:1056D00002C0EEEFFAE080911B0190911C01A091B5
:1056E0001D01B0911E01803B9440A105B10511F54B
:1056F0008091220180FF03C01DC080E00895EE3F2D
:105700002AE0F20731F0808191819093FF0A809323
:10571000FE0A87E797E7918380832BE088E190E09A
:105720000FB6F894A895809360000FBE2093600098
:1057300081E0089588E10FB6F8948093600010929C
:1057400060000FBEA895EE3F8AE0F80739F080911F
:10575000FE0A9091FF0A91838083EACF1092FF0A9C
:105760001092FE0AE5CF2FEF3FEFFC01358724872B
:1057700008951092AF041092AE0488EE93E0A0E07A
:10578000B0E08093B0049093B104A093B204B093BE
:10579000B30481EA91E09093AD048093AC048FEF61
:1057A0009FEF9093B9048093B8040895AF92BF928D
:1057B000CF92DF92EF92FF920F931F93CF93DF93DD
:1057C0006C017B01C0E0D0E000E010E0F601EC0FDE
:1057D000FD1F4AE050E06281C7010E942A2D5C0152
:1057E0006EE2C7010E949F2C8A0D9B1D080F191F96
:1057F0002196C330D10551F74AE050E0F6016581AA
:10580000C7010E942A2D800F911FDF91CF911F9118
:105810000F91FF90EF90DF90CF90BF90AF900895E1
:1058200021EB31E0FC013183208312821382148248
:10583000158208950F93FC0181EB91E091838083A1
:1058400062834383248305830F91089521EB31E024
:10585000FC0131832083FB0140815181628173818E
:10586000FC0142835383648375830895FB01408167
:10587000518162817381FC01428353836483758308
:10588000089581EB91E09093FE048093FD041092C3
:10589000FF04109200051092010510920205089570
:1058A00008950E9427290E94502C83E095E00E94D1
:1058B00063310E94B907C0E0D0E00E94F30820974E
:1058C000E1F30E940000F9CF0C94073561157105D2
:1058D00081F0DB010D900020E9F7AD014150510945
:1058E000461B570BDC01ED91FC910280F381E02D0A
:1058F000099480E090E00895EF92FF920F931F9338
:10590000CF93DF938C017B01C0E0D0E0F701EC0F77
:10591000FD1F6491662359F0F801A081B181ED91DA
:10592000FC91C8010995892B11F02196EFCFCE018A
:10593000DF91CF911F910F91FF90EF900895DC01BF
:10594000ED91FC910190F081E02D099463EB71E001
:105950000C94662C0F931F93CF93DF93EC010E945E
:105960007C2C8C01CE010E94A62C800F911FDF9110
:10597000CF911F910F9108950F931F93CF93DF93B2
:10598000EC010E94662C8C01CE010E94A62C800F97
:10599000911FDF91CF911F910F9108958F929F9248
:1059A000AF92BF92DF92EF92FF920F931F93CF932C
:1059B000DF93CDB7DEB7A1970FB6F894DEBF0FBE69
:1059C000CDBF7C01F42FD52ECB0119A2223008F4D3
:1059D0002AE08E010F5D1F4F822E912CA12CB12C3D
:1059E0006F2F7D2DA50194010E948B34F22FD32EB1
:1059F000CA01015011096A3014F4E0E301C0E7E381
:105A0000E60FD801EC93232B242B252B49F7B80163
:105A1000C7010E94662CA1960FB6F894DEBF0FBE98
:105A2000CDBFDF91CF911F910F91FF90EF90DF904D
:105A3000BF90AF909F908F9008952115310541F44C
:105A4000DC01ED91FC910190F081E02D642F09942F
:105A50000C94CE2C9A01462F50E060E070E00C943C
:105A60001D2D615030F02091F100FC012083019642
:105A7000F8CF289884E680930C0508954091070597
:105A800050910805209105053091060542175307EE
:105A9000B4F49091E8009570E1F39091E80092FDE4
:105AA00019C08093F1008091070590910805019637
:105AB0008F739927892B19F48EEF8093E8008091DA
:105AC00007059091080501969093080580930705B6
:105AD00081E0089580E00895CF92DF92EF92FF92E7
